{
	"contracts/FreedomCoinNew.sol": {
		"FreedomCoinNew": {
			"abi": [
				{
					"inputs": [],
					"stateMutability": "nonpayable",
					"type": "constructor"
				},
				{
					"anonymous": false,
					"inputs": [
						{
							"indexed": true,
							"internalType": "address",
							"name": "owner",
							"type": "address"
						},
						{
							"indexed": true,
							"internalType": "address",
							"name": "spender",
							"type": "address"
						},
						{
							"indexed": false,
							"internalType": "uint256",
							"name": "value",
							"type": "uint256"
						}
					],
					"name": "Approval",
					"type": "event"
				},
				{
					"anonymous": false,
					"inputs": [
						{
							"indexed": true,
							"internalType": "address",
							"name": "previousOwner",
							"type": "address"
						},
						{
							"indexed": true,
							"internalType": "address",
							"name": "newOwner",
							"type": "address"
						}
					],
					"name": "OwnershipTransferred",
					"type": "event"
				},
				{
					"anonymous": false,
					"inputs": [
						{
							"indexed": true,
							"internalType": "address",
							"name": "from",
							"type": "address"
						},
						{
							"indexed": true,
							"internalType": "address",
							"name": "to",
							"type": "address"
						},
						{
							"indexed": false,
							"internalType": "uint256",
							"name": "value",
							"type": "uint256"
						}
					],
					"name": "Transfer",
					"type": "event"
				},
				{
					"inputs": [],
					"name": "_charityWallet",
					"outputs": [
						{
							"internalType": "address payable",
							"name": "",
							"type": "address"
						}
					],
					"stateMutability": "view",
					"type": "function"
				},
				{
					"inputs": [],
					"name": "_feeBuyAndSellCharity",
					"outputs": [
						{
							"internalType": "uint256",
							"name": "",
							"type": "uint256"
						}
					],
					"stateMutability": "view",
					"type": "function"
				},
				{
					"inputs": [],
					"name": "_feeBuyAndSellLP",
					"outputs": [
						{
							"internalType": "uint256",
							"name": "",
							"type": "uint256"
						}
					],
					"stateMutability": "view",
					"type": "function"
				},
				{
					"inputs": [],
					"name": "_feeBuyAndSellMK",
					"outputs": [
						{
							"internalType": "uint256",
							"name": "",
							"type": "uint256"
						}
					],
					"stateMutability": "view",
					"type": "function"
				},
				{
					"inputs": [],
					"name": "_feeBuyAndSellTotal",
					"outputs": [
						{
							"internalType": "uint256",
							"name": "",
							"type": "uint256"
						}
					],
					"stateMutability": "view",
					"type": "function"
				},
				{
					"inputs": [],
					"name": "_marketingDevWallet",
					"outputs": [
						{
							"internalType": "address payable",
							"name": "",
							"type": "address"
						}
					],
					"stateMutability": "view",
					"type": "function"
				},
				{
					"inputs": [],
					"name": "_maxTokens",
					"outputs": [
						{
							"internalType": "uint256",
							"name": "",
							"type": "uint256"
						}
					],
					"stateMutability": "view",
					"type": "function"
				},
				{
					"inputs": [
						{
							"internalType": "address",
							"name": "owner",
							"type": "address"
						},
						{
							"internalType": "address",
							"name": "spender",
							"type": "address"
						}
					],
					"name": "allowance",
					"outputs": [
						{
							"internalType": "uint256",
							"name": "",
							"type": "uint256"
						}
					],
					"stateMutability": "view",
					"type": "function"
				},
				{
					"inputs": [
						{
							"internalType": "address",
							"name": "spender",
							"type": "address"
						},
						{
							"internalType": "uint256",
							"name": "amount",
							"type": "uint256"
						}
					],
					"name": "approve",
					"outputs": [
						{
							"internalType": "bool",
							"name": "",
							"type": "bool"
						}
					],
					"stateMutability": "nonpayable",
					"type": "function"
				},
				{
					"inputs": [
						{
							"internalType": "address",
							"name": "account",
							"type": "address"
						}
					],
					"name": "balanceOf",
					"outputs": [
						{
							"internalType": "uint256",
							"name": "",
							"type": "uint256"
						}
					],
					"stateMutability": "view",
					"type": "function"
				},
				{
					"inputs": [],
					"name": "decimals",
					"outputs": [
						{
							"internalType": "uint8",
							"name": "",
							"type": "uint8"
						}
					],
					"stateMutability": "view",
					"type": "function"
				},
				{
					"inputs": [
						{
							"internalType": "address",
							"name": "spender",
							"type": "address"
						},
						{
							"internalType": "uint256",
							"name": "subtractedValue",
							"type": "uint256"
						}
					],
					"name": "decreaseAllowance",
					"outputs": [
						{
							"internalType": "bool",
							"name": "",
							"type": "bool"
						}
					],
					"stateMutability": "nonpayable",
					"type": "function"
				},
				{
					"inputs": [
						{
							"internalType": "uint256",
							"name": "__feeBuyReward",
							"type": "uint256"
						},
						{
							"internalType": "uint256",
							"name": "__feeBuyMK",
							"type": "uint256"
						},
						{
							"internalType": "uint256",
							"name": "__feeBuyLP",
							"type": "uint256"
						}
					],
					"name": "editFees",
					"outputs": [],
					"stateMutability": "nonpayable",
					"type": "function"
				},
				{
					"inputs": [
						{
							"internalType": "address",
							"name": "spender",
							"type": "address"
						},
						{
							"internalType": "uint256",
							"name": "addedValue",
							"type": "uint256"
						}
					],
					"name": "increaseAllowance",
					"outputs": [
						{
							"internalType": "bool",
							"name": "",
							"type": "bool"
						}
					],
					"stateMutability": "nonpayable",
					"type": "function"
				},
				{
					"inputs": [],
					"name": "name",
					"outputs": [
						{
							"internalType": "string",
							"name": "",
							"type": "string"
						}
					],
					"stateMutability": "view",
					"type": "function"
				},
				{
					"inputs": [],
					"name": "owner",
					"outputs": [
						{
							"internalType": "address",
							"name": "",
							"type": "address"
						}
					],
					"stateMutability": "view",
					"type": "function"
				},
				{
					"inputs": [],
					"name": "renounceOwnership",
					"outputs": [],
					"stateMutability": "nonpayable",
					"type": "function"
				},
				{
					"inputs": [
						{
							"internalType": "address payable",
							"name": "newWallet",
							"type": "address"
						}
					],
					"name": "setMarketingWallet",
					"outputs": [],
					"stateMutability": "nonpayable",
					"type": "function"
				},
				{
					"inputs": [
						{
							"internalType": "uint256",
							"name": "newValue",
							"type": "uint256"
						}
					],
					"name": "setMinTokens",
					"outputs": [],
					"stateMutability": "nonpayable",
					"type": "function"
				},
				{
					"inputs": [
						{
							"internalType": "address payable",
							"name": "newWallet",
							"type": "address"
						}
					],
					"name": "setRewardWallet",
					"outputs": [],
					"stateMutability": "nonpayable",
					"type": "function"
				},
				{
					"inputs": [],
					"name": "swapPair",
					"outputs": [
						{
							"internalType": "address",
							"name": "",
							"type": "address"
						}
					],
					"stateMutability": "view",
					"type": "function"
				},
				{
					"inputs": [],
					"name": "swapRouter",
					"outputs": [
						{
							"internalType": "contract IUniswapV2Router",
							"name": "",
							"type": "address"
						}
					],
					"stateMutability": "view",
					"type": "function"
				},
				{
					"inputs": [],
					"name": "symbol",
					"outputs": [
						{
							"internalType": "string",
							"name": "",
							"type": "string"
						}
					],
					"stateMutability": "view",
					"type": "function"
				},
				{
					"inputs": [],
					"name": "totalSupply",
					"outputs": [
						{
							"internalType": "uint256",
							"name": "",
							"type": "uint256"
						}
					],
					"stateMutability": "view",
					"type": "function"
				},
				{
					"inputs": [
						{
							"internalType": "address",
							"name": "to",
							"type": "address"
						},
						{
							"internalType": "uint256",
							"name": "amount",
							"type": "uint256"
						}
					],
					"name": "transfer",
					"outputs": [
						{
							"internalType": "bool",
							"name": "",
							"type": "bool"
						}
					],
					"stateMutability": "nonpayable",
					"type": "function"
				},
				{
					"inputs": [
						{
							"internalType": "address",
							"name": "from",
							"type": "address"
						},
						{
							"internalType": "address",
							"name": "to",
							"type": "address"
						},
						{
							"internalType": "uint256",
							"name": "amount",
							"type": "uint256"
						}
					],
					"name": "transferFrom",
					"outputs": [
						{
							"internalType": "bool",
							"name": "",
							"type": "bool"
						}
					],
					"stateMutability": "nonpayable",
					"type": "function"
				},
				{
					"inputs": [
						{
							"internalType": "address",
							"name": "newOwner",
							"type": "address"
						}
					],
					"name": "transferOwnership",
					"outputs": [],
					"stateMutability": "nonpayable",
					"type": "function"
				}
			],
			"devdoc": {
				"events": {
					"Approval(address,address,uint256)": {
						"details": "Emitted when the allowance of a `spender` for an `owner` is set by a call to {approve}. `value` is the new allowance."
					},
					"Transfer(address,address,uint256)": {
						"details": "Emitted when `value` tokens are moved from one account (`from`) to another (`to`). Note that `value` may be zero."
					}
				},
				"kind": "dev",
				"methods": {
					"allowance(address,address)": {
						"details": "See {IERC20-allowance}."
					},
					"approve(address,uint256)": {
						"details": "See {IERC20-approve}. NOTE: If `amount` is the maximum `uint256`, the allowance is not updated on `transferFrom`. This is semantically equivalent to an infinite approval. Requirements: - `spender` cannot be the zero address."
					},
					"balanceOf(address)": {
						"details": "See {IERC20-balanceOf}."
					},
					"decimals()": {
						"details": "Returns the number of decimals used to get its user representation. For example, if `decimals` equals `2`, a balance of `505` tokens should be displayed to a user as `5.05` (`505 / 10 ** 2`). Tokens usually opt for a value of 18, imitating the relationship between Ether and Wei. This is the value {ERC20} uses, unless this function is overridden; NOTE: This information is only used for _display_ purposes: it in no way affects any of the arithmetic of the contract, including {IERC20-balanceOf} and {IERC20-transfer}."
					},
					"decreaseAllowance(address,uint256)": {
						"details": "Atomically decreases the allowance granted to `spender` by the caller. This is an alternative to {approve} that can be used as a mitigation for problems described in {IERC20-approve}. Emits an {Approval} event indicating the updated allowance. Requirements: - `spender` cannot be the zero address. - `spender` must have allowance for the caller of at least `subtractedValue`."
					},
					"increaseAllowance(address,uint256)": {
						"details": "Atomically increases the allowance granted to `spender` by the caller. This is an alternative to {approve} that can be used as a mitigation for problems described in {IERC20-approve}. Emits an {Approval} event indicating the updated allowance. Requirements: - `spender` cannot be the zero address."
					},
					"name()": {
						"details": "Returns the name of the token."
					},
					"owner()": {
						"details": "Returns the address of the current owner."
					},
					"renounceOwnership()": {
						"details": "Leaves the contract without owner. It will not be possible to call `onlyOwner` functions anymore. Can only be called by the current owner. NOTE: Renouncing ownership will leave the contract without an owner, thereby removing any functionality that is only available to the owner."
					},
					"symbol()": {
						"details": "Returns the symbol of the token, usually a shorter version of the name."
					},
					"totalSupply()": {
						"details": "See {IERC20-totalSupply}."
					},
					"transfer(address,uint256)": {
						"details": "See {IERC20-transfer}. Requirements: - `to` cannot be the zero address. - the caller must have a balance of at least `amount`."
					},
					"transferFrom(address,address,uint256)": {
						"details": "See {IERC20-transferFrom}. Emits an {Approval} event indicating the updated allowance. This is not required by the EIP. See the note at the beginning of {ERC20}. NOTE: Does not update the allowance if the current allowance is the maximum `uint256`. Requirements: - `from` and `to` cannot be the zero address. - `from` must have a balance of at least `amount`. - the caller must have allowance for ``from``'s tokens of at least `amount`."
					},
					"transferOwnership(address)": {
						"details": "Transfers ownership of the contract to a new account (`newOwner`). Can only be called by the current owner."
					}
				},
				"version": 1
			},
			"evm": {
				"assembly": "    /* \"contracts/FreedomCoinNew.sol\":15402:19637  contract FreedomCoinNew is ERC20, Ownable {... */\n  mstore(0x40, 0x80)\n    /* \"contracts/FreedomCoinNew.sol\":15520:15562  0x047c0D746D42fF4cEe7d2CB1FBf5c0D090267931 */\n  0x047c0d746d42ff4cee7d2cb1fbf5c0d090267931\n    /* \"contracts/FreedomCoinNew.sol\":15472:15563  address payable public _charityWallet = payable(0x047c0D746D42fF4cEe7d2CB1FBf5c0D090267931) */\n  0x06\n  exp(0x0100, 0x00)\n  dup2\n  sload\n  dup2\n  0xffffffffffffffffffffffffffffffffffffffff\n  mul\n  not\n  and\n  swap1\n  dup4\n  0xffffffffffffffffffffffffffffffffffffffff\n  and\n  mul\n  or\n  swap1\n  sstore\n  pop\n    /* \"contracts/FreedomCoinNew.sol\":15622:15664  0x0331535b9f37EB41F437EA0cfE345ABB9d102A1A */\n  0x0331535b9f37eb41f437ea0cfe345abb9d102a1a\n    /* \"contracts/FreedomCoinNew.sol\":15569:15665  address payable public _marketingDevWallet = payable(0x0331535b9f37EB41F437EA0cfE345ABB9d102A1A) */\n  0x07\n  exp(0x0100, 0x00)\n  dup2\n  sload\n  dup2\n  0xffffffffffffffffffffffffffffffffffffffff\n  mul\n  not\n  and\n  swap1\n  dup4\n  0xffffffffffffffffffffffffffffffffffffffff\n  and\n  mul\n  or\n  swap1\n  sstore\n  pop\n    /* \"contracts/FreedomCoinNew.sol\":15728:15730  29 */\n  0x1d\n    /* \"contracts/FreedomCoinNew.sol\":15691:15730  uint256 public _feeBuyAndSellTotal = 29 */\n  0x08\n  sstore\n    /* \"contracts/FreedomCoinNew.sol\":15776:15778  10 */\n  0x0a\n    /* \"contracts/FreedomCoinNew.sol\":15737:15778  uint256 public _feeBuyAndSellCharity = 10 */\n  0x09\n  sstore\n    /* \"contracts/FreedomCoinNew.sol\":15818:15819  9 */\n  0x09\n    /* \"contracts/FreedomCoinNew.sol\":15784:15819  uint256 public _feeBuyAndSellMK = 9 */\n  0x0a\n  sstore\n    /* \"contracts/FreedomCoinNew.sol\":15859:15861  10 */\n  0x0a\n    /* \"contracts/FreedomCoinNew.sol\":15825:15861  uint256 public _feeBuyAndSellLP = 10 */\n  0x0b\n  sstore\n    /* \"contracts/FreedomCoinNew.sol\":15929:15939  decimals() */\n  tag_1\n    /* \"contracts/FreedomCoinNew.sol\":15929:15937  decimals */\n  shl(0x20, tag_2)\n    /* \"contracts/FreedomCoinNew.sol\":15929:15939  decimals() */\n  0x20\n  shr\n  jump\t// in\ntag_1:\n    /* \"contracts/FreedomCoinNew.sol\":15923:15925  10 */\n  0x0a\n    /* \"contracts/FreedomCoinNew.sol\":15923:15939  10 ** decimals() */\n  tag_3\n  swap2\n  swap1\n  tag_4\n  jump\t// in\ntag_3:\n    /* \"contracts/FreedomCoinNew.sol\":15917:15920  100 */\n  0x64\n    /* \"contracts/FreedomCoinNew.sol\":15917:15939  100 * 10 ** decimals() */\n  tag_5\n  swap2\n  swap1\n  tag_6\n  jump\t// in\ntag_5:\n    /* \"contracts/FreedomCoinNew.sol\":15889:15939  uint256 public _maxTokens = 100 * 10 ** decimals() */\n  0x0c\n  sstore\n    /* \"contracts/FreedomCoinNew.sol\":15998:15999  0 */\n  0x00\n    /* \"contracts/FreedomCoinNew.sol\":15967:15999  uint256 private _tempCharity = 0 */\n  0x0d\n  sstore\n    /* \"contracts/FreedomCoinNew.sol\":16031:16032  0 */\n  0x00\n    /* \"contracts/FreedomCoinNew.sol\":16005:16032  uint256 private _tempMK = 0 */\n  0x0e\n  sstore\n    /* \"contracts/FreedomCoinNew.sol\":16064:16065  0 */\n  0x00\n    /* \"contracts/FreedomCoinNew.sol\":16038:16065  uint256 private _tempLP = 0 */\n  0x0f\n  sstore\n    /* \"contracts/FreedomCoinNew.sol\":16222:16828  constructor() ERC20(\"Freedom Coin\", \"FREED\") {... */\n  callvalue\n  dup1\n  iszero\n  tag_7\n  jumpi\n  0x00\n  dup1\n  revert\ntag_7:\n  pop\n    /* \"contracts/FreedomCoinNew.sol\":6307:6420  constructor(string memory name_, string memory symbol_) {... */\n  mload(0x40)\n  dup1\n  0x40\n  add\n  0x40\n  mstore\n  dup1\n  0x0c\n  dup2\n  mstore\n  0x20\n  add\n  0x46726565646f6d20436f696e0000000000000000000000000000000000000000\n  dup2\n  mstore\n  pop\n  mload(0x40)\n  dup1\n  0x40\n  add\n  0x40\n  mstore\n  dup1\n  0x05\n  dup2\n  mstore\n  0x20\n  add\n  0x4652454544000000000000000000000000000000000000000000000000000000\n  dup2\n  mstore\n  pop\n    /* \"contracts/FreedomCoinNew.sol\":6381:6386  name_ */\n  dup2\n    /* \"contracts/FreedomCoinNew.sol\":6373:6378  _name */\n  0x03\n    /* \"contracts/FreedomCoinNew.sol\":6373:6386  _name = name_ */\n  swap1\n  dup2\n  tag_12\n  swap2\n  swap1\n  tag_13\n  jump\t// in\ntag_12:\n  pop\n    /* \"contracts/FreedomCoinNew.sol\":6406:6413  symbol_ */\n  dup1\n    /* \"contracts/FreedomCoinNew.sol\":6396:6403  _symbol */\n  0x04\n    /* \"contracts/FreedomCoinNew.sol\":6396:6413  _symbol = symbol_ */\n  swap1\n  dup2\n  tag_14\n  swap2\n  swap1\n  tag_13\n  jump\t// in\ntag_14:\n  pop\n    /* \"contracts/FreedomCoinNew.sol\":6307:6420  constructor(string memory name_, string memory symbol_) {... */\n  pop\n  pop\n    /* \"contracts/FreedomCoinNew.sol\":4314:4346  _transferOwnership(_msgSender()) */\n  tag_16\n    /* \"contracts/FreedomCoinNew.sol\":4333:4345  _msgSender() */\n  tag_17\n    /* \"contracts/FreedomCoinNew.sol\":4333:4343  _msgSender */\n  shl(0x20, tag_18)\n    /* \"contracts/FreedomCoinNew.sol\":4333:4345  _msgSender() */\n  0x20\n  shr\n  jump\t// in\ntag_17:\n    /* \"contracts/FreedomCoinNew.sol\":4314:4332  _transferOwnership */\n  shl(0x20, tag_19)\n    /* \"contracts/FreedomCoinNew.sol\":4314:4346  _transferOwnership(_msgSender()) */\n  0x20\n  shr\n  jump\t// in\ntag_16:\n    /* \"contracts/FreedomCoinNew.sol\":16277:16296  uint256 totalSupply */\n  0x00\n    /* \"contracts/FreedomCoinNew.sol\":16324:16334  decimals() */\n  tag_21\n    /* \"contracts/FreedomCoinNew.sol\":16324:16332  decimals */\n  shl(0x20, tag_2)\n    /* \"contracts/FreedomCoinNew.sol\":16324:16334  decimals() */\n  0x20\n  shr\n  jump\t// in\ntag_21:\n    /* \"contracts/FreedomCoinNew.sol\":16316:16335  uint256(decimals()) */\n  0xff\n  and\n    /* \"contracts/FreedomCoinNew.sol\":16310:16312  10 */\n  0x0a\n    /* \"contracts/FreedomCoinNew.sol\":16310:16335  10 ** uint256(decimals()) */\n  tag_22\n  swap2\n  swap1\n  tag_23\n  jump\t// in\ntag_22:\n    /* \"contracts/FreedomCoinNew.sol\":16299:16306  7000000 */\n  0x6acfc0\n    /* \"contracts/FreedomCoinNew.sol\":16299:16336  7000000 * (10 ** uint256(decimals())) */\n  tag_24\n  swap2\n  swap1\n  tag_6\n  jump\t// in\ntag_24:\n    /* \"contracts/FreedomCoinNew.sol\":16277:16336  uint256 totalSupply = 7000000 * (10 ** uint256(decimals())) */\n  swap1\n  pop\n    /* \"contracts/FreedomCoinNew.sol\":16346:16378  _mint(msg.sender, (totalSupply)) */\n  tag_25\n    /* \"contracts/FreedomCoinNew.sol\":16352:16362  msg.sender */\n  caller\n    /* \"contracts/FreedomCoinNew.sol\":16365:16376  totalSupply */\n  dup3\n    /* \"contracts/FreedomCoinNew.sol\":16346:16351  _mint */\n  shl(0x20, tag_26)\n    /* \"contracts/FreedomCoinNew.sol\":16346:16378  _mint(msg.sender, (totalSupply)) */\n  0x20\n  shr\n  jump\t// in\ntag_25:\n    /* \"contracts/FreedomCoinNew.sol\":16389:16420  IUniswapV2Router _uniswapRouter */\n  0x00\n    /* \"contracts/FreedomCoinNew.sol\":16453:16495  0xedf6066a2b290C185783862C7F4776A2C8077AD1 */\n  0xedf6066a2b290c185783862c7f4776a2c8077ad1\n    /* \"contracts/FreedomCoinNew.sol\":16389:16505  IUniswapV2Router _uniswapRouter = IUniswapV2Router(... */\n  swap1\n  pop\n    /* \"contracts/FreedomCoinNew.sol\":16544:16558  _uniswapRouter */\n  dup1\n    /* \"contracts/FreedomCoinNew.sol\":16544:16566  _uniswapRouter.factory */\n  0xffffffffffffffffffffffffffffffffffffffff\n  and\n  0xc45a0155\n    /* \"contracts/FreedomCoinNew.sol\":16544:16568  _uniswapRouter.factory() */\n  mload(0x40)\n  dup2\n  0xffffffff\n  and\n  0xe0\n  shl\n  dup2\n  mstore\n  0x04\n  add\n  0x20\n  mload(0x40)\n  dup1\n  dup4\n  sub\n  dup2\n  dup7\n  gas\n  staticcall\n  iszero\n  dup1\n  iszero\n  tag_28\n  jumpi\n  returndatasize\n  0x00\n  dup1\n  returndatacopy\n  revert(0x00, returndatasize)\ntag_28:\n  pop\n  pop\n  pop\n  pop\n  mload(0x40)\n  returndatasize\n  not(0x1f)\n  0x1f\n  dup3\n  add\n  and\n  dup3\n  add\n  dup1\n  0x40\n  mstore\n  pop\n  dup2\n  add\n  swap1\n  tag_29\n  swap2\n  swap1\n  tag_30\n  jump\t// in\ntag_29:\n    /* \"contracts/FreedomCoinNew.sol\":16526:16593  IUniswapV2Factory(_uniswapRouter.factory())... */\n  0xffffffffffffffffffffffffffffffffffffffff\n  and\n  0xc9c65396\n    /* \"contracts/FreedomCoinNew.sol\":16602:16606  this */\n  address\n    /* \"contracts/FreedomCoinNew.sol\":16609:16623  _uniswapRouter */\n  dup4\n    /* \"contracts/FreedomCoinNew.sol\":16609:16628  _uniswapRouter.WETH */\n  0xffffffffffffffffffffffffffffffffffffffff\n  and\n  0xad5c4648\n    /* \"contracts/FreedomCoinNew.sol\":16609:16630  _uniswapRouter.WETH() */\n  mload(0x40)\n  dup2\n  0xffffffff\n  and\n  0xe0\n  shl\n  dup2\n  mstore\n  0x04\n  add\n  0x20\n  mload(0x40)\n  dup1\n  dup4\n  sub\n  dup2\n  dup7\n  gas\n  staticcall\n  iszero\n  dup1\n  iszero\n  tag_32\n  jumpi\n  returndatasize\n  0x00\n  dup1\n  returndatacopy\n  revert(0x00, returndatasize)\ntag_32:\n  pop\n  pop\n  pop\n  pop\n  mload(0x40)\n  returndatasize\n  not(0x1f)\n  0x1f\n  dup3\n  add\n  and\n  dup3\n  add\n  dup1\n  0x40\n  mstore\n  pop\n  dup2\n  add\n  swap1\n  tag_33\n  swap2\n  swap1\n  tag_30\n  jump\t// in\ntag_33:\n    /* \"contracts/FreedomCoinNew.sol\":16526:16631  IUniswapV2Factory(_uniswapRouter.factory())... */\n  mload(0x40)\n  dup4\n  0xffffffff\n  and\n  0xe0\n  shl\n  dup2\n  mstore\n  0x04\n  add\n  tag_34\n  swap3\n  swap2\n  swap1\n  tag_35\n  jump\t// in\ntag_34:\n  0x20\n  mload(0x40)\n  dup1\n  dup4\n  sub\n  dup2\n  0x00\n  dup8\n  gas\n  call\n  iszero\n  dup1\n  iszero\n  tag_37\n  jumpi\n  returndatasize\n  0x00\n  dup1\n  returndatacopy\n  revert(0x00, returndatasize)\ntag_37:\n  pop\n  pop\n  pop\n  pop\n  mload(0x40)\n  returndatasize\n  not(0x1f)\n  0x1f\n  dup3\n  add\n  and\n  dup3\n  add\n  dup1\n  0x40\n  mstore\n  pop\n  dup2\n  add\n  swap1\n  tag_38\n  swap2\n  swap1\n  tag_30\n  jump\t// in\ntag_38:\n    /* \"contracts/FreedomCoinNew.sol\":16515:16523  swapPair */\n  0x11\n  0x00\n    /* \"contracts/FreedomCoinNew.sol\":16515:16631  swapPair = IUniswapV2Factory(_uniswapRouter.factory())... */\n  0x0100\n  exp\n  dup2\n  sload\n  dup2\n  0xffffffffffffffffffffffffffffffffffffffff\n  mul\n  not\n  and\n  swap1\n  dup4\n  0xffffffffffffffffffffffffffffffffffffffff\n  and\n  mul\n  or\n  swap1\n  sstore\n  pop\n    /* \"contracts/FreedomCoinNew.sol\":16655:16669  _uniswapRouter */\n  dup1\n    /* \"contracts/FreedomCoinNew.sol\":16642:16652  swapRouter */\n  0x10\n  0x00\n    /* \"contracts/FreedomCoinNew.sol\":16642:16669  swapRouter = _uniswapRouter */\n  0x0100\n  exp\n  dup2\n  sload\n  dup2\n  0xffffffffffffffffffffffffffffffffffffffff\n  mul\n  not\n  and\n  swap1\n  dup4\n  0xffffffffffffffffffffffffffffffffffffffff\n  and\n  mul\n  or\n  swap1\n  sstore\n  pop\n    /* \"contracts/FreedomCoinNew.sol\":16688:16748  _approve(msg.sender, address(swapRouter), type(uint256).max) */\n  tag_39\n    /* \"contracts/FreedomCoinNew.sol\":16697:16707  msg.sender */\n  caller\n    /* \"contracts/FreedomCoinNew.sol\":16717:16727  swapRouter */\n  0x10\n  0x00\n  swap1\n  sload\n  swap1\n  0x0100\n  exp\n  swap1\n  div\n  0xffffffffffffffffffffffffffffffffffffffff\n  and\n    /* \"contracts/FreedomCoinNew.sol\":16730:16747  type(uint256).max */\n  0xffffffffffffffffffffffffffffffffffffffffffffffffffffffffffffffff\n    /* \"contracts/FreedomCoinNew.sol\":16688:16696  _approve */\n  shl(0x20, tag_40)\n    /* \"contracts/FreedomCoinNew.sol\":16688:16748  _approve(msg.sender, address(swapRouter), type(uint256).max) */\n  0x20\n  shr\n  jump\t// in\ntag_39:\n    /* \"contracts/FreedomCoinNew.sol\":16758:16821  _approve(address(this), address(swapRouter), type(uint256).max) */\n  tag_41\n    /* \"contracts/FreedomCoinNew.sol\":16775:16779  this */\n  address\n    /* \"contracts/FreedomCoinNew.sol\":16790:16800  swapRouter */\n  0x10\n  0x00\n  swap1\n  sload\n  swap1\n  0x0100\n  exp\n  swap1\n  div\n  0xffffffffffffffffffffffffffffffffffffffff\n  and\n    /* \"contracts/FreedomCoinNew.sol\":16803:16820  type(uint256).max */\n  0xffffffffffffffffffffffffffffffffffffffffffffffffffffffffffffffff\n    /* \"contracts/FreedomCoinNew.sol\":16758:16766  _approve */\n  shl(0x20, tag_40)\n    /* \"contracts/FreedomCoinNew.sol\":16758:16821  _approve(address(this), address(swapRouter), type(uint256).max) */\n  0x20\n  shr\n  jump\t// in\ntag_41:\n    /* \"contracts/FreedomCoinNew.sol\":16267:16828  {... */\n  pop\n  pop\n    /* \"contracts/FreedomCoinNew.sol\":15402:19637  contract FreedomCoinNew is ERC20, Ownable {... */\n  jump(tag_42)\n    /* \"contracts/FreedomCoinNew.sol\":7623:7714  function decimals() public view virtual override returns (uint8) {... */\ntag_2:\n    /* \"contracts/FreedomCoinNew.sol\":7681:7686  uint8 */\n  0x00\n    /* \"contracts/FreedomCoinNew.sol\":7705:7707  18 */\n  0x12\n    /* \"contracts/FreedomCoinNew.sol\":7698:7707  return 18 */\n  swap1\n  pop\n    /* \"contracts/FreedomCoinNew.sol\":7623:7714  function decimals() public view virtual override returns (uint8) {... */\n  swap1\n  jump\t// out\n    /* \"contracts/FreedomCoinNew.sol\":3910:4006  function _msgSender() internal view virtual returns (address) {... */\ntag_18:\n    /* \"contracts/FreedomCoinNew.sol\":3963:3970  address */\n  0x00\n    /* \"contracts/FreedomCoinNew.sol\":3989:3999  msg.sender */\n  caller\n    /* \"contracts/FreedomCoinNew.sol\":3982:3999  return msg.sender */\n  swap1\n  pop\n    /* \"contracts/FreedomCoinNew.sol\":3910:4006  function _msgSender() internal view virtual returns (address) {... */\n  swap1\n  jump\t// out\n    /* \"contracts/FreedomCoinNew.sol\":5845:6032  function _transferOwnership(address newOwner) internal virtual {... */\ntag_19:\n    /* \"contracts/FreedomCoinNew.sol\":5918:5934  address oldOwner */\n  0x00\n    /* \"contracts/FreedomCoinNew.sol\":5937:5943  _owner */\n  0x05\n  0x00\n  swap1\n  sload\n  swap1\n  0x0100\n  exp\n  swap1\n  div\n  0xffffffffffffffffffffffffffffffffffffffff\n  and\n    /* \"contracts/FreedomCoinNew.sol\":5918:5943  address oldOwner = _owner */\n  swap1\n  pop\n    /* \"contracts/FreedomCoinNew.sol\":5962:5970  newOwner */\n  dup2\n    /* \"contracts/FreedomCoinNew.sol\":5953:5959  _owner */\n  0x05\n  0x00\n    /* \"contracts/FreedomCoinNew.sol\":5953:5970  _owner = newOwner */\n  0x0100\n  exp\n  dup2\n  sload\n  dup2\n  0xffffffffffffffffffffffffffffffffffffffff\n  mul\n  not\n  and\n  swap1\n  dup4\n  0xffffffffffffffffffffffffffffffffffffffff\n  and\n  mul\n  or\n  swap1\n  sstore\n  pop\n    /* \"contracts/FreedomCoinNew.sol\":6016:6024  newOwner */\n  dup2\n    /* \"contracts/FreedomCoinNew.sol\":5985:6025  OwnershipTransferred(oldOwner, newOwner) */\n  0xffffffffffffffffffffffffffffffffffffffff\n  and\n    /* \"contracts/FreedomCoinNew.sol\":6006:6014  oldOwner */\n  dup2\n    /* \"contracts/FreedomCoinNew.sol\":5985:6025  OwnershipTransferred(oldOwner, newOwner) */\n  0xffffffffffffffffffffffffffffffffffffffff\n  and\n  0x8be0079c531659141344cd1fd0a4f28419497f9722a3daafe3b4186f6b6457e0\n  mload(0x40)\n  mload(0x40)\n  dup1\n  swap2\n  sub\n  swap1\n  log3\n    /* \"contracts/FreedomCoinNew.sol\":5908:6032  {... */\n  pop\n    /* \"contracts/FreedomCoinNew.sol\":5845:6032  function _transferOwnership(address newOwner) internal virtual {... */\n  pop\n  jump\t// out\n    /* \"contracts/FreedomCoinNew.sol\":11800:12216  function _mint(address account, uint256 amount) internal virtual {... */\ntag_26:\n    /* \"contracts/FreedomCoinNew.sol\":11902:11903  0 */\n  0x00\n    /* \"contracts/FreedomCoinNew.sol\":11883:11904  account != address(0) */\n  0xffffffffffffffffffffffffffffffffffffffff\n  and\n    /* \"contracts/FreedomCoinNew.sol\":11883:11890  account */\n  dup3\n    /* \"contracts/FreedomCoinNew.sol\":11883:11904  account != address(0) */\n  0xffffffffffffffffffffffffffffffffffffffff\n  and\n  sub\n    /* \"contracts/FreedomCoinNew.sol\":11875:11940  require(account != address(0), \"ERC20: mint to the zero address\") */\n  tag_47\n  jumpi\n  mload(0x40)\n  0x08c379a000000000000000000000000000000000000000000000000000000000\n  dup2\n  mstore\n  0x04\n  add\n  tag_48\n  swap1\n  tag_49\n  jump\t// in\ntag_48:\n  mload(0x40)\n  dup1\n  swap2\n  sub\n  swap1\n  revert\ntag_47:\n    /* \"contracts/FreedomCoinNew.sol\":11967:11973  amount */\n  dup1\n    /* \"contracts/FreedomCoinNew.sol\":11951:11963  _totalSupply */\n  0x02\n  0x00\n    /* \"contracts/FreedomCoinNew.sol\":11951:11973  _totalSupply += amount */\n  dup3\n  dup3\n  sload\n  tag_50\n  swap2\n  swap1\n  tag_51\n  jump\t// in\ntag_50:\n  swap3\n  pop\n  pop\n  dup2\n  swap1\n  sstore\n  pop\n    /* \"contracts/FreedomCoinNew.sol\":12141:12147  amount */\n  dup1\n    /* \"contracts/FreedomCoinNew.sol\":12119:12128  _balances */\n  0x00\n    /* \"contracts/FreedomCoinNew.sol\":12119:12137  _balances[account] */\n  dup1\n    /* \"contracts/FreedomCoinNew.sol\":12129:12136  account */\n  dup5\n    /* \"contracts/FreedomCoinNew.sol\":12119:12137  _balances[account] */\n  0xffffffffffffffffffffffffffffffffffffffff\n  and\n  0xffffffffffffffffffffffffffffffffffffffff\n  and\n  dup2\n  mstore\n  0x20\n  add\n  swap1\n  dup2\n  mstore\n  0x20\n  add\n  0x00\n  keccak256\n  0x00\n    /* \"contracts/FreedomCoinNew.sol\":12119:12147  _balances[account] += amount */\n  dup3\n  dup3\n  sload\n  add\n  swap3\n  pop\n  pop\n  dup2\n  swap1\n  sstore\n  pop\n    /* \"contracts/FreedomCoinNew.sol\":12193:12200  account */\n  dup2\n    /* \"contracts/FreedomCoinNew.sol\":12172:12209  Transfer(address(0), account, amount) */\n  0xffffffffffffffffffffffffffffffffffffffff\n  and\n    /* \"contracts/FreedomCoinNew.sol\":12189:12190  0 */\n  0x00\n    /* \"contracts/FreedomCoinNew.sol\":12172:12209  Transfer(address(0), account, amount) */\n  0xffffffffffffffffffffffffffffffffffffffff\n  and\n  0xddf252ad1be2c89b69c2b068fc378daa952ba7f163c4a11628f55a4df523b3ef\n    /* \"contracts/FreedomCoinNew.sol\":12202:12208  amount */\n  dup4\n    /* \"contracts/FreedomCoinNew.sol\":12172:12209  Transfer(address(0), account, amount) */\n  mload(0x40)\n  tag_52\n  swap2\n  swap1\n  tag_53\n  jump\t// in\ntag_52:\n  mload(0x40)\n  dup1\n  swap2\n  sub\n  swap1\n  log3\n    /* \"contracts/FreedomCoinNew.sol\":11800:12216  function _mint(address account, uint256 amount) internal virtual {... */\n  pop\n  pop\n  jump\t// out\n    /* \"contracts/FreedomCoinNew.sol\":13499:13869  function _approve(... */\ntag_40:\n    /* \"contracts/FreedomCoinNew.sol\":13647:13648  0 */\n  0x00\n    /* \"contracts/FreedomCoinNew.sol\":13630:13649  owner != address(0) */\n  0xffffffffffffffffffffffffffffffffffffffff\n  and\n    /* \"contracts/FreedomCoinNew.sol\":13630:13635  owner */\n  dup4\n    /* \"contracts/FreedomCoinNew.sol\":13630:13649  owner != address(0) */\n  0xffffffffffffffffffffffffffffffffffffffff\n  and\n  sub\n    /* \"contracts/FreedomCoinNew.sol\":13622:13690  require(owner != address(0), \"ERC20: approve from the zero address\") */\n  tag_55\n  jumpi\n  mload(0x40)\n  0x08c379a000000000000000000000000000000000000000000000000000000000\n  dup2\n  mstore\n  0x04\n  add\n  tag_56\n  swap1\n  tag_57\n  jump\t// in\ntag_56:\n  mload(0x40)\n  dup1\n  swap2\n  sub\n  swap1\n  revert\ntag_55:\n    /* \"contracts/FreedomCoinNew.sol\":13727:13728  0 */\n  0x00\n    /* \"contracts/FreedomCoinNew.sol\":13708:13729  spender != address(0) */\n  0xffffffffffffffffffffffffffffffffffffffff\n  and\n    /* \"contracts/FreedomCoinNew.sol\":13708:13715  spender */\n  dup3\n    /* \"contracts/FreedomCoinNew.sol\":13708:13729  spender != address(0) */\n  0xffffffffffffffffffffffffffffffffffffffff\n  and\n  sub\n    /* \"contracts/FreedomCoinNew.sol\":13700:13768  require(spender != address(0), \"ERC20: approve to the zero address\") */\n  tag_58\n  jumpi\n  mload(0x40)\n  0x08c379a000000000000000000000000000000000000000000000000000000000\n  dup2\n  mstore\n  0x04\n  add\n  tag_59\n  swap1\n  tag_60\n  jump\t// in\ntag_59:\n  mload(0x40)\n  dup1\n  swap2\n  sub\n  swap1\n  revert\ntag_58:\n    /* \"contracts/FreedomCoinNew.sol\":13809:13815  amount */\n  dup1\n    /* \"contracts/FreedomCoinNew.sol\":13779:13790  _allowances */\n  0x01\n    /* \"contracts/FreedomCoinNew.sol\":13779:13797  _allowances[owner] */\n  0x00\n    /* \"contracts/FreedomCoinNew.sol\":13791:13796  owner */\n  dup6\n    /* \"contracts/FreedomCoinNew.sol\":13779:13797  _allowances[owner] */\n  0xffffffffffffffffffffffffffffffffffffffff\n  and\n  0xffffffffffffffffffffffffffffffffffffffff\n  and\n  dup2\n  mstore\n  0x20\n  add\n  swap1\n  dup2\n  mstore\n  0x20\n  add\n  0x00\n  keccak256\n    /* \"contracts/FreedomCoinNew.sol\":13779:13806  _allowances[owner][spender] */\n  0x00\n    /* \"contracts/FreedomCoinNew.sol\":13798:13805  spender */\n  dup5\n    /* \"contracts/FreedomCoinNew.sol\":13779:13806  _allowances[owner][spender] */\n  0xffffffffffffffffffffffffffffffffffffffff\n  and\n  0xffffffffffffffffffffffffffffffffffffffff\n  and\n  dup2\n  mstore\n  0x20\n  add\n  swap1\n  dup2\n  mstore\n  0x20\n  add\n  0x00\n  keccak256\n    /* \"contracts/FreedomCoinNew.sol\":13779:13815  _allowances[owner][spender] = amount */\n  dup2\n  swap1\n  sstore\n  pop\n    /* \"contracts/FreedomCoinNew.sol\":13846:13853  spender */\n  dup2\n    /* \"contracts/FreedomCoinNew.sol\":13830:13862  Approval(owner, spender, amount) */\n  0xffffffffffffffffffffffffffffffffffffffff\n  and\n    /* \"contracts/FreedomCoinNew.sol\":13839:13844  owner */\n  dup4\n    /* \"contracts/FreedomCoinNew.sol\":13830:13862  Approval(owner, spender, amount) */\n  0xffffffffffffffffffffffffffffffffffffffff\n  and\n  0x8c5be1e5ebec7d5bd14f71427d1e84f3dd0314c0f7b2291e5b200ac8c7c3b925\n    /* \"contracts/FreedomCoinNew.sol\":13855:13861  amount */\n  dup4\n    /* \"contracts/FreedomCoinNew.sol\":13830:13862  Approval(owner, spender, amount) */\n  mload(0x40)\n  tag_61\n  swap2\n  swap1\n  tag_53\n  jump\t// in\ntag_61:\n  mload(0x40)\n  dup1\n  swap2\n  sub\n  swap1\n  log3\n    /* \"contracts/FreedomCoinNew.sol\":13499:13869  function _approve(... */\n  pop\n  pop\n  pop\n  jump\t// out\n    /* \"#utility.yul\":7:187   */\ntag_62:\n    /* \"#utility.yul\":55:132   */\n  0x4e487b7100000000000000000000000000000000000000000000000000000000\n    /* \"#utility.yul\":52:53   */\n  0x00\n    /* \"#utility.yul\":45:133   */\n  mstore\n    /* \"#utility.yul\":152:156   */\n  0x11\n    /* \"#utility.yul\":149:150   */\n  0x04\n    /* \"#utility.yul\":142:157   */\n  mstore\n    /* \"#utility.yul\":176:180   */\n  0x24\n    /* \"#utility.yul\":173:174   */\n  0x00\n    /* \"#utility.yul\":166:181   */\n  revert\n    /* \"#utility.yul\":193:295   */\ntag_63:\n    /* \"#utility.yul\":235:243   */\n  0x00\n    /* \"#utility.yul\":282:287   */\n  dup2\n    /* \"#utility.yul\":279:280   */\n  0x01\n    /* \"#utility.yul\":275:288   */\n  shr\n    /* \"#utility.yul\":254:288   */\n  swap1\n  pop\n    /* \"#utility.yul\":193:295   */\n  swap2\n  swap1\n  pop\n  jump\t// out\n    /* \"#utility.yul\":301:1149   */\ntag_64:\n    /* \"#utility.yul\":362:367   */\n  0x00\n    /* \"#utility.yul\":369:373   */\n  dup1\n    /* \"#utility.yul\":393:399   */\n  dup3\n    /* \"#utility.yul\":384:399   */\n  swap2\n  pop\n    /* \"#utility.yul\":417:422   */\n  dup4\n    /* \"#utility.yul\":408:422   */\n  swap1\n  pop\n    /* \"#utility.yul\":431:1143   */\ntag_107:\n    /* \"#utility.yul\":452:453   */\n  0x01\n    /* \"#utility.yul\":442:450   */\n  dup6\n    /* \"#utility.yul\":439:454   */\n  gt\n    /* \"#utility.yul\":431:1143   */\n  iszero\n  tag_109\n  jumpi\n    /* \"#utility.yul\":547:551   */\n  dup1\n    /* \"#utility.yul\":542:545   */\n  dup7\n    /* \"#utility.yul\":538:552   */\n  div\n    /* \"#utility.yul\":532:536   */\n  dup2\n    /* \"#utility.yul\":529:553   */\n  gt\n    /* \"#utility.yul\":526:576   */\n  iszero\n  tag_110\n  jumpi\n    /* \"#utility.yul\":556:574   */\n  tag_111\n  tag_62\n  jump\t// in\ntag_111:\n    /* \"#utility.yul\":526:576   */\ntag_110:\n    /* \"#utility.yul\":606:607   */\n  0x01\n    /* \"#utility.yul\":596:604   */\n  dup6\n    /* \"#utility.yul\":592:608   */\n  and\n    /* \"#utility.yul\":589:1040   */\n  iszero\n  tag_112\n  jumpi\n    /* \"#utility.yul\":1021:1025   */\n  dup1\n    /* \"#utility.yul\":1014:1019   */\n  dup3\n    /* \"#utility.yul\":1010:1026   */\n  mul\n    /* \"#utility.yul\":1001:1026   */\n  swap2\n  pop\n    /* \"#utility.yul\":589:1040   */\ntag_112:\n    /* \"#utility.yul\":1071:1075   */\n  dup1\n    /* \"#utility.yul\":1065:1069   */\n  dup2\n    /* \"#utility.yul\":1061:1076   */\n  mul\n    /* \"#utility.yul\":1053:1076   */\n  swap1\n  pop\n    /* \"#utility.yul\":1101:1133   */\n  tag_113\n    /* \"#utility.yul\":1124:1132   */\n  dup6\n    /* \"#utility.yul\":1101:1133   */\n  tag_63\n  jump\t// in\ntag_113:\n    /* \"#utility.yul\":1089:1133   */\n  swap5\n  pop\n    /* \"#utility.yul\":431:1143   */\n  jump(tag_107)\ntag_109:\n    /* \"#utility.yul\":301:1149   */\n  swap5\n  pop\n  swap5\n  swap3\n  pop\n  pop\n  pop\n  jump\t// out\n    /* \"#utility.yul\":1155:2228   */\ntag_65:\n    /* \"#utility.yul\":1209:1214   */\n  0x00\n    /* \"#utility.yul\":1400:1408   */\n  dup3\n    /* \"#utility.yul\":1390:1430   */\n  tag_115\n  jumpi\n    /* \"#utility.yul\":1421:1422   */\n  0x01\n    /* \"#utility.yul\":1412:1422   */\n  swap1\n  pop\n    /* \"#utility.yul\":1423:1428   */\n  jump(tag_114)\n    /* \"#utility.yul\":1390:1430   */\ntag_115:\n    /* \"#utility.yul\":1449:1453   */\n  dup2\n    /* \"#utility.yul\":1439:1475   */\n  tag_116\n  jumpi\n    /* \"#utility.yul\":1466:1467   */\n  0x00\n    /* \"#utility.yul\":1457:1467   */\n  swap1\n  pop\n    /* \"#utility.yul\":1468:1473   */\n  jump(tag_114)\n    /* \"#utility.yul\":1439:1475   */\ntag_116:\n    /* \"#utility.yul\":1535:1539   */\n  dup2\n    /* \"#utility.yul\":1583:1584   */\n  0x01\n    /* \"#utility.yul\":1578:1605   */\n  dup2\n  eq\n  tag_118\n  jumpi\n    /* \"#utility.yul\":1619:1620   */\n  0x02\n    /* \"#utility.yul\":1614:1805   */\n  dup2\n  eq\n  tag_119\n  jumpi\n    /* \"#utility.yul\":1528:1805   */\n  jump(tag_117)\n    /* \"#utility.yul\":1578:1605   */\ntag_118:\n    /* \"#utility.yul\":1596:1597   */\n  0x01\n    /* \"#utility.yul\":1587:1597   */\n  swap2\n  pop\n    /* \"#utility.yul\":1598:1603   */\n  pop\n  jump(tag_114)\n    /* \"#utility.yul\":1614:1805   */\ntag_119:\n    /* \"#utility.yul\":1659:1662   */\n  0xff\n    /* \"#utility.yul\":1649:1657   */\n  dup5\n    /* \"#utility.yul\":1646:1663   */\n  gt\n    /* \"#utility.yul\":1643:1686   */\n  iszero\n  tag_120\n  jumpi\n    /* \"#utility.yul\":1666:1684   */\n  tag_121\n  tag_62\n  jump\t// in\ntag_121:\n    /* \"#utility.yul\":1643:1686   */\ntag_120:\n    /* \"#utility.yul\":1715:1723   */\n  dup4\n    /* \"#utility.yul\":1712:1713   */\n  0x02\n    /* \"#utility.yul\":1708:1724   */\n  exp\n    /* \"#utility.yul\":1699:1724   */\n  swap2\n  pop\n    /* \"#utility.yul\":1750:1753   */\n  dup5\n    /* \"#utility.yul\":1743:1748   */\n  dup3\n    /* \"#utility.yul\":1740:1754   */\n  gt\n    /* \"#utility.yul\":1737:1777   */\n  iszero\n  tag_122\n  jumpi\n    /* \"#utility.yul\":1757:1775   */\n  tag_123\n  tag_62\n  jump\t// in\ntag_123:\n    /* \"#utility.yul\":1737:1777   */\ntag_122:\n    /* \"#utility.yul\":1790:1795   */\n  pop\n  jump(tag_114)\n    /* \"#utility.yul\":1528:1805   */\ntag_117:\n  pop\n    /* \"#utility.yul\":1914:1916   */\n  0x20\n    /* \"#utility.yul\":1904:1912   */\n  dup4\n    /* \"#utility.yul\":1901:1917   */\n  lt\n    /* \"#utility.yul\":1895:1898   */\n  0x0133\n    /* \"#utility.yul\":1889:1893   */\n  dup4\n    /* \"#utility.yul\":1886:1899   */\n  lt\n    /* \"#utility.yul\":1882:1918   */\n  and\n    /* \"#utility.yul\":1864:1866   */\n  0x4e\n    /* \"#utility.yul\":1854:1862   */\n  dup5\n    /* \"#utility.yul\":1851:1867   */\n  lt\n    /* \"#utility.yul\":1846:1848   */\n  0x0b\n    /* \"#utility.yul\":1840:1844   */\n  dup5\n    /* \"#utility.yul\":1837:1849   */\n  lt\n    /* \"#utility.yul\":1833:1868   */\n  and\n    /* \"#utility.yul\":1817:1928   */\n  or\n    /* \"#utility.yul\":1814:2060   */\n  iszero\n  tag_124\n  jumpi\n    /* \"#utility.yul\":1970:1978   */\n  dup3\n    /* \"#utility.yul\":1964:1968   */\n  dup3\n    /* \"#utility.yul\":1960:1979   */\n  exp\n    /* \"#utility.yul\":1951:1979   */\n  swap1\n  pop\n    /* \"#utility.yul\":2005:2008   */\n  dup4\n    /* \"#utility.yul\":1998:2003   */\n  dup2\n    /* \"#utility.yul\":1995:2009   */\n  gt\n    /* \"#utility.yul\":1992:2032   */\n  iszero\n  tag_125\n  jumpi\n    /* \"#utility.yul\":2012:2030   */\n  tag_126\n  tag_62\n  jump\t// in\ntag_126:\n    /* \"#utility.yul\":1992:2032   */\ntag_125:\n    /* \"#utility.yul\":2045:2050   */\n  jump(tag_114)\n    /* \"#utility.yul\":1814:2060   */\ntag_124:\n    /* \"#utility.yul\":2085:2127   */\n  tag_127\n    /* \"#utility.yul\":2123:2126   */\n  dup5\n    /* \"#utility.yul\":2113:2121   */\n  dup5\n    /* \"#utility.yul\":2107:2111   */\n  dup5\n    /* \"#utility.yul\":2104:2105   */\n  0x01\n    /* \"#utility.yul\":2085:2127   */\n  tag_64\n  jump\t// in\ntag_127:\n    /* \"#utility.yul\":2070:2127   */\n  swap3\n  pop\n  swap1\n  pop\n    /* \"#utility.yul\":2159:2163   */\n  dup2\n    /* \"#utility.yul\":2154:2157   */\n  dup5\n    /* \"#utility.yul\":2150:2164   */\n  div\n    /* \"#utility.yul\":2143:2148   */\n  dup2\n    /* \"#utility.yul\":2140:2165   */\n  gt\n    /* \"#utility.yul\":2137:2188   */\n  iszero\n  tag_128\n  jumpi\n    /* \"#utility.yul\":2168:2186   */\n  tag_129\n  tag_62\n  jump\t// in\ntag_129:\n    /* \"#utility.yul\":2137:2188   */\ntag_128:\n    /* \"#utility.yul\":2217:2221   */\n  dup2\n    /* \"#utility.yul\":2210:2215   */\n  dup2\n    /* \"#utility.yul\":2206:2222   */\n  mul\n    /* \"#utility.yul\":2197:2222   */\n  swap1\n  pop\n    /* \"#utility.yul\":1155:2228   */\ntag_114:\n  swap4\n  swap3\n  pop\n  pop\n  pop\n  jump\t// out\n    /* \"#utility.yul\":2234:2311   */\ntag_66:\n    /* \"#utility.yul\":2271:2278   */\n  0x00\n    /* \"#utility.yul\":2300:2305   */\n  dup2\n    /* \"#utility.yul\":2289:2305   */\n  swap1\n  pop\n    /* \"#utility.yul\":2234:2311   */\n  swap2\n  swap1\n  pop\n  jump\t// out\n    /* \"#utility.yul\":2317:2403   */\ntag_67:\n    /* \"#utility.yul\":2352:2359   */\n  0x00\n    /* \"#utility.yul\":2392:2396   */\n  0xff\n    /* \"#utility.yul\":2385:2390   */\n  dup3\n    /* \"#utility.yul\":2381:2397   */\n  and\n    /* \"#utility.yul\":2370:2397   */\n  swap1\n  pop\n    /* \"#utility.yul\":2317:2403   */\n  swap2\n  swap1\n  pop\n  jump\t// out\n    /* \"#utility.yul\":2409:2690   */\ntag_4:\n    /* \"#utility.yul\":2467:2472   */\n  0x00\n    /* \"#utility.yul\":2491:2514   */\n  tag_133\n    /* \"#utility.yul\":2509:2513   */\n  dup3\n    /* \"#utility.yul\":2491:2514   */\n  tag_66\n  jump\t// in\ntag_133:\n    /* \"#utility.yul\":2483:2514   */\n  swap2\n  pop\n    /* \"#utility.yul\":2535:2560   */\n  tag_134\n    /* \"#utility.yul\":2551:2559   */\n  dup4\n    /* \"#utility.yul\":2535:2560   */\n  tag_67\n  jump\t// in\ntag_134:\n    /* \"#utility.yul\":2523:2560   */\n  swap3\n  pop\n    /* \"#utility.yul\":2579:2683   */\n  tag_135\n    /* \"#utility.yul\":2616:2682   */\n  0xffffffffffffffffffffffffffffffffffffffffffffffffffffffffffffffff\n    /* \"#utility.yul\":2606:2614   */\n  dup5\n    /* \"#utility.yul\":2600:2604   */\n  dup5\n    /* \"#utility.yul\":2579:2683   */\n  tag_65\n  jump\t// in\ntag_135:\n    /* \"#utility.yul\":2570:2683   */\n  swap1\n  pop\n    /* \"#utility.yul\":2409:2690   */\n  swap3\n  swap2\n  pop\n  pop\n  jump\t// out\n    /* \"#utility.yul\":2696:3106   */\ntag_6:\n    /* \"#utility.yul\":2736:2743   */\n  0x00\n    /* \"#utility.yul\":2759:2779   */\n  tag_137\n    /* \"#utility.yul\":2777:2778   */\n  dup3\n    /* \"#utility.yul\":2759:2779   */\n  tag_66\n  jump\t// in\ntag_137:\n    /* \"#utility.yul\":2754:2779   */\n  swap2\n  pop\n    /* \"#utility.yul\":2793:2813   */\n  tag_138\n    /* \"#utility.yul\":2811:2812   */\n  dup4\n    /* \"#utility.yul\":2793:2813   */\n  tag_66\n  jump\t// in\ntag_138:\n    /* \"#utility.yul\":2788:2813   */\n  swap3\n  pop\n    /* \"#utility.yul\":2848:2849   */\n  dup3\n    /* \"#utility.yul\":2845:2846   */\n  dup3\n    /* \"#utility.yul\":2841:2850   */\n  mul\n    /* \"#utility.yul\":2870:2900   */\n  tag_139\n    /* \"#utility.yul\":2888:2899   */\n  dup2\n    /* \"#utility.yul\":2870:2900   */\n  tag_66\n  jump\t// in\ntag_139:\n    /* \"#utility.yul\":2859:2900   */\n  swap2\n  pop\n    /* \"#utility.yul\":3049:3050   */\n  dup3\n    /* \"#utility.yul\":3040:3047   */\n  dup3\n    /* \"#utility.yul\":3036:3051   */\n  div\n    /* \"#utility.yul\":3033:3034   */\n  dup5\n    /* \"#utility.yul\":3030:3052   */\n  eq\n    /* \"#utility.yul\":3010:3011   */\n  dup4\n    /* \"#utility.yul\":3003:3012   */\n  iszero\n    /* \"#utility.yul\":2983:3066   */\n  or\n    /* \"#utility.yul\":2960:3099   */\n  tag_140\n  jumpi\n    /* \"#utility.yul\":3079:3097   */\n  tag_141\n  tag_62\n  jump\t// in\ntag_141:\n    /* \"#utility.yul\":2960:3099   */\ntag_140:\n    /* \"#utility.yul\":2744:3106   */\n  pop\n    /* \"#utility.yul\":2696:3106   */\n  swap3\n  swap2\n  pop\n  pop\n  jump\t// out\n    /* \"#utility.yul\":3112:3211   */\ntag_68:\n    /* \"#utility.yul\":3164:3170   */\n  0x00\n    /* \"#utility.yul\":3198:3203   */\n  dup2\n    /* \"#utility.yul\":3192:3204   */\n  mload\n    /* \"#utility.yul\":3182:3204   */\n  swap1\n  pop\n    /* \"#utility.yul\":3112:3211   */\n  swap2\n  swap1\n  pop\n  jump\t// out\n    /* \"#utility.yul\":3217:3397   */\ntag_69:\n    /* \"#utility.yul\":3265:3342   */\n  0x4e487b7100000000000000000000000000000000000000000000000000000000\n    /* \"#utility.yul\":3262:3263   */\n  0x00\n    /* \"#utility.yul\":3255:3343   */\n  mstore\n    /* \"#utility.yul\":3362:3366   */\n  0x41\n    /* \"#utility.yul\":3359:3360   */\n  0x04\n    /* \"#utility.yul\":3352:3367   */\n  mstore\n    /* \"#utility.yul\":3386:3390   */\n  0x24\n    /* \"#utility.yul\":3383:3384   */\n  0x00\n    /* \"#utility.yul\":3376:3391   */\n  revert\n    /* \"#utility.yul\":3403:3583   */\ntag_70:\n    /* \"#utility.yul\":3451:3528   */\n  0x4e487b7100000000000000000000000000000000000000000000000000000000\n    /* \"#utility.yul\":3448:3449   */\n  0x00\n    /* \"#utility.yul\":3441:3529   */\n  mstore\n    /* \"#utility.yul\":3548:3552   */\n  0x22\n    /* \"#utility.yul\":3545:3546   */\n  0x04\n    /* \"#utility.yul\":3538:3553   */\n  mstore\n    /* \"#utility.yul\":3572:3576   */\n  0x24\n    /* \"#utility.yul\":3569:3570   */\n  0x00\n    /* \"#utility.yul\":3562:3577   */\n  revert\n    /* \"#utility.yul\":3589:3909   */\ntag_71:\n    /* \"#utility.yul\":3633:3639   */\n  0x00\n    /* \"#utility.yul\":3670:3671   */\n  0x02\n    /* \"#utility.yul\":3664:3668   */\n  dup3\n    /* \"#utility.yul\":3660:3672   */\n  div\n    /* \"#utility.yul\":3650:3672   */\n  swap1\n  pop\n    /* \"#utility.yul\":3717:3718   */\n  0x01\n    /* \"#utility.yul\":3711:3715   */\n  dup3\n    /* \"#utility.yul\":3707:3719   */\n  and\n    /* \"#utility.yul\":3738:3756   */\n  dup1\n    /* \"#utility.yul\":3728:3809   */\n  tag_146\n  jumpi\n    /* \"#utility.yul\":3794:3798   */\n  0x7f\n    /* \"#utility.yul\":3786:3792   */\n  dup3\n    /* \"#utility.yul\":3782:3799   */\n  and\n    /* \"#utility.yul\":3772:3799   */\n  swap2\n  pop\n    /* \"#utility.yul\":3728:3809   */\ntag_146:\n    /* \"#utility.yul\":3856:3858   */\n  0x20\n    /* \"#utility.yul\":3848:3854   */\n  dup3\n    /* \"#utility.yul\":3845:3859   */\n  lt\n    /* \"#utility.yul\":3825:3843   */\n  dup2\n    /* \"#utility.yul\":3822:3860   */\n  sub\n    /* \"#utility.yul\":3819:3903   */\n  tag_147\n  jumpi\n    /* \"#utility.yul\":3875:3893   */\n  tag_148\n  tag_70\n  jump\t// in\ntag_148:\n    /* \"#utility.yul\":3819:3903   */\ntag_147:\n    /* \"#utility.yul\":3640:3909   */\n  pop\n    /* \"#utility.yul\":3589:3909   */\n  swap2\n  swap1\n  pop\n  jump\t// out\n    /* \"#utility.yul\":3915:4056   */\ntag_72:\n    /* \"#utility.yul\":3964:3968   */\n  0x00\n    /* \"#utility.yul\":3987:3990   */\n  dup2\n    /* \"#utility.yul\":3979:3990   */\n  swap1\n  pop\n    /* \"#utility.yul\":4010:4013   */\n  dup2\n    /* \"#utility.yul\":4007:4008   */\n  0x00\n    /* \"#utility.yul\":4000:4014   */\n  mstore\n    /* \"#utility.yul\":4044:4048   */\n  0x20\n    /* \"#utility.yul\":4041:4042   */\n  0x00\n    /* \"#utility.yul\":4031:4049   */\n  keccak256\n    /* \"#utility.yul\":4023:4049   */\n  swap1\n  pop\n    /* \"#utility.yul\":3915:4056   */\n  swap2\n  swap1\n  pop\n  jump\t// out\n    /* \"#utility.yul\":4062:4155   */\ntag_73:\n    /* \"#utility.yul\":4099:4105   */\n  0x00\n    /* \"#utility.yul\":4146:4148   */\n  0x20\n    /* \"#utility.yul\":4141:4143   */\n  0x1f\n    /* \"#utility.yul\":4134:4139   */\n  dup4\n    /* \"#utility.yul\":4130:4144   */\n  add\n    /* \"#utility.yul\":4126:4149   */\n  div\n    /* \"#utility.yul\":4116:4149   */\n  swap1\n  pop\n    /* \"#utility.yul\":4062:4155   */\n  swap2\n  swap1\n  pop\n  jump\t// out\n    /* \"#utility.yul\":4161:4268   */\ntag_74:\n    /* \"#utility.yul\":4205:4213   */\n  0x00\n    /* \"#utility.yul\":4255:4260   */\n  dup3\n    /* \"#utility.yul\":4249:4253   */\n  dup3\n    /* \"#utility.yul\":4245:4261   */\n  shl\n    /* \"#utility.yul\":4224:4261   */\n  swap1\n  pop\n    /* \"#utility.yul\":4161:4268   */\n  swap3\n  swap2\n  pop\n  pop\n  jump\t// out\n    /* \"#utility.yul\":4274:4667   */\ntag_75:\n    /* \"#utility.yul\":4343:4349   */\n  0x00\n    /* \"#utility.yul\":4393:4394   */\n  0x08\n    /* \"#utility.yul\":4381:4391   */\n  dup4\n    /* \"#utility.yul\":4377:4395   */\n  mul\n    /* \"#utility.yul\":4416:4513   */\n  tag_153\n    /* \"#utility.yul\":4446:4512   */\n  0xffffffffffffffffffffffffffffffffffffffffffffffffffffffffffffffff\n    /* \"#utility.yul\":4435:4444   */\n  dup3\n    /* \"#utility.yul\":4416:4513   */\n  tag_74\n  jump\t// in\ntag_153:\n    /* \"#utility.yul\":4534:4573   */\n  tag_154\n    /* \"#utility.yul\":4564:4572   */\n  dup7\n    /* \"#utility.yul\":4553:4562   */\n  dup4\n    /* \"#utility.yul\":4534:4573   */\n  tag_74\n  jump\t// in\ntag_154:\n    /* \"#utility.yul\":4522:4573   */\n  swap6\n  pop\n    /* \"#utility.yul\":4606:4610   */\n  dup1\n    /* \"#utility.yul\":4602:4611   */\n  not\n    /* \"#utility.yul\":4595:4600   */\n  dup5\n    /* \"#utility.yul\":4591:4612   */\n  and\n    /* \"#utility.yul\":4582:4612   */\n  swap4\n  pop\n    /* \"#utility.yul\":4655:4659   */\n  dup1\n    /* \"#utility.yul\":4645:4653   */\n  dup7\n    /* \"#utility.yul\":4641:4660   */\n  and\n    /* \"#utility.yul\":4634:4639   */\n  dup5\n    /* \"#utility.yul\":4631:4661   */\n  or\n    /* \"#utility.yul\":4621:4661   */\n  swap3\n  pop\n    /* \"#utility.yul\":4350:4667   */\n  pop\n  pop\n    /* \"#utility.yul\":4274:4667   */\n  swap4\n  swap3\n  pop\n  pop\n  pop\n  jump\t// out\n    /* \"#utility.yul\":4673:4733   */\ntag_76:\n    /* \"#utility.yul\":4701:4704   */\n  0x00\n    /* \"#utility.yul\":4722:4727   */\n  dup2\n    /* \"#utility.yul\":4715:4727   */\n  swap1\n  pop\n    /* \"#utility.yul\":4673:4733   */\n  swap2\n  swap1\n  pop\n  jump\t// out\n    /* \"#utility.yul\":4739:4881   */\ntag_77:\n    /* \"#utility.yul\":4789:4798   */\n  0x00\n    /* \"#utility.yul\":4822:4875   */\n  tag_157\n    /* \"#utility.yul\":4840:4874   */\n  tag_158\n    /* \"#utility.yul\":4849:4873   */\n  tag_159\n    /* \"#utility.yul\":4867:4872   */\n  dup5\n    /* \"#utility.yul\":4849:4873   */\n  tag_66\n  jump\t// in\ntag_159:\n    /* \"#utility.yul\":4840:4874   */\n  tag_76\n  jump\t// in\ntag_158:\n    /* \"#utility.yul\":4822:4875   */\n  tag_66\n  jump\t// in\ntag_157:\n    /* \"#utility.yul\":4809:4875   */\n  swap1\n  pop\n    /* \"#utility.yul\":4739:4881   */\n  swap2\n  swap1\n  pop\n  jump\t// out\n    /* \"#utility.yul\":4887:4962   */\ntag_78:\n    /* \"#utility.yul\":4930:4933   */\n  0x00\n    /* \"#utility.yul\":4951:4956   */\n  dup2\n    /* \"#utility.yul\":4944:4956   */\n  swap1\n  pop\n    /* \"#utility.yul\":4887:4962   */\n  swap2\n  swap1\n  pop\n  jump\t// out\n    /* \"#utility.yul\":4968:5237   */\ntag_79:\n    /* \"#utility.yul\":5078:5117   */\n  tag_162\n    /* \"#utility.yul\":5109:5116   */\n  dup4\n    /* \"#utility.yul\":5078:5117   */\n  tag_77\n  jump\t// in\ntag_162:\n    /* \"#utility.yul\":5139:5230   */\n  tag_163\n    /* \"#utility.yul\":5188:5229   */\n  tag_164\n    /* \"#utility.yul\":5212:5228   */\n  dup3\n    /* \"#utility.yul\":5188:5229   */\n  tag_78\n  jump\t// in\ntag_164:\n    /* \"#utility.yul\":5180:5186   */\n  dup5\n    /* \"#utility.yul\":5173:5177   */\n  dup5\n    /* \"#utility.yul\":5167:5178   */\n  sload\n    /* \"#utility.yul\":5139:5230   */\n  tag_75\n  jump\t// in\ntag_163:\n    /* \"#utility.yul\":5133:5137   */\n  dup3\n    /* \"#utility.yul\":5126:5231   */\n  sstore\n    /* \"#utility.yul\":5044:5237   */\n  pop\n    /* \"#utility.yul\":4968:5237   */\n  pop\n  pop\n  pop\n  jump\t// out\n    /* \"#utility.yul\":5243:5316   */\ntag_80:\n    /* \"#utility.yul\":5288:5291   */\n  0x00\n    /* \"#utility.yul\":5243:5316   */\n  swap1\n  jump\t// out\n    /* \"#utility.yul\":5322:5511   */\ntag_81:\n    /* \"#utility.yul\":5399:5431   */\n  tag_167\n  tag_80\n  jump\t// in\ntag_167:\n    /* \"#utility.yul\":5440:5505   */\n  tag_168\n    /* \"#utility.yul\":5498:5504   */\n  dup2\n    /* \"#utility.yul\":5490:5496   */\n  dup5\n    /* \"#utility.yul\":5484:5488   */\n  dup5\n    /* \"#utility.yul\":5440:5505   */\n  tag_79\n  jump\t// in\ntag_168:\n    /* \"#utility.yul\":5375:5511   */\n  pop\n    /* \"#utility.yul\":5322:5511   */\n  pop\n  pop\n  jump\t// out\n    /* \"#utility.yul\":5517:5703   */\ntag_82:\n    /* \"#utility.yul\":5577:5697   */\ntag_170:\n    /* \"#utility.yul\":5594:5597   */\n  dup2\n    /* \"#utility.yul\":5587:5592   */\n  dup2\n    /* \"#utility.yul\":5584:5598   */\n  lt\n    /* \"#utility.yul\":5577:5697   */\n  iszero\n  tag_172\n  jumpi\n    /* \"#utility.yul\":5648:5687   */\n  tag_173\n    /* \"#utility.yul\":5685:5686   */\n  0x00\n    /* \"#utility.yul\":5678:5683   */\n  dup3\n    /* \"#utility.yul\":5648:5687   */\n  tag_81\n  jump\t// in\ntag_173:\n    /* \"#utility.yul\":5621:5622   */\n  0x01\n    /* \"#utility.yul\":5614:5619   */\n  dup2\n    /* \"#utility.yul\":5610:5623   */\n  add\n    /* \"#utility.yul\":5601:5623   */\n  swap1\n  pop\n    /* \"#utility.yul\":5577:5697   */\n  jump(tag_170)\ntag_172:\n    /* \"#utility.yul\":5517:5703   */\n  pop\n  pop\n  jump\t// out\n    /* \"#utility.yul\":5709:6252   */\ntag_83:\n    /* \"#utility.yul\":5810:5812   */\n  0x1f\n    /* \"#utility.yul\":5805:5808   */\n  dup3\n    /* \"#utility.yul\":5802:5813   */\n  gt\n    /* \"#utility.yul\":5799:6245   */\n  iszero\n  tag_175\n  jumpi\n    /* \"#utility.yul\":5844:5882   */\n  tag_176\n    /* \"#utility.yul\":5876:5881   */\n  dup2\n    /* \"#utility.yul\":5844:5882   */\n  tag_72\n  jump\t// in\ntag_176:\n    /* \"#utility.yul\":5928:5957   */\n  tag_177\n    /* \"#utility.yul\":5946:5956   */\n  dup5\n    /* \"#utility.yul\":5928:5957   */\n  tag_73\n  jump\t// in\ntag_177:\n    /* \"#utility.yul\":5918:5926   */\n  dup2\n    /* \"#utility.yul\":5914:5958   */\n  add\n    /* \"#utility.yul\":6111:6113   */\n  0x20\n    /* \"#utility.yul\":6099:6109   */\n  dup6\n    /* \"#utility.yul\":6096:6114   */\n  lt\n    /* \"#utility.yul\":6093:6142   */\n  iszero\n  tag_178\n  jumpi\n    /* \"#utility.yul\":6132:6140   */\n  dup2\n    /* \"#utility.yul\":6117:6140   */\n  swap1\n  pop\n    /* \"#utility.yul\":6093:6142   */\ntag_178:\n    /* \"#utility.yul\":6155:6235   */\n  tag_179\n    /* \"#utility.yul\":6211:6233   */\n  tag_180\n    /* \"#utility.yul\":6229:6232   */\n  dup6\n    /* \"#utility.yul\":6211:6233   */\n  tag_73\n  jump\t// in\ntag_180:\n    /* \"#utility.yul\":6201:6209   */\n  dup4\n    /* \"#utility.yul\":6197:6234   */\n  add\n    /* \"#utility.yul\":6184:6195   */\n  dup3\n    /* \"#utility.yul\":6155:6235   */\n  tag_82\n  jump\t// in\ntag_179:\n    /* \"#utility.yul\":5814:6245   */\n  pop\n  pop\n    /* \"#utility.yul\":5799:6245   */\ntag_175:\n    /* \"#utility.yul\":5709:6252   */\n  pop\n  pop\n  pop\n  jump\t// out\n    /* \"#utility.yul\":6258:6375   */\ntag_84:\n    /* \"#utility.yul\":6312:6320   */\n  0x00\n    /* \"#utility.yul\":6362:6367   */\n  dup3\n    /* \"#utility.yul\":6356:6360   */\n  dup3\n    /* \"#utility.yul\":6352:6368   */\n  shr\n    /* \"#utility.yul\":6331:6368   */\n  swap1\n  pop\n    /* \"#utility.yul\":6258:6375   */\n  swap3\n  swap2\n  pop\n  pop\n  jump\t// out\n    /* \"#utility.yul\":6381:6550   */\ntag_85:\n    /* \"#utility.yul\":6425:6431   */\n  0x00\n    /* \"#utility.yul\":6458:6509   */\n  tag_183\n    /* \"#utility.yul\":6506:6507   */\n  0x00\n    /* \"#utility.yul\":6502:6508   */\n  not\n    /* \"#utility.yul\":6494:6499   */\n  dup5\n    /* \"#utility.yul\":6491:6492   */\n  0x08\n    /* \"#utility.yul\":6487:6500   */\n  mul\n    /* \"#utility.yul\":6458:6509   */\n  tag_84\n  jump\t// in\ntag_183:\n    /* \"#utility.yul\":6454:6510   */\n  not\n    /* \"#utility.yul\":6539:6543   */\n  dup1\n    /* \"#utility.yul\":6533:6537   */\n  dup4\n    /* \"#utility.yul\":6529:6544   */\n  and\n    /* \"#utility.yul\":6519:6544   */\n  swap2\n  pop\n    /* \"#utility.yul\":6432:6550   */\n  pop\n    /* \"#utility.yul\":6381:6550   */\n  swap3\n  swap2\n  pop\n  pop\n  jump\t// out\n    /* \"#utility.yul\":6555:6850   */\ntag_86:\n    /* \"#utility.yul\":6631:6635   */\n  0x00\n    /* \"#utility.yul\":6777:6806   */\n  tag_185\n    /* \"#utility.yul\":6802:6805   */\n  dup4\n    /* \"#utility.yul\":6796:6800   */\n  dup4\n    /* \"#utility.yul\":6777:6806   */\n  tag_85\n  jump\t// in\ntag_185:\n    /* \"#utility.yul\":6769:6806   */\n  swap2\n  pop\n    /* \"#utility.yul\":6839:6842   */\n  dup3\n    /* \"#utility.yul\":6836:6837   */\n  0x02\n    /* \"#utility.yul\":6832:6843   */\n  mul\n    /* \"#utility.yul\":6826:6830   */\n  dup3\n    /* \"#utility.yul\":6823:6844   */\n  or\n    /* \"#utility.yul\":6815:6844   */\n  swap1\n  pop\n    /* \"#utility.yul\":6555:6850   */\n  swap3\n  swap2\n  pop\n  pop\n  jump\t// out\n    /* \"#utility.yul\":6855:8250   */\ntag_13:\n    /* \"#utility.yul\":6972:7009   */\n  tag_187\n    /* \"#utility.yul\":7005:7008   */\n  dup3\n    /* \"#utility.yul\":6972:7009   */\n  tag_68\n  jump\t// in\ntag_187:\n    /* \"#utility.yul\":7074:7092   */\n  0xffffffffffffffff\n    /* \"#utility.yul\":7066:7072   */\n  dup2\n    /* \"#utility.yul\":7063:7093   */\n  gt\n    /* \"#utility.yul\":7060:7116   */\n  iszero\n  tag_188\n  jumpi\n    /* \"#utility.yul\":7096:7114   */\n  tag_189\n  tag_69\n  jump\t// in\ntag_189:\n    /* \"#utility.yul\":7060:7116   */\ntag_188:\n    /* \"#utility.yul\":7140:7178   */\n  tag_190\n    /* \"#utility.yul\":7172:7176   */\n  dup3\n    /* \"#utility.yul\":7166:7177   */\n  sload\n    /* \"#utility.yul\":7140:7178   */\n  tag_71\n  jump\t// in\ntag_190:\n    /* \"#utility.yul\":7225:7292   */\n  tag_191\n    /* \"#utility.yul\":7285:7291   */\n  dup3\n    /* \"#utility.yul\":7277:7283   */\n  dup3\n    /* \"#utility.yul\":7271:7275   */\n  dup6\n    /* \"#utility.yul\":7225:7292   */\n  tag_83\n  jump\t// in\ntag_191:\n    /* \"#utility.yul\":7319:7320   */\n  0x00\n    /* \"#utility.yul\":7343:7347   */\n  0x20\n    /* \"#utility.yul\":7330:7347   */\n  swap1\n  pop\n    /* \"#utility.yul\":7375:7377   */\n  0x1f\n    /* \"#utility.yul\":7367:7373   */\n  dup4\n    /* \"#utility.yul\":7364:7378   */\n  gt\n    /* \"#utility.yul\":7392:7393   */\n  0x01\n    /* \"#utility.yul\":7387:8005   */\n  dup2\n  eq\n  tag_193\n  jumpi\n    /* \"#utility.yul\":8049:8050   */\n  0x00\n    /* \"#utility.yul\":8066:8072   */\n  dup5\n    /* \"#utility.yul\":8063:8140   */\n  iszero\n  tag_194\n  jumpi\n    /* \"#utility.yul\":8115:8124   */\n  dup3\n    /* \"#utility.yul\":8110:8113   */\n  dup8\n    /* \"#utility.yul\":8106:8125   */\n  add\n    /* \"#utility.yul\":8100:8126   */\n  mload\n    /* \"#utility.yul\":8091:8126   */\n  swap1\n  pop\n    /* \"#utility.yul\":8063:8140   */\ntag_194:\n    /* \"#utility.yul\":8166:8233   */\n  tag_195\n    /* \"#utility.yul\":8226:8232   */\n  dup6\n    /* \"#utility.yul\":8219:8224   */\n  dup3\n    /* \"#utility.yul\":8166:8233   */\n  tag_86\n  jump\t// in\ntag_195:\n    /* \"#utility.yul\":8160:8164   */\n  dup7\n    /* \"#utility.yul\":8153:8234   */\n  sstore\n    /* \"#utility.yul\":8022:8244   */\n  pop\n    /* \"#utility.yul\":7357:8244   */\n  jump(tag_192)\n    /* \"#utility.yul\":7387:8005   */\ntag_193:\n    /* \"#utility.yul\":7439:7443   */\n  0x1f\n    /* \"#utility.yul\":7435:7444   */\n  not\n    /* \"#utility.yul\":7427:7433   */\n  dup5\n    /* \"#utility.yul\":7423:7445   */\n  and\n    /* \"#utility.yul\":7473:7510   */\n  tag_196\n    /* \"#utility.yul\":7505:7509   */\n  dup7\n    /* \"#utility.yul\":7473:7510   */\n  tag_72\n  jump\t// in\ntag_196:\n    /* \"#utility.yul\":7532:7533   */\n  0x00\n    /* \"#utility.yul\":7546:7754   */\ntag_197:\n    /* \"#utility.yul\":7560:7567   */\n  dup3\n    /* \"#utility.yul\":7557:7558   */\n  dup2\n    /* \"#utility.yul\":7554:7568   */\n  lt\n    /* \"#utility.yul\":7546:7754   */\n  iszero\n  tag_199\n  jumpi\n    /* \"#utility.yul\":7639:7648   */\n  dup5\n    /* \"#utility.yul\":7634:7637   */\n  dup10\n    /* \"#utility.yul\":7630:7649   */\n  add\n    /* \"#utility.yul\":7624:7650   */\n  mload\n    /* \"#utility.yul\":7616:7622   */\n  dup3\n    /* \"#utility.yul\":7609:7651   */\n  sstore\n    /* \"#utility.yul\":7690:7691   */\n  0x01\n    /* \"#utility.yul\":7682:7688   */\n  dup3\n    /* \"#utility.yul\":7678:7692   */\n  add\n    /* \"#utility.yul\":7668:7692   */\n  swap2\n  pop\n    /* \"#utility.yul\":7737:7739   */\n  0x20\n    /* \"#utility.yul\":7726:7735   */\n  dup6\n    /* \"#utility.yul\":7722:7740   */\n  add\n    /* \"#utility.yul\":7709:7740   */\n  swap5\n  pop\n    /* \"#utility.yul\":7583:7587   */\n  0x20\n    /* \"#utility.yul\":7580:7581   */\n  dup2\n    /* \"#utility.yul\":7576:7588   */\n  add\n    /* \"#utility.yul\":7571:7588   */\n  swap1\n  pop\n    /* \"#utility.yul\":7546:7754   */\n  jump(tag_197)\ntag_199:\n    /* \"#utility.yul\":7782:7788   */\n  dup7\n    /* \"#utility.yul\":7773:7780   */\n  dup4\n    /* \"#utility.yul\":7770:7789   */\n  lt\n    /* \"#utility.yul\":7767:7946   */\n  iszero\n  tag_200\n  jumpi\n    /* \"#utility.yul\":7840:7849   */\n  dup5\n    /* \"#utility.yul\":7835:7838   */\n  dup10\n    /* \"#utility.yul\":7831:7850   */\n  add\n    /* \"#utility.yul\":7825:7851   */\n  mload\n    /* \"#utility.yul\":7883:7931   */\n  tag_201\n    /* \"#utility.yul\":7925:7929   */\n  0x1f\n    /* \"#utility.yul\":7917:7923   */\n  dup10\n    /* \"#utility.yul\":7913:7930   */\n  and\n    /* \"#utility.yul\":7902:7911   */\n  dup3\n    /* \"#utility.yul\":7883:7931   */\n  tag_85\n  jump\t// in\ntag_201:\n    /* \"#utility.yul\":7875:7881   */\n  dup4\n    /* \"#utility.yul\":7868:7932   */\n  sstore\n    /* \"#utility.yul\":7790:7946   */\n  pop\n    /* \"#utility.yul\":7767:7946   */\ntag_200:\n    /* \"#utility.yul\":7992:7993   */\n  0x01\n    /* \"#utility.yul\":7988:7989   */\n  0x02\n    /* \"#utility.yul\":7980:7986   */\n  dup9\n    /* \"#utility.yul\":7976:7990   */\n  mul\n    /* \"#utility.yul\":7972:7994   */\n  add\n    /* \"#utility.yul\":7966:7970   */\n  dup9\n    /* \"#utility.yul\":7959:7995   */\n  sstore\n    /* \"#utility.yul\":7394:8005   */\n  pop\n  pop\n  pop\n    /* \"#utility.yul\":7357:8244   */\ntag_192:\n  pop\n    /* \"#utility.yul\":6947:8250   */\n  pop\n  pop\n  pop\n    /* \"#utility.yul\":6855:8250   */\n  pop\n  pop\n  jump\t// out\n    /* \"#utility.yul\":8256:8541   */\ntag_23:\n    /* \"#utility.yul\":8316:8321   */\n  0x00\n    /* \"#utility.yul\":8340:8363   */\n  tag_203\n    /* \"#utility.yul\":8358:8362   */\n  dup3\n    /* \"#utility.yul\":8340:8363   */\n  tag_66\n  jump\t// in\ntag_203:\n    /* \"#utility.yul\":8332:8363   */\n  swap2\n  pop\n    /* \"#utility.yul\":8384:8411   */\n  tag_204\n    /* \"#utility.yul\":8402:8410   */\n  dup4\n    /* \"#utility.yul\":8384:8411   */\n  tag_66\n  jump\t// in\ntag_204:\n    /* \"#utility.yul\":8372:8411   */\n  swap3\n  pop\n    /* \"#utility.yul\":8430:8534   */\n  tag_205\n    /* \"#utility.yul\":8467:8533   */\n  0xffffffffffffffffffffffffffffffffffffffffffffffffffffffffffffffff\n    /* \"#utility.yul\":8457:8465   */\n  dup5\n    /* \"#utility.yul\":8451:8455   */\n  dup5\n    /* \"#utility.yul\":8430:8534   */\n  tag_65\n  jump\t// in\ntag_205:\n    /* \"#utility.yul\":8421:8534   */\n  swap1\n  pop\n    /* \"#utility.yul\":8256:8541   */\n  swap3\n  swap2\n  pop\n  pop\n  jump\t// out\n    /* \"#utility.yul\":8628:8745   */\ntag_88:\n    /* \"#utility.yul\":8737:8738   */\n  0x00\n    /* \"#utility.yul\":8734:8735   */\n  dup1\n    /* \"#utility.yul\":8727:8739   */\n  revert\n    /* \"#utility.yul\":8874:9000   */\ntag_90:\n    /* \"#utility.yul\":8911:8918   */\n  0x00\n    /* \"#utility.yul\":8951:8993   */\n  0xffffffffffffffffffffffffffffffffffffffff\n    /* \"#utility.yul\":8944:8949   */\n  dup3\n    /* \"#utility.yul\":8940:8994   */\n  and\n    /* \"#utility.yul\":8929:8994   */\n  swap1\n  pop\n    /* \"#utility.yul\":8874:9000   */\n  swap2\n  swap1\n  pop\n  jump\t// out\n    /* \"#utility.yul\":9006:9102   */\ntag_91:\n    /* \"#utility.yul\":9043:9050   */\n  0x00\n    /* \"#utility.yul\":9072:9096   */\n  tag_211\n    /* \"#utility.yul\":9090:9095   */\n  dup3\n    /* \"#utility.yul\":9072:9096   */\n  tag_90\n  jump\t// in\ntag_211:\n    /* \"#utility.yul\":9061:9096   */\n  swap1\n  pop\n    /* \"#utility.yul\":9006:9102   */\n  swap2\n  swap1\n  pop\n  jump\t// out\n    /* \"#utility.yul\":9108:9230   */\ntag_92:\n    /* \"#utility.yul\":9181:9205   */\n  tag_213\n    /* \"#utility.yul\":9199:9204   */\n  dup2\n    /* \"#utility.yul\":9181:9205   */\n  tag_91\n  jump\t// in\ntag_213:\n    /* \"#utility.yul\":9174:9179   */\n  dup2\n    /* \"#utility.yul\":9171:9206   */\n  eq\n    /* \"#utility.yul\":9161:9224   */\n  tag_214\n  jumpi\n    /* \"#utility.yul\":9220:9221   */\n  0x00\n    /* \"#utility.yul\":9217:9218   */\n  dup1\n    /* \"#utility.yul\":9210:9222   */\n  revert\n    /* \"#utility.yul\":9161:9224   */\ntag_214:\n    /* \"#utility.yul\":9108:9230   */\n  pop\n  jump\t// out\n    /* \"#utility.yul\":9236:9379   */\ntag_93:\n    /* \"#utility.yul\":9293:9298   */\n  0x00\n    /* \"#utility.yul\":9324:9330   */\n  dup2\n    /* \"#utility.yul\":9318:9331   */\n  mload\n    /* \"#utility.yul\":9309:9331   */\n  swap1\n  pop\n    /* \"#utility.yul\":9340:9373   */\n  tag_216\n    /* \"#utility.yul\":9367:9372   */\n  dup2\n    /* \"#utility.yul\":9340:9373   */\n  tag_92\n  jump\t// in\ntag_216:\n    /* \"#utility.yul\":9236:9379   */\n  swap3\n  swap2\n  pop\n  pop\n  jump\t// out\n    /* \"#utility.yul\":9385:9736   */\ntag_30:\n    /* \"#utility.yul\":9455:9461   */\n  0x00\n    /* \"#utility.yul\":9504:9506   */\n  0x20\n    /* \"#utility.yul\":9492:9501   */\n  dup3\n    /* \"#utility.yul\":9483:9490   */\n  dup5\n    /* \"#utility.yul\":9479:9502   */\n  sub\n    /* \"#utility.yul\":9475:9507   */\n  slt\n    /* \"#utility.yul\":9472:9591   */\n  iszero\n  tag_218\n  jumpi\n    /* \"#utility.yul\":9510:9589   */\n  tag_219\n  tag_88\n  jump\t// in\ntag_219:\n    /* \"#utility.yul\":9472:9591   */\ntag_218:\n    /* \"#utility.yul\":9630:9631   */\n  0x00\n    /* \"#utility.yul\":9655:9719   */\n  tag_220\n    /* \"#utility.yul\":9711:9718   */\n  dup5\n    /* \"#utility.yul\":9702:9708   */\n  dup3\n    /* \"#utility.yul\":9691:9700   */\n  dup6\n    /* \"#utility.yul\":9687:9709   */\n  add\n    /* \"#utility.yul\":9655:9719   */\n  tag_93\n  jump\t// in\ntag_220:\n    /* \"#utility.yul\":9645:9719   */\n  swap2\n  pop\n    /* \"#utility.yul\":9601:9729   */\n  pop\n    /* \"#utility.yul\":9385:9736   */\n  swap3\n  swap2\n  pop\n  pop\n  jump\t// out\n    /* \"#utility.yul\":9742:9860   */\ntag_94:\n    /* \"#utility.yul\":9829:9853   */\n  tag_222\n    /* \"#utility.yul\":9847:9852   */\n  dup2\n    /* \"#utility.yul\":9829:9853   */\n  tag_91\n  jump\t// in\ntag_222:\n    /* \"#utility.yul\":9824:9827   */\n  dup3\n    /* \"#utility.yul\":9817:9854   */\n  mstore\n    /* \"#utility.yul\":9742:9860   */\n  pop\n  pop\n  jump\t// out\n    /* \"#utility.yul\":9866:10198   */\ntag_35:\n    /* \"#utility.yul\":9987:9991   */\n  0x00\n    /* \"#utility.yul\":10025:10027   */\n  0x40\n    /* \"#utility.yul\":10014:10023   */\n  dup3\n    /* \"#utility.yul\":10010:10028   */\n  add\n    /* \"#utility.yul\":10002:10028   */\n  swap1\n  pop\n    /* \"#utility.yul\":10038:10109   */\n  tag_224\n    /* \"#utility.yul\":10106:10107   */\n  0x00\n    /* \"#utility.yul\":10095:10104   */\n  dup4\n    /* \"#utility.yul\":10091:10108   */\n  add\n    /* \"#utility.yul\":10082:10088   */\n  dup6\n    /* \"#utility.yul\":10038:10109   */\n  tag_94\n  jump\t// in\ntag_224:\n    /* \"#utility.yul\":10119:10191   */\n  tag_225\n    /* \"#utility.yul\":10187:10189   */\n  0x20\n    /* \"#utility.yul\":10176:10185   */\n  dup4\n    /* \"#utility.yul\":10172:10190   */\n  add\n    /* \"#utility.yul\":10163:10169   */\n  dup5\n    /* \"#utility.yul\":10119:10191   */\n  tag_94\n  jump\t// in\ntag_225:\n    /* \"#utility.yul\":9866:10198   */\n  swap4\n  swap3\n  pop\n  pop\n  pop\n  jump\t// out\n    /* \"#utility.yul\":10204:10373   */\ntag_95:\n    /* \"#utility.yul\":10288:10299   */\n  0x00\n    /* \"#utility.yul\":10322:10328   */\n  dup3\n    /* \"#utility.yul\":10317:10320   */\n  dup3\n    /* \"#utility.yul\":10310:10329   */\n  mstore\n    /* \"#utility.yul\":10362:10366   */\n  0x20\n    /* \"#utility.yul\":10357:10360   */\n  dup3\n    /* \"#utility.yul\":10353:10367   */\n  add\n    /* \"#utility.yul\":10338:10367   */\n  swap1\n  pop\n    /* \"#utility.yul\":10204:10373   */\n  swap3\n  swap2\n  pop\n  pop\n  jump\t// out\n    /* \"#utility.yul\":10379:10560   */\ntag_96:\n    /* \"#utility.yul\":10519:10552   */\n  0x45524332303a206d696e7420746f20746865207a65726f206164647265737300\n    /* \"#utility.yul\":10515:10516   */\n  0x00\n    /* \"#utility.yul\":10507:10513   */\n  dup3\n    /* \"#utility.yul\":10503:10517   */\n  add\n    /* \"#utility.yul\":10496:10553   */\n  mstore\n    /* \"#utility.yul\":10379:10560   */\n  pop\n  jump\t// out\n    /* \"#utility.yul\":10566:10932   */\ntag_97:\n    /* \"#utility.yul\":10708:10711   */\n  0x00\n    /* \"#utility.yul\":10729:10796   */\n  tag_229\n    /* \"#utility.yul\":10793:10795   */\n  0x1f\n    /* \"#utility.yul\":10788:10791   */\n  dup4\n    /* \"#utility.yul\":10729:10796   */\n  tag_95\n  jump\t// in\ntag_229:\n    /* \"#utility.yul\":10722:10796   */\n  swap2\n  pop\n    /* \"#utility.yul\":10805:10898   */\n  tag_230\n    /* \"#utility.yul\":10894:10897   */\n  dup3\n    /* \"#utility.yul\":10805:10898   */\n  tag_96\n  jump\t// in\ntag_230:\n    /* \"#utility.yul\":10923:10925   */\n  0x20\n    /* \"#utility.yul\":10918:10921   */\n  dup3\n    /* \"#utility.yul\":10914:10926   */\n  add\n    /* \"#utility.yul\":10907:10926   */\n  swap1\n  pop\n    /* \"#utility.yul\":10566:10932   */\n  swap2\n  swap1\n  pop\n  jump\t// out\n    /* \"#utility.yul\":10938:11357   */\ntag_49:\n    /* \"#utility.yul\":11104:11108   */\n  0x00\n    /* \"#utility.yul\":11142:11144   */\n  0x20\n    /* \"#utility.yul\":11131:11140   */\n  dup3\n    /* \"#utility.yul\":11127:11145   */\n  add\n    /* \"#utility.yul\":11119:11145   */\n  swap1\n  pop\n    /* \"#utility.yul\":11191:11200   */\n  dup2\n    /* \"#utility.yul\":11185:11189   */\n  dup2\n    /* \"#utility.yul\":11181:11201   */\n  sub\n    /* \"#utility.yul\":11177:11178   */\n  0x00\n    /* \"#utility.yul\":11166:11175   */\n  dup4\n    /* \"#utility.yul\":11162:11179   */\n  add\n    /* \"#utility.yul\":11155:11202   */\n  mstore\n    /* \"#utility.yul\":11219:11350   */\n  tag_232\n    /* \"#utility.yul\":11345:11349   */\n  dup2\n    /* \"#utility.yul\":11219:11350   */\n  tag_97\n  jump\t// in\ntag_232:\n    /* \"#utility.yul\":11211:11350   */\n  swap1\n  pop\n    /* \"#utility.yul\":10938:11357   */\n  swap2\n  swap1\n  pop\n  jump\t// out\n    /* \"#utility.yul\":11363:11554   */\ntag_51:\n    /* \"#utility.yul\":11403:11406   */\n  0x00\n    /* \"#utility.yul\":11422:11442   */\n  tag_234\n    /* \"#utility.yul\":11440:11441   */\n  dup3\n    /* \"#utility.yul\":11422:11442   */\n  tag_66\n  jump\t// in\ntag_234:\n    /* \"#utility.yul\":11417:11442   */\n  swap2\n  pop\n    /* \"#utility.yul\":11456:11476   */\n  tag_235\n    /* \"#utility.yul\":11474:11475   */\n  dup4\n    /* \"#utility.yul\":11456:11476   */\n  tag_66\n  jump\t// in\ntag_235:\n    /* \"#utility.yul\":11451:11476   */\n  swap3\n  pop\n    /* \"#utility.yul\":11499:11500   */\n  dup3\n    /* \"#utility.yul\":11496:11497   */\n  dup3\n    /* \"#utility.yul\":11492:11501   */\n  add\n    /* \"#utility.yul\":11485:11501   */\n  swap1\n  pop\n    /* \"#utility.yul\":11520:11523   */\n  dup1\n    /* \"#utility.yul\":11517:11518   */\n  dup3\n    /* \"#utility.yul\":11514:11524   */\n  gt\n    /* \"#utility.yul\":11511:11547   */\n  iszero\n  tag_236\n  jumpi\n    /* \"#utility.yul\":11527:11545   */\n  tag_237\n  tag_62\n  jump\t// in\ntag_237:\n    /* \"#utility.yul\":11511:11547   */\ntag_236:\n    /* \"#utility.yul\":11363:11554   */\n  swap3\n  swap2\n  pop\n  pop\n  jump\t// out\n    /* \"#utility.yul\":11560:11678   */\ntag_98:\n    /* \"#utility.yul\":11647:11671   */\n  tag_239\n    /* \"#utility.yul\":11665:11670   */\n  dup2\n    /* \"#utility.yul\":11647:11671   */\n  tag_66\n  jump\t// in\ntag_239:\n    /* \"#utility.yul\":11642:11645   */\n  dup3\n    /* \"#utility.yul\":11635:11672   */\n  mstore\n    /* \"#utility.yul\":11560:11678   */\n  pop\n  pop\n  jump\t// out\n    /* \"#utility.yul\":11684:11906   */\ntag_53:\n    /* \"#utility.yul\":11777:11781   */\n  0x00\n    /* \"#utility.yul\":11815:11817   */\n  0x20\n    /* \"#utility.yul\":11804:11813   */\n  dup3\n    /* \"#utility.yul\":11800:11818   */\n  add\n    /* \"#utility.yul\":11792:11818   */\n  swap1\n  pop\n    /* \"#utility.yul\":11828:11899   */\n  tag_241\n    /* \"#utility.yul\":11896:11897   */\n  0x00\n    /* \"#utility.yul\":11885:11894   */\n  dup4\n    /* \"#utility.yul\":11881:11898   */\n  add\n    /* \"#utility.yul\":11872:11878   */\n  dup5\n    /* \"#utility.yul\":11828:11899   */\n  tag_98\n  jump\t// in\ntag_241:\n    /* \"#utility.yul\":11684:11906   */\n  swap3\n  swap2\n  pop\n  pop\n  jump\t// out\n    /* \"#utility.yul\":11912:12135   */\ntag_99:\n    /* \"#utility.yul\":12052:12086   */\n  0x45524332303a20617070726f76652066726f6d20746865207a65726f20616464\n    /* \"#utility.yul\":12048:12049   */\n  0x00\n    /* \"#utility.yul\":12040:12046   */\n  dup3\n    /* \"#utility.yul\":12036:12050   */\n  add\n    /* \"#utility.yul\":12029:12087   */\n  mstore\n    /* \"#utility.yul\":12121:12127   */\n  0x7265737300000000000000000000000000000000000000000000000000000000\n    /* \"#utility.yul\":12116:12118   */\n  0x20\n    /* \"#utility.yul\":12108:12114   */\n  dup3\n    /* \"#utility.yul\":12104:12119   */\n  add\n    /* \"#utility.yul\":12097:12128   */\n  mstore\n    /* \"#utility.yul\":11912:12135   */\n  pop\n  jump\t// out\n    /* \"#utility.yul\":12141:12507   */\ntag_100:\n    /* \"#utility.yul\":12283:12286   */\n  0x00\n    /* \"#utility.yul\":12304:12371   */\n  tag_244\n    /* \"#utility.yul\":12368:12370   */\n  0x24\n    /* \"#utility.yul\":12363:12366   */\n  dup4\n    /* \"#utility.yul\":12304:12371   */\n  tag_95\n  jump\t// in\ntag_244:\n    /* \"#utility.yul\":12297:12371   */\n  swap2\n  pop\n    /* \"#utility.yul\":12380:12473   */\n  tag_245\n    /* \"#utility.yul\":12469:12472   */\n  dup3\n    /* \"#utility.yul\":12380:12473   */\n  tag_99\n  jump\t// in\ntag_245:\n    /* \"#utility.yul\":12498:12500   */\n  0x40\n    /* \"#utility.yul\":12493:12496   */\n  dup3\n    /* \"#utility.yul\":12489:12501   */\n  add\n    /* \"#utility.yul\":12482:12501   */\n  swap1\n  pop\n    /* \"#utility.yul\":12141:12507   */\n  swap2\n  swap1\n  pop\n  jump\t// out\n    /* \"#utility.yul\":12513:12932   */\ntag_57:\n    /* \"#utility.yul\":12679:12683   */\n  0x00\n    /* \"#utility.yul\":12717:12719   */\n  0x20\n    /* \"#utility.yul\":12706:12715   */\n  dup3\n    /* \"#utility.yul\":12702:12720   */\n  add\n    /* \"#utility.yul\":12694:12720   */\n  swap1\n  pop\n    /* \"#utility.yul\":12766:12775   */\n  dup2\n    /* \"#utility.yul\":12760:12764   */\n  dup2\n    /* \"#utility.yul\":12756:12776   */\n  sub\n    /* \"#utility.yul\":12752:12753   */\n  0x00\n    /* \"#utility.yul\":12741:12750   */\n  dup4\n    /* \"#utility.yul\":12737:12754   */\n  add\n    /* \"#utility.yul\":12730:12777   */\n  mstore\n    /* \"#utility.yul\":12794:12925   */\n  tag_247\n    /* \"#utility.yul\":12920:12924   */\n  dup2\n    /* \"#utility.yul\":12794:12925   */\n  tag_100\n  jump\t// in\ntag_247:\n    /* \"#utility.yul\":12786:12925   */\n  swap1\n  pop\n    /* \"#utility.yul\":12513:12932   */\n  swap2\n  swap1\n  pop\n  jump\t// out\n    /* \"#utility.yul\":12938:13159   */\ntag_101:\n    /* \"#utility.yul\":13078:13112   */\n  0x45524332303a20617070726f766520746f20746865207a65726f206164647265\n    /* \"#utility.yul\":13074:13075   */\n  0x00\n    /* \"#utility.yul\":13066:13072   */\n  dup3\n    /* \"#utility.yul\":13062:13076   */\n  add\n    /* \"#utility.yul\":13055:13113   */\n  mstore\n    /* \"#utility.yul\":13147:13151   */\n  0x7373000000000000000000000000000000000000000000000000000000000000\n    /* \"#utility.yul\":13142:13144   */\n  0x20\n    /* \"#utility.yul\":13134:13140   */\n  dup3\n    /* \"#utility.yul\":13130:13145   */\n  add\n    /* \"#utility.yul\":13123:13152   */\n  mstore\n    /* \"#utility.yul\":12938:13159   */\n  pop\n  jump\t// out\n    /* \"#utility.yul\":13165:13531   */\ntag_102:\n    /* \"#utility.yul\":13307:13310   */\n  0x00\n    /* \"#utility.yul\":13328:13395   */\n  tag_250\n    /* \"#utility.yul\":13392:13394   */\n  0x22\n    /* \"#utility.yul\":13387:13390   */\n  dup4\n    /* \"#utility.yul\":13328:13395   */\n  tag_95\n  jump\t// in\ntag_250:\n    /* \"#utility.yul\":13321:13395   */\n  swap2\n  pop\n    /* \"#utility.yul\":13404:13497   */\n  tag_251\n    /* \"#utility.yul\":13493:13496   */\n  dup3\n    /* \"#utility.yul\":13404:13497   */\n  tag_101\n  jump\t// in\ntag_251:\n    /* \"#utility.yul\":13522:13524   */\n  0x40\n    /* \"#utility.yul\":13517:13520   */\n  dup3\n    /* \"#utility.yul\":13513:13525   */\n  add\n    /* \"#utility.yul\":13506:13525   */\n  swap1\n  pop\n    /* \"#utility.yul\":13165:13531   */\n  swap2\n  swap1\n  pop\n  jump\t// out\n    /* \"#utility.yul\":13537:13956   */\ntag_60:\n    /* \"#utility.yul\":13703:13707   */\n  0x00\n    /* \"#utility.yul\":13741:13743   */\n  0x20\n    /* \"#utility.yul\":13730:13739   */\n  dup3\n    /* \"#utility.yul\":13726:13744   */\n  add\n    /* \"#utility.yul\":13718:13744   */\n  swap1\n  pop\n    /* \"#utility.yul\":13790:13799   */\n  dup2\n    /* \"#utility.yul\":13784:13788   */\n  dup2\n    /* \"#utility.yul\":13780:13800   */\n  sub\n    /* \"#utility.yul\":13776:13777   */\n  0x00\n    /* \"#utility.yul\":13765:13774   */\n  dup4\n    /* \"#utility.yul\":13761:13778   */\n  add\n    /* \"#utility.yul\":13754:13801   */\n  mstore\n    /* \"#utility.yul\":13818:13949   */\n  tag_253\n    /* \"#utility.yul\":13944:13948   */\n  dup2\n    /* \"#utility.yul\":13818:13949   */\n  tag_102\n  jump\t// in\ntag_253:\n    /* \"#utility.yul\":13810:13949   */\n  swap1\n  pop\n    /* \"#utility.yul\":13537:13956   */\n  swap2\n  swap1\n  pop\n  jump\t// out\n    /* \"contracts/FreedomCoinNew.sol\":15402:19637  contract FreedomCoinNew is ERC20, Ownable {... */\ntag_42:\n  dataSize(sub_0)\n  dup1\n  dataOffset(sub_0)\n  0x00\n  codecopy\n  0x00\n  return\nstop\n\nsub_0: assembly {\n        /* \"contracts/FreedomCoinNew.sol\":15402:19637  contract FreedomCoinNew is ERC20, Ownable {... */\n      mstore(0x40, 0x80)\n      callvalue\n      dup1\n      iszero\n      tag_1\n      jumpi\n      0x00\n      dup1\n      revert\n    tag_1:\n      pop\n      jumpi(tag_2, lt(calldatasize, 0x04))\n      shr(0xe0, calldataload(0x00))\n      dup1\n      0x5d098b38\n      gt\n      tag_30\n      jumpi\n      dup1\n      0xa63748e5\n      gt\n      tag_31\n      jumpi\n      dup1\n      0xcd48145b\n      gt\n      tag_32\n      jumpi\n      dup1\n      0xcd48145b\n      eq\n      tag_26\n      jumpi\n      dup1\n      0xdd62ed3e\n      eq\n      tag_27\n      jumpi\n      dup1\n      0xeeaf6f92\n      eq\n      tag_28\n      jumpi\n      dup1\n      0xf2fde38b\n      eq\n      tag_29\n      jumpi\n      jump(tag_2)\n    tag_32:\n      dup1\n      0xa63748e5\n      eq\n      tag_23\n      jumpi\n      dup1\n      0xa9059cbb\n      eq\n      tag_24\n      jumpi\n      dup1\n      0xc31c9c07\n      eq\n      tag_25\n      jumpi\n      jump(tag_2)\n    tag_31:\n      dup1\n      0x715018a6\n      gt\n      tag_33\n      jumpi\n      dup1\n      0x715018a6\n      eq\n      tag_19\n      jumpi\n      dup1\n      0x8da5cb5b\n      eq\n      tag_20\n      jumpi\n      dup1\n      0x95d89b41\n      eq\n      tag_21\n      jumpi\n      dup1\n      0xa457c2d7\n      eq\n      tag_22\n      jumpi\n      jump(tag_2)\n    tag_33:\n      dup1\n      0x5d098b38\n      eq\n      tag_16\n      jumpi\n      dup1\n      0x60ec4c84\n      eq\n      tag_17\n      jumpi\n      dup1\n      0x70a08231\n      eq\n      tag_18\n      jumpi\n      jump(tag_2)\n    tag_30:\n      dup1\n      0x26991cc8\n      gt\n      tag_34\n      jumpi\n      dup1\n      0x41f06d91\n      gt\n      tag_35\n      jumpi\n      dup1\n      0x41f06d91\n      eq\n      tag_12\n      jumpi\n      dup1\n      0x43a18909\n      eq\n      tag_13\n      jumpi\n      dup1\n      0x487c70fc\n      eq\n      tag_14\n      jumpi\n      dup1\n      0x5958621e\n      eq\n      tag_15\n      jumpi\n      jump(tag_2)\n    tag_35:\n      dup1\n      0x26991cc8\n      eq\n      tag_9\n      jumpi\n      dup1\n      0x313ce567\n      eq\n      tag_10\n      jumpi\n      dup1\n      0x39509351\n      eq\n      tag_11\n      jumpi\n      jump(tag_2)\n    tag_34:\n      dup1\n      0x06fdde03\n      eq\n      tag_3\n      jumpi\n      dup1\n      0x095ea7b3\n      eq\n      tag_4\n      jumpi\n      dup1\n      0x0e7e573f\n      eq\n      tag_5\n      jumpi\n      dup1\n      0x18160ddd\n      eq\n      tag_6\n      jumpi\n      dup1\n      0x23b872dd\n      eq\n      tag_7\n      jumpi\n      dup1\n      0x2428cb9a\n      eq\n      tag_8\n      jumpi\n    tag_2:\n      0x00\n      dup1\n      revert\n        /* \"contracts/FreedomCoinNew.sol\":6702:6802  function name() external view virtual override returns (string memory) {... */\n    tag_3:\n      tag_36\n      tag_37\n      jump\t// in\n    tag_36:\n      mload(0x40)\n      tag_38\n      swap2\n      swap1\n      tag_39\n      jump\t// in\n    tag_38:\n      mload(0x40)\n      dup1\n      swap2\n      sub\n      swap1\n      return\n        /* \"contracts/FreedomCoinNew.sol\":8828:9049  function approve(... */\n    tag_4:\n      tag_40\n      0x04\n      dup1\n      calldatasize\n      sub\n      dup2\n      add\n      swap1\n      tag_41\n      swap2\n      swap1\n      tag_42\n      jump\t// in\n    tag_41:\n      tag_43\n      jump\t// in\n    tag_40:\n      mload(0x40)\n      tag_44\n      swap2\n      swap1\n      tag_45\n      jump\t// in\n    tag_44:\n      mload(0x40)\n      dup1\n      swap2\n      sub\n      swap1\n      return\n        /* \"contracts/FreedomCoinNew.sol\":19190:19306  function setMinTokens(uint256 newValue) external onlyOwner {... */\n    tag_5:\n      tag_46\n      0x04\n      dup1\n      calldatasize\n      sub\n      dup2\n      add\n      swap1\n      tag_47\n      swap2\n      swap1\n      tag_48\n      jump\t// in\n    tag_47:\n      tag_49\n      jump\t// in\n    tag_46:\n      stop\n        /* \"contracts/FreedomCoinNew.sol\":7774:7882  function totalSupply() external view virtual override returns (uint256) {... */\n    tag_6:\n      tag_50\n      tag_51\n      jump\t// in\n    tag_50:\n      mload(0x40)\n      tag_52\n      swap2\n      swap1\n      tag_53\n      jump\t// in\n    tag_52:\n      mload(0x40)\n      dup1\n      swap2\n      sub\n      swap1\n      return\n        /* \"contracts/FreedomCoinNew.sol\":9611:9899  function transferFrom(... */\n    tag_7:\n      tag_54\n      0x04\n      dup1\n      calldatasize\n      sub\n      dup2\n      add\n      swap1\n      tag_55\n      swap2\n      swap1\n      tag_56\n      jump\t// in\n    tag_55:\n      tag_57\n      jump\t// in\n    tag_54:\n      mload(0x40)\n      tag_58\n      swap2\n      swap1\n      tag_45\n      jump\t// in\n    tag_58:\n      mload(0x40)\n      dup1\n      swap2\n      sub\n      swap1\n      return\n        /* \"contracts/FreedomCoinNew.sol\":15569:15665  address payable public _marketingDevWallet = payable(0x0331535b9f37EB41F437EA0cfE345ABB9d102A1A) */\n    tag_8:\n      tag_59\n      tag_60\n      jump\t// in\n    tag_59:\n      mload(0x40)\n      tag_61\n      swap2\n      swap1\n      tag_62\n      jump\t// in\n    tag_61:\n      mload(0x40)\n      dup1\n      swap2\n      sub\n      swap1\n      return\n        /* \"contracts/FreedomCoinNew.sol\":16129:16152  address public swapPair */\n    tag_9:\n      tag_63\n      tag_64\n      jump\t// in\n    tag_63:\n      mload(0x40)\n      tag_65\n      swap2\n      swap1\n      tag_66\n      jump\t// in\n    tag_65:\n      mload(0x40)\n      dup1\n      swap2\n      sub\n      swap1\n      return\n        /* \"contracts/FreedomCoinNew.sol\":7623:7714  function decimals() public view virtual override returns (uint8) {... */\n    tag_10:\n      tag_67\n      tag_68\n      jump\t// in\n    tag_67:\n      mload(0x40)\n      tag_69\n      swap2\n      swap1\n      tag_70\n      jump\t// in\n    tag_69:\n      mload(0x40)\n      dup1\n      swap2\n      sub\n      swap1\n      return\n        /* \"contracts/FreedomCoinNew.sol\":11266:11524  function increaseAllowance(... */\n    tag_11:\n      tag_71\n      0x04\n      dup1\n      calldatasize\n      sub\n      dup2\n      add\n      swap1\n      tag_72\n      swap2\n      swap1\n      tag_42\n      jump\t// in\n    tag_72:\n      tag_73\n      jump\t// in\n    tag_71:\n      mload(0x40)\n      tag_74\n      swap2\n      swap1\n      tag_45\n      jump\t// in\n    tag_74:\n      mload(0x40)\n      dup1\n      swap2\n      sub\n      swap1\n      return\n        /* \"contracts/FreedomCoinNew.sol\":15825:15861  uint256 public _feeBuyAndSellLP = 10 */\n    tag_12:\n      tag_75\n      tag_76\n      jump\t// in\n    tag_75:\n      mload(0x40)\n      tag_77\n      swap2\n      swap1\n      tag_53\n      jump\t// in\n    tag_77:\n      mload(0x40)\n      dup1\n      swap2\n      sub\n      swap1\n      return\n        /* \"contracts/FreedomCoinNew.sol\":15472:15563  address payable public _charityWallet = payable(0x047c0D746D42fF4cEe7d2CB1FBf5c0D090267931) */\n    tag_13:\n      tag_78\n      tag_79\n      jump\t// in\n    tag_78:\n      mload(0x40)\n      tag_80\n      swap2\n      swap1\n      tag_62\n      jump\t// in\n    tag_80:\n      mload(0x40)\n      dup1\n      swap2\n      sub\n      swap1\n      return\n        /* \"contracts/FreedomCoinNew.sol\":15889:15939  uint256 public _maxTokens = 100 * 10 ** decimals() */\n    tag_14:\n      tag_81\n      tag_82\n      jump\t// in\n    tag_81:\n      mload(0x40)\n      tag_83\n      swap2\n      swap1\n      tag_53\n      jump\t// in\n    tag_83:\n      mload(0x40)\n      dup1\n      swap2\n      sub\n      swap1\n      return\n        /* \"contracts/FreedomCoinNew.sol\":18942:19056  function setRewardWallet(address payable newWallet) external onlyOwner {... */\n    tag_15:\n      tag_84\n      0x04\n      dup1\n      calldatasize\n      sub\n      dup2\n      add\n      swap1\n      tag_85\n      swap2\n      swap1\n      tag_86\n      jump\t// in\n    tag_85:\n      tag_87\n      jump\t// in\n    tag_84:\n      stop\n        /* \"contracts/FreedomCoinNew.sol\":19062:19184  function setMarketingWallet(address payable newWallet) external onlyOwner {... */\n    tag_16:\n      tag_88\n      0x04\n      dup1\n      calldatasize\n      sub\n      dup2\n      add\n      swap1\n      tag_89\n      swap2\n      swap1\n      tag_86\n      jump\t// in\n    tag_89:\n      tag_90\n      jump\t// in\n    tag_88:\n      stop\n        /* \"contracts/FreedomCoinNew.sol\":15737:15778  uint256 public _feeBuyAndSellCharity = 10 */\n    tag_17:\n      tag_91\n      tag_92\n      jump\t// in\n    tag_91:\n      mload(0x40)\n      tag_93\n      swap2\n      swap1\n      tag_53\n      jump\t// in\n    tag_93:\n      mload(0x40)\n      dup1\n      swap2\n      sub\n      swap1\n      return\n        /* \"contracts/FreedomCoinNew.sol\":6860:6999  function balanceOf(... */\n    tag_18:\n      tag_94\n      0x04\n      dup1\n      calldatasize\n      sub\n      dup2\n      add\n      swap1\n      tag_95\n      swap2\n      swap1\n      tag_96\n      jump\t// in\n    tag_95:\n      tag_97\n      jump\t// in\n    tag_94:\n      mload(0x40)\n      tag_98\n      swap2\n      swap1\n      tag_53\n      jump\t// in\n    tag_98:\n      mload(0x40)\n      dup1\n      swap2\n      sub\n      swap1\n      return\n        /* \"contracts/FreedomCoinNew.sol\":5209:5310  function renounceOwnership() public virtual onlyOwner {... */\n    tag_19:\n      tag_99\n      tag_100\n      jump\t// in\n    tag_99:\n      stop\n        /* \"contracts/FreedomCoinNew.sol\":4579:4664  function owner() public view virtual returns (address) {... */\n    tag_20:\n      tag_101\n      tag_102\n      jump\t// in\n    tag_101:\n      mload(0x40)\n      tag_103\n      swap2\n      swap1\n      tag_66\n      jump\t// in\n    tag_103:\n      mload(0x40)\n      dup1\n      swap2\n      sub\n      swap1\n      return\n        /* \"contracts/FreedomCoinNew.sol\":6533:6637  function symbol() external view virtual override returns (string memory) {... */\n    tag_21:\n      tag_104\n      tag_105\n      jump\t// in\n    tag_104:\n      mload(0x40)\n      tag_106\n      swap2\n      swap1\n      tag_39\n      jump\t// in\n    tag_106:\n      mload(0x40)\n      dup1\n      swap2\n      sub\n      swap1\n      return\n        /* \"contracts/FreedomCoinNew.sol\":10386:10871  function decreaseAllowance(... */\n    tag_22:\n      tag_107\n      0x04\n      dup1\n      calldatasize\n      sub\n      dup2\n      add\n      swap1\n      tag_108\n      swap2\n      swap1\n      tag_42\n      jump\t// in\n    tag_108:\n      tag_109\n      jump\t// in\n    tag_107:\n      mload(0x40)\n      tag_110\n      swap2\n      swap1\n      tag_45\n      jump\t// in\n    tag_110:\n      mload(0x40)\n      dup1\n      swap2\n      sub\n      swap1\n      return\n        /* \"contracts/FreedomCoinNew.sol\":19312:19635  function editFees(... */\n    tag_23:\n      tag_111\n      0x04\n      dup1\n      calldatasize\n      sub\n      dup2\n      add\n      swap1\n      tag_112\n      swap2\n      swap1\n      tag_113\n      jump\t// in\n    tag_112:\n      tag_114\n      jump\t// in\n    tag_111:\n      stop\n        /* \"contracts/FreedomCoinNew.sol\":8307:8520  function transfer(... */\n    tag_24:\n      tag_115\n      0x04\n      dup1\n      calldatasize\n      sub\n      dup2\n      add\n      swap1\n      tag_116\n      swap2\n      swap1\n      tag_42\n      jump\t// in\n    tag_116:\n      tag_117\n      jump\t// in\n    tag_115:\n      mload(0x40)\n      tag_118\n      swap2\n      swap1\n      tag_45\n      jump\t// in\n    tag_118:\n      mload(0x40)\n      dup1\n      swap2\n      sub\n      swap1\n      return\n        /* \"contracts/FreedomCoinNew.sol\":16089:16123  IUniswapV2Router public swapRouter */\n    tag_25:\n      tag_119\n      tag_120\n      jump\t// in\n    tag_119:\n      mload(0x40)\n      tag_121\n      swap2\n      swap1\n      tag_122\n      jump\t// in\n    tag_121:\n      mload(0x40)\n      dup1\n      swap2\n      sub\n      swap1\n      return\n        /* \"contracts/FreedomCoinNew.sol\":15691:15730  uint256 public _feeBuyAndSellTotal = 29 */\n    tag_26:\n      tag_123\n      tag_124\n      jump\t// in\n    tag_123:\n      mload(0x40)\n      tag_125\n      swap2\n      swap1\n      tag_53\n      jump\t// in\n    tag_125:\n      mload(0x40)\n      dup1\n      swap2\n      sub\n      swap1\n      return\n        /* \"contracts/FreedomCoinNew.sol\":7940:8111  function allowance(... */\n    tag_27:\n      tag_126\n      0x04\n      dup1\n      calldatasize\n      sub\n      dup2\n      add\n      swap1\n      tag_127\n      swap2\n      swap1\n      tag_128\n      jump\t// in\n    tag_127:\n      tag_129\n      jump\t// in\n    tag_126:\n      mload(0x40)\n      tag_130\n      swap2\n      swap1\n      tag_53\n      jump\t// in\n    tag_130:\n      mload(0x40)\n      dup1\n      swap2\n      sub\n      swap1\n      return\n        /* \"contracts/FreedomCoinNew.sol\":15784:15819  uint256 public _feeBuyAndSellMK = 9 */\n    tag_28:\n      tag_131\n      tag_132\n      jump\t// in\n    tag_131:\n      mload(0x40)\n      tag_133\n      swap2\n      swap1\n      tag_53\n      jump\t// in\n    tag_133:\n      mload(0x40)\n      dup1\n      swap2\n      sub\n      swap1\n      return\n        /* \"contracts/FreedomCoinNew.sol\":5459:5691  function transferOwnership(address newOwner) public virtual onlyOwner {... */\n    tag_29:\n      tag_134\n      0x04\n      dup1\n      calldatasize\n      sub\n      dup2\n      add\n      swap1\n      tag_135\n      swap2\n      swap1\n      tag_96\n      jump\t// in\n    tag_135:\n      tag_136\n      jump\t// in\n    tag_134:\n      stop\n        /* \"contracts/FreedomCoinNew.sol\":6702:6802  function name() external view virtual override returns (string memory) {... */\n    tag_37:\n        /* \"contracts/FreedomCoinNew.sol\":6758:6771  string memory */\n      0x60\n        /* \"contracts/FreedomCoinNew.sol\":6790:6795  _name */\n      0x03\n        /* \"contracts/FreedomCoinNew.sol\":6783:6795  return _name */\n      dup1\n      sload\n      tag_138\n      swap1\n      tag_139\n      jump\t// in\n    tag_138:\n      dup1\n      0x1f\n      add\n      0x20\n      dup1\n      swap2\n      div\n      mul\n      0x20\n      add\n      mload(0x40)\n      swap1\n      dup2\n      add\n      0x40\n      mstore\n      dup1\n      swap3\n      swap2\n      swap1\n      dup2\n      dup2\n      mstore\n      0x20\n      add\n      dup3\n      dup1\n      sload\n      tag_140\n      swap1\n      tag_139\n      jump\t// in\n    tag_140:\n      dup1\n      iszero\n      tag_141\n      jumpi\n      dup1\n      0x1f\n      lt\n      tag_142\n      jumpi\n      0x0100\n      dup1\n      dup4\n      sload\n      div\n      mul\n      dup4\n      mstore\n      swap2\n      0x20\n      add\n      swap2\n      jump(tag_141)\n    tag_142:\n      dup3\n      add\n      swap2\n      swap1\n      0x00\n      mstore\n      keccak256(0x00, 0x20)\n      swap1\n    tag_143:\n      dup2\n      sload\n      dup2\n      mstore\n      swap1\n      0x01\n      add\n      swap1\n      0x20\n      add\n      dup1\n      dup4\n      gt\n      tag_143\n      jumpi\n      dup3\n      swap1\n      sub\n      0x1f\n      and\n      dup3\n      add\n      swap2\n    tag_141:\n      pop\n      pop\n      pop\n      pop\n      pop\n      swap1\n      pop\n        /* \"contracts/FreedomCoinNew.sol\":6702:6802  function name() external view virtual override returns (string memory) {... */\n      swap1\n      jump\t// out\n        /* \"contracts/FreedomCoinNew.sol\":8828:9049  function approve(... */\n    tag_43:\n        /* \"contracts/FreedomCoinNew.sol\":8935:8939  bool */\n      0x00\n        /* \"contracts/FreedomCoinNew.sol\":8951:8964  address owner */\n      dup1\n        /* \"contracts/FreedomCoinNew.sol\":8967:8979  _msgSender() */\n      tag_145\n        /* \"contracts/FreedomCoinNew.sol\":8967:8977  _msgSender */\n      tag_146\n        /* \"contracts/FreedomCoinNew.sol\":8967:8979  _msgSender() */\n      jump\t// in\n    tag_145:\n        /* \"contracts/FreedomCoinNew.sol\":8951:8979  address owner = _msgSender() */\n      swap1\n      pop\n        /* \"contracts/FreedomCoinNew.sol\":8989:9021  _approve(owner, spender, amount) */\n      tag_147\n        /* \"contracts/FreedomCoinNew.sol\":8998:9003  owner */\n      dup2\n        /* \"contracts/FreedomCoinNew.sol\":9005:9012  spender */\n      dup6\n        /* \"contracts/FreedomCoinNew.sol\":9014:9020  amount */\n      dup6\n        /* \"contracts/FreedomCoinNew.sol\":8989:8997  _approve */\n      tag_148\n        /* \"contracts/FreedomCoinNew.sol\":8989:9021  _approve(owner, spender, amount) */\n      jump\t// in\n    tag_147:\n        /* \"contracts/FreedomCoinNew.sol\":9038:9042  true */\n      0x01\n        /* \"contracts/FreedomCoinNew.sol\":9031:9042  return true */\n      swap2\n      pop\n      pop\n        /* \"contracts/FreedomCoinNew.sol\":8828:9049  function approve(... */\n      swap3\n      swap2\n      pop\n      pop\n      jump\t// out\n        /* \"contracts/FreedomCoinNew.sol\":19190:19306  function setMinTokens(uint256 newValue) external onlyOwner {... */\n    tag_49:\n        /* \"contracts/FreedomCoinNew.sol\":4472:4485  _checkOwner() */\n      tag_150\n        /* \"contracts/FreedomCoinNew.sol\":4472:4483  _checkOwner */\n      tag_151\n        /* \"contracts/FreedomCoinNew.sol\":4472:4485  _checkOwner() */\n      jump\t// in\n    tag_150:\n        /* \"contracts/FreedomCoinNew.sol\":19289:19299  decimals() */\n      tag_153\n        /* \"contracts/FreedomCoinNew.sol\":19289:19297  decimals */\n      tag_68\n        /* \"contracts/FreedomCoinNew.sol\":19289:19299  decimals() */\n      jump\t// in\n    tag_153:\n        /* \"contracts/FreedomCoinNew.sol\":19283:19285  10 */\n      0x0a\n        /* \"contracts/FreedomCoinNew.sol\":19283:19299  10 ** decimals() */\n      tag_154\n      swap2\n      swap1\n      tag_155\n      jump\t// in\n    tag_154:\n        /* \"contracts/FreedomCoinNew.sol\":19272:19280  newValue */\n      dup2\n        /* \"contracts/FreedomCoinNew.sol\":19272:19299  newValue * 10 ** decimals() */\n      tag_156\n      swap2\n      swap1\n      tag_157\n      jump\t// in\n    tag_156:\n        /* \"contracts/FreedomCoinNew.sol\":19259:19269  _maxTokens */\n      0x0c\n        /* \"contracts/FreedomCoinNew.sol\":19259:19299  _maxTokens = newValue * 10 ** decimals() */\n      dup2\n      swap1\n      sstore\n      pop\n        /* \"contracts/FreedomCoinNew.sol\":19190:19306  function setMinTokens(uint256 newValue) external onlyOwner {... */\n      pop\n      jump\t// out\n        /* \"contracts/FreedomCoinNew.sol\":7774:7882  function totalSupply() external view virtual override returns (uint256) {... */\n    tag_51:\n        /* \"contracts/FreedomCoinNew.sol\":7837:7844  uint256 */\n      0x00\n        /* \"contracts/FreedomCoinNew.sol\":7863:7875  _totalSupply */\n      sload(0x02)\n        /* \"contracts/FreedomCoinNew.sol\":7856:7875  return _totalSupply */\n      swap1\n      pop\n        /* \"contracts/FreedomCoinNew.sol\":7774:7882  function totalSupply() external view virtual override returns (uint256) {... */\n      swap1\n      jump\t// out\n        /* \"contracts/FreedomCoinNew.sol\":9611:9899  function transferFrom(... */\n    tag_57:\n        /* \"contracts/FreedomCoinNew.sol\":9740:9744  bool */\n      0x00\n        /* \"contracts/FreedomCoinNew.sol\":9756:9771  address spender */\n      dup1\n        /* \"contracts/FreedomCoinNew.sol\":9774:9786  _msgSender() */\n      tag_160\n        /* \"contracts/FreedomCoinNew.sol\":9774:9784  _msgSender */\n      tag_146\n        /* \"contracts/FreedomCoinNew.sol\":9774:9786  _msgSender() */\n      jump\t// in\n    tag_160:\n        /* \"contracts/FreedomCoinNew.sol\":9756:9786  address spender = _msgSender() */\n      swap1\n      pop\n        /* \"contracts/FreedomCoinNew.sol\":9796:9834  _spendAllowance(from, spender, amount) */\n      tag_161\n        /* \"contracts/FreedomCoinNew.sol\":9812:9816  from */\n      dup6\n        /* \"contracts/FreedomCoinNew.sol\":9818:9825  spender */\n      dup3\n        /* \"contracts/FreedomCoinNew.sol\":9827:9833  amount */\n      dup6\n        /* \"contracts/FreedomCoinNew.sol\":9796:9811  _spendAllowance */\n      tag_162\n        /* \"contracts/FreedomCoinNew.sol\":9796:9834  _spendAllowance(from, spender, amount) */\n      jump\t// in\n    tag_161:\n        /* \"contracts/FreedomCoinNew.sol\":9844:9871  _transfer(from, to, amount) */\n      tag_163\n        /* \"contracts/FreedomCoinNew.sol\":9854:9858  from */\n      dup6\n        /* \"contracts/FreedomCoinNew.sol\":9860:9862  to */\n      dup6\n        /* \"contracts/FreedomCoinNew.sol\":9864:9870  amount */\n      dup6\n        /* \"contracts/FreedomCoinNew.sol\":9844:9853  _transfer */\n      tag_164\n        /* \"contracts/FreedomCoinNew.sol\":9844:9871  _transfer(from, to, amount) */\n      jump\t// in\n    tag_163:\n        /* \"contracts/FreedomCoinNew.sol\":9888:9892  true */\n      0x01\n        /* \"contracts/FreedomCoinNew.sol\":9881:9892  return true */\n      swap2\n      pop\n      pop\n        /* \"contracts/FreedomCoinNew.sol\":9611:9899  function transferFrom(... */\n      swap4\n      swap3\n      pop\n      pop\n      pop\n      jump\t// out\n        /* \"contracts/FreedomCoinNew.sol\":15569:15665  address payable public _marketingDevWallet = payable(0x0331535b9f37EB41F437EA0cfE345ABB9d102A1A) */\n    tag_60:\n      0x07\n      0x00\n      swap1\n      sload\n      swap1\n      0x0100\n      exp\n      swap1\n      div\n      0xffffffffffffffffffffffffffffffffffffffff\n      and\n      dup2\n      jump\t// out\n        /* \"contracts/FreedomCoinNew.sol\":16129:16152  address public swapPair */\n    tag_64:\n      0x11\n      0x00\n      swap1\n      sload\n      swap1\n      0x0100\n      exp\n      swap1\n      div\n      0xffffffffffffffffffffffffffffffffffffffff\n      and\n      dup2\n      jump\t// out\n        /* \"contracts/FreedomCoinNew.sol\":7623:7714  function decimals() public view virtual override returns (uint8) {... */\n    tag_68:\n        /* \"contracts/FreedomCoinNew.sol\":7681:7686  uint8 */\n      0x00\n        /* \"contracts/FreedomCoinNew.sol\":7705:7707  18 */\n      0x12\n        /* \"contracts/FreedomCoinNew.sol\":7698:7707  return 18 */\n      swap1\n      pop\n        /* \"contracts/FreedomCoinNew.sol\":7623:7714  function decimals() public view virtual override returns (uint8) {... */\n      swap1\n      jump\t// out\n        /* \"contracts/FreedomCoinNew.sol\":11266:11524  function increaseAllowance(... */\n    tag_73:\n        /* \"contracts/FreedomCoinNew.sol\":11378:11382  bool */\n      0x00\n        /* \"contracts/FreedomCoinNew.sol\":11394:11407  address owner */\n      dup1\n        /* \"contracts/FreedomCoinNew.sol\":11410:11422  _msgSender() */\n      tag_167\n        /* \"contracts/FreedomCoinNew.sol\":11410:11420  _msgSender */\n      tag_146\n        /* \"contracts/FreedomCoinNew.sol\":11410:11422  _msgSender() */\n      jump\t// in\n    tag_167:\n        /* \"contracts/FreedomCoinNew.sol\":11394:11422  address owner = _msgSender() */\n      swap1\n      pop\n        /* \"contracts/FreedomCoinNew.sol\":11432:11496  _approve(owner, spender, allowance(owner, spender) + addedValue) */\n      tag_168\n        /* \"contracts/FreedomCoinNew.sol\":11441:11446  owner */\n      dup2\n        /* \"contracts/FreedomCoinNew.sol\":11448:11455  spender */\n      dup6\n        /* \"contracts/FreedomCoinNew.sol\":11485:11495  addedValue */\n      dup6\n        /* \"contracts/FreedomCoinNew.sol\":11457:11482  allowance(owner, spender) */\n      tag_169\n        /* \"contracts/FreedomCoinNew.sol\":11467:11472  owner */\n      dup6\n        /* \"contracts/FreedomCoinNew.sol\":11474:11481  spender */\n      dup10\n        /* \"contracts/FreedomCoinNew.sol\":11457:11466  allowance */\n      tag_129\n        /* \"contracts/FreedomCoinNew.sol\":11457:11482  allowance(owner, spender) */\n      jump\t// in\n    tag_169:\n        /* \"contracts/FreedomCoinNew.sol\":11457:11495  allowance(owner, spender) + addedValue */\n      tag_170\n      swap2\n      swap1\n      tag_171\n      jump\t// in\n    tag_170:\n        /* \"contracts/FreedomCoinNew.sol\":11432:11440  _approve */\n      tag_148\n        /* \"contracts/FreedomCoinNew.sol\":11432:11496  _approve(owner, spender, allowance(owner, spender) + addedValue) */\n      jump\t// in\n    tag_168:\n        /* \"contracts/FreedomCoinNew.sol\":11513:11517  true */\n      0x01\n        /* \"contracts/FreedomCoinNew.sol\":11506:11517  return true */\n      swap2\n      pop\n      pop\n        /* \"contracts/FreedomCoinNew.sol\":11266:11524  function increaseAllowance(... */\n      swap3\n      swap2\n      pop\n      pop\n      jump\t// out\n        /* \"contracts/FreedomCoinNew.sol\":15825:15861  uint256 public _feeBuyAndSellLP = 10 */\n    tag_76:\n      sload(0x0b)\n      dup2\n      jump\t// out\n        /* \"contracts/FreedomCoinNew.sol\":15472:15563  address payable public _charityWallet = payable(0x047c0D746D42fF4cEe7d2CB1FBf5c0D090267931) */\n    tag_79:\n      0x06\n      0x00\n      swap1\n      sload\n      swap1\n      0x0100\n      exp\n      swap1\n      div\n      0xffffffffffffffffffffffffffffffffffffffff\n      and\n      dup2\n      jump\t// out\n        /* \"contracts/FreedomCoinNew.sol\":15889:15939  uint256 public _maxTokens = 100 * 10 ** decimals() */\n    tag_82:\n      sload(0x0c)\n      dup2\n      jump\t// out\n        /* \"contracts/FreedomCoinNew.sol\":18942:19056  function setRewardWallet(address payable newWallet) external onlyOwner {... */\n    tag_87:\n        /* \"contracts/FreedomCoinNew.sol\":4472:4485  _checkOwner() */\n      tag_173\n        /* \"contracts/FreedomCoinNew.sol\":4472:4483  _checkOwner */\n      tag_151\n        /* \"contracts/FreedomCoinNew.sol\":4472:4485  _checkOwner() */\n      jump\t// in\n    tag_173:\n        /* \"contracts/FreedomCoinNew.sol\":19040:19049  newWallet */\n      dup1\n        /* \"contracts/FreedomCoinNew.sol\":19023:19037  _charityWallet */\n      0x06\n      0x00\n        /* \"contracts/FreedomCoinNew.sol\":19023:19049  _charityWallet = newWallet */\n      0x0100\n      exp\n      dup2\n      sload\n      dup2\n      0xffffffffffffffffffffffffffffffffffffffff\n      mul\n      not\n      and\n      swap1\n      dup4\n      0xffffffffffffffffffffffffffffffffffffffff\n      and\n      mul\n      or\n      swap1\n      sstore\n      pop\n        /* \"contracts/FreedomCoinNew.sol\":18942:19056  function setRewardWallet(address payable newWallet) external onlyOwner {... */\n      pop\n      jump\t// out\n        /* \"contracts/FreedomCoinNew.sol\":19062:19184  function setMarketingWallet(address payable newWallet) external onlyOwner {... */\n    tag_90:\n        /* \"contracts/FreedomCoinNew.sol\":4472:4485  _checkOwner() */\n      tag_176\n        /* \"contracts/FreedomCoinNew.sol\":4472:4483  _checkOwner */\n      tag_151\n        /* \"contracts/FreedomCoinNew.sol\":4472:4485  _checkOwner() */\n      jump\t// in\n    tag_176:\n        /* \"contracts/FreedomCoinNew.sol\":19168:19177  newWallet */\n      dup1\n        /* \"contracts/FreedomCoinNew.sol\":19146:19165  _marketingDevWallet */\n      0x07\n      0x00\n        /* \"contracts/FreedomCoinNew.sol\":19146:19177  _marketingDevWallet = newWallet */\n      0x0100\n      exp\n      dup2\n      sload\n      dup2\n      0xffffffffffffffffffffffffffffffffffffffff\n      mul\n      not\n      and\n      swap1\n      dup4\n      0xffffffffffffffffffffffffffffffffffffffff\n      and\n      mul\n      or\n      swap1\n      sstore\n      pop\n        /* \"contracts/FreedomCoinNew.sol\":19062:19184  function setMarketingWallet(address payable newWallet) external onlyOwner {... */\n      pop\n      jump\t// out\n        /* \"contracts/FreedomCoinNew.sol\":15737:15778  uint256 public _feeBuyAndSellCharity = 10 */\n    tag_92:\n      sload(0x09)\n      dup2\n      jump\t// out\n        /* \"contracts/FreedomCoinNew.sol\":6860:6999  function balanceOf(... */\n    tag_97:\n        /* \"contracts/FreedomCoinNew.sol\":6948:6955  uint256 */\n      0x00\n        /* \"contracts/FreedomCoinNew.sol\":6974:6983  _balances */\n      dup1\n        /* \"contracts/FreedomCoinNew.sol\":6974:6992  _balances[account] */\n      0x00\n        /* \"contracts/FreedomCoinNew.sol\":6984:6991  account */\n      dup4\n        /* \"contracts/FreedomCoinNew.sol\":6974:6992  _balances[account] */\n      0xffffffffffffffffffffffffffffffffffffffff\n      and\n      0xffffffffffffffffffffffffffffffffffffffff\n      and\n      dup2\n      mstore\n      0x20\n      add\n      swap1\n      dup2\n      mstore\n      0x20\n      add\n      0x00\n      keccak256\n      sload\n        /* \"contracts/FreedomCoinNew.sol\":6967:6992  return _balances[account] */\n      swap1\n      pop\n        /* \"contracts/FreedomCoinNew.sol\":6860:6999  function balanceOf(... */\n      swap2\n      swap1\n      pop\n      jump\t// out\n        /* \"contracts/FreedomCoinNew.sol\":5209:5310  function renounceOwnership() public virtual onlyOwner {... */\n    tag_100:\n        /* \"contracts/FreedomCoinNew.sol\":4472:4485  _checkOwner() */\n      tag_180\n        /* \"contracts/FreedomCoinNew.sol\":4472:4483  _checkOwner */\n      tag_151\n        /* \"contracts/FreedomCoinNew.sol\":4472:4485  _checkOwner() */\n      jump\t// in\n    tag_180:\n        /* \"contracts/FreedomCoinNew.sol\":5273:5303  _transferOwnership(address(0)) */\n      tag_182\n        /* \"contracts/FreedomCoinNew.sol\":5300:5301  0 */\n      0x00\n        /* \"contracts/FreedomCoinNew.sol\":5273:5291  _transferOwnership */\n      tag_183\n        /* \"contracts/FreedomCoinNew.sol\":5273:5303  _transferOwnership(address(0)) */\n      jump\t// in\n    tag_182:\n        /* \"contracts/FreedomCoinNew.sol\":5209:5310  function renounceOwnership() public virtual onlyOwner {... */\n      jump\t// out\n        /* \"contracts/FreedomCoinNew.sol\":4579:4664  function owner() public view virtual returns (address) {... */\n    tag_102:\n        /* \"contracts/FreedomCoinNew.sol\":4625:4632  address */\n      0x00\n        /* \"contracts/FreedomCoinNew.sol\":4651:4657  _owner */\n      0x05\n      0x00\n      swap1\n      sload\n      swap1\n      0x0100\n      exp\n      swap1\n      div\n      0xffffffffffffffffffffffffffffffffffffffff\n      and\n        /* \"contracts/FreedomCoinNew.sol\":4644:4657  return _owner */\n      swap1\n      pop\n        /* \"contracts/FreedomCoinNew.sol\":4579:4664  function owner() public view virtual returns (address) {... */\n      swap1\n      jump\t// out\n        /* \"contracts/FreedomCoinNew.sol\":6533:6637  function symbol() external view virtual override returns (string memory) {... */\n    tag_105:\n        /* \"contracts/FreedomCoinNew.sol\":6591:6604  string memory */\n      0x60\n        /* \"contracts/FreedomCoinNew.sol\":6623:6630  _symbol */\n      0x04\n        /* \"contracts/FreedomCoinNew.sol\":6616:6630  return _symbol */\n      dup1\n      sload\n      tag_186\n      swap1\n      tag_139\n      jump\t// in\n    tag_186:\n      dup1\n      0x1f\n      add\n      0x20\n      dup1\n      swap2\n      div\n      mul\n      0x20\n      add\n      mload(0x40)\n      swap1\n      dup2\n      add\n      0x40\n      mstore\n      dup1\n      swap3\n      swap2\n      swap1\n      dup2\n      dup2\n      mstore\n      0x20\n      add\n      dup3\n      dup1\n      sload\n      tag_187\n      swap1\n      tag_139\n      jump\t// in\n    tag_187:\n      dup1\n      iszero\n      tag_188\n      jumpi\n      dup1\n      0x1f\n      lt\n      tag_189\n      jumpi\n      0x0100\n      dup1\n      dup4\n      sload\n      div\n      mul\n      dup4\n      mstore\n      swap2\n      0x20\n      add\n      swap2\n      jump(tag_188)\n    tag_189:\n      dup3\n      add\n      swap2\n      swap1\n      0x00\n      mstore\n      keccak256(0x00, 0x20)\n      swap1\n    tag_190:\n      dup2\n      sload\n      dup2\n      mstore\n      swap1\n      0x01\n      add\n      swap1\n      0x20\n      add\n      dup1\n      dup4\n      gt\n      tag_190\n      jumpi\n      dup3\n      swap1\n      sub\n      0x1f\n      and\n      dup3\n      add\n      swap2\n    tag_188:\n      pop\n      pop\n      pop\n      pop\n      pop\n      swap1\n      pop\n        /* \"contracts/FreedomCoinNew.sol\":6533:6637  function symbol() external view virtual override returns (string memory) {... */\n      swap1\n      jump\t// out\n        /* \"contracts/FreedomCoinNew.sol\":10386:10871  function decreaseAllowance(... */\n    tag_109:\n        /* \"contracts/FreedomCoinNew.sol\":10503:10507  bool */\n      0x00\n        /* \"contracts/FreedomCoinNew.sol\":10519:10532  address owner */\n      dup1\n        /* \"contracts/FreedomCoinNew.sol\":10535:10547  _msgSender() */\n      tag_192\n        /* \"contracts/FreedomCoinNew.sol\":10535:10545  _msgSender */\n      tag_146\n        /* \"contracts/FreedomCoinNew.sol\":10535:10547  _msgSender() */\n      jump\t// in\n    tag_192:\n        /* \"contracts/FreedomCoinNew.sol\":10519:10547  address owner = _msgSender() */\n      swap1\n      pop\n        /* \"contracts/FreedomCoinNew.sol\":10557:10581  uint256 currentAllowance */\n      0x00\n        /* \"contracts/FreedomCoinNew.sol\":10584:10609  allowance(owner, spender) */\n      tag_193\n        /* \"contracts/FreedomCoinNew.sol\":10594:10599  owner */\n      dup3\n        /* \"contracts/FreedomCoinNew.sol\":10601:10608  spender */\n      dup7\n        /* \"contracts/FreedomCoinNew.sol\":10584:10593  allowance */\n      tag_129\n        /* \"contracts/FreedomCoinNew.sol\":10584:10609  allowance(owner, spender) */\n      jump\t// in\n    tag_193:\n        /* \"contracts/FreedomCoinNew.sol\":10557:10609  uint256 currentAllowance = allowance(owner, spender) */\n      swap1\n      pop\n        /* \"contracts/FreedomCoinNew.sol\":10660:10675  subtractedValue */\n      dup4\n        /* \"contracts/FreedomCoinNew.sol\":10640:10656  currentAllowance */\n      dup2\n        /* \"contracts/FreedomCoinNew.sol\":10640:10675  currentAllowance >= subtractedValue */\n      lt\n      iszero\n        /* \"contracts/FreedomCoinNew.sol\":10619:10738  require(... */\n      tag_194\n      jumpi\n      mload(0x40)\n      0x08c379a000000000000000000000000000000000000000000000000000000000\n      dup2\n      mstore\n      0x04\n      add\n      tag_195\n      swap1\n      tag_196\n      jump\t// in\n    tag_195:\n      mload(0x40)\n      dup1\n      swap2\n      sub\n      swap1\n      revert\n    tag_194:\n        /* \"contracts/FreedomCoinNew.sol\":10772:10832  _approve(owner, spender, currentAllowance - subtractedValue) */\n      tag_197\n        /* \"contracts/FreedomCoinNew.sol\":10781:10786  owner */\n      dup3\n        /* \"contracts/FreedomCoinNew.sol\":10788:10795  spender */\n      dup7\n        /* \"contracts/FreedomCoinNew.sol\":10816:10831  subtractedValue */\n      dup7\n        /* \"contracts/FreedomCoinNew.sol\":10797:10813  currentAllowance */\n      dup5\n        /* \"contracts/FreedomCoinNew.sol\":10797:10831  currentAllowance - subtractedValue */\n      sub\n        /* \"contracts/FreedomCoinNew.sol\":10772:10780  _approve */\n      tag_148\n        /* \"contracts/FreedomCoinNew.sol\":10772:10832  _approve(owner, spender, currentAllowance - subtractedValue) */\n      jump\t// in\n    tag_197:\n        /* \"contracts/FreedomCoinNew.sol\":10860:10864  true */\n      0x01\n        /* \"contracts/FreedomCoinNew.sol\":10853:10864  return true */\n      swap3\n      pop\n      pop\n      pop\n        /* \"contracts/FreedomCoinNew.sol\":10386:10871  function decreaseAllowance(... */\n      swap3\n      swap2\n      pop\n      pop\n      jump\t// out\n        /* \"contracts/FreedomCoinNew.sol\":19312:19635  function editFees(... */\n    tag_114:\n        /* \"contracts/FreedomCoinNew.sol\":4472:4485  _checkOwner() */\n      tag_199\n        /* \"contracts/FreedomCoinNew.sol\":4472:4483  _checkOwner */\n      tag_151\n        /* \"contracts/FreedomCoinNew.sol\":4472:4485  _checkOwner() */\n      jump\t// in\n    tag_199:\n        /* \"contracts/FreedomCoinNew.sol\":19477:19491  __feeBuyReward */\n      dup3\n        /* \"contracts/FreedomCoinNew.sol\":19453:19474  _feeBuyAndSellCharity */\n      0x09\n        /* \"contracts/FreedomCoinNew.sol\":19453:19491  _feeBuyAndSellCharity = __feeBuyReward */\n      dup2\n      swap1\n      sstore\n      pop\n        /* \"contracts/FreedomCoinNew.sol\":19520:19530  __feeBuyMK */\n      dup2\n        /* \"contracts/FreedomCoinNew.sol\":19501:19517  _feeBuyAndSellMK */\n      0x0a\n        /* \"contracts/FreedomCoinNew.sol\":19501:19530  _feeBuyAndSellMK = __feeBuyMK */\n      dup2\n      swap1\n      sstore\n      pop\n        /* \"contracts/FreedomCoinNew.sol\":19559:19569  __feeBuyLP */\n      dup1\n        /* \"contracts/FreedomCoinNew.sol\":19540:19556  _feeBuyAndSellLP */\n      0x0b\n        /* \"contracts/FreedomCoinNew.sol\":19540:19569  _feeBuyAndSellLP = __feeBuyLP */\n      dup2\n      swap1\n      sstore\n      pop\n        /* \"contracts/FreedomCoinNew.sol\":19618:19628  __feeBuyLP */\n      dup1\n        /* \"contracts/FreedomCoinNew.sol\":19601:19615  __feeBuyReward */\n      dup4\n        /* \"contracts/FreedomCoinNew.sol\":19601:19628  __feeBuyReward + __feeBuyLP */\n      tag_201\n      swap2\n      swap1\n      tag_171\n      jump\t// in\n    tag_201:\n        /* \"contracts/FreedomCoinNew.sol\":19579:19598  _feeBuyAndSellTotal */\n      0x08\n        /* \"contracts/FreedomCoinNew.sol\":19579:19628  _feeBuyAndSellTotal = __feeBuyReward + __feeBuyLP */\n      dup2\n      swap1\n      sstore\n      pop\n        /* \"contracts/FreedomCoinNew.sol\":19312:19635  function editFees(... */\n      pop\n      pop\n      pop\n      jump\t// out\n        /* \"contracts/FreedomCoinNew.sol\":8307:8520  function transfer(... */\n    tag_117:\n        /* \"contracts/FreedomCoinNew.sol\":8410:8414  bool */\n      0x00\n        /* \"contracts/FreedomCoinNew.sol\":8426:8439  address owner */\n      dup1\n        /* \"contracts/FreedomCoinNew.sol\":8442:8454  _msgSender() */\n      tag_203\n        /* \"contracts/FreedomCoinNew.sol\":8442:8452  _msgSender */\n      tag_146\n        /* \"contracts/FreedomCoinNew.sol\":8442:8454  _msgSender() */\n      jump\t// in\n    tag_203:\n        /* \"contracts/FreedomCoinNew.sol\":8426:8454  address owner = _msgSender() */\n      swap1\n      pop\n        /* \"contracts/FreedomCoinNew.sol\":8464:8492  _transfer(owner, to, amount) */\n      tag_204\n        /* \"contracts/FreedomCoinNew.sol\":8474:8479  owner */\n      dup2\n        /* \"contracts/FreedomCoinNew.sol\":8481:8483  to */\n      dup6\n        /* \"contracts/FreedomCoinNew.sol\":8485:8491  amount */\n      dup6\n        /* \"contracts/FreedomCoinNew.sol\":8464:8473  _transfer */\n      tag_164\n        /* \"contracts/FreedomCoinNew.sol\":8464:8492  _transfer(owner, to, amount) */\n      jump\t// in\n    tag_204:\n        /* \"contracts/FreedomCoinNew.sol\":8509:8513  true */\n      0x01\n        /* \"contracts/FreedomCoinNew.sol\":8502:8513  return true */\n      swap2\n      pop\n      pop\n        /* \"contracts/FreedomCoinNew.sol\":8307:8520  function transfer(... */\n      swap3\n      swap2\n      pop\n      pop\n      jump\t// out\n        /* \"contracts/FreedomCoinNew.sol\":16089:16123  IUniswapV2Router public swapRouter */\n    tag_120:\n      0x10\n      0x00\n      swap1\n      sload\n      swap1\n      0x0100\n      exp\n      swap1\n      div\n      0xffffffffffffffffffffffffffffffffffffffff\n      and\n      dup2\n      jump\t// out\n        /* \"contracts/FreedomCoinNew.sol\":15691:15730  uint256 public _feeBuyAndSellTotal = 29 */\n    tag_124:\n      sload(0x08)\n      dup2\n      jump\t// out\n        /* \"contracts/FreedomCoinNew.sol\":7940:8111  function allowance(... */\n    tag_129:\n        /* \"contracts/FreedomCoinNew.sol\":8051:8058  uint256 */\n      0x00\n        /* \"contracts/FreedomCoinNew.sol\":8077:8088  _allowances */\n      0x01\n        /* \"contracts/FreedomCoinNew.sol\":8077:8095  _allowances[owner] */\n      0x00\n        /* \"contracts/FreedomCoinNew.sol\":8089:8094  owner */\n      dup5\n        /* \"contracts/FreedomCoinNew.sol\":8077:8095  _allowances[owner] */\n      0xffffffffffffffffffffffffffffffffffffffff\n      and\n      0xffffffffffffffffffffffffffffffffffffffff\n      and\n      dup2\n      mstore\n      0x20\n      add\n      swap1\n      dup2\n      mstore\n      0x20\n      add\n      0x00\n      keccak256\n        /* \"contracts/FreedomCoinNew.sol\":8077:8104  _allowances[owner][spender] */\n      0x00\n        /* \"contracts/FreedomCoinNew.sol\":8096:8103  spender */\n      dup4\n        /* \"contracts/FreedomCoinNew.sol\":8077:8104  _allowances[owner][spender] */\n      0xffffffffffffffffffffffffffffffffffffffff\n      and\n      0xffffffffffffffffffffffffffffffffffffffff\n      and\n      dup2\n      mstore\n      0x20\n      add\n      swap1\n      dup2\n      mstore\n      0x20\n      add\n      0x00\n      keccak256\n      sload\n        /* \"contracts/FreedomCoinNew.sol\":8070:8104  return _allowances[owner][spender] */\n      swap1\n      pop\n        /* \"contracts/FreedomCoinNew.sol\":7940:8111  function allowance(... */\n      swap3\n      swap2\n      pop\n      pop\n      jump\t// out\n        /* \"contracts/FreedomCoinNew.sol\":15784:15819  uint256 public _feeBuyAndSellMK = 9 */\n    tag_132:\n      sload(0x0a)\n      dup2\n      jump\t// out\n        /* \"contracts/FreedomCoinNew.sol\":5459:5691  function transferOwnership(address newOwner) public virtual onlyOwner {... */\n    tag_136:\n        /* \"contracts/FreedomCoinNew.sol\":4472:4485  _checkOwner() */\n      tag_207\n        /* \"contracts/FreedomCoinNew.sol\":4472:4483  _checkOwner */\n      tag_151\n        /* \"contracts/FreedomCoinNew.sol\":4472:4485  _checkOwner() */\n      jump\t// in\n    tag_207:\n        /* \"contracts/FreedomCoinNew.sol\":5580:5581  0 */\n      0x00\n        /* \"contracts/FreedomCoinNew.sol\":5560:5582  newOwner != address(0) */\n      0xffffffffffffffffffffffffffffffffffffffff\n      and\n        /* \"contracts/FreedomCoinNew.sol\":5560:5568  newOwner */\n      dup2\n        /* \"contracts/FreedomCoinNew.sol\":5560:5582  newOwner != address(0) */\n      0xffffffffffffffffffffffffffffffffffffffff\n      and\n      sub\n        /* \"contracts/FreedomCoinNew.sol\":5539:5646  require(... */\n      tag_209\n      jumpi\n      mload(0x40)\n      0x08c379a000000000000000000000000000000000000000000000000000000000\n      dup2\n      mstore\n      0x04\n      add\n      tag_210\n      swap1\n      tag_211\n      jump\t// in\n    tag_210:\n      mload(0x40)\n      dup1\n      swap2\n      sub\n      swap1\n      revert\n    tag_209:\n        /* \"contracts/FreedomCoinNew.sol\":5656:5684  _transferOwnership(newOwner) */\n      tag_212\n        /* \"contracts/FreedomCoinNew.sol\":5675:5683  newOwner */\n      dup2\n        /* \"contracts/FreedomCoinNew.sol\":5656:5674  _transferOwnership */\n      tag_183\n        /* \"contracts/FreedomCoinNew.sol\":5656:5684  _transferOwnership(newOwner) */\n      jump\t// in\n    tag_212:\n        /* \"contracts/FreedomCoinNew.sol\":5459:5691  function transferOwnership(address newOwner) public virtual onlyOwner {... */\n      pop\n      jump\t// out\n        /* \"contracts/FreedomCoinNew.sol\":3910:4006  function _msgSender() internal view virtual returns (address) {... */\n    tag_146:\n        /* \"contracts/FreedomCoinNew.sol\":3963:3970  address */\n      0x00\n        /* \"contracts/FreedomCoinNew.sol\":3989:3999  msg.sender */\n      caller\n        /* \"contracts/FreedomCoinNew.sol\":3982:3999  return msg.sender */\n      swap1\n      pop\n        /* \"contracts/FreedomCoinNew.sol\":3910:4006  function _msgSender() internal view virtual returns (address) {... */\n      swap1\n      jump\t// out\n        /* \"contracts/FreedomCoinNew.sol\":13499:13869  function _approve(... */\n    tag_148:\n        /* \"contracts/FreedomCoinNew.sol\":13647:13648  0 */\n      0x00\n        /* \"contracts/FreedomCoinNew.sol\":13630:13649  owner != address(0) */\n      0xffffffffffffffffffffffffffffffffffffffff\n      and\n        /* \"contracts/FreedomCoinNew.sol\":13630:13635  owner */\n      dup4\n        /* \"contracts/FreedomCoinNew.sol\":13630:13649  owner != address(0) */\n      0xffffffffffffffffffffffffffffffffffffffff\n      and\n      sub\n        /* \"contracts/FreedomCoinNew.sol\":13622:13690  require(owner != address(0), \"ERC20: approve from the zero address\") */\n      tag_215\n      jumpi\n      mload(0x40)\n      0x08c379a000000000000000000000000000000000000000000000000000000000\n      dup2\n      mstore\n      0x04\n      add\n      tag_216\n      swap1\n      tag_217\n      jump\t// in\n    tag_216:\n      mload(0x40)\n      dup1\n      swap2\n      sub\n      swap1\n      revert\n    tag_215:\n        /* \"contracts/FreedomCoinNew.sol\":13727:13728  0 */\n      0x00\n        /* \"contracts/FreedomCoinNew.sol\":13708:13729  spender != address(0) */\n      0xffffffffffffffffffffffffffffffffffffffff\n      and\n        /* \"contracts/FreedomCoinNew.sol\":13708:13715  spender */\n      dup3\n        /* \"contracts/FreedomCoinNew.sol\":13708:13729  spender != address(0) */\n      0xffffffffffffffffffffffffffffffffffffffff\n      and\n      sub\n        /* \"contracts/FreedomCoinNew.sol\":13700:13768  require(spender != address(0), \"ERC20: approve to the zero address\") */\n      tag_218\n      jumpi\n      mload(0x40)\n      0x08c379a000000000000000000000000000000000000000000000000000000000\n      dup2\n      mstore\n      0x04\n      add\n      tag_219\n      swap1\n      tag_220\n      jump\t// in\n    tag_219:\n      mload(0x40)\n      dup1\n      swap2\n      sub\n      swap1\n      revert\n    tag_218:\n        /* \"contracts/FreedomCoinNew.sol\":13809:13815  amount */\n      dup1\n        /* \"contracts/FreedomCoinNew.sol\":13779:13790  _allowances */\n      0x01\n        /* \"contracts/FreedomCoinNew.sol\":13779:13797  _allowances[owner] */\n      0x00\n        /* \"contracts/FreedomCoinNew.sol\":13791:13796  owner */\n      dup6\n        /* \"contracts/FreedomCoinNew.sol\":13779:13797  _allowances[owner] */\n      0xffffffffffffffffffffffffffffffffffffffff\n      and\n      0xffffffffffffffffffffffffffffffffffffffff\n      and\n      dup2\n      mstore\n      0x20\n      add\n      swap1\n      dup2\n      mstore\n      0x20\n      add\n      0x00\n      keccak256\n        /* \"contracts/FreedomCoinNew.sol\":13779:13806  _allowances[owner][spender] */\n      0x00\n        /* \"contracts/FreedomCoinNew.sol\":13798:13805  spender */\n      dup5\n        /* \"contracts/FreedomCoinNew.sol\":13779:13806  _allowances[owner][spender] */\n      0xffffffffffffffffffffffffffffffffffffffff\n      and\n      0xffffffffffffffffffffffffffffffffffffffff\n      and\n      dup2\n      mstore\n      0x20\n      add\n      swap1\n      dup2\n      mstore\n      0x20\n      add\n      0x00\n      keccak256\n        /* \"contracts/FreedomCoinNew.sol\":13779:13815  _allowances[owner][spender] = amount */\n      dup2\n      swap1\n      sstore\n      pop\n        /* \"contracts/FreedomCoinNew.sol\":13846:13853  spender */\n      dup2\n        /* \"contracts/FreedomCoinNew.sol\":13830:13862  Approval(owner, spender, amount) */\n      0xffffffffffffffffffffffffffffffffffffffff\n      and\n        /* \"contracts/FreedomCoinNew.sol\":13839:13844  owner */\n      dup4\n        /* \"contracts/FreedomCoinNew.sol\":13830:13862  Approval(owner, spender, amount) */\n      0xffffffffffffffffffffffffffffffffffffffff\n      and\n      0x8c5be1e5ebec7d5bd14f71427d1e84f3dd0314c0f7b2291e5b200ac8c7c3b925\n        /* \"contracts/FreedomCoinNew.sol\":13855:13861  amount */\n      dup4\n        /* \"contracts/FreedomCoinNew.sol\":13830:13862  Approval(owner, spender, amount) */\n      mload(0x40)\n      tag_221\n      swap2\n      swap1\n      tag_53\n      jump\t// in\n    tag_221:\n      mload(0x40)\n      dup1\n      swap2\n      sub\n      swap1\n      log3\n        /* \"contracts/FreedomCoinNew.sol\":13499:13869  function _approve(... */\n      pop\n      pop\n      pop\n      jump\t// out\n        /* \"contracts/FreedomCoinNew.sol\":4737:4867  function _checkOwner() internal view virtual {... */\n    tag_151:\n        /* \"contracts/FreedomCoinNew.sol\":4811:4823  _msgSender() */\n      tag_223\n        /* \"contracts/FreedomCoinNew.sol\":4811:4821  _msgSender */\n      tag_146\n        /* \"contracts/FreedomCoinNew.sol\":4811:4823  _msgSender() */\n      jump\t// in\n    tag_223:\n        /* \"contracts/FreedomCoinNew.sol\":4800:4823  owner() == _msgSender() */\n      0xffffffffffffffffffffffffffffffffffffffff\n      and\n        /* \"contracts/FreedomCoinNew.sol\":4800:4807  owner() */\n      tag_224\n        /* \"contracts/FreedomCoinNew.sol\":4800:4805  owner */\n      tag_102\n        /* \"contracts/FreedomCoinNew.sol\":4800:4807  owner() */\n      jump\t// in\n    tag_224:\n        /* \"contracts/FreedomCoinNew.sol\":4800:4823  owner() == _msgSender() */\n      0xffffffffffffffffffffffffffffffffffffffff\n      and\n      eq\n        /* \"contracts/FreedomCoinNew.sol\":4792:4860  require(owner() == _msgSender(), \"Ownable: caller is not the owner\") */\n      tag_225\n      jumpi\n      mload(0x40)\n      0x08c379a000000000000000000000000000000000000000000000000000000000\n      dup2\n      mstore\n      0x04\n      add\n      tag_226\n      swap1\n      tag_227\n      jump\t// in\n    tag_226:\n      mload(0x40)\n      dup1\n      swap2\n      sub\n      swap1\n      revert\n    tag_225:\n        /* \"contracts/FreedomCoinNew.sol\":4737:4867  function _checkOwner() internal view virtual {... */\n      jump\t// out\n        /* \"contracts/FreedomCoinNew.sol\":14150:14637  function _spendAllowance(... */\n    tag_162:\n        /* \"contracts/FreedomCoinNew.sol\":14280:14304  uint256 currentAllowance */\n      0x00\n        /* \"contracts/FreedomCoinNew.sol\":14307:14332  allowance(owner, spender) */\n      tag_229\n        /* \"contracts/FreedomCoinNew.sol\":14317:14322  owner */\n      dup5\n        /* \"contracts/FreedomCoinNew.sol\":14324:14331  spender */\n      dup5\n        /* \"contracts/FreedomCoinNew.sol\":14307:14316  allowance */\n      tag_129\n        /* \"contracts/FreedomCoinNew.sol\":14307:14332  allowance(owner, spender) */\n      jump\t// in\n    tag_229:\n        /* \"contracts/FreedomCoinNew.sol\":14280:14332  uint256 currentAllowance = allowance(owner, spender) */\n      swap1\n      pop\n        /* \"contracts/FreedomCoinNew.sol\":14366:14383  type(uint256).max */\n      0xffffffffffffffffffffffffffffffffffffffffffffffffffffffffffffffff\n        /* \"contracts/FreedomCoinNew.sol\":14346:14362  currentAllowance */\n      dup2\n        /* \"contracts/FreedomCoinNew.sol\":14346:14383  currentAllowance != type(uint256).max */\n      eq\n        /* \"contracts/FreedomCoinNew.sol\":14342:14631  if (currentAllowance != type(uint256).max) {... */\n      tag_230\n      jumpi\n        /* \"contracts/FreedomCoinNew.sol\":14444:14450  amount */\n      dup2\n        /* \"contracts/FreedomCoinNew.sol\":14424:14440  currentAllowance */\n      dup2\n        /* \"contracts/FreedomCoinNew.sol\":14424:14450  currentAllowance >= amount */\n      lt\n      iszero\n        /* \"contracts/FreedomCoinNew.sol\":14399:14513  require(... */\n      tag_231\n      jumpi\n      mload(0x40)\n      0x08c379a000000000000000000000000000000000000000000000000000000000\n      dup2\n      mstore\n      0x04\n      add\n      tag_232\n      swap1\n      tag_233\n      jump\t// in\n    tag_232:\n      mload(0x40)\n      dup1\n      swap2\n      sub\n      swap1\n      revert\n    tag_231:\n        /* \"contracts/FreedomCoinNew.sol\":14555:14606  _approve(owner, spender, currentAllowance - amount) */\n      tag_234\n        /* \"contracts/FreedomCoinNew.sol\":14564:14569  owner */\n      dup5\n        /* \"contracts/FreedomCoinNew.sol\":14571:14578  spender */\n      dup5\n        /* \"contracts/FreedomCoinNew.sol\":14599:14605  amount */\n      dup5\n        /* \"contracts/FreedomCoinNew.sol\":14580:14596  currentAllowance */\n      dup5\n        /* \"contracts/FreedomCoinNew.sol\":14580:14605  currentAllowance - amount */\n      sub\n        /* \"contracts/FreedomCoinNew.sol\":14555:14563  _approve */\n      tag_148\n        /* \"contracts/FreedomCoinNew.sol\":14555:14606  _approve(owner, spender, currentAllowance - amount) */\n      jump\t// in\n    tag_234:\n        /* \"contracts/FreedomCoinNew.sol\":14342:14631  if (currentAllowance != type(uint256).max) {... */\n    tag_230:\n        /* \"contracts/FreedomCoinNew.sol\":14270:14637  {... */\n      pop\n        /* \"contracts/FreedomCoinNew.sol\":14150:14637  function _spendAllowance(... */\n      pop\n      pop\n      pop\n      jump\t// out\n        /* \"contracts/FreedomCoinNew.sol\":16834:17752  function _transfer(... */\n    tag_164:\n        /* \"contracts/FreedomCoinNew.sol\":16953:16970  uint256 taxAmount */\n      0x00\n        /* \"contracts/FreedomCoinNew.sol\":16984:16993  Flag flag */\n      dup1\n        /* \"contracts/FreedomCoinNew.sol\":17026:17034  swapPair */\n      0x11\n      0x00\n      swap1\n      sload\n      swap1\n      0x0100\n      exp\n      swap1\n      div\n      0xffffffffffffffffffffffffffffffffffffffff\n      and\n        /* \"contracts/FreedomCoinNew.sol\":17020:17034  to == swapPair */\n      0xffffffffffffffffffffffffffffffffffffffff\n      and\n        /* \"contracts/FreedomCoinNew.sol\":17020:17022  to */\n      dup5\n        /* \"contracts/FreedomCoinNew.sol\":17020:17034  to == swapPair */\n      0xffffffffffffffffffffffffffffffffffffffff\n      and\n      sub\n        /* \"contracts/FreedomCoinNew.sol\":17016:17265  if (to == swapPair) {... */\n      tag_236\n      jumpi\n        /* \"contracts/FreedomCoinNew.sol\":17093:17096  100 */\n      0x64\n        /* \"contracts/FreedomCoinNew.sol\":17071:17090  _feeBuyAndSellTotal */\n      sload(0x08)\n        /* \"contracts/FreedomCoinNew.sol\":17062:17068  amount */\n      dup5\n        /* \"contracts/FreedomCoinNew.sol\":17062:17090  amount * _feeBuyAndSellTotal */\n      tag_237\n      swap2\n      swap1\n      tag_157\n      jump\t// in\n    tag_237:\n        /* \"contracts/FreedomCoinNew.sol\":17062:17096  amount * _feeBuyAndSellTotal / 100 */\n      tag_238\n      swap2\n      swap1\n      tag_239\n      jump\t// in\n    tag_238:\n        /* \"contracts/FreedomCoinNew.sol\":17050:17096  taxAmount = amount * _feeBuyAndSellTotal / 100 */\n      swap2\n      pop\n        /* \"contracts/FreedomCoinNew.sol\":17117:17126  Flag.Sell */\n      0x01\n        /* \"contracts/FreedomCoinNew.sol\":17110:17126  flag = Flag.Sell */\n      swap1\n      pop\n        /* \"contracts/FreedomCoinNew.sol\":17016:17265  if (to == swapPair) {... */\n      jump(tag_240)\n    tag_236:\n        /* \"contracts/FreedomCoinNew.sol\":17155:17163  swapPair */\n      0x11\n      0x00\n      swap1\n      sload\n      swap1\n      0x0100\n      exp\n      swap1\n      div\n      0xffffffffffffffffffffffffffffffffffffffff\n      and\n        /* \"contracts/FreedomCoinNew.sol\":17147:17163  from == swapPair */\n      0xffffffffffffffffffffffffffffffffffffffff\n      and\n        /* \"contracts/FreedomCoinNew.sol\":17147:17151  from */\n      dup6\n        /* \"contracts/FreedomCoinNew.sol\":17147:17163  from == swapPair */\n      0xffffffffffffffffffffffffffffffffffffffff\n      and\n      sub\n        /* \"contracts/FreedomCoinNew.sol\":17143:17265  if (from == swapPair) {... */\n      tag_241\n      jumpi\n        /* \"contracts/FreedomCoinNew.sol\":17222:17225  100 */\n      0x64\n        /* \"contracts/FreedomCoinNew.sol\":17200:17219  _feeBuyAndSellTotal */\n      sload(0x08)\n        /* \"contracts/FreedomCoinNew.sol\":17191:17197  amount */\n      dup5\n        /* \"contracts/FreedomCoinNew.sol\":17191:17219  amount * _feeBuyAndSellTotal */\n      tag_242\n      swap2\n      swap1\n      tag_157\n      jump\t// in\n    tag_242:\n        /* \"contracts/FreedomCoinNew.sol\":17191:17225  amount * _feeBuyAndSellTotal / 100 */\n      tag_243\n      swap2\n      swap1\n      tag_239\n      jump\t// in\n    tag_243:\n        /* \"contracts/FreedomCoinNew.sol\":17179:17225  taxAmount = amount * _feeBuyAndSellTotal / 100 */\n      swap2\n      pop\n        /* \"contracts/FreedomCoinNew.sol\":17246:17254  Flag.Buy */\n      0x02\n        /* \"contracts/FreedomCoinNew.sol\":17239:17254  flag = Flag.Buy */\n      swap1\n      pop\n        /* \"contracts/FreedomCoinNew.sol\":17143:17265  if (from == swapPair) {... */\n    tag_241:\n        /* \"contracts/FreedomCoinNew.sol\":17016:17265  if (to == swapPair) {... */\n    tag_240:\n        /* \"contracts/FreedomCoinNew.sol\":17275:17320  super._transfer(from, to, amount - taxAmount) */\n      tag_244\n        /* \"contracts/FreedomCoinNew.sol\":17291:17295  from */\n      dup6\n        /* \"contracts/FreedomCoinNew.sol\":17297:17299  to */\n      dup6\n        /* \"contracts/FreedomCoinNew.sol\":17310:17319  taxAmount */\n      dup5\n        /* \"contracts/FreedomCoinNew.sol\":17301:17307  amount */\n      dup7\n        /* \"contracts/FreedomCoinNew.sol\":17301:17319  amount - taxAmount */\n      tag_245\n      swap2\n      swap1\n      tag_246\n      jump\t// in\n    tag_245:\n        /* \"contracts/FreedomCoinNew.sol\":17275:17290  super._transfer */\n      tag_247\n        /* \"contracts/FreedomCoinNew.sol\":17275:17320  super._transfer(from, to, amount - taxAmount) */\n      jump\t// in\n    tag_244:\n        /* \"contracts/FreedomCoinNew.sol\":17355:17356  0 */\n      0x00\n        /* \"contracts/FreedomCoinNew.sol\":17343:17352  taxAmount */\n      dup3\n        /* \"contracts/FreedomCoinNew.sol\":17343:17356  taxAmount > 0 */\n      gt\n        /* \"contracts/FreedomCoinNew.sol\":17339:17668  if (taxAmount > 0) {... */\n      iszero\n      tag_248\n      jumpi\n        /* \"contracts/FreedomCoinNew.sol\":17414:17433  _feeBuyAndSellTotal */\n      sload(0x08)\n        /* \"contracts/FreedomCoinNew.sol\":17395:17411  _feeBuyAndSellLP */\n      sload(0x0b)\n        /* \"contracts/FreedomCoinNew.sol\":17383:17392  taxAmount */\n      dup4\n        /* \"contracts/FreedomCoinNew.sol\":17383:17411  taxAmount * _feeBuyAndSellLP */\n      tag_249\n      swap2\n      swap1\n      tag_157\n      jump\t// in\n    tag_249:\n        /* \"contracts/FreedomCoinNew.sol\":17383:17433  taxAmount * _feeBuyAndSellLP / _feeBuyAndSellTotal */\n      tag_250\n      swap2\n      swap1\n      tag_239\n      jump\t// in\n    tag_250:\n        /* \"contracts/FreedomCoinNew.sol\":17372:17379  _tempLP */\n      0x0f\n      0x00\n        /* \"contracts/FreedomCoinNew.sol\":17372:17433  _tempLP += taxAmount * _feeBuyAndSellLP / _feeBuyAndSellTotal */\n      dup3\n      dup3\n      sload\n      tag_251\n      swap2\n      swap1\n      tag_171\n      jump\t// in\n    tag_251:\n      swap3\n      pop\n      pop\n      dup2\n      swap1\n      sstore\n      pop\n        /* \"contracts/FreedomCoinNew.sol\":17489:17508  _feeBuyAndSellTotal */\n      sload(0x08)\n        /* \"contracts/FreedomCoinNew.sol\":17470:17486  _feeBuyAndSellMK */\n      sload(0x0a)\n        /* \"contracts/FreedomCoinNew.sol\":17458:17467  taxAmount */\n      dup4\n        /* \"contracts/FreedomCoinNew.sol\":17458:17486  taxAmount * _feeBuyAndSellMK */\n      tag_252\n      swap2\n      swap1\n      tag_157\n      jump\t// in\n    tag_252:\n        /* \"contracts/FreedomCoinNew.sol\":17458:17508  taxAmount * _feeBuyAndSellMK / _feeBuyAndSellTotal */\n      tag_253\n      swap2\n      swap1\n      tag_239\n      jump\t// in\n    tag_253:\n        /* \"contracts/FreedomCoinNew.sol\":17447:17454  _tempMK */\n      0x0e\n      0x00\n        /* \"contracts/FreedomCoinNew.sol\":17447:17508  _tempMK += taxAmount * _feeBuyAndSellMK / _feeBuyAndSellTotal */\n      dup3\n      dup3\n      sload\n      tag_254\n      swap2\n      swap1\n      tag_171\n      jump\t// in\n    tag_254:\n      swap3\n      pop\n      pop\n      dup2\n      swap1\n      sstore\n      pop\n        /* \"contracts/FreedomCoinNew.sol\":17574:17593  _feeBuyAndSellTotal */\n      sload(0x08)\n        /* \"contracts/FreedomCoinNew.sol\":17550:17571  _feeBuyAndSellCharity */\n      sload(0x09)\n        /* \"contracts/FreedomCoinNew.sol\":17538:17547  taxAmount */\n      dup4\n        /* \"contracts/FreedomCoinNew.sol\":17538:17571  taxAmount * _feeBuyAndSellCharity */\n      tag_255\n      swap2\n      swap1\n      tag_157\n      jump\t// in\n    tag_255:\n        /* \"contracts/FreedomCoinNew.sol\":17538:17593  taxAmount * _feeBuyAndSellCharity / _feeBuyAndSellTotal */\n      tag_256\n      swap2\n      swap1\n      tag_239\n      jump\t// in\n    tag_256:\n        /* \"contracts/FreedomCoinNew.sol\":17522:17534  _tempCharity */\n      0x0d\n      0x00\n        /* \"contracts/FreedomCoinNew.sol\":17522:17593  _tempCharity += taxAmount * _feeBuyAndSellCharity / _feeBuyAndSellTotal */\n      dup3\n      dup3\n      sload\n      tag_257\n      swap2\n      swap1\n      tag_171\n      jump\t// in\n    tag_257:\n      swap3\n      pop\n      pop\n      dup2\n      swap1\n      sstore\n      pop\n        /* \"contracts/FreedomCoinNew.sol\":17339:17668  if (taxAmount > 0) {... */\n    tag_248:\n        /* \"contracts/FreedomCoinNew.sol\":17693:17694  0 */\n      0x00\n        /* \"contracts/FreedomCoinNew.sol\":17681:17690  taxAmount */\n      dup3\n        /* \"contracts/FreedomCoinNew.sol\":17681:17694  taxAmount > 0 */\n      gt\n        /* \"contracts/FreedomCoinNew.sol\":17678:17746  if(taxAmount > 0)... */\n      iszero\n      tag_258\n      jumpi\n        /* \"contracts/FreedomCoinNew.sol\":17718:17735  _swapAndLiquify() */\n      tag_259\n        /* \"contracts/FreedomCoinNew.sol\":17718:17733  _swapAndLiquify */\n      tag_260\n        /* \"contracts/FreedomCoinNew.sol\":17718:17735  _swapAndLiquify() */\n      jump\t// in\n    tag_259:\n        /* \"contracts/FreedomCoinNew.sol\":17678:17746  if(taxAmount > 0)... */\n    tag_258:\n        /* \"contracts/FreedomCoinNew.sol\":16943:17752  {... */\n      pop\n      pop\n        /* \"contracts/FreedomCoinNew.sol\":16834:17752  function _transfer(... */\n      pop\n      pop\n      pop\n      jump\t// out\n        /* \"contracts/FreedomCoinNew.sol\":5845:6032  function _transferOwnership(address newOwner) internal virtual {... */\n    tag_183:\n        /* \"contracts/FreedomCoinNew.sol\":5918:5934  address oldOwner */\n      0x00\n        /* \"contracts/FreedomCoinNew.sol\":5937:5943  _owner */\n      0x05\n      0x00\n      swap1\n      sload\n      swap1\n      0x0100\n      exp\n      swap1\n      div\n      0xffffffffffffffffffffffffffffffffffffffff\n      and\n        /* \"contracts/FreedomCoinNew.sol\":5918:5943  address oldOwner = _owner */\n      swap1\n      pop\n        /* \"contracts/FreedomCoinNew.sol\":5962:5970  newOwner */\n      dup2\n        /* \"contracts/FreedomCoinNew.sol\":5953:5959  _owner */\n      0x05\n      0x00\n        /* \"contracts/FreedomCoinNew.sol\":5953:5970  _owner = newOwner */\n      0x0100\n      exp\n      dup2\n      sload\n      dup2\n      0xffffffffffffffffffffffffffffffffffffffff\n      mul\n      not\n      and\n      swap1\n      dup4\n      0xffffffffffffffffffffffffffffffffffffffff\n      and\n      mul\n      or\n      swap1\n      sstore\n      pop\n        /* \"contracts/FreedomCoinNew.sol\":6016:6024  newOwner */\n      dup2\n        /* \"contracts/FreedomCoinNew.sol\":5985:6025  OwnershipTransferred(oldOwner, newOwner) */\n      0xffffffffffffffffffffffffffffffffffffffff\n      and\n        /* \"contracts/FreedomCoinNew.sol\":6006:6014  oldOwner */\n      dup2\n        /* \"contracts/FreedomCoinNew.sol\":5985:6025  OwnershipTransferred(oldOwner, newOwner) */\n      0xffffffffffffffffffffffffffffffffffffffff\n      and\n      0x8be0079c531659141344cd1fd0a4f28419497f9722a3daafe3b4186f6b6457e0\n      mload(0x40)\n      mload(0x40)\n      dup1\n      swap2\n      sub\n      swap1\n      log3\n        /* \"contracts/FreedomCoinNew.sol\":5908:6032  {... */\n      pop\n        /* \"contracts/FreedomCoinNew.sol\":5845:6032  function _transferOwnership(address newOwner) internal virtual {... */\n      pop\n      jump\t// out\n        /* \"contracts/FreedomCoinNew.sol\":14643:15398  function _transfer(... */\n    tag_247:\n        /* \"contracts/FreedomCoinNew.sol\":14785:14786  0 */\n      0x00\n        /* \"contracts/FreedomCoinNew.sol\":14769:14787  from != address(0) */\n      0xffffffffffffffffffffffffffffffffffffffff\n      and\n        /* \"contracts/FreedomCoinNew.sol\":14769:14773  from */\n      dup4\n        /* \"contracts/FreedomCoinNew.sol\":14769:14787  from != address(0) */\n      0xffffffffffffffffffffffffffffffffffffffff\n      and\n      sub\n        /* \"contracts/FreedomCoinNew.sol\":14761:14829  require(from != address(0), \"ERC20: transfer from the zero address\") */\n      tag_263\n      jumpi\n      mload(0x40)\n      0x08c379a000000000000000000000000000000000000000000000000000000000\n      dup2\n      mstore\n      0x04\n      add\n      tag_264\n      swap1\n      tag_265\n      jump\t// in\n    tag_264:\n      mload(0x40)\n      dup1\n      swap2\n      sub\n      swap1\n      revert\n    tag_263:\n        /* \"contracts/FreedomCoinNew.sol\":14861:14862  0 */\n      0x00\n        /* \"contracts/FreedomCoinNew.sol\":14847:14863  to != address(0) */\n      0xffffffffffffffffffffffffffffffffffffffff\n      and\n        /* \"contracts/FreedomCoinNew.sol\":14847:14849  to */\n      dup3\n        /* \"contracts/FreedomCoinNew.sol\":14847:14863  to != address(0) */\n      0xffffffffffffffffffffffffffffffffffffffff\n      and\n      sub\n        /* \"contracts/FreedomCoinNew.sol\":14839:14903  require(to != address(0), \"ERC20: transfer to the zero address\") */\n      tag_266\n      jumpi\n      mload(0x40)\n      0x08c379a000000000000000000000000000000000000000000000000000000000\n      dup2\n      mstore\n      0x04\n      add\n      tag_267\n      swap1\n      tag_268\n      jump\t// in\n    tag_267:\n      mload(0x40)\n      dup1\n      swap2\n      sub\n      swap1\n      revert\n    tag_266:\n        /* \"contracts/FreedomCoinNew.sol\":14914:14933  uint256 fromBalance */\n      0x00\n        /* \"contracts/FreedomCoinNew.sol\":14936:14945  _balances */\n      dup1\n        /* \"contracts/FreedomCoinNew.sol\":14936:14951  _balances[from] */\n      0x00\n        /* \"contracts/FreedomCoinNew.sol\":14946:14950  from */\n      dup6\n        /* \"contracts/FreedomCoinNew.sol\":14936:14951  _balances[from] */\n      0xffffffffffffffffffffffffffffffffffffffff\n      and\n      0xffffffffffffffffffffffffffffffffffffffff\n      and\n      dup2\n      mstore\n      0x20\n      add\n      swap1\n      dup2\n      mstore\n      0x20\n      add\n      0x00\n      keccak256\n      sload\n        /* \"contracts/FreedomCoinNew.sol\":14914:14951  uint256 fromBalance = _balances[from] */\n      swap1\n      pop\n        /* \"contracts/FreedomCoinNew.sol\":14997:15003  amount */\n      dup2\n        /* \"contracts/FreedomCoinNew.sol\":14982:14993  fromBalance */\n      dup2\n        /* \"contracts/FreedomCoinNew.sol\":14982:15003  fromBalance >= amount */\n      lt\n      iszero\n        /* \"contracts/FreedomCoinNew.sol\":14961:15067  require(... */\n      tag_269\n      jumpi\n      mload(0x40)\n      0x08c379a000000000000000000000000000000000000000000000000000000000\n      dup2\n      mstore\n      0x04\n      add\n      tag_270\n      swap1\n      tag_271\n      jump\t// in\n    tag_270:\n      mload(0x40)\n      dup1\n      swap2\n      sub\n      swap1\n      revert\n    tag_269:\n        /* \"contracts/FreedomCoinNew.sol\":15133:15139  amount */\n      dup2\n        /* \"contracts/FreedomCoinNew.sol\":15119:15130  fromBalance */\n      dup2\n        /* \"contracts/FreedomCoinNew.sol\":15119:15139  fromBalance - amount */\n      sub\n        /* \"contracts/FreedomCoinNew.sol\":15101:15110  _balances */\n      0x00\n        /* \"contracts/FreedomCoinNew.sol\":15101:15116  _balances[from] */\n      dup1\n        /* \"contracts/FreedomCoinNew.sol\":15111:15115  from */\n      dup7\n        /* \"contracts/FreedomCoinNew.sol\":15101:15116  _balances[from] */\n      0xffffffffffffffffffffffffffffffffffffffff\n      and\n      0xffffffffffffffffffffffffffffffffffffffff\n      and\n      dup2\n      mstore\n      0x20\n      add\n      swap1\n      dup2\n      mstore\n      0x20\n      add\n      0x00\n      keccak256\n        /* \"contracts/FreedomCoinNew.sol\":15101:15139  _balances[from] = fromBalance - amount */\n      dup2\n      swap1\n      sstore\n      pop\n        /* \"contracts/FreedomCoinNew.sol\":15333:15339  amount */\n      dup2\n        /* \"contracts/FreedomCoinNew.sol\":15316:15325  _balances */\n      0x00\n        /* \"contracts/FreedomCoinNew.sol\":15316:15329  _balances[to] */\n      dup1\n        /* \"contracts/FreedomCoinNew.sol\":15326:15328  to */\n      dup6\n        /* \"contracts/FreedomCoinNew.sol\":15316:15329  _balances[to] */\n      0xffffffffffffffffffffffffffffffffffffffff\n      and\n      0xffffffffffffffffffffffffffffffffffffffff\n      and\n      dup2\n      mstore\n      0x20\n      add\n      swap1\n      dup2\n      mstore\n      0x20\n      add\n      0x00\n      keccak256\n      0x00\n        /* \"contracts/FreedomCoinNew.sol\":15316:15339  _balances[to] += amount */\n      dup3\n      dup3\n      sload\n      add\n      swap3\n      pop\n      pop\n      dup2\n      swap1\n      sstore\n      pop\n        /* \"contracts/FreedomCoinNew.sol\":15380:15382  to */\n      dup3\n        /* \"contracts/FreedomCoinNew.sol\":15365:15391  Transfer(from, to, amount) */\n      0xffffffffffffffffffffffffffffffffffffffff\n      and\n        /* \"contracts/FreedomCoinNew.sol\":15374:15378  from */\n      dup5\n        /* \"contracts/FreedomCoinNew.sol\":15365:15391  Transfer(from, to, amount) */\n      0xffffffffffffffffffffffffffffffffffffffff\n      and\n      0xddf252ad1be2c89b69c2b068fc378daa952ba7f163c4a11628f55a4df523b3ef\n        /* \"contracts/FreedomCoinNew.sol\":15384:15390  amount */\n      dup5\n        /* \"contracts/FreedomCoinNew.sol\":15365:15391  Transfer(from, to, amount) */\n      mload(0x40)\n      tag_272\n      swap2\n      swap1\n      tag_53\n      jump\t// in\n    tag_272:\n      mload(0x40)\n      dup1\n      swap2\n      sub\n      swap1\n      log3\n        /* \"contracts/FreedomCoinNew.sol\":14751:15398  {... */\n      pop\n        /* \"contracts/FreedomCoinNew.sol\":14643:15398  function _transfer(... */\n      pop\n      pop\n      pop\n      jump\t// out\n        /* \"contracts/FreedomCoinNew.sol\":17784:18223  function _swapAndLiquify() private {... */\n    tag_260:\n        /* \"contracts/FreedomCoinNew.sol\":17838:17869  _swapTokensForEth(_tempCharity) */\n      tag_274\n        /* \"contracts/FreedomCoinNew.sol\":17856:17868  _tempCharity */\n      sload(0x0d)\n        /* \"contracts/FreedomCoinNew.sol\":17838:17855  _swapTokensForEth */\n      tag_275\n        /* \"contracts/FreedomCoinNew.sol\":17838:17869  _swapTokensForEth(_tempCharity) */\n      jump\t// in\n    tag_274:\n        /* \"contracts/FreedomCoinNew.sol\":17929:17955  _swapTokensForEth(_tempMK) */\n      tag_276\n        /* \"contracts/FreedomCoinNew.sol\":17947:17954  _tempMK */\n      sload(0x0e)\n        /* \"contracts/FreedomCoinNew.sol\":17929:17946  _swapTokensForEth */\n      tag_275\n        /* \"contracts/FreedomCoinNew.sol\":17929:17955  _swapTokensForEth(_tempMK) */\n      jump\t// in\n    tag_276:\n        /* \"contracts/FreedomCoinNew.sol\":18016:18031  uint256 balance */\n      0x00\n        /* \"contracts/FreedomCoinNew.sol\":18034:18055  address(this).balance */\n      selfbalance\n        /* \"contracts/FreedomCoinNew.sol\":18016:18055  uint256 balance = address(this).balance */\n      swap1\n      pop\n        /* \"contracts/FreedomCoinNew.sol\":18074:18139  _addLiquidity(... */\n      tag_277\n        /* \"contracts/FreedomCoinNew.sol\":18101:18108  _tempLP */\n      sload(0x0f)\n        /* \"contracts/FreedomCoinNew.sol\":18122:18129  balance */\n      dup3\n        /* \"contracts/FreedomCoinNew.sol\":18074:18087  _addLiquidity */\n      tag_278\n        /* \"contracts/FreedomCoinNew.sol\":18074:18139  _addLiquidity(... */\n      jump\t// in\n    tag_277:\n        /* \"contracts/FreedomCoinNew.sol\":18168:18169  0 */\n      0x00\n        /* \"contracts/FreedomCoinNew.sol\":18158:18165  _tempLP */\n      0x0f\n        /* \"contracts/FreedomCoinNew.sol\":18158:18169  _tempLP = 0 */\n      dup2\n      swap1\n      sstore\n      pop\n        /* \"contracts/FreedomCoinNew.sol\":18189:18190  0 */\n      0x00\n        /* \"contracts/FreedomCoinNew.sol\":18179:18186  _tempMK */\n      0x0e\n        /* \"contracts/FreedomCoinNew.sol\":18179:18190  _tempMK = 0 */\n      dup2\n      swap1\n      sstore\n      pop\n        /* \"contracts/FreedomCoinNew.sol\":18215:18216  0 */\n      0x00\n        /* \"contracts/FreedomCoinNew.sol\":18200:18212  _tempCharity */\n      0x0d\n        /* \"contracts/FreedomCoinNew.sol\":18200:18216  _tempCharity = 0 */\n      dup2\n      swap1\n      sstore\n      pop\n        /* \"contracts/FreedomCoinNew.sol\":17819:18223  {... */\n      pop\n        /* \"contracts/FreedomCoinNew.sol\":17784:18223  function _swapAndLiquify() private {... */\n      jump\t// out\n        /* \"contracts/FreedomCoinNew.sol\":18229:18610  function _swapTokensForEth(uint256 tokenAmount) private  {... */\n    tag_275:\n        /* \"contracts/FreedomCoinNew.sol\":18296:18317  address[] memory path */\n      0x00\n        /* \"contracts/FreedomCoinNew.sol\":18334:18335  2 */\n      0x02\n        /* \"contracts/FreedomCoinNew.sol\":18320:18336  new address[](2) */\n      0xffffffffffffffff\n      dup2\n      gt\n      iszero\n      tag_280\n      jumpi\n      tag_281\n      tag_282\n      jump\t// in\n    tag_281:\n    tag_280:\n      mload(0x40)\n      swap1\n      dup1\n      dup3\n      mstore\n      dup1\n      0x20\n      mul\n      0x20\n      add\n      dup3\n      add\n      0x40\n      mstore\n      dup1\n      iszero\n      tag_283\n      jumpi\n      dup2\n      0x20\n      add\n      0x20\n      dup3\n      mul\n      dup1\n      calldatasize\n      dup4\n      calldatacopy\n      dup1\n      dup3\n      add\n      swap2\n      pop\n      pop\n      swap1\n      pop\n    tag_283:\n      pop\n        /* \"contracts/FreedomCoinNew.sol\":18296:18336  address[] memory path = new address[](2) */\n      swap1\n      pop\n        /* \"contracts/FreedomCoinNew.sol\":18364:18368  this */\n      address\n        /* \"contracts/FreedomCoinNew.sol\":18346:18350  path */\n      dup2\n        /* \"contracts/FreedomCoinNew.sol\":18351:18352  0 */\n      0x00\n        /* \"contracts/FreedomCoinNew.sol\":18346:18353  path[0] */\n      dup2\n      mload\n      dup2\n      lt\n      tag_284\n      jumpi\n      tag_285\n      tag_286\n      jump\t// in\n    tag_285:\n    tag_284:\n      0x20\n      mul\n      0x20\n      add\n      add\n        /* \"contracts/FreedomCoinNew.sol\":18346:18369  path[0] = address(this) */\n      swap1\n      0xffffffffffffffffffffffffffffffffffffffff\n      and\n      swap1\n      dup2\n      0xffffffffffffffffffffffffffffffffffffffff\n      and\n      dup2\n      mstore\n      pop\n      pop\n        /* \"contracts/FreedomCoinNew.sol\":18389:18399  swapRouter */\n      0x10\n      0x00\n      swap1\n      sload\n      swap1\n      0x0100\n      exp\n      swap1\n      div\n      0xffffffffffffffffffffffffffffffffffffffff\n      and\n        /* \"contracts/FreedomCoinNew.sol\":18389:18404  swapRouter.WETH */\n      0xffffffffffffffffffffffffffffffffffffffff\n      and\n      0xad5c4648\n        /* \"contracts/FreedomCoinNew.sol\":18389:18406  swapRouter.WETH() */\n      mload(0x40)\n      dup2\n      0xffffffff\n      and\n      0xe0\n      shl\n      dup2\n      mstore\n      0x04\n      add\n      0x20\n      mload(0x40)\n      dup1\n      dup4\n      sub\n      dup2\n      dup7\n      gas\n      staticcall\n      iszero\n      dup1\n      iszero\n      tag_288\n      jumpi\n      returndatasize\n      0x00\n      dup1\n      returndatacopy\n      revert(0x00, returndatasize)\n    tag_288:\n      pop\n      pop\n      pop\n      pop\n      mload(0x40)\n      returndatasize\n      not(0x1f)\n      0x1f\n      dup3\n      add\n      and\n      dup3\n      add\n      dup1\n      0x40\n      mstore\n      pop\n      dup2\n      add\n      swap1\n      tag_289\n      swap2\n      swap1\n      tag_290\n      jump\t// in\n    tag_289:\n        /* \"contracts/FreedomCoinNew.sol\":18379:18383  path */\n      dup2\n        /* \"contracts/FreedomCoinNew.sol\":18384:18385  1 */\n      0x01\n        /* \"contracts/FreedomCoinNew.sol\":18379:18386  path[1] */\n      dup2\n      mload\n      dup2\n      lt\n      tag_291\n      jumpi\n      tag_292\n      tag_286\n      jump\t// in\n    tag_292:\n    tag_291:\n      0x20\n      mul\n      0x20\n      add\n      add\n        /* \"contracts/FreedomCoinNew.sol\":18379:18406  path[1] = swapRouter.WETH() */\n      swap1\n      0xffffffffffffffffffffffffffffffffffffffff\n      and\n      swap1\n      dup2\n      0xffffffffffffffffffffffffffffffffffffffff\n      and\n      dup2\n      mstore\n      pop\n      pop\n        /* \"contracts/FreedomCoinNew.sol\":18416:18426  swapRouter */\n      0x10\n      0x00\n      swap1\n      sload\n      swap1\n      0x0100\n      exp\n      swap1\n      div\n      0xffffffffffffffffffffffffffffffffffffffff\n      and\n        /* \"contracts/FreedomCoinNew.sol\":18416:18477  swapRouter.swapExactTokensForETHSupportingFeeOnTransferTokens */\n      0xffffffffffffffffffffffffffffffffffffffff\n      and\n      0x791ac947\n        /* \"contracts/FreedomCoinNew.sol\":18491:18502  tokenAmount */\n      dup4\n        /* \"contracts/FreedomCoinNew.sol\":18516:18517  0 */\n      0x00\n        /* \"contracts/FreedomCoinNew.sol\":18531:18535  path */\n      dup5\n        /* \"contracts/FreedomCoinNew.sol\":18557:18561  this */\n      address\n        /* \"contracts/FreedomCoinNew.sol\":18577:18592  block.timestamp */\n      timestamp\n        /* \"contracts/FreedomCoinNew.sol\":18416:18603  swapRouter.swapExactTokensForETHSupportingFeeOnTransferTokens(... */\n      mload(0x40)\n      dup7\n      0xffffffff\n      and\n      0xe0\n      shl\n      dup2\n      mstore\n      0x04\n      add\n      tag_293\n      swap6\n      swap5\n      swap4\n      swap3\n      swap2\n      swap1\n      tag_294\n      jump\t// in\n    tag_293:\n      0x00\n      mload(0x40)\n      dup1\n      dup4\n      sub\n      dup2\n      0x00\n      dup8\n      dup1\n      extcodesize\n      iszero\n      dup1\n      iszero\n      tag_295\n      jumpi\n      0x00\n      dup1\n      revert\n    tag_295:\n      pop\n      gas\n      call\n      iszero\n      dup1\n      iszero\n      tag_297\n      jumpi\n      returndatasize\n      0x00\n      dup1\n      returndatacopy\n      revert(0x00, returndatasize)\n    tag_297:\n      pop\n      pop\n      pop\n      pop\n        /* \"contracts/FreedomCoinNew.sol\":18286:18610  {... */\n      pop\n        /* \"contracts/FreedomCoinNew.sol\":18229:18610  function _swapTokensForEth(uint256 tokenAmount) private  {... */\n      pop\n      jump\t// out\n        /* \"contracts/FreedomCoinNew.sol\":18616:18912  function _addLiquidity(... */\n    tag_278:\n        /* \"contracts/FreedomCoinNew.sol\":18719:18729  swapRouter */\n      0x10\n      0x00\n      swap1\n      sload\n      swap1\n      0x0100\n      exp\n      swap1\n      div\n      0xffffffffffffffffffffffffffffffffffffffff\n      and\n        /* \"contracts/FreedomCoinNew.sol\":18719:18745  swapRouter.addLiquidityETH */\n      0xffffffffffffffffffffffffffffffffffffffff\n      and\n      0xf305d719\n        /* \"contracts/FreedomCoinNew.sol\":18753:18762  ethAmount */\n      dup3\n        /* \"contracts/FreedomCoinNew.sol\":18785:18789  this */\n      address\n        /* \"contracts/FreedomCoinNew.sol\":18804:18815  tokenAmount */\n      dup6\n        /* \"contracts/FreedomCoinNew.sol\":18829:18830  0 */\n      0x00\n        /* \"contracts/FreedomCoinNew.sol\":18844:18845  0 */\n      dup1\n        /* \"contracts/FreedomCoinNew.sol\":18859:18866  owner() */\n      tag_299\n        /* \"contracts/FreedomCoinNew.sol\":18859:18864  owner */\n      tag_102\n        /* \"contracts/FreedomCoinNew.sol\":18859:18866  owner() */\n      jump\t// in\n    tag_299:\n        /* \"contracts/FreedomCoinNew.sol\":18880:18895  block.timestamp */\n      timestamp\n        /* \"contracts/FreedomCoinNew.sol\":18719:18905  swapRouter.addLiquidityETH{value: ethAmount}(... */\n      mload(0x40)\n      dup9\n      0xffffffff\n      and\n      0xe0\n      shl\n      dup2\n      mstore\n      0x04\n      add\n      tag_300\n      swap7\n      swap6\n      swap5\n      swap4\n      swap3\n      swap2\n      swap1\n      tag_301\n      jump\t// in\n    tag_300:\n      0x60\n      mload(0x40)\n      dup1\n      dup4\n      sub\n      dup2\n      dup6\n      dup9\n      gas\n      call\n      iszero\n      dup1\n      iszero\n      tag_303\n      jumpi\n      returndatasize\n      0x00\n      dup1\n      returndatacopy\n      revert(0x00, returndatasize)\n    tag_303:\n      pop\n      pop\n      pop\n      pop\n      pop\n      mload(0x40)\n      returndatasize\n      not(0x1f)\n      0x1f\n      dup3\n      add\n      and\n      dup3\n      add\n      dup1\n      0x40\n      mstore\n      pop\n      dup2\n      add\n      swap1\n      tag_304\n      swap2\n      swap1\n      tag_305\n      jump\t// in\n    tag_304:\n      pop\n      pop\n      pop\n        /* \"contracts/FreedomCoinNew.sol\":18616:18912  function _addLiquidity(... */\n      pop\n      pop\n      jump\t// out\n        /* \"#utility.yul\":7:106   */\n    tag_306:\n        /* \"#utility.yul\":59:65   */\n      0x00\n        /* \"#utility.yul\":93:98   */\n      dup2\n        /* \"#utility.yul\":87:99   */\n      mload\n        /* \"#utility.yul\":77:99   */\n      swap1\n      pop\n        /* \"#utility.yul\":7:106   */\n      swap2\n      swap1\n      pop\n      jump\t// out\n        /* \"#utility.yul\":112:281   */\n    tag_307:\n        /* \"#utility.yul\":196:207   */\n      0x00\n        /* \"#utility.yul\":230:236   */\n      dup3\n        /* \"#utility.yul\":225:228   */\n      dup3\n        /* \"#utility.yul\":218:237   */\n      mstore\n        /* \"#utility.yul\":270:274   */\n      0x20\n        /* \"#utility.yul\":265:268   */\n      dup3\n        /* \"#utility.yul\":261:275   */\n      add\n        /* \"#utility.yul\":246:275   */\n      swap1\n      pop\n        /* \"#utility.yul\":112:281   */\n      swap3\n      swap2\n      pop\n      pop\n      jump\t// out\n        /* \"#utility.yul\":287:533   */\n    tag_308:\n        /* \"#utility.yul\":368:369   */\n      0x00\n        /* \"#utility.yul\":378:491   */\n    tag_376:\n        /* \"#utility.yul\":392:398   */\n      dup4\n        /* \"#utility.yul\":389:390   */\n      dup2\n        /* \"#utility.yul\":386:399   */\n      lt\n        /* \"#utility.yul\":378:491   */\n      iszero\n      tag_378\n      jumpi\n        /* \"#utility.yul\":477:478   */\n      dup1\n        /* \"#utility.yul\":472:475   */\n      dup3\n        /* \"#utility.yul\":468:479   */\n      add\n        /* \"#utility.yul\":462:480   */\n      mload\n        /* \"#utility.yul\":458:459   */\n      dup2\n        /* \"#utility.yul\":453:456   */\n      dup5\n        /* \"#utility.yul\":449:460   */\n      add\n        /* \"#utility.yul\":442:481   */\n      mstore\n        /* \"#utility.yul\":414:416   */\n      0x20\n        /* \"#utility.yul\":411:412   */\n      dup2\n        /* \"#utility.yul\":407:417   */\n      add\n        /* \"#utility.yul\":402:417   */\n      swap1\n      pop\n        /* \"#utility.yul\":378:491   */\n      jump(tag_376)\n    tag_378:\n        /* \"#utility.yul\":525:526   */\n      0x00\n        /* \"#utility.yul\":516:522   */\n      dup5\n        /* \"#utility.yul\":511:514   */\n      dup5\n        /* \"#utility.yul\":507:523   */\n      add\n        /* \"#utility.yul\":500:527   */\n      mstore\n        /* \"#utility.yul\":349:533   */\n      pop\n        /* \"#utility.yul\":287:533   */\n      pop\n      pop\n      pop\n      jump\t// out\n        /* \"#utility.yul\":539:641   */\n    tag_309:\n        /* \"#utility.yul\":580:586   */\n      0x00\n        /* \"#utility.yul\":631:633   */\n      0x1f\n        /* \"#utility.yul\":627:634   */\n      not\n        /* \"#utility.yul\":622:624   */\n      0x1f\n        /* \"#utility.yul\":615:620   */\n      dup4\n        /* \"#utility.yul\":611:625   */\n      add\n        /* \"#utility.yul\":607:635   */\n      and\n        /* \"#utility.yul\":597:635   */\n      swap1\n      pop\n        /* \"#utility.yul\":539:641   */\n      swap2\n      swap1\n      pop\n      jump\t// out\n        /* \"#utility.yul\":647:1024   */\n    tag_310:\n        /* \"#utility.yul\":735:738   */\n      0x00\n        /* \"#utility.yul\":763:802   */\n      tag_381\n        /* \"#utility.yul\":796:801   */\n      dup3\n        /* \"#utility.yul\":763:802   */\n      tag_306\n      jump\t// in\n    tag_381:\n        /* \"#utility.yul\":818:889   */\n      tag_382\n        /* \"#utility.yul\":882:888   */\n      dup2\n        /* \"#utility.yul\":877:880   */\n      dup6\n        /* \"#utility.yul\":818:889   */\n      tag_307\n      jump\t// in\n    tag_382:\n        /* \"#utility.yul\":811:889   */\n      swap4\n      pop\n        /* \"#utility.yul\":898:963   */\n      tag_383\n        /* \"#utility.yul\":956:962   */\n      dup2\n        /* \"#utility.yul\":951:954   */\n      dup6\n        /* \"#utility.yul\":944:948   */\n      0x20\n        /* \"#utility.yul\":937:942   */\n      dup7\n        /* \"#utility.yul\":933:949   */\n      add\n        /* \"#utility.yul\":898:963   */\n      tag_308\n      jump\t// in\n    tag_383:\n        /* \"#utility.yul\":988:1017   */\n      tag_384\n        /* \"#utility.yul\":1010:1016   */\n      dup2\n        /* \"#utility.yul\":988:1017   */\n      tag_309\n      jump\t// in\n    tag_384:\n        /* \"#utility.yul\":983:986   */\n      dup5\n        /* \"#utility.yul\":979:1018   */\n      add\n        /* \"#utility.yul\":972:1018   */\n      swap2\n      pop\n        /* \"#utility.yul\":739:1024   */\n      pop\n        /* \"#utility.yul\":647:1024   */\n      swap3\n      swap2\n      pop\n      pop\n      jump\t// out\n        /* \"#utility.yul\":1030:1343   */\n    tag_39:\n        /* \"#utility.yul\":1143:1147   */\n      0x00\n        /* \"#utility.yul\":1181:1183   */\n      0x20\n        /* \"#utility.yul\":1170:1179   */\n      dup3\n        /* \"#utility.yul\":1166:1184   */\n      add\n        /* \"#utility.yul\":1158:1184   */\n      swap1\n      pop\n        /* \"#utility.yul\":1230:1239   */\n      dup2\n        /* \"#utility.yul\":1224:1228   */\n      dup2\n        /* \"#utility.yul\":1220:1240   */\n      sub\n        /* \"#utility.yul\":1216:1217   */\n      0x00\n        /* \"#utility.yul\":1205:1214   */\n      dup4\n        /* \"#utility.yul\":1201:1218   */\n      add\n        /* \"#utility.yul\":1194:1241   */\n      mstore\n        /* \"#utility.yul\":1258:1336   */\n      tag_386\n        /* \"#utility.yul\":1331:1335   */\n      dup2\n        /* \"#utility.yul\":1322:1328   */\n      dup5\n        /* \"#utility.yul\":1258:1336   */\n      tag_310\n      jump\t// in\n    tag_386:\n        /* \"#utility.yul\":1250:1336   */\n      swap1\n      pop\n        /* \"#utility.yul\":1030:1343   */\n      swap3\n      swap2\n      pop\n      pop\n      jump\t// out\n        /* \"#utility.yul\":1430:1547   */\n    tag_312:\n        /* \"#utility.yul\":1539:1540   */\n      0x00\n        /* \"#utility.yul\":1536:1537   */\n      dup1\n        /* \"#utility.yul\":1529:1541   */\n      revert\n        /* \"#utility.yul\":1676:1802   */\n    tag_314:\n        /* \"#utility.yul\":1713:1720   */\n      0x00\n        /* \"#utility.yul\":1753:1795   */\n      0xffffffffffffffffffffffffffffffffffffffff\n        /* \"#utility.yul\":1746:1751   */\n      dup3\n        /* \"#utility.yul\":1742:1796   */\n      and\n        /* \"#utility.yul\":1731:1796   */\n      swap1\n      pop\n        /* \"#utility.yul\":1676:1802   */\n      swap2\n      swap1\n      pop\n      jump\t// out\n        /* \"#utility.yul\":1808:1904   */\n    tag_315:\n        /* \"#utility.yul\":1845:1852   */\n      0x00\n        /* \"#utility.yul\":1874:1898   */\n      tag_392\n        /* \"#utility.yul\":1892:1897   */\n      dup3\n        /* \"#utility.yul\":1874:1898   */\n      tag_314\n      jump\t// in\n    tag_392:\n        /* \"#utility.yul\":1863:1898   */\n      swap1\n      pop\n        /* \"#utility.yul\":1808:1904   */\n      swap2\n      swap1\n      pop\n      jump\t// out\n        /* \"#utility.yul\":1910:2032   */\n    tag_316:\n        /* \"#utility.yul\":1983:2007   */\n      tag_394\n        /* \"#utility.yul\":2001:2006   */\n      dup2\n        /* \"#utility.yul\":1983:2007   */\n      tag_315\n      jump\t// in\n    tag_394:\n        /* \"#utility.yul\":1976:1981   */\n      dup2\n        /* \"#utility.yul\":1973:2008   */\n      eq\n        /* \"#utility.yul\":1963:2026   */\n      tag_395\n      jumpi\n        /* \"#utility.yul\":2022:2023   */\n      0x00\n        /* \"#utility.yul\":2019:2020   */\n      dup1\n        /* \"#utility.yul\":2012:2024   */\n      revert\n        /* \"#utility.yul\":1963:2026   */\n    tag_395:\n        /* \"#utility.yul\":1910:2032   */\n      pop\n      jump\t// out\n        /* \"#utility.yul\":2038:2177   */\n    tag_317:\n        /* \"#utility.yul\":2084:2089   */\n      0x00\n        /* \"#utility.yul\":2122:2128   */\n      dup2\n        /* \"#utility.yul\":2109:2129   */\n      calldataload\n        /* \"#utility.yul\":2100:2129   */\n      swap1\n      pop\n        /* \"#utility.yul\":2138:2171   */\n      tag_397\n        /* \"#utility.yul\":2165:2170   */\n      dup2\n        /* \"#utility.yul\":2138:2171   */\n      tag_316\n      jump\t// in\n    tag_397:\n        /* \"#utility.yul\":2038:2177   */\n      swap3\n      swap2\n      pop\n      pop\n      jump\t// out\n        /* \"#utility.yul\":2183:2260   */\n    tag_318:\n        /* \"#utility.yul\":2220:2227   */\n      0x00\n        /* \"#utility.yul\":2249:2254   */\n      dup2\n        /* \"#utility.yul\":2238:2254   */\n      swap1\n      pop\n        /* \"#utility.yul\":2183:2260   */\n      swap2\n      swap1\n      pop\n      jump\t// out\n        /* \"#utility.yul\":2266:2388   */\n    tag_319:\n        /* \"#utility.yul\":2339:2363   */\n      tag_400\n        /* \"#utility.yul\":2357:2362   */\n      dup2\n        /* \"#utility.yul\":2339:2363   */\n      tag_318\n      jump\t// in\n    tag_400:\n        /* \"#utility.yul\":2332:2337   */\n      dup2\n        /* \"#utility.yul\":2329:2364   */\n      eq\n        /* \"#utility.yul\":2319:2382   */\n      tag_401\n      jumpi\n        /* \"#utility.yul\":2378:2379   */\n      0x00\n        /* \"#utility.yul\":2375:2376   */\n      dup1\n        /* \"#utility.yul\":2368:2380   */\n      revert\n        /* \"#utility.yul\":2319:2382   */\n    tag_401:\n        /* \"#utility.yul\":2266:2388   */\n      pop\n      jump\t// out\n        /* \"#utility.yul\":2394:2533   */\n    tag_320:\n        /* \"#utility.yul\":2440:2445   */\n      0x00\n        /* \"#utility.yul\":2478:2484   */\n      dup2\n        /* \"#utility.yul\":2465:2485   */\n      calldataload\n        /* \"#utility.yul\":2456:2485   */\n      swap1\n      pop\n        /* \"#utility.yul\":2494:2527   */\n      tag_403\n        /* \"#utility.yul\":2521:2526   */\n      dup2\n        /* \"#utility.yul\":2494:2527   */\n      tag_319\n      jump\t// in\n    tag_403:\n        /* \"#utility.yul\":2394:2533   */\n      swap3\n      swap2\n      pop\n      pop\n      jump\t// out\n        /* \"#utility.yul\":2539:3013   */\n    tag_42:\n        /* \"#utility.yul\":2607:2613   */\n      0x00\n        /* \"#utility.yul\":2615:2621   */\n      dup1\n        /* \"#utility.yul\":2664:2666   */\n      0x40\n        /* \"#utility.yul\":2652:2661   */\n      dup4\n        /* \"#utility.yul\":2643:2650   */\n      dup6\n        /* \"#utility.yul\":2639:2662   */\n      sub\n        /* \"#utility.yul\":2635:2667   */\n      slt\n        /* \"#utility.yul\":2632:2751   */\n      iszero\n      tag_405\n      jumpi\n        /* \"#utility.yul\":2670:2749   */\n      tag_406\n      tag_312\n      jump\t// in\n    tag_406:\n        /* \"#utility.yul\":2632:2751   */\n    tag_405:\n        /* \"#utility.yul\":2790:2791   */\n      0x00\n        /* \"#utility.yul\":2815:2868   */\n      tag_407\n        /* \"#utility.yul\":2860:2867   */\n      dup6\n        /* \"#utility.yul\":2851:2857   */\n      dup3\n        /* \"#utility.yul\":2840:2849   */\n      dup7\n        /* \"#utility.yul\":2836:2858   */\n      add\n        /* \"#utility.yul\":2815:2868   */\n      tag_317\n      jump\t// in\n    tag_407:\n        /* \"#utility.yul\":2805:2868   */\n      swap3\n      pop\n        /* \"#utility.yul\":2761:2878   */\n      pop\n        /* \"#utility.yul\":2917:2919   */\n      0x20\n        /* \"#utility.yul\":2943:2996   */\n      tag_408\n        /* \"#utility.yul\":2988:2995   */\n      dup6\n        /* \"#utility.yul\":2979:2985   */\n      dup3\n        /* \"#utility.yul\":2968:2977   */\n      dup7\n        /* \"#utility.yul\":2964:2986   */\n      add\n        /* \"#utility.yul\":2943:2996   */\n      tag_320\n      jump\t// in\n    tag_408:\n        /* \"#utility.yul\":2933:2996   */\n      swap2\n      pop\n        /* \"#utility.yul\":2888:3006   */\n      pop\n        /* \"#utility.yul\":2539:3013   */\n      swap3\n      pop\n      swap3\n      swap1\n      pop\n      jump\t// out\n        /* \"#utility.yul\":3019:3109   */\n    tag_321:\n        /* \"#utility.yul\":3053:3060   */\n      0x00\n        /* \"#utility.yul\":3096:3101   */\n      dup2\n        /* \"#utility.yul\":3089:3102   */\n      iszero\n        /* \"#utility.yul\":3082:3103   */\n      iszero\n        /* \"#utility.yul\":3071:3103   */\n      swap1\n      pop\n        /* \"#utility.yul\":3019:3109   */\n      swap2\n      swap1\n      pop\n      jump\t// out\n        /* \"#utility.yul\":3115:3224   */\n    tag_322:\n        /* \"#utility.yul\":3196:3217   */\n      tag_411\n        /* \"#utility.yul\":3211:3216   */\n      dup2\n        /* \"#utility.yul\":3196:3217   */\n      tag_321\n      jump\t// in\n    tag_411:\n        /* \"#utility.yul\":3191:3194   */\n      dup3\n        /* \"#utility.yul\":3184:3218   */\n      mstore\n        /* \"#utility.yul\":3115:3224   */\n      pop\n      pop\n      jump\t// out\n        /* \"#utility.yul\":3230:3440   */\n    tag_45:\n        /* \"#utility.yul\":3317:3321   */\n      0x00\n        /* \"#utility.yul\":3355:3357   */\n      0x20\n        /* \"#utility.yul\":3344:3353   */\n      dup3\n        /* \"#utility.yul\":3340:3358   */\n      add\n        /* \"#utility.yul\":3332:3358   */\n      swap1\n      pop\n        /* \"#utility.yul\":3368:3433   */\n      tag_413\n        /* \"#utility.yul\":3430:3431   */\n      0x00\n        /* \"#utility.yul\":3419:3428   */\n      dup4\n        /* \"#utility.yul\":3415:3432   */\n      add\n        /* \"#utility.yul\":3406:3412   */\n      dup5\n        /* \"#utility.yul\":3368:3433   */\n      tag_322\n      jump\t// in\n    tag_413:\n        /* \"#utility.yul\":3230:3440   */\n      swap3\n      swap2\n      pop\n      pop\n      jump\t// out\n        /* \"#utility.yul\":3446:3775   */\n    tag_48:\n        /* \"#utility.yul\":3505:3511   */\n      0x00\n        /* \"#utility.yul\":3554:3556   */\n      0x20\n        /* \"#utility.yul\":3542:3551   */\n      dup3\n        /* \"#utility.yul\":3533:3540   */\n      dup5\n        /* \"#utility.yul\":3529:3552   */\n      sub\n        /* \"#utility.yul\":3525:3557   */\n      slt\n        /* \"#utility.yul\":3522:3641   */\n      iszero\n      tag_415\n      jumpi\n        /* \"#utility.yul\":3560:3639   */\n      tag_416\n      tag_312\n      jump\t// in\n    tag_416:\n        /* \"#utility.yul\":3522:3641   */\n    tag_415:\n        /* \"#utility.yul\":3680:3681   */\n      0x00\n        /* \"#utility.yul\":3705:3758   */\n      tag_417\n        /* \"#utility.yul\":3750:3757   */\n      dup5\n        /* \"#utility.yul\":3741:3747   */\n      dup3\n        /* \"#utility.yul\":3730:3739   */\n      dup6\n        /* \"#utility.yul\":3726:3748   */\n      add\n        /* \"#utility.yul\":3705:3758   */\n      tag_320\n      jump\t// in\n    tag_417:\n        /* \"#utility.yul\":3695:3758   */\n      swap2\n      pop\n        /* \"#utility.yul\":3651:3768   */\n      pop\n        /* \"#utility.yul\":3446:3775   */\n      swap3\n      swap2\n      pop\n      pop\n      jump\t// out\n        /* \"#utility.yul\":3781:3899   */\n    tag_323:\n        /* \"#utility.yul\":3868:3892   */\n      tag_419\n        /* \"#utility.yul\":3886:3891   */\n      dup2\n        /* \"#utility.yul\":3868:3892   */\n      tag_318\n      jump\t// in\n    tag_419:\n        /* \"#utility.yul\":3863:3866   */\n      dup3\n        /* \"#utility.yul\":3856:3893   */\n      mstore\n        /* \"#utility.yul\":3781:3899   */\n      pop\n      pop\n      jump\t// out\n        /* \"#utility.yul\":3905:4127   */\n    tag_53:\n        /* \"#utility.yul\":3998:4002   */\n      0x00\n        /* \"#utility.yul\":4036:4038   */\n      0x20\n        /* \"#utility.yul\":4025:4034   */\n      dup3\n        /* \"#utility.yul\":4021:4039   */\n      add\n        /* \"#utility.yul\":4013:4039   */\n      swap1\n      pop\n        /* \"#utility.yul\":4049:4120   */\n      tag_421\n        /* \"#utility.yul\":4117:4118   */\n      0x00\n        /* \"#utility.yul\":4106:4115   */\n      dup4\n        /* \"#utility.yul\":4102:4119   */\n      add\n        /* \"#utility.yul\":4093:4099   */\n      dup5\n        /* \"#utility.yul\":4049:4120   */\n      tag_323\n      jump\t// in\n    tag_421:\n        /* \"#utility.yul\":3905:4127   */\n      swap3\n      swap2\n      pop\n      pop\n      jump\t// out\n        /* \"#utility.yul\":4133:4752   */\n    tag_56:\n        /* \"#utility.yul\":4210:4216   */\n      0x00\n        /* \"#utility.yul\":4218:4224   */\n      dup1\n        /* \"#utility.yul\":4226:4232   */\n      0x00\n        /* \"#utility.yul\":4275:4277   */\n      0x60\n        /* \"#utility.yul\":4263:4272   */\n      dup5\n        /* \"#utility.yul\":4254:4261   */\n      dup7\n        /* \"#utility.yul\":4250:4273   */\n      sub\n        /* \"#utility.yul\":4246:4278   */\n      slt\n        /* \"#utility.yul\":4243:4362   */\n      iszero\n      tag_423\n      jumpi\n        /* \"#utility.yul\":4281:4360   */\n      tag_424\n      tag_312\n      jump\t// in\n    tag_424:\n        /* \"#utility.yul\":4243:4362   */\n    tag_423:\n        /* \"#utility.yul\":4401:4402   */\n      0x00\n        /* \"#utility.yul\":4426:4479   */\n      tag_425\n        /* \"#utility.yul\":4471:4478   */\n      dup7\n        /* \"#utility.yul\":4462:4468   */\n      dup3\n        /* \"#utility.yul\":4451:4460   */\n      dup8\n        /* \"#utility.yul\":4447:4469   */\n      add\n        /* \"#utility.yul\":4426:4479   */\n      tag_317\n      jump\t// in\n    tag_425:\n        /* \"#utility.yul\":4416:4479   */\n      swap4\n      pop\n        /* \"#utility.yul\":4372:4489   */\n      pop\n        /* \"#utility.yul\":4528:4530   */\n      0x20\n        /* \"#utility.yul\":4554:4607   */\n      tag_426\n        /* \"#utility.yul\":4599:4606   */\n      dup7\n        /* \"#utility.yul\":4590:4596   */\n      dup3\n        /* \"#utility.yul\":4579:4588   */\n      dup8\n        /* \"#utility.yul\":4575:4597   */\n      add\n        /* \"#utility.yul\":4554:4607   */\n      tag_317\n      jump\t// in\n    tag_426:\n        /* \"#utility.yul\":4544:4607   */\n      swap3\n      pop\n        /* \"#utility.yul\":4499:4617   */\n      pop\n        /* \"#utility.yul\":4656:4658   */\n      0x40\n        /* \"#utility.yul\":4682:4735   */\n      tag_427\n        /* \"#utility.yul\":4727:4734   */\n      dup7\n        /* \"#utility.yul\":4718:4724   */\n      dup3\n        /* \"#utility.yul\":4707:4716   */\n      dup8\n        /* \"#utility.yul\":4703:4725   */\n      add\n        /* \"#utility.yul\":4682:4735   */\n      tag_320\n      jump\t// in\n    tag_427:\n        /* \"#utility.yul\":4672:4735   */\n      swap2\n      pop\n        /* \"#utility.yul\":4627:4745   */\n      pop\n        /* \"#utility.yul\":4133:4752   */\n      swap3\n      pop\n      swap3\n      pop\n      swap3\n      jump\t// out\n        /* \"#utility.yul\":4758:4862   */\n    tag_324:\n        /* \"#utility.yul\":4803:4810   */\n      0x00\n        /* \"#utility.yul\":4832:4856   */\n      tag_429\n        /* \"#utility.yul\":4850:4855   */\n      dup3\n        /* \"#utility.yul\":4832:4856   */\n      tag_314\n      jump\t// in\n    tag_429:\n        /* \"#utility.yul\":4821:4856   */\n      swap1\n      pop\n        /* \"#utility.yul\":4758:4862   */\n      swap2\n      swap1\n      pop\n      jump\t// out\n        /* \"#utility.yul\":4868:5010   */\n    tag_325:\n        /* \"#utility.yul\":4971:5003   */\n      tag_431\n        /* \"#utility.yul\":4997:5002   */\n      dup2\n        /* \"#utility.yul\":4971:5003   */\n      tag_324\n      jump\t// in\n    tag_431:\n        /* \"#utility.yul\":4966:4969   */\n      dup3\n        /* \"#utility.yul\":4959:5004   */\n      mstore\n        /* \"#utility.yul\":4868:5010   */\n      pop\n      pop\n      jump\t// out\n        /* \"#utility.yul\":5016:5270   */\n    tag_62:\n        /* \"#utility.yul\":5125:5129   */\n      0x00\n        /* \"#utility.yul\":5163:5165   */\n      0x20\n        /* \"#utility.yul\":5152:5161   */\n      dup3\n        /* \"#utility.yul\":5148:5166   */\n      add\n        /* \"#utility.yul\":5140:5166   */\n      swap1\n      pop\n        /* \"#utility.yul\":5176:5263   */\n      tag_433\n        /* \"#utility.yul\":5260:5261   */\n      0x00\n        /* \"#utility.yul\":5249:5258   */\n      dup4\n        /* \"#utility.yul\":5245:5262   */\n      add\n        /* \"#utility.yul\":5236:5242   */\n      dup5\n        /* \"#utility.yul\":5176:5263   */\n      tag_325\n      jump\t// in\n    tag_433:\n        /* \"#utility.yul\":5016:5270   */\n      swap3\n      swap2\n      pop\n      pop\n      jump\t// out\n        /* \"#utility.yul\":5276:5394   */\n    tag_326:\n        /* \"#utility.yul\":5363:5387   */\n      tag_435\n        /* \"#utility.yul\":5381:5386   */\n      dup2\n        /* \"#utility.yul\":5363:5387   */\n      tag_315\n      jump\t// in\n    tag_435:\n        /* \"#utility.yul\":5358:5361   */\n      dup3\n        /* \"#utility.yul\":5351:5388   */\n      mstore\n        /* \"#utility.yul\":5276:5394   */\n      pop\n      pop\n      jump\t// out\n        /* \"#utility.yul\":5400:5622   */\n    tag_66:\n        /* \"#utility.yul\":5493:5497   */\n      0x00\n        /* \"#utility.yul\":5531:5533   */\n      0x20\n        /* \"#utility.yul\":5520:5529   */\n      dup3\n        /* \"#utility.yul\":5516:5534   */\n      add\n        /* \"#utility.yul\":5508:5534   */\n      swap1\n      pop\n        /* \"#utility.yul\":5544:5615   */\n      tag_437\n        /* \"#utility.yul\":5612:5613   */\n      0x00\n        /* \"#utility.yul\":5601:5610   */\n      dup4\n        /* \"#utility.yul\":5597:5614   */\n      add\n        /* \"#utility.yul\":5588:5594   */\n      dup5\n        /* \"#utility.yul\":5544:5615   */\n      tag_326\n      jump\t// in\n    tag_437:\n        /* \"#utility.yul\":5400:5622   */\n      swap3\n      swap2\n      pop\n      pop\n      jump\t// out\n        /* \"#utility.yul\":5628:5714   */\n    tag_327:\n        /* \"#utility.yul\":5663:5670   */\n      0x00\n        /* \"#utility.yul\":5703:5707   */\n      0xff\n        /* \"#utility.yul\":5696:5701   */\n      dup3\n        /* \"#utility.yul\":5692:5708   */\n      and\n        /* \"#utility.yul\":5681:5708   */\n      swap1\n      pop\n        /* \"#utility.yul\":5628:5714   */\n      swap2\n      swap1\n      pop\n      jump\t// out\n        /* \"#utility.yul\":5720:5832   */\n    tag_328:\n        /* \"#utility.yul\":5803:5825   */\n      tag_440\n        /* \"#utility.yul\":5819:5824   */\n      dup2\n        /* \"#utility.yul\":5803:5825   */\n      tag_327\n      jump\t// in\n    tag_440:\n        /* \"#utility.yul\":5798:5801   */\n      dup3\n        /* \"#utility.yul\":5791:5826   */\n      mstore\n        /* \"#utility.yul\":5720:5832   */\n      pop\n      pop\n      jump\t// out\n        /* \"#utility.yul\":5838:6052   */\n    tag_70:\n        /* \"#utility.yul\":5927:5931   */\n      0x00\n        /* \"#utility.yul\":5965:5967   */\n      0x20\n        /* \"#utility.yul\":5954:5963   */\n      dup3\n        /* \"#utility.yul\":5950:5968   */\n      add\n        /* \"#utility.yul\":5942:5968   */\n      swap1\n      pop\n        /* \"#utility.yul\":5978:6045   */\n      tag_442\n        /* \"#utility.yul\":6042:6043   */\n      0x00\n        /* \"#utility.yul\":6031:6040   */\n      dup4\n        /* \"#utility.yul\":6027:6044   */\n      add\n        /* \"#utility.yul\":6018:6024   */\n      dup5\n        /* \"#utility.yul\":5978:6045   */\n      tag_328\n      jump\t// in\n    tag_442:\n        /* \"#utility.yul\":5838:6052   */\n      swap3\n      swap2\n      pop\n      pop\n      jump\t// out\n        /* \"#utility.yul\":6058:6196   */\n    tag_329:\n        /* \"#utility.yul\":6139:6171   */\n      tag_444\n        /* \"#utility.yul\":6165:6170   */\n      dup2\n        /* \"#utility.yul\":6139:6171   */\n      tag_324\n      jump\t// in\n    tag_444:\n        /* \"#utility.yul\":6132:6137   */\n      dup2\n        /* \"#utility.yul\":6129:6172   */\n      eq\n        /* \"#utility.yul\":6119:6190   */\n      tag_445\n      jumpi\n        /* \"#utility.yul\":6186:6187   */\n      0x00\n        /* \"#utility.yul\":6183:6184   */\n      dup1\n        /* \"#utility.yul\":6176:6188   */\n      revert\n        /* \"#utility.yul\":6119:6190   */\n    tag_445:\n        /* \"#utility.yul\":6058:6196   */\n      pop\n      jump\t// out\n        /* \"#utility.yul\":6202:6357   */\n    tag_330:\n        /* \"#utility.yul\":6256:6261   */\n      0x00\n        /* \"#utility.yul\":6294:6300   */\n      dup2\n        /* \"#utility.yul\":6281:6301   */\n      calldataload\n        /* \"#utility.yul\":6272:6301   */\n      swap1\n      pop\n        /* \"#utility.yul\":6310:6351   */\n      tag_447\n        /* \"#utility.yul\":6345:6350   */\n      dup2\n        /* \"#utility.yul\":6310:6351   */\n      tag_329\n      jump\t// in\n    tag_447:\n        /* \"#utility.yul\":6202:6357   */\n      swap3\n      swap2\n      pop\n      pop\n      jump\t// out\n        /* \"#utility.yul\":6363:6708   */\n    tag_86:\n        /* \"#utility.yul\":6430:6436   */\n      0x00\n        /* \"#utility.yul\":6479:6481   */\n      0x20\n        /* \"#utility.yul\":6467:6476   */\n      dup3\n        /* \"#utility.yul\":6458:6465   */\n      dup5\n        /* \"#utility.yul\":6454:6477   */\n      sub\n        /* \"#utility.yul\":6450:6482   */\n      slt\n        /* \"#utility.yul\":6447:6566   */\n      iszero\n      tag_449\n      jumpi\n        /* \"#utility.yul\":6485:6564   */\n      tag_450\n      tag_312\n      jump\t// in\n    tag_450:\n        /* \"#utility.yul\":6447:6566   */\n    tag_449:\n        /* \"#utility.yul\":6605:6606   */\n      0x00\n        /* \"#utility.yul\":6630:6691   */\n      tag_451\n        /* \"#utility.yul\":6683:6690   */\n      dup5\n        /* \"#utility.yul\":6674:6680   */\n      dup3\n        /* \"#utility.yul\":6663:6672   */\n      dup6\n        /* \"#utility.yul\":6659:6681   */\n      add\n        /* \"#utility.yul\":6630:6691   */\n      tag_330\n      jump\t// in\n    tag_451:\n        /* \"#utility.yul\":6620:6691   */\n      swap2\n      pop\n        /* \"#utility.yul\":6576:6701   */\n      pop\n        /* \"#utility.yul\":6363:6708   */\n      swap3\n      swap2\n      pop\n      pop\n      jump\t// out\n        /* \"#utility.yul\":6714:7043   */\n    tag_96:\n        /* \"#utility.yul\":6773:6779   */\n      0x00\n        /* \"#utility.yul\":6822:6824   */\n      0x20\n        /* \"#utility.yul\":6810:6819   */\n      dup3\n        /* \"#utility.yul\":6801:6808   */\n      dup5\n        /* \"#utility.yul\":6797:6820   */\n      sub\n        /* \"#utility.yul\":6793:6825   */\n      slt\n        /* \"#utility.yul\":6790:6909   */\n      iszero\n      tag_453\n      jumpi\n        /* \"#utility.yul\":6828:6907   */\n      tag_454\n      tag_312\n      jump\t// in\n    tag_454:\n        /* \"#utility.yul\":6790:6909   */\n    tag_453:\n        /* \"#utility.yul\":6948:6949   */\n      0x00\n        /* \"#utility.yul\":6973:7026   */\n      tag_455\n        /* \"#utility.yul\":7018:7025   */\n      dup5\n        /* \"#utility.yul\":7009:7015   */\n      dup3\n        /* \"#utility.yul\":6998:7007   */\n      dup6\n        /* \"#utility.yul\":6994:7016   */\n      add\n        /* \"#utility.yul\":6973:7026   */\n      tag_317\n      jump\t// in\n    tag_455:\n        /* \"#utility.yul\":6963:7026   */\n      swap2\n      pop\n        /* \"#utility.yul\":6919:7036   */\n      pop\n        /* \"#utility.yul\":6714:7043   */\n      swap3\n      swap2\n      pop\n      pop\n      jump\t// out\n        /* \"#utility.yul\":7049:7668   */\n    tag_113:\n        /* \"#utility.yul\":7126:7132   */\n      0x00\n        /* \"#utility.yul\":7134:7140   */\n      dup1\n        /* \"#utility.yul\":7142:7148   */\n      0x00\n        /* \"#utility.yul\":7191:7193   */\n      0x60\n        /* \"#utility.yul\":7179:7188   */\n      dup5\n        /* \"#utility.yul\":7170:7177   */\n      dup7\n        /* \"#utility.yul\":7166:7189   */\n      sub\n        /* \"#utility.yul\":7162:7194   */\n      slt\n        /* \"#utility.yul\":7159:7278   */\n      iszero\n      tag_457\n      jumpi\n        /* \"#utility.yul\":7197:7276   */\n      tag_458\n      tag_312\n      jump\t// in\n    tag_458:\n        /* \"#utility.yul\":7159:7278   */\n    tag_457:\n        /* \"#utility.yul\":7317:7318   */\n      0x00\n        /* \"#utility.yul\":7342:7395   */\n      tag_459\n        /* \"#utility.yul\":7387:7394   */\n      dup7\n        /* \"#utility.yul\":7378:7384   */\n      dup3\n        /* \"#utility.yul\":7367:7376   */\n      dup8\n        /* \"#utility.yul\":7363:7385   */\n      add\n        /* \"#utility.yul\":7342:7395   */\n      tag_320\n      jump\t// in\n    tag_459:\n        /* \"#utility.yul\":7332:7395   */\n      swap4\n      pop\n        /* \"#utility.yul\":7288:7405   */\n      pop\n        /* \"#utility.yul\":7444:7446   */\n      0x20\n        /* \"#utility.yul\":7470:7523   */\n      tag_460\n        /* \"#utility.yul\":7515:7522   */\n      dup7\n        /* \"#utility.yul\":7506:7512   */\n      dup3\n        /* \"#utility.yul\":7495:7504   */\n      dup8\n        /* \"#utility.yul\":7491:7513   */\n      add\n        /* \"#utility.yul\":7470:7523   */\n      tag_320\n      jump\t// in\n    tag_460:\n        /* \"#utility.yul\":7460:7523   */\n      swap3\n      pop\n        /* \"#utility.yul\":7415:7533   */\n      pop\n        /* \"#utility.yul\":7572:7574   */\n      0x40\n        /* \"#utility.yul\":7598:7651   */\n      tag_461\n        /* \"#utility.yul\":7643:7650   */\n      dup7\n        /* \"#utility.yul\":7634:7640   */\n      dup3\n        /* \"#utility.yul\":7623:7632   */\n      dup8\n        /* \"#utility.yul\":7619:7641   */\n      add\n        /* \"#utility.yul\":7598:7651   */\n      tag_320\n      jump\t// in\n    tag_461:\n        /* \"#utility.yul\":7588:7651   */\n      swap2\n      pop\n        /* \"#utility.yul\":7543:7661   */\n      pop\n        /* \"#utility.yul\":7049:7668   */\n      swap3\n      pop\n      swap3\n      pop\n      swap3\n      jump\t// out\n        /* \"#utility.yul\":7674:7734   */\n    tag_331:\n        /* \"#utility.yul\":7702:7705   */\n      0x00\n        /* \"#utility.yul\":7723:7728   */\n      dup2\n        /* \"#utility.yul\":7716:7728   */\n      swap1\n      pop\n        /* \"#utility.yul\":7674:7734   */\n      swap2\n      swap1\n      pop\n      jump\t// out\n        /* \"#utility.yul\":7740:7882   */\n    tag_332:\n        /* \"#utility.yul\":7790:7799   */\n      0x00\n        /* \"#utility.yul\":7823:7876   */\n      tag_464\n        /* \"#utility.yul\":7841:7875   */\n      tag_465\n        /* \"#utility.yul\":7850:7874   */\n      tag_466\n        /* \"#utility.yul\":7868:7873   */\n      dup5\n        /* \"#utility.yul\":7850:7874   */\n      tag_314\n      jump\t// in\n    tag_466:\n        /* \"#utility.yul\":7841:7875   */\n      tag_331\n      jump\t// in\n    tag_465:\n        /* \"#utility.yul\":7823:7876   */\n      tag_314\n      jump\t// in\n    tag_464:\n        /* \"#utility.yul\":7810:7876   */\n      swap1\n      pop\n        /* \"#utility.yul\":7740:7882   */\n      swap2\n      swap1\n      pop\n      jump\t// out\n        /* \"#utility.yul\":7888:8014   */\n    tag_333:\n        /* \"#utility.yul\":7938:7947   */\n      0x00\n        /* \"#utility.yul\":7971:8008   */\n      tag_468\n        /* \"#utility.yul\":8002:8007   */\n      dup3\n        /* \"#utility.yul\":7971:8008   */\n      tag_332\n      jump\t// in\n    tag_468:\n        /* \"#utility.yul\":7958:8008   */\n      swap1\n      pop\n        /* \"#utility.yul\":7888:8014   */\n      swap2\n      swap1\n      pop\n      jump\t// out\n        /* \"#utility.yul\":8020:8170   */\n    tag_334:\n        /* \"#utility.yul\":8094:8103   */\n      0x00\n        /* \"#utility.yul\":8127:8164   */\n      tag_470\n        /* \"#utility.yul\":8158:8163   */\n      dup3\n        /* \"#utility.yul\":8127:8164   */\n      tag_333\n      jump\t// in\n    tag_470:\n        /* \"#utility.yul\":8114:8164   */\n      swap1\n      pop\n        /* \"#utility.yul\":8020:8170   */\n      swap2\n      swap1\n      pop\n      jump\t// out\n        /* \"#utility.yul\":8176:8355   */\n    tag_335:\n        /* \"#utility.yul\":8287:8348   */\n      tag_472\n        /* \"#utility.yul\":8342:8347   */\n      dup2\n        /* \"#utility.yul\":8287:8348   */\n      tag_334\n      jump\t// in\n    tag_472:\n        /* \"#utility.yul\":8282:8285   */\n      dup3\n        /* \"#utility.yul\":8275:8349   */\n      mstore\n        /* \"#utility.yul\":8176:8355   */\n      pop\n      pop\n      jump\t// out\n        /* \"#utility.yul\":8361:8631   */\n    tag_122:\n        /* \"#utility.yul\":8478:8482   */\n      0x00\n        /* \"#utility.yul\":8516:8518   */\n      0x20\n        /* \"#utility.yul\":8505:8514   */\n      dup3\n        /* \"#utility.yul\":8501:8519   */\n      add\n        /* \"#utility.yul\":8493:8519   */\n      swap1\n      pop\n        /* \"#utility.yul\":8529:8624   */\n      tag_474\n        /* \"#utility.yul\":8621:8622   */\n      0x00\n        /* \"#utility.yul\":8610:8619   */\n      dup4\n        /* \"#utility.yul\":8606:8623   */\n      add\n        /* \"#utility.yul\":8597:8603   */\n      dup5\n        /* \"#utility.yul\":8529:8624   */\n      tag_335\n      jump\t// in\n    tag_474:\n        /* \"#utility.yul\":8361:8631   */\n      swap3\n      swap2\n      pop\n      pop\n      jump\t// out\n        /* \"#utility.yul\":8637:9111   */\n    tag_128:\n        /* \"#utility.yul\":8705:8711   */\n      0x00\n        /* \"#utility.yul\":8713:8719   */\n      dup1\n        /* \"#utility.yul\":8762:8764   */\n      0x40\n        /* \"#utility.yul\":8750:8759   */\n      dup4\n        /* \"#utility.yul\":8741:8748   */\n      dup6\n        /* \"#utility.yul\":8737:8760   */\n      sub\n        /* \"#utility.yul\":8733:8765   */\n      slt\n        /* \"#utility.yul\":8730:8849   */\n      iszero\n      tag_476\n      jumpi\n        /* \"#utility.yul\":8768:8847   */\n      tag_477\n      tag_312\n      jump\t// in\n    tag_477:\n        /* \"#utility.yul\":8730:8849   */\n    tag_476:\n        /* \"#utility.yul\":8888:8889   */\n      0x00\n        /* \"#utility.yul\":8913:8966   */\n      tag_478\n        /* \"#utility.yul\":8958:8965   */\n      dup6\n        /* \"#utility.yul\":8949:8955   */\n      dup3\n        /* \"#utility.yul\":8938:8947   */\n      dup7\n        /* \"#utility.yul\":8934:8956   */\n      add\n        /* \"#utility.yul\":8913:8966   */\n      tag_317\n      jump\t// in\n    tag_478:\n        /* \"#utility.yul\":8903:8966   */\n      swap3\n      pop\n        /* \"#utility.yul\":8859:8976   */\n      pop\n        /* \"#utility.yul\":9015:9017   */\n      0x20\n        /* \"#utility.yul\":9041:9094   */\n      tag_479\n        /* \"#utility.yul\":9086:9093   */\n      dup6\n        /* \"#utility.yul\":9077:9083   */\n      dup3\n        /* \"#utility.yul\":9066:9075   */\n      dup7\n        /* \"#utility.yul\":9062:9084   */\n      add\n        /* \"#utility.yul\":9041:9094   */\n      tag_317\n      jump\t// in\n    tag_479:\n        /* \"#utility.yul\":9031:9094   */\n      swap2\n      pop\n        /* \"#utility.yul\":8986:9104   */\n      pop\n        /* \"#utility.yul\":8637:9111   */\n      swap3\n      pop\n      swap3\n      swap1\n      pop\n      jump\t// out\n        /* \"#utility.yul\":9117:9297   */\n    tag_336:\n        /* \"#utility.yul\":9165:9242   */\n      0x4e487b7100000000000000000000000000000000000000000000000000000000\n        /* \"#utility.yul\":9162:9163   */\n      0x00\n        /* \"#utility.yul\":9155:9243   */\n      mstore\n        /* \"#utility.yul\":9262:9266   */\n      0x22\n        /* \"#utility.yul\":9259:9260   */\n      0x04\n        /* \"#utility.yul\":9252:9267   */\n      mstore\n        /* \"#utility.yul\":9286:9290   */\n      0x24\n        /* \"#utility.yul\":9283:9284   */\n      0x00\n        /* \"#utility.yul\":9276:9291   */\n      revert\n        /* \"#utility.yul\":9303:9623   */\n    tag_139:\n        /* \"#utility.yul\":9347:9353   */\n      0x00\n        /* \"#utility.yul\":9384:9385   */\n      0x02\n        /* \"#utility.yul\":9378:9382   */\n      dup3\n        /* \"#utility.yul\":9374:9386   */\n      div\n        /* \"#utility.yul\":9364:9386   */\n      swap1\n      pop\n        /* \"#utility.yul\":9431:9432   */\n      0x01\n        /* \"#utility.yul\":9425:9429   */\n      dup3\n        /* \"#utility.yul\":9421:9433   */\n      and\n        /* \"#utility.yul\":9452:9470   */\n      dup1\n        /* \"#utility.yul\":9442:9523   */\n      tag_482\n      jumpi\n        /* \"#utility.yul\":9508:9512   */\n      0x7f\n        /* \"#utility.yul\":9500:9506   */\n      dup3\n        /* \"#utility.yul\":9496:9513   */\n      and\n        /* \"#utility.yul\":9486:9513   */\n      swap2\n      pop\n        /* \"#utility.yul\":9442:9523   */\n    tag_482:\n        /* \"#utility.yul\":9570:9572   */\n      0x20\n        /* \"#utility.yul\":9562:9568   */\n      dup3\n        /* \"#utility.yul\":9559:9573   */\n      lt\n        /* \"#utility.yul\":9539:9557   */\n      dup2\n        /* \"#utility.yul\":9536:9574   */\n      sub\n        /* \"#utility.yul\":9533:9617   */\n      tag_483\n      jumpi\n        /* \"#utility.yul\":9589:9607   */\n      tag_484\n      tag_336\n      jump\t// in\n    tag_484:\n        /* \"#utility.yul\":9533:9617   */\n    tag_483:\n        /* \"#utility.yul\":9354:9623   */\n      pop\n        /* \"#utility.yul\":9303:9623   */\n      swap2\n      swap1\n      pop\n      jump\t// out\n        /* \"#utility.yul\":9629:9809   */\n    tag_337:\n        /* \"#utility.yul\":9677:9754   */\n      0x4e487b7100000000000000000000000000000000000000000000000000000000\n        /* \"#utility.yul\":9674:9675   */\n      0x00\n        /* \"#utility.yul\":9667:9755   */\n      mstore\n        /* \"#utility.yul\":9774:9778   */\n      0x11\n        /* \"#utility.yul\":9771:9772   */\n      0x04\n        /* \"#utility.yul\":9764:9779   */\n      mstore\n        /* \"#utility.yul\":9798:9802   */\n      0x24\n        /* \"#utility.yul\":9795:9796   */\n      0x00\n        /* \"#utility.yul\":9788:9803   */\n      revert\n        /* \"#utility.yul\":9815:9917   */\n    tag_338:\n        /* \"#utility.yul\":9857:9865   */\n      0x00\n        /* \"#utility.yul\":9904:9909   */\n      dup2\n        /* \"#utility.yul\":9901:9902   */\n      0x01\n        /* \"#utility.yul\":9897:9910   */\n      shr\n        /* \"#utility.yul\":9876:9910   */\n      swap1\n      pop\n        /* \"#utility.yul\":9815:9917   */\n      swap2\n      swap1\n      pop\n      jump\t// out\n        /* \"#utility.yul\":9923:10771   */\n    tag_339:\n        /* \"#utility.yul\":9984:9989   */\n      0x00\n        /* \"#utility.yul\":9991:9995   */\n      dup1\n        /* \"#utility.yul\":10015:10021   */\n      dup3\n        /* \"#utility.yul\":10006:10021   */\n      swap2\n      pop\n        /* \"#utility.yul\":10039:10044   */\n      dup4\n        /* \"#utility.yul\":10030:10044   */\n      swap1\n      pop\n        /* \"#utility.yul\":10053:10765   */\n    tag_488:\n        /* \"#utility.yul\":10074:10075   */\n      0x01\n        /* \"#utility.yul\":10064:10072   */\n      dup6\n        /* \"#utility.yul\":10061:10076   */\n      gt\n        /* \"#utility.yul\":10053:10765   */\n      iszero\n      tag_490\n      jumpi\n        /* \"#utility.yul\":10169:10173   */\n      dup1\n        /* \"#utility.yul\":10164:10167   */\n      dup7\n        /* \"#utility.yul\":10160:10174   */\n      div\n        /* \"#utility.yul\":10154:10158   */\n      dup2\n        /* \"#utility.yul\":10151:10175   */\n      gt\n        /* \"#utility.yul\":10148:10198   */\n      iszero\n      tag_491\n      jumpi\n        /* \"#utility.yul\":10178:10196   */\n      tag_492\n      tag_337\n      jump\t// in\n    tag_492:\n        /* \"#utility.yul\":10148:10198   */\n    tag_491:\n        /* \"#utility.yul\":10228:10229   */\n      0x01\n        /* \"#utility.yul\":10218:10226   */\n      dup6\n        /* \"#utility.yul\":10214:10230   */\n      and\n        /* \"#utility.yul\":10211:10662   */\n      iszero\n      tag_493\n      jumpi\n        /* \"#utility.yul\":10643:10647   */\n      dup1\n        /* \"#utility.yul\":10636:10641   */\n      dup3\n        /* \"#utility.yul\":10632:10648   */\n      mul\n        /* \"#utility.yul\":10623:10648   */\n      swap2\n      pop\n        /* \"#utility.yul\":10211:10662   */\n    tag_493:\n        /* \"#utility.yul\":10693:10697   */\n      dup1\n        /* \"#utility.yul\":10687:10691   */\n      dup2\n        /* \"#utility.yul\":10683:10698   */\n      mul\n        /* \"#utility.yul\":10675:10698   */\n      swap1\n      pop\n        /* \"#utility.yul\":10723:10755   */\n      tag_494\n        /* \"#utility.yul\":10746:10754   */\n      dup6\n        /* \"#utility.yul\":10723:10755   */\n      tag_338\n      jump\t// in\n    tag_494:\n        /* \"#utility.yul\":10711:10755   */\n      swap5\n      pop\n        /* \"#utility.yul\":10053:10765   */\n      jump(tag_488)\n    tag_490:\n        /* \"#utility.yul\":9923:10771   */\n      swap5\n      pop\n      swap5\n      swap3\n      pop\n      pop\n      pop\n      jump\t// out\n        /* \"#utility.yul\":10777:11850   */\n    tag_340:\n        /* \"#utility.yul\":10831:10836   */\n      0x00\n        /* \"#utility.yul\":11022:11030   */\n      dup3\n        /* \"#utility.yul\":11012:11052   */\n      tag_496\n      jumpi\n        /* \"#utility.yul\":11043:11044   */\n      0x01\n        /* \"#utility.yul\":11034:11044   */\n      swap1\n      pop\n        /* \"#utility.yul\":11045:11050   */\n      jump(tag_495)\n        /* \"#utility.yul\":11012:11052   */\n    tag_496:\n        /* \"#utility.yul\":11071:11075   */\n      dup2\n        /* \"#utility.yul\":11061:11097   */\n      tag_497\n      jumpi\n        /* \"#utility.yul\":11088:11089   */\n      0x00\n        /* \"#utility.yul\":11079:11089   */\n      swap1\n      pop\n        /* \"#utility.yul\":11090:11095   */\n      jump(tag_495)\n        /* \"#utility.yul\":11061:11097   */\n    tag_497:\n        /* \"#utility.yul\":11157:11161   */\n      dup2\n        /* \"#utility.yul\":11205:11206   */\n      0x01\n        /* \"#utility.yul\":11200:11227   */\n      dup2\n      eq\n      tag_499\n      jumpi\n        /* \"#utility.yul\":11241:11242   */\n      0x02\n        /* \"#utility.yul\":11236:11427   */\n      dup2\n      eq\n      tag_500\n      jumpi\n        /* \"#utility.yul\":11150:11427   */\n      jump(tag_498)\n        /* \"#utility.yul\":11200:11227   */\n    tag_499:\n        /* \"#utility.yul\":11218:11219   */\n      0x01\n        /* \"#utility.yul\":11209:11219   */\n      swap2\n      pop\n        /* \"#utility.yul\":11220:11225   */\n      pop\n      jump(tag_495)\n        /* \"#utility.yul\":11236:11427   */\n    tag_500:\n        /* \"#utility.yul\":11281:11284   */\n      0xff\n        /* \"#utility.yul\":11271:11279   */\n      dup5\n        /* \"#utility.yul\":11268:11285   */\n      gt\n        /* \"#utility.yul\":11265:11308   */\n      iszero\n      tag_501\n      jumpi\n        /* \"#utility.yul\":11288:11306   */\n      tag_502\n      tag_337\n      jump\t// in\n    tag_502:\n        /* \"#utility.yul\":11265:11308   */\n    tag_501:\n        /* \"#utility.yul\":11337:11345   */\n      dup4\n        /* \"#utility.yul\":11334:11335   */\n      0x02\n        /* \"#utility.yul\":11330:11346   */\n      exp\n        /* \"#utility.yul\":11321:11346   */\n      swap2\n      pop\n        /* \"#utility.yul\":11372:11375   */\n      dup5\n        /* \"#utility.yul\":11365:11370   */\n      dup3\n        /* \"#utility.yul\":11362:11376   */\n      gt\n        /* \"#utility.yul\":11359:11399   */\n      iszero\n      tag_503\n      jumpi\n        /* \"#utility.yul\":11379:11397   */\n      tag_504\n      tag_337\n      jump\t// in\n    tag_504:\n        /* \"#utility.yul\":11359:11399   */\n    tag_503:\n        /* \"#utility.yul\":11412:11417   */\n      pop\n      jump(tag_495)\n        /* \"#utility.yul\":11150:11427   */\n    tag_498:\n      pop\n        /* \"#utility.yul\":11536:11538   */\n      0x20\n        /* \"#utility.yul\":11526:11534   */\n      dup4\n        /* \"#utility.yul\":11523:11539   */\n      lt\n        /* \"#utility.yul\":11517:11520   */\n      0x0133\n        /* \"#utility.yul\":11511:11515   */\n      dup4\n        /* \"#utility.yul\":11508:11521   */\n      lt\n        /* \"#utility.yul\":11504:11540   */\n      and\n        /* \"#utility.yul\":11486:11488   */\n      0x4e\n        /* \"#utility.yul\":11476:11484   */\n      dup5\n        /* \"#utility.yul\":11473:11489   */\n      lt\n        /* \"#utility.yul\":11468:11470   */\n      0x0b\n        /* \"#utility.yul\":11462:11466   */\n      dup5\n        /* \"#utility.yul\":11459:11471   */\n      lt\n        /* \"#utility.yul\":11455:11490   */\n      and\n        /* \"#utility.yul\":11439:11550   */\n      or\n        /* \"#utility.yul\":11436:11682   */\n      iszero\n      tag_505\n      jumpi\n        /* \"#utility.yul\":11592:11600   */\n      dup3\n        /* \"#utility.yul\":11586:11590   */\n      dup3\n        /* \"#utility.yul\":11582:11601   */\n      exp\n        /* \"#utility.yul\":11573:11601   */\n      swap1\n      pop\n        /* \"#utility.yul\":11627:11630   */\n      dup4\n        /* \"#utility.yul\":11620:11625   */\n      dup2\n        /* \"#utility.yul\":11617:11631   */\n      gt\n        /* \"#utility.yul\":11614:11654   */\n      iszero\n      tag_506\n      jumpi\n        /* \"#utility.yul\":11634:11652   */\n      tag_507\n      tag_337\n      jump\t// in\n    tag_507:\n        /* \"#utility.yul\":11614:11654   */\n    tag_506:\n        /* \"#utility.yul\":11667:11672   */\n      jump(tag_495)\n        /* \"#utility.yul\":11436:11682   */\n    tag_505:\n        /* \"#utility.yul\":11707:11749   */\n      tag_508\n        /* \"#utility.yul\":11745:11748   */\n      dup5\n        /* \"#utility.yul\":11735:11743   */\n      dup5\n        /* \"#utility.yul\":11729:11733   */\n      dup5\n        /* \"#utility.yul\":11726:11727   */\n      0x01\n        /* \"#utility.yul\":11707:11749   */\n      tag_339\n      jump\t// in\n    tag_508:\n        /* \"#utility.yul\":11692:11749   */\n      swap3\n      pop\n      swap1\n      pop\n        /* \"#utility.yul\":11781:11785   */\n      dup2\n        /* \"#utility.yul\":11776:11779   */\n      dup5\n        /* \"#utility.yul\":11772:11786   */\n      div\n        /* \"#utility.yul\":11765:11770   */\n      dup2\n        /* \"#utility.yul\":11762:11787   */\n      gt\n        /* \"#utility.yul\":11759:11810   */\n      iszero\n      tag_509\n      jumpi\n        /* \"#utility.yul\":11790:11808   */\n      tag_510\n      tag_337\n      jump\t// in\n    tag_510:\n        /* \"#utility.yul\":11759:11810   */\n    tag_509:\n        /* \"#utility.yul\":11839:11843   */\n      dup2\n        /* \"#utility.yul\":11832:11837   */\n      dup2\n        /* \"#utility.yul\":11828:11844   */\n      mul\n        /* \"#utility.yul\":11819:11844   */\n      swap1\n      pop\n        /* \"#utility.yul\":10777:11850   */\n    tag_495:\n      swap4\n      swap3\n      pop\n      pop\n      pop\n      jump\t// out\n        /* \"#utility.yul\":11856:12137   */\n    tag_155:\n        /* \"#utility.yul\":11914:11919   */\n      0x00\n        /* \"#utility.yul\":11938:11961   */\n      tag_512\n        /* \"#utility.yul\":11956:11960   */\n      dup3\n        /* \"#utility.yul\":11938:11961   */\n      tag_318\n      jump\t// in\n    tag_512:\n        /* \"#utility.yul\":11930:11961   */\n      swap2\n      pop\n        /* \"#utility.yul\":11982:12007   */\n      tag_513\n        /* \"#utility.yul\":11998:12006   */\n      dup4\n        /* \"#utility.yul\":11982:12007   */\n      tag_327\n      jump\t// in\n    tag_513:\n        /* \"#utility.yul\":11970:12007   */\n      swap3\n      pop\n        /* \"#utility.yul\":12026:12130   */\n      tag_514\n        /* \"#utility.yul\":12063:12129   */\n      0xffffffffffffffffffffffffffffffffffffffffffffffffffffffffffffffff\n        /* \"#utility.yul\":12053:12061   */\n      dup5\n        /* \"#utility.yul\":12047:12051   */\n      dup5\n        /* \"#utility.yul\":12026:12130   */\n      tag_340\n      jump\t// in\n    tag_514:\n        /* \"#utility.yul\":12017:12130   */\n      swap1\n      pop\n        /* \"#utility.yul\":11856:12137   */\n      swap3\n      swap2\n      pop\n      pop\n      jump\t// out\n        /* \"#utility.yul\":12143:12553   */\n    tag_157:\n        /* \"#utility.yul\":12183:12190   */\n      0x00\n        /* \"#utility.yul\":12206:12226   */\n      tag_516\n        /* \"#utility.yul\":12224:12225   */\n      dup3\n        /* \"#utility.yul\":12206:12226   */\n      tag_318\n      jump\t// in\n    tag_516:\n        /* \"#utility.yul\":12201:12226   */\n      swap2\n      pop\n        /* \"#utility.yul\":12240:12260   */\n      tag_517\n        /* \"#utility.yul\":12258:12259   */\n      dup4\n        /* \"#utility.yul\":12240:12260   */\n      tag_318\n      jump\t// in\n    tag_517:\n        /* \"#utility.yul\":12235:12260   */\n      swap3\n      pop\n        /* \"#utility.yul\":12295:12296   */\n      dup3\n        /* \"#utility.yul\":12292:12293   */\n      dup3\n        /* \"#utility.yul\":12288:12297   */\n      mul\n        /* \"#utility.yul\":12317:12347   */\n      tag_518\n        /* \"#utility.yul\":12335:12346   */\n      dup2\n        /* \"#utility.yul\":12317:12347   */\n      tag_318\n      jump\t// in\n    tag_518:\n        /* \"#utility.yul\":12306:12347   */\n      swap2\n      pop\n        /* \"#utility.yul\":12496:12497   */\n      dup3\n        /* \"#utility.yul\":12487:12494   */\n      dup3\n        /* \"#utility.yul\":12483:12498   */\n      div\n        /* \"#utility.yul\":12480:12481   */\n      dup5\n        /* \"#utility.yul\":12477:12499   */\n      eq\n        /* \"#utility.yul\":12457:12458   */\n      dup4\n        /* \"#utility.yul\":12450:12459   */\n      iszero\n        /* \"#utility.yul\":12430:12513   */\n      or\n        /* \"#utility.yul\":12407:12546   */\n      tag_519\n      jumpi\n        /* \"#utility.yul\":12526:12544   */\n      tag_520\n      tag_337\n      jump\t// in\n    tag_520:\n        /* \"#utility.yul\":12407:12546   */\n    tag_519:\n        /* \"#utility.yul\":12191:12553   */\n      pop\n        /* \"#utility.yul\":12143:12553   */\n      swap3\n      swap2\n      pop\n      pop\n      jump\t// out\n        /* \"#utility.yul\":12559:12750   */\n    tag_171:\n        /* \"#utility.yul\":12599:12602   */\n      0x00\n        /* \"#utility.yul\":12618:12638   */\n      tag_522\n        /* \"#utility.yul\":12636:12637   */\n      dup3\n        /* \"#utility.yul\":12618:12638   */\n      tag_318\n      jump\t// in\n    tag_522:\n        /* \"#utility.yul\":12613:12638   */\n      swap2\n      pop\n        /* \"#utility.yul\":12652:12672   */\n      tag_523\n        /* \"#utility.yul\":12670:12671   */\n      dup4\n        /* \"#utility.yul\":12652:12672   */\n      tag_318\n      jump\t// in\n    tag_523:\n        /* \"#utility.yul\":12647:12672   */\n      swap3\n      pop\n        /* \"#utility.yul\":12695:12696   */\n      dup3\n        /* \"#utility.yul\":12692:12693   */\n      dup3\n        /* \"#utility.yul\":12688:12697   */\n      add\n        /* \"#utility.yul\":12681:12697   */\n      swap1\n      pop\n        /* \"#utility.yul\":12716:12719   */\n      dup1\n        /* \"#utility.yul\":12713:12714   */\n      dup3\n        /* \"#utility.yul\":12710:12720   */\n      gt\n        /* \"#utility.yul\":12707:12743   */\n      iszero\n      tag_524\n      jumpi\n        /* \"#utility.yul\":12723:12741   */\n      tag_525\n      tag_337\n      jump\t// in\n    tag_525:\n        /* \"#utility.yul\":12707:12743   */\n    tag_524:\n        /* \"#utility.yul\":12559:12750   */\n      swap3\n      swap2\n      pop\n      pop\n      jump\t// out\n        /* \"#utility.yul\":12756:12980   */\n    tag_341:\n        /* \"#utility.yul\":12896:12930   */\n      0x45524332303a2064656372656173656420616c6c6f77616e63652062656c6f77\n        /* \"#utility.yul\":12892:12893   */\n      0x00\n        /* \"#utility.yul\":12884:12890   */\n      dup3\n        /* \"#utility.yul\":12880:12894   */\n      add\n        /* \"#utility.yul\":12873:12931   */\n      mstore\n        /* \"#utility.yul\":12965:12972   */\n      0x207a65726f000000000000000000000000000000000000000000000000000000\n        /* \"#utility.yul\":12960:12962   */\n      0x20\n        /* \"#utility.yul\":12952:12958   */\n      dup3\n        /* \"#utility.yul\":12948:12963   */\n      add\n        /* \"#utility.yul\":12941:12973   */\n      mstore\n        /* \"#utility.yul\":12756:12980   */\n      pop\n      jump\t// out\n        /* \"#utility.yul\":12986:13352   */\n    tag_342:\n        /* \"#utility.yul\":13128:13131   */\n      0x00\n        /* \"#utility.yul\":13149:13216   */\n      tag_528\n        /* \"#utility.yul\":13213:13215   */\n      0x25\n        /* \"#utility.yul\":13208:13211   */\n      dup4\n        /* \"#utility.yul\":13149:13216   */\n      tag_307\n      jump\t// in\n    tag_528:\n        /* \"#utility.yul\":13142:13216   */\n      swap2\n      pop\n        /* \"#utility.yul\":13225:13318   */\n      tag_529\n        /* \"#utility.yul\":13314:13317   */\n      dup3\n        /* \"#utility.yul\":13225:13318   */\n      tag_341\n      jump\t// in\n    tag_529:\n        /* \"#utility.yul\":13343:13345   */\n      0x40\n        /* \"#utility.yul\":13338:13341   */\n      dup3\n        /* \"#utility.yul\":13334:13346   */\n      add\n        /* \"#utility.yul\":13327:13346   */\n      swap1\n      pop\n        /* \"#utility.yul\":12986:13352   */\n      swap2\n      swap1\n      pop\n      jump\t// out\n        /* \"#utility.yul\":13358:13777   */\n    tag_196:\n        /* \"#utility.yul\":13524:13528   */\n      0x00\n        /* \"#utility.yul\":13562:13564   */\n      0x20\n        /* \"#utility.yul\":13551:13560   */\n      dup3\n        /* \"#utility.yul\":13547:13565   */\n      add\n        /* \"#utility.yul\":13539:13565   */\n      swap1\n      pop\n        /* \"#utility.yul\":13611:13620   */\n      dup2\n        /* \"#utility.yul\":13605:13609   */\n      dup2\n        /* \"#utility.yul\":13601:13621   */\n      sub\n        /* \"#utility.yul\":13597:13598   */\n      0x00\n        /* \"#utility.yul\":13586:13595   */\n      dup4\n        /* \"#utility.yul\":13582:13599   */\n      add\n        /* \"#utility.yul\":13575:13622   */\n      mstore\n        /* \"#utility.yul\":13639:13770   */\n      tag_531\n        /* \"#utility.yul\":13765:13769   */\n      dup2\n        /* \"#utility.yul\":13639:13770   */\n      tag_342\n      jump\t// in\n    tag_531:\n        /* \"#utility.yul\":13631:13770   */\n      swap1\n      pop\n        /* \"#utility.yul\":13358:13777   */\n      swap2\n      swap1\n      pop\n      jump\t// out\n        /* \"#utility.yul\":13783:14008   */\n    tag_343:\n        /* \"#utility.yul\":13923:13957   */\n      0x4f776e61626c653a206e6577206f776e657220697320746865207a65726f2061\n        /* \"#utility.yul\":13919:13920   */\n      0x00\n        /* \"#utility.yul\":13911:13917   */\n      dup3\n        /* \"#utility.yul\":13907:13921   */\n      add\n        /* \"#utility.yul\":13900:13958   */\n      mstore\n        /* \"#utility.yul\":13992:14000   */\n      0x6464726573730000000000000000000000000000000000000000000000000000\n        /* \"#utility.yul\":13987:13989   */\n      0x20\n        /* \"#utility.yul\":13979:13985   */\n      dup3\n        /* \"#utility.yul\":13975:13990   */\n      add\n        /* \"#utility.yul\":13968:14001   */\n      mstore\n        /* \"#utility.yul\":13783:14008   */\n      pop\n      jump\t// out\n        /* \"#utility.yul\":14014:14380   */\n    tag_344:\n        /* \"#utility.yul\":14156:14159   */\n      0x00\n        /* \"#utility.yul\":14177:14244   */\n      tag_534\n        /* \"#utility.yul\":14241:14243   */\n      0x26\n        /* \"#utility.yul\":14236:14239   */\n      dup4\n        /* \"#utility.yul\":14177:14244   */\n      tag_307\n      jump\t// in\n    tag_534:\n        /* \"#utility.yul\":14170:14244   */\n      swap2\n      pop\n        /* \"#utility.yul\":14253:14346   */\n      tag_535\n        /* \"#utility.yul\":14342:14345   */\n      dup3\n        /* \"#utility.yul\":14253:14346   */\n      tag_343\n      jump\t// in\n    tag_535:\n        /* \"#utility.yul\":14371:14373   */\n      0x40\n        /* \"#utility.yul\":14366:14369   */\n      dup3\n        /* \"#utility.yul\":14362:14374   */\n      add\n        /* \"#utility.yul\":14355:14374   */\n      swap1\n      pop\n        /* \"#utility.yul\":14014:14380   */\n      swap2\n      swap1\n      pop\n      jump\t// out\n        /* \"#utility.yul\":14386:14805   */\n    tag_211:\n        /* \"#utility.yul\":14552:14556   */\n      0x00\n        /* \"#utility.yul\":14590:14592   */\n      0x20\n        /* \"#utility.yul\":14579:14588   */\n      dup3\n        /* \"#utility.yul\":14575:14593   */\n      add\n        /* \"#utility.yul\":14567:14593   */\n      swap1\n      pop\n        /* \"#utility.yul\":14639:14648   */\n      dup2\n        /* \"#utility.yul\":14633:14637   */\n      dup2\n        /* \"#utility.yul\":14629:14649   */\n      sub\n        /* \"#utility.yul\":14625:14626   */\n      0x00\n        /* \"#utility.yul\":14614:14623   */\n      dup4\n        /* \"#utility.yul\":14610:14627   */\n      add\n        /* \"#utility.yul\":14603:14650   */\n      mstore\n        /* \"#utility.yul\":14667:14798   */\n      tag_537\n        /* \"#utility.yul\":14793:14797   */\n      dup2\n        /* \"#utility.yul\":14667:14798   */\n      tag_344\n      jump\t// in\n    tag_537:\n        /* \"#utility.yul\":14659:14798   */\n      swap1\n      pop\n        /* \"#utility.yul\":14386:14805   */\n      swap2\n      swap1\n      pop\n      jump\t// out\n        /* \"#utility.yul\":14811:15034   */\n    tag_345:\n        /* \"#utility.yul\":14951:14985   */\n      0x45524332303a20617070726f76652066726f6d20746865207a65726f20616464\n        /* \"#utility.yul\":14947:14948   */\n      0x00\n        /* \"#utility.yul\":14939:14945   */\n      dup3\n        /* \"#utility.yul\":14935:14949   */\n      add\n        /* \"#utility.yul\":14928:14986   */\n      mstore\n        /* \"#utility.yul\":15020:15026   */\n      0x7265737300000000000000000000000000000000000000000000000000000000\n        /* \"#utility.yul\":15015:15017   */\n      0x20\n        /* \"#utility.yul\":15007:15013   */\n      dup3\n        /* \"#utility.yul\":15003:15018   */\n      add\n        /* \"#utility.yul\":14996:15027   */\n      mstore\n        /* \"#utility.yul\":14811:15034   */\n      pop\n      jump\t// out\n        /* \"#utility.yul\":15040:15406   */\n    tag_346:\n        /* \"#utility.yul\":15182:15185   */\n      0x00\n        /* \"#utility.yul\":15203:15270   */\n      tag_540\n        /* \"#utility.yul\":15267:15269   */\n      0x24\n        /* \"#utility.yul\":15262:15265   */\n      dup4\n        /* \"#utility.yul\":15203:15270   */\n      tag_307\n      jump\t// in\n    tag_540:\n        /* \"#utility.yul\":15196:15270   */\n      swap2\n      pop\n        /* \"#utility.yul\":15279:15372   */\n      tag_541\n        /* \"#utility.yul\":15368:15371   */\n      dup3\n        /* \"#utility.yul\":15279:15372   */\n      tag_345\n      jump\t// in\n    tag_541:\n        /* \"#utility.yul\":15397:15399   */\n      0x40\n        /* \"#utility.yul\":15392:15395   */\n      dup3\n        /* \"#utility.yul\":15388:15400   */\n      add\n        /* \"#utility.yul\":15381:15400   */\n      swap1\n      pop\n        /* \"#utility.yul\":15040:15406   */\n      swap2\n      swap1\n      pop\n      jump\t// out\n        /* \"#utility.yul\":15412:15831   */\n    tag_217:\n        /* \"#utility.yul\":15578:15582   */\n      0x00\n        /* \"#utility.yul\":15616:15618   */\n      0x20\n        /* \"#utility.yul\":15605:15614   */\n      dup3\n        /* \"#utility.yul\":15601:15619   */\n      add\n        /* \"#utility.yul\":15593:15619   */\n      swap1\n      pop\n        /* \"#utility.yul\":15665:15674   */\n      dup2\n        /* \"#utility.yul\":15659:15663   */\n      dup2\n        /* \"#utility.yul\":15655:15675   */\n      sub\n        /* \"#utility.yul\":15651:15652   */\n      0x00\n        /* \"#utility.yul\":15640:15649   */\n      dup4\n        /* \"#utility.yul\":15636:15653   */\n      add\n        /* \"#utility.yul\":15629:15676   */\n      mstore\n        /* \"#utility.yul\":15693:15824   */\n      tag_543\n        /* \"#utility.yul\":15819:15823   */\n      dup2\n        /* \"#utility.yul\":15693:15824   */\n      tag_346\n      jump\t// in\n    tag_543:\n        /* \"#utility.yul\":15685:15824   */\n      swap1\n      pop\n        /* \"#utility.yul\":15412:15831   */\n      swap2\n      swap1\n      pop\n      jump\t// out\n        /* \"#utility.yul\":15837:16058   */\n    tag_347:\n        /* \"#utility.yul\":15977:16011   */\n      0x45524332303a20617070726f766520746f20746865207a65726f206164647265\n        /* \"#utility.yul\":15973:15974   */\n      0x00\n        /* \"#utility.yul\":15965:15971   */\n      dup3\n        /* \"#utility.yul\":15961:15975   */\n      add\n        /* \"#utility.yul\":15954:16012   */\n      mstore\n        /* \"#utility.yul\":16046:16050   */\n      0x7373000000000000000000000000000000000000000000000000000000000000\n        /* \"#utility.yul\":16041:16043   */\n      0x20\n        /* \"#utility.yul\":16033:16039   */\n      dup3\n        /* \"#utility.yul\":16029:16044   */\n      add\n        /* \"#utility.yul\":16022:16051   */\n      mstore\n        /* \"#utility.yul\":15837:16058   */\n      pop\n      jump\t// out\n        /* \"#utility.yul\":16064:16430   */\n    tag_348:\n        /* \"#utility.yul\":16206:16209   */\n      0x00\n        /* \"#utility.yul\":16227:16294   */\n      tag_546\n        /* \"#utility.yul\":16291:16293   */\n      0x22\n        /* \"#utility.yul\":16286:16289   */\n      dup4\n        /* \"#utility.yul\":16227:16294   */\n      tag_307\n      jump\t// in\n    tag_546:\n        /* \"#utility.yul\":16220:16294   */\n      swap2\n      pop\n        /* \"#utility.yul\":16303:16396   */\n      tag_547\n        /* \"#utility.yul\":16392:16395   */\n      dup3\n        /* \"#utility.yul\":16303:16396   */\n      tag_347\n      jump\t// in\n    tag_547:\n        /* \"#utility.yul\":16421:16423   */\n      0x40\n        /* \"#utility.yul\":16416:16419   */\n      dup3\n        /* \"#utility.yul\":16412:16424   */\n      add\n        /* \"#utility.yul\":16405:16424   */\n      swap1\n      pop\n        /* \"#utility.yul\":16064:16430   */\n      swap2\n      swap1\n      pop\n      jump\t// out\n        /* \"#utility.yul\":16436:16855   */\n    tag_220:\n        /* \"#utility.yul\":16602:16606   */\n      0x00\n        /* \"#utility.yul\":16640:16642   */\n      0x20\n        /* \"#utility.yul\":16629:16638   */\n      dup3\n        /* \"#utility.yul\":16625:16643   */\n      add\n        /* \"#utility.yul\":16617:16643   */\n      swap1\n      pop\n        /* \"#utility.yul\":16689:16698   */\n      dup2\n        /* \"#utility.yul\":16683:16687   */\n      dup2\n        /* \"#utility.yul\":16679:16699   */\n      sub\n        /* \"#utility.yul\":16675:16676   */\n      0x00\n        /* \"#utility.yul\":16664:16673   */\n      dup4\n        /* \"#utility.yul\":16660:16677   */\n      add\n        /* \"#utility.yul\":16653:16700   */\n      mstore\n        /* \"#utility.yul\":16717:16848   */\n      tag_549\n        /* \"#utility.yul\":16843:16847   */\n      dup2\n        /* \"#utility.yul\":16717:16848   */\n      tag_348\n      jump\t// in\n    tag_549:\n        /* \"#utility.yul\":16709:16848   */\n      swap1\n      pop\n        /* \"#utility.yul\":16436:16855   */\n      swap2\n      swap1\n      pop\n      jump\t// out\n        /* \"#utility.yul\":16861:17043   */\n    tag_349:\n        /* \"#utility.yul\":17001:17035   */\n      0x4f776e61626c653a2063616c6c6572206973206e6f7420746865206f776e6572\n        /* \"#utility.yul\":16997:16998   */\n      0x00\n        /* \"#utility.yul\":16989:16995   */\n      dup3\n        /* \"#utility.yul\":16985:16999   */\n      add\n        /* \"#utility.yul\":16978:17036   */\n      mstore\n        /* \"#utility.yul\":16861:17043   */\n      pop\n      jump\t// out\n        /* \"#utility.yul\":17049:17415   */\n    tag_350:\n        /* \"#utility.yul\":17191:17194   */\n      0x00\n        /* \"#utility.yul\":17212:17279   */\n      tag_552\n        /* \"#utility.yul\":17276:17278   */\n      0x20\n        /* \"#utility.yul\":17271:17274   */\n      dup4\n        /* \"#utility.yul\":17212:17279   */\n      tag_307\n      jump\t// in\n    tag_552:\n        /* \"#utility.yul\":17205:17279   */\n      swap2\n      pop\n        /* \"#utility.yul\":17288:17381   */\n      tag_553\n        /* \"#utility.yul\":17377:17380   */\n      dup3\n        /* \"#utility.yul\":17288:17381   */\n      tag_349\n      jump\t// in\n    tag_553:\n        /* \"#utility.yul\":17406:17408   */\n      0x20\n        /* \"#utility.yul\":17401:17404   */\n      dup3\n        /* \"#utility.yul\":17397:17409   */\n      add\n        /* \"#utility.yul\":17390:17409   */\n      swap1\n      pop\n        /* \"#utility.yul\":17049:17415   */\n      swap2\n      swap1\n      pop\n      jump\t// out\n        /* \"#utility.yul\":17421:17840   */\n    tag_227:\n        /* \"#utility.yul\":17587:17591   */\n      0x00\n        /* \"#utility.yul\":17625:17627   */\n      0x20\n        /* \"#utility.yul\":17614:17623   */\n      dup3\n        /* \"#utility.yul\":17610:17628   */\n      add\n        /* \"#utility.yul\":17602:17628   */\n      swap1\n      pop\n        /* \"#utility.yul\":17674:17683   */\n      dup2\n        /* \"#utility.yul\":17668:17672   */\n      dup2\n        /* \"#utility.yul\":17664:17684   */\n      sub\n        /* \"#utility.yul\":17660:17661   */\n      0x00\n        /* \"#utility.yul\":17649:17658   */\n      dup4\n        /* \"#utility.yul\":17645:17662   */\n      add\n        /* \"#utility.yul\":17638:17685   */\n      mstore\n        /* \"#utility.yul\":17702:17833   */\n      tag_555\n        /* \"#utility.yul\":17828:17832   */\n      dup2\n        /* \"#utility.yul\":17702:17833   */\n      tag_350\n      jump\t// in\n    tag_555:\n        /* \"#utility.yul\":17694:17833   */\n      swap1\n      pop\n        /* \"#utility.yul\":17421:17840   */\n      swap2\n      swap1\n      pop\n      jump\t// out\n        /* \"#utility.yul\":17846:18025   */\n    tag_351:\n        /* \"#utility.yul\":17986:18017   */\n      0x45524332303a20696e73756666696369656e7420616c6c6f77616e6365000000\n        /* \"#utility.yul\":17982:17983   */\n      0x00\n        /* \"#utility.yul\":17974:17980   */\n      dup3\n        /* \"#utility.yul\":17970:17984   */\n      add\n        /* \"#utility.yul\":17963:18018   */\n      mstore\n        /* \"#utility.yul\":17846:18025   */\n      pop\n      jump\t// out\n        /* \"#utility.yul\":18031:18397   */\n    tag_352:\n        /* \"#utility.yul\":18173:18176   */\n      0x00\n        /* \"#utility.yul\":18194:18261   */\n      tag_558\n        /* \"#utility.yul\":18258:18260   */\n      0x1d\n        /* \"#utility.yul\":18253:18256   */\n      dup4\n        /* \"#utility.yul\":18194:18261   */\n      tag_307\n      jump\t// in\n    tag_558:\n        /* \"#utility.yul\":18187:18261   */\n      swap2\n      pop\n        /* \"#utility.yul\":18270:18363   */\n      tag_559\n        /* \"#utility.yul\":18359:18362   */\n      dup3\n        /* \"#utility.yul\":18270:18363   */\n      tag_351\n      jump\t// in\n    tag_559:\n        /* \"#utility.yul\":18388:18390   */\n      0x20\n        /* \"#utility.yul\":18383:18386   */\n      dup3\n        /* \"#utility.yul\":18379:18391   */\n      add\n        /* \"#utility.yul\":18372:18391   */\n      swap1\n      pop\n        /* \"#utility.yul\":18031:18397   */\n      swap2\n      swap1\n      pop\n      jump\t// out\n        /* \"#utility.yul\":18403:18822   */\n    tag_233:\n        /* \"#utility.yul\":18569:18573   */\n      0x00\n        /* \"#utility.yul\":18607:18609   */\n      0x20\n        /* \"#utility.yul\":18596:18605   */\n      dup3\n        /* \"#utility.yul\":18592:18610   */\n      add\n        /* \"#utility.yul\":18584:18610   */\n      swap1\n      pop\n        /* \"#utility.yul\":18656:18665   */\n      dup2\n        /* \"#utility.yul\":18650:18654   */\n      dup2\n        /* \"#utility.yul\":18646:18666   */\n      sub\n        /* \"#utility.yul\":18642:18643   */\n      0x00\n        /* \"#utility.yul\":18631:18640   */\n      dup4\n        /* \"#utility.yul\":18627:18644   */\n      add\n        /* \"#utility.yul\":18620:18667   */\n      mstore\n        /* \"#utility.yul\":18684:18815   */\n      tag_561\n        /* \"#utility.yul\":18810:18814   */\n      dup2\n        /* \"#utility.yul\":18684:18815   */\n      tag_352\n      jump\t// in\n    tag_561:\n        /* \"#utility.yul\":18676:18815   */\n      swap1\n      pop\n        /* \"#utility.yul\":18403:18822   */\n      swap2\n      swap1\n      pop\n      jump\t// out\n        /* \"#utility.yul\":18828:19008   */\n    tag_353:\n        /* \"#utility.yul\":18876:18953   */\n      0x4e487b7100000000000000000000000000000000000000000000000000000000\n        /* \"#utility.yul\":18873:18874   */\n      0x00\n        /* \"#utility.yul\":18866:18954   */\n      mstore\n        /* \"#utility.yul\":18973:18977   */\n      0x12\n        /* \"#utility.yul\":18970:18971   */\n      0x04\n        /* \"#utility.yul\":18963:18978   */\n      mstore\n        /* \"#utility.yul\":18997:19001   */\n      0x24\n        /* \"#utility.yul\":18994:18995   */\n      0x00\n        /* \"#utility.yul\":18987:19002   */\n      revert\n        /* \"#utility.yul\":19014:19199   */\n    tag_239:\n        /* \"#utility.yul\":19054:19055   */\n      0x00\n        /* \"#utility.yul\":19071:19091   */\n      tag_564\n        /* \"#utility.yul\":19089:19090   */\n      dup3\n        /* \"#utility.yul\":19071:19091   */\n      tag_318\n      jump\t// in\n    tag_564:\n        /* \"#utility.yul\":19066:19091   */\n      swap2\n      pop\n        /* \"#utility.yul\":19105:19125   */\n      tag_565\n        /* \"#utility.yul\":19123:19124   */\n      dup4\n        /* \"#utility.yul\":19105:19125   */\n      tag_318\n      jump\t// in\n    tag_565:\n        /* \"#utility.yul\":19100:19125   */\n      swap3\n      pop\n        /* \"#utility.yul\":19144:19145   */\n      dup3\n        /* \"#utility.yul\":19134:19169   */\n      tag_566\n      jumpi\n        /* \"#utility.yul\":19149:19167   */\n      tag_567\n      tag_353\n      jump\t// in\n    tag_567:\n        /* \"#utility.yul\":19134:19169   */\n    tag_566:\n        /* \"#utility.yul\":19191:19192   */\n      dup3\n        /* \"#utility.yul\":19188:19189   */\n      dup3\n        /* \"#utility.yul\":19184:19193   */\n      div\n        /* \"#utility.yul\":19179:19193   */\n      swap1\n      pop\n        /* \"#utility.yul\":19014:19199   */\n      swap3\n      swap2\n      pop\n      pop\n      jump\t// out\n        /* \"#utility.yul\":19205:19399   */\n    tag_246:\n        /* \"#utility.yul\":19245:19249   */\n      0x00\n        /* \"#utility.yul\":19265:19285   */\n      tag_569\n        /* \"#utility.yul\":19283:19284   */\n      dup3\n        /* \"#utility.yul\":19265:19285   */\n      tag_318\n      jump\t// in\n    tag_569:\n        /* \"#utility.yul\":19260:19285   */\n      swap2\n      pop\n        /* \"#utility.yul\":19299:19319   */\n      tag_570\n        /* \"#utility.yul\":19317:19318   */\n      dup4\n        /* \"#utility.yul\":19299:19319   */\n      tag_318\n      jump\t// in\n    tag_570:\n        /* \"#utility.yul\":19294:19319   */\n      swap3\n      pop\n        /* \"#utility.yul\":19343:19344   */\n      dup3\n        /* \"#utility.yul\":19340:19341   */\n      dup3\n        /* \"#utility.yul\":19336:19345   */\n      sub\n        /* \"#utility.yul\":19328:19345   */\n      swap1\n      pop\n        /* \"#utility.yul\":19367:19368   */\n      dup2\n        /* \"#utility.yul\":19361:19365   */\n      dup2\n        /* \"#utility.yul\":19358:19369   */\n      gt\n        /* \"#utility.yul\":19355:19392   */\n      iszero\n      tag_571\n      jumpi\n        /* \"#utility.yul\":19372:19390   */\n      tag_572\n      tag_337\n      jump\t// in\n    tag_572:\n        /* \"#utility.yul\":19355:19392   */\n    tag_571:\n        /* \"#utility.yul\":19205:19399   */\n      swap3\n      swap2\n      pop\n      pop\n      jump\t// out\n        /* \"#utility.yul\":19405:19629   */\n    tag_354:\n        /* \"#utility.yul\":19545:19579   */\n      0x45524332303a207472616e736665722066726f6d20746865207a65726f206164\n        /* \"#utility.yul\":19541:19542   */\n      0x00\n        /* \"#utility.yul\":19533:19539   */\n      dup3\n        /* \"#utility.yul\":19529:19543   */\n      add\n        /* \"#utility.yul\":19522:19580   */\n      mstore\n        /* \"#utility.yul\":19614:19621   */\n      0x6472657373000000000000000000000000000000000000000000000000000000\n        /* \"#utility.yul\":19609:19611   */\n      0x20\n        /* \"#utility.yul\":19601:19607   */\n      dup3\n        /* \"#utility.yul\":19597:19612   */\n      add\n        /* \"#utility.yul\":19590:19622   */\n      mstore\n        /* \"#utility.yul\":19405:19629   */\n      pop\n      jump\t// out\n        /* \"#utility.yul\":19635:20001   */\n    tag_355:\n        /* \"#utility.yul\":19777:19780   */\n      0x00\n        /* \"#utility.yul\":19798:19865   */\n      tag_575\n        /* \"#utility.yul\":19862:19864   */\n      0x25\n        /* \"#utility.yul\":19857:19860   */\n      dup4\n        /* \"#utility.yul\":19798:19865   */\n      tag_307\n      jump\t// in\n    tag_575:\n        /* \"#utility.yul\":19791:19865   */\n      swap2\n      pop\n        /* \"#utility.yul\":19874:19967   */\n      tag_576\n        /* \"#utility.yul\":19963:19966   */\n      dup3\n        /* \"#utility.yul\":19874:19967   */\n      tag_354\n      jump\t// in\n    tag_576:\n        /* \"#utility.yul\":19992:19994   */\n      0x40\n        /* \"#utility.yul\":19987:19990   */\n      dup3\n        /* \"#utility.yul\":19983:19995   */\n      add\n        /* \"#utility.yul\":19976:19995   */\n      swap1\n      pop\n        /* \"#utility.yul\":19635:20001   */\n      swap2\n      swap1\n      pop\n      jump\t// out\n        /* \"#utility.yul\":20007:20426   */\n    tag_265:\n        /* \"#utility.yul\":20173:20177   */\n      0x00\n        /* \"#utility.yul\":20211:20213   */\n      0x20\n        /* \"#utility.yul\":20200:20209   */\n      dup3\n        /* \"#utility.yul\":20196:20214   */\n      add\n        /* \"#utility.yul\":20188:20214   */\n      swap1\n      pop\n        /* \"#utility.yul\":20260:20269   */\n      dup2\n        /* \"#utility.yul\":20254:20258   */\n      dup2\n        /* \"#utility.yul\":20250:20270   */\n      sub\n        /* \"#utility.yul\":20246:20247   */\n      0x00\n        /* \"#utility.yul\":20235:20244   */\n      dup4\n        /* \"#utility.yul\":20231:20248   */\n      add\n        /* \"#utility.yul\":20224:20271   */\n      mstore\n        /* \"#utility.yul\":20288:20419   */\n      tag_578\n        /* \"#utility.yul\":20414:20418   */\n      dup2\n        /* \"#utility.yul\":20288:20419   */\n      tag_355\n      jump\t// in\n    tag_578:\n        /* \"#utility.yul\":20280:20419   */\n      swap1\n      pop\n        /* \"#utility.yul\":20007:20426   */\n      swap2\n      swap1\n      pop\n      jump\t// out\n        /* \"#utility.yul\":20432:20654   */\n    tag_356:\n        /* \"#utility.yul\":20572:20606   */\n      0x45524332303a207472616e7366657220746f20746865207a65726f2061646472\n        /* \"#utility.yul\":20568:20569   */\n      0x00\n        /* \"#utility.yul\":20560:20566   */\n      dup3\n        /* \"#utility.yul\":20556:20570   */\n      add\n        /* \"#utility.yul\":20549:20607   */\n      mstore\n        /* \"#utility.yul\":20641:20646   */\n      0x6573730000000000000000000000000000000000000000000000000000000000\n        /* \"#utility.yul\":20636:20638   */\n      0x20\n        /* \"#utility.yul\":20628:20634   */\n      dup3\n        /* \"#utility.yul\":20624:20639   */\n      add\n        /* \"#utility.yul\":20617:20647   */\n      mstore\n        /* \"#utility.yul\":20432:20654   */\n      pop\n      jump\t// out\n        /* \"#utility.yul\":20660:21026   */\n    tag_357:\n        /* \"#utility.yul\":20802:20805   */\n      0x00\n        /* \"#utility.yul\":20823:20890   */\n      tag_581\n        /* \"#utility.yul\":20887:20889   */\n      0x23\n        /* \"#utility.yul\":20882:20885   */\n      dup4\n        /* \"#utility.yul\":20823:20890   */\n      tag_307\n      jump\t// in\n    tag_581:\n        /* \"#utility.yul\":20816:20890   */\n      swap2\n      pop\n        /* \"#utility.yul\":20899:20992   */\n      tag_582\n        /* \"#utility.yul\":20988:20991   */\n      dup3\n        /* \"#utility.yul\":20899:20992   */\n      tag_356\n      jump\t// in\n    tag_582:\n        /* \"#utility.yul\":21017:21019   */\n      0x40\n        /* \"#utility.yul\":21012:21015   */\n      dup3\n        /* \"#utility.yul\":21008:21020   */\n      add\n        /* \"#utility.yul\":21001:21020   */\n      swap1\n      pop\n        /* \"#utility.yul\":20660:21026   */\n      swap2\n      swap1\n      pop\n      jump\t// out\n        /* \"#utility.yul\":21032:21451   */\n    tag_268:\n        /* \"#utility.yul\":21198:21202   */\n      0x00\n        /* \"#utility.yul\":21236:21238   */\n      0x20\n        /* \"#utility.yul\":21225:21234   */\n      dup3\n        /* \"#utility.yul\":21221:21239   */\n      add\n        /* \"#utility.yul\":21213:21239   */\n      swap1\n      pop\n        /* \"#utility.yul\":21285:21294   */\n      dup2\n        /* \"#utility.yul\":21279:21283   */\n      dup2\n        /* \"#utility.yul\":21275:21295   */\n      sub\n        /* \"#utility.yul\":21271:21272   */\n      0x00\n        /* \"#utility.yul\":21260:21269   */\n      dup4\n        /* \"#utility.yul\":21256:21273   */\n      add\n        /* \"#utility.yul\":21249:21296   */\n      mstore\n        /* \"#utility.yul\":21313:21444   */\n      tag_584\n        /* \"#utility.yul\":21439:21443   */\n      dup2\n        /* \"#utility.yul\":21313:21444   */\n      tag_357\n      jump\t// in\n    tag_584:\n        /* \"#utility.yul\":21305:21444   */\n      swap1\n      pop\n        /* \"#utility.yul\":21032:21451   */\n      swap2\n      swap1\n      pop\n      jump\t// out\n        /* \"#utility.yul\":21457:21682   */\n    tag_358:\n        /* \"#utility.yul\":21597:21631   */\n      0x45524332303a207472616e7366657220616d6f756e7420657863656564732062\n        /* \"#utility.yul\":21593:21594   */\n      0x00\n        /* \"#utility.yul\":21585:21591   */\n      dup3\n        /* \"#utility.yul\":21581:21595   */\n      add\n        /* \"#utility.yul\":21574:21632   */\n      mstore\n        /* \"#utility.yul\":21666:21674   */\n      0x616c616e63650000000000000000000000000000000000000000000000000000\n        /* \"#utility.yul\":21661:21663   */\n      0x20\n        /* \"#utility.yul\":21653:21659   */\n      dup3\n        /* \"#utility.yul\":21649:21664   */\n      add\n        /* \"#utility.yul\":21642:21675   */\n      mstore\n        /* \"#utility.yul\":21457:21682   */\n      pop\n      jump\t// out\n        /* \"#utility.yul\":21688:22054   */\n    tag_359:\n        /* \"#utility.yul\":21830:21833   */\n      0x00\n        /* \"#utility.yul\":21851:21918   */\n      tag_587\n        /* \"#utility.yul\":21915:21917   */\n      0x26\n        /* \"#utility.yul\":21910:21913   */\n      dup4\n        /* \"#utility.yul\":21851:21918   */\n      tag_307\n      jump\t// in\n    tag_587:\n        /* \"#utility.yul\":21844:21918   */\n      swap2\n      pop\n        /* \"#utility.yul\":21927:22020   */\n      tag_588\n        /* \"#utility.yul\":22016:22019   */\n      dup3\n        /* \"#utility.yul\":21927:22020   */\n      tag_358\n      jump\t// in\n    tag_588:\n        /* \"#utility.yul\":22045:22047   */\n      0x40\n        /* \"#utility.yul\":22040:22043   */\n      dup3\n        /* \"#utility.yul\":22036:22048   */\n      add\n        /* \"#utility.yul\":22029:22048   */\n      swap1\n      pop\n        /* \"#utility.yul\":21688:22054   */\n      swap2\n      swap1\n      pop\n      jump\t// out\n        /* \"#utility.yul\":22060:22479   */\n    tag_271:\n        /* \"#utility.yul\":22226:22230   */\n      0x00\n        /* \"#utility.yul\":22264:22266   */\n      0x20\n        /* \"#utility.yul\":22253:22262   */\n      dup3\n        /* \"#utility.yul\":22249:22267   */\n      add\n        /* \"#utility.yul\":22241:22267   */\n      swap1\n      pop\n        /* \"#utility.yul\":22313:22322   */\n      dup2\n        /* \"#utility.yul\":22307:22311   */\n      dup2\n        /* \"#utility.yul\":22303:22323   */\n      sub\n        /* \"#utility.yul\":22299:22300   */\n      0x00\n        /* \"#utility.yul\":22288:22297   */\n      dup4\n        /* \"#utility.yul\":22284:22301   */\n      add\n        /* \"#utility.yul\":22277:22324   */\n      mstore\n        /* \"#utility.yul\":22341:22472   */\n      tag_590\n        /* \"#utility.yul\":22467:22471   */\n      dup2\n        /* \"#utility.yul\":22341:22472   */\n      tag_359\n      jump\t// in\n    tag_590:\n        /* \"#utility.yul\":22333:22472   */\n      swap1\n      pop\n        /* \"#utility.yul\":22060:22479   */\n      swap2\n      swap1\n      pop\n      jump\t// out\n        /* \"#utility.yul\":22485:22665   */\n    tag_282:\n        /* \"#utility.yul\":22533:22610   */\n      0x4e487b7100000000000000000000000000000000000000000000000000000000\n        /* \"#utility.yul\":22530:22531   */\n      0x00\n        /* \"#utility.yul\":22523:22611   */\n      mstore\n        /* \"#utility.yul\":22630:22634   */\n      0x41\n        /* \"#utility.yul\":22627:22628   */\n      0x04\n        /* \"#utility.yul\":22620:22635   */\n      mstore\n        /* \"#utility.yul\":22654:22658   */\n      0x24\n        /* \"#utility.yul\":22651:22652   */\n      0x00\n        /* \"#utility.yul\":22644:22659   */\n      revert\n        /* \"#utility.yul\":22671:22851   */\n    tag_286:\n        /* \"#utility.yul\":22719:22796   */\n      0x4e487b7100000000000000000000000000000000000000000000000000000000\n        /* \"#utility.yul\":22716:22717   */\n      0x00\n        /* \"#utility.yul\":22709:22797   */\n      mstore\n        /* \"#utility.yul\":22816:22820   */\n      0x32\n        /* \"#utility.yul\":22813:22814   */\n      0x04\n        /* \"#utility.yul\":22806:22821   */\n      mstore\n        /* \"#utility.yul\":22840:22844   */\n      0x24\n        /* \"#utility.yul\":22837:22838   */\n      0x00\n        /* \"#utility.yul\":22830:22845   */\n      revert\n        /* \"#utility.yul\":22857:23000   */\n    tag_360:\n        /* \"#utility.yul\":22914:22919   */\n      0x00\n        /* \"#utility.yul\":22945:22951   */\n      dup2\n        /* \"#utility.yul\":22939:22952   */\n      mload\n        /* \"#utility.yul\":22930:22952   */\n      swap1\n      pop\n        /* \"#utility.yul\":22961:22994   */\n      tag_594\n        /* \"#utility.yul\":22988:22993   */\n      dup2\n        /* \"#utility.yul\":22961:22994   */\n      tag_316\n      jump\t// in\n    tag_594:\n        /* \"#utility.yul\":22857:23000   */\n      swap3\n      swap2\n      pop\n      pop\n      jump\t// out\n        /* \"#utility.yul\":23006:23357   */\n    tag_290:\n        /* \"#utility.yul\":23076:23082   */\n      0x00\n        /* \"#utility.yul\":23125:23127   */\n      0x20\n        /* \"#utility.yul\":23113:23122   */\n      dup3\n        /* \"#utility.yul\":23104:23111   */\n      dup5\n        /* \"#utility.yul\":23100:23123   */\n      sub\n        /* \"#utility.yul\":23096:23128   */\n      slt\n        /* \"#utility.yul\":23093:23212   */\n      iszero\n      tag_596\n      jumpi\n        /* \"#utility.yul\":23131:23210   */\n      tag_597\n      tag_312\n      jump\t// in\n    tag_597:\n        /* \"#utility.yul\":23093:23212   */\n    tag_596:\n        /* \"#utility.yul\":23251:23252   */\n      0x00\n        /* \"#utility.yul\":23276:23340   */\n      tag_598\n        /* \"#utility.yul\":23332:23339   */\n      dup5\n        /* \"#utility.yul\":23323:23329   */\n      dup3\n        /* \"#utility.yul\":23312:23321   */\n      dup6\n        /* \"#utility.yul\":23308:23330   */\n      add\n        /* \"#utility.yul\":23276:23340   */\n      tag_360\n      jump\t// in\n    tag_598:\n        /* \"#utility.yul\":23266:23340   */\n      swap2\n      pop\n        /* \"#utility.yul\":23222:23350   */\n      pop\n        /* \"#utility.yul\":23006:23357   */\n      swap3\n      swap2\n      pop\n      pop\n      jump\t// out\n        /* \"#utility.yul\":23363:23448   */\n    tag_361:\n        /* \"#utility.yul\":23408:23415   */\n      0x00\n        /* \"#utility.yul\":23437:23442   */\n      dup2\n        /* \"#utility.yul\":23426:23442   */\n      swap1\n      pop\n        /* \"#utility.yul\":23363:23448   */\n      swap2\n      swap1\n      pop\n      jump\t// out\n        /* \"#utility.yul\":23454:23612   */\n    tag_362:\n        /* \"#utility.yul\":23512:23521   */\n      0x00\n        /* \"#utility.yul\":23545:23606   */\n      tag_601\n        /* \"#utility.yul\":23563:23605   */\n      tag_602\n        /* \"#utility.yul\":23572:23604   */\n      tag_603\n        /* \"#utility.yul\":23598:23603   */\n      dup5\n        /* \"#utility.yul\":23572:23604   */\n      tag_361\n      jump\t// in\n    tag_603:\n        /* \"#utility.yul\":23563:23605   */\n      tag_331\n      jump\t// in\n    tag_602:\n        /* \"#utility.yul\":23545:23606   */\n      tag_318\n      jump\t// in\n    tag_601:\n        /* \"#utility.yul\":23532:23606   */\n      swap1\n      pop\n        /* \"#utility.yul\":23454:23612   */\n      swap2\n      swap1\n      pop\n      jump\t// out\n        /* \"#utility.yul\":23618:23765   */\n    tag_363:\n        /* \"#utility.yul\":23713:23758   */\n      tag_605\n        /* \"#utility.yul\":23752:23757   */\n      dup2\n        /* \"#utility.yul\":23713:23758   */\n      tag_362\n      jump\t// in\n    tag_605:\n        /* \"#utility.yul\":23708:23711   */\n      dup3\n        /* \"#utility.yul\":23701:23759   */\n      mstore\n        /* \"#utility.yul\":23618:23765   */\n      pop\n      pop\n      jump\t// out\n        /* \"#utility.yul\":23771:23885   */\n    tag_364:\n        /* \"#utility.yul\":23838:23844   */\n      0x00\n        /* \"#utility.yul\":23872:23877   */\n      dup2\n        /* \"#utility.yul\":23866:23878   */\n      mload\n        /* \"#utility.yul\":23856:23878   */\n      swap1\n      pop\n        /* \"#utility.yul\":23771:23885   */\n      swap2\n      swap1\n      pop\n      jump\t// out\n        /* \"#utility.yul\":23891:24075   */\n    tag_365:\n        /* \"#utility.yul\":23990:24001   */\n      0x00\n        /* \"#utility.yul\":24024:24030   */\n      dup3\n        /* \"#utility.yul\":24019:24022   */\n      dup3\n        /* \"#utility.yul\":24012:24031   */\n      mstore\n        /* \"#utility.yul\":24064:24068   */\n      0x20\n        /* \"#utility.yul\":24059:24062   */\n      dup3\n        /* \"#utility.yul\":24055:24069   */\n      add\n        /* \"#utility.yul\":24040:24069   */\n      swap1\n      pop\n        /* \"#utility.yul\":23891:24075   */\n      swap3\n      swap2\n      pop\n      pop\n      jump\t// out\n        /* \"#utility.yul\":24081:24213   */\n    tag_366:\n        /* \"#utility.yul\":24148:24152   */\n      0x00\n        /* \"#utility.yul\":24171:24174   */\n      dup2\n        /* \"#utility.yul\":24163:24174   */\n      swap1\n      pop\n        /* \"#utility.yul\":24201:24205   */\n      0x20\n        /* \"#utility.yul\":24196:24199   */\n      dup3\n        /* \"#utility.yul\":24192:24206   */\n      add\n        /* \"#utility.yul\":24184:24206   */\n      swap1\n      pop\n        /* \"#utility.yul\":24081:24213   */\n      swap2\n      swap1\n      pop\n      jump\t// out\n        /* \"#utility.yul\":24219:24327   */\n    tag_367:\n        /* \"#utility.yul\":24296:24320   */\n      tag_610\n        /* \"#utility.yul\":24314:24319   */\n      dup2\n        /* \"#utility.yul\":24296:24320   */\n      tag_315\n      jump\t// in\n    tag_610:\n        /* \"#utility.yul\":24291:24294   */\n      dup3\n        /* \"#utility.yul\":24284:24321   */\n      mstore\n        /* \"#utility.yul\":24219:24327   */\n      pop\n      pop\n      jump\t// out\n        /* \"#utility.yul\":24333:24512   */\n    tag_368:\n        /* \"#utility.yul\":24402:24412   */\n      0x00\n        /* \"#utility.yul\":24423:24469   */\n      tag_612\n        /* \"#utility.yul\":24465:24468   */\n      dup4\n        /* \"#utility.yul\":24457:24463   */\n      dup4\n        /* \"#utility.yul\":24423:24469   */\n      tag_367\n      jump\t// in\n    tag_612:\n        /* \"#utility.yul\":24501:24505   */\n      0x20\n        /* \"#utility.yul\":24496:24499   */\n      dup4\n        /* \"#utility.yul\":24492:24506   */\n      add\n        /* \"#utility.yul\":24478:24506   */\n      swap1\n      pop\n        /* \"#utility.yul\":24333:24512   */\n      swap3\n      swap2\n      pop\n      pop\n      jump\t// out\n        /* \"#utility.yul\":24518:24631   */\n    tag_369:\n        /* \"#utility.yul\":24588:24592   */\n      0x00\n        /* \"#utility.yul\":24620:24624   */\n      0x20\n        /* \"#utility.yul\":24615:24618   */\n      dup3\n        /* \"#utility.yul\":24611:24625   */\n      add\n        /* \"#utility.yul\":24603:24625   */\n      swap1\n      pop\n        /* \"#utility.yul\":24518:24631   */\n      swap2\n      swap1\n      pop\n      jump\t// out\n        /* \"#utility.yul\":24667:25399   */\n    tag_370:\n        /* \"#utility.yul\":24786:24789   */\n      0x00\n        /* \"#utility.yul\":24815:24869   */\n      tag_615\n        /* \"#utility.yul\":24863:24868   */\n      dup3\n        /* \"#utility.yul\":24815:24869   */\n      tag_364\n      jump\t// in\n    tag_615:\n        /* \"#utility.yul\":24885:24971   */\n      tag_616\n        /* \"#utility.yul\":24964:24970   */\n      dup2\n        /* \"#utility.yul\":24959:24962   */\n      dup6\n        /* \"#utility.yul\":24885:24971   */\n      tag_365\n      jump\t// in\n    tag_616:\n        /* \"#utility.yul\":24878:24971   */\n      swap4\n      pop\n        /* \"#utility.yul\":24995:25051   */\n      tag_617\n        /* \"#utility.yul\":25045:25050   */\n      dup4\n        /* \"#utility.yul\":24995:25051   */\n      tag_366\n      jump\t// in\n    tag_617:\n        /* \"#utility.yul\":25074:25081   */\n      dup1\n        /* \"#utility.yul\":25105:25106   */\n      0x00\n        /* \"#utility.yul\":25090:25374   */\n    tag_618:\n        /* \"#utility.yul\":25115:25121   */\n      dup4\n        /* \"#utility.yul\":25112:25113   */\n      dup2\n        /* \"#utility.yul\":25109:25122   */\n      lt\n        /* \"#utility.yul\":25090:25374   */\n      iszero\n      tag_620\n      jumpi\n        /* \"#utility.yul\":25191:25197   */\n      dup2\n        /* \"#utility.yul\":25185:25198   */\n      mload\n        /* \"#utility.yul\":25218:25281   */\n      tag_621\n        /* \"#utility.yul\":25277:25280   */\n      dup9\n        /* \"#utility.yul\":25262:25275   */\n      dup3\n        /* \"#utility.yul\":25218:25281   */\n      tag_368\n      jump\t// in\n    tag_621:\n        /* \"#utility.yul\":25211:25281   */\n      swap8\n      pop\n        /* \"#utility.yul\":25304:25364   */\n      tag_622\n        /* \"#utility.yul\":25357:25363   */\n      dup4\n        /* \"#utility.yul\":25304:25364   */\n      tag_369\n      jump\t// in\n    tag_622:\n        /* \"#utility.yul\":25294:25364   */\n      swap3\n      pop\n        /* \"#utility.yul\":25150:25374   */\n      pop\n        /* \"#utility.yul\":25137:25138   */\n      0x01\n        /* \"#utility.yul\":25134:25135   */\n      dup2\n        /* \"#utility.yul\":25130:25139   */\n      add\n        /* \"#utility.yul\":25125:25139   */\n      swap1\n      pop\n        /* \"#utility.yul\":25090:25374   */\n      jump(tag_618)\n    tag_620:\n        /* \"#utility.yul\":25094:25108   */\n      pop\n        /* \"#utility.yul\":25390:25393   */\n      dup6\n        /* \"#utility.yul\":25383:25393   */\n      swap4\n      pop\n        /* \"#utility.yul\":24791:25399   */\n      pop\n      pop\n      pop\n        /* \"#utility.yul\":24667:25399   */\n      swap3\n      swap2\n      pop\n      pop\n      jump\t// out\n        /* \"#utility.yul\":25405:26236   */\n    tag_294:\n        /* \"#utility.yul\":25668:25672   */\n      0x00\n        /* \"#utility.yul\":25706:25709   */\n      0xa0\n        /* \"#utility.yul\":25695:25704   */\n      dup3\n        /* \"#utility.yul\":25691:25710   */\n      add\n        /* \"#utility.yul\":25683:25710   */\n      swap1\n      pop\n        /* \"#utility.yul\":25720:25791   */\n      tag_624\n        /* \"#utility.yul\":25788:25789   */\n      0x00\n        /* \"#utility.yul\":25777:25786   */\n      dup4\n        /* \"#utility.yul\":25773:25790   */\n      add\n        /* \"#utility.yul\":25764:25770   */\n      dup9\n        /* \"#utility.yul\":25720:25791   */\n      tag_323\n      jump\t// in\n    tag_624:\n        /* \"#utility.yul\":25801:25881   */\n      tag_625\n        /* \"#utility.yul\":25877:25879   */\n      0x20\n        /* \"#utility.yul\":25866:25875   */\n      dup4\n        /* \"#utility.yul\":25862:25880   */\n      add\n        /* \"#utility.yul\":25853:25859   */\n      dup8\n        /* \"#utility.yul\":25801:25881   */\n      tag_363\n      jump\t// in\n    tag_625:\n        /* \"#utility.yul\":25928:25937   */\n      dup2\n        /* \"#utility.yul\":25922:25926   */\n      dup2\n        /* \"#utility.yul\":25918:25938   */\n      sub\n        /* \"#utility.yul\":25913:25915   */\n      0x40\n        /* \"#utility.yul\":25902:25911   */\n      dup4\n        /* \"#utility.yul\":25898:25916   */\n      add\n        /* \"#utility.yul\":25891:25939   */\n      mstore\n        /* \"#utility.yul\":25956:26064   */\n      tag_626\n        /* \"#utility.yul\":26059:26063   */\n      dup2\n        /* \"#utility.yul\":26050:26056   */\n      dup7\n        /* \"#utility.yul\":25956:26064   */\n      tag_370\n      jump\t// in\n    tag_626:\n        /* \"#utility.yul\":25948:26064   */\n      swap1\n      pop\n        /* \"#utility.yul\":26074:26146   */\n      tag_627\n        /* \"#utility.yul\":26142:26144   */\n      0x60\n        /* \"#utility.yul\":26131:26140   */\n      dup4\n        /* \"#utility.yul\":26127:26145   */\n      add\n        /* \"#utility.yul\":26118:26124   */\n      dup6\n        /* \"#utility.yul\":26074:26146   */\n      tag_326\n      jump\t// in\n    tag_627:\n        /* \"#utility.yul\":26156:26229   */\n      tag_628\n        /* \"#utility.yul\":26224:26227   */\n      0x80\n        /* \"#utility.yul\":26213:26222   */\n      dup4\n        /* \"#utility.yul\":26209:26228   */\n      add\n        /* \"#utility.yul\":26200:26206   */\n      dup5\n        /* \"#utility.yul\":26156:26229   */\n      tag_323\n      jump\t// in\n    tag_628:\n        /* \"#utility.yul\":25405:26236   */\n      swap7\n      swap6\n      pop\n      pop\n      pop\n      pop\n      pop\n      pop\n      jump\t// out\n        /* \"#utility.yul\":26242:27049   */\n    tag_301:\n        /* \"#utility.yul\":26491:26495   */\n      0x00\n        /* \"#utility.yul\":26529:26532   */\n      0xc0\n        /* \"#utility.yul\":26518:26527   */\n      dup3\n        /* \"#utility.yul\":26514:26533   */\n      add\n        /* \"#utility.yul\":26506:26533   */\n      swap1\n      pop\n        /* \"#utility.yul\":26543:26614   */\n      tag_630\n        /* \"#utility.yul\":26611:26612   */\n      0x00\n        /* \"#utility.yul\":26600:26609   */\n      dup4\n        /* \"#utility.yul\":26596:26613   */\n      add\n        /* \"#utility.yul\":26587:26593   */\n      dup10\n        /* \"#utility.yul\":26543:26614   */\n      tag_326\n      jump\t// in\n    tag_630:\n        /* \"#utility.yul\":26624:26696   */\n      tag_631\n        /* \"#utility.yul\":26692:26694   */\n      0x20\n        /* \"#utility.yul\":26681:26690   */\n      dup4\n        /* \"#utility.yul\":26677:26695   */\n      add\n        /* \"#utility.yul\":26668:26674   */\n      dup9\n        /* \"#utility.yul\":26624:26696   */\n      tag_323\n      jump\t// in\n    tag_631:\n        /* \"#utility.yul\":26706:26786   */\n      tag_632\n        /* \"#utility.yul\":26782:26784   */\n      0x40\n        /* \"#utility.yul\":26771:26780   */\n      dup4\n        /* \"#utility.yul\":26767:26785   */\n      add\n        /* \"#utility.yul\":26758:26764   */\n      dup8\n        /* \"#utility.yul\":26706:26786   */\n      tag_363\n      jump\t// in\n    tag_632:\n        /* \"#utility.yul\":26796:26876   */\n      tag_633\n        /* \"#utility.yul\":26872:26874   */\n      0x60\n        /* \"#utility.yul\":26861:26870   */\n      dup4\n        /* \"#utility.yul\":26857:26875   */\n      add\n        /* \"#utility.yul\":26848:26854   */\n      dup7\n        /* \"#utility.yul\":26796:26876   */\n      tag_363\n      jump\t// in\n    tag_633:\n        /* \"#utility.yul\":26886:26959   */\n      tag_634\n        /* \"#utility.yul\":26954:26957   */\n      0x80\n        /* \"#utility.yul\":26943:26952   */\n      dup4\n        /* \"#utility.yul\":26939:26958   */\n      add\n        /* \"#utility.yul\":26930:26936   */\n      dup6\n        /* \"#utility.yul\":26886:26959   */\n      tag_326\n      jump\t// in\n    tag_634:\n        /* \"#utility.yul\":26969:27042   */\n      tag_635\n        /* \"#utility.yul\":27037:27040   */\n      0xa0\n        /* \"#utility.yul\":27026:27035   */\n      dup4\n        /* \"#utility.yul\":27022:27041   */\n      add\n        /* \"#utility.yul\":27013:27019   */\n      dup5\n        /* \"#utility.yul\":26969:27042   */\n      tag_323\n      jump\t// in\n    tag_635:\n        /* \"#utility.yul\":26242:27049   */\n      swap8\n      swap7\n      pop\n      pop\n      pop\n      pop\n      pop\n      pop\n      pop\n      jump\t// out\n        /* \"#utility.yul\":27055:27198   */\n    tag_371:\n        /* \"#utility.yul\":27112:27117   */\n      0x00\n        /* \"#utility.yul\":27143:27149   */\n      dup2\n        /* \"#utility.yul\":27137:27150   */\n      mload\n        /* \"#utility.yul\":27128:27150   */\n      swap1\n      pop\n        /* \"#utility.yul\":27159:27192   */\n      tag_637\n        /* \"#utility.yul\":27186:27191   */\n      dup2\n        /* \"#utility.yul\":27159:27192   */\n      tag_319\n      jump\t// in\n    tag_637:\n        /* \"#utility.yul\":27055:27198   */\n      swap3\n      swap2\n      pop\n      pop\n      jump\t// out\n        /* \"#utility.yul\":27204:27867   */\n    tag_305:\n        /* \"#utility.yul\":27292:27298   */\n      0x00\n        /* \"#utility.yul\":27300:27306   */\n      dup1\n        /* \"#utility.yul\":27308:27314   */\n      0x00\n        /* \"#utility.yul\":27357:27359   */\n      0x60\n        /* \"#utility.yul\":27345:27354   */\n      dup5\n        /* \"#utility.yul\":27336:27343   */\n      dup7\n        /* \"#utility.yul\":27332:27355   */\n      sub\n        /* \"#utility.yul\":27328:27360   */\n      slt\n        /* \"#utility.yul\":27325:27444   */\n      iszero\n      tag_639\n      jumpi\n        /* \"#utility.yul\":27363:27442   */\n      tag_640\n      tag_312\n      jump\t// in\n    tag_640:\n        /* \"#utility.yul\":27325:27444   */\n    tag_639:\n        /* \"#utility.yul\":27483:27484   */\n      0x00\n        /* \"#utility.yul\":27508:27572   */\n      tag_641\n        /* \"#utility.yul\":27564:27571   */\n      dup7\n        /* \"#utility.yul\":27555:27561   */\n      dup3\n        /* \"#utility.yul\":27544:27553   */\n      dup8\n        /* \"#utility.yul\":27540:27562   */\n      add\n        /* \"#utility.yul\":27508:27572   */\n      tag_371\n      jump\t// in\n    tag_641:\n        /* \"#utility.yul\":27498:27572   */\n      swap4\n      pop\n        /* \"#utility.yul\":27454:27582   */\n      pop\n        /* \"#utility.yul\":27621:27623   */\n      0x20\n        /* \"#utility.yul\":27647:27711   */\n      tag_642\n        /* \"#utility.yul\":27703:27710   */\n      dup7\n        /* \"#utility.yul\":27694:27700   */\n      dup3\n        /* \"#utility.yul\":27683:27692   */\n      dup8\n        /* \"#utility.yul\":27679:27701   */\n      add\n        /* \"#utility.yul\":27647:27711   */\n      tag_371\n      jump\t// in\n    tag_642:\n        /* \"#utility.yul\":27637:27711   */\n      swap3\n      pop\n        /* \"#utility.yul\":27592:27721   */\n      pop\n        /* \"#utility.yul\":27760:27762   */\n      0x40\n        /* \"#utility.yul\":27786:27850   */\n      tag_643\n        /* \"#utility.yul\":27842:27849   */\n      dup7\n        /* \"#utility.yul\":27833:27839   */\n      dup3\n        /* \"#utility.yul\":27822:27831   */\n      dup8\n        /* \"#utility.yul\":27818:27840   */\n      add\n        /* \"#utility.yul\":27786:27850   */\n      tag_371\n      jump\t// in\n    tag_643:\n        /* \"#utility.yul\":27776:27850   */\n      swap2\n      pop\n        /* \"#utility.yul\":27731:27860   */\n      pop\n        /* \"#utility.yul\":27204:27867   */\n      swap3\n      pop\n      swap3\n      pop\n      swap3\n      jump\t// out\n\n    auxdata: 0xa26469706673582212205f3bc7e6679e6b3597ca6516d041f7b2785444c9479cda25b29e741357c3fed764736f6c63430008140033\n}\n",
				"bytecode": {
					"linkReferences": {},
					"object": "608060405273047c0d746d42ff4cee7d2cb1fbf5c0d09026793160065f6101000a81548173ffffffffffffffffffffffffffffffffffffffff021916908373ffffffffffffffffffffffffffffffffffffffff160217905550730331535b9f37eb41f437ea0cfe345abb9d102a1a60075f6101000a81548173ffffffffffffffffffffffffffffffffffffffff021916908373ffffffffffffffffffffffffffffffffffffffff160217905550601d600855600a6009556009600a55600a600b55620000d0620004a560201b60201c565b600a620000de919062000a13565b6064620000ec919062000a63565b600c555f600d555f600e555f600f5534801562000107575f80fd5b506040518060400160405280600c81526020017f46726565646f6d20436f696e00000000000000000000000000000000000000008152506040518060400160405280600581526020017f4652454544000000000000000000000000000000000000000000000000000000815250816003908162000185919062000d08565b50806004908162000197919062000d08565b505050620001ba620001ae620004ad60201b60201c565b620004b460201b60201c565b5f620001cb620004a560201b60201c565b60ff16600a620001dc919062000dec565b626acfc0620001ec919062000a63565b90506200020033826200057760201b60201c565b5f73edf6066a2b290c185783862c7f4776a2c8077ad190508073ffffffffffffffffffffffffffffffffffffffff1663c45a01556040518163ffffffff1660e01b8152600401602060405180830381865afa15801562000262573d5f803e3d5ffd5b505050506040513d601f19601f8201168201806040525081019062000288919062000ea1565b73ffffffffffffffffffffffffffffffffffffffff1663c9c65396308373ffffffffffffffffffffffffffffffffffffffff1663ad5c46486040518163ffffffff1660e01b8152600401602060405180830381865afa158015620002ee573d5f803e3d5ffd5b505050506040513d601f19601f8201168201806040525081019062000314919062000ea1565b6040518363ffffffff1660e01b81526004016200033392919062000ee2565b6020604051808303815f875af115801562000350573d5f803e3d5ffd5b505050506040513d601f19601f8201168201806040525081019062000376919062000ea1565b60115f6101000a81548173ffffffffffffffffffffffffffffffffffffffff021916908373ffffffffffffffffffffffffffffffffffffffff1602179055508060105f6101000a81548173ffffffffffffffffffffffffffffffffffffffff021916908373ffffffffffffffffffffffffffffffffffffffff160217905550620004493360105f9054906101000a900473ffffffffffffffffffffffffffffffffffffffff167fffffffffffffffffffffffffffffffffffffffffffffffffffffffffffffffff620006b660201b60201c565b6200049d3060105f9054906101000a900473ffffffffffffffffffffffffffffffffffffffff167fffffffffffffffffffffffffffffffffffffffffffffffffffffffffffffffff620006b660201b60201c565b505062001119565b5f6012905090565b5f33905090565b5f60055f9054906101000a900473ffffffffffffffffffffffffffffffffffffffff1690508160055f6101000a81548173ffffffffffffffffffffffffffffffffffffffff021916908373ffffffffffffffffffffffffffffffffffffffff1602179055508173ffffffffffffffffffffffffffffffffffffffff168173ffffffffffffffffffffffffffffffffffffffff167f8be0079c531659141344cd1fd0a4f28419497f9722a3daafe3b4186f6b6457e060405160405180910390a35050565b5f73ffffffffffffffffffffffffffffffffffffffff168273ffffffffffffffffffffffffffffffffffffffff1603620005e8576040517f08c379a0000000000000000000000000000000000000000000000000000000008152600401620005df9062000f6b565b60405180910390fd5b8060025f828254620005fb919062000f8b565b92505081905550805f808473ffffffffffffffffffffffffffffffffffffffff1673ffffffffffffffffffffffffffffffffffffffff1681526020019081526020015f205f82825401925050819055508173ffffffffffffffffffffffffffffffffffffffff165f73ffffffffffffffffffffffffffffffffffffffff167fddf252ad1be2c89b69c2b068fc378daa952ba7f163c4a11628f55a4df523b3ef83604051620006aa919062000fd6565b60405180910390a35050565b5f73ffffffffffffffffffffffffffffffffffffffff168373ffffffffffffffffffffffffffffffffffffffff160362000727576040517f08c379a00000000000000000000000000000000000000000000000000000000081526004016200071e9062001065565b60405180910390fd5b5f73ffffffffffffffffffffffffffffffffffffffff168273ffffffffffffffffffffffffffffffffffffffff160362000798576040517f08c379a00000000000000000000000000000000000000000000000000000000081526004016200078f90620010f9565b60405180910390fd5b8060015f8573ffffffffffffffffffffffffffffffffffffffff1673ffffffffffffffffffffffffffffffffffffffff1681526020019081526020015f205f8473ffffffffffffffffffffffffffffffffffffffff1673ffffffffffffffffffffffffffffffffffffffff1681526020019081526020015f20819055508173ffffffffffffffffffffffffffffffffffffffff168373ffffffffffffffffffffffffffffffffffffffff167f8c5be1e5ebec7d5bd14f71427d1e84f3dd0314c0f7b2291e5b200ac8c7c3b9258360405162000874919062000fd6565b60405180910390a3505050565b7f4e487b71000000000000000000000000000000000000000000000000000000005f52601160045260245ffd5b5f8160011c9050919050565b5f808291508390505b60018511156200090b57808604811115620008e357620008e262000881565b5b6001851615620008f35780820291505b80810290506200090385620008ae565b9450620008c3565b94509492505050565b5f82620009255760019050620009f7565b8162000934575f9050620009f7565b81600181146200094d576002811462000958576200098e565b6001915050620009f7565b60ff8411156200096d576200096c62000881565b5b8360020a91508482111562000987576200098662000881565b5b50620009f7565b5060208310610133831016604e8410600b8410161715620009c85782820a905083811115620009c257620009c162000881565b5b620009f7565b620009d78484846001620008ba565b92509050818404811115620009f157620009f062000881565b5b81810290505b9392505050565b5f819050919050565b5f60ff82169050919050565b5f62000a1f82620009fe565b915062000a2c8362000a07565b925062000a5b7fffffffffffffffffffffffffffffffffffffffffffffffffffffffffffffffff848462000914565b905092915050565b5f62000a6f82620009fe565b915062000a7c83620009fe565b925082820262000a8c81620009fe565b9150828204841483151762000aa65762000aa562000881565b5b5092915050565b5f81519050919050565b7f4e487b71000000000000000000000000000000000000000000000000000000005f52604160045260245ffd5b7f4e487b71000000000000000000000000000000000000000000000000000000005f52602260045260245ffd5b5f600282049050600182168062000b2957607f821691505b60208210810362000b3f5762000b3e62000ae4565b5b50919050565b5f819050815f5260205f209050919050565b5f6020601f8301049050919050565b5f82821b905092915050565b5f6008830262000ba37fffffffffffffffffffffffffffffffffffffffffffffffffffffffffffffffff8262000b66565b62000baf868362000b66565b95508019841693508086168417925050509392505050565b5f819050919050565b5f62000bf062000bea62000be484620009fe565b62000bc7565b620009fe565b9050919050565b5f819050919050565b62000c0b8362000bd0565b62000c2362000c1a8262000bf7565b84845462000b72565b825550505050565b5f90565b62000c3962000c2b565b62000c4681848462000c00565b505050565b5b8181101562000c6d5762000c615f8262000c2f565b60018101905062000c4c565b5050565b601f82111562000cbc5762000c868162000b45565b62000c918462000b57565b8101602085101562000ca1578190505b62000cb962000cb08562000b57565b83018262000c4b565b50505b505050565b5f82821c905092915050565b5f62000cde5f198460080262000cc1565b1980831691505092915050565b5f62000cf8838362000ccd565b9150826002028217905092915050565b62000d138262000aad565b67ffffffffffffffff81111562000d2f5762000d2e62000ab7565b5b62000d3b825462000b11565b62000d4882828562000c71565b5f60209050601f83116001811462000d7e575f841562000d69578287015190505b62000d75858262000ceb565b86555062000de4565b601f19841662000d8e8662000b45565b5f5b8281101562000db75784890151825560018201915060208501945060208101905062000d90565b8683101562000dd7578489015162000dd3601f89168262000ccd565b8355505b6001600288020188555050505b505050505050565b5f62000df882620009fe565b915062000e0583620009fe565b925062000e347fffffffffffffffffffffffffffffffffffffffffffffffffffffffffffffffff848462000914565b905092915050565b5f80fd5b5f73ffffffffffffffffffffffffffffffffffffffff82169050919050565b5f62000e6b8262000e40565b9050919050565b62000e7d8162000e5f565b811462000e88575f80fd5b50565b5f8151905062000e9b8162000e72565b92915050565b5f6020828403121562000eb95762000eb862000e3c565b5b5f62000ec88482850162000e8b565b91505092915050565b62000edc8162000e5f565b82525050565b5f60408201905062000ef75f83018562000ed1565b62000f06602083018462000ed1565b9392505050565b5f82825260208201905092915050565b7f45524332303a206d696e7420746f20746865207a65726f2061646472657373005f82015250565b5f62000f53601f8362000f0d565b915062000f608262000f1d565b602082019050919050565b5f6020820190508181035f83015262000f848162000f45565b9050919050565b5f62000f9782620009fe565b915062000fa483620009fe565b925082820190508082111562000fbf5762000fbe62000881565b5b92915050565b62000fd081620009fe565b82525050565b5f60208201905062000feb5f83018462000fc5565b92915050565b7f45524332303a20617070726f76652066726f6d20746865207a65726f206164645f8201527f7265737300000000000000000000000000000000000000000000000000000000602082015250565b5f6200104d60248362000f0d565b91506200105a8262000ff1565b604082019050919050565b5f6020820190508181035f8301526200107e816200103f565b9050919050565b7f45524332303a20617070726f766520746f20746865207a65726f2061646472655f8201527f7373000000000000000000000000000000000000000000000000000000000000602082015250565b5f620010e160228362000f0d565b9150620010ee8262001085565b604082019050919050565b5f6020820190508181035f8301526200111281620010d3565b9050919050565b61245280620011275f395ff3fe608060405234801561000f575f80fd5b50600436106101a7575f3560e01c80635d098b38116100f7578063a63748e511610095578063cd48145b1161006f578063cd48145b146104ad578063dd62ed3e146104cb578063eeaf6f92146104fb578063f2fde38b14610519576101a7565b8063a63748e514610443578063a9059cbb1461045f578063c31c9c071461048f576101a7565b8063715018a6116100d1578063715018a6146103cd5780638da5cb5b146103d757806395d89b41146103f5578063a457c2d714610413576101a7565b80635d098b381461036357806360ec4c841461037f57806370a082311461039d576101a7565b806326991cc81161016457806341f06d911161013e57806341f06d91146102ed57806343a189091461030b578063487c70fc146103295780635958621e14610347576101a7565b806326991cc814610281578063313ce5671461029f57806339509351146102bd576101a7565b806306fdde03146101ab578063095ea7b3146101c95780630e7e573f146101f957806318160ddd1461021557806323b872dd146102335780632428cb9a14610263575b5f80fd5b6101b3610535565b6040516101c091906115e3565b60405180910390f35b6101e360048036038101906101de9190611694565b6105c5565b6040516101f091906116ec565b60405180910390f35b610213600480360381019061020e9190611705565b6105e7565b005b61021d610617565b60405161022a919061173f565b60405180910390f35b61024d60048036038101906102489190611758565b610620565b60405161025a91906116ec565b60405180910390f35b61026b61064e565b60405161027891906117c8565b60405180910390f35b610289610673565b60405161029691906117f0565b60405180910390f35b6102a7610698565b6040516102b49190611824565b60405180910390f35b6102d760048036038101906102d29190611694565b6106a0565b6040516102e491906116ec565b60405180910390f35b6102f56106d6565b604051610302919061173f565b60405180910390f35b6103136106dc565b60405161032091906117c8565b60405180910390f35b610331610701565b60405161033e919061173f565b60405180910390f35b610361600480360381019061035c9190611867565b610707565b005b61037d60048036038101906103789190611867565b610752565b005b61038761079d565b604051610394919061173f565b60405180910390f35b6103b760048036038101906103b29190611892565b6107a3565b6040516103c4919061173f565b60405180910390f35b6103d56107e8565b005b6103df6107fb565b6040516103ec91906117f0565b60405180910390f35b6103fd610823565b60405161040a91906115e3565b60405180910390f35b61042d60048036038101906104289190611694565b6108b3565b60405161043a91906116ec565b60405180910390f35b61045d600480360381019061045891906118bd565b610928565b005b61047960048036038101906104749190611694565b61095c565b60405161048691906116ec565b60405180910390f35b61049761097e565b6040516104a49190611968565b60405180910390f35b6104b56109a3565b6040516104c2919061173f565b60405180910390f35b6104e560048036038101906104e09190611981565b6109a9565b6040516104f2919061173f565b60405180910390f35b610503610a2b565b604051610510919061173f565b60405180910390f35b610533600480360381019061052e9190611892565b610a31565b005b606060038054610544906119ec565b80601f0160208091040260200160405190810160405280929190818152602001828054610570906119ec565b80156105bb5780601f10610592576101008083540402835291602001916105bb565b820191905f5260205f20905b81548152906001019060200180831161059e57829003601f168201915b5050505050905090565b5f806105cf610ab3565b90506105dc818585610aba565b600191505092915050565b6105ef610c7d565b6105f7610698565b600a6106039190611b78565b8161060e9190611bc2565b600c8190555050565b5f600254905090565b5f8061062a610ab3565b9050610637858285610cfb565b610642858585610d86565b60019150509392505050565b60075f9054906101000a900473ffffffffffffffffffffffffffffffffffffffff1681565b60115f9054906101000a900473ffffffffffffffffffffffffffffffffffffffff1681565b5f6012905090565b5f806106aa610ab3565b90506106cb8185856106bc85896109a9565b6106c69190611c03565b610aba565b600191505092915050565b600b5481565b60065f9054906101000a900473ffffffffffffffffffffffffffffffffffffffff1681565b600c5481565b61070f610c7d565b8060065f6101000a81548173ffffffffffffffffffffffffffffffffffffffff021916908373ffffffffffffffffffffffffffffffffffffffff16021790555050565b61075a610c7d565b8060075f6101000a81548173ffffffffffffffffffffffffffffffffffffffff021916908373ffffffffffffffffffffffffffffffffffffffff16021790555050565b60095481565b5f805f8373ffffffffffffffffffffffffffffffffffffffff1673ffffffffffffffffffffffffffffffffffffffff1681526020019081526020015f20549050919050565b6107f0610c7d565b6107f95f610f44565b565b5f60055f9054906101000a900473ffffffffffffffffffffffffffffffffffffffff16905090565b606060048054610832906119ec565b80601f016020809104026020016040519081016040528092919081815260200182805461085e906119ec565b80156108a95780601f10610880576101008083540402835291602001916108a9565b820191905f5260205f20905b81548152906001019060200180831161088c57829003601f168201915b5050505050905090565b5f806108bd610ab3565b90505f6108ca82866109a9565b90508381101561090f576040517f08c379a000000000000000000000000000000000000000000000000000000000815260040161090690611ca6565b60405180910390fd5b61091c8286868403610aba565b60019250505092915050565b610930610c7d565b8260098190555081600a8190555080600b8190555080836109519190611c03565b600881905550505050565b5f80610966610ab3565b9050610973818585610d86565b600191505092915050565b60105f9054906101000a900473ffffffffffffffffffffffffffffffffffffffff1681565b60085481565b5f60015f8473ffffffffffffffffffffffffffffffffffffffff1673ffffffffffffffffffffffffffffffffffffffff1681526020019081526020015f205f8373ffffffffffffffffffffffffffffffffffffffff1673ffffffffffffffffffffffffffffffffffffffff1681526020019081526020015f2054905092915050565b600a5481565b610a39610c7d565b5f73ffffffffffffffffffffffffffffffffffffffff168173ffffffffffffffffffffffffffffffffffffffff1603610aa7576040517f08c379a0000000000000000000000000000000000000000000000000000000008152600401610a9e90611d34565b60405180910390fd5b610ab081610f44565b50565b5f33905090565b5f73ffffffffffffffffffffffffffffffffffffffff168373ffffffffffffffffffffffffffffffffffffffff1603610b28576040517f08c379a0000000000000000000000000000000000000000000000000000000008152600401610b1f90611dc2565b60405180910390fd5b5f73ffffffffffffffffffffffffffffffffffffffff168273ffffffffffffffffffffffffffffffffffffffff1603610b96576040517f08c379a0000000000000000000000000000000000000000000000000000000008152600401610b8d90611e50565b60405180910390fd5b8060015f8573ffffffffffffffffffffffffffffffffffffffff1673ffffffffffffffffffffffffffffffffffffffff1681526020019081526020015f205f8473ffffffffffffffffffffffffffffffffffffffff1673ffffffffffffffffffffffffffffffffffffffff1681526020019081526020015f20819055508173ffffffffffffffffffffffffffffffffffffffff168373ffffffffffffffffffffffffffffffffffffffff167f8c5be1e5ebec7d5bd14f71427d1e84f3dd0314c0f7b2291e5b200ac8c7c3b92583604051610c70919061173f565b60405180910390a3505050565b610c85610ab3565b73ffffffffffffffffffffffffffffffffffffffff16610ca36107fb565b73ffffffffffffffffffffffffffffffffffffffff1614610cf9576040517f08c379a0000000000000000000000000000000000000000000000000000000008152600401610cf090611eb8565b60405180910390fd5b565b5f610d0684846109a9565b90507fffffffffffffffffffffffffffffffffffffffffffffffffffffffffffffffff8114610d805781811015610d72576040517f08c379a0000000000000000000000000000000000000000000000000000000008152600401610d6990611f20565b60405180910390fd5b610d7f8484848403610aba565b5b50505050565b5f8060115f9054906101000a900473ffffffffffffffffffffffffffffffffffffffff1673ffffffffffffffffffffffffffffffffffffffff168473ffffffffffffffffffffffffffffffffffffffff1603610e0157606460085484610dec9190611bc2565b610df69190611f6b565b915060019050610e77565b60115f9054906101000a900473ffffffffffffffffffffffffffffffffffffffff1673ffffffffffffffffffffffffffffffffffffffff168573ffffffffffffffffffffffffffffffffffffffff1603610e7657606460085484610e659190611bc2565b610e6f9190611f6b565b9150600290505b5b610e8d85858486610e889190611f9b565b611007565b5f821115610f2c57600854600b5483610ea69190611bc2565b610eb09190611f6b565b600f5f828254610ec09190611c03565b92505081905550600854600a5483610ed89190611bc2565b610ee29190611f6b565b600e5f828254610ef29190611c03565b9250508190555060085460095483610f0a9190611bc2565b610f149190611f6b565b600d5f828254610f249190611c03565b925050819055505b5f821115610f3d57610f3c61125d565b5b5050505050565b5f60055f9054906101000a900473ffffffffffffffffffffffffffffffffffffffff1690508160055f6101000a81548173ffffffffffffffffffffffffffffffffffffffff021916908373ffffffffffffffffffffffffffffffffffffffff1602179055508173ffffffffffffffffffffffffffffffffffffffff168173ffffffffffffffffffffffffffffffffffffffff167f8be0079c531659141344cd1fd0a4f28419497f9722a3daafe3b4186f6b6457e060405160405180910390a35050565b5f73ffffffffffffffffffffffffffffffffffffffff168373ffffffffffffffffffffffffffffffffffffffff1603611075576040517f08c379a000000000000000000000000000000000000000000000000000000000815260040161106c9061203e565b60405180910390fd5b5f73ffffffffffffffffffffffffffffffffffffffff168273ffffffffffffffffffffffffffffffffffffffff16036110e3576040517f08c379a00000000000000000000000000000000000000000000000000000000081526004016110da906120cc565b60405180910390fd5b5f805f8573ffffffffffffffffffffffffffffffffffffffff1673ffffffffffffffffffffffffffffffffffffffff1681526020019081526020015f2054905081811015611166576040517f08c379a000000000000000000000000000000000000000000000000000000000815260040161115d9061215a565b60405180910390fd5b8181035f808673ffffffffffffffffffffffffffffffffffffffff1673ffffffffffffffffffffffffffffffffffffffff1681526020019081526020015f2081905550815f808573ffffffffffffffffffffffffffffffffffffffff1673ffffffffffffffffffffffffffffffffffffffff1681526020019081526020015f205f82825401925050819055508273ffffffffffffffffffffffffffffffffffffffff168473ffffffffffffffffffffffffffffffffffffffff167fddf252ad1be2c89b69c2b068fc378daa952ba7f163c4a11628f55a4df523b3ef8460405161124f919061173f565b60405180910390a350505050565b611268600d5461129b565b611273600e5461129b565b5f479050611283600f54826114a5565b5f600f819055505f600e819055505f600d8190555050565b5f600267ffffffffffffffff8111156112b7576112b6612178565b5b6040519080825280602002602001820160405280156112e55781602001602082028036833780820191505090505b50905030815f815181106112fc576112fb6121a5565b5b602002602001019073ffffffffffffffffffffffffffffffffffffffff16908173ffffffffffffffffffffffffffffffffffffffff168152505060105f9054906101000a900473ffffffffffffffffffffffffffffffffffffffff1673ffffffffffffffffffffffffffffffffffffffff1663ad5c46486040518163ffffffff1660e01b8152600401602060405180830381865afa1580156113a0573d5f803e3d5ffd5b505050506040513d601f19601f820116820180604052508101906113c491906121e6565b816001815181106113d8576113d76121a5565b5b602002602001019073ffffffffffffffffffffffffffffffffffffffff16908173ffffffffffffffffffffffffffffffffffffffff168152505060105f9054906101000a900473ffffffffffffffffffffffffffffffffffffffff1673ffffffffffffffffffffffffffffffffffffffff1663791ac947835f8430426040518663ffffffff1660e01b8152600401611474959493929190612301565b5f604051808303815f87803b15801561148b575f80fd5b505af115801561149d573d5f803e3d5ffd5b505050505050565b60105f9054906101000a900473ffffffffffffffffffffffffffffffffffffffff1673ffffffffffffffffffffffffffffffffffffffff1663f305d7198230855f806114ef6107fb565b426040518863ffffffff1660e01b815260040161151196959493929190612359565b60606040518083038185885af115801561152d573d5f803e3d5ffd5b50505050506040513d601f19601f8201168201806040525081019061155291906123cc565b5050505050565b5f81519050919050565b5f82825260208201905092915050565b5f5b83811015611590578082015181840152602081019050611575565b5f8484015250505050565b5f601f19601f8301169050919050565b5f6115b582611559565b6115bf8185611563565b93506115cf818560208601611573565b6115d88161159b565b840191505092915050565b5f6020820190508181035f8301526115fb81846115ab565b905092915050565b5f80fd5b5f73ffffffffffffffffffffffffffffffffffffffff82169050919050565b5f61163082611607565b9050919050565b61164081611626565b811461164a575f80fd5b50565b5f8135905061165b81611637565b92915050565b5f819050919050565b61167381611661565b811461167d575f80fd5b50565b5f8135905061168e8161166a565b92915050565b5f80604083850312156116aa576116a9611603565b5b5f6116b78582860161164d565b92505060206116c885828601611680565b9150509250929050565b5f8115159050919050565b6116e6816116d2565b82525050565b5f6020820190506116ff5f8301846116dd565b92915050565b5f6020828403121561171a57611719611603565b5b5f61172784828501611680565b91505092915050565b61173981611661565b82525050565b5f6020820190506117525f830184611730565b92915050565b5f805f6060848603121561176f5761176e611603565b5b5f61177c8682870161164d565b935050602061178d8682870161164d565b925050604061179e86828701611680565b9150509250925092565b5f6117b282611607565b9050919050565b6117c2816117a8565b82525050565b5f6020820190506117db5f8301846117b9565b92915050565b6117ea81611626565b82525050565b5f6020820190506118035f8301846117e1565b92915050565b5f60ff82169050919050565b61181e81611809565b82525050565b5f6020820190506118375f830184611815565b92915050565b611846816117a8565b8114611850575f80fd5b50565b5f813590506118618161183d565b92915050565b5f6020828403121561187c5761187b611603565b5b5f61188984828501611853565b91505092915050565b5f602082840312156118a7576118a6611603565b5b5f6118b48482850161164d565b91505092915050565b5f805f606084860312156118d4576118d3611603565b5b5f6118e186828701611680565b93505060206118f286828701611680565b925050604061190386828701611680565b9150509250925092565b5f819050919050565b5f61193061192b61192684611607565b61190d565b611607565b9050919050565b5f61194182611916565b9050919050565b5f61195282611937565b9050919050565b61196281611948565b82525050565b5f60208201905061197b5f830184611959565b92915050565b5f806040838503121561199757611996611603565b5b5f6119a48582860161164d565b92505060206119b58582860161164d565b9150509250929050565b7f4e487b71000000000000000000000000000000000000000000000000000000005f52602260045260245ffd5b5f6002820490506001821680611a0357607f821691505b602082108103611a1657611a156119bf565b5b50919050565b7f4e487b71000000000000000000000000000000000000000000000000000000005f52601160045260245ffd5b5f8160011c9050919050565b5f808291508390505b6001851115611a9e57808604811115611a7a57611a79611a1c565b5b6001851615611a895780820291505b8081029050611a9785611a49565b9450611a5e565b94509492505050565b5f82611ab65760019050611b71565b81611ac3575f9050611b71565b8160018114611ad95760028114611ae357611b12565b6001915050611b71565b60ff841115611af557611af4611a1c565b5b8360020a915084821115611b0c57611b0b611a1c565b5b50611b71565b5060208310610133831016604e8410600b8410161715611b475782820a905083811115611b4257611b41611a1c565b5b611b71565b611b548484846001611a55565b92509050818404811115611b6b57611b6a611a1c565b5b81810290505b9392505050565b5f611b8282611661565b9150611b8d83611809565b9250611bba7fffffffffffffffffffffffffffffffffffffffffffffffffffffffffffffffff8484611aa7565b905092915050565b5f611bcc82611661565b9150611bd783611661565b9250828202611be581611661565b91508282048414831517611bfc57611bfb611a1c565b5b5092915050565b5f611c0d82611661565b9150611c1883611661565b9250828201905080821115611c3057611c2f611a1c565b5b92915050565b7f45524332303a2064656372656173656420616c6c6f77616e63652062656c6f775f8201527f207a65726f000000000000000000000000000000000000000000000000000000602082015250565b5f611c90602583611563565b9150611c9b82611c36565b604082019050919050565b5f6020820190508181035f830152611cbd81611c84565b9050919050565b7f4f776e61626c653a206e6577206f776e657220697320746865207a65726f20615f8201527f6464726573730000000000000000000000000000000000000000000000000000602082015250565b5f611d1e602683611563565b9150611d2982611cc4565b604082019050919050565b5f6020820190508181035f830152611d4b81611d12565b9050919050565b7f45524332303a20617070726f76652066726f6d20746865207a65726f206164645f8201527f7265737300000000000000000000000000000000000000000000000000000000602082015250565b5f611dac602483611563565b9150611db782611d52565b604082019050919050565b5f6020820190508181035f830152611dd981611da0565b9050919050565b7f45524332303a20617070726f766520746f20746865207a65726f2061646472655f8201527f7373000000000000000000000000000000000000000000000000000000000000602082015250565b5f611e3a602283611563565b9150611e4582611de0565b604082019050919050565b5f6020820190508181035f830152611e6781611e2e565b9050919050565b7f4f776e61626c653a2063616c6c6572206973206e6f7420746865206f776e65725f82015250565b5f611ea2602083611563565b9150611ead82611e6e565b602082019050919050565b5f6020820190508181035f830152611ecf81611e96565b9050919050565b7f45524332303a20696e73756666696369656e7420616c6c6f77616e63650000005f82015250565b5f611f0a601d83611563565b9150611f1582611ed6565b602082019050919050565b5f6020820190508181035f830152611f3781611efe565b9050919050565b7f4e487b71000000000000000000000000000000000000000000000000000000005f52601260045260245ffd5b5f611f7582611661565b9150611f8083611661565b925082611f9057611f8f611f3e565b5b828204905092915050565b5f611fa582611661565b9150611fb083611661565b9250828203905081811115611fc857611fc7611a1c565b5b92915050565b7f45524332303a207472616e736665722066726f6d20746865207a65726f2061645f8201527f6472657373000000000000000000000000000000000000000000000000000000602082015250565b5f612028602583611563565b915061203382611fce565b604082019050919050565b5f6020820190508181035f8301526120558161201c565b9050919050565b7f45524332303a207472616e7366657220746f20746865207a65726f20616464725f8201527f6573730000000000000000000000000000000000000000000000000000000000602082015250565b5f6120b6602383611563565b91506120c18261205c565b604082019050919050565b5f6020820190508181035f8301526120e3816120aa565b9050919050565b7f45524332303a207472616e7366657220616d6f756e74206578636565647320625f8201527f616c616e63650000000000000000000000000000000000000000000000000000602082015250565b5f612144602683611563565b915061214f826120ea565b604082019050919050565b5f6020820190508181035f83015261217181612138565b9050919050565b7f4e487b71000000000000000000000000000000000000000000000000000000005f52604160045260245ffd5b7f4e487b71000000000000000000000000000000000000000000000000000000005f52603260045260245ffd5b5f815190506121e081611637565b92915050565b5f602082840312156121fb576121fa611603565b5b5f612208848285016121d2565b91505092915050565b5f819050919050565b5f61223461222f61222a84612211565b61190d565b611661565b9050919050565b6122448161221a565b82525050565b5f81519050919050565b5f82825260208201905092915050565b5f819050602082019050919050565b61227c81611626565b82525050565b5f61228d8383612273565b60208301905092915050565b5f602082019050919050565b5f6122af8261224a565b6122b98185612254565b93506122c483612264565b805f5b838110156122f45781516122db8882612282565b97506122e683612299565b9250506001810190506122c7565b5085935050505092915050565b5f60a0820190506123145f830188611730565b612321602083018761223b565b818103604083015261233381866122a5565b905061234260608301856117e1565b61234f6080830184611730565b9695505050505050565b5f60c08201905061236c5f8301896117e1565b6123796020830188611730565b612386604083018761223b565b612393606083018661223b565b6123a060808301856117e1565b6123ad60a0830184611730565b979650505050505050565b5f815190506123c68161166a565b92915050565b5f805f606084860312156123e3576123e2611603565b5b5f6123f0868287016123b8565b9350506020612401868287016123b8565b9250506040612412868287016123b8565b915050925092509256fea26469706673582212205f3bc7e6679e6b3597ca6516d041f7b2785444c9479cda25b29e741357c3fed764736f6c63430008140033",
					"opcodes": "PUSH1 0x80 PUSH1 0x40 MSTORE PUSH20 0x47C0D746D42FF4CEE7D2CB1FBF5C0D090267931 PUSH1 0x6 PUSH0 PUSH2 0x100 EXP DUP2 SLOAD DUP2 PUSH20 0xFFFFFFFFFFFFFFFFFFFFFFFFFFFFFFFFFFFFFFFF MUL NOT AND SWAP1 DUP4 PUSH20 0xFFFFFFFFFFFFFFFFFFFFFFFFFFFFFFFFFFFFFFFF AND MUL OR SWAP1 SSTORE POP PUSH20 0x331535B9F37EB41F437EA0CFE345ABB9D102A1A PUSH1 0x7 PUSH0 PUSH2 0x100 EXP DUP2 SLOAD DUP2 PUSH20 0xFFFFFFFFFFFFFFFFFFFFFFFFFFFFFFFFFFFFFFFF MUL NOT AND SWAP1 DUP4 PUSH20 0xFFFFFFFFFFFFFFFFFFFFFFFFFFFFFFFFFFFFFFFF AND MUL OR SWAP1 SSTORE POP PUSH1 0x1D PUSH1 0x8 SSTORE PUSH1 0xA PUSH1 0x9 SSTORE PUSH1 0x9 PUSH1 0xA SSTORE PUSH1 0xA PUSH1 0xB SSTORE PUSH3 0xD0 PUSH3 0x4A5 PUSH1 0x20 SHL PUSH1 0x20 SHR JUMP JUMPDEST PUSH1 0xA PUSH3 0xDE SWAP2 SWAP1 PUSH3 0xA13 JUMP JUMPDEST PUSH1 0x64 PUSH3 0xEC SWAP2 SWAP1 PUSH3 0xA63 JUMP JUMPDEST PUSH1 0xC SSTORE PUSH0 PUSH1 0xD SSTORE PUSH0 PUSH1 0xE SSTORE PUSH0 PUSH1 0xF SSTORE CALLVALUE DUP1 ISZERO PUSH3 0x107 JUMPI PUSH0 DUP1 REVERT JUMPDEST POP PUSH1 0x40 MLOAD DUP1 PUSH1 0x40 ADD PUSH1 0x40 MSTORE DUP1 PUSH1 0xC DUP2 MSTORE PUSH1 0x20 ADD PUSH32 0x46726565646F6D20436F696E0000000000000000000000000000000000000000 DUP2 MSTORE POP PUSH1 0x40 MLOAD DUP1 PUSH1 0x40 ADD PUSH1 0x40 MSTORE DUP1 PUSH1 0x5 DUP2 MSTORE PUSH1 0x20 ADD PUSH32 0x4652454544000000000000000000000000000000000000000000000000000000 DUP2 MSTORE POP DUP2 PUSH1 0x3 SWAP1 DUP2 PUSH3 0x185 SWAP2 SWAP1 PUSH3 0xD08 JUMP JUMPDEST POP DUP1 PUSH1 0x4 SWAP1 DUP2 PUSH3 0x197 SWAP2 SWAP1 PUSH3 0xD08 JUMP JUMPDEST POP POP POP PUSH3 0x1BA PUSH3 0x1AE PUSH3 0x4AD PUSH1 0x20 SHL PUSH1 0x20 SHR JUMP JUMPDEST PUSH3 0x4B4 PUSH1 0x20 SHL PUSH1 0x20 SHR JUMP JUMPDEST PUSH0 PUSH3 0x1CB PUSH3 0x4A5 PUSH1 0x20 SHL PUSH1 0x20 SHR JUMP JUMPDEST PUSH1 0xFF AND PUSH1 0xA PUSH3 0x1DC SWAP2 SWAP1 PUSH3 0xDEC JUMP JUMPDEST PUSH3 0x6ACFC0 PUSH3 0x1EC SWAP2 SWAP1 PUSH3 0xA63 JUMP JUMPDEST SWAP1 POP PUSH3 0x200 CALLER DUP3 PUSH3 0x577 PUSH1 0x20 SHL PUSH1 0x20 SHR JUMP JUMPDEST PUSH0 PUSH20 0xEDF6066A2B290C185783862C7F4776A2C8077AD1 SWAP1 POP DUP1 PUSH20 0xFFFFFFFFFFFFFFFFFFFFFFFFFFFFFFFFFFFFFFFF AND PUSH4 0xC45A0155 PUSH1 0x40 MLOAD DUP2 PUSH4 0xFFFFFFFF AND PUSH1 0xE0 SHL DUP2 MSTORE PUSH1 0x4 ADD PUSH1 0x20 PUSH1 0x40 MLOAD DUP1 DUP4 SUB DUP2 DUP7 GAS STATICCALL ISZERO DUP1 ISZERO PUSH3 0x262 JUMPI RETURNDATASIZE PUSH0 DUP1 RETURNDATACOPY RETURNDATASIZE PUSH0 REVERT JUMPDEST POP POP POP POP PUSH1 0x40 MLOAD RETURNDATASIZE PUSH1 0x1F NOT PUSH1 0x1F DUP3 ADD AND DUP3 ADD DUP1 PUSH1 0x40 MSTORE POP DUP2 ADD SWAP1 PUSH3 0x288 SWAP2 SWAP1 PUSH3 0xEA1 JUMP JUMPDEST PUSH20 0xFFFFFFFFFFFFFFFFFFFFFFFFFFFFFFFFFFFFFFFF AND PUSH4 0xC9C65396 ADDRESS DUP4 PUSH20 0xFFFFFFFFFFFFFFFFFFFFFFFFFFFFFFFFFFFFFFFF AND PUSH4 0xAD5C4648 PUSH1 0x40 MLOAD DUP2 PUSH4 0xFFFFFFFF AND PUSH1 0xE0 SHL DUP2 MSTORE PUSH1 0x4 ADD PUSH1 0x20 PUSH1 0x40 MLOAD DUP1 DUP4 SUB DUP2 DUP7 GAS STATICCALL ISZERO DUP1 ISZERO PUSH3 0x2EE JUMPI RETURNDATASIZE PUSH0 DUP1 RETURNDATACOPY RETURNDATASIZE PUSH0 REVERT JUMPDEST POP POP POP POP PUSH1 0x40 MLOAD RETURNDATASIZE PUSH1 0x1F NOT PUSH1 0x1F DUP3 ADD AND DUP3 ADD DUP1 PUSH1 0x40 MSTORE POP DUP2 ADD SWAP1 PUSH3 0x314 SWAP2 SWAP1 PUSH3 0xEA1 JUMP JUMPDEST PUSH1 0x40 MLOAD DUP4 PUSH4 0xFFFFFFFF AND PUSH1 0xE0 SHL DUP2 MSTORE PUSH1 0x4 ADD PUSH3 0x333 SWAP3 SWAP2 SWAP1 PUSH3 0xEE2 JUMP JUMPDEST PUSH1 0x20 PUSH1 0x40 MLOAD DUP1 DUP4 SUB DUP2 PUSH0 DUP8 GAS CALL ISZERO DUP1 ISZERO PUSH3 0x350 JUMPI RETURNDATASIZE PUSH0 DUP1 RETURNDATACOPY RETURNDATASIZE PUSH0 REVERT JUMPDEST POP POP POP POP PUSH1 0x40 MLOAD RETURNDATASIZE PUSH1 0x1F NOT PUSH1 0x1F DUP3 ADD AND DUP3 ADD DUP1 PUSH1 0x40 MSTORE POP DUP2 ADD SWAP1 PUSH3 0x376 SWAP2 SWAP1 PUSH3 0xEA1 JUMP JUMPDEST PUSH1 0x11 PUSH0 PUSH2 0x100 EXP DUP2 SLOAD DUP2 PUSH20 0xFFFFFFFFFFFFFFFFFFFFFFFFFFFFFFFFFFFFFFFF MUL NOT AND SWAP1 DUP4 PUSH20 0xFFFFFFFFFFFFFFFFFFFFFFFFFFFFFFFFFFFFFFFF AND MUL OR SWAP1 SSTORE POP DUP1 PUSH1 0x10 PUSH0 PUSH2 0x100 EXP DUP2 SLOAD DUP2 PUSH20 0xFFFFFFFFFFFFFFFFFFFFFFFFFFFFFFFFFFFFFFFF MUL NOT AND SWAP1 DUP4 PUSH20 0xFFFFFFFFFFFFFFFFFFFFFFFFFFFFFFFFFFFFFFFF AND MUL OR SWAP1 SSTORE POP PUSH3 0x449 CALLER PUSH1 0x10 PUSH0 SWAP1 SLOAD SWAP1 PUSH2 0x100 EXP SWAP1 DIV PUSH20 0xFFFFFFFFFFFFFFFFFFFFFFFFFFFFFFFFFFFFFFFF AND PUSH32 0xFFFFFFFFFFFFFFFFFFFFFFFFFFFFFFFFFFFFFFFFFFFFFFFFFFFFFFFFFFFFFFFF PUSH3 0x6B6 PUSH1 0x20 SHL PUSH1 0x20 SHR JUMP JUMPDEST PUSH3 0x49D ADDRESS PUSH1 0x10 PUSH0 SWAP1 SLOAD SWAP1 PUSH2 0x100 EXP SWAP1 DIV PUSH20 0xFFFFFFFFFFFFFFFFFFFFFFFFFFFFFFFFFFFFFFFF AND PUSH32 0xFFFFFFFFFFFFFFFFFFFFFFFFFFFFFFFFFFFFFFFFFFFFFFFFFFFFFFFFFFFFFFFF PUSH3 0x6B6 PUSH1 0x20 SHL PUSH1 0x20 SHR JUMP JUMPDEST POP POP PUSH3 0x1119 JUMP JUMPDEST PUSH0 PUSH1 0x12 SWAP1 POP SWAP1 JUMP JUMPDEST PUSH0 CALLER SWAP1 POP SWAP1 JUMP JUMPDEST PUSH0 PUSH1 0x5 PUSH0 SWAP1 SLOAD SWAP1 PUSH2 0x100 EXP SWAP1 DIV PUSH20 0xFFFFFFFFFFFFFFFFFFFFFFFFFFFFFFFFFFFFFFFF AND SWAP1 POP DUP2 PUSH1 0x5 PUSH0 PUSH2 0x100 EXP DUP2 SLOAD DUP2 PUSH20 0xFFFFFFFFFFFFFFFFFFFFFFFFFFFFFFFFFFFFFFFF MUL NOT AND SWAP1 DUP4 PUSH20 0xFFFFFFFFFFFFFFFFFFFFFFFFFFFFFFFFFFFFFFFF AND MUL OR SWAP1 SSTORE POP DUP2 PUSH20 0xFFFFFFFFFFFFFFFFFFFFFFFFFFFFFFFFFFFFFFFF AND DUP2 PUSH20 0xFFFFFFFFFFFFFFFFFFFFFFFFFFFFFFFFFFFFFFFF AND PUSH32 0x8BE0079C531659141344CD1FD0A4F28419497F9722A3DAAFE3B4186F6B6457E0 PUSH1 0x40 MLOAD PUSH1 0x40 MLOAD DUP1 SWAP2 SUB SWAP1 LOG3 POP POP JUMP JUMPDEST PUSH0 PUSH20 0xFFFFFFFFFFFFFFFFFFFFFFFFFFFFFFFFFFFFFFFF AND DUP3 PUSH20 0xFFFFFFFFFFFFFFFFFFFFFFFFFFFFFFFFFFFFFFFF AND SUB PUSH3 0x5E8 JUMPI PUSH1 0x40 MLOAD PUSH32 0x8C379A000000000000000000000000000000000000000000000000000000000 DUP2 MSTORE PUSH1 0x4 ADD PUSH3 0x5DF SWAP1 PUSH3 0xF6B JUMP JUMPDEST PUSH1 0x40 MLOAD DUP1 SWAP2 SUB SWAP1 REVERT JUMPDEST DUP1 PUSH1 0x2 PUSH0 DUP3 DUP3 SLOAD PUSH3 0x5FB SWAP2 SWAP1 PUSH3 0xF8B JUMP JUMPDEST SWAP3 POP POP DUP2 SWAP1 SSTORE POP DUP1 PUSH0 DUP1 DUP5 PUSH20 0xFFFFFFFFFFFFFFFFFFFFFFFFFFFFFFFFFFFFFFFF AND PUSH20 0xFFFFFFFFFFFFFFFFFFFFFFFFFFFFFFFFFFFFFFFF AND DUP2 MSTORE PUSH1 0x20 ADD SWAP1 DUP2 MSTORE PUSH1 0x20 ADD PUSH0 KECCAK256 PUSH0 DUP3 DUP3 SLOAD ADD SWAP3 POP POP DUP2 SWAP1 SSTORE POP DUP2 PUSH20 0xFFFFFFFFFFFFFFFFFFFFFFFFFFFFFFFFFFFFFFFF AND PUSH0 PUSH20 0xFFFFFFFFFFFFFFFFFFFFFFFFFFFFFFFFFFFFFFFF AND PUSH32 0xDDF252AD1BE2C89B69C2B068FC378DAA952BA7F163C4A11628F55A4DF523B3EF DUP4 PUSH1 0x40 MLOAD PUSH3 0x6AA SWAP2 SWAP1 PUSH3 0xFD6 JUMP JUMPDEST PUSH1 0x40 MLOAD DUP1 SWAP2 SUB SWAP1 LOG3 POP POP JUMP JUMPDEST PUSH0 PUSH20 0xFFFFFFFFFFFFFFFFFFFFFFFFFFFFFFFFFFFFFFFF AND DUP4 PUSH20 0xFFFFFFFFFFFFFFFFFFFFFFFFFFFFFFFFFFFFFFFF AND SUB PUSH3 0x727 JUMPI PUSH1 0x40 MLOAD PUSH32 0x8C379A000000000000000000000000000000000000000000000000000000000 DUP2 MSTORE PUSH1 0x4 ADD PUSH3 0x71E SWAP1 PUSH3 0x1065 JUMP JUMPDEST PUSH1 0x40 MLOAD DUP1 SWAP2 SUB SWAP1 REVERT JUMPDEST PUSH0 PUSH20 0xFFFFFFFFFFFFFFFFFFFFFFFFFFFFFFFFFFFFFFFF AND DUP3 PUSH20 0xFFFFFFFFFFFFFFFFFFFFFFFFFFFFFFFFFFFFFFFF AND SUB PUSH3 0x798 JUMPI PUSH1 0x40 MLOAD PUSH32 0x8C379A000000000000000000000000000000000000000000000000000000000 DUP2 MSTORE PUSH1 0x4 ADD PUSH3 0x78F SWAP1 PUSH3 0x10F9 JUMP JUMPDEST PUSH1 0x40 MLOAD DUP1 SWAP2 SUB SWAP1 REVERT JUMPDEST DUP1 PUSH1 0x1 PUSH0 DUP6 PUSH20 0xFFFFFFFFFFFFFFFFFFFFFFFFFFFFFFFFFFFFFFFF AND PUSH20 0xFFFFFFFFFFFFFFFFFFFFFFFFFFFFFFFFFFFFFFFF AND DUP2 MSTORE PUSH1 0x20 ADD SWAP1 DUP2 MSTORE PUSH1 0x20 ADD PUSH0 KECCAK256 PUSH0 DUP5 PUSH20 0xFFFFFFFFFFFFFFFFFFFFFFFFFFFFFFFFFFFFFFFF AND PUSH20 0xFFFFFFFFFFFFFFFFFFFFFFFFFFFFFFFFFFFFFFFF AND DUP2 MSTORE PUSH1 0x20 ADD SWAP1 DUP2 MSTORE PUSH1 0x20 ADD PUSH0 KECCAK256 DUP2 SWAP1 SSTORE POP DUP2 PUSH20 0xFFFFFFFFFFFFFFFFFFFFFFFFFFFFFFFFFFFFFFFF AND DUP4 PUSH20 0xFFFFFFFFFFFFFFFFFFFFFFFFFFFFFFFFFFFFFFFF AND PUSH32 0x8C5BE1E5EBEC7D5BD14F71427D1E84F3DD0314C0F7B2291E5B200AC8C7C3B925 DUP4 PUSH1 0x40 MLOAD PUSH3 0x874 SWAP2 SWAP1 PUSH3 0xFD6 JUMP JUMPDEST PUSH1 0x40 MLOAD DUP1 SWAP2 SUB SWAP1 LOG3 POP POP POP JUMP JUMPDEST PUSH32 0x4E487B7100000000000000000000000000000000000000000000000000000000 PUSH0 MSTORE PUSH1 0x11 PUSH1 0x4 MSTORE PUSH1 0x24 PUSH0 REVERT JUMPDEST PUSH0 DUP2 PUSH1 0x1 SHR SWAP1 POP SWAP2 SWAP1 POP JUMP JUMPDEST PUSH0 DUP1 DUP3 SWAP2 POP DUP4 SWAP1 POP JUMPDEST PUSH1 0x1 DUP6 GT ISZERO PUSH3 0x90B JUMPI DUP1 DUP7 DIV DUP2 GT ISZERO PUSH3 0x8E3 JUMPI PUSH3 0x8E2 PUSH3 0x881 JUMP JUMPDEST JUMPDEST PUSH1 0x1 DUP6 AND ISZERO PUSH3 0x8F3 JUMPI DUP1 DUP3 MUL SWAP2 POP JUMPDEST DUP1 DUP2 MUL SWAP1 POP PUSH3 0x903 DUP6 PUSH3 0x8AE JUMP JUMPDEST SWAP5 POP PUSH3 0x8C3 JUMP JUMPDEST SWAP5 POP SWAP5 SWAP3 POP POP POP JUMP JUMPDEST PUSH0 DUP3 PUSH3 0x925 JUMPI PUSH1 0x1 SWAP1 POP PUSH3 0x9F7 JUMP JUMPDEST DUP2 PUSH3 0x934 JUMPI PUSH0 SWAP1 POP PUSH3 0x9F7 JUMP JUMPDEST DUP2 PUSH1 0x1 DUP2 EQ PUSH3 0x94D JUMPI PUSH1 0x2 DUP2 EQ PUSH3 0x958 JUMPI PUSH3 0x98E JUMP JUMPDEST PUSH1 0x1 SWAP2 POP POP PUSH3 0x9F7 JUMP JUMPDEST PUSH1 0xFF DUP5 GT ISZERO PUSH3 0x96D JUMPI PUSH3 0x96C PUSH3 0x881 JUMP JUMPDEST JUMPDEST DUP4 PUSH1 0x2 EXP SWAP2 POP DUP5 DUP3 GT ISZERO PUSH3 0x987 JUMPI PUSH3 0x986 PUSH3 0x881 JUMP JUMPDEST JUMPDEST POP PUSH3 0x9F7 JUMP JUMPDEST POP PUSH1 0x20 DUP4 LT PUSH2 0x133 DUP4 LT AND PUSH1 0x4E DUP5 LT PUSH1 0xB DUP5 LT AND OR ISZERO PUSH3 0x9C8 JUMPI DUP3 DUP3 EXP SWAP1 POP DUP4 DUP2 GT ISZERO PUSH3 0x9C2 JUMPI PUSH3 0x9C1 PUSH3 0x881 JUMP JUMPDEST JUMPDEST PUSH3 0x9F7 JUMP JUMPDEST PUSH3 0x9D7 DUP5 DUP5 DUP5 PUSH1 0x1 PUSH3 0x8BA JUMP JUMPDEST SWAP3 POP SWAP1 POP DUP2 DUP5 DIV DUP2 GT ISZERO PUSH3 0x9F1 JUMPI PUSH3 0x9F0 PUSH3 0x881 JUMP JUMPDEST JUMPDEST DUP2 DUP2 MUL SWAP1 POP JUMPDEST SWAP4 SWAP3 POP POP POP JUMP JUMPDEST PUSH0 DUP2 SWAP1 POP SWAP2 SWAP1 POP JUMP JUMPDEST PUSH0 PUSH1 0xFF DUP3 AND SWAP1 POP SWAP2 SWAP1 POP JUMP JUMPDEST PUSH0 PUSH3 0xA1F DUP3 PUSH3 0x9FE JUMP JUMPDEST SWAP2 POP PUSH3 0xA2C DUP4 PUSH3 0xA07 JUMP JUMPDEST SWAP3 POP PUSH3 0xA5B PUSH32 0xFFFFFFFFFFFFFFFFFFFFFFFFFFFFFFFFFFFFFFFFFFFFFFFFFFFFFFFFFFFFFFFF DUP5 DUP5 PUSH3 0x914 JUMP JUMPDEST SWAP1 POP SWAP3 SWAP2 POP POP JUMP JUMPDEST PUSH0 PUSH3 0xA6F DUP3 PUSH3 0x9FE JUMP JUMPDEST SWAP2 POP PUSH3 0xA7C DUP4 PUSH3 0x9FE JUMP JUMPDEST SWAP3 POP DUP3 DUP3 MUL PUSH3 0xA8C DUP2 PUSH3 0x9FE JUMP JUMPDEST SWAP2 POP DUP3 DUP3 DIV DUP5 EQ DUP4 ISZERO OR PUSH3 0xAA6 JUMPI PUSH3 0xAA5 PUSH3 0x881 JUMP JUMPDEST JUMPDEST POP SWAP3 SWAP2 POP POP JUMP JUMPDEST PUSH0 DUP2 MLOAD SWAP1 POP SWAP2 SWAP1 POP JUMP JUMPDEST PUSH32 0x4E487B7100000000000000000000000000000000000000000000000000000000 PUSH0 MSTORE PUSH1 0x41 PUSH1 0x4 MSTORE PUSH1 0x24 PUSH0 REVERT JUMPDEST PUSH32 0x4E487B7100000000000000000000000000000000000000000000000000000000 PUSH0 MSTORE PUSH1 0x22 PUSH1 0x4 MSTORE PUSH1 0x24 PUSH0 REVERT JUMPDEST PUSH0 PUSH1 0x2 DUP3 DIV SWAP1 POP PUSH1 0x1 DUP3 AND DUP1 PUSH3 0xB29 JUMPI PUSH1 0x7F DUP3 AND SWAP2 POP JUMPDEST PUSH1 0x20 DUP3 LT DUP2 SUB PUSH3 0xB3F JUMPI PUSH3 0xB3E PUSH3 0xAE4 JUMP JUMPDEST JUMPDEST POP SWAP2 SWAP1 POP JUMP JUMPDEST PUSH0 DUP2 SWAP1 POP DUP2 PUSH0 MSTORE PUSH1 0x20 PUSH0 KECCAK256 SWAP1 POP SWAP2 SWAP1 POP JUMP JUMPDEST PUSH0 PUSH1 0x20 PUSH1 0x1F DUP4 ADD DIV SWAP1 POP SWAP2 SWAP1 POP JUMP JUMPDEST PUSH0 DUP3 DUP3 SHL SWAP1 POP SWAP3 SWAP2 POP POP JUMP JUMPDEST PUSH0 PUSH1 0x8 DUP4 MUL PUSH3 0xBA3 PUSH32 0xFFFFFFFFFFFFFFFFFFFFFFFFFFFFFFFFFFFFFFFFFFFFFFFFFFFFFFFFFFFFFFFF DUP3 PUSH3 0xB66 JUMP JUMPDEST PUSH3 0xBAF DUP7 DUP4 PUSH3 0xB66 JUMP JUMPDEST SWAP6 POP DUP1 NOT DUP5 AND SWAP4 POP DUP1 DUP7 AND DUP5 OR SWAP3 POP POP POP SWAP4 SWAP3 POP POP POP JUMP JUMPDEST PUSH0 DUP2 SWAP1 POP SWAP2 SWAP1 POP JUMP JUMPDEST PUSH0 PUSH3 0xBF0 PUSH3 0xBEA PUSH3 0xBE4 DUP5 PUSH3 0x9FE JUMP JUMPDEST PUSH3 0xBC7 JUMP JUMPDEST PUSH3 0x9FE JUMP JUMPDEST SWAP1 POP SWAP2 SWAP1 POP JUMP JUMPDEST PUSH0 DUP2 SWAP1 POP SWAP2 SWAP1 POP JUMP JUMPDEST PUSH3 0xC0B DUP4 PUSH3 0xBD0 JUMP JUMPDEST PUSH3 0xC23 PUSH3 0xC1A DUP3 PUSH3 0xBF7 JUMP JUMPDEST DUP5 DUP5 SLOAD PUSH3 0xB72 JUMP JUMPDEST DUP3 SSTORE POP POP POP POP JUMP JUMPDEST PUSH0 SWAP1 JUMP JUMPDEST PUSH3 0xC39 PUSH3 0xC2B JUMP JUMPDEST PUSH3 0xC46 DUP2 DUP5 DUP5 PUSH3 0xC00 JUMP JUMPDEST POP POP POP JUMP JUMPDEST JUMPDEST DUP2 DUP2 LT ISZERO PUSH3 0xC6D JUMPI PUSH3 0xC61 PUSH0 DUP3 PUSH3 0xC2F JUMP JUMPDEST PUSH1 0x1 DUP2 ADD SWAP1 POP PUSH3 0xC4C JUMP JUMPDEST POP POP JUMP JUMPDEST PUSH1 0x1F DUP3 GT ISZERO PUSH3 0xCBC JUMPI PUSH3 0xC86 DUP2 PUSH3 0xB45 JUMP JUMPDEST PUSH3 0xC91 DUP5 PUSH3 0xB57 JUMP JUMPDEST DUP2 ADD PUSH1 0x20 DUP6 LT ISZERO PUSH3 0xCA1 JUMPI DUP2 SWAP1 POP JUMPDEST PUSH3 0xCB9 PUSH3 0xCB0 DUP6 PUSH3 0xB57 JUMP JUMPDEST DUP4 ADD DUP3 PUSH3 0xC4B JUMP JUMPDEST POP POP JUMPDEST POP POP POP JUMP JUMPDEST PUSH0 DUP3 DUP3 SHR SWAP1 POP SWAP3 SWAP2 POP POP JUMP JUMPDEST PUSH0 PUSH3 0xCDE PUSH0 NOT DUP5 PUSH1 0x8 MUL PUSH3 0xCC1 JUMP JUMPDEST NOT DUP1 DUP4 AND SWAP2 POP POP SWAP3 SWAP2 POP POP JUMP JUMPDEST PUSH0 PUSH3 0xCF8 DUP4 DUP4 PUSH3 0xCCD JUMP JUMPDEST SWAP2 POP DUP3 PUSH1 0x2 MUL DUP3 OR SWAP1 POP SWAP3 SWAP2 POP POP JUMP JUMPDEST PUSH3 0xD13 DUP3 PUSH3 0xAAD JUMP JUMPDEST PUSH8 0xFFFFFFFFFFFFFFFF DUP2 GT ISZERO PUSH3 0xD2F JUMPI PUSH3 0xD2E PUSH3 0xAB7 JUMP JUMPDEST JUMPDEST PUSH3 0xD3B DUP3 SLOAD PUSH3 0xB11 JUMP JUMPDEST PUSH3 0xD48 DUP3 DUP3 DUP6 PUSH3 0xC71 JUMP JUMPDEST PUSH0 PUSH1 0x20 SWAP1 POP PUSH1 0x1F DUP4 GT PUSH1 0x1 DUP2 EQ PUSH3 0xD7E JUMPI PUSH0 DUP5 ISZERO PUSH3 0xD69 JUMPI DUP3 DUP8 ADD MLOAD SWAP1 POP JUMPDEST PUSH3 0xD75 DUP6 DUP3 PUSH3 0xCEB JUMP JUMPDEST DUP7 SSTORE POP PUSH3 0xDE4 JUMP JUMPDEST PUSH1 0x1F NOT DUP5 AND PUSH3 0xD8E DUP7 PUSH3 0xB45 JUMP JUMPDEST PUSH0 JUMPDEST DUP3 DUP2 LT ISZERO PUSH3 0xDB7 JUMPI DUP5 DUP10 ADD MLOAD DUP3 SSTORE PUSH1 0x1 DUP3 ADD SWAP2 POP PUSH1 0x20 DUP6 ADD SWAP5 POP PUSH1 0x20 DUP2 ADD SWAP1 POP PUSH3 0xD90 JUMP JUMPDEST DUP7 DUP4 LT ISZERO PUSH3 0xDD7 JUMPI DUP5 DUP10 ADD MLOAD PUSH3 0xDD3 PUSH1 0x1F DUP10 AND DUP3 PUSH3 0xCCD JUMP JUMPDEST DUP4 SSTORE POP JUMPDEST PUSH1 0x1 PUSH1 0x2 DUP9 MUL ADD DUP9 SSTORE POP POP POP JUMPDEST POP POP POP POP POP POP JUMP JUMPDEST PUSH0 PUSH3 0xDF8 DUP3 PUSH3 0x9FE JUMP JUMPDEST SWAP2 POP PUSH3 0xE05 DUP4 PUSH3 0x9FE JUMP JUMPDEST SWAP3 POP PUSH3 0xE34 PUSH32 0xFFFFFFFFFFFFFFFFFFFFFFFFFFFFFFFFFFFFFFFFFFFFFFFFFFFFFFFFFFFFFFFF DUP5 DUP5 PUSH3 0x914 JUMP JUMPDEST SWAP1 POP SWAP3 SWAP2 POP POP JUMP JUMPDEST PUSH0 DUP1 REVERT JUMPDEST PUSH0 PUSH20 0xFFFFFFFFFFFFFFFFFFFFFFFFFFFFFFFFFFFFFFFF DUP3 AND SWAP1 POP SWAP2 SWAP1 POP JUMP JUMPDEST PUSH0 PUSH3 0xE6B DUP3 PUSH3 0xE40 JUMP JUMPDEST SWAP1 POP SWAP2 SWAP1 POP JUMP JUMPDEST PUSH3 0xE7D DUP2 PUSH3 0xE5F JUMP JUMPDEST DUP2 EQ PUSH3 0xE88 JUMPI PUSH0 DUP1 REVERT JUMPDEST POP JUMP JUMPDEST PUSH0 DUP2 MLOAD SWAP1 POP PUSH3 0xE9B DUP2 PUSH3 0xE72 JUMP JUMPDEST SWAP3 SWAP2 POP POP JUMP JUMPDEST PUSH0 PUSH1 0x20 DUP3 DUP5 SUB SLT ISZERO PUSH3 0xEB9 JUMPI PUSH3 0xEB8 PUSH3 0xE3C JUMP JUMPDEST JUMPDEST PUSH0 PUSH3 0xEC8 DUP5 DUP3 DUP6 ADD PUSH3 0xE8B JUMP JUMPDEST SWAP2 POP POP SWAP3 SWAP2 POP POP JUMP JUMPDEST PUSH3 0xEDC DUP2 PUSH3 0xE5F JUMP JUMPDEST DUP3 MSTORE POP POP JUMP JUMPDEST PUSH0 PUSH1 0x40 DUP3 ADD SWAP1 POP PUSH3 0xEF7 PUSH0 DUP4 ADD DUP6 PUSH3 0xED1 JUMP JUMPDEST PUSH3 0xF06 PUSH1 0x20 DUP4 ADD DUP5 PUSH3 0xED1 JUMP JUMPDEST SWAP4 SWAP3 POP POP POP JUMP JUMPDEST PUSH0 DUP3 DUP3 MSTORE PUSH1 0x20 DUP3 ADD SWAP1 POP SWAP3 SWAP2 POP POP JUMP JUMPDEST PUSH32 0x45524332303A206D696E7420746F20746865207A65726F206164647265737300 PUSH0 DUP3 ADD MSTORE POP JUMP JUMPDEST PUSH0 PUSH3 0xF53 PUSH1 0x1F DUP4 PUSH3 0xF0D JUMP JUMPDEST SWAP2 POP PUSH3 0xF60 DUP3 PUSH3 0xF1D JUMP JUMPDEST PUSH1 0x20 DUP3 ADD SWAP1 POP SWAP2 SWAP1 POP JUMP JUMPDEST PUSH0 PUSH1 0x20 DUP3 ADD SWAP1 POP DUP2 DUP2 SUB PUSH0 DUP4 ADD MSTORE PUSH3 0xF84 DUP2 PUSH3 0xF45 JUMP JUMPDEST SWAP1 POP SWAP2 SWAP1 POP JUMP JUMPDEST PUSH0 PUSH3 0xF97 DUP3 PUSH3 0x9FE JUMP JUMPDEST SWAP2 POP PUSH3 0xFA4 DUP4 PUSH3 0x9FE JUMP JUMPDEST SWAP3 POP DUP3 DUP3 ADD SWAP1 POP DUP1 DUP3 GT ISZERO PUSH3 0xFBF JUMPI PUSH3 0xFBE PUSH3 0x881 JUMP JUMPDEST JUMPDEST SWAP3 SWAP2 POP POP JUMP JUMPDEST PUSH3 0xFD0 DUP2 PUSH3 0x9FE JUMP JUMPDEST DUP3 MSTORE POP POP JUMP JUMPDEST PUSH0 PUSH1 0x20 DUP3 ADD SWAP1 POP PUSH3 0xFEB PUSH0 DUP4 ADD DUP5 PUSH3 0xFC5 JUMP JUMPDEST SWAP3 SWAP2 POP POP JUMP JUMPDEST PUSH32 0x45524332303A20617070726F76652066726F6D20746865207A65726F20616464 PUSH0 DUP3 ADD MSTORE PUSH32 0x7265737300000000000000000000000000000000000000000000000000000000 PUSH1 0x20 DUP3 ADD MSTORE POP JUMP JUMPDEST PUSH0 PUSH3 0x104D PUSH1 0x24 DUP4 PUSH3 0xF0D JUMP JUMPDEST SWAP2 POP PUSH3 0x105A DUP3 PUSH3 0xFF1 JUMP JUMPDEST PUSH1 0x40 DUP3 ADD SWAP1 POP SWAP2 SWAP1 POP JUMP JUMPDEST PUSH0 PUSH1 0x20 DUP3 ADD SWAP1 POP DUP2 DUP2 SUB PUSH0 DUP4 ADD MSTORE PUSH3 0x107E DUP2 PUSH3 0x103F JUMP JUMPDEST SWAP1 POP SWAP2 SWAP1 POP JUMP JUMPDEST PUSH32 0x45524332303A20617070726F766520746F20746865207A65726F206164647265 PUSH0 DUP3 ADD MSTORE PUSH32 0x7373000000000000000000000000000000000000000000000000000000000000 PUSH1 0x20 DUP3 ADD MSTORE POP JUMP JUMPDEST PUSH0 PUSH3 0x10E1 PUSH1 0x22 DUP4 PUSH3 0xF0D JUMP JUMPDEST SWAP2 POP PUSH3 0x10EE DUP3 PUSH3 0x1085 JUMP JUMPDEST PUSH1 0x40 DUP3 ADD SWAP1 POP SWAP2 SWAP1 POP JUMP JUMPDEST PUSH0 PUSH1 0x20 DUP3 ADD SWAP1 POP DUP2 DUP2 SUB PUSH0 DUP4 ADD MSTORE PUSH3 0x1112 DUP2 PUSH3 0x10D3 JUMP JUMPDEST SWAP1 POP SWAP2 SWAP1 POP JUMP JUMPDEST PUSH2 0x2452 DUP1 PUSH3 0x1127 PUSH0 CODECOPY PUSH0 RETURN INVALID PUSH1 0x80 PUSH1 0x40 MSTORE CALLVALUE DUP1 ISZERO PUSH2 0xF JUMPI PUSH0 DUP1 REVERT JUMPDEST POP PUSH1 0x4 CALLDATASIZE LT PUSH2 0x1A7 JUMPI PUSH0 CALLDATALOAD PUSH1 0xE0 SHR DUP1 PUSH4 0x5D098B38 GT PUSH2 0xF7 JUMPI DUP1 PUSH4 0xA63748E5 GT PUSH2 0x95 JUMPI DUP1 PUSH4 0xCD48145B GT PUSH2 0x6F JUMPI DUP1 PUSH4 0xCD48145B EQ PUSH2 0x4AD JUMPI DUP1 PUSH4 0xDD62ED3E EQ PUSH2 0x4CB JUMPI DUP1 PUSH4 0xEEAF6F92 EQ PUSH2 0x4FB JUMPI DUP1 PUSH4 0xF2FDE38B EQ PUSH2 0x519 JUMPI PUSH2 0x1A7 JUMP JUMPDEST DUP1 PUSH4 0xA63748E5 EQ PUSH2 0x443 JUMPI DUP1 PUSH4 0xA9059CBB EQ PUSH2 0x45F JUMPI DUP1 PUSH4 0xC31C9C07 EQ PUSH2 0x48F JUMPI PUSH2 0x1A7 JUMP JUMPDEST DUP1 PUSH4 0x715018A6 GT PUSH2 0xD1 JUMPI DUP1 PUSH4 0x715018A6 EQ PUSH2 0x3CD JUMPI DUP1 PUSH4 0x8DA5CB5B EQ PUSH2 0x3D7 JUMPI DUP1 PUSH4 0x95D89B41 EQ PUSH2 0x3F5 JUMPI DUP1 PUSH4 0xA457C2D7 EQ PUSH2 0x413 JUMPI PUSH2 0x1A7 JUMP JUMPDEST DUP1 PUSH4 0x5D098B38 EQ PUSH2 0x363 JUMPI DUP1 PUSH4 0x60EC4C84 EQ PUSH2 0x37F JUMPI DUP1 PUSH4 0x70A08231 EQ PUSH2 0x39D JUMPI PUSH2 0x1A7 JUMP JUMPDEST DUP1 PUSH4 0x26991CC8 GT PUSH2 0x164 JUMPI DUP1 PUSH4 0x41F06D91 GT PUSH2 0x13E JUMPI DUP1 PUSH4 0x41F06D91 EQ PUSH2 0x2ED JUMPI DUP1 PUSH4 0x43A18909 EQ PUSH2 0x30B JUMPI DUP1 PUSH4 0x487C70FC EQ PUSH2 0x329 JUMPI DUP1 PUSH4 0x5958621E EQ PUSH2 0x347 JUMPI PUSH2 0x1A7 JUMP JUMPDEST DUP1 PUSH4 0x26991CC8 EQ PUSH2 0x281 JUMPI DUP1 PUSH4 0x313CE567 EQ PUSH2 0x29F JUMPI DUP1 PUSH4 0x39509351 EQ PUSH2 0x2BD JUMPI PUSH2 0x1A7 JUMP JUMPDEST DUP1 PUSH4 0x6FDDE03 EQ PUSH2 0x1AB JUMPI DUP1 PUSH4 0x95EA7B3 EQ PUSH2 0x1C9 JUMPI DUP1 PUSH4 0xE7E573F EQ PUSH2 0x1F9 JUMPI DUP1 PUSH4 0x18160DDD EQ PUSH2 0x215 JUMPI DUP1 PUSH4 0x23B872DD EQ PUSH2 0x233 JUMPI DUP1 PUSH4 0x2428CB9A EQ PUSH2 0x263 JUMPI JUMPDEST PUSH0 DUP1 REVERT JUMPDEST PUSH2 0x1B3 PUSH2 0x535 JUMP JUMPDEST PUSH1 0x40 MLOAD PUSH2 0x1C0 SWAP2 SWAP1 PUSH2 0x15E3 JUMP JUMPDEST PUSH1 0x40 MLOAD DUP1 SWAP2 SUB SWAP1 RETURN JUMPDEST PUSH2 0x1E3 PUSH1 0x4 DUP1 CALLDATASIZE SUB DUP2 ADD SWAP1 PUSH2 0x1DE SWAP2 SWAP1 PUSH2 0x1694 JUMP JUMPDEST PUSH2 0x5C5 JUMP JUMPDEST PUSH1 0x40 MLOAD PUSH2 0x1F0 SWAP2 SWAP1 PUSH2 0x16EC JUMP JUMPDEST PUSH1 0x40 MLOAD DUP1 SWAP2 SUB SWAP1 RETURN JUMPDEST PUSH2 0x213 PUSH1 0x4 DUP1 CALLDATASIZE SUB DUP2 ADD SWAP1 PUSH2 0x20E SWAP2 SWAP1 PUSH2 0x1705 JUMP JUMPDEST PUSH2 0x5E7 JUMP JUMPDEST STOP JUMPDEST PUSH2 0x21D PUSH2 0x617 JUMP JUMPDEST PUSH1 0x40 MLOAD PUSH2 0x22A SWAP2 SWAP1 PUSH2 0x173F JUMP JUMPDEST PUSH1 0x40 MLOAD DUP1 SWAP2 SUB SWAP1 RETURN JUMPDEST PUSH2 0x24D PUSH1 0x4 DUP1 CALLDATASIZE SUB DUP2 ADD SWAP1 PUSH2 0x248 SWAP2 SWAP1 PUSH2 0x1758 JUMP JUMPDEST PUSH2 0x620 JUMP JUMPDEST PUSH1 0x40 MLOAD PUSH2 0x25A SWAP2 SWAP1 PUSH2 0x16EC JUMP JUMPDEST PUSH1 0x40 MLOAD DUP1 SWAP2 SUB SWAP1 RETURN JUMPDEST PUSH2 0x26B PUSH2 0x64E JUMP JUMPDEST PUSH1 0x40 MLOAD PUSH2 0x278 SWAP2 SWAP1 PUSH2 0x17C8 JUMP JUMPDEST PUSH1 0x40 MLOAD DUP1 SWAP2 SUB SWAP1 RETURN JUMPDEST PUSH2 0x289 PUSH2 0x673 JUMP JUMPDEST PUSH1 0x40 MLOAD PUSH2 0x296 SWAP2 SWAP1 PUSH2 0x17F0 JUMP JUMPDEST PUSH1 0x40 MLOAD DUP1 SWAP2 SUB SWAP1 RETURN JUMPDEST PUSH2 0x2A7 PUSH2 0x698 JUMP JUMPDEST PUSH1 0x40 MLOAD PUSH2 0x2B4 SWAP2 SWAP1 PUSH2 0x1824 JUMP JUMPDEST PUSH1 0x40 MLOAD DUP1 SWAP2 SUB SWAP1 RETURN JUMPDEST PUSH2 0x2D7 PUSH1 0x4 DUP1 CALLDATASIZE SUB DUP2 ADD SWAP1 PUSH2 0x2D2 SWAP2 SWAP1 PUSH2 0x1694 JUMP JUMPDEST PUSH2 0x6A0 JUMP JUMPDEST PUSH1 0x40 MLOAD PUSH2 0x2E4 SWAP2 SWAP1 PUSH2 0x16EC JUMP JUMPDEST PUSH1 0x40 MLOAD DUP1 SWAP2 SUB SWAP1 RETURN JUMPDEST PUSH2 0x2F5 PUSH2 0x6D6 JUMP JUMPDEST PUSH1 0x40 MLOAD PUSH2 0x302 SWAP2 SWAP1 PUSH2 0x173F JUMP JUMPDEST PUSH1 0x40 MLOAD DUP1 SWAP2 SUB SWAP1 RETURN JUMPDEST PUSH2 0x313 PUSH2 0x6DC JUMP JUMPDEST PUSH1 0x40 MLOAD PUSH2 0x320 SWAP2 SWAP1 PUSH2 0x17C8 JUMP JUMPDEST PUSH1 0x40 MLOAD DUP1 SWAP2 SUB SWAP1 RETURN JUMPDEST PUSH2 0x331 PUSH2 0x701 JUMP JUMPDEST PUSH1 0x40 MLOAD PUSH2 0x33E SWAP2 SWAP1 PUSH2 0x173F JUMP JUMPDEST PUSH1 0x40 MLOAD DUP1 SWAP2 SUB SWAP1 RETURN JUMPDEST PUSH2 0x361 PUSH1 0x4 DUP1 CALLDATASIZE SUB DUP2 ADD SWAP1 PUSH2 0x35C SWAP2 SWAP1 PUSH2 0x1867 JUMP JUMPDEST PUSH2 0x707 JUMP JUMPDEST STOP JUMPDEST PUSH2 0x37D PUSH1 0x4 DUP1 CALLDATASIZE SUB DUP2 ADD SWAP1 PUSH2 0x378 SWAP2 SWAP1 PUSH2 0x1867 JUMP JUMPDEST PUSH2 0x752 JUMP JUMPDEST STOP JUMPDEST PUSH2 0x387 PUSH2 0x79D JUMP JUMPDEST PUSH1 0x40 MLOAD PUSH2 0x394 SWAP2 SWAP1 PUSH2 0x173F JUMP JUMPDEST PUSH1 0x40 MLOAD DUP1 SWAP2 SUB SWAP1 RETURN JUMPDEST PUSH2 0x3B7 PUSH1 0x4 DUP1 CALLDATASIZE SUB DUP2 ADD SWAP1 PUSH2 0x3B2 SWAP2 SWAP1 PUSH2 0x1892 JUMP JUMPDEST PUSH2 0x7A3 JUMP JUMPDEST PUSH1 0x40 MLOAD PUSH2 0x3C4 SWAP2 SWAP1 PUSH2 0x173F JUMP JUMPDEST PUSH1 0x40 MLOAD DUP1 SWAP2 SUB SWAP1 RETURN JUMPDEST PUSH2 0x3D5 PUSH2 0x7E8 JUMP JUMPDEST STOP JUMPDEST PUSH2 0x3DF PUSH2 0x7FB JUMP JUMPDEST PUSH1 0x40 MLOAD PUSH2 0x3EC SWAP2 SWAP1 PUSH2 0x17F0 JUMP JUMPDEST PUSH1 0x40 MLOAD DUP1 SWAP2 SUB SWAP1 RETURN JUMPDEST PUSH2 0x3FD PUSH2 0x823 JUMP JUMPDEST PUSH1 0x40 MLOAD PUSH2 0x40A SWAP2 SWAP1 PUSH2 0x15E3 JUMP JUMPDEST PUSH1 0x40 MLOAD DUP1 SWAP2 SUB SWAP1 RETURN JUMPDEST PUSH2 0x42D PUSH1 0x4 DUP1 CALLDATASIZE SUB DUP2 ADD SWAP1 PUSH2 0x428 SWAP2 SWAP1 PUSH2 0x1694 JUMP JUMPDEST PUSH2 0x8B3 JUMP JUMPDEST PUSH1 0x40 MLOAD PUSH2 0x43A SWAP2 SWAP1 PUSH2 0x16EC JUMP JUMPDEST PUSH1 0x40 MLOAD DUP1 SWAP2 SUB SWAP1 RETURN JUMPDEST PUSH2 0x45D PUSH1 0x4 DUP1 CALLDATASIZE SUB DUP2 ADD SWAP1 PUSH2 0x458 SWAP2 SWAP1 PUSH2 0x18BD JUMP JUMPDEST PUSH2 0x928 JUMP JUMPDEST STOP JUMPDEST PUSH2 0x479 PUSH1 0x4 DUP1 CALLDATASIZE SUB DUP2 ADD SWAP1 PUSH2 0x474 SWAP2 SWAP1 PUSH2 0x1694 JUMP JUMPDEST PUSH2 0x95C JUMP JUMPDEST PUSH1 0x40 MLOAD PUSH2 0x486 SWAP2 SWAP1 PUSH2 0x16EC JUMP JUMPDEST PUSH1 0x40 MLOAD DUP1 SWAP2 SUB SWAP1 RETURN JUMPDEST PUSH2 0x497 PUSH2 0x97E JUMP JUMPDEST PUSH1 0x40 MLOAD PUSH2 0x4A4 SWAP2 SWAP1 PUSH2 0x1968 JUMP JUMPDEST PUSH1 0x40 MLOAD DUP1 SWAP2 SUB SWAP1 RETURN JUMPDEST PUSH2 0x4B5 PUSH2 0x9A3 JUMP JUMPDEST PUSH1 0x40 MLOAD PUSH2 0x4C2 SWAP2 SWAP1 PUSH2 0x173F JUMP JUMPDEST PUSH1 0x40 MLOAD DUP1 SWAP2 SUB SWAP1 RETURN JUMPDEST PUSH2 0x4E5 PUSH1 0x4 DUP1 CALLDATASIZE SUB DUP2 ADD SWAP1 PUSH2 0x4E0 SWAP2 SWAP1 PUSH2 0x1981 JUMP JUMPDEST PUSH2 0x9A9 JUMP JUMPDEST PUSH1 0x40 MLOAD PUSH2 0x4F2 SWAP2 SWAP1 PUSH2 0x173F JUMP JUMPDEST PUSH1 0x40 MLOAD DUP1 SWAP2 SUB SWAP1 RETURN JUMPDEST PUSH2 0x503 PUSH2 0xA2B JUMP JUMPDEST PUSH1 0x40 MLOAD PUSH2 0x510 SWAP2 SWAP1 PUSH2 0x173F JUMP JUMPDEST PUSH1 0x40 MLOAD DUP1 SWAP2 SUB SWAP1 RETURN JUMPDEST PUSH2 0x533 PUSH1 0x4 DUP1 CALLDATASIZE SUB DUP2 ADD SWAP1 PUSH2 0x52E SWAP2 SWAP1 PUSH2 0x1892 JUMP JUMPDEST PUSH2 0xA31 JUMP JUMPDEST STOP JUMPDEST PUSH1 0x60 PUSH1 0x3 DUP1 SLOAD PUSH2 0x544 SWAP1 PUSH2 0x19EC JUMP JUMPDEST DUP1 PUSH1 0x1F ADD PUSH1 0x20 DUP1 SWAP2 DIV MUL PUSH1 0x20 ADD PUSH1 0x40 MLOAD SWAP1 DUP2 ADD PUSH1 0x40 MSTORE DUP1 SWAP3 SWAP2 SWAP1 DUP2 DUP2 MSTORE PUSH1 0x20 ADD DUP3 DUP1 SLOAD PUSH2 0x570 SWAP1 PUSH2 0x19EC JUMP JUMPDEST DUP1 ISZERO PUSH2 0x5BB JUMPI DUP1 PUSH1 0x1F LT PUSH2 0x592 JUMPI PUSH2 0x100 DUP1 DUP4 SLOAD DIV MUL DUP4 MSTORE SWAP2 PUSH1 0x20 ADD SWAP2 PUSH2 0x5BB JUMP JUMPDEST DUP3 ADD SWAP2 SWAP1 PUSH0 MSTORE PUSH1 0x20 PUSH0 KECCAK256 SWAP1 JUMPDEST DUP2 SLOAD DUP2 MSTORE SWAP1 PUSH1 0x1 ADD SWAP1 PUSH1 0x20 ADD DUP1 DUP4 GT PUSH2 0x59E JUMPI DUP3 SWAP1 SUB PUSH1 0x1F AND DUP3 ADD SWAP2 JUMPDEST POP POP POP POP POP SWAP1 POP SWAP1 JUMP JUMPDEST PUSH0 DUP1 PUSH2 0x5CF PUSH2 0xAB3 JUMP JUMPDEST SWAP1 POP PUSH2 0x5DC DUP2 DUP6 DUP6 PUSH2 0xABA JUMP JUMPDEST PUSH1 0x1 SWAP2 POP POP SWAP3 SWAP2 POP POP JUMP JUMPDEST PUSH2 0x5EF PUSH2 0xC7D JUMP JUMPDEST PUSH2 0x5F7 PUSH2 0x698 JUMP JUMPDEST PUSH1 0xA PUSH2 0x603 SWAP2 SWAP1 PUSH2 0x1B78 JUMP JUMPDEST DUP2 PUSH2 0x60E SWAP2 SWAP1 PUSH2 0x1BC2 JUMP JUMPDEST PUSH1 0xC DUP2 SWAP1 SSTORE POP POP JUMP JUMPDEST PUSH0 PUSH1 0x2 SLOAD SWAP1 POP SWAP1 JUMP JUMPDEST PUSH0 DUP1 PUSH2 0x62A PUSH2 0xAB3 JUMP JUMPDEST SWAP1 POP PUSH2 0x637 DUP6 DUP3 DUP6 PUSH2 0xCFB JUMP JUMPDEST PUSH2 0x642 DUP6 DUP6 DUP6 PUSH2 0xD86 JUMP JUMPDEST PUSH1 0x1 SWAP2 POP POP SWAP4 SWAP3 POP POP POP JUMP JUMPDEST PUSH1 0x7 PUSH0 SWAP1 SLOAD SWAP1 PUSH2 0x100 EXP SWAP1 DIV PUSH20 0xFFFFFFFFFFFFFFFFFFFFFFFFFFFFFFFFFFFFFFFF AND DUP2 JUMP JUMPDEST PUSH1 0x11 PUSH0 SWAP1 SLOAD SWAP1 PUSH2 0x100 EXP SWAP1 DIV PUSH20 0xFFFFFFFFFFFFFFFFFFFFFFFFFFFFFFFFFFFFFFFF AND DUP2 JUMP JUMPDEST PUSH0 PUSH1 0x12 SWAP1 POP SWAP1 JUMP JUMPDEST PUSH0 DUP1 PUSH2 0x6AA PUSH2 0xAB3 JUMP JUMPDEST SWAP1 POP PUSH2 0x6CB DUP2 DUP6 DUP6 PUSH2 0x6BC DUP6 DUP10 PUSH2 0x9A9 JUMP JUMPDEST PUSH2 0x6C6 SWAP2 SWAP1 PUSH2 0x1C03 JUMP JUMPDEST PUSH2 0xABA JUMP JUMPDEST PUSH1 0x1 SWAP2 POP POP SWAP3 SWAP2 POP POP JUMP JUMPDEST PUSH1 0xB SLOAD DUP2 JUMP JUMPDEST PUSH1 0x6 PUSH0 SWAP1 SLOAD SWAP1 PUSH2 0x100 EXP SWAP1 DIV PUSH20 0xFFFFFFFFFFFFFFFFFFFFFFFFFFFFFFFFFFFFFFFF AND DUP2 JUMP JUMPDEST PUSH1 0xC SLOAD DUP2 JUMP JUMPDEST PUSH2 0x70F PUSH2 0xC7D JUMP JUMPDEST DUP1 PUSH1 0x6 PUSH0 PUSH2 0x100 EXP DUP2 SLOAD DUP2 PUSH20 0xFFFFFFFFFFFFFFFFFFFFFFFFFFFFFFFFFFFFFFFF MUL NOT AND SWAP1 DUP4 PUSH20 0xFFFFFFFFFFFFFFFFFFFFFFFFFFFFFFFFFFFFFFFF AND MUL OR SWAP1 SSTORE POP POP JUMP JUMPDEST PUSH2 0x75A PUSH2 0xC7D JUMP JUMPDEST DUP1 PUSH1 0x7 PUSH0 PUSH2 0x100 EXP DUP2 SLOAD DUP2 PUSH20 0xFFFFFFFFFFFFFFFFFFFFFFFFFFFFFFFFFFFFFFFF MUL NOT AND SWAP1 DUP4 PUSH20 0xFFFFFFFFFFFFFFFFFFFFFFFFFFFFFFFFFFFFFFFF AND MUL OR SWAP1 SSTORE POP POP JUMP JUMPDEST PUSH1 0x9 SLOAD DUP2 JUMP JUMPDEST PUSH0 DUP1 PUSH0 DUP4 PUSH20 0xFFFFFFFFFFFFFFFFFFFFFFFFFFFFFFFFFFFFFFFF AND PUSH20 0xFFFFFFFFFFFFFFFFFFFFFFFFFFFFFFFFFFFFFFFF AND DUP2 MSTORE PUSH1 0x20 ADD SWAP1 DUP2 MSTORE PUSH1 0x20 ADD PUSH0 KECCAK256 SLOAD SWAP1 POP SWAP2 SWAP1 POP JUMP JUMPDEST PUSH2 0x7F0 PUSH2 0xC7D JUMP JUMPDEST PUSH2 0x7F9 PUSH0 PUSH2 0xF44 JUMP JUMPDEST JUMP JUMPDEST PUSH0 PUSH1 0x5 PUSH0 SWAP1 SLOAD SWAP1 PUSH2 0x100 EXP SWAP1 DIV PUSH20 0xFFFFFFFFFFFFFFFFFFFFFFFFFFFFFFFFFFFFFFFF AND SWAP1 POP SWAP1 JUMP JUMPDEST PUSH1 0x60 PUSH1 0x4 DUP1 SLOAD PUSH2 0x832 SWAP1 PUSH2 0x19EC JUMP JUMPDEST DUP1 PUSH1 0x1F ADD PUSH1 0x20 DUP1 SWAP2 DIV MUL PUSH1 0x20 ADD PUSH1 0x40 MLOAD SWAP1 DUP2 ADD PUSH1 0x40 MSTORE DUP1 SWAP3 SWAP2 SWAP1 DUP2 DUP2 MSTORE PUSH1 0x20 ADD DUP3 DUP1 SLOAD PUSH2 0x85E SWAP1 PUSH2 0x19EC JUMP JUMPDEST DUP1 ISZERO PUSH2 0x8A9 JUMPI DUP1 PUSH1 0x1F LT PUSH2 0x880 JUMPI PUSH2 0x100 DUP1 DUP4 SLOAD DIV MUL DUP4 MSTORE SWAP2 PUSH1 0x20 ADD SWAP2 PUSH2 0x8A9 JUMP JUMPDEST DUP3 ADD SWAP2 SWAP1 PUSH0 MSTORE PUSH1 0x20 PUSH0 KECCAK256 SWAP1 JUMPDEST DUP2 SLOAD DUP2 MSTORE SWAP1 PUSH1 0x1 ADD SWAP1 PUSH1 0x20 ADD DUP1 DUP4 GT PUSH2 0x88C JUMPI DUP3 SWAP1 SUB PUSH1 0x1F AND DUP3 ADD SWAP2 JUMPDEST POP POP POP POP POP SWAP1 POP SWAP1 JUMP JUMPDEST PUSH0 DUP1 PUSH2 0x8BD PUSH2 0xAB3 JUMP JUMPDEST SWAP1 POP PUSH0 PUSH2 0x8CA DUP3 DUP7 PUSH2 0x9A9 JUMP JUMPDEST SWAP1 POP DUP4 DUP2 LT ISZERO PUSH2 0x90F JUMPI PUSH1 0x40 MLOAD PUSH32 0x8C379A000000000000000000000000000000000000000000000000000000000 DUP2 MSTORE PUSH1 0x4 ADD PUSH2 0x906 SWAP1 PUSH2 0x1CA6 JUMP JUMPDEST PUSH1 0x40 MLOAD DUP1 SWAP2 SUB SWAP1 REVERT JUMPDEST PUSH2 0x91C DUP3 DUP7 DUP7 DUP5 SUB PUSH2 0xABA JUMP JUMPDEST PUSH1 0x1 SWAP3 POP POP POP SWAP3 SWAP2 POP POP JUMP JUMPDEST PUSH2 0x930 PUSH2 0xC7D JUMP JUMPDEST DUP3 PUSH1 0x9 DUP2 SWAP1 SSTORE POP DUP2 PUSH1 0xA DUP2 SWAP1 SSTORE POP DUP1 PUSH1 0xB DUP2 SWAP1 SSTORE POP DUP1 DUP4 PUSH2 0x951 SWAP2 SWAP1 PUSH2 0x1C03 JUMP JUMPDEST PUSH1 0x8 DUP2 SWAP1 SSTORE POP POP POP POP JUMP JUMPDEST PUSH0 DUP1 PUSH2 0x966 PUSH2 0xAB3 JUMP JUMPDEST SWAP1 POP PUSH2 0x973 DUP2 DUP6 DUP6 PUSH2 0xD86 JUMP JUMPDEST PUSH1 0x1 SWAP2 POP POP SWAP3 SWAP2 POP POP JUMP JUMPDEST PUSH1 0x10 PUSH0 SWAP1 SLOAD SWAP1 PUSH2 0x100 EXP SWAP1 DIV PUSH20 0xFFFFFFFFFFFFFFFFFFFFFFFFFFFFFFFFFFFFFFFF AND DUP2 JUMP JUMPDEST PUSH1 0x8 SLOAD DUP2 JUMP JUMPDEST PUSH0 PUSH1 0x1 PUSH0 DUP5 PUSH20 0xFFFFFFFFFFFFFFFFFFFFFFFFFFFFFFFFFFFFFFFF AND PUSH20 0xFFFFFFFFFFFFFFFFFFFFFFFFFFFFFFFFFFFFFFFF AND DUP2 MSTORE PUSH1 0x20 ADD SWAP1 DUP2 MSTORE PUSH1 0x20 ADD PUSH0 KECCAK256 PUSH0 DUP4 PUSH20 0xFFFFFFFFFFFFFFFFFFFFFFFFFFFFFFFFFFFFFFFF AND PUSH20 0xFFFFFFFFFFFFFFFFFFFFFFFFFFFFFFFFFFFFFFFF AND DUP2 MSTORE PUSH1 0x20 ADD SWAP1 DUP2 MSTORE PUSH1 0x20 ADD PUSH0 KECCAK256 SLOAD SWAP1 POP SWAP3 SWAP2 POP POP JUMP JUMPDEST PUSH1 0xA SLOAD DUP2 JUMP JUMPDEST PUSH2 0xA39 PUSH2 0xC7D JUMP JUMPDEST PUSH0 PUSH20 0xFFFFFFFFFFFFFFFFFFFFFFFFFFFFFFFFFFFFFFFF AND DUP2 PUSH20 0xFFFFFFFFFFFFFFFFFFFFFFFFFFFFFFFFFFFFFFFF AND SUB PUSH2 0xAA7 JUMPI PUSH1 0x40 MLOAD PUSH32 0x8C379A000000000000000000000000000000000000000000000000000000000 DUP2 MSTORE PUSH1 0x4 ADD PUSH2 0xA9E SWAP1 PUSH2 0x1D34 JUMP JUMPDEST PUSH1 0x40 MLOAD DUP1 SWAP2 SUB SWAP1 REVERT JUMPDEST PUSH2 0xAB0 DUP2 PUSH2 0xF44 JUMP JUMPDEST POP JUMP JUMPDEST PUSH0 CALLER SWAP1 POP SWAP1 JUMP JUMPDEST PUSH0 PUSH20 0xFFFFFFFFFFFFFFFFFFFFFFFFFFFFFFFFFFFFFFFF AND DUP4 PUSH20 0xFFFFFFFFFFFFFFFFFFFFFFFFFFFFFFFFFFFFFFFF AND SUB PUSH2 0xB28 JUMPI PUSH1 0x40 MLOAD PUSH32 0x8C379A000000000000000000000000000000000000000000000000000000000 DUP2 MSTORE PUSH1 0x4 ADD PUSH2 0xB1F SWAP1 PUSH2 0x1DC2 JUMP JUMPDEST PUSH1 0x40 MLOAD DUP1 SWAP2 SUB SWAP1 REVERT JUMPDEST PUSH0 PUSH20 0xFFFFFFFFFFFFFFFFFFFFFFFFFFFFFFFFFFFFFFFF AND DUP3 PUSH20 0xFFFFFFFFFFFFFFFFFFFFFFFFFFFFFFFFFFFFFFFF AND SUB PUSH2 0xB96 JUMPI PUSH1 0x40 MLOAD PUSH32 0x8C379A000000000000000000000000000000000000000000000000000000000 DUP2 MSTORE PUSH1 0x4 ADD PUSH2 0xB8D SWAP1 PUSH2 0x1E50 JUMP JUMPDEST PUSH1 0x40 MLOAD DUP1 SWAP2 SUB SWAP1 REVERT JUMPDEST DUP1 PUSH1 0x1 PUSH0 DUP6 PUSH20 0xFFFFFFFFFFFFFFFFFFFFFFFFFFFFFFFFFFFFFFFF AND PUSH20 0xFFFFFFFFFFFFFFFFFFFFFFFFFFFFFFFFFFFFFFFF AND DUP2 MSTORE PUSH1 0x20 ADD SWAP1 DUP2 MSTORE PUSH1 0x20 ADD PUSH0 KECCAK256 PUSH0 DUP5 PUSH20 0xFFFFFFFFFFFFFFFFFFFFFFFFFFFFFFFFFFFFFFFF AND PUSH20 0xFFFFFFFFFFFFFFFFFFFFFFFFFFFFFFFFFFFFFFFF AND DUP2 MSTORE PUSH1 0x20 ADD SWAP1 DUP2 MSTORE PUSH1 0x20 ADD PUSH0 KECCAK256 DUP2 SWAP1 SSTORE POP DUP2 PUSH20 0xFFFFFFFFFFFFFFFFFFFFFFFFFFFFFFFFFFFFFFFF AND DUP4 PUSH20 0xFFFFFFFFFFFFFFFFFFFFFFFFFFFFFFFFFFFFFFFF AND PUSH32 0x8C5BE1E5EBEC7D5BD14F71427D1E84F3DD0314C0F7B2291E5B200AC8C7C3B925 DUP4 PUSH1 0x40 MLOAD PUSH2 0xC70 SWAP2 SWAP1 PUSH2 0x173F JUMP JUMPDEST PUSH1 0x40 MLOAD DUP1 SWAP2 SUB SWAP1 LOG3 POP POP POP JUMP JUMPDEST PUSH2 0xC85 PUSH2 0xAB3 JUMP JUMPDEST PUSH20 0xFFFFFFFFFFFFFFFFFFFFFFFFFFFFFFFFFFFFFFFF AND PUSH2 0xCA3 PUSH2 0x7FB JUMP JUMPDEST PUSH20 0xFFFFFFFFFFFFFFFFFFFFFFFFFFFFFFFFFFFFFFFF AND EQ PUSH2 0xCF9 JUMPI PUSH1 0x40 MLOAD PUSH32 0x8C379A000000000000000000000000000000000000000000000000000000000 DUP2 MSTORE PUSH1 0x4 ADD PUSH2 0xCF0 SWAP1 PUSH2 0x1EB8 JUMP JUMPDEST PUSH1 0x40 MLOAD DUP1 SWAP2 SUB SWAP1 REVERT JUMPDEST JUMP JUMPDEST PUSH0 PUSH2 0xD06 DUP5 DUP5 PUSH2 0x9A9 JUMP JUMPDEST SWAP1 POP PUSH32 0xFFFFFFFFFFFFFFFFFFFFFFFFFFFFFFFFFFFFFFFFFFFFFFFFFFFFFFFFFFFFFFFF DUP2 EQ PUSH2 0xD80 JUMPI DUP2 DUP2 LT ISZERO PUSH2 0xD72 JUMPI PUSH1 0x40 MLOAD PUSH32 0x8C379A000000000000000000000000000000000000000000000000000000000 DUP2 MSTORE PUSH1 0x4 ADD PUSH2 0xD69 SWAP1 PUSH2 0x1F20 JUMP JUMPDEST PUSH1 0x40 MLOAD DUP1 SWAP2 SUB SWAP1 REVERT JUMPDEST PUSH2 0xD7F DUP5 DUP5 DUP5 DUP5 SUB PUSH2 0xABA JUMP JUMPDEST JUMPDEST POP POP POP POP JUMP JUMPDEST PUSH0 DUP1 PUSH1 0x11 PUSH0 SWAP1 SLOAD SWAP1 PUSH2 0x100 EXP SWAP1 DIV PUSH20 0xFFFFFFFFFFFFFFFFFFFFFFFFFFFFFFFFFFFFFFFF AND PUSH20 0xFFFFFFFFFFFFFFFFFFFFFFFFFFFFFFFFFFFFFFFF AND DUP5 PUSH20 0xFFFFFFFFFFFFFFFFFFFFFFFFFFFFFFFFFFFFFFFF AND SUB PUSH2 0xE01 JUMPI PUSH1 0x64 PUSH1 0x8 SLOAD DUP5 PUSH2 0xDEC SWAP2 SWAP1 PUSH2 0x1BC2 JUMP JUMPDEST PUSH2 0xDF6 SWAP2 SWAP1 PUSH2 0x1F6B JUMP JUMPDEST SWAP2 POP PUSH1 0x1 SWAP1 POP PUSH2 0xE77 JUMP JUMPDEST PUSH1 0x11 PUSH0 SWAP1 SLOAD SWAP1 PUSH2 0x100 EXP SWAP1 DIV PUSH20 0xFFFFFFFFFFFFFFFFFFFFFFFFFFFFFFFFFFFFFFFF AND PUSH20 0xFFFFFFFFFFFFFFFFFFFFFFFFFFFFFFFFFFFFFFFF AND DUP6 PUSH20 0xFFFFFFFFFFFFFFFFFFFFFFFFFFFFFFFFFFFFFFFF AND SUB PUSH2 0xE76 JUMPI PUSH1 0x64 PUSH1 0x8 SLOAD DUP5 PUSH2 0xE65 SWAP2 SWAP1 PUSH2 0x1BC2 JUMP JUMPDEST PUSH2 0xE6F SWAP2 SWAP1 PUSH2 0x1F6B JUMP JUMPDEST SWAP2 POP PUSH1 0x2 SWAP1 POP JUMPDEST JUMPDEST PUSH2 0xE8D DUP6 DUP6 DUP5 DUP7 PUSH2 0xE88 SWAP2 SWAP1 PUSH2 0x1F9B JUMP JUMPDEST PUSH2 0x1007 JUMP JUMPDEST PUSH0 DUP3 GT ISZERO PUSH2 0xF2C JUMPI PUSH1 0x8 SLOAD PUSH1 0xB SLOAD DUP4 PUSH2 0xEA6 SWAP2 SWAP1 PUSH2 0x1BC2 JUMP JUMPDEST PUSH2 0xEB0 SWAP2 SWAP1 PUSH2 0x1F6B JUMP JUMPDEST PUSH1 0xF PUSH0 DUP3 DUP3 SLOAD PUSH2 0xEC0 SWAP2 SWAP1 PUSH2 0x1C03 JUMP JUMPDEST SWAP3 POP POP DUP2 SWAP1 SSTORE POP PUSH1 0x8 SLOAD PUSH1 0xA SLOAD DUP4 PUSH2 0xED8 SWAP2 SWAP1 PUSH2 0x1BC2 JUMP JUMPDEST PUSH2 0xEE2 SWAP2 SWAP1 PUSH2 0x1F6B JUMP JUMPDEST PUSH1 0xE PUSH0 DUP3 DUP3 SLOAD PUSH2 0xEF2 SWAP2 SWAP1 PUSH2 0x1C03 JUMP JUMPDEST SWAP3 POP POP DUP2 SWAP1 SSTORE POP PUSH1 0x8 SLOAD PUSH1 0x9 SLOAD DUP4 PUSH2 0xF0A SWAP2 SWAP1 PUSH2 0x1BC2 JUMP JUMPDEST PUSH2 0xF14 SWAP2 SWAP1 PUSH2 0x1F6B JUMP JUMPDEST PUSH1 0xD PUSH0 DUP3 DUP3 SLOAD PUSH2 0xF24 SWAP2 SWAP1 PUSH2 0x1C03 JUMP JUMPDEST SWAP3 POP POP DUP2 SWAP1 SSTORE POP JUMPDEST PUSH0 DUP3 GT ISZERO PUSH2 0xF3D JUMPI PUSH2 0xF3C PUSH2 0x125D JUMP JUMPDEST JUMPDEST POP POP POP POP POP JUMP JUMPDEST PUSH0 PUSH1 0x5 PUSH0 SWAP1 SLOAD SWAP1 PUSH2 0x100 EXP SWAP1 DIV PUSH20 0xFFFFFFFFFFFFFFFFFFFFFFFFFFFFFFFFFFFFFFFF AND SWAP1 POP DUP2 PUSH1 0x5 PUSH0 PUSH2 0x100 EXP DUP2 SLOAD DUP2 PUSH20 0xFFFFFFFFFFFFFFFFFFFFFFFFFFFFFFFFFFFFFFFF MUL NOT AND SWAP1 DUP4 PUSH20 0xFFFFFFFFFFFFFFFFFFFFFFFFFFFFFFFFFFFFFFFF AND MUL OR SWAP1 SSTORE POP DUP2 PUSH20 0xFFFFFFFFFFFFFFFFFFFFFFFFFFFFFFFFFFFFFFFF AND DUP2 PUSH20 0xFFFFFFFFFFFFFFFFFFFFFFFFFFFFFFFFFFFFFFFF AND PUSH32 0x8BE0079C531659141344CD1FD0A4F28419497F9722A3DAAFE3B4186F6B6457E0 PUSH1 0x40 MLOAD PUSH1 0x40 MLOAD DUP1 SWAP2 SUB SWAP1 LOG3 POP POP JUMP JUMPDEST PUSH0 PUSH20 0xFFFFFFFFFFFFFFFFFFFFFFFFFFFFFFFFFFFFFFFF AND DUP4 PUSH20 0xFFFFFFFFFFFFFFFFFFFFFFFFFFFFFFFFFFFFFFFF AND SUB PUSH2 0x1075 JUMPI PUSH1 0x40 MLOAD PUSH32 0x8C379A000000000000000000000000000000000000000000000000000000000 DUP2 MSTORE PUSH1 0x4 ADD PUSH2 0x106C SWAP1 PUSH2 0x203E JUMP JUMPDEST PUSH1 0x40 MLOAD DUP1 SWAP2 SUB SWAP1 REVERT JUMPDEST PUSH0 PUSH20 0xFFFFFFFFFFFFFFFFFFFFFFFFFFFFFFFFFFFFFFFF AND DUP3 PUSH20 0xFFFFFFFFFFFFFFFFFFFFFFFFFFFFFFFFFFFFFFFF AND SUB PUSH2 0x10E3 JUMPI PUSH1 0x40 MLOAD PUSH32 0x8C379A000000000000000000000000000000000000000000000000000000000 DUP2 MSTORE PUSH1 0x4 ADD PUSH2 0x10DA SWAP1 PUSH2 0x20CC JUMP JUMPDEST PUSH1 0x40 MLOAD DUP1 SWAP2 SUB SWAP1 REVERT JUMPDEST PUSH0 DUP1 PUSH0 DUP6 PUSH20 0xFFFFFFFFFFFFFFFFFFFFFFFFFFFFFFFFFFFFFFFF AND PUSH20 0xFFFFFFFFFFFFFFFFFFFFFFFFFFFFFFFFFFFFFFFF AND DUP2 MSTORE PUSH1 0x20 ADD SWAP1 DUP2 MSTORE PUSH1 0x20 ADD PUSH0 KECCAK256 SLOAD SWAP1 POP DUP2 DUP2 LT ISZERO PUSH2 0x1166 JUMPI PUSH1 0x40 MLOAD PUSH32 0x8C379A000000000000000000000000000000000000000000000000000000000 DUP2 MSTORE PUSH1 0x4 ADD PUSH2 0x115D SWAP1 PUSH2 0x215A JUMP JUMPDEST PUSH1 0x40 MLOAD DUP1 SWAP2 SUB SWAP1 REVERT JUMPDEST DUP2 DUP2 SUB PUSH0 DUP1 DUP7 PUSH20 0xFFFFFFFFFFFFFFFFFFFFFFFFFFFFFFFFFFFFFFFF AND PUSH20 0xFFFFFFFFFFFFFFFFFFFFFFFFFFFFFFFFFFFFFFFF AND DUP2 MSTORE PUSH1 0x20 ADD SWAP1 DUP2 MSTORE PUSH1 0x20 ADD PUSH0 KECCAK256 DUP2 SWAP1 SSTORE POP DUP2 PUSH0 DUP1 DUP6 PUSH20 0xFFFFFFFFFFFFFFFFFFFFFFFFFFFFFFFFFFFFFFFF AND PUSH20 0xFFFFFFFFFFFFFFFFFFFFFFFFFFFFFFFFFFFFFFFF AND DUP2 MSTORE PUSH1 0x20 ADD SWAP1 DUP2 MSTORE PUSH1 0x20 ADD PUSH0 KECCAK256 PUSH0 DUP3 DUP3 SLOAD ADD SWAP3 POP POP DUP2 SWAP1 SSTORE POP DUP3 PUSH20 0xFFFFFFFFFFFFFFFFFFFFFFFFFFFFFFFFFFFFFFFF AND DUP5 PUSH20 0xFFFFFFFFFFFFFFFFFFFFFFFFFFFFFFFFFFFFFFFF AND PUSH32 0xDDF252AD1BE2C89B69C2B068FC378DAA952BA7F163C4A11628F55A4DF523B3EF DUP5 PUSH1 0x40 MLOAD PUSH2 0x124F SWAP2 SWAP1 PUSH2 0x173F JUMP JUMPDEST PUSH1 0x40 MLOAD DUP1 SWAP2 SUB SWAP1 LOG3 POP POP POP POP JUMP JUMPDEST PUSH2 0x1268 PUSH1 0xD SLOAD PUSH2 0x129B JUMP JUMPDEST PUSH2 0x1273 PUSH1 0xE SLOAD PUSH2 0x129B JUMP JUMPDEST PUSH0 SELFBALANCE SWAP1 POP PUSH2 0x1283 PUSH1 0xF SLOAD DUP3 PUSH2 0x14A5 JUMP JUMPDEST PUSH0 PUSH1 0xF DUP2 SWAP1 SSTORE POP PUSH0 PUSH1 0xE DUP2 SWAP1 SSTORE POP PUSH0 PUSH1 0xD DUP2 SWAP1 SSTORE POP POP JUMP JUMPDEST PUSH0 PUSH1 0x2 PUSH8 0xFFFFFFFFFFFFFFFF DUP2 GT ISZERO PUSH2 0x12B7 JUMPI PUSH2 0x12B6 PUSH2 0x2178 JUMP JUMPDEST JUMPDEST PUSH1 0x40 MLOAD SWAP1 DUP1 DUP3 MSTORE DUP1 PUSH1 0x20 MUL PUSH1 0x20 ADD DUP3 ADD PUSH1 0x40 MSTORE DUP1 ISZERO PUSH2 0x12E5 JUMPI DUP2 PUSH1 0x20 ADD PUSH1 0x20 DUP3 MUL DUP1 CALLDATASIZE DUP4 CALLDATACOPY DUP1 DUP3 ADD SWAP2 POP POP SWAP1 POP JUMPDEST POP SWAP1 POP ADDRESS DUP2 PUSH0 DUP2 MLOAD DUP2 LT PUSH2 0x12FC JUMPI PUSH2 0x12FB PUSH2 0x21A5 JUMP JUMPDEST JUMPDEST PUSH1 0x20 MUL PUSH1 0x20 ADD ADD SWAP1 PUSH20 0xFFFFFFFFFFFFFFFFFFFFFFFFFFFFFFFFFFFFFFFF AND SWAP1 DUP2 PUSH20 0xFFFFFFFFFFFFFFFFFFFFFFFFFFFFFFFFFFFFFFFF AND DUP2 MSTORE POP POP PUSH1 0x10 PUSH0 SWAP1 SLOAD SWAP1 PUSH2 0x100 EXP SWAP1 DIV PUSH20 0xFFFFFFFFFFFFFFFFFFFFFFFFFFFFFFFFFFFFFFFF AND PUSH20 0xFFFFFFFFFFFFFFFFFFFFFFFFFFFFFFFFFFFFFFFF AND PUSH4 0xAD5C4648 PUSH1 0x40 MLOAD DUP2 PUSH4 0xFFFFFFFF AND PUSH1 0xE0 SHL DUP2 MSTORE PUSH1 0x4 ADD PUSH1 0x20 PUSH1 0x40 MLOAD DUP1 DUP4 SUB DUP2 DUP7 GAS STATICCALL ISZERO DUP1 ISZERO PUSH2 0x13A0 JUMPI RETURNDATASIZE PUSH0 DUP1 RETURNDATACOPY RETURNDATASIZE PUSH0 REVERT JUMPDEST POP POP POP POP PUSH1 0x40 MLOAD RETURNDATASIZE PUSH1 0x1F NOT PUSH1 0x1F DUP3 ADD AND DUP3 ADD DUP1 PUSH1 0x40 MSTORE POP DUP2 ADD SWAP1 PUSH2 0x13C4 SWAP2 SWAP1 PUSH2 0x21E6 JUMP JUMPDEST DUP2 PUSH1 0x1 DUP2 MLOAD DUP2 LT PUSH2 0x13D8 JUMPI PUSH2 0x13D7 PUSH2 0x21A5 JUMP JUMPDEST JUMPDEST PUSH1 0x20 MUL PUSH1 0x20 ADD ADD SWAP1 PUSH20 0xFFFFFFFFFFFFFFFFFFFFFFFFFFFFFFFFFFFFFFFF AND SWAP1 DUP2 PUSH20 0xFFFFFFFFFFFFFFFFFFFFFFFFFFFFFFFFFFFFFFFF AND DUP2 MSTORE POP POP PUSH1 0x10 PUSH0 SWAP1 SLOAD SWAP1 PUSH2 0x100 EXP SWAP1 DIV PUSH20 0xFFFFFFFFFFFFFFFFFFFFFFFFFFFFFFFFFFFFFFFF AND PUSH20 0xFFFFFFFFFFFFFFFFFFFFFFFFFFFFFFFFFFFFFFFF AND PUSH4 0x791AC947 DUP4 PUSH0 DUP5 ADDRESS TIMESTAMP PUSH1 0x40 MLOAD DUP7 PUSH4 0xFFFFFFFF AND PUSH1 0xE0 SHL DUP2 MSTORE PUSH1 0x4 ADD PUSH2 0x1474 SWAP6 SWAP5 SWAP4 SWAP3 SWAP2 SWAP1 PUSH2 0x2301 JUMP JUMPDEST PUSH0 PUSH1 0x40 MLOAD DUP1 DUP4 SUB DUP2 PUSH0 DUP8 DUP1 EXTCODESIZE ISZERO DUP1 ISZERO PUSH2 0x148B JUMPI PUSH0 DUP1 REVERT JUMPDEST POP GAS CALL ISZERO DUP1 ISZERO PUSH2 0x149D JUMPI RETURNDATASIZE PUSH0 DUP1 RETURNDATACOPY RETURNDATASIZE PUSH0 REVERT JUMPDEST POP POP POP POP POP POP JUMP JUMPDEST PUSH1 0x10 PUSH0 SWAP1 SLOAD SWAP1 PUSH2 0x100 EXP SWAP1 DIV PUSH20 0xFFFFFFFFFFFFFFFFFFFFFFFFFFFFFFFFFFFFFFFF AND PUSH20 0xFFFFFFFFFFFFFFFFFFFFFFFFFFFFFFFFFFFFFFFF AND PUSH4 0xF305D719 DUP3 ADDRESS DUP6 PUSH0 DUP1 PUSH2 0x14EF PUSH2 0x7FB JUMP JUMPDEST TIMESTAMP PUSH1 0x40 MLOAD DUP9 PUSH4 0xFFFFFFFF AND PUSH1 0xE0 SHL DUP2 MSTORE PUSH1 0x4 ADD PUSH2 0x1511 SWAP7 SWAP6 SWAP5 SWAP4 SWAP3 SWAP2 SWAP1 PUSH2 0x2359 JUMP JUMPDEST PUSH1 0x60 PUSH1 0x40 MLOAD DUP1 DUP4 SUB DUP2 DUP6 DUP9 GAS CALL ISZERO DUP1 ISZERO PUSH2 0x152D JUMPI RETURNDATASIZE PUSH0 DUP1 RETURNDATACOPY RETURNDATASIZE PUSH0 REVERT JUMPDEST POP POP POP POP POP PUSH1 0x40 MLOAD RETURNDATASIZE PUSH1 0x1F NOT PUSH1 0x1F DUP3 ADD AND DUP3 ADD DUP1 PUSH1 0x40 MSTORE POP DUP2 ADD SWAP1 PUSH2 0x1552 SWAP2 SWAP1 PUSH2 0x23CC JUMP JUMPDEST POP POP POP POP POP JUMP JUMPDEST PUSH0 DUP2 MLOAD SWAP1 POP SWAP2 SWAP1 POP JUMP JUMPDEST PUSH0 DUP3 DUP3 MSTORE PUSH1 0x20 DUP3 ADD SWAP1 POP SWAP3 SWAP2 POP POP JUMP JUMPDEST PUSH0 JUMPDEST DUP4 DUP2 LT ISZERO PUSH2 0x1590 JUMPI DUP1 DUP3 ADD MLOAD DUP2 DUP5 ADD MSTORE PUSH1 0x20 DUP2 ADD SWAP1 POP PUSH2 0x1575 JUMP JUMPDEST PUSH0 DUP5 DUP5 ADD MSTORE POP POP POP POP JUMP JUMPDEST PUSH0 PUSH1 0x1F NOT PUSH1 0x1F DUP4 ADD AND SWAP1 POP SWAP2 SWAP1 POP JUMP JUMPDEST PUSH0 PUSH2 0x15B5 DUP3 PUSH2 0x1559 JUMP JUMPDEST PUSH2 0x15BF DUP2 DUP6 PUSH2 0x1563 JUMP JUMPDEST SWAP4 POP PUSH2 0x15CF DUP2 DUP6 PUSH1 0x20 DUP7 ADD PUSH2 0x1573 JUMP JUMPDEST PUSH2 0x15D8 DUP2 PUSH2 0x159B JUMP JUMPDEST DUP5 ADD SWAP2 POP POP SWAP3 SWAP2 POP POP JUMP JUMPDEST PUSH0 PUSH1 0x20 DUP3 ADD SWAP1 POP DUP2 DUP2 SUB PUSH0 DUP4 ADD MSTORE PUSH2 0x15FB DUP2 DUP5 PUSH2 0x15AB JUMP JUMPDEST SWAP1 POP SWAP3 SWAP2 POP POP JUMP JUMPDEST PUSH0 DUP1 REVERT JUMPDEST PUSH0 PUSH20 0xFFFFFFFFFFFFFFFFFFFFFFFFFFFFFFFFFFFFFFFF DUP3 AND SWAP1 POP SWAP2 SWAP1 POP JUMP JUMPDEST PUSH0 PUSH2 0x1630 DUP3 PUSH2 0x1607 JUMP JUMPDEST SWAP1 POP SWAP2 SWAP1 POP JUMP JUMPDEST PUSH2 0x1640 DUP2 PUSH2 0x1626 JUMP JUMPDEST DUP2 EQ PUSH2 0x164A JUMPI PUSH0 DUP1 REVERT JUMPDEST POP JUMP JUMPDEST PUSH0 DUP2 CALLDATALOAD SWAP1 POP PUSH2 0x165B DUP2 PUSH2 0x1637 JUMP JUMPDEST SWAP3 SWAP2 POP POP JUMP JUMPDEST PUSH0 DUP2 SWAP1 POP SWAP2 SWAP1 POP JUMP JUMPDEST PUSH2 0x1673 DUP2 PUSH2 0x1661 JUMP JUMPDEST DUP2 EQ PUSH2 0x167D JUMPI PUSH0 DUP1 REVERT JUMPDEST POP JUMP JUMPDEST PUSH0 DUP2 CALLDATALOAD SWAP1 POP PUSH2 0x168E DUP2 PUSH2 0x166A JUMP JUMPDEST SWAP3 SWAP2 POP POP JUMP JUMPDEST PUSH0 DUP1 PUSH1 0x40 DUP4 DUP6 SUB SLT ISZERO PUSH2 0x16AA JUMPI PUSH2 0x16A9 PUSH2 0x1603 JUMP JUMPDEST JUMPDEST PUSH0 PUSH2 0x16B7 DUP6 DUP3 DUP7 ADD PUSH2 0x164D JUMP JUMPDEST SWAP3 POP POP PUSH1 0x20 PUSH2 0x16C8 DUP6 DUP3 DUP7 ADD PUSH2 0x1680 JUMP JUMPDEST SWAP2 POP POP SWAP3 POP SWAP3 SWAP1 POP JUMP JUMPDEST PUSH0 DUP2 ISZERO ISZERO SWAP1 POP SWAP2 SWAP1 POP JUMP JUMPDEST PUSH2 0x16E6 DUP2 PUSH2 0x16D2 JUMP JUMPDEST DUP3 MSTORE POP POP JUMP JUMPDEST PUSH0 PUSH1 0x20 DUP3 ADD SWAP1 POP PUSH2 0x16FF PUSH0 DUP4 ADD DUP5 PUSH2 0x16DD JUMP JUMPDEST SWAP3 SWAP2 POP POP JUMP JUMPDEST PUSH0 PUSH1 0x20 DUP3 DUP5 SUB SLT ISZERO PUSH2 0x171A JUMPI PUSH2 0x1719 PUSH2 0x1603 JUMP JUMPDEST JUMPDEST PUSH0 PUSH2 0x1727 DUP5 DUP3 DUP6 ADD PUSH2 0x1680 JUMP JUMPDEST SWAP2 POP POP SWAP3 SWAP2 POP POP JUMP JUMPDEST PUSH2 0x1739 DUP2 PUSH2 0x1661 JUMP JUMPDEST DUP3 MSTORE POP POP JUMP JUMPDEST PUSH0 PUSH1 0x20 DUP3 ADD SWAP1 POP PUSH2 0x1752 PUSH0 DUP4 ADD DUP5 PUSH2 0x1730 JUMP JUMPDEST SWAP3 SWAP2 POP POP JUMP JUMPDEST PUSH0 DUP1 PUSH0 PUSH1 0x60 DUP5 DUP7 SUB SLT ISZERO PUSH2 0x176F JUMPI PUSH2 0x176E PUSH2 0x1603 JUMP JUMPDEST JUMPDEST PUSH0 PUSH2 0x177C DUP7 DUP3 DUP8 ADD PUSH2 0x164D JUMP JUMPDEST SWAP4 POP POP PUSH1 0x20 PUSH2 0x178D DUP7 DUP3 DUP8 ADD PUSH2 0x164D JUMP JUMPDEST SWAP3 POP POP PUSH1 0x40 PUSH2 0x179E DUP7 DUP3 DUP8 ADD PUSH2 0x1680 JUMP JUMPDEST SWAP2 POP POP SWAP3 POP SWAP3 POP SWAP3 JUMP JUMPDEST PUSH0 PUSH2 0x17B2 DUP3 PUSH2 0x1607 JUMP JUMPDEST SWAP1 POP SWAP2 SWAP1 POP JUMP JUMPDEST PUSH2 0x17C2 DUP2 PUSH2 0x17A8 JUMP JUMPDEST DUP3 MSTORE POP POP JUMP JUMPDEST PUSH0 PUSH1 0x20 DUP3 ADD SWAP1 POP PUSH2 0x17DB PUSH0 DUP4 ADD DUP5 PUSH2 0x17B9 JUMP JUMPDEST SWAP3 SWAP2 POP POP JUMP JUMPDEST PUSH2 0x17EA DUP2 PUSH2 0x1626 JUMP JUMPDEST DUP3 MSTORE POP POP JUMP JUMPDEST PUSH0 PUSH1 0x20 DUP3 ADD SWAP1 POP PUSH2 0x1803 PUSH0 DUP4 ADD DUP5 PUSH2 0x17E1 JUMP JUMPDEST SWAP3 SWAP2 POP POP JUMP JUMPDEST PUSH0 PUSH1 0xFF DUP3 AND SWAP1 POP SWAP2 SWAP1 POP JUMP JUMPDEST PUSH2 0x181E DUP2 PUSH2 0x1809 JUMP JUMPDEST DUP3 MSTORE POP POP JUMP JUMPDEST PUSH0 PUSH1 0x20 DUP3 ADD SWAP1 POP PUSH2 0x1837 PUSH0 DUP4 ADD DUP5 PUSH2 0x1815 JUMP JUMPDEST SWAP3 SWAP2 POP POP JUMP JUMPDEST PUSH2 0x1846 DUP2 PUSH2 0x17A8 JUMP JUMPDEST DUP2 EQ PUSH2 0x1850 JUMPI PUSH0 DUP1 REVERT JUMPDEST POP JUMP JUMPDEST PUSH0 DUP2 CALLDATALOAD SWAP1 POP PUSH2 0x1861 DUP2 PUSH2 0x183D JUMP JUMPDEST SWAP3 SWAP2 POP POP JUMP JUMPDEST PUSH0 PUSH1 0x20 DUP3 DUP5 SUB SLT ISZERO PUSH2 0x187C JUMPI PUSH2 0x187B PUSH2 0x1603 JUMP JUMPDEST JUMPDEST PUSH0 PUSH2 0x1889 DUP5 DUP3 DUP6 ADD PUSH2 0x1853 JUMP JUMPDEST SWAP2 POP POP SWAP3 SWAP2 POP POP JUMP JUMPDEST PUSH0 PUSH1 0x20 DUP3 DUP5 SUB SLT ISZERO PUSH2 0x18A7 JUMPI PUSH2 0x18A6 PUSH2 0x1603 JUMP JUMPDEST JUMPDEST PUSH0 PUSH2 0x18B4 DUP5 DUP3 DUP6 ADD PUSH2 0x164D JUMP JUMPDEST SWAP2 POP POP SWAP3 SWAP2 POP POP JUMP JUMPDEST PUSH0 DUP1 PUSH0 PUSH1 0x60 DUP5 DUP7 SUB SLT ISZERO PUSH2 0x18D4 JUMPI PUSH2 0x18D3 PUSH2 0x1603 JUMP JUMPDEST JUMPDEST PUSH0 PUSH2 0x18E1 DUP7 DUP3 DUP8 ADD PUSH2 0x1680 JUMP JUMPDEST SWAP4 POP POP PUSH1 0x20 PUSH2 0x18F2 DUP7 DUP3 DUP8 ADD PUSH2 0x1680 JUMP JUMPDEST SWAP3 POP POP PUSH1 0x40 PUSH2 0x1903 DUP7 DUP3 DUP8 ADD PUSH2 0x1680 JUMP JUMPDEST SWAP2 POP POP SWAP3 POP SWAP3 POP SWAP3 JUMP JUMPDEST PUSH0 DUP2 SWAP1 POP SWAP2 SWAP1 POP JUMP JUMPDEST PUSH0 PUSH2 0x1930 PUSH2 0x192B PUSH2 0x1926 DUP5 PUSH2 0x1607 JUMP JUMPDEST PUSH2 0x190D JUMP JUMPDEST PUSH2 0x1607 JUMP JUMPDEST SWAP1 POP SWAP2 SWAP1 POP JUMP JUMPDEST PUSH0 PUSH2 0x1941 DUP3 PUSH2 0x1916 JUMP JUMPDEST SWAP1 POP SWAP2 SWAP1 POP JUMP JUMPDEST PUSH0 PUSH2 0x1952 DUP3 PUSH2 0x1937 JUMP JUMPDEST SWAP1 POP SWAP2 SWAP1 POP JUMP JUMPDEST PUSH2 0x1962 DUP2 PUSH2 0x1948 JUMP JUMPDEST DUP3 MSTORE POP POP JUMP JUMPDEST PUSH0 PUSH1 0x20 DUP3 ADD SWAP1 POP PUSH2 0x197B PUSH0 DUP4 ADD DUP5 PUSH2 0x1959 JUMP JUMPDEST SWAP3 SWAP2 POP POP JUMP JUMPDEST PUSH0 DUP1 PUSH1 0x40 DUP4 DUP6 SUB SLT ISZERO PUSH2 0x1997 JUMPI PUSH2 0x1996 PUSH2 0x1603 JUMP JUMPDEST JUMPDEST PUSH0 PUSH2 0x19A4 DUP6 DUP3 DUP7 ADD PUSH2 0x164D JUMP JUMPDEST SWAP3 POP POP PUSH1 0x20 PUSH2 0x19B5 DUP6 DUP3 DUP7 ADD PUSH2 0x164D JUMP JUMPDEST SWAP2 POP POP SWAP3 POP SWAP3 SWAP1 POP JUMP JUMPDEST PUSH32 0x4E487B7100000000000000000000000000000000000000000000000000000000 PUSH0 MSTORE PUSH1 0x22 PUSH1 0x4 MSTORE PUSH1 0x24 PUSH0 REVERT JUMPDEST PUSH0 PUSH1 0x2 DUP3 DIV SWAP1 POP PUSH1 0x1 DUP3 AND DUP1 PUSH2 0x1A03 JUMPI PUSH1 0x7F DUP3 AND SWAP2 POP JUMPDEST PUSH1 0x20 DUP3 LT DUP2 SUB PUSH2 0x1A16 JUMPI PUSH2 0x1A15 PUSH2 0x19BF JUMP JUMPDEST JUMPDEST POP SWAP2 SWAP1 POP JUMP JUMPDEST PUSH32 0x4E487B7100000000000000000000000000000000000000000000000000000000 PUSH0 MSTORE PUSH1 0x11 PUSH1 0x4 MSTORE PUSH1 0x24 PUSH0 REVERT JUMPDEST PUSH0 DUP2 PUSH1 0x1 SHR SWAP1 POP SWAP2 SWAP1 POP JUMP JUMPDEST PUSH0 DUP1 DUP3 SWAP2 POP DUP4 SWAP1 POP JUMPDEST PUSH1 0x1 DUP6 GT ISZERO PUSH2 0x1A9E JUMPI DUP1 DUP7 DIV DUP2 GT ISZERO PUSH2 0x1A7A JUMPI PUSH2 0x1A79 PUSH2 0x1A1C JUMP JUMPDEST JUMPDEST PUSH1 0x1 DUP6 AND ISZERO PUSH2 0x1A89 JUMPI DUP1 DUP3 MUL SWAP2 POP JUMPDEST DUP1 DUP2 MUL SWAP1 POP PUSH2 0x1A97 DUP6 PUSH2 0x1A49 JUMP JUMPDEST SWAP5 POP PUSH2 0x1A5E JUMP JUMPDEST SWAP5 POP SWAP5 SWAP3 POP POP POP JUMP JUMPDEST PUSH0 DUP3 PUSH2 0x1AB6 JUMPI PUSH1 0x1 SWAP1 POP PUSH2 0x1B71 JUMP JUMPDEST DUP2 PUSH2 0x1AC3 JUMPI PUSH0 SWAP1 POP PUSH2 0x1B71 JUMP JUMPDEST DUP2 PUSH1 0x1 DUP2 EQ PUSH2 0x1AD9 JUMPI PUSH1 0x2 DUP2 EQ PUSH2 0x1AE3 JUMPI PUSH2 0x1B12 JUMP JUMPDEST PUSH1 0x1 SWAP2 POP POP PUSH2 0x1B71 JUMP JUMPDEST PUSH1 0xFF DUP5 GT ISZERO PUSH2 0x1AF5 JUMPI PUSH2 0x1AF4 PUSH2 0x1A1C JUMP JUMPDEST JUMPDEST DUP4 PUSH1 0x2 EXP SWAP2 POP DUP5 DUP3 GT ISZERO PUSH2 0x1B0C JUMPI PUSH2 0x1B0B PUSH2 0x1A1C JUMP JUMPDEST JUMPDEST POP PUSH2 0x1B71 JUMP JUMPDEST POP PUSH1 0x20 DUP4 LT PUSH2 0x133 DUP4 LT AND PUSH1 0x4E DUP5 LT PUSH1 0xB DUP5 LT AND OR ISZERO PUSH2 0x1B47 JUMPI DUP3 DUP3 EXP SWAP1 POP DUP4 DUP2 GT ISZERO PUSH2 0x1B42 JUMPI PUSH2 0x1B41 PUSH2 0x1A1C JUMP JUMPDEST JUMPDEST PUSH2 0x1B71 JUMP JUMPDEST PUSH2 0x1B54 DUP5 DUP5 DUP5 PUSH1 0x1 PUSH2 0x1A55 JUMP JUMPDEST SWAP3 POP SWAP1 POP DUP2 DUP5 DIV DUP2 GT ISZERO PUSH2 0x1B6B JUMPI PUSH2 0x1B6A PUSH2 0x1A1C JUMP JUMPDEST JUMPDEST DUP2 DUP2 MUL SWAP1 POP JUMPDEST SWAP4 SWAP3 POP POP POP JUMP JUMPDEST PUSH0 PUSH2 0x1B82 DUP3 PUSH2 0x1661 JUMP JUMPDEST SWAP2 POP PUSH2 0x1B8D DUP4 PUSH2 0x1809 JUMP JUMPDEST SWAP3 POP PUSH2 0x1BBA PUSH32 0xFFFFFFFFFFFFFFFFFFFFFFFFFFFFFFFFFFFFFFFFFFFFFFFFFFFFFFFFFFFFFFFF DUP5 DUP5 PUSH2 0x1AA7 JUMP JUMPDEST SWAP1 POP SWAP3 SWAP2 POP POP JUMP JUMPDEST PUSH0 PUSH2 0x1BCC DUP3 PUSH2 0x1661 JUMP JUMPDEST SWAP2 POP PUSH2 0x1BD7 DUP4 PUSH2 0x1661 JUMP JUMPDEST SWAP3 POP DUP3 DUP3 MUL PUSH2 0x1BE5 DUP2 PUSH2 0x1661 JUMP JUMPDEST SWAP2 POP DUP3 DUP3 DIV DUP5 EQ DUP4 ISZERO OR PUSH2 0x1BFC JUMPI PUSH2 0x1BFB PUSH2 0x1A1C JUMP JUMPDEST JUMPDEST POP SWAP3 SWAP2 POP POP JUMP JUMPDEST PUSH0 PUSH2 0x1C0D DUP3 PUSH2 0x1661 JUMP JUMPDEST SWAP2 POP PUSH2 0x1C18 DUP4 PUSH2 0x1661 JUMP JUMPDEST SWAP3 POP DUP3 DUP3 ADD SWAP1 POP DUP1 DUP3 GT ISZERO PUSH2 0x1C30 JUMPI PUSH2 0x1C2F PUSH2 0x1A1C JUMP JUMPDEST JUMPDEST SWAP3 SWAP2 POP POP JUMP JUMPDEST PUSH32 0x45524332303A2064656372656173656420616C6C6F77616E63652062656C6F77 PUSH0 DUP3 ADD MSTORE PUSH32 0x207A65726F000000000000000000000000000000000000000000000000000000 PUSH1 0x20 DUP3 ADD MSTORE POP JUMP JUMPDEST PUSH0 PUSH2 0x1C90 PUSH1 0x25 DUP4 PUSH2 0x1563 JUMP JUMPDEST SWAP2 POP PUSH2 0x1C9B DUP3 PUSH2 0x1C36 JUMP JUMPDEST PUSH1 0x40 DUP3 ADD SWAP1 POP SWAP2 SWAP1 POP JUMP JUMPDEST PUSH0 PUSH1 0x20 DUP3 ADD SWAP1 POP DUP2 DUP2 SUB PUSH0 DUP4 ADD MSTORE PUSH2 0x1CBD DUP2 PUSH2 0x1C84 JUMP JUMPDEST SWAP1 POP SWAP2 SWAP1 POP JUMP JUMPDEST PUSH32 0x4F776E61626C653A206E6577206F776E657220697320746865207A65726F2061 PUSH0 DUP3 ADD MSTORE PUSH32 0x6464726573730000000000000000000000000000000000000000000000000000 PUSH1 0x20 DUP3 ADD MSTORE POP JUMP JUMPDEST PUSH0 PUSH2 0x1D1E PUSH1 0x26 DUP4 PUSH2 0x1563 JUMP JUMPDEST SWAP2 POP PUSH2 0x1D29 DUP3 PUSH2 0x1CC4 JUMP JUMPDEST PUSH1 0x40 DUP3 ADD SWAP1 POP SWAP2 SWAP1 POP JUMP JUMPDEST PUSH0 PUSH1 0x20 DUP3 ADD SWAP1 POP DUP2 DUP2 SUB PUSH0 DUP4 ADD MSTORE PUSH2 0x1D4B DUP2 PUSH2 0x1D12 JUMP JUMPDEST SWAP1 POP SWAP2 SWAP1 POP JUMP JUMPDEST PUSH32 0x45524332303A20617070726F76652066726F6D20746865207A65726F20616464 PUSH0 DUP3 ADD MSTORE PUSH32 0x7265737300000000000000000000000000000000000000000000000000000000 PUSH1 0x20 DUP3 ADD MSTORE POP JUMP JUMPDEST PUSH0 PUSH2 0x1DAC PUSH1 0x24 DUP4 PUSH2 0x1563 JUMP JUMPDEST SWAP2 POP PUSH2 0x1DB7 DUP3 PUSH2 0x1D52 JUMP JUMPDEST PUSH1 0x40 DUP3 ADD SWAP1 POP SWAP2 SWAP1 POP JUMP JUMPDEST PUSH0 PUSH1 0x20 DUP3 ADD SWAP1 POP DUP2 DUP2 SUB PUSH0 DUP4 ADD MSTORE PUSH2 0x1DD9 DUP2 PUSH2 0x1DA0 JUMP JUMPDEST SWAP1 POP SWAP2 SWAP1 POP JUMP JUMPDEST PUSH32 0x45524332303A20617070726F766520746F20746865207A65726F206164647265 PUSH0 DUP3 ADD MSTORE PUSH32 0x7373000000000000000000000000000000000000000000000000000000000000 PUSH1 0x20 DUP3 ADD MSTORE POP JUMP JUMPDEST PUSH0 PUSH2 0x1E3A PUSH1 0x22 DUP4 PUSH2 0x1563 JUMP JUMPDEST SWAP2 POP PUSH2 0x1E45 DUP3 PUSH2 0x1DE0 JUMP JUMPDEST PUSH1 0x40 DUP3 ADD SWAP1 POP SWAP2 SWAP1 POP JUMP JUMPDEST PUSH0 PUSH1 0x20 DUP3 ADD SWAP1 POP DUP2 DUP2 SUB PUSH0 DUP4 ADD MSTORE PUSH2 0x1E67 DUP2 PUSH2 0x1E2E JUMP JUMPDEST SWAP1 POP SWAP2 SWAP1 POP JUMP JUMPDEST PUSH32 0x4F776E61626C653A2063616C6C6572206973206E6F7420746865206F776E6572 PUSH0 DUP3 ADD MSTORE POP JUMP JUMPDEST PUSH0 PUSH2 0x1EA2 PUSH1 0x20 DUP4 PUSH2 0x1563 JUMP JUMPDEST SWAP2 POP PUSH2 0x1EAD DUP3 PUSH2 0x1E6E JUMP JUMPDEST PUSH1 0x20 DUP3 ADD SWAP1 POP SWAP2 SWAP1 POP JUMP JUMPDEST PUSH0 PUSH1 0x20 DUP3 ADD SWAP1 POP DUP2 DUP2 SUB PUSH0 DUP4 ADD MSTORE PUSH2 0x1ECF DUP2 PUSH2 0x1E96 JUMP JUMPDEST SWAP1 POP SWAP2 SWAP1 POP JUMP JUMPDEST PUSH32 0x45524332303A20696E73756666696369656E7420616C6C6F77616E6365000000 PUSH0 DUP3 ADD MSTORE POP JUMP JUMPDEST PUSH0 PUSH2 0x1F0A PUSH1 0x1D DUP4 PUSH2 0x1563 JUMP JUMPDEST SWAP2 POP PUSH2 0x1F15 DUP3 PUSH2 0x1ED6 JUMP JUMPDEST PUSH1 0x20 DUP3 ADD SWAP1 POP SWAP2 SWAP1 POP JUMP JUMPDEST PUSH0 PUSH1 0x20 DUP3 ADD SWAP1 POP DUP2 DUP2 SUB PUSH0 DUP4 ADD MSTORE PUSH2 0x1F37 DUP2 PUSH2 0x1EFE JUMP JUMPDEST SWAP1 POP SWAP2 SWAP1 POP JUMP JUMPDEST PUSH32 0x4E487B7100000000000000000000000000000000000000000000000000000000 PUSH0 MSTORE PUSH1 0x12 PUSH1 0x4 MSTORE PUSH1 0x24 PUSH0 REVERT JUMPDEST PUSH0 PUSH2 0x1F75 DUP3 PUSH2 0x1661 JUMP JUMPDEST SWAP2 POP PUSH2 0x1F80 DUP4 PUSH2 0x1661 JUMP JUMPDEST SWAP3 POP DUP3 PUSH2 0x1F90 JUMPI PUSH2 0x1F8F PUSH2 0x1F3E JUMP JUMPDEST JUMPDEST DUP3 DUP3 DIV SWAP1 POP SWAP3 SWAP2 POP POP JUMP JUMPDEST PUSH0 PUSH2 0x1FA5 DUP3 PUSH2 0x1661 JUMP JUMPDEST SWAP2 POP PUSH2 0x1FB0 DUP4 PUSH2 0x1661 JUMP JUMPDEST SWAP3 POP DUP3 DUP3 SUB SWAP1 POP DUP2 DUP2 GT ISZERO PUSH2 0x1FC8 JUMPI PUSH2 0x1FC7 PUSH2 0x1A1C JUMP JUMPDEST JUMPDEST SWAP3 SWAP2 POP POP JUMP JUMPDEST PUSH32 0x45524332303A207472616E736665722066726F6D20746865207A65726F206164 PUSH0 DUP3 ADD MSTORE PUSH32 0x6472657373000000000000000000000000000000000000000000000000000000 PUSH1 0x20 DUP3 ADD MSTORE POP JUMP JUMPDEST PUSH0 PUSH2 0x2028 PUSH1 0x25 DUP4 PUSH2 0x1563 JUMP JUMPDEST SWAP2 POP PUSH2 0x2033 DUP3 PUSH2 0x1FCE JUMP JUMPDEST PUSH1 0x40 DUP3 ADD SWAP1 POP SWAP2 SWAP1 POP JUMP JUMPDEST PUSH0 PUSH1 0x20 DUP3 ADD SWAP1 POP DUP2 DUP2 SUB PUSH0 DUP4 ADD MSTORE PUSH2 0x2055 DUP2 PUSH2 0x201C JUMP JUMPDEST SWAP1 POP SWAP2 SWAP1 POP JUMP JUMPDEST PUSH32 0x45524332303A207472616E7366657220746F20746865207A65726F2061646472 PUSH0 DUP3 ADD MSTORE PUSH32 0x6573730000000000000000000000000000000000000000000000000000000000 PUSH1 0x20 DUP3 ADD MSTORE POP JUMP JUMPDEST PUSH0 PUSH2 0x20B6 PUSH1 0x23 DUP4 PUSH2 0x1563 JUMP JUMPDEST SWAP2 POP PUSH2 0x20C1 DUP3 PUSH2 0x205C JUMP JUMPDEST PUSH1 0x40 DUP3 ADD SWAP1 POP SWAP2 SWAP1 POP JUMP JUMPDEST PUSH0 PUSH1 0x20 DUP3 ADD SWAP1 POP DUP2 DUP2 SUB PUSH0 DUP4 ADD MSTORE PUSH2 0x20E3 DUP2 PUSH2 0x20AA JUMP JUMPDEST SWAP1 POP SWAP2 SWAP1 POP JUMP JUMPDEST PUSH32 0x45524332303A207472616E7366657220616D6F756E7420657863656564732062 PUSH0 DUP3 ADD MSTORE PUSH32 0x616C616E63650000000000000000000000000000000000000000000000000000 PUSH1 0x20 DUP3 ADD MSTORE POP JUMP JUMPDEST PUSH0 PUSH2 0x2144 PUSH1 0x26 DUP4 PUSH2 0x1563 JUMP JUMPDEST SWAP2 POP PUSH2 0x214F DUP3 PUSH2 0x20EA JUMP JUMPDEST PUSH1 0x40 DUP3 ADD SWAP1 POP SWAP2 SWAP1 POP JUMP JUMPDEST PUSH0 PUSH1 0x20 DUP3 ADD SWAP1 POP DUP2 DUP2 SUB PUSH0 DUP4 ADD MSTORE PUSH2 0x2171 DUP2 PUSH2 0x2138 JUMP JUMPDEST SWAP1 POP SWAP2 SWAP1 POP JUMP JUMPDEST PUSH32 0x4E487B7100000000000000000000000000000000000000000000000000000000 PUSH0 MSTORE PUSH1 0x41 PUSH1 0x4 MSTORE PUSH1 0x24 PUSH0 REVERT JUMPDEST PUSH32 0x4E487B7100000000000000000000000000000000000000000000000000000000 PUSH0 MSTORE PUSH1 0x32 PUSH1 0x4 MSTORE PUSH1 0x24 PUSH0 REVERT JUMPDEST PUSH0 DUP2 MLOAD SWAP1 POP PUSH2 0x21E0 DUP2 PUSH2 0x1637 JUMP JUMPDEST SWAP3 SWAP2 POP POP JUMP JUMPDEST PUSH0 PUSH1 0x20 DUP3 DUP5 SUB SLT ISZERO PUSH2 0x21FB JUMPI PUSH2 0x21FA PUSH2 0x1603 JUMP JUMPDEST JUMPDEST PUSH0 PUSH2 0x2208 DUP5 DUP3 DUP6 ADD PUSH2 0x21D2 JUMP JUMPDEST SWAP2 POP POP SWAP3 SWAP2 POP POP JUMP JUMPDEST PUSH0 DUP2 SWAP1 POP SWAP2 SWAP1 POP JUMP JUMPDEST PUSH0 PUSH2 0x2234 PUSH2 0x222F PUSH2 0x222A DUP5 PUSH2 0x2211 JUMP JUMPDEST PUSH2 0x190D JUMP JUMPDEST PUSH2 0x1661 JUMP JUMPDEST SWAP1 POP SWAP2 SWAP1 POP JUMP JUMPDEST PUSH2 0x2244 DUP2 PUSH2 0x221A JUMP JUMPDEST DUP3 MSTORE POP POP JUMP JUMPDEST PUSH0 DUP2 MLOAD SWAP1 POP SWAP2 SWAP1 POP JUMP JUMPDEST PUSH0 DUP3 DUP3 MSTORE PUSH1 0x20 DUP3 ADD SWAP1 POP SWAP3 SWAP2 POP POP JUMP JUMPDEST PUSH0 DUP2 SWAP1 POP PUSH1 0x20 DUP3 ADD SWAP1 POP SWAP2 SWAP1 POP JUMP JUMPDEST PUSH2 0x227C DUP2 PUSH2 0x1626 JUMP JUMPDEST DUP3 MSTORE POP POP JUMP JUMPDEST PUSH0 PUSH2 0x228D DUP4 DUP4 PUSH2 0x2273 JUMP JUMPDEST PUSH1 0x20 DUP4 ADD SWAP1 POP SWAP3 SWAP2 POP POP JUMP JUMPDEST PUSH0 PUSH1 0x20 DUP3 ADD SWAP1 POP SWAP2 SWAP1 POP JUMP JUMPDEST PUSH0 PUSH2 0x22AF DUP3 PUSH2 0x224A JUMP JUMPDEST PUSH2 0x22B9 DUP2 DUP6 PUSH2 0x2254 JUMP JUMPDEST SWAP4 POP PUSH2 0x22C4 DUP4 PUSH2 0x2264 JUMP JUMPDEST DUP1 PUSH0 JUMPDEST DUP4 DUP2 LT ISZERO PUSH2 0x22F4 JUMPI DUP2 MLOAD PUSH2 0x22DB DUP9 DUP3 PUSH2 0x2282 JUMP JUMPDEST SWAP8 POP PUSH2 0x22E6 DUP4 PUSH2 0x2299 JUMP JUMPDEST SWAP3 POP POP PUSH1 0x1 DUP2 ADD SWAP1 POP PUSH2 0x22C7 JUMP JUMPDEST POP DUP6 SWAP4 POP POP POP POP SWAP3 SWAP2 POP POP JUMP JUMPDEST PUSH0 PUSH1 0xA0 DUP3 ADD SWAP1 POP PUSH2 0x2314 PUSH0 DUP4 ADD DUP9 PUSH2 0x1730 JUMP JUMPDEST PUSH2 0x2321 PUSH1 0x20 DUP4 ADD DUP8 PUSH2 0x223B JUMP JUMPDEST DUP2 DUP2 SUB PUSH1 0x40 DUP4 ADD MSTORE PUSH2 0x2333 DUP2 DUP7 PUSH2 0x22A5 JUMP JUMPDEST SWAP1 POP PUSH2 0x2342 PUSH1 0x60 DUP4 ADD DUP6 PUSH2 0x17E1 JUMP JUMPDEST PUSH2 0x234F PUSH1 0x80 DUP4 ADD DUP5 PUSH2 0x1730 JUMP JUMPDEST SWAP7 SWAP6 POP POP POP POP POP POP JUMP JUMPDEST PUSH0 PUSH1 0xC0 DUP3 ADD SWAP1 POP PUSH2 0x236C PUSH0 DUP4 ADD DUP10 PUSH2 0x17E1 JUMP JUMPDEST PUSH2 0x2379 PUSH1 0x20 DUP4 ADD DUP9 PUSH2 0x1730 JUMP JUMPDEST PUSH2 0x2386 PUSH1 0x40 DUP4 ADD DUP8 PUSH2 0x223B JUMP JUMPDEST PUSH2 0x2393 PUSH1 0x60 DUP4 ADD DUP7 PUSH2 0x223B JUMP JUMPDEST PUSH2 0x23A0 PUSH1 0x80 DUP4 ADD DUP6 PUSH2 0x17E1 JUMP JUMPDEST PUSH2 0x23AD PUSH1 0xA0 DUP4 ADD DUP5 PUSH2 0x1730 JUMP JUMPDEST SWAP8 SWAP7 POP POP POP POP POP POP POP JUMP JUMPDEST PUSH0 DUP2 MLOAD SWAP1 POP PUSH2 0x23C6 DUP2 PUSH2 0x166A JUMP JUMPDEST SWAP3 SWAP2 POP POP JUMP JUMPDEST PUSH0 DUP1 PUSH0 PUSH1 0x60 DUP5 DUP7 SUB SLT ISZERO PUSH2 0x23E3 JUMPI PUSH2 0x23E2 PUSH2 0x1603 JUMP JUMPDEST JUMPDEST PUSH0 PUSH2 0x23F0 DUP7 DUP3 DUP8 ADD PUSH2 0x23B8 JUMP JUMPDEST SWAP4 POP POP PUSH1 0x20 PUSH2 0x2401 DUP7 DUP3 DUP8 ADD PUSH2 0x23B8 JUMP JUMPDEST SWAP3 POP POP PUSH1 0x40 PUSH2 0x2412 DUP7 DUP3 DUP8 ADD PUSH2 0x23B8 JUMP JUMPDEST SWAP2 POP POP SWAP3 POP SWAP3 POP SWAP3 JUMP INVALID LOG2 PUSH5 0x6970667358 0x22 SLT KECCAK256 PUSH0 EXTCODESIZE 0xC7 0xE6 PUSH8 0x9E6B3597CA6516D0 COINBASE 0xF7 0xB2 PUSH25 0x5444C9479CDA25B29E741357C3FED764736F6C634300081400 CALLER "
				},
				"gasEstimates": {
					"creation": {
						"codeDepositCost": "1859600",
						"executionCost": "infinite",
						"totalCost": "infinite"
					},
					"external": {
						"_charityWallet()": "2575",
						"_feeBuyAndSellCharity()": "2493",
						"_feeBuyAndSellLP()": "2470",
						"_feeBuyAndSellMK()": "2513",
						"_feeBuyAndSellTotal()": "2469",
						"_marketingDevWallet()": "2642",
						"_maxTokens()": "2514",
						"allowance(address,address)": "infinite",
						"approve(address,uint256)": "infinite",
						"balanceOf(address)": "2919",
						"decimals()": "406",
						"decreaseAllowance(address,uint256)": "infinite",
						"editFees(uint256,uint256,uint256)": "infinite",
						"increaseAllowance(address,uint256)": "infinite",
						"name()": "infinite",
						"owner()": "2582",
						"renounceOwnership()": "30435",
						"setMarketingWallet(address)": "27022",
						"setMinTokens(uint256)": "infinite",
						"setRewardWallet(address)": "27087",
						"swapPair()": "2554",
						"swapRouter()": "infinite",
						"symbol()": "infinite",
						"totalSupply()": "2522",
						"transfer(address,uint256)": "infinite",
						"transferFrom(address,address,uint256)": "infinite",
						"transferOwnership(address)": "30841"
					},
					"internal": {
						"_addLiquidity(uint256,uint256)": "infinite",
						"_swapAndLiquify()": "infinite",
						"_swapTokensForEth(uint256)": "infinite",
						"_transfer(address,address,uint256)": "infinite"
					}
				},
				"methodIdentifiers": {
					"_charityWallet()": "43a18909",
					"_feeBuyAndSellCharity()": "60ec4c84",
					"_feeBuyAndSellLP()": "41f06d91",
					"_feeBuyAndSellMK()": "eeaf6f92",
					"_feeBuyAndSellTotal()": "cd48145b",
					"_marketingDevWallet()": "2428cb9a",
					"_maxTokens()": "487c70fc",
					"allowance(address,address)": "dd62ed3e",
					"approve(address,uint256)": "095ea7b3",
					"balanceOf(address)": "70a08231",
					"decimals()": "313ce567",
					"decreaseAllowance(address,uint256)": "a457c2d7",
					"editFees(uint256,uint256,uint256)": "a63748e5",
					"increaseAllowance(address,uint256)": "39509351",
					"name()": "06fdde03",
					"owner()": "8da5cb5b",
					"renounceOwnership()": "715018a6",
					"setMarketingWallet(address)": "5d098b38",
					"setMinTokens(uint256)": "0e7e573f",
					"setRewardWallet(address)": "5958621e",
					"swapPair()": "26991cc8",
					"swapRouter()": "c31c9c07",
					"symbol()": "95d89b41",
					"totalSupply()": "18160ddd",
					"transfer(address,uint256)": "a9059cbb",
					"transferFrom(address,address,uint256)": "23b872dd",
					"transferOwnership(address)": "f2fde38b"
				}
			},
			"storageLayout": {
				"storage": [
					{
						"astId": 282,
						"contract": "contracts/FreedomCoinNew.sol:FreedomCoinNew",
						"label": "_balances",
						"offset": 0,
						"slot": "0",
						"type": "t_mapping(t_address,t_uint256)"
					},
					{
						"astId": 288,
						"contract": "contracts/FreedomCoinNew.sol:FreedomCoinNew",
						"label": "_allowances",
						"offset": 0,
						"slot": "1",
						"type": "t_mapping(t_address,t_mapping(t_address,t_uint256))"
					},
					{
						"astId": 290,
						"contract": "contracts/FreedomCoinNew.sol:FreedomCoinNew",
						"label": "_totalSupply",
						"offset": 0,
						"slot": "2",
						"type": "t_uint256"
					},
					{
						"astId": 292,
						"contract": "contracts/FreedomCoinNew.sol:FreedomCoinNew",
						"label": "_name",
						"offset": 0,
						"slot": "3",
						"type": "t_string_storage"
					},
					{
						"astId": 294,
						"contract": "contracts/FreedomCoinNew.sol:FreedomCoinNew",
						"label": "_symbol",
						"offset": 0,
						"slot": "4",
						"type": "t_string_storage"
					},
					{
						"astId": 167,
						"contract": "contracts/FreedomCoinNew.sol:FreedomCoinNew",
						"label": "_owner",
						"offset": 0,
						"slot": "5",
						"type": "t_address"
					},
					{
						"astId": 791,
						"contract": "contracts/FreedomCoinNew.sol:FreedomCoinNew",
						"label": "_charityWallet",
						"offset": 0,
						"slot": "6",
						"type": "t_address_payable"
					},
					{
						"astId": 797,
						"contract": "contracts/FreedomCoinNew.sol:FreedomCoinNew",
						"label": "_marketingDevWallet",
						"offset": 0,
						"slot": "7",
						"type": "t_address_payable"
					},
					{
						"astId": 800,
						"contract": "contracts/FreedomCoinNew.sol:FreedomCoinNew",
						"label": "_feeBuyAndSellTotal",
						"offset": 0,
						"slot": "8",
						"type": "t_uint256"
					},
					{
						"astId": 803,
						"contract": "contracts/FreedomCoinNew.sol:FreedomCoinNew",
						"label": "_feeBuyAndSellCharity",
						"offset": 0,
						"slot": "9",
						"type": "t_uint256"
					},
					{
						"astId": 806,
						"contract": "contracts/FreedomCoinNew.sol:FreedomCoinNew",
						"label": "_feeBuyAndSellMK",
						"offset": 0,
						"slot": "10",
						"type": "t_uint256"
					},
					{
						"astId": 809,
						"contract": "contracts/FreedomCoinNew.sol:FreedomCoinNew",
						"label": "_feeBuyAndSellLP",
						"offset": 0,
						"slot": "11",
						"type": "t_uint256"
					},
					{
						"astId": 817,
						"contract": "contracts/FreedomCoinNew.sol:FreedomCoinNew",
						"label": "_maxTokens",
						"offset": 0,
						"slot": "12",
						"type": "t_uint256"
					},
					{
						"astId": 820,
						"contract": "contracts/FreedomCoinNew.sol:FreedomCoinNew",
						"label": "_tempCharity",
						"offset": 0,
						"slot": "13",
						"type": "t_uint256"
					},
					{
						"astId": 823,
						"contract": "contracts/FreedomCoinNew.sol:FreedomCoinNew",
						"label": "_tempMK",
						"offset": 0,
						"slot": "14",
						"type": "t_uint256"
					},
					{
						"astId": 826,
						"contract": "contracts/FreedomCoinNew.sol:FreedomCoinNew",
						"label": "_tempLP",
						"offset": 0,
						"slot": "15",
						"type": "t_uint256"
					},
					{
						"astId": 829,
						"contract": "contracts/FreedomCoinNew.sol:FreedomCoinNew",
						"label": "swapRouter",
						"offset": 0,
						"slot": "16",
						"type": "t_contract(IUniswapV2Router)132"
					},
					{
						"astId": 831,
						"contract": "contracts/FreedomCoinNew.sol:FreedomCoinNew",
						"label": "swapPair",
						"offset": 0,
						"slot": "17",
						"type": "t_address"
					}
				],
				"types": {
					"t_address": {
						"encoding": "inplace",
						"label": "address",
						"numberOfBytes": "20"
					},
					"t_address_payable": {
						"encoding": "inplace",
						"label": "address payable",
						"numberOfBytes": "20"
					},
					"t_contract(IUniswapV2Router)132": {
						"encoding": "inplace",
						"label": "contract IUniswapV2Router",
						"numberOfBytes": "20"
					},
					"t_mapping(t_address,t_mapping(t_address,t_uint256))": {
						"encoding": "mapping",
						"key": "t_address",
						"label": "mapping(address => mapping(address => uint256))",
						"numberOfBytes": "32",
						"value": "t_mapping(t_address,t_uint256)"
					},
					"t_mapping(t_address,t_uint256)": {
						"encoding": "mapping",
						"key": "t_address",
						"label": "mapping(address => uint256)",
						"numberOfBytes": "32",
						"value": "t_uint256"
					},
					"t_string_storage": {
						"encoding": "bytes",
						"label": "string",
						"numberOfBytes": "32"
					},
					"t_uint256": {
						"encoding": "inplace",
						"label": "uint256",
						"numberOfBytes": "32"
					}
				}
			},
			"userdoc": {
				"kind": "user",
				"methods": {},
				"version": 1
			}
		}
	}
}