{
	"contracts/testToken.sol": {
		"TestToken": {
			"abi": [
				{
					"inputs": [],
					"stateMutability": "nonpayable",
					"type": "constructor"
				},
				{
					"anonymous": false,
					"inputs": [
						{
							"indexed": true,
							"internalType": "address",
							"name": "owner",
							"type": "address"
						},
						{
							"indexed": true,
							"internalType": "address",
							"name": "spender",
							"type": "address"
						},
						{
							"indexed": false,
							"internalType": "uint256",
							"name": "value",
							"type": "uint256"
						}
					],
					"name": "Approval",
					"type": "event"
				},
				{
					"anonymous": false,
					"inputs": [
						{
							"indexed": true,
							"internalType": "address",
							"name": "previousOwner",
							"type": "address"
						},
						{
							"indexed": true,
							"internalType": "address",
							"name": "newOwner",
							"type": "address"
						}
					],
					"name": "OwnershipTransferred",
					"type": "event"
				},
				{
					"anonymous": false,
					"inputs": [
						{
							"indexed": true,
							"internalType": "address",
							"name": "from",
							"type": "address"
						},
						{
							"indexed": true,
							"internalType": "address",
							"name": "to",
							"type": "address"
						},
						{
							"indexed": false,
							"internalType": "uint256",
							"name": "value",
							"type": "uint256"
						}
					],
					"name": "Transfer",
					"type": "event"
				},
				{
					"inputs": [],
					"name": "_feeBuyLP",
					"outputs": [
						{
							"internalType": "uint256",
							"name": "",
							"type": "uint256"
						}
					],
					"stateMutability": "view",
					"type": "function"
				},
				{
					"inputs": [],
					"name": "_feeBuyMK",
					"outputs": [
						{
							"internalType": "uint256",
							"name": "",
							"type": "uint256"
						}
					],
					"stateMutability": "view",
					"type": "function"
				},
				{
					"inputs": [],
					"name": "_feeBuyReward",
					"outputs": [
						{
							"internalType": "uint256",
							"name": "",
							"type": "uint256"
						}
					],
					"stateMutability": "view",
					"type": "function"
				},
				{
					"inputs": [],
					"name": "_feeBuyTotal",
					"outputs": [
						{
							"internalType": "uint256",
							"name": "",
							"type": "uint256"
						}
					],
					"stateMutability": "view",
					"type": "function"
				},
				{
					"inputs": [],
					"name": "_feeSellLP",
					"outputs": [
						{
							"internalType": "uint256",
							"name": "",
							"type": "uint256"
						}
					],
					"stateMutability": "view",
					"type": "function"
				},
				{
					"inputs": [],
					"name": "_feeSellMK",
					"outputs": [
						{
							"internalType": "uint256",
							"name": "",
							"type": "uint256"
						}
					],
					"stateMutability": "view",
					"type": "function"
				},
				{
					"inputs": [],
					"name": "_feeSellReward",
					"outputs": [
						{
							"internalType": "uint256",
							"name": "",
							"type": "uint256"
						}
					],
					"stateMutability": "view",
					"type": "function"
				},
				{
					"inputs": [],
					"name": "_feeSellTotal",
					"outputs": [
						{
							"internalType": "uint256",
							"name": "",
							"type": "uint256"
						}
					],
					"stateMutability": "view",
					"type": "function"
				},
				{
					"inputs": [],
					"name": "_marketingWallet",
					"outputs": [
						{
							"internalType": "address",
							"name": "",
							"type": "address"
						}
					],
					"stateMutability": "view",
					"type": "function"
				},
				{
					"inputs": [],
					"name": "_maxTokens",
					"outputs": [
						{
							"internalType": "uint256",
							"name": "",
							"type": "uint256"
						}
					],
					"stateMutability": "view",
					"type": "function"
				},
				{
					"inputs": [],
					"name": "_rewardWallet",
					"outputs": [
						{
							"internalType": "address",
							"name": "",
							"type": "address"
						}
					],
					"stateMutability": "view",
					"type": "function"
				},
				{
					"inputs": [
						{
							"internalType": "address",
							"name": "owner",
							"type": "address"
						},
						{
							"internalType": "address",
							"name": "spender",
							"type": "address"
						}
					],
					"name": "allowance",
					"outputs": [
						{
							"internalType": "uint256",
							"name": "",
							"type": "uint256"
						}
					],
					"stateMutability": "view",
					"type": "function"
				},
				{
					"inputs": [
						{
							"internalType": "address",
							"name": "spender",
							"type": "address"
						},
						{
							"internalType": "uint256",
							"name": "amount",
							"type": "uint256"
						}
					],
					"name": "approve",
					"outputs": [
						{
							"internalType": "bool",
							"name": "",
							"type": "bool"
						}
					],
					"stateMutability": "nonpayable",
					"type": "function"
				},
				{
					"inputs": [
						{
							"internalType": "address",
							"name": "account",
							"type": "address"
						}
					],
					"name": "balanceOf",
					"outputs": [
						{
							"internalType": "uint256",
							"name": "",
							"type": "uint256"
						}
					],
					"stateMutability": "view",
					"type": "function"
				},
				{
					"inputs": [],
					"name": "decimals",
					"outputs": [
						{
							"internalType": "uint8",
							"name": "",
							"type": "uint8"
						}
					],
					"stateMutability": "view",
					"type": "function"
				},
				{
					"inputs": [
						{
							"internalType": "address",
							"name": "spender",
							"type": "address"
						},
						{
							"internalType": "uint256",
							"name": "subtractedValue",
							"type": "uint256"
						}
					],
					"name": "decreaseAllowance",
					"outputs": [
						{
							"internalType": "bool",
							"name": "",
							"type": "bool"
						}
					],
					"stateMutability": "nonpayable",
					"type": "function"
				},
				{
					"inputs": [
						{
							"internalType": "uint256",
							"name": "__feeBuyReward",
							"type": "uint256"
						},
						{
							"internalType": "uint256",
							"name": "__feeBuyMK",
							"type": "uint256"
						},
						{
							"internalType": "uint256",
							"name": "__feeBuyLP",
							"type": "uint256"
						}
					],
					"name": "editBuyFees",
					"outputs": [],
					"stateMutability": "nonpayable",
					"type": "function"
				},
				{
					"inputs": [
						{
							"internalType": "uint256",
							"name": "__feeSellReward",
							"type": "uint256"
						},
						{
							"internalType": "uint256",
							"name": "__feeSellMK",
							"type": "uint256"
						},
						{
							"internalType": "uint256",
							"name": "__feeSellLP",
							"type": "uint256"
						}
					],
					"name": "editSellFees",
					"outputs": [],
					"stateMutability": "nonpayable",
					"type": "function"
				},
				{
					"inputs": [
						{
							"internalType": "address",
							"name": "spender",
							"type": "address"
						},
						{
							"internalType": "uint256",
							"name": "addedValue",
							"type": "uint256"
						}
					],
					"name": "increaseAllowance",
					"outputs": [
						{
							"internalType": "bool",
							"name": "",
							"type": "bool"
						}
					],
					"stateMutability": "nonpayable",
					"type": "function"
				},
				{
					"inputs": [],
					"name": "name",
					"outputs": [
						{
							"internalType": "string",
							"name": "",
							"type": "string"
						}
					],
					"stateMutability": "view",
					"type": "function"
				},
				{
					"inputs": [],
					"name": "owner",
					"outputs": [
						{
							"internalType": "address",
							"name": "",
							"type": "address"
						}
					],
					"stateMutability": "view",
					"type": "function"
				},
				{
					"inputs": [],
					"name": "renounceOwnership",
					"outputs": [],
					"stateMutability": "nonpayable",
					"type": "function"
				},
				{
					"inputs": [
						{
							"internalType": "address",
							"name": "newWallet",
							"type": "address"
						}
					],
					"name": "setMarketingWallet",
					"outputs": [],
					"stateMutability": "nonpayable",
					"type": "function"
				},
				{
					"inputs": [
						{
							"internalType": "uint256",
							"name": "newValue",
							"type": "uint256"
						}
					],
					"name": "setMinTokens",
					"outputs": [],
					"stateMutability": "nonpayable",
					"type": "function"
				},
				{
					"inputs": [
						{
							"internalType": "address",
							"name": "newWallet",
							"type": "address"
						}
					],
					"name": "setRewardWallet",
					"outputs": [],
					"stateMutability": "nonpayable",
					"type": "function"
				},
				{
					"inputs": [],
					"name": "swapPair",
					"outputs": [
						{
							"internalType": "address",
							"name": "",
							"type": "address"
						}
					],
					"stateMutability": "view",
					"type": "function"
				},
				{
					"inputs": [],
					"name": "swapRouter",
					"outputs": [
						{
							"internalType": "contract IUniswapV2Router",
							"name": "",
							"type": "address"
						}
					],
					"stateMutability": "view",
					"type": "function"
				},
				{
					"inputs": [],
					"name": "symbol",
					"outputs": [
						{
							"internalType": "string",
							"name": "",
							"type": "string"
						}
					],
					"stateMutability": "view",
					"type": "function"
				},
				{
					"inputs": [],
					"name": "totalSupply",
					"outputs": [
						{
							"internalType": "uint256",
							"name": "",
							"type": "uint256"
						}
					],
					"stateMutability": "view",
					"type": "function"
				},
				{
					"inputs": [
						{
							"internalType": "address",
							"name": "to",
							"type": "address"
						},
						{
							"internalType": "uint256",
							"name": "amount",
							"type": "uint256"
						}
					],
					"name": "transfer",
					"outputs": [
						{
							"internalType": "bool",
							"name": "",
							"type": "bool"
						}
					],
					"stateMutability": "nonpayable",
					"type": "function"
				},
				{
					"inputs": [
						{
							"internalType": "address",
							"name": "from",
							"type": "address"
						},
						{
							"internalType": "address",
							"name": "to",
							"type": "address"
						},
						{
							"internalType": "uint256",
							"name": "amount",
							"type": "uint256"
						}
					],
					"name": "transferFrom",
					"outputs": [
						{
							"internalType": "bool",
							"name": "",
							"type": "bool"
						}
					],
					"stateMutability": "nonpayable",
					"type": "function"
				},
				{
					"inputs": [
						{
							"internalType": "address",
							"name": "newOwner",
							"type": "address"
						}
					],
					"name": "transferOwnership",
					"outputs": [],
					"stateMutability": "nonpayable",
					"type": "function"
				}
			],
			"devdoc": {
				"events": {
					"Approval(address,address,uint256)": {
						"details": "Emitted when the allowance of a `spender` for an `owner` is set by a call to {approve}. `value` is the new allowance."
					},
					"Transfer(address,address,uint256)": {
						"details": "Emitted when `value` tokens are moved from one account (`from`) to another (`to`). Note that `value` may be zero."
					}
				},
				"kind": "dev",
				"methods": {
					"allowance(address,address)": {
						"details": "See {IERC20-allowance}."
					},
					"approve(address,uint256)": {
						"details": "See {IERC20-approve}. NOTE: If `amount` is the maximum `uint256`, the allowance is not updated on `transferFrom`. This is semantically equivalent to an infinite approval. Requirements: - `spender` cannot be the zero address."
					},
					"balanceOf(address)": {
						"details": "See {IERC20-balanceOf}."
					},
					"decimals()": {
						"details": "Returns the number of decimals used to get its user representation. For example, if `decimals` equals `2`, a balance of `505` tokens should be displayed to a user as `5.05` (`505 / 10 ** 2`). Tokens usually opt for a value of 18, imitating the relationship between Ether and Wei. This is the value {ERC20} uses, unless this function is overridden; NOTE: This information is only used for _display_ purposes: it in no way affects any of the arithmetic of the contract, including {IERC20-balanceOf} and {IERC20-transfer}."
					},
					"decreaseAllowance(address,uint256)": {
						"details": "Atomically decreases the allowance granted to `spender` by the caller. This is an alternative to {approve} that can be used as a mitigation for problems described in {IERC20-approve}. Emits an {Approval} event indicating the updated allowance. Requirements: - `spender` cannot be the zero address. - `spender` must have allowance for the caller of at least `subtractedValue`."
					},
					"increaseAllowance(address,uint256)": {
						"details": "Atomically increases the allowance granted to `spender` by the caller. This is an alternative to {approve} that can be used as a mitigation for problems described in {IERC20-approve}. Emits an {Approval} event indicating the updated allowance. Requirements: - `spender` cannot be the zero address."
					},
					"name()": {
						"details": "Returns the name of the token."
					},
					"owner()": {
						"details": "Returns the address of the current owner."
					},
					"renounceOwnership()": {
						"details": "Leaves the contract without owner. It will not be possible to call `onlyOwner` functions anymore. Can only be called by the current owner. NOTE: Renouncing ownership will leave the contract without an owner, thereby removing any functionality that is only available to the owner."
					},
					"symbol()": {
						"details": "Returns the symbol of the token, usually a shorter version of the name."
					},
					"totalSupply()": {
						"details": "See {IERC20-totalSupply}."
					},
					"transfer(address,uint256)": {
						"details": "See {IERC20-transfer}. Requirements: - `to` cannot be the zero address. - the caller must have a balance of at least `amount`."
					},
					"transferFrom(address,address,uint256)": {
						"details": "See {IERC20-transferFrom}. Emits an {Approval} event indicating the updated allowance. This is not required by the EIP. See the note at the beginning of {ERC20}. NOTE: Does not update the allowance if the current allowance is the maximum `uint256`. Requirements: - `from` and `to` cannot be the zero address. - `from` must have a balance of at least `amount`. - the caller must have allowance for ``from``'s tokens of at least `amount`."
					},
					"transferOwnership(address)": {
						"details": "Transfers ownership of the contract to a new account (`newOwner`). Can only be called by the current owner."
					}
				},
				"version": 1
			},
			"evm": {
				"assembly": "    /* \"contracts/testToken.sol\":15402:20239  contract TestToken is ERC20, Ownable {... */\n  mstore(0x40, 0x80)\n    /* \"contracts/testToken.sol\":15498:15540  0xBF3C56f4D317A11e5796df613E52081A34462410 */\n  0xbf3c56f4d317a11e5796df613e52081a34462410\n    /* \"contracts/testToken.sol\":15467:15540  address public _rewardWallet = 0xBF3C56f4D317A11e5796df613E52081A34462410 */\n  0x06\n  exp(0x0100, 0x00)\n  dup2\n  sload\n  dup2\n  0xffffffffffffffffffffffffffffffffffffffff\n  mul\n  not\n  and\n  swap1\n  dup4\n  0xffffffffffffffffffffffffffffffffffffffff\n  and\n  mul\n  or\n  swap1\n  sstore\n  pop\n    /* \"contracts/testToken.sol\":15580:15622  0xb93131eE7BE304c183790d3F6EdCDd978024F93f */\n  0xb93131ee7be304c183790d3f6edcdd978024f93f\n    /* \"contracts/testToken.sol\":15546:15622  address public _marketingWallet = 0xb93131eE7BE304c183790d3F6EdCDd978024F93f */\n  0x07\n  exp(0x0100, 0x00)\n  dup2\n  sload\n  dup2\n  0xffffffffffffffffffffffffffffffffffffffff\n  mul\n  not\n  and\n  swap1\n  dup4\n  0xffffffffffffffffffffffffffffffffffffffff\n  and\n  mul\n  or\n  swap1\n  sstore\n  pop\n    /* \"contracts/testToken.sol\":15678:15680  10 */\n  0x0a\n    /* \"contracts/testToken.sol\":15648:15680  uint256 public _feeBuyTotal = 10 */\n  0x08\n  sstore\n    /* \"contracts/testToken.sol\":15718:15719  6 */\n  0x06\n    /* \"contracts/testToken.sol\":15687:15719  uint256 public _feeBuyReward = 6 */\n  0x09\n  sstore\n    /* \"contracts/testToken.sol\":15752:15753  0 */\n  0x00\n    /* \"contracts/testToken.sol\":15725:15753  uint256 public _feeBuyMK = 0 */\n  0x0a\n  sstore\n    /* \"contracts/testToken.sol\":15786:15787  4 */\n  0x04\n    /* \"contracts/testToken.sol\":15759:15787  uint256 public _feeBuyLP = 4 */\n  0x0b\n  sstore\n    /* \"contracts/testToken.sol\":15825:15827  14 */\n  0x0e\n    /* \"contracts/testToken.sol\":15794:15827  uint256 public _feeSellTotal = 14 */\n  0x0c\n  sstore\n    /* \"contracts/testToken.sol\":15866:15868  10 */\n  0x0a\n    /* \"contracts/testToken.sol\":15834:15868  uint256 public _feeSellReward = 10 */\n  0x0d\n  sstore\n    /* \"contracts/testToken.sol\":15902:15903  2 */\n  0x02\n    /* \"contracts/testToken.sol\":15874:15903  uint256 public _feeSellMK = 2 */\n  0x0e\n  sstore\n    /* \"contracts/testToken.sol\":15937:15938  2 */\n  0x02\n    /* \"contracts/testToken.sol\":15909:15938  uint256 public _feeSellLP = 2 */\n  0x0f\n  sstore\n    /* \"contracts/testToken.sol\":16006:16016  decimals() */\n  tag_1\n    /* \"contracts/testToken.sol\":16006:16014  decimals */\n  shl(0x20, tag_2)\n    /* \"contracts/testToken.sol\":16006:16016  decimals() */\n  0x20\n  shr\n  jump\t// in\ntag_1:\n    /* \"contracts/testToken.sol\":16000:16002  10 */\n  0x0a\n    /* \"contracts/testToken.sol\":16000:16016  10 ** decimals() */\n  tag_3\n  swap2\n  swap1\n  tag_4\n  jump\t// in\ntag_3:\n    /* \"contracts/testToken.sol\":15994:15997  100 */\n  0x64\n    /* \"contracts/testToken.sol\":15994:16016  100 * 10 ** decimals() */\n  tag_5\n  swap2\n  swap1\n  tag_6\n  jump\t// in\ntag_5:\n    /* \"contracts/testToken.sol\":15966:16016  uint256 public _maxTokens = 100 * 10 ** decimals() */\n  0x10\n  sstore\n    /* \"contracts/testToken.sol\":16074:16075  0 */\n  0x00\n    /* \"contracts/testToken.sol\":16044:16075  uint256 private _tempReward = 0 */\n  0x11\n  sstore\n    /* \"contracts/testToken.sol\":16107:16108  0 */\n  0x00\n    /* \"contracts/testToken.sol\":16081:16108  uint256 private _tempMK = 0 */\n  0x12\n  sstore\n    /* \"contracts/testToken.sol\":16140:16141  0 */\n  0x00\n    /* \"contracts/testToken.sol\":16114:16141  uint256 private _tempLP = 0 */\n  0x13\n  sstore\n    /* \"contracts/testToken.sol\":16300:16888  constructor() ERC20(\"TestToken\", \"TTK\") {... */\n  callvalue\n  dup1\n  iszero\n  tag_7\n  jumpi\n  0x00\n  dup1\n  revert\ntag_7:\n  pop\n    /* \"contracts/testToken.sol\":6307:6420  constructor(string memory name_, string memory symbol_) {... */\n  mload(0x40)\n  dup1\n  0x40\n  add\n  0x40\n  mstore\n  dup1\n  0x09\n  dup2\n  mstore\n  0x20\n  add\n  0x54657374546f6b656e0000000000000000000000000000000000000000000000\n  dup2\n  mstore\n  pop\n  mload(0x40)\n  dup1\n  0x40\n  add\n  0x40\n  mstore\n  dup1\n  0x03\n  dup2\n  mstore\n  0x20\n  add\n  0x54544b0000000000000000000000000000000000000000000000000000000000\n  dup2\n  mstore\n  pop\n    /* \"contracts/testToken.sol\":6381:6386  name_ */\n  dup2\n    /* \"contracts/testToken.sol\":6373:6378  _name */\n  0x03\n    /* \"contracts/testToken.sol\":6373:6386  _name = name_ */\n  swap1\n  dup2\n  tag_12\n  swap2\n  swap1\n  tag_13\n  jump\t// in\ntag_12:\n  pop\n    /* \"contracts/testToken.sol\":6406:6413  symbol_ */\n  dup1\n    /* \"contracts/testToken.sol\":6396:6403  _symbol */\n  0x04\n    /* \"contracts/testToken.sol\":6396:6413  _symbol = symbol_ */\n  swap1\n  dup2\n  tag_14\n  swap2\n  swap1\n  tag_13\n  jump\t// in\ntag_14:\n  pop\n    /* \"contracts/testToken.sol\":6307:6420  constructor(string memory name_, string memory symbol_) {... */\n  pop\n  pop\n    /* \"contracts/testToken.sol\":4314:4346  _transferOwnership(_msgSender()) */\n  tag_16\n    /* \"contracts/testToken.sol\":4333:4345  _msgSender() */\n  tag_17\n    /* \"contracts/testToken.sol\":4333:4343  _msgSender */\n  shl(0x20, tag_18)\n    /* \"contracts/testToken.sol\":4333:4345  _msgSender() */\n  0x20\n  shr\n  jump\t// in\ntag_17:\n    /* \"contracts/testToken.sol\":4314:4332  _transferOwnership */\n  shl(0x20, tag_19)\n    /* \"contracts/testToken.sol\":4314:4346  _transferOwnership(_msgSender()) */\n  0x20\n  shr\n  jump\t// in\ntag_16:\n    /* \"contracts/testToken.sol\":16350:16369  uint256 startSupply */\n  0x00\n    /* \"contracts/testToken.sol\":16386:16396  decimals() */\n  tag_21\n    /* \"contracts/testToken.sol\":16386:16394  decimals */\n  shl(0x20, tag_2)\n    /* \"contracts/testToken.sol\":16386:16396  decimals() */\n  0x20\n  shr\n  jump\t// in\ntag_21:\n    /* \"contracts/testToken.sol\":16380:16382  10 */\n  0x0a\n    /* \"contracts/testToken.sol\":16380:16396  10 ** decimals() */\n  tag_22\n  swap2\n  swap1\n  tag_4\n  jump\t// in\ntag_22:\n    /* \"contracts/testToken.sol\":16372:16377  0.1e9 */\n  0x05f5e100\n    /* \"contracts/testToken.sol\":16372:16396  0.1e9 * 10 ** decimals() */\n  tag_23\n  swap2\n  swap1\n  tag_6\n  jump\t// in\ntag_23:\n    /* \"contracts/testToken.sol\":16350:16396  uint256 startSupply = 0.1e9 * 10 ** decimals() */\n  swap1\n  pop\n    /* \"contracts/testToken.sol\":16406:16438  _mint(msg.sender, (startSupply)) */\n  tag_24\n    /* \"contracts/testToken.sol\":16412:16422  msg.sender */\n  caller\n    /* \"contracts/testToken.sol\":16425:16436  startSupply */\n  dup3\n    /* \"contracts/testToken.sol\":16406:16411  _mint */\n  shl(0x20, tag_25)\n    /* \"contracts/testToken.sol\":16406:16438  _mint(msg.sender, (startSupply)) */\n  0x20\n  shr\n  jump\t// in\ntag_24:\n    /* \"contracts/testToken.sol\":16449:16480  IUniswapV2Router _uniswapRouter */\n  0x00\n    /* \"contracts/testToken.sol\":16513:16555  0xedf6066a2b290C185783862C7F4776A2C8077AD1 */\n  0xedf6066a2b290c185783862c7f4776a2c8077ad1\n    /* \"contracts/testToken.sol\":16449:16565  IUniswapV2Router _uniswapRouter = IUniswapV2Router(... */\n  swap1\n  pop\n    /* \"contracts/testToken.sol\":16604:16618  _uniswapRouter */\n  dup1\n    /* \"contracts/testToken.sol\":16604:16626  _uniswapRouter.factory */\n  0xffffffffffffffffffffffffffffffffffffffff\n  and\n  0xc45a0155\n    /* \"contracts/testToken.sol\":16604:16628  _uniswapRouter.factory() */\n  mload(0x40)\n  dup2\n  0xffffffff\n  and\n  0xe0\n  shl\n  dup2\n  mstore\n  0x04\n  add\n  0x20\n  mload(0x40)\n  dup1\n  dup4\n  sub\n  dup2\n  dup7\n  gas\n  staticcall\n  iszero\n  dup1\n  iszero\n  tag_27\n  jumpi\n  returndatasize\n  0x00\n  dup1\n  returndatacopy\n  revert(0x00, returndatasize)\ntag_27:\n  pop\n  pop\n  pop\n  pop\n  mload(0x40)\n  returndatasize\n  not(0x1f)\n  0x1f\n  dup3\n  add\n  and\n  dup3\n  add\n  dup1\n  0x40\n  mstore\n  pop\n  dup2\n  add\n  swap1\n  tag_28\n  swap2\n  swap1\n  tag_29\n  jump\t// in\ntag_28:\n    /* \"contracts/testToken.sol\":16586:16653  IUniswapV2Factory(_uniswapRouter.factory())... */\n  0xffffffffffffffffffffffffffffffffffffffff\n  and\n  0xc9c65396\n    /* \"contracts/testToken.sol\":16662:16666  this */\n  address\n    /* \"contracts/testToken.sol\":16669:16683  _uniswapRouter */\n  dup4\n    /* \"contracts/testToken.sol\":16669:16688  _uniswapRouter.WETH */\n  0xffffffffffffffffffffffffffffffffffffffff\n  and\n  0xad5c4648\n    /* \"contracts/testToken.sol\":16669:16690  _uniswapRouter.WETH() */\n  mload(0x40)\n  dup2\n  0xffffffff\n  and\n  0xe0\n  shl\n  dup2\n  mstore\n  0x04\n  add\n  0x20\n  mload(0x40)\n  dup1\n  dup4\n  sub\n  dup2\n  dup7\n  gas\n  staticcall\n  iszero\n  dup1\n  iszero\n  tag_31\n  jumpi\n  returndatasize\n  0x00\n  dup1\n  returndatacopy\n  revert(0x00, returndatasize)\ntag_31:\n  pop\n  pop\n  pop\n  pop\n  mload(0x40)\n  returndatasize\n  not(0x1f)\n  0x1f\n  dup3\n  add\n  and\n  dup3\n  add\n  dup1\n  0x40\n  mstore\n  pop\n  dup2\n  add\n  swap1\n  tag_32\n  swap2\n  swap1\n  tag_29\n  jump\t// in\ntag_32:\n    /* \"contracts/testToken.sol\":16586:16691  IUniswapV2Factory(_uniswapRouter.factory())... */\n  mload(0x40)\n  dup4\n  0xffffffff\n  and\n  0xe0\n  shl\n  dup2\n  mstore\n  0x04\n  add\n  tag_33\n  swap3\n  swap2\n  swap1\n  tag_34\n  jump\t// in\ntag_33:\n  0x20\n  mload(0x40)\n  dup1\n  dup4\n  sub\n  dup2\n  0x00\n  dup8\n  gas\n  call\n  iszero\n  dup1\n  iszero\n  tag_36\n  jumpi\n  returndatasize\n  0x00\n  dup1\n  returndatacopy\n  revert(0x00, returndatasize)\ntag_36:\n  pop\n  pop\n  pop\n  pop\n  mload(0x40)\n  returndatasize\n  not(0x1f)\n  0x1f\n  dup3\n  add\n  and\n  dup3\n  add\n  dup1\n  0x40\n  mstore\n  pop\n  dup2\n  add\n  swap1\n  tag_37\n  swap2\n  swap1\n  tag_29\n  jump\t// in\ntag_37:\n    /* \"contracts/testToken.sol\":16575:16583  swapPair */\n  0x15\n  0x00\n    /* \"contracts/testToken.sol\":16575:16691  swapPair = IUniswapV2Factory(_uniswapRouter.factory())... */\n  0x0100\n  exp\n  dup2\n  sload\n  dup2\n  0xffffffffffffffffffffffffffffffffffffffff\n  mul\n  not\n  and\n  swap1\n  dup4\n  0xffffffffffffffffffffffffffffffffffffffff\n  and\n  mul\n  or\n  swap1\n  sstore\n  pop\n    /* \"contracts/testToken.sol\":16715:16729  _uniswapRouter */\n  dup1\n    /* \"contracts/testToken.sol\":16702:16712  swapRouter */\n  0x14\n  0x00\n    /* \"contracts/testToken.sol\":16702:16729  swapRouter = _uniswapRouter */\n  0x0100\n  exp\n  dup2\n  sload\n  dup2\n  0xffffffffffffffffffffffffffffffffffffffff\n  mul\n  not\n  and\n  swap1\n  dup4\n  0xffffffffffffffffffffffffffffffffffffffff\n  and\n  mul\n  or\n  swap1\n  sstore\n  pop\n    /* \"contracts/testToken.sol\":16748:16808  _approve(msg.sender, address(swapRouter), type(uint256).max) */\n  tag_38\n    /* \"contracts/testToken.sol\":16757:16767  msg.sender */\n  caller\n    /* \"contracts/testToken.sol\":16777:16787  swapRouter */\n  0x14\n  0x00\n  swap1\n  sload\n  swap1\n  0x0100\n  exp\n  swap1\n  div\n  0xffffffffffffffffffffffffffffffffffffffff\n  and\n    /* \"contracts/testToken.sol\":16790:16807  type(uint256).max */\n  0xffffffffffffffffffffffffffffffffffffffffffffffffffffffffffffffff\n    /* \"contracts/testToken.sol\":16748:16756  _approve */\n  shl(0x20, tag_39)\n    /* \"contracts/testToken.sol\":16748:16808  _approve(msg.sender, address(swapRouter), type(uint256).max) */\n  0x20\n  shr\n  jump\t// in\ntag_38:\n    /* \"contracts/testToken.sol\":16818:16881  _approve(address(this), address(swapRouter), type(uint256).max) */\n  tag_40\n    /* \"contracts/testToken.sol\":16835:16839  this */\n  address\n    /* \"contracts/testToken.sol\":16850:16860  swapRouter */\n  0x14\n  0x00\n  swap1\n  sload\n  swap1\n  0x0100\n  exp\n  swap1\n  div\n  0xffffffffffffffffffffffffffffffffffffffff\n  and\n    /* \"contracts/testToken.sol\":16863:16880  type(uint256).max */\n  0xffffffffffffffffffffffffffffffffffffffffffffffffffffffffffffffff\n    /* \"contracts/testToken.sol\":16818:16826  _approve */\n  shl(0x20, tag_39)\n    /* \"contracts/testToken.sol\":16818:16881  _approve(address(this), address(swapRouter), type(uint256).max) */\n  0x20\n  shr\n  jump\t// in\ntag_40:\n    /* \"contracts/testToken.sol\":16340:16888  {... */\n  pop\n  pop\n    /* \"contracts/testToken.sol\":15402:20239  contract TestToken is ERC20, Ownable {... */\n  jump(tag_41)\n    /* \"contracts/testToken.sol\":7623:7714  function decimals() public view virtual override returns (uint8) {... */\ntag_2:\n    /* \"contracts/testToken.sol\":7681:7686  uint8 */\n  0x00\n    /* \"contracts/testToken.sol\":7705:7707  18 */\n  0x12\n    /* \"contracts/testToken.sol\":7698:7707  return 18 */\n  swap1\n  pop\n    /* \"contracts/testToken.sol\":7623:7714  function decimals() public view virtual override returns (uint8) {... */\n  swap1\n  jump\t// out\n    /* \"contracts/testToken.sol\":3910:4006  function _msgSender() internal view virtual returns (address) {... */\ntag_18:\n    /* \"contracts/testToken.sol\":3963:3970  address */\n  0x00\n    /* \"contracts/testToken.sol\":3989:3999  msg.sender */\n  caller\n    /* \"contracts/testToken.sol\":3982:3999  return msg.sender */\n  swap1\n  pop\n    /* \"contracts/testToken.sol\":3910:4006  function _msgSender() internal view virtual returns (address) {... */\n  swap1\n  jump\t// out\n    /* \"contracts/testToken.sol\":5845:6032  function _transferOwnership(address newOwner) internal virtual {... */\ntag_19:\n    /* \"contracts/testToken.sol\":5918:5934  address oldOwner */\n  0x00\n    /* \"contracts/testToken.sol\":5937:5943  _owner */\n  0x05\n  0x00\n  swap1\n  sload\n  swap1\n  0x0100\n  exp\n  swap1\n  div\n  0xffffffffffffffffffffffffffffffffffffffff\n  and\n    /* \"contracts/testToken.sol\":5918:5943  address oldOwner = _owner */\n  swap1\n  pop\n    /* \"contracts/testToken.sol\":5962:5970  newOwner */\n  dup2\n    /* \"contracts/testToken.sol\":5953:5959  _owner */\n  0x05\n  0x00\n    /* \"contracts/testToken.sol\":5953:5970  _owner = newOwner */\n  0x0100\n  exp\n  dup2\n  sload\n  dup2\n  0xffffffffffffffffffffffffffffffffffffffff\n  mul\n  not\n  and\n  swap1\n  dup4\n  0xffffffffffffffffffffffffffffffffffffffff\n  and\n  mul\n  or\n  swap1\n  sstore\n  pop\n    /* \"contracts/testToken.sol\":6016:6024  newOwner */\n  dup2\n    /* \"contracts/testToken.sol\":5985:6025  OwnershipTransferred(oldOwner, newOwner) */\n  0xffffffffffffffffffffffffffffffffffffffff\n  and\n    /* \"contracts/testToken.sol\":6006:6014  oldOwner */\n  dup2\n    /* \"contracts/testToken.sol\":5985:6025  OwnershipTransferred(oldOwner, newOwner) */\n  0xffffffffffffffffffffffffffffffffffffffff\n  and\n  0x8be0079c531659141344cd1fd0a4f28419497f9722a3daafe3b4186f6b6457e0\n  mload(0x40)\n  mload(0x40)\n  dup1\n  swap2\n  sub\n  swap1\n  log3\n    /* \"contracts/testToken.sol\":5908:6032  {... */\n  pop\n    /* \"contracts/testToken.sol\":5845:6032  function _transferOwnership(address newOwner) internal virtual {... */\n  pop\n  jump\t// out\n    /* \"contracts/testToken.sol\":11800:12216  function _mint(address account, uint256 amount) internal virtual {... */\ntag_25:\n    /* \"contracts/testToken.sol\":11902:11903  0 */\n  0x00\n    /* \"contracts/testToken.sol\":11883:11904  account != address(0) */\n  0xffffffffffffffffffffffffffffffffffffffff\n  and\n    /* \"contracts/testToken.sol\":11883:11890  account */\n  dup3\n    /* \"contracts/testToken.sol\":11883:11904  account != address(0) */\n  0xffffffffffffffffffffffffffffffffffffffff\n  and\n  sub\n    /* \"contracts/testToken.sol\":11875:11940  require(account != address(0), \"ERC20: mint to the zero address\") */\n  tag_46\n  jumpi\n  mload(0x40)\n  0x08c379a000000000000000000000000000000000000000000000000000000000\n  dup2\n  mstore\n  0x04\n  add\n  tag_47\n  swap1\n  tag_48\n  jump\t// in\ntag_47:\n  mload(0x40)\n  dup1\n  swap2\n  sub\n  swap1\n  revert\ntag_46:\n    /* \"contracts/testToken.sol\":11967:11973  amount */\n  dup1\n    /* \"contracts/testToken.sol\":11951:11963  _totalSupply */\n  0x02\n  0x00\n    /* \"contracts/testToken.sol\":11951:11973  _totalSupply += amount */\n  dup3\n  dup3\n  sload\n  tag_49\n  swap2\n  swap1\n  tag_50\n  jump\t// in\ntag_49:\n  swap3\n  pop\n  pop\n  dup2\n  swap1\n  sstore\n  pop\n    /* \"contracts/testToken.sol\":12141:12147  amount */\n  dup1\n    /* \"contracts/testToken.sol\":12119:12128  _balances */\n  0x00\n    /* \"contracts/testToken.sol\":12119:12137  _balances[account] */\n  dup1\n    /* \"contracts/testToken.sol\":12129:12136  account */\n  dup5\n    /* \"contracts/testToken.sol\":12119:12137  _balances[account] */\n  0xffffffffffffffffffffffffffffffffffffffff\n  and\n  0xffffffffffffffffffffffffffffffffffffffff\n  and\n  dup2\n  mstore\n  0x20\n  add\n  swap1\n  dup2\n  mstore\n  0x20\n  add\n  0x00\n  keccak256\n  0x00\n    /* \"contracts/testToken.sol\":12119:12147  _balances[account] += amount */\n  dup3\n  dup3\n  sload\n  add\n  swap3\n  pop\n  pop\n  dup2\n  swap1\n  sstore\n  pop\n    /* \"contracts/testToken.sol\":12193:12200  account */\n  dup2\n    /* \"contracts/testToken.sol\":12172:12209  Transfer(address(0), account, amount) */\n  0xffffffffffffffffffffffffffffffffffffffff\n  and\n    /* \"contracts/testToken.sol\":12189:12190  0 */\n  0x00\n    /* \"contracts/testToken.sol\":12172:12209  Transfer(address(0), account, amount) */\n  0xffffffffffffffffffffffffffffffffffffffff\n  and\n  0xddf252ad1be2c89b69c2b068fc378daa952ba7f163c4a11628f55a4df523b3ef\n    /* \"contracts/testToken.sol\":12202:12208  amount */\n  dup4\n    /* \"contracts/testToken.sol\":12172:12209  Transfer(address(0), account, amount) */\n  mload(0x40)\n  tag_51\n  swap2\n  swap1\n  tag_52\n  jump\t// in\ntag_51:\n  mload(0x40)\n  dup1\n  swap2\n  sub\n  swap1\n  log3\n    /* \"contracts/testToken.sol\":11800:12216  function _mint(address account, uint256 amount) internal virtual {... */\n  pop\n  pop\n  jump\t// out\n    /* \"contracts/testToken.sol\":13499:13869  function _approve(... */\ntag_39:\n    /* \"contracts/testToken.sol\":13647:13648  0 */\n  0x00\n    /* \"contracts/testToken.sol\":13630:13649  owner != address(0) */\n  0xffffffffffffffffffffffffffffffffffffffff\n  and\n    /* \"contracts/testToken.sol\":13630:13635  owner */\n  dup4\n    /* \"contracts/testToken.sol\":13630:13649  owner != address(0) */\n  0xffffffffffffffffffffffffffffffffffffffff\n  and\n  sub\n    /* \"contracts/testToken.sol\":13622:13690  require(owner != address(0), \"ERC20: approve from the zero address\") */\n  tag_54\n  jumpi\n  mload(0x40)\n  0x08c379a000000000000000000000000000000000000000000000000000000000\n  dup2\n  mstore\n  0x04\n  add\n  tag_55\n  swap1\n  tag_56\n  jump\t// in\ntag_55:\n  mload(0x40)\n  dup1\n  swap2\n  sub\n  swap1\n  revert\ntag_54:\n    /* \"contracts/testToken.sol\":13727:13728  0 */\n  0x00\n    /* \"contracts/testToken.sol\":13708:13729  spender != address(0) */\n  0xffffffffffffffffffffffffffffffffffffffff\n  and\n    /* \"contracts/testToken.sol\":13708:13715  spender */\n  dup3\n    /* \"contracts/testToken.sol\":13708:13729  spender != address(0) */\n  0xffffffffffffffffffffffffffffffffffffffff\n  and\n  sub\n    /* \"contracts/testToken.sol\":13700:13768  require(spender != address(0), \"ERC20: approve to the zero address\") */\n  tag_57\n  jumpi\n  mload(0x40)\n  0x08c379a000000000000000000000000000000000000000000000000000000000\n  dup2\n  mstore\n  0x04\n  add\n  tag_58\n  swap1\n  tag_59\n  jump\t// in\ntag_58:\n  mload(0x40)\n  dup1\n  swap2\n  sub\n  swap1\n  revert\ntag_57:\n    /* \"contracts/testToken.sol\":13809:13815  amount */\n  dup1\n    /* \"contracts/testToken.sol\":13779:13790  _allowances */\n  0x01\n    /* \"contracts/testToken.sol\":13779:13797  _allowances[owner] */\n  0x00\n    /* \"contracts/testToken.sol\":13791:13796  owner */\n  dup6\n    /* \"contracts/testToken.sol\":13779:13797  _allowances[owner] */\n  0xffffffffffffffffffffffffffffffffffffffff\n  and\n  0xffffffffffffffffffffffffffffffffffffffff\n  and\n  dup2\n  mstore\n  0x20\n  add\n  swap1\n  dup2\n  mstore\n  0x20\n  add\n  0x00\n  keccak256\n    /* \"contracts/testToken.sol\":13779:13806  _allowances[owner][spender] */\n  0x00\n    /* \"contracts/testToken.sol\":13798:13805  spender */\n  dup5\n    /* \"contracts/testToken.sol\":13779:13806  _allowances[owner][spender] */\n  0xffffffffffffffffffffffffffffffffffffffff\n  and\n  0xffffffffffffffffffffffffffffffffffffffff\n  and\n  dup2\n  mstore\n  0x20\n  add\n  swap1\n  dup2\n  mstore\n  0x20\n  add\n  0x00\n  keccak256\n    /* \"contracts/testToken.sol\":13779:13815  _allowances[owner][spender] = amount */\n  dup2\n  swap1\n  sstore\n  pop\n    /* \"contracts/testToken.sol\":13846:13853  spender */\n  dup2\n    /* \"contracts/testToken.sol\":13830:13862  Approval(owner, spender, amount) */\n  0xffffffffffffffffffffffffffffffffffffffff\n  and\n    /* \"contracts/testToken.sol\":13839:13844  owner */\n  dup4\n    /* \"contracts/testToken.sol\":13830:13862  Approval(owner, spender, amount) */\n  0xffffffffffffffffffffffffffffffffffffffff\n  and\n  0x8c5be1e5ebec7d5bd14f71427d1e84f3dd0314c0f7b2291e5b200ac8c7c3b925\n    /* \"contracts/testToken.sol\":13855:13861  amount */\n  dup4\n    /* \"contracts/testToken.sol\":13830:13862  Approval(owner, spender, amount) */\n  mload(0x40)\n  tag_60\n  swap2\n  swap1\n  tag_52\n  jump\t// in\ntag_60:\n  mload(0x40)\n  dup1\n  swap2\n  sub\n  swap1\n  log3\n    /* \"contracts/testToken.sol\":13499:13869  function _approve(... */\n  pop\n  pop\n  pop\n  jump\t// out\n    /* \"#utility.yul\":7:187   */\ntag_61:\n    /* \"#utility.yul\":55:132   */\n  0x4e487b7100000000000000000000000000000000000000000000000000000000\n    /* \"#utility.yul\":52:53   */\n  0x00\n    /* \"#utility.yul\":45:133   */\n  mstore\n    /* \"#utility.yul\":152:156   */\n  0x11\n    /* \"#utility.yul\":149:150   */\n  0x04\n    /* \"#utility.yul\":142:157   */\n  mstore\n    /* \"#utility.yul\":176:180   */\n  0x24\n    /* \"#utility.yul\":173:174   */\n  0x00\n    /* \"#utility.yul\":166:181   */\n  revert\n    /* \"#utility.yul\":193:295   */\ntag_62:\n    /* \"#utility.yul\":235:243   */\n  0x00\n    /* \"#utility.yul\":282:287   */\n  dup2\n    /* \"#utility.yul\":279:280   */\n  0x01\n    /* \"#utility.yul\":275:288   */\n  shr\n    /* \"#utility.yul\":254:288   */\n  swap1\n  pop\n    /* \"#utility.yul\":193:295   */\n  swap2\n  swap1\n  pop\n  jump\t// out\n    /* \"#utility.yul\":301:1149   */\ntag_63:\n    /* \"#utility.yul\":362:367   */\n  0x00\n    /* \"#utility.yul\":369:373   */\n  dup1\n    /* \"#utility.yul\":393:399   */\n  dup3\n    /* \"#utility.yul\":384:399   */\n  swap2\n  pop\n    /* \"#utility.yul\":417:422   */\n  dup4\n    /* \"#utility.yul\":408:422   */\n  swap1\n  pop\n    /* \"#utility.yul\":431:1143   */\ntag_106:\n    /* \"#utility.yul\":452:453   */\n  0x01\n    /* \"#utility.yul\":442:450   */\n  dup6\n    /* \"#utility.yul\":439:454   */\n  gt\n    /* \"#utility.yul\":431:1143   */\n  iszero\n  tag_108\n  jumpi\n    /* \"#utility.yul\":547:551   */\n  dup1\n    /* \"#utility.yul\":542:545   */\n  dup7\n    /* \"#utility.yul\":538:552   */\n  div\n    /* \"#utility.yul\":532:536   */\n  dup2\n    /* \"#utility.yul\":529:553   */\n  gt\n    /* \"#utility.yul\":526:576   */\n  iszero\n  tag_109\n  jumpi\n    /* \"#utility.yul\":556:574   */\n  tag_110\n  tag_61\n  jump\t// in\ntag_110:\n    /* \"#utility.yul\":526:576   */\ntag_109:\n    /* \"#utility.yul\":606:607   */\n  0x01\n    /* \"#utility.yul\":596:604   */\n  dup6\n    /* \"#utility.yul\":592:608   */\n  and\n    /* \"#utility.yul\":589:1040   */\n  iszero\n  tag_111\n  jumpi\n    /* \"#utility.yul\":1021:1025   */\n  dup1\n    /* \"#utility.yul\":1014:1019   */\n  dup3\n    /* \"#utility.yul\":1010:1026   */\n  mul\n    /* \"#utility.yul\":1001:1026   */\n  swap2\n  pop\n    /* \"#utility.yul\":589:1040   */\ntag_111:\n    /* \"#utility.yul\":1071:1075   */\n  dup1\n    /* \"#utility.yul\":1065:1069   */\n  dup2\n    /* \"#utility.yul\":1061:1076   */\n  mul\n    /* \"#utility.yul\":1053:1076   */\n  swap1\n  pop\n    /* \"#utility.yul\":1101:1133   */\n  tag_112\n    /* \"#utility.yul\":1124:1132   */\n  dup6\n    /* \"#utility.yul\":1101:1133   */\n  tag_62\n  jump\t// in\ntag_112:\n    /* \"#utility.yul\":1089:1133   */\n  swap5\n  pop\n    /* \"#utility.yul\":431:1143   */\n  jump(tag_106)\ntag_108:\n    /* \"#utility.yul\":301:1149   */\n  swap5\n  pop\n  swap5\n  swap3\n  pop\n  pop\n  pop\n  jump\t// out\n    /* \"#utility.yul\":1155:2228   */\ntag_64:\n    /* \"#utility.yul\":1209:1214   */\n  0x00\n    /* \"#utility.yul\":1400:1408   */\n  dup3\n    /* \"#utility.yul\":1390:1430   */\n  tag_114\n  jumpi\n    /* \"#utility.yul\":1421:1422   */\n  0x01\n    /* \"#utility.yul\":1412:1422   */\n  swap1\n  pop\n    /* \"#utility.yul\":1423:1428   */\n  jump(tag_113)\n    /* \"#utility.yul\":1390:1430   */\ntag_114:\n    /* \"#utility.yul\":1449:1453   */\n  dup2\n    /* \"#utility.yul\":1439:1475   */\n  tag_115\n  jumpi\n    /* \"#utility.yul\":1466:1467   */\n  0x00\n    /* \"#utility.yul\":1457:1467   */\n  swap1\n  pop\n    /* \"#utility.yul\":1468:1473   */\n  jump(tag_113)\n    /* \"#utility.yul\":1439:1475   */\ntag_115:\n    /* \"#utility.yul\":1535:1539   */\n  dup2\n    /* \"#utility.yul\":1583:1584   */\n  0x01\n    /* \"#utility.yul\":1578:1605   */\n  dup2\n  eq\n  tag_117\n  jumpi\n    /* \"#utility.yul\":1619:1620   */\n  0x02\n    /* \"#utility.yul\":1614:1805   */\n  dup2\n  eq\n  tag_118\n  jumpi\n    /* \"#utility.yul\":1528:1805   */\n  jump(tag_116)\n    /* \"#utility.yul\":1578:1605   */\ntag_117:\n    /* \"#utility.yul\":1596:1597   */\n  0x01\n    /* \"#utility.yul\":1587:1597   */\n  swap2\n  pop\n    /* \"#utility.yul\":1598:1603   */\n  pop\n  jump(tag_113)\n    /* \"#utility.yul\":1614:1805   */\ntag_118:\n    /* \"#utility.yul\":1659:1662   */\n  0xff\n    /* \"#utility.yul\":1649:1657   */\n  dup5\n    /* \"#utility.yul\":1646:1663   */\n  gt\n    /* \"#utility.yul\":1643:1686   */\n  iszero\n  tag_119\n  jumpi\n    /* \"#utility.yul\":1666:1684   */\n  tag_120\n  tag_61\n  jump\t// in\ntag_120:\n    /* \"#utility.yul\":1643:1686   */\ntag_119:\n    /* \"#utility.yul\":1715:1723   */\n  dup4\n    /* \"#utility.yul\":1712:1713   */\n  0x02\n    /* \"#utility.yul\":1708:1724   */\n  exp\n    /* \"#utility.yul\":1699:1724   */\n  swap2\n  pop\n    /* \"#utility.yul\":1750:1753   */\n  dup5\n    /* \"#utility.yul\":1743:1748   */\n  dup3\n    /* \"#utility.yul\":1740:1754   */\n  gt\n    /* \"#utility.yul\":1737:1777   */\n  iszero\n  tag_121\n  jumpi\n    /* \"#utility.yul\":1757:1775   */\n  tag_122\n  tag_61\n  jump\t// in\ntag_122:\n    /* \"#utility.yul\":1737:1777   */\ntag_121:\n    /* \"#utility.yul\":1790:1795   */\n  pop\n  jump(tag_113)\n    /* \"#utility.yul\":1528:1805   */\ntag_116:\n  pop\n    /* \"#utility.yul\":1914:1916   */\n  0x20\n    /* \"#utility.yul\":1904:1912   */\n  dup4\n    /* \"#utility.yul\":1901:1917   */\n  lt\n    /* \"#utility.yul\":1895:1898   */\n  0x0133\n    /* \"#utility.yul\":1889:1893   */\n  dup4\n    /* \"#utility.yul\":1886:1899   */\n  lt\n    /* \"#utility.yul\":1882:1918   */\n  and\n    /* \"#utility.yul\":1864:1866   */\n  0x4e\n    /* \"#utility.yul\":1854:1862   */\n  dup5\n    /* \"#utility.yul\":1851:1867   */\n  lt\n    /* \"#utility.yul\":1846:1848   */\n  0x0b\n    /* \"#utility.yul\":1840:1844   */\n  dup5\n    /* \"#utility.yul\":1837:1849   */\n  lt\n    /* \"#utility.yul\":1833:1868   */\n  and\n    /* \"#utility.yul\":1817:1928   */\n  or\n    /* \"#utility.yul\":1814:2060   */\n  iszero\n  tag_123\n  jumpi\n    /* \"#utility.yul\":1970:1978   */\n  dup3\n    /* \"#utility.yul\":1964:1968   */\n  dup3\n    /* \"#utility.yul\":1960:1979   */\n  exp\n    /* \"#utility.yul\":1951:1979   */\n  swap1\n  pop\n    /* \"#utility.yul\":2005:2008   */\n  dup4\n    /* \"#utility.yul\":1998:2003   */\n  dup2\n    /* \"#utility.yul\":1995:2009   */\n  gt\n    /* \"#utility.yul\":1992:2032   */\n  iszero\n  tag_124\n  jumpi\n    /* \"#utility.yul\":2012:2030   */\n  tag_125\n  tag_61\n  jump\t// in\ntag_125:\n    /* \"#utility.yul\":1992:2032   */\ntag_124:\n    /* \"#utility.yul\":2045:2050   */\n  jump(tag_113)\n    /* \"#utility.yul\":1814:2060   */\ntag_123:\n    /* \"#utility.yul\":2085:2127   */\n  tag_126\n    /* \"#utility.yul\":2123:2126   */\n  dup5\n    /* \"#utility.yul\":2113:2121   */\n  dup5\n    /* \"#utility.yul\":2107:2111   */\n  dup5\n    /* \"#utility.yul\":2104:2105   */\n  0x01\n    /* \"#utility.yul\":2085:2127   */\n  tag_63\n  jump\t// in\ntag_126:\n    /* \"#utility.yul\":2070:2127   */\n  swap3\n  pop\n  swap1\n  pop\n    /* \"#utility.yul\":2159:2163   */\n  dup2\n    /* \"#utility.yul\":2154:2157   */\n  dup5\n    /* \"#utility.yul\":2150:2164   */\n  div\n    /* \"#utility.yul\":2143:2148   */\n  dup2\n    /* \"#utility.yul\":2140:2165   */\n  gt\n    /* \"#utility.yul\":2137:2188   */\n  iszero\n  tag_127\n  jumpi\n    /* \"#utility.yul\":2168:2186   */\n  tag_128\n  tag_61\n  jump\t// in\ntag_128:\n    /* \"#utility.yul\":2137:2188   */\ntag_127:\n    /* \"#utility.yul\":2217:2221   */\n  dup2\n    /* \"#utility.yul\":2210:2215   */\n  dup2\n    /* \"#utility.yul\":2206:2222   */\n  mul\n    /* \"#utility.yul\":2197:2222   */\n  swap1\n  pop\n    /* \"#utility.yul\":1155:2228   */\ntag_113:\n  swap4\n  swap3\n  pop\n  pop\n  pop\n  jump\t// out\n    /* \"#utility.yul\":2234:2311   */\ntag_65:\n    /* \"#utility.yul\":2271:2278   */\n  0x00\n    /* \"#utility.yul\":2300:2305   */\n  dup2\n    /* \"#utility.yul\":2289:2305   */\n  swap1\n  pop\n    /* \"#utility.yul\":2234:2311   */\n  swap2\n  swap1\n  pop\n  jump\t// out\n    /* \"#utility.yul\":2317:2403   */\ntag_66:\n    /* \"#utility.yul\":2352:2359   */\n  0x00\n    /* \"#utility.yul\":2392:2396   */\n  0xff\n    /* \"#utility.yul\":2385:2390   */\n  dup3\n    /* \"#utility.yul\":2381:2397   */\n  and\n    /* \"#utility.yul\":2370:2397   */\n  swap1\n  pop\n    /* \"#utility.yul\":2317:2403   */\n  swap2\n  swap1\n  pop\n  jump\t// out\n    /* \"#utility.yul\":2409:2690   */\ntag_4:\n    /* \"#utility.yul\":2467:2472   */\n  0x00\n    /* \"#utility.yul\":2491:2514   */\n  tag_132\n    /* \"#utility.yul\":2509:2513   */\n  dup3\n    /* \"#utility.yul\":2491:2514   */\n  tag_65\n  jump\t// in\ntag_132:\n    /* \"#utility.yul\":2483:2514   */\n  swap2\n  pop\n    /* \"#utility.yul\":2535:2560   */\n  tag_133\n    /* \"#utility.yul\":2551:2559   */\n  dup4\n    /* \"#utility.yul\":2535:2560   */\n  tag_66\n  jump\t// in\ntag_133:\n    /* \"#utility.yul\":2523:2560   */\n  swap3\n  pop\n    /* \"#utility.yul\":2579:2683   */\n  tag_134\n    /* \"#utility.yul\":2616:2682   */\n  0xffffffffffffffffffffffffffffffffffffffffffffffffffffffffffffffff\n    /* \"#utility.yul\":2606:2614   */\n  dup5\n    /* \"#utility.yul\":2600:2604   */\n  dup5\n    /* \"#utility.yul\":2579:2683   */\n  tag_64\n  jump\t// in\ntag_134:\n    /* \"#utility.yul\":2570:2683   */\n  swap1\n  pop\n    /* \"#utility.yul\":2409:2690   */\n  swap3\n  swap2\n  pop\n  pop\n  jump\t// out\n    /* \"#utility.yul\":2696:3106   */\ntag_6:\n    /* \"#utility.yul\":2736:2743   */\n  0x00\n    /* \"#utility.yul\":2759:2779   */\n  tag_136\n    /* \"#utility.yul\":2777:2778   */\n  dup3\n    /* \"#utility.yul\":2759:2779   */\n  tag_65\n  jump\t// in\ntag_136:\n    /* \"#utility.yul\":2754:2779   */\n  swap2\n  pop\n    /* \"#utility.yul\":2793:2813   */\n  tag_137\n    /* \"#utility.yul\":2811:2812   */\n  dup4\n    /* \"#utility.yul\":2793:2813   */\n  tag_65\n  jump\t// in\ntag_137:\n    /* \"#utility.yul\":2788:2813   */\n  swap3\n  pop\n    /* \"#utility.yul\":2848:2849   */\n  dup3\n    /* \"#utility.yul\":2845:2846   */\n  dup3\n    /* \"#utility.yul\":2841:2850   */\n  mul\n    /* \"#utility.yul\":2870:2900   */\n  tag_138\n    /* \"#utility.yul\":2888:2899   */\n  dup2\n    /* \"#utility.yul\":2870:2900   */\n  tag_65\n  jump\t// in\ntag_138:\n    /* \"#utility.yul\":2859:2900   */\n  swap2\n  pop\n    /* \"#utility.yul\":3049:3050   */\n  dup3\n    /* \"#utility.yul\":3040:3047   */\n  dup3\n    /* \"#utility.yul\":3036:3051   */\n  div\n    /* \"#utility.yul\":3033:3034   */\n  dup5\n    /* \"#utility.yul\":3030:3052   */\n  eq\n    /* \"#utility.yul\":3010:3011   */\n  dup4\n    /* \"#utility.yul\":3003:3012   */\n  iszero\n    /* \"#utility.yul\":2983:3066   */\n  or\n    /* \"#utility.yul\":2960:3099   */\n  tag_139\n  jumpi\n    /* \"#utility.yul\":3079:3097   */\n  tag_140\n  tag_61\n  jump\t// in\ntag_140:\n    /* \"#utility.yul\":2960:3099   */\ntag_139:\n    /* \"#utility.yul\":2744:3106   */\n  pop\n    /* \"#utility.yul\":2696:3106   */\n  swap3\n  swap2\n  pop\n  pop\n  jump\t// out\n    /* \"#utility.yul\":3112:3211   */\ntag_67:\n    /* \"#utility.yul\":3164:3170   */\n  0x00\n    /* \"#utility.yul\":3198:3203   */\n  dup2\n    /* \"#utility.yul\":3192:3204   */\n  mload\n    /* \"#utility.yul\":3182:3204   */\n  swap1\n  pop\n    /* \"#utility.yul\":3112:3211   */\n  swap2\n  swap1\n  pop\n  jump\t// out\n    /* \"#utility.yul\":3217:3397   */\ntag_68:\n    /* \"#utility.yul\":3265:3342   */\n  0x4e487b7100000000000000000000000000000000000000000000000000000000\n    /* \"#utility.yul\":3262:3263   */\n  0x00\n    /* \"#utility.yul\":3255:3343   */\n  mstore\n    /* \"#utility.yul\":3362:3366   */\n  0x41\n    /* \"#utility.yul\":3359:3360   */\n  0x04\n    /* \"#utility.yul\":3352:3367   */\n  mstore\n    /* \"#utility.yul\":3386:3390   */\n  0x24\n    /* \"#utility.yul\":3383:3384   */\n  0x00\n    /* \"#utility.yul\":3376:3391   */\n  revert\n    /* \"#utility.yul\":3403:3583   */\ntag_69:\n    /* \"#utility.yul\":3451:3528   */\n  0x4e487b7100000000000000000000000000000000000000000000000000000000\n    /* \"#utility.yul\":3448:3449   */\n  0x00\n    /* \"#utility.yul\":3441:3529   */\n  mstore\n    /* \"#utility.yul\":3548:3552   */\n  0x22\n    /* \"#utility.yul\":3545:3546   */\n  0x04\n    /* \"#utility.yul\":3538:3553   */\n  mstore\n    /* \"#utility.yul\":3572:3576   */\n  0x24\n    /* \"#utility.yul\":3569:3570   */\n  0x00\n    /* \"#utility.yul\":3562:3577   */\n  revert\n    /* \"#utility.yul\":3589:3909   */\ntag_70:\n    /* \"#utility.yul\":3633:3639   */\n  0x00\n    /* \"#utility.yul\":3670:3671   */\n  0x02\n    /* \"#utility.yul\":3664:3668   */\n  dup3\n    /* \"#utility.yul\":3660:3672   */\n  div\n    /* \"#utility.yul\":3650:3672   */\n  swap1\n  pop\n    /* \"#utility.yul\":3717:3718   */\n  0x01\n    /* \"#utility.yul\":3711:3715   */\n  dup3\n    /* \"#utility.yul\":3707:3719   */\n  and\n    /* \"#utility.yul\":3738:3756   */\n  dup1\n    /* \"#utility.yul\":3728:3809   */\n  tag_145\n  jumpi\n    /* \"#utility.yul\":3794:3798   */\n  0x7f\n    /* \"#utility.yul\":3786:3792   */\n  dup3\n    /* \"#utility.yul\":3782:3799   */\n  and\n    /* \"#utility.yul\":3772:3799   */\n  swap2\n  pop\n    /* \"#utility.yul\":3728:3809   */\ntag_145:\n    /* \"#utility.yul\":3856:3858   */\n  0x20\n    /* \"#utility.yul\":3848:3854   */\n  dup3\n    /* \"#utility.yul\":3845:3859   */\n  lt\n    /* \"#utility.yul\":3825:3843   */\n  dup2\n    /* \"#utility.yul\":3822:3860   */\n  sub\n    /* \"#utility.yul\":3819:3903   */\n  tag_146\n  jumpi\n    /* \"#utility.yul\":3875:3893   */\n  tag_147\n  tag_69\n  jump\t// in\ntag_147:\n    /* \"#utility.yul\":3819:3903   */\ntag_146:\n    /* \"#utility.yul\":3640:3909   */\n  pop\n    /* \"#utility.yul\":3589:3909   */\n  swap2\n  swap1\n  pop\n  jump\t// out\n    /* \"#utility.yul\":3915:4056   */\ntag_71:\n    /* \"#utility.yul\":3964:3968   */\n  0x00\n    /* \"#utility.yul\":3987:3990   */\n  dup2\n    /* \"#utility.yul\":3979:3990   */\n  swap1\n  pop\n    /* \"#utility.yul\":4010:4013   */\n  dup2\n    /* \"#utility.yul\":4007:4008   */\n  0x00\n    /* \"#utility.yul\":4000:4014   */\n  mstore\n    /* \"#utility.yul\":4044:4048   */\n  0x20\n    /* \"#utility.yul\":4041:4042   */\n  0x00\n    /* \"#utility.yul\":4031:4049   */\n  keccak256\n    /* \"#utility.yul\":4023:4049   */\n  swap1\n  pop\n    /* \"#utility.yul\":3915:4056   */\n  swap2\n  swap1\n  pop\n  jump\t// out\n    /* \"#utility.yul\":4062:4155   */\ntag_72:\n    /* \"#utility.yul\":4099:4105   */\n  0x00\n    /* \"#utility.yul\":4146:4148   */\n  0x20\n    /* \"#utility.yul\":4141:4143   */\n  0x1f\n    /* \"#utility.yul\":4134:4139   */\n  dup4\n    /* \"#utility.yul\":4130:4144   */\n  add\n    /* \"#utility.yul\":4126:4149   */\n  div\n    /* \"#utility.yul\":4116:4149   */\n  swap1\n  pop\n    /* \"#utility.yul\":4062:4155   */\n  swap2\n  swap1\n  pop\n  jump\t// out\n    /* \"#utility.yul\":4161:4268   */\ntag_73:\n    /* \"#utility.yul\":4205:4213   */\n  0x00\n    /* \"#utility.yul\":4255:4260   */\n  dup3\n    /* \"#utility.yul\":4249:4253   */\n  dup3\n    /* \"#utility.yul\":4245:4261   */\n  shl\n    /* \"#utility.yul\":4224:4261   */\n  swap1\n  pop\n    /* \"#utility.yul\":4161:4268   */\n  swap3\n  swap2\n  pop\n  pop\n  jump\t// out\n    /* \"#utility.yul\":4274:4667   */\ntag_74:\n    /* \"#utility.yul\":4343:4349   */\n  0x00\n    /* \"#utility.yul\":4393:4394   */\n  0x08\n    /* \"#utility.yul\":4381:4391   */\n  dup4\n    /* \"#utility.yul\":4377:4395   */\n  mul\n    /* \"#utility.yul\":4416:4513   */\n  tag_152\n    /* \"#utility.yul\":4446:4512   */\n  0xffffffffffffffffffffffffffffffffffffffffffffffffffffffffffffffff\n    /* \"#utility.yul\":4435:4444   */\n  dup3\n    /* \"#utility.yul\":4416:4513   */\n  tag_73\n  jump\t// in\ntag_152:\n    /* \"#utility.yul\":4534:4573   */\n  tag_153\n    /* \"#utility.yul\":4564:4572   */\n  dup7\n    /* \"#utility.yul\":4553:4562   */\n  dup4\n    /* \"#utility.yul\":4534:4573   */\n  tag_73\n  jump\t// in\ntag_153:\n    /* \"#utility.yul\":4522:4573   */\n  swap6\n  pop\n    /* \"#utility.yul\":4606:4610   */\n  dup1\n    /* \"#utility.yul\":4602:4611   */\n  not\n    /* \"#utility.yul\":4595:4600   */\n  dup5\n    /* \"#utility.yul\":4591:4612   */\n  and\n    /* \"#utility.yul\":4582:4612   */\n  swap4\n  pop\n    /* \"#utility.yul\":4655:4659   */\n  dup1\n    /* \"#utility.yul\":4645:4653   */\n  dup7\n    /* \"#utility.yul\":4641:4660   */\n  and\n    /* \"#utility.yul\":4634:4639   */\n  dup5\n    /* \"#utility.yul\":4631:4661   */\n  or\n    /* \"#utility.yul\":4621:4661   */\n  swap3\n  pop\n    /* \"#utility.yul\":4350:4667   */\n  pop\n  pop\n    /* \"#utility.yul\":4274:4667   */\n  swap4\n  swap3\n  pop\n  pop\n  pop\n  jump\t// out\n    /* \"#utility.yul\":4673:4733   */\ntag_75:\n    /* \"#utility.yul\":4701:4704   */\n  0x00\n    /* \"#utility.yul\":4722:4727   */\n  dup2\n    /* \"#utility.yul\":4715:4727   */\n  swap1\n  pop\n    /* \"#utility.yul\":4673:4733   */\n  swap2\n  swap1\n  pop\n  jump\t// out\n    /* \"#utility.yul\":4739:4881   */\ntag_76:\n    /* \"#utility.yul\":4789:4798   */\n  0x00\n    /* \"#utility.yul\":4822:4875   */\n  tag_156\n    /* \"#utility.yul\":4840:4874   */\n  tag_157\n    /* \"#utility.yul\":4849:4873   */\n  tag_158\n    /* \"#utility.yul\":4867:4872   */\n  dup5\n    /* \"#utility.yul\":4849:4873   */\n  tag_65\n  jump\t// in\ntag_158:\n    /* \"#utility.yul\":4840:4874   */\n  tag_75\n  jump\t// in\ntag_157:\n    /* \"#utility.yul\":4822:4875   */\n  tag_65\n  jump\t// in\ntag_156:\n    /* \"#utility.yul\":4809:4875   */\n  swap1\n  pop\n    /* \"#utility.yul\":4739:4881   */\n  swap2\n  swap1\n  pop\n  jump\t// out\n    /* \"#utility.yul\":4887:4962   */\ntag_77:\n    /* \"#utility.yul\":4930:4933   */\n  0x00\n    /* \"#utility.yul\":4951:4956   */\n  dup2\n    /* \"#utility.yul\":4944:4956   */\n  swap1\n  pop\n    /* \"#utility.yul\":4887:4962   */\n  swap2\n  swap1\n  pop\n  jump\t// out\n    /* \"#utility.yul\":4968:5237   */\ntag_78:\n    /* \"#utility.yul\":5078:5117   */\n  tag_161\n    /* \"#utility.yul\":5109:5116   */\n  dup4\n    /* \"#utility.yul\":5078:5117   */\n  tag_76\n  jump\t// in\ntag_161:\n    /* \"#utility.yul\":5139:5230   */\n  tag_162\n    /* \"#utility.yul\":5188:5229   */\n  tag_163\n    /* \"#utility.yul\":5212:5228   */\n  dup3\n    /* \"#utility.yul\":5188:5229   */\n  tag_77\n  jump\t// in\ntag_163:\n    /* \"#utility.yul\":5180:5186   */\n  dup5\n    /* \"#utility.yul\":5173:5177   */\n  dup5\n    /* \"#utility.yul\":5167:5178   */\n  sload\n    /* \"#utility.yul\":5139:5230   */\n  tag_74\n  jump\t// in\ntag_162:\n    /* \"#utility.yul\":5133:5137   */\n  dup3\n    /* \"#utility.yul\":5126:5231   */\n  sstore\n    /* \"#utility.yul\":5044:5237   */\n  pop\n    /* \"#utility.yul\":4968:5237   */\n  pop\n  pop\n  pop\n  jump\t// out\n    /* \"#utility.yul\":5243:5316   */\ntag_79:\n    /* \"#utility.yul\":5288:5291   */\n  0x00\n    /* \"#utility.yul\":5243:5316   */\n  swap1\n  jump\t// out\n    /* \"#utility.yul\":5322:5511   */\ntag_80:\n    /* \"#utility.yul\":5399:5431   */\n  tag_166\n  tag_79\n  jump\t// in\ntag_166:\n    /* \"#utility.yul\":5440:5505   */\n  tag_167\n    /* \"#utility.yul\":5498:5504   */\n  dup2\n    /* \"#utility.yul\":5490:5496   */\n  dup5\n    /* \"#utility.yul\":5484:5488   */\n  dup5\n    /* \"#utility.yul\":5440:5505   */\n  tag_78\n  jump\t// in\ntag_167:\n    /* \"#utility.yul\":5375:5511   */\n  pop\n    /* \"#utility.yul\":5322:5511   */\n  pop\n  pop\n  jump\t// out\n    /* \"#utility.yul\":5517:5703   */\ntag_81:\n    /* \"#utility.yul\":5577:5697   */\ntag_169:\n    /* \"#utility.yul\":5594:5597   */\n  dup2\n    /* \"#utility.yul\":5587:5592   */\n  dup2\n    /* \"#utility.yul\":5584:5598   */\n  lt\n    /* \"#utility.yul\":5577:5697   */\n  iszero\n  tag_171\n  jumpi\n    /* \"#utility.yul\":5648:5687   */\n  tag_172\n    /* \"#utility.yul\":5685:5686   */\n  0x00\n    /* \"#utility.yul\":5678:5683   */\n  dup3\n    /* \"#utility.yul\":5648:5687   */\n  tag_80\n  jump\t// in\ntag_172:\n    /* \"#utility.yul\":5621:5622   */\n  0x01\n    /* \"#utility.yul\":5614:5619   */\n  dup2\n    /* \"#utility.yul\":5610:5623   */\n  add\n    /* \"#utility.yul\":5601:5623   */\n  swap1\n  pop\n    /* \"#utility.yul\":5577:5697   */\n  jump(tag_169)\ntag_171:\n    /* \"#utility.yul\":5517:5703   */\n  pop\n  pop\n  jump\t// out\n    /* \"#utility.yul\":5709:6252   */\ntag_82:\n    /* \"#utility.yul\":5810:5812   */\n  0x1f\n    /* \"#utility.yul\":5805:5808   */\n  dup3\n    /* \"#utility.yul\":5802:5813   */\n  gt\n    /* \"#utility.yul\":5799:6245   */\n  iszero\n  tag_174\n  jumpi\n    /* \"#utility.yul\":5844:5882   */\n  tag_175\n    /* \"#utility.yul\":5876:5881   */\n  dup2\n    /* \"#utility.yul\":5844:5882   */\n  tag_71\n  jump\t// in\ntag_175:\n    /* \"#utility.yul\":5928:5957   */\n  tag_176\n    /* \"#utility.yul\":5946:5956   */\n  dup5\n    /* \"#utility.yul\":5928:5957   */\n  tag_72\n  jump\t// in\ntag_176:\n    /* \"#utility.yul\":5918:5926   */\n  dup2\n    /* \"#utility.yul\":5914:5958   */\n  add\n    /* \"#utility.yul\":6111:6113   */\n  0x20\n    /* \"#utility.yul\":6099:6109   */\n  dup6\n    /* \"#utility.yul\":6096:6114   */\n  lt\n    /* \"#utility.yul\":6093:6142   */\n  iszero\n  tag_177\n  jumpi\n    /* \"#utility.yul\":6132:6140   */\n  dup2\n    /* \"#utility.yul\":6117:6140   */\n  swap1\n  pop\n    /* \"#utility.yul\":6093:6142   */\ntag_177:\n    /* \"#utility.yul\":6155:6235   */\n  tag_178\n    /* \"#utility.yul\":6211:6233   */\n  tag_179\n    /* \"#utility.yul\":6229:6232   */\n  dup6\n    /* \"#utility.yul\":6211:6233   */\n  tag_72\n  jump\t// in\ntag_179:\n    /* \"#utility.yul\":6201:6209   */\n  dup4\n    /* \"#utility.yul\":6197:6234   */\n  add\n    /* \"#utility.yul\":6184:6195   */\n  dup3\n    /* \"#utility.yul\":6155:6235   */\n  tag_81\n  jump\t// in\ntag_178:\n    /* \"#utility.yul\":5814:6245   */\n  pop\n  pop\n    /* \"#utility.yul\":5799:6245   */\ntag_174:\n    /* \"#utility.yul\":5709:6252   */\n  pop\n  pop\n  pop\n  jump\t// out\n    /* \"#utility.yul\":6258:6375   */\ntag_83:\n    /* \"#utility.yul\":6312:6320   */\n  0x00\n    /* \"#utility.yul\":6362:6367   */\n  dup3\n    /* \"#utility.yul\":6356:6360   */\n  dup3\n    /* \"#utility.yul\":6352:6368   */\n  shr\n    /* \"#utility.yul\":6331:6368   */\n  swap1\n  pop\n    /* \"#utility.yul\":6258:6375   */\n  swap3\n  swap2\n  pop\n  pop\n  jump\t// out\n    /* \"#utility.yul\":6381:6550   */\ntag_84:\n    /* \"#utility.yul\":6425:6431   */\n  0x00\n    /* \"#utility.yul\":6458:6509   */\n  tag_182\n    /* \"#utility.yul\":6506:6507   */\n  0x00\n    /* \"#utility.yul\":6502:6508   */\n  not\n    /* \"#utility.yul\":6494:6499   */\n  dup5\n    /* \"#utility.yul\":6491:6492   */\n  0x08\n    /* \"#utility.yul\":6487:6500   */\n  mul\n    /* \"#utility.yul\":6458:6509   */\n  tag_83\n  jump\t// in\ntag_182:\n    /* \"#utility.yul\":6454:6510   */\n  not\n    /* \"#utility.yul\":6539:6543   */\n  dup1\n    /* \"#utility.yul\":6533:6537   */\n  dup4\n    /* \"#utility.yul\":6529:6544   */\n  and\n    /* \"#utility.yul\":6519:6544   */\n  swap2\n  pop\n    /* \"#utility.yul\":6432:6550   */\n  pop\n    /* \"#utility.yul\":6381:6550   */\n  swap3\n  swap2\n  pop\n  pop\n  jump\t// out\n    /* \"#utility.yul\":6555:6850   */\ntag_85:\n    /* \"#utility.yul\":6631:6635   */\n  0x00\n    /* \"#utility.yul\":6777:6806   */\n  tag_184\n    /* \"#utility.yul\":6802:6805   */\n  dup4\n    /* \"#utility.yul\":6796:6800   */\n  dup4\n    /* \"#utility.yul\":6777:6806   */\n  tag_84\n  jump\t// in\ntag_184:\n    /* \"#utility.yul\":6769:6806   */\n  swap2\n  pop\n    /* \"#utility.yul\":6839:6842   */\n  dup3\n    /* \"#utility.yul\":6836:6837   */\n  0x02\n    /* \"#utility.yul\":6832:6843   */\n  mul\n    /* \"#utility.yul\":6826:6830   */\n  dup3\n    /* \"#utility.yul\":6823:6844   */\n  or\n    /* \"#utility.yul\":6815:6844   */\n  swap1\n  pop\n    /* \"#utility.yul\":6555:6850   */\n  swap3\n  swap2\n  pop\n  pop\n  jump\t// out\n    /* \"#utility.yul\":6855:8250   */\ntag_13:\n    /* \"#utility.yul\":6972:7009   */\n  tag_186\n    /* \"#utility.yul\":7005:7008   */\n  dup3\n    /* \"#utility.yul\":6972:7009   */\n  tag_67\n  jump\t// in\ntag_186:\n    /* \"#utility.yul\":7074:7092   */\n  0xffffffffffffffff\n    /* \"#utility.yul\":7066:7072   */\n  dup2\n    /* \"#utility.yul\":7063:7093   */\n  gt\n    /* \"#utility.yul\":7060:7116   */\n  iszero\n  tag_187\n  jumpi\n    /* \"#utility.yul\":7096:7114   */\n  tag_188\n  tag_68\n  jump\t// in\ntag_188:\n    /* \"#utility.yul\":7060:7116   */\ntag_187:\n    /* \"#utility.yul\":7140:7178   */\n  tag_189\n    /* \"#utility.yul\":7172:7176   */\n  dup3\n    /* \"#utility.yul\":7166:7177   */\n  sload\n    /* \"#utility.yul\":7140:7178   */\n  tag_70\n  jump\t// in\ntag_189:\n    /* \"#utility.yul\":7225:7292   */\n  tag_190\n    /* \"#utility.yul\":7285:7291   */\n  dup3\n    /* \"#utility.yul\":7277:7283   */\n  dup3\n    /* \"#utility.yul\":7271:7275   */\n  dup6\n    /* \"#utility.yul\":7225:7292   */\n  tag_82\n  jump\t// in\ntag_190:\n    /* \"#utility.yul\":7319:7320   */\n  0x00\n    /* \"#utility.yul\":7343:7347   */\n  0x20\n    /* \"#utility.yul\":7330:7347   */\n  swap1\n  pop\n    /* \"#utility.yul\":7375:7377   */\n  0x1f\n    /* \"#utility.yul\":7367:7373   */\n  dup4\n    /* \"#utility.yul\":7364:7378   */\n  gt\n    /* \"#utility.yul\":7392:7393   */\n  0x01\n    /* \"#utility.yul\":7387:8005   */\n  dup2\n  eq\n  tag_192\n  jumpi\n    /* \"#utility.yul\":8049:8050   */\n  0x00\n    /* \"#utility.yul\":8066:8072   */\n  dup5\n    /* \"#utility.yul\":8063:8140   */\n  iszero\n  tag_193\n  jumpi\n    /* \"#utility.yul\":8115:8124   */\n  dup3\n    /* \"#utility.yul\":8110:8113   */\n  dup8\n    /* \"#utility.yul\":8106:8125   */\n  add\n    /* \"#utility.yul\":8100:8126   */\n  mload\n    /* \"#utility.yul\":8091:8126   */\n  swap1\n  pop\n    /* \"#utility.yul\":8063:8140   */\ntag_193:\n    /* \"#utility.yul\":8166:8233   */\n  tag_194\n    /* \"#utility.yul\":8226:8232   */\n  dup6\n    /* \"#utility.yul\":8219:8224   */\n  dup3\n    /* \"#utility.yul\":8166:8233   */\n  tag_85\n  jump\t// in\ntag_194:\n    /* \"#utility.yul\":8160:8164   */\n  dup7\n    /* \"#utility.yul\":8153:8234   */\n  sstore\n    /* \"#utility.yul\":8022:8244   */\n  pop\n    /* \"#utility.yul\":7357:8244   */\n  jump(tag_191)\n    /* \"#utility.yul\":7387:8005   */\ntag_192:\n    /* \"#utility.yul\":7439:7443   */\n  0x1f\n    /* \"#utility.yul\":7435:7444   */\n  not\n    /* \"#utility.yul\":7427:7433   */\n  dup5\n    /* \"#utility.yul\":7423:7445   */\n  and\n    /* \"#utility.yul\":7473:7510   */\n  tag_195\n    /* \"#utility.yul\":7505:7509   */\n  dup7\n    /* \"#utility.yul\":7473:7510   */\n  tag_71\n  jump\t// in\ntag_195:\n    /* \"#utility.yul\":7532:7533   */\n  0x00\n    /* \"#utility.yul\":7546:7754   */\ntag_196:\n    /* \"#utility.yul\":7560:7567   */\n  dup3\n    /* \"#utility.yul\":7557:7558   */\n  dup2\n    /* \"#utility.yul\":7554:7568   */\n  lt\n    /* \"#utility.yul\":7546:7754   */\n  iszero\n  tag_198\n  jumpi\n    /* \"#utility.yul\":7639:7648   */\n  dup5\n    /* \"#utility.yul\":7634:7637   */\n  dup10\n    /* \"#utility.yul\":7630:7649   */\n  add\n    /* \"#utility.yul\":7624:7650   */\n  mload\n    /* \"#utility.yul\":7616:7622   */\n  dup3\n    /* \"#utility.yul\":7609:7651   */\n  sstore\n    /* \"#utility.yul\":7690:7691   */\n  0x01\n    /* \"#utility.yul\":7682:7688   */\n  dup3\n    /* \"#utility.yul\":7678:7692   */\n  add\n    /* \"#utility.yul\":7668:7692   */\n  swap2\n  pop\n    /* \"#utility.yul\":7737:7739   */\n  0x20\n    /* \"#utility.yul\":7726:7735   */\n  dup6\n    /* \"#utility.yul\":7722:7740   */\n  add\n    /* \"#utility.yul\":7709:7740   */\n  swap5\n  pop\n    /* \"#utility.yul\":7583:7587   */\n  0x20\n    /* \"#utility.yul\":7580:7581   */\n  dup2\n    /* \"#utility.yul\":7576:7588   */\n  add\n    /* \"#utility.yul\":7571:7588   */\n  swap1\n  pop\n    /* \"#utility.yul\":7546:7754   */\n  jump(tag_196)\ntag_198:\n    /* \"#utility.yul\":7782:7788   */\n  dup7\n    /* \"#utility.yul\":7773:7780   */\n  dup4\n    /* \"#utility.yul\":7770:7789   */\n  lt\n    /* \"#utility.yul\":7767:7946   */\n  iszero\n  tag_199\n  jumpi\n    /* \"#utility.yul\":7840:7849   */\n  dup5\n    /* \"#utility.yul\":7835:7838   */\n  dup10\n    /* \"#utility.yul\":7831:7850   */\n  add\n    /* \"#utility.yul\":7825:7851   */\n  mload\n    /* \"#utility.yul\":7883:7931   */\n  tag_200\n    /* \"#utility.yul\":7925:7929   */\n  0x1f\n    /* \"#utility.yul\":7917:7923   */\n  dup10\n    /* \"#utility.yul\":7913:7930   */\n  and\n    /* \"#utility.yul\":7902:7911   */\n  dup3\n    /* \"#utility.yul\":7883:7931   */\n  tag_84\n  jump\t// in\ntag_200:\n    /* \"#utility.yul\":7875:7881   */\n  dup4\n    /* \"#utility.yul\":7868:7932   */\n  sstore\n    /* \"#utility.yul\":7790:7946   */\n  pop\n    /* \"#utility.yul\":7767:7946   */\ntag_199:\n    /* \"#utility.yul\":7992:7993   */\n  0x01\n    /* \"#utility.yul\":7988:7989   */\n  0x02\n    /* \"#utility.yul\":7980:7986   */\n  dup9\n    /* \"#utility.yul\":7976:7990   */\n  mul\n    /* \"#utility.yul\":7972:7994   */\n  add\n    /* \"#utility.yul\":7966:7970   */\n  dup9\n    /* \"#utility.yul\":7959:7995   */\n  sstore\n    /* \"#utility.yul\":7394:8005   */\n  pop\n  pop\n  pop\n    /* \"#utility.yul\":7357:8244   */\ntag_191:\n  pop\n    /* \"#utility.yul\":6947:8250   */\n  pop\n  pop\n  pop\n    /* \"#utility.yul\":6855:8250   */\n  pop\n  pop\n  jump\t// out\n    /* \"#utility.yul\":8337:8454   */\ntag_87:\n    /* \"#utility.yul\":8446:8447   */\n  0x00\n    /* \"#utility.yul\":8443:8444   */\n  dup1\n    /* \"#utility.yul\":8436:8448   */\n  revert\n    /* \"#utility.yul\":8583:8709   */\ntag_89:\n    /* \"#utility.yul\":8620:8627   */\n  0x00\n    /* \"#utility.yul\":8660:8702   */\n  0xffffffffffffffffffffffffffffffffffffffff\n    /* \"#utility.yul\":8653:8658   */\n  dup3\n    /* \"#utility.yul\":8649:8703   */\n  and\n    /* \"#utility.yul\":8638:8703   */\n  swap1\n  pop\n    /* \"#utility.yul\":8583:8709   */\n  swap2\n  swap1\n  pop\n  jump\t// out\n    /* \"#utility.yul\":8715:8811   */\ntag_90:\n    /* \"#utility.yul\":8752:8759   */\n  0x00\n    /* \"#utility.yul\":8781:8805   */\n  tag_206\n    /* \"#utility.yul\":8799:8804   */\n  dup3\n    /* \"#utility.yul\":8781:8805   */\n  tag_89\n  jump\t// in\ntag_206:\n    /* \"#utility.yul\":8770:8805   */\n  swap1\n  pop\n    /* \"#utility.yul\":8715:8811   */\n  swap2\n  swap1\n  pop\n  jump\t// out\n    /* \"#utility.yul\":8817:8939   */\ntag_91:\n    /* \"#utility.yul\":8890:8914   */\n  tag_208\n    /* \"#utility.yul\":8908:8913   */\n  dup2\n    /* \"#utility.yul\":8890:8914   */\n  tag_90\n  jump\t// in\ntag_208:\n    /* \"#utility.yul\":8883:8888   */\n  dup2\n    /* \"#utility.yul\":8880:8915   */\n  eq\n    /* \"#utility.yul\":8870:8933   */\n  tag_209\n  jumpi\n    /* \"#utility.yul\":8929:8930   */\n  0x00\n    /* \"#utility.yul\":8926:8927   */\n  dup1\n    /* \"#utility.yul\":8919:8931   */\n  revert\n    /* \"#utility.yul\":8870:8933   */\ntag_209:\n    /* \"#utility.yul\":8817:8939   */\n  pop\n  jump\t// out\n    /* \"#utility.yul\":8945:9088   */\ntag_92:\n    /* \"#utility.yul\":9002:9007   */\n  0x00\n    /* \"#utility.yul\":9033:9039   */\n  dup2\n    /* \"#utility.yul\":9027:9040   */\n  mload\n    /* \"#utility.yul\":9018:9040   */\n  swap1\n  pop\n    /* \"#utility.yul\":9049:9082   */\n  tag_211\n    /* \"#utility.yul\":9076:9081   */\n  dup2\n    /* \"#utility.yul\":9049:9082   */\n  tag_91\n  jump\t// in\ntag_211:\n    /* \"#utility.yul\":8945:9088   */\n  swap3\n  swap2\n  pop\n  pop\n  jump\t// out\n    /* \"#utility.yul\":9094:9445   */\ntag_29:\n    /* \"#utility.yul\":9164:9170   */\n  0x00\n    /* \"#utility.yul\":9213:9215   */\n  0x20\n    /* \"#utility.yul\":9201:9210   */\n  dup3\n    /* \"#utility.yul\":9192:9199   */\n  dup5\n    /* \"#utility.yul\":9188:9211   */\n  sub\n    /* \"#utility.yul\":9184:9216   */\n  slt\n    /* \"#utility.yul\":9181:9300   */\n  iszero\n  tag_213\n  jumpi\n    /* \"#utility.yul\":9219:9298   */\n  tag_214\n  tag_87\n  jump\t// in\ntag_214:\n    /* \"#utility.yul\":9181:9300   */\ntag_213:\n    /* \"#utility.yul\":9339:9340   */\n  0x00\n    /* \"#utility.yul\":9364:9428   */\n  tag_215\n    /* \"#utility.yul\":9420:9427   */\n  dup5\n    /* \"#utility.yul\":9411:9417   */\n  dup3\n    /* \"#utility.yul\":9400:9409   */\n  dup6\n    /* \"#utility.yul\":9396:9418   */\n  add\n    /* \"#utility.yul\":9364:9428   */\n  tag_92\n  jump\t// in\ntag_215:\n    /* \"#utility.yul\":9354:9428   */\n  swap2\n  pop\n    /* \"#utility.yul\":9310:9438   */\n  pop\n    /* \"#utility.yul\":9094:9445   */\n  swap3\n  swap2\n  pop\n  pop\n  jump\t// out\n    /* \"#utility.yul\":9451:9569   */\ntag_93:\n    /* \"#utility.yul\":9538:9562   */\n  tag_217\n    /* \"#utility.yul\":9556:9561   */\n  dup2\n    /* \"#utility.yul\":9538:9562   */\n  tag_90\n  jump\t// in\ntag_217:\n    /* \"#utility.yul\":9533:9536   */\n  dup3\n    /* \"#utility.yul\":9526:9563   */\n  mstore\n    /* \"#utility.yul\":9451:9569   */\n  pop\n  pop\n  jump\t// out\n    /* \"#utility.yul\":9575:9907   */\ntag_34:\n    /* \"#utility.yul\":9696:9700   */\n  0x00\n    /* \"#utility.yul\":9734:9736   */\n  0x40\n    /* \"#utility.yul\":9723:9732   */\n  dup3\n    /* \"#utility.yul\":9719:9737   */\n  add\n    /* \"#utility.yul\":9711:9737   */\n  swap1\n  pop\n    /* \"#utility.yul\":9747:9818   */\n  tag_219\n    /* \"#utility.yul\":9815:9816   */\n  0x00\n    /* \"#utility.yul\":9804:9813   */\n  dup4\n    /* \"#utility.yul\":9800:9817   */\n  add\n    /* \"#utility.yul\":9791:9797   */\n  dup6\n    /* \"#utility.yul\":9747:9818   */\n  tag_93\n  jump\t// in\ntag_219:\n    /* \"#utility.yul\":9828:9900   */\n  tag_220\n    /* \"#utility.yul\":9896:9898   */\n  0x20\n    /* \"#utility.yul\":9885:9894   */\n  dup4\n    /* \"#utility.yul\":9881:9899   */\n  add\n    /* \"#utility.yul\":9872:9878   */\n  dup5\n    /* \"#utility.yul\":9828:9900   */\n  tag_93\n  jump\t// in\ntag_220:\n    /* \"#utility.yul\":9575:9907   */\n  swap4\n  swap3\n  pop\n  pop\n  pop\n  jump\t// out\n    /* \"#utility.yul\":9913:10082   */\ntag_94:\n    /* \"#utility.yul\":9997:10008   */\n  0x00\n    /* \"#utility.yul\":10031:10037   */\n  dup3\n    /* \"#utility.yul\":10026:10029   */\n  dup3\n    /* \"#utility.yul\":10019:10038   */\n  mstore\n    /* \"#utility.yul\":10071:10075   */\n  0x20\n    /* \"#utility.yul\":10066:10069   */\n  dup3\n    /* \"#utility.yul\":10062:10076   */\n  add\n    /* \"#utility.yul\":10047:10076   */\n  swap1\n  pop\n    /* \"#utility.yul\":9913:10082   */\n  swap3\n  swap2\n  pop\n  pop\n  jump\t// out\n    /* \"#utility.yul\":10088:10269   */\ntag_95:\n    /* \"#utility.yul\":10228:10261   */\n  0x45524332303a206d696e7420746f20746865207a65726f206164647265737300\n    /* \"#utility.yul\":10224:10225   */\n  0x00\n    /* \"#utility.yul\":10216:10222   */\n  dup3\n    /* \"#utility.yul\":10212:10226   */\n  add\n    /* \"#utility.yul\":10205:10262   */\n  mstore\n    /* \"#utility.yul\":10088:10269   */\n  pop\n  jump\t// out\n    /* \"#utility.yul\":10275:10641   */\ntag_96:\n    /* \"#utility.yul\":10417:10420   */\n  0x00\n    /* \"#utility.yul\":10438:10505   */\n  tag_224\n    /* \"#utility.yul\":10502:10504   */\n  0x1f\n    /* \"#utility.yul\":10497:10500   */\n  dup4\n    /* \"#utility.yul\":10438:10505   */\n  tag_94\n  jump\t// in\ntag_224:\n    /* \"#utility.yul\":10431:10505   */\n  swap2\n  pop\n    /* \"#utility.yul\":10514:10607   */\n  tag_225\n    /* \"#utility.yul\":10603:10606   */\n  dup3\n    /* \"#utility.yul\":10514:10607   */\n  tag_95\n  jump\t// in\ntag_225:\n    /* \"#utility.yul\":10632:10634   */\n  0x20\n    /* \"#utility.yul\":10627:10630   */\n  dup3\n    /* \"#utility.yul\":10623:10635   */\n  add\n    /* \"#utility.yul\":10616:10635   */\n  swap1\n  pop\n    /* \"#utility.yul\":10275:10641   */\n  swap2\n  swap1\n  pop\n  jump\t// out\n    /* \"#utility.yul\":10647:11066   */\ntag_48:\n    /* \"#utility.yul\":10813:10817   */\n  0x00\n    /* \"#utility.yul\":10851:10853   */\n  0x20\n    /* \"#utility.yul\":10840:10849   */\n  dup3\n    /* \"#utility.yul\":10836:10854   */\n  add\n    /* \"#utility.yul\":10828:10854   */\n  swap1\n  pop\n    /* \"#utility.yul\":10900:10909   */\n  dup2\n    /* \"#utility.yul\":10894:10898   */\n  dup2\n    /* \"#utility.yul\":10890:10910   */\n  sub\n    /* \"#utility.yul\":10886:10887   */\n  0x00\n    /* \"#utility.yul\":10875:10884   */\n  dup4\n    /* \"#utility.yul\":10871:10888   */\n  add\n    /* \"#utility.yul\":10864:10911   */\n  mstore\n    /* \"#utility.yul\":10928:11059   */\n  tag_227\n    /* \"#utility.yul\":11054:11058   */\n  dup2\n    /* \"#utility.yul\":10928:11059   */\n  tag_96\n  jump\t// in\ntag_227:\n    /* \"#utility.yul\":10920:11059   */\n  swap1\n  pop\n    /* \"#utility.yul\":10647:11066   */\n  swap2\n  swap1\n  pop\n  jump\t// out\n    /* \"#utility.yul\":11072:11263   */\ntag_50:\n    /* \"#utility.yul\":11112:11115   */\n  0x00\n    /* \"#utility.yul\":11131:11151   */\n  tag_229\n    /* \"#utility.yul\":11149:11150   */\n  dup3\n    /* \"#utility.yul\":11131:11151   */\n  tag_65\n  jump\t// in\ntag_229:\n    /* \"#utility.yul\":11126:11151   */\n  swap2\n  pop\n    /* \"#utility.yul\":11165:11185   */\n  tag_230\n    /* \"#utility.yul\":11183:11184   */\n  dup4\n    /* \"#utility.yul\":11165:11185   */\n  tag_65\n  jump\t// in\ntag_230:\n    /* \"#utility.yul\":11160:11185   */\n  swap3\n  pop\n    /* \"#utility.yul\":11208:11209   */\n  dup3\n    /* \"#utility.yul\":11205:11206   */\n  dup3\n    /* \"#utility.yul\":11201:11210   */\n  add\n    /* \"#utility.yul\":11194:11210   */\n  swap1\n  pop\n    /* \"#utility.yul\":11229:11232   */\n  dup1\n    /* \"#utility.yul\":11226:11227   */\n  dup3\n    /* \"#utility.yul\":11223:11233   */\n  gt\n    /* \"#utility.yul\":11220:11256   */\n  iszero\n  tag_231\n  jumpi\n    /* \"#utility.yul\":11236:11254   */\n  tag_232\n  tag_61\n  jump\t// in\ntag_232:\n    /* \"#utility.yul\":11220:11256   */\ntag_231:\n    /* \"#utility.yul\":11072:11263   */\n  swap3\n  swap2\n  pop\n  pop\n  jump\t// out\n    /* \"#utility.yul\":11269:11387   */\ntag_97:\n    /* \"#utility.yul\":11356:11380   */\n  tag_234\n    /* \"#utility.yul\":11374:11379   */\n  dup2\n    /* \"#utility.yul\":11356:11380   */\n  tag_65\n  jump\t// in\ntag_234:\n    /* \"#utility.yul\":11351:11354   */\n  dup3\n    /* \"#utility.yul\":11344:11381   */\n  mstore\n    /* \"#utility.yul\":11269:11387   */\n  pop\n  pop\n  jump\t// out\n    /* \"#utility.yul\":11393:11615   */\ntag_52:\n    /* \"#utility.yul\":11486:11490   */\n  0x00\n    /* \"#utility.yul\":11524:11526   */\n  0x20\n    /* \"#utility.yul\":11513:11522   */\n  dup3\n    /* \"#utility.yul\":11509:11527   */\n  add\n    /* \"#utility.yul\":11501:11527   */\n  swap1\n  pop\n    /* \"#utility.yul\":11537:11608   */\n  tag_236\n    /* \"#utility.yul\":11605:11606   */\n  0x00\n    /* \"#utility.yul\":11594:11603   */\n  dup4\n    /* \"#utility.yul\":11590:11607   */\n  add\n    /* \"#utility.yul\":11581:11587   */\n  dup5\n    /* \"#utility.yul\":11537:11608   */\n  tag_97\n  jump\t// in\ntag_236:\n    /* \"#utility.yul\":11393:11615   */\n  swap3\n  swap2\n  pop\n  pop\n  jump\t// out\n    /* \"#utility.yul\":11621:11844   */\ntag_98:\n    /* \"#utility.yul\":11761:11795   */\n  0x45524332303a20617070726f76652066726f6d20746865207a65726f20616464\n    /* \"#utility.yul\":11757:11758   */\n  0x00\n    /* \"#utility.yul\":11749:11755   */\n  dup3\n    /* \"#utility.yul\":11745:11759   */\n  add\n    /* \"#utility.yul\":11738:11796   */\n  mstore\n    /* \"#utility.yul\":11830:11836   */\n  0x7265737300000000000000000000000000000000000000000000000000000000\n    /* \"#utility.yul\":11825:11827   */\n  0x20\n    /* \"#utility.yul\":11817:11823   */\n  dup3\n    /* \"#utility.yul\":11813:11828   */\n  add\n    /* \"#utility.yul\":11806:11837   */\n  mstore\n    /* \"#utility.yul\":11621:11844   */\n  pop\n  jump\t// out\n    /* \"#utility.yul\":11850:12216   */\ntag_99:\n    /* \"#utility.yul\":11992:11995   */\n  0x00\n    /* \"#utility.yul\":12013:12080   */\n  tag_239\n    /* \"#utility.yul\":12077:12079   */\n  0x24\n    /* \"#utility.yul\":12072:12075   */\n  dup4\n    /* \"#utility.yul\":12013:12080   */\n  tag_94\n  jump\t// in\ntag_239:\n    /* \"#utility.yul\":12006:12080   */\n  swap2\n  pop\n    /* \"#utility.yul\":12089:12182   */\n  tag_240\n    /* \"#utility.yul\":12178:12181   */\n  dup3\n    /* \"#utility.yul\":12089:12182   */\n  tag_98\n  jump\t// in\ntag_240:\n    /* \"#utility.yul\":12207:12209   */\n  0x40\n    /* \"#utility.yul\":12202:12205   */\n  dup3\n    /* \"#utility.yul\":12198:12210   */\n  add\n    /* \"#utility.yul\":12191:12210   */\n  swap1\n  pop\n    /* \"#utility.yul\":11850:12216   */\n  swap2\n  swap1\n  pop\n  jump\t// out\n    /* \"#utility.yul\":12222:12641   */\ntag_56:\n    /* \"#utility.yul\":12388:12392   */\n  0x00\n    /* \"#utility.yul\":12426:12428   */\n  0x20\n    /* \"#utility.yul\":12415:12424   */\n  dup3\n    /* \"#utility.yul\":12411:12429   */\n  add\n    /* \"#utility.yul\":12403:12429   */\n  swap1\n  pop\n    /* \"#utility.yul\":12475:12484   */\n  dup2\n    /* \"#utility.yul\":12469:12473   */\n  dup2\n    /* \"#utility.yul\":12465:12485   */\n  sub\n    /* \"#utility.yul\":12461:12462   */\n  0x00\n    /* \"#utility.yul\":12450:12459   */\n  dup4\n    /* \"#utility.yul\":12446:12463   */\n  add\n    /* \"#utility.yul\":12439:12486   */\n  mstore\n    /* \"#utility.yul\":12503:12634   */\n  tag_242\n    /* \"#utility.yul\":12629:12633   */\n  dup2\n    /* \"#utility.yul\":12503:12634   */\n  tag_99\n  jump\t// in\ntag_242:\n    /* \"#utility.yul\":12495:12634   */\n  swap1\n  pop\n    /* \"#utility.yul\":12222:12641   */\n  swap2\n  swap1\n  pop\n  jump\t// out\n    /* \"#utility.yul\":12647:12868   */\ntag_100:\n    /* \"#utility.yul\":12787:12821   */\n  0x45524332303a20617070726f766520746f20746865207a65726f206164647265\n    /* \"#utility.yul\":12783:12784   */\n  0x00\n    /* \"#utility.yul\":12775:12781   */\n  dup3\n    /* \"#utility.yul\":12771:12785   */\n  add\n    /* \"#utility.yul\":12764:12822   */\n  mstore\n    /* \"#utility.yul\":12856:12860   */\n  0x7373000000000000000000000000000000000000000000000000000000000000\n    /* \"#utility.yul\":12851:12853   */\n  0x20\n    /* \"#utility.yul\":12843:12849   */\n  dup3\n    /* \"#utility.yul\":12839:12854   */\n  add\n    /* \"#utility.yul\":12832:12861   */\n  mstore\n    /* \"#utility.yul\":12647:12868   */\n  pop\n  jump\t// out\n    /* \"#utility.yul\":12874:13240   */\ntag_101:\n    /* \"#utility.yul\":13016:13019   */\n  0x00\n    /* \"#utility.yul\":13037:13104   */\n  tag_245\n    /* \"#utility.yul\":13101:13103   */\n  0x22\n    /* \"#utility.yul\":13096:13099   */\n  dup4\n    /* \"#utility.yul\":13037:13104   */\n  tag_94\n  jump\t// in\ntag_245:\n    /* \"#utility.yul\":13030:13104   */\n  swap2\n  pop\n    /* \"#utility.yul\":13113:13206   */\n  tag_246\n    /* \"#utility.yul\":13202:13205   */\n  dup3\n    /* \"#utility.yul\":13113:13206   */\n  tag_100\n  jump\t// in\ntag_246:\n    /* \"#utility.yul\":13231:13233   */\n  0x40\n    /* \"#utility.yul\":13226:13229   */\n  dup3\n    /* \"#utility.yul\":13222:13234   */\n  add\n    /* \"#utility.yul\":13215:13234   */\n  swap1\n  pop\n    /* \"#utility.yul\":12874:13240   */\n  swap2\n  swap1\n  pop\n  jump\t// out\n    /* \"#utility.yul\":13246:13665   */\ntag_59:\n    /* \"#utility.yul\":13412:13416   */\n  0x00\n    /* \"#utility.yul\":13450:13452   */\n  0x20\n    /* \"#utility.yul\":13439:13448   */\n  dup3\n    /* \"#utility.yul\":13435:13453   */\n  add\n    /* \"#utility.yul\":13427:13453   */\n  swap1\n  pop\n    /* \"#utility.yul\":13499:13508   */\n  dup2\n    /* \"#utility.yul\":13493:13497   */\n  dup2\n    /* \"#utility.yul\":13489:13509   */\n  sub\n    /* \"#utility.yul\":13485:13486   */\n  0x00\n    /* \"#utility.yul\":13474:13483   */\n  dup4\n    /* \"#utility.yul\":13470:13487   */\n  add\n    /* \"#utility.yul\":13463:13510   */\n  mstore\n    /* \"#utility.yul\":13527:13658   */\n  tag_248\n    /* \"#utility.yul\":13653:13657   */\n  dup2\n    /* \"#utility.yul\":13527:13658   */\n  tag_101\n  jump\t// in\ntag_248:\n    /* \"#utility.yul\":13519:13658   */\n  swap1\n  pop\n    /* \"#utility.yul\":13246:13665   */\n  swap2\n  swap1\n  pop\n  jump\t// out\n    /* \"contracts/testToken.sol\":15402:20239  contract TestToken is ERC20, Ownable {... */\ntag_41:\n  dataSize(sub_0)\n  dup1\n  dataOffset(sub_0)\n  0x00\n  codecopy\n  0x00\n  return\nstop\n\nsub_0: assembly {\n        /* \"contracts/testToken.sol\":15402:20239  contract TestToken is ERC20, Ownable {... */\n      mstore(0x40, 0x80)\n      callvalue\n      dup1\n      iszero\n      tag_1\n      jumpi\n      0x00\n      dup1\n      revert\n    tag_1:\n      pop\n      jumpi(tag_2, lt(calldatasize, 0x04))\n      shr(0xe0, calldataload(0x00))\n      dup1\n      0x5d098b38\n      gt\n      tag_35\n      jumpi\n      dup1\n      0xa457c2d7\n      gt\n      tag_36\n      jumpi\n      dup1\n      0xbba8c23f\n      gt\n      tag_37\n      jumpi\n      dup1\n      0xbba8c23f\n      eq\n      tag_31\n      jumpi\n      dup1\n      0xc31c9c07\n      eq\n      tag_32\n      jumpi\n      dup1\n      0xdd62ed3e\n      eq\n      tag_33\n      jumpi\n      dup1\n      0xf2fde38b\n      eq\n      tag_34\n      jumpi\n      jump(tag_2)\n    tag_37:\n      dup1\n      0xa457c2d7\n      eq\n      tag_27\n      jumpi\n      dup1\n      0xa4f4a765\n      eq\n      tag_28\n      jumpi\n      dup1\n      0xa9059cbb\n      eq\n      tag_29\n      jumpi\n      dup1\n      0xb41150c5\n      eq\n      tag_30\n      jumpi\n      jump(tag_2)\n    tag_36:\n      dup1\n      0x8da5cb5b\n      gt\n      tag_38\n      jumpi\n      dup1\n      0x8da5cb5b\n      eq\n      tag_23\n      jumpi\n      dup1\n      0x95d89b41\n      eq\n      tag_24\n      jumpi\n      dup1\n      0x962dfc75\n      eq\n      tag_25\n      jumpi\n      dup1\n      0xa21028db\n      eq\n      tag_26\n      jumpi\n      jump(tag_2)\n    tag_38:\n      dup1\n      0x5d098b38\n      eq\n      tag_19\n      jumpi\n      dup1\n      0x70a08231\n      eq\n      tag_20\n      jumpi\n      dup1\n      0x715018a6\n      eq\n      tag_21\n      jumpi\n      dup1\n      0x88529bad\n      eq\n      tag_22\n      jumpi\n      jump(tag_2)\n    tag_35:\n      dup1\n      0x26991cc8\n      gt\n      tag_39\n      jumpi\n      dup1\n      0x487c70fc\n      gt\n      tag_40\n      jumpi\n      dup1\n      0x487c70fc\n      eq\n      tag_15\n      jumpi\n      dup1\n      0x4e8bfcfc\n      eq\n      tag_16\n      jumpi\n      dup1\n      0x51492be7\n      eq\n      tag_17\n      jumpi\n      dup1\n      0x5958621e\n      eq\n      tag_18\n      jumpi\n      jump(tag_2)\n    tag_40:\n      dup1\n      0x26991cc8\n      eq\n      tag_11\n      jumpi\n      dup1\n      0x313ce567\n      eq\n      tag_12\n      jumpi\n      dup1\n      0x39509351\n      eq\n      tag_13\n      jumpi\n      dup1\n      0x4753fa35\n      eq\n      tag_14\n      jumpi\n      jump(tag_2)\n    tag_39:\n      dup1\n      0x0e7e573f\n      gt\n      tag_41\n      jumpi\n      dup1\n      0x0e7e573f\n      eq\n      tag_7\n      jumpi\n      dup1\n      0x18160ddd\n      eq\n      tag_8\n      jumpi\n      dup1\n      0x1bd313c8\n      eq\n      tag_9\n      jumpi\n      dup1\n      0x23b872dd\n      eq\n      tag_10\n      jumpi\n      jump(tag_2)\n    tag_41:\n      dup1\n      0x01aaed92\n      eq\n      tag_3\n      jumpi\n      dup1\n      0x06fdde03\n      eq\n      tag_4\n      jumpi\n      dup1\n      0x095ea7b3\n      eq\n      tag_5\n      jumpi\n      dup1\n      0x09f30a03\n      eq\n      tag_6\n      jumpi\n    tag_2:\n      0x00\n      dup1\n      revert\n        /* \"contracts/testToken.sol\":19610:19907  function editBuyFees(... */\n    tag_3:\n      tag_42\n      0x04\n      dup1\n      calldatasize\n      sub\n      dup2\n      add\n      swap1\n      tag_43\n      swap2\n      swap1\n      tag_44\n      jump\t// in\n    tag_43:\n      tag_45\n      jump\t// in\n    tag_42:\n      stop\n        /* \"contracts/testToken.sol\":6702:6802  function name() external view virtual override returns (string memory) {... */\n    tag_4:\n      tag_46\n      tag_47\n      jump\t// in\n    tag_46:\n      mload(0x40)\n      tag_48\n      swap2\n      swap1\n      tag_49\n      jump\t// in\n    tag_48:\n      mload(0x40)\n      dup1\n      swap2\n      sub\n      swap1\n      return\n        /* \"contracts/testToken.sol\":8828:9049  function approve(... */\n    tag_5:\n      tag_50\n      0x04\n      dup1\n      calldatasize\n      sub\n      dup2\n      add\n      swap1\n      tag_51\n      swap2\n      swap1\n      tag_52\n      jump\t// in\n    tag_51:\n      tag_53\n      jump\t// in\n    tag_50:\n      mload(0x40)\n      tag_54\n      swap2\n      swap1\n      tag_55\n      jump\t// in\n    tag_54:\n      mload(0x40)\n      dup1\n      swap2\n      sub\n      swap1\n      return\n        /* \"contracts/testToken.sol\":15834:15868  uint256 public _feeSellReward = 10 */\n    tag_6:\n      tag_56\n      tag_57\n      jump\t// in\n    tag_56:\n      mload(0x40)\n      tag_58\n      swap2\n      swap1\n      tag_59\n      jump\t// in\n    tag_58:\n      mload(0x40)\n      dup1\n      swap2\n      sub\n      swap1\n      return\n        /* \"contracts/testToken.sol\":19488:19604  function setMinTokens(uint256 newValue) external onlyOwner {... */\n    tag_7:\n      tag_60\n      0x04\n      dup1\n      calldatasize\n      sub\n      dup2\n      add\n      swap1\n      tag_61\n      swap2\n      swap1\n      tag_62\n      jump\t// in\n    tag_61:\n      tag_63\n      jump\t// in\n    tag_60:\n      stop\n        /* \"contracts/testToken.sol\":7774:7882  function totalSupply() external view virtual override returns (uint256) {... */\n    tag_8:\n      tag_64\n      tag_65\n      jump\t// in\n    tag_64:\n      mload(0x40)\n      tag_66\n      swap2\n      swap1\n      tag_59\n      jump\t// in\n    tag_66:\n      mload(0x40)\n      dup1\n      swap2\n      sub\n      swap1\n      return\n        /* \"contracts/testToken.sol\":15759:15787  uint256 public _feeBuyLP = 4 */\n    tag_9:\n      tag_67\n      tag_68\n      jump\t// in\n    tag_67:\n      mload(0x40)\n      tag_69\n      swap2\n      swap1\n      tag_59\n      jump\t// in\n    tag_69:\n      mload(0x40)\n      dup1\n      swap2\n      sub\n      swap1\n      return\n        /* \"contracts/testToken.sol\":9611:9899  function transferFrom(... */\n    tag_10:\n      tag_70\n      0x04\n      dup1\n      calldatasize\n      sub\n      dup2\n      add\n      swap1\n      tag_71\n      swap2\n      swap1\n      tag_72\n      jump\t// in\n    tag_71:\n      tag_73\n      jump\t// in\n    tag_70:\n      mload(0x40)\n      tag_74\n      swap2\n      swap1\n      tag_55\n      jump\t// in\n    tag_74:\n      mload(0x40)\n      dup1\n      swap2\n      sub\n      swap1\n      return\n        /* \"contracts/testToken.sol\":16207:16230  address public swapPair */\n    tag_11:\n      tag_75\n      tag_76\n      jump\t// in\n    tag_75:\n      mload(0x40)\n      tag_77\n      swap2\n      swap1\n      tag_78\n      jump\t// in\n    tag_77:\n      mload(0x40)\n      dup1\n      swap2\n      sub\n      swap1\n      return\n        /* \"contracts/testToken.sol\":7623:7714  function decimals() public view virtual override returns (uint8) {... */\n    tag_12:\n      tag_79\n      tag_80\n      jump\t// in\n    tag_79:\n      mload(0x40)\n      tag_81\n      swap2\n      swap1\n      tag_82\n      jump\t// in\n    tag_81:\n      mload(0x40)\n      dup1\n      swap2\n      sub\n      swap1\n      return\n        /* \"contracts/testToken.sol\":11266:11524  function increaseAllowance(... */\n    tag_13:\n      tag_83\n      0x04\n      dup1\n      calldatasize\n      sub\n      dup2\n      add\n      swap1\n      tag_84\n      swap2\n      swap1\n      tag_52\n      jump\t// in\n    tag_84:\n      tag_85\n      jump\t// in\n    tag_83:\n      mload(0x40)\n      tag_86\n      swap2\n      swap1\n      tag_55\n      jump\t// in\n    tag_86:\n      mload(0x40)\n      dup1\n      swap2\n      sub\n      swap1\n      return\n        /* \"contracts/testToken.sol\":15687:15719  uint256 public _feeBuyReward = 6 */\n    tag_14:\n      tag_87\n      tag_88\n      jump\t// in\n    tag_87:\n      mload(0x40)\n      tag_89\n      swap2\n      swap1\n      tag_59\n      jump\t// in\n    tag_89:\n      mload(0x40)\n      dup1\n      swap2\n      sub\n      swap1\n      return\n        /* \"contracts/testToken.sol\":15966:16016  uint256 public _maxTokens = 100 * 10 ** decimals() */\n    tag_15:\n      tag_90\n      tag_91\n      jump\t// in\n    tag_90:\n      mload(0x40)\n      tag_92\n      swap2\n      swap1\n      tag_59\n      jump\t// in\n    tag_92:\n      mload(0x40)\n      dup1\n      swap2\n      sub\n      swap1\n      return\n        /* \"contracts/testToken.sol\":15909:15938  uint256 public _feeSellLP = 2 */\n    tag_16:\n      tag_93\n      tag_94\n      jump\t// in\n    tag_93:\n      mload(0x40)\n      tag_95\n      swap2\n      swap1\n      tag_59\n      jump\t// in\n    tag_95:\n      mload(0x40)\n      dup1\n      swap2\n      sub\n      swap1\n      return\n        /* \"contracts/testToken.sol\":15725:15753  uint256 public _feeBuyMK = 0 */\n    tag_17:\n      tag_96\n      tag_97\n      jump\t// in\n    tag_96:\n      mload(0x40)\n      tag_98\n      swap2\n      swap1\n      tag_59\n      jump\t// in\n    tag_98:\n      mload(0x40)\n      dup1\n      swap2\n      sub\n      swap1\n      return\n        /* \"contracts/testToken.sol\":19260:19365  function setRewardWallet(address newWallet) external onlyOwner {... */\n    tag_18:\n      tag_99\n      0x04\n      dup1\n      calldatasize\n      sub\n      dup2\n      add\n      swap1\n      tag_100\n      swap2\n      swap1\n      tag_101\n      jump\t// in\n    tag_100:\n      tag_102\n      jump\t// in\n    tag_99:\n      stop\n        /* \"contracts/testToken.sol\":19371:19482  function setMarketingWallet(address newWallet) external onlyOwner {... */\n    tag_19:\n      tag_103\n      0x04\n      dup1\n      calldatasize\n      sub\n      dup2\n      add\n      swap1\n      tag_104\n      swap2\n      swap1\n      tag_101\n      jump\t// in\n    tag_104:\n      tag_105\n      jump\t// in\n    tag_103:\n      stop\n        /* \"contracts/testToken.sol\":6860:6999  function balanceOf(... */\n    tag_20:\n      tag_106\n      0x04\n      dup1\n      calldatasize\n      sub\n      dup2\n      add\n      swap1\n      tag_107\n      swap2\n      swap1\n      tag_101\n      jump\t// in\n    tag_107:\n      tag_108\n      jump\t// in\n    tag_106:\n      mload(0x40)\n      tag_109\n      swap2\n      swap1\n      tag_59\n      jump\t// in\n    tag_109:\n      mload(0x40)\n      dup1\n      swap2\n      sub\n      swap1\n      return\n        /* \"contracts/testToken.sol\":5209:5310  function renounceOwnership() public virtual onlyOwner {... */\n    tag_21:\n      tag_110\n      tag_111\n      jump\t// in\n    tag_110:\n      stop\n        /* \"contracts/testToken.sol\":15794:15827  uint256 public _feeSellTotal = 14 */\n    tag_22:\n      tag_112\n      tag_113\n      jump\t// in\n    tag_112:\n      mload(0x40)\n      tag_114\n      swap2\n      swap1\n      tag_59\n      jump\t// in\n    tag_114:\n      mload(0x40)\n      dup1\n      swap2\n      sub\n      swap1\n      return\n        /* \"contracts/testToken.sol\":4579:4664  function owner() public view virtual returns (address) {... */\n    tag_23:\n      tag_115\n      tag_116\n      jump\t// in\n    tag_115:\n      mload(0x40)\n      tag_117\n      swap2\n      swap1\n      tag_78\n      jump\t// in\n    tag_117:\n      mload(0x40)\n      dup1\n      swap2\n      sub\n      swap1\n      return\n        /* \"contracts/testToken.sol\":6533:6637  function symbol() external view virtual override returns (string memory) {... */\n    tag_24:\n      tag_118\n      tag_119\n      jump\t// in\n    tag_118:\n      mload(0x40)\n      tag_120\n      swap2\n      swap1\n      tag_49\n      jump\t// in\n    tag_120:\n      mload(0x40)\n      dup1\n      swap2\n      sub\n      swap1\n      return\n        /* \"contracts/testToken.sol\":15546:15622  address public _marketingWallet = 0xb93131eE7BE304c183790d3F6EdCDd978024F93f */\n    tag_25:\n      tag_121\n      tag_122\n      jump\t// in\n    tag_121:\n      mload(0x40)\n      tag_123\n      swap2\n      swap1\n      tag_78\n      jump\t// in\n    tag_123:\n      mload(0x40)\n      dup1\n      swap2\n      sub\n      swap1\n      return\n        /* \"contracts/testToken.sol\":15648:15680  uint256 public _feeBuyTotal = 10 */\n    tag_26:\n      tag_124\n      tag_125\n      jump\t// in\n    tag_124:\n      mload(0x40)\n      tag_126\n      swap2\n      swap1\n      tag_59\n      jump\t// in\n    tag_126:\n      mload(0x40)\n      dup1\n      swap2\n      sub\n      swap1\n      return\n        /* \"contracts/testToken.sol\":10386:10871  function decreaseAllowance(... */\n    tag_27:\n      tag_127\n      0x04\n      dup1\n      calldatasize\n      sub\n      dup2\n      add\n      swap1\n      tag_128\n      swap2\n      swap1\n      tag_52\n      jump\t// in\n    tag_128:\n      tag_129\n      jump\t// in\n    tag_127:\n      mload(0x40)\n      tag_130\n      swap2\n      swap1\n      tag_55\n      jump\t// in\n    tag_130:\n      mload(0x40)\n      dup1\n      swap2\n      sub\n      swap1\n      return\n        /* \"contracts/testToken.sol\":15467:15540  address public _rewardWallet = 0xBF3C56f4D317A11e5796df613E52081A34462410 */\n    tag_28:\n      tag_131\n      tag_132\n      jump\t// in\n    tag_131:\n      mload(0x40)\n      tag_133\n      swap2\n      swap1\n      tag_78\n      jump\t// in\n    tag_133:\n      mload(0x40)\n      dup1\n      swap2\n      sub\n      swap1\n      return\n        /* \"contracts/testToken.sol\":8307:8520  function transfer(... */\n    tag_29:\n      tag_134\n      0x04\n      dup1\n      calldatasize\n      sub\n      dup2\n      add\n      swap1\n      tag_135\n      swap2\n      swap1\n      tag_52\n      jump\t// in\n    tag_135:\n      tag_136\n      jump\t// in\n    tag_134:\n      mload(0x40)\n      tag_137\n      swap2\n      swap1\n      tag_55\n      jump\t// in\n    tag_137:\n      mload(0x40)\n      dup1\n      swap2\n      sub\n      swap1\n      return\n        /* \"contracts/testToken.sol\":19913:20237  function editSellFees(... */\n    tag_30:\n      tag_138\n      0x04\n      dup1\n      calldatasize\n      sub\n      dup2\n      add\n      swap1\n      tag_139\n      swap2\n      swap1\n      tag_44\n      jump\t// in\n    tag_139:\n      tag_140\n      jump\t// in\n    tag_138:\n      stop\n        /* \"contracts/testToken.sol\":15874:15903  uint256 public _feeSellMK = 2 */\n    tag_31:\n      tag_141\n      tag_142\n      jump\t// in\n    tag_141:\n      mload(0x40)\n      tag_143\n      swap2\n      swap1\n      tag_59\n      jump\t// in\n    tag_143:\n      mload(0x40)\n      dup1\n      swap2\n      sub\n      swap1\n      return\n        /* \"contracts/testToken.sol\":16165:16201  IUniswapV2Router public   swapRouter */\n    tag_32:\n      tag_144\n      tag_145\n      jump\t// in\n    tag_144:\n      mload(0x40)\n      tag_146\n      swap2\n      swap1\n      tag_147\n      jump\t// in\n    tag_146:\n      mload(0x40)\n      dup1\n      swap2\n      sub\n      swap1\n      return\n        /* \"contracts/testToken.sol\":7940:8111  function allowance(... */\n    tag_33:\n      tag_148\n      0x04\n      dup1\n      calldatasize\n      sub\n      dup2\n      add\n      swap1\n      tag_149\n      swap2\n      swap1\n      tag_150\n      jump\t// in\n    tag_149:\n      tag_151\n      jump\t// in\n    tag_148:\n      mload(0x40)\n      tag_152\n      swap2\n      swap1\n      tag_59\n      jump\t// in\n    tag_152:\n      mload(0x40)\n      dup1\n      swap2\n      sub\n      swap1\n      return\n        /* \"contracts/testToken.sol\":5459:5691  function transferOwnership(address newOwner) public virtual onlyOwner {... */\n    tag_34:\n      tag_153\n      0x04\n      dup1\n      calldatasize\n      sub\n      dup2\n      add\n      swap1\n      tag_154\n      swap2\n      swap1\n      tag_101\n      jump\t// in\n    tag_154:\n      tag_155\n      jump\t// in\n    tag_153:\n      stop\n        /* \"contracts/testToken.sol\":19610:19907  function editBuyFees(... */\n    tag_45:\n        /* \"contracts/testToken.sol\":4472:4485  _checkOwner() */\n      tag_157\n        /* \"contracts/testToken.sol\":4472:4483  _checkOwner */\n      tag_158\n        /* \"contracts/testToken.sol\":4472:4485  _checkOwner() */\n      jump\t// in\n    tag_157:\n        /* \"contracts/testToken.sol\":19770:19784  __feeBuyReward */\n      dup3\n        /* \"contracts/testToken.sol\":19754:19767  _feeBuyReward */\n      0x09\n        /* \"contracts/testToken.sol\":19754:19784  _feeBuyReward = __feeBuyReward */\n      dup2\n      swap1\n      sstore\n      pop\n        /* \"contracts/testToken.sol\":19806:19816  __feeBuyMK */\n      dup2\n        /* \"contracts/testToken.sol\":19794:19803  _feeBuyMK */\n      0x0a\n        /* \"contracts/testToken.sol\":19794:19816  _feeBuyMK = __feeBuyMK */\n      dup2\n      swap1\n      sstore\n      pop\n        /* \"contracts/testToken.sol\":19838:19848  __feeBuyLP */\n      dup1\n        /* \"contracts/testToken.sol\":19826:19835  _feeBuyLP */\n      0x0b\n        /* \"contracts/testToken.sol\":19826:19848  _feeBuyLP = __feeBuyLP */\n      dup2\n      swap1\n      sstore\n      pop\n        /* \"contracts/testToken.sol\":19890:19900  __feeBuyLP */\n      dup1\n        /* \"contracts/testToken.sol\":19873:19887  __feeBuyReward */\n      dup4\n        /* \"contracts/testToken.sol\":19873:19900  __feeBuyReward + __feeBuyLP */\n      tag_160\n      swap2\n      swap1\n      tag_161\n      jump\t// in\n    tag_160:\n        /* \"contracts/testToken.sol\":19858:19870  _feeBuyTotal */\n      0x08\n        /* \"contracts/testToken.sol\":19858:19900  _feeBuyTotal = __feeBuyReward + __feeBuyLP */\n      dup2\n      swap1\n      sstore\n      pop\n        /* \"contracts/testToken.sol\":19610:19907  function editBuyFees(... */\n      pop\n      pop\n      pop\n      jump\t// out\n        /* \"contracts/testToken.sol\":6702:6802  function name() external view virtual override returns (string memory) {... */\n    tag_47:\n        /* \"contracts/testToken.sol\":6758:6771  string memory */\n      0x60\n        /* \"contracts/testToken.sol\":6790:6795  _name */\n      0x03\n        /* \"contracts/testToken.sol\":6783:6795  return _name */\n      dup1\n      sload\n      tag_163\n      swap1\n      tag_164\n      jump\t// in\n    tag_163:\n      dup1\n      0x1f\n      add\n      0x20\n      dup1\n      swap2\n      div\n      mul\n      0x20\n      add\n      mload(0x40)\n      swap1\n      dup2\n      add\n      0x40\n      mstore\n      dup1\n      swap3\n      swap2\n      swap1\n      dup2\n      dup2\n      mstore\n      0x20\n      add\n      dup3\n      dup1\n      sload\n      tag_165\n      swap1\n      tag_164\n      jump\t// in\n    tag_165:\n      dup1\n      iszero\n      tag_166\n      jumpi\n      dup1\n      0x1f\n      lt\n      tag_167\n      jumpi\n      0x0100\n      dup1\n      dup4\n      sload\n      div\n      mul\n      dup4\n      mstore\n      swap2\n      0x20\n      add\n      swap2\n      jump(tag_166)\n    tag_167:\n      dup3\n      add\n      swap2\n      swap1\n      0x00\n      mstore\n      keccak256(0x00, 0x20)\n      swap1\n    tag_168:\n      dup2\n      sload\n      dup2\n      mstore\n      swap1\n      0x01\n      add\n      swap1\n      0x20\n      add\n      dup1\n      dup4\n      gt\n      tag_168\n      jumpi\n      dup3\n      swap1\n      sub\n      0x1f\n      and\n      dup3\n      add\n      swap2\n    tag_166:\n      pop\n      pop\n      pop\n      pop\n      pop\n      swap1\n      pop\n        /* \"contracts/testToken.sol\":6702:6802  function name() external view virtual override returns (string memory) {... */\n      swap1\n      jump\t// out\n        /* \"contracts/testToken.sol\":8828:9049  function approve(... */\n    tag_53:\n        /* \"contracts/testToken.sol\":8935:8939  bool */\n      0x00\n        /* \"contracts/testToken.sol\":8951:8964  address owner */\n      dup1\n        /* \"contracts/testToken.sol\":8967:8979  _msgSender() */\n      tag_170\n        /* \"contracts/testToken.sol\":8967:8977  _msgSender */\n      tag_171\n        /* \"contracts/testToken.sol\":8967:8979  _msgSender() */\n      jump\t// in\n    tag_170:\n        /* \"contracts/testToken.sol\":8951:8979  address owner = _msgSender() */\n      swap1\n      pop\n        /* \"contracts/testToken.sol\":8989:9021  _approve(owner, spender, amount) */\n      tag_172\n        /* \"contracts/testToken.sol\":8998:9003  owner */\n      dup2\n        /* \"contracts/testToken.sol\":9005:9012  spender */\n      dup6\n        /* \"contracts/testToken.sol\":9014:9020  amount */\n      dup6\n        /* \"contracts/testToken.sol\":8989:8997  _approve */\n      tag_173\n        /* \"contracts/testToken.sol\":8989:9021  _approve(owner, spender, amount) */\n      jump\t// in\n    tag_172:\n        /* \"contracts/testToken.sol\":9038:9042  true */\n      0x01\n        /* \"contracts/testToken.sol\":9031:9042  return true */\n      swap2\n      pop\n      pop\n        /* \"contracts/testToken.sol\":8828:9049  function approve(... */\n      swap3\n      swap2\n      pop\n      pop\n      jump\t// out\n        /* \"contracts/testToken.sol\":15834:15868  uint256 public _feeSellReward = 10 */\n    tag_57:\n      sload(0x0d)\n      dup2\n      jump\t// out\n        /* \"contracts/testToken.sol\":19488:19604  function setMinTokens(uint256 newValue) external onlyOwner {... */\n    tag_63:\n        /* \"contracts/testToken.sol\":4472:4485  _checkOwner() */\n      tag_175\n        /* \"contracts/testToken.sol\":4472:4483  _checkOwner */\n      tag_158\n        /* \"contracts/testToken.sol\":4472:4485  _checkOwner() */\n      jump\t// in\n    tag_175:\n        /* \"contracts/testToken.sol\":19587:19597  decimals() */\n      tag_177\n        /* \"contracts/testToken.sol\":19587:19595  decimals */\n      tag_80\n        /* \"contracts/testToken.sol\":19587:19597  decimals() */\n      jump\t// in\n    tag_177:\n        /* \"contracts/testToken.sol\":19581:19583  10 */\n      0x0a\n        /* \"contracts/testToken.sol\":19581:19597  10 ** decimals() */\n      tag_178\n      swap2\n      swap1\n      tag_179\n      jump\t// in\n    tag_178:\n        /* \"contracts/testToken.sol\":19570:19578  newValue */\n      dup2\n        /* \"contracts/testToken.sol\":19570:19597  newValue * 10 ** decimals() */\n      tag_180\n      swap2\n      swap1\n      tag_181\n      jump\t// in\n    tag_180:\n        /* \"contracts/testToken.sol\":19557:19567  _maxTokens */\n      0x10\n        /* \"contracts/testToken.sol\":19557:19597  _maxTokens = newValue * 10 ** decimals() */\n      dup2\n      swap1\n      sstore\n      pop\n        /* \"contracts/testToken.sol\":19488:19604  function setMinTokens(uint256 newValue) external onlyOwner {... */\n      pop\n      jump\t// out\n        /* \"contracts/testToken.sol\":7774:7882  function totalSupply() external view virtual override returns (uint256) {... */\n    tag_65:\n        /* \"contracts/testToken.sol\":7837:7844  uint256 */\n      0x00\n        /* \"contracts/testToken.sol\":7863:7875  _totalSupply */\n      sload(0x02)\n        /* \"contracts/testToken.sol\":7856:7875  return _totalSupply */\n      swap1\n      pop\n        /* \"contracts/testToken.sol\":7774:7882  function totalSupply() external view virtual override returns (uint256) {... */\n      swap1\n      jump\t// out\n        /* \"contracts/testToken.sol\":15759:15787  uint256 public _feeBuyLP = 4 */\n    tag_68:\n      sload(0x0b)\n      dup2\n      jump\t// out\n        /* \"contracts/testToken.sol\":9611:9899  function transferFrom(... */\n    tag_73:\n        /* \"contracts/testToken.sol\":9740:9744  bool */\n      0x00\n        /* \"contracts/testToken.sol\":9756:9771  address spender */\n      dup1\n        /* \"contracts/testToken.sol\":9774:9786  _msgSender() */\n      tag_184\n        /* \"contracts/testToken.sol\":9774:9784  _msgSender */\n      tag_171\n        /* \"contracts/testToken.sol\":9774:9786  _msgSender() */\n      jump\t// in\n    tag_184:\n        /* \"contracts/testToken.sol\":9756:9786  address spender = _msgSender() */\n      swap1\n      pop\n        /* \"contracts/testToken.sol\":9796:9834  _spendAllowance(from, spender, amount) */\n      tag_185\n        /* \"contracts/testToken.sol\":9812:9816  from */\n      dup6\n        /* \"contracts/testToken.sol\":9818:9825  spender */\n      dup3\n        /* \"contracts/testToken.sol\":9827:9833  amount */\n      dup6\n        /* \"contracts/testToken.sol\":9796:9811  _spendAllowance */\n      tag_186\n        /* \"contracts/testToken.sol\":9796:9834  _spendAllowance(from, spender, amount) */\n      jump\t// in\n    tag_185:\n        /* \"contracts/testToken.sol\":9844:9871  _transfer(from, to, amount) */\n      tag_187\n        /* \"contracts/testToken.sol\":9854:9858  from */\n      dup6\n        /* \"contracts/testToken.sol\":9860:9862  to */\n      dup6\n        /* \"contracts/testToken.sol\":9864:9870  amount */\n      dup6\n        /* \"contracts/testToken.sol\":9844:9853  _transfer */\n      tag_188\n        /* \"contracts/testToken.sol\":9844:9871  _transfer(from, to, amount) */\n      jump\t// in\n    tag_187:\n        /* \"contracts/testToken.sol\":9888:9892  true */\n      0x01\n        /* \"contracts/testToken.sol\":9881:9892  return true */\n      swap2\n      pop\n      pop\n        /* \"contracts/testToken.sol\":9611:9899  function transferFrom(... */\n      swap4\n      swap3\n      pop\n      pop\n      pop\n      jump\t// out\n        /* \"contracts/testToken.sol\":16207:16230  address public swapPair */\n    tag_76:\n      0x15\n      0x00\n      swap1\n      sload\n      swap1\n      0x0100\n      exp\n      swap1\n      div\n      0xffffffffffffffffffffffffffffffffffffffff\n      and\n      dup2\n      jump\t// out\n        /* \"contracts/testToken.sol\":7623:7714  function decimals() public view virtual override returns (uint8) {... */\n    tag_80:\n        /* \"contracts/testToken.sol\":7681:7686  uint8 */\n      0x00\n        /* \"contracts/testToken.sol\":7705:7707  18 */\n      0x12\n        /* \"contracts/testToken.sol\":7698:7707  return 18 */\n      swap1\n      pop\n        /* \"contracts/testToken.sol\":7623:7714  function decimals() public view virtual override returns (uint8) {... */\n      swap1\n      jump\t// out\n        /* \"contracts/testToken.sol\":11266:11524  function increaseAllowance(... */\n    tag_85:\n        /* \"contracts/testToken.sol\":11378:11382  bool */\n      0x00\n        /* \"contracts/testToken.sol\":11394:11407  address owner */\n      dup1\n        /* \"contracts/testToken.sol\":11410:11422  _msgSender() */\n      tag_191\n        /* \"contracts/testToken.sol\":11410:11420  _msgSender */\n      tag_171\n        /* \"contracts/testToken.sol\":11410:11422  _msgSender() */\n      jump\t// in\n    tag_191:\n        /* \"contracts/testToken.sol\":11394:11422  address owner = _msgSender() */\n      swap1\n      pop\n        /* \"contracts/testToken.sol\":11432:11496  _approve(owner, spender, allowance(owner, spender) + addedValue) */\n      tag_192\n        /* \"contracts/testToken.sol\":11441:11446  owner */\n      dup2\n        /* \"contracts/testToken.sol\":11448:11455  spender */\n      dup6\n        /* \"contracts/testToken.sol\":11485:11495  addedValue */\n      dup6\n        /* \"contracts/testToken.sol\":11457:11482  allowance(owner, spender) */\n      tag_193\n        /* \"contracts/testToken.sol\":11467:11472  owner */\n      dup6\n        /* \"contracts/testToken.sol\":11474:11481  spender */\n      dup10\n        /* \"contracts/testToken.sol\":11457:11466  allowance */\n      tag_151\n        /* \"contracts/testToken.sol\":11457:11482  allowance(owner, spender) */\n      jump\t// in\n    tag_193:\n        /* \"contracts/testToken.sol\":11457:11495  allowance(owner, spender) + addedValue */\n      tag_194\n      swap2\n      swap1\n      tag_161\n      jump\t// in\n    tag_194:\n        /* \"contracts/testToken.sol\":11432:11440  _approve */\n      tag_173\n        /* \"contracts/testToken.sol\":11432:11496  _approve(owner, spender, allowance(owner, spender) + addedValue) */\n      jump\t// in\n    tag_192:\n        /* \"contracts/testToken.sol\":11513:11517  true */\n      0x01\n        /* \"contracts/testToken.sol\":11506:11517  return true */\n      swap2\n      pop\n      pop\n        /* \"contracts/testToken.sol\":11266:11524  function increaseAllowance(... */\n      swap3\n      swap2\n      pop\n      pop\n      jump\t// out\n        /* \"contracts/testToken.sol\":15687:15719  uint256 public _feeBuyReward = 6 */\n    tag_88:\n      sload(0x09)\n      dup2\n      jump\t// out\n        /* \"contracts/testToken.sol\":15966:16016  uint256 public _maxTokens = 100 * 10 ** decimals() */\n    tag_91:\n      sload(0x10)\n      dup2\n      jump\t// out\n        /* \"contracts/testToken.sol\":15909:15938  uint256 public _feeSellLP = 2 */\n    tag_94:\n      sload(0x0f)\n      dup2\n      jump\t// out\n        /* \"contracts/testToken.sol\":15725:15753  uint256 public _feeBuyMK = 0 */\n    tag_97:\n      sload(0x0a)\n      dup2\n      jump\t// out\n        /* \"contracts/testToken.sol\":19260:19365  function setRewardWallet(address newWallet) external onlyOwner {... */\n    tag_102:\n        /* \"contracts/testToken.sol\":4472:4485  _checkOwner() */\n      tag_196\n        /* \"contracts/testToken.sol\":4472:4483  _checkOwner */\n      tag_158\n        /* \"contracts/testToken.sol\":4472:4485  _checkOwner() */\n      jump\t// in\n    tag_196:\n        /* \"contracts/testToken.sol\":19349:19358  newWallet */\n      dup1\n        /* \"contracts/testToken.sol\":19333:19346  _rewardWallet */\n      0x06\n      0x00\n        /* \"contracts/testToken.sol\":19333:19358  _rewardWallet = newWallet */\n      0x0100\n      exp\n      dup2\n      sload\n      dup2\n      0xffffffffffffffffffffffffffffffffffffffff\n      mul\n      not\n      and\n      swap1\n      dup4\n      0xffffffffffffffffffffffffffffffffffffffff\n      and\n      mul\n      or\n      swap1\n      sstore\n      pop\n        /* \"contracts/testToken.sol\":19260:19365  function setRewardWallet(address newWallet) external onlyOwner {... */\n      pop\n      jump\t// out\n        /* \"contracts/testToken.sol\":19371:19482  function setMarketingWallet(address newWallet) external onlyOwner {... */\n    tag_105:\n        /* \"contracts/testToken.sol\":4472:4485  _checkOwner() */\n      tag_199\n        /* \"contracts/testToken.sol\":4472:4483  _checkOwner */\n      tag_158\n        /* \"contracts/testToken.sol\":4472:4485  _checkOwner() */\n      jump\t// in\n    tag_199:\n        /* \"contracts/testToken.sol\":19466:19475  newWallet */\n      dup1\n        /* \"contracts/testToken.sol\":19447:19463  _marketingWallet */\n      0x07\n      0x00\n        /* \"contracts/testToken.sol\":19447:19475  _marketingWallet = newWallet */\n      0x0100\n      exp\n      dup2\n      sload\n      dup2\n      0xffffffffffffffffffffffffffffffffffffffff\n      mul\n      not\n      and\n      swap1\n      dup4\n      0xffffffffffffffffffffffffffffffffffffffff\n      and\n      mul\n      or\n      swap1\n      sstore\n      pop\n        /* \"contracts/testToken.sol\":19371:19482  function setMarketingWallet(address newWallet) external onlyOwner {... */\n      pop\n      jump\t// out\n        /* \"contracts/testToken.sol\":6860:6999  function balanceOf(... */\n    tag_108:\n        /* \"contracts/testToken.sol\":6948:6955  uint256 */\n      0x00\n        /* \"contracts/testToken.sol\":6974:6983  _balances */\n      dup1\n        /* \"contracts/testToken.sol\":6974:6992  _balances[account] */\n      0x00\n        /* \"contracts/testToken.sol\":6984:6991  account */\n      dup4\n        /* \"contracts/testToken.sol\":6974:6992  _balances[account] */\n      0xffffffffffffffffffffffffffffffffffffffff\n      and\n      0xffffffffffffffffffffffffffffffffffffffff\n      and\n      dup2\n      mstore\n      0x20\n      add\n      swap1\n      dup2\n      mstore\n      0x20\n      add\n      0x00\n      keccak256\n      sload\n        /* \"contracts/testToken.sol\":6967:6992  return _balances[account] */\n      swap1\n      pop\n        /* \"contracts/testToken.sol\":6860:6999  function balanceOf(... */\n      swap2\n      swap1\n      pop\n      jump\t// out\n        /* \"contracts/testToken.sol\":5209:5310  function renounceOwnership() public virtual onlyOwner {... */\n    tag_111:\n        /* \"contracts/testToken.sol\":4472:4485  _checkOwner() */\n      tag_203\n        /* \"contracts/testToken.sol\":4472:4483  _checkOwner */\n      tag_158\n        /* \"contracts/testToken.sol\":4472:4485  _checkOwner() */\n      jump\t// in\n    tag_203:\n        /* \"contracts/testToken.sol\":5273:5303  _transferOwnership(address(0)) */\n      tag_205\n        /* \"contracts/testToken.sol\":5300:5301  0 */\n      0x00\n        /* \"contracts/testToken.sol\":5273:5291  _transferOwnership */\n      tag_206\n        /* \"contracts/testToken.sol\":5273:5303  _transferOwnership(address(0)) */\n      jump\t// in\n    tag_205:\n        /* \"contracts/testToken.sol\":5209:5310  function renounceOwnership() public virtual onlyOwner {... */\n      jump\t// out\n        /* \"contracts/testToken.sol\":15794:15827  uint256 public _feeSellTotal = 14 */\n    tag_113:\n      sload(0x0c)\n      dup2\n      jump\t// out\n        /* \"contracts/testToken.sol\":4579:4664  function owner() public view virtual returns (address) {... */\n    tag_116:\n        /* \"contracts/testToken.sol\":4625:4632  address */\n      0x00\n        /* \"contracts/testToken.sol\":4651:4657  _owner */\n      0x05\n      0x00\n      swap1\n      sload\n      swap1\n      0x0100\n      exp\n      swap1\n      div\n      0xffffffffffffffffffffffffffffffffffffffff\n      and\n        /* \"contracts/testToken.sol\":4644:4657  return _owner */\n      swap1\n      pop\n        /* \"contracts/testToken.sol\":4579:4664  function owner() public view virtual returns (address) {... */\n      swap1\n      jump\t// out\n        /* \"contracts/testToken.sol\":6533:6637  function symbol() external view virtual override returns (string memory) {... */\n    tag_119:\n        /* \"contracts/testToken.sol\":6591:6604  string memory */\n      0x60\n        /* \"contracts/testToken.sol\":6623:6630  _symbol */\n      0x04\n        /* \"contracts/testToken.sol\":6616:6630  return _symbol */\n      dup1\n      sload\n      tag_209\n      swap1\n      tag_164\n      jump\t// in\n    tag_209:\n      dup1\n      0x1f\n      add\n      0x20\n      dup1\n      swap2\n      div\n      mul\n      0x20\n      add\n      mload(0x40)\n      swap1\n      dup2\n      add\n      0x40\n      mstore\n      dup1\n      swap3\n      swap2\n      swap1\n      dup2\n      dup2\n      mstore\n      0x20\n      add\n      dup3\n      dup1\n      sload\n      tag_210\n      swap1\n      tag_164\n      jump\t// in\n    tag_210:\n      dup1\n      iszero\n      tag_211\n      jumpi\n      dup1\n      0x1f\n      lt\n      tag_212\n      jumpi\n      0x0100\n      dup1\n      dup4\n      sload\n      div\n      mul\n      dup4\n      mstore\n      swap2\n      0x20\n      add\n      swap2\n      jump(tag_211)\n    tag_212:\n      dup3\n      add\n      swap2\n      swap1\n      0x00\n      mstore\n      keccak256(0x00, 0x20)\n      swap1\n    tag_213:\n      dup2\n      sload\n      dup2\n      mstore\n      swap1\n      0x01\n      add\n      swap1\n      0x20\n      add\n      dup1\n      dup4\n      gt\n      tag_213\n      jumpi\n      dup3\n      swap1\n      sub\n      0x1f\n      and\n      dup3\n      add\n      swap2\n    tag_211:\n      pop\n      pop\n      pop\n      pop\n      pop\n      swap1\n      pop\n        /* \"contracts/testToken.sol\":6533:6637  function symbol() external view virtual override returns (string memory) {... */\n      swap1\n      jump\t// out\n        /* \"contracts/testToken.sol\":15546:15622  address public _marketingWallet = 0xb93131eE7BE304c183790d3F6EdCDd978024F93f */\n    tag_122:\n      0x07\n      0x00\n      swap1\n      sload\n      swap1\n      0x0100\n      exp\n      swap1\n      div\n      0xffffffffffffffffffffffffffffffffffffffff\n      and\n      dup2\n      jump\t// out\n        /* \"contracts/testToken.sol\":15648:15680  uint256 public _feeBuyTotal = 10 */\n    tag_125:\n      sload(0x08)\n      dup2\n      jump\t// out\n        /* \"contracts/testToken.sol\":10386:10871  function decreaseAllowance(... */\n    tag_129:\n        /* \"contracts/testToken.sol\":10503:10507  bool */\n      0x00\n        /* \"contracts/testToken.sol\":10519:10532  address owner */\n      dup1\n        /* \"contracts/testToken.sol\":10535:10547  _msgSender() */\n      tag_215\n        /* \"contracts/testToken.sol\":10535:10545  _msgSender */\n      tag_171\n        /* \"contracts/testToken.sol\":10535:10547  _msgSender() */\n      jump\t// in\n    tag_215:\n        /* \"contracts/testToken.sol\":10519:10547  address owner = _msgSender() */\n      swap1\n      pop\n        /* \"contracts/testToken.sol\":10557:10581  uint256 currentAllowance */\n      0x00\n        /* \"contracts/testToken.sol\":10584:10609  allowance(owner, spender) */\n      tag_216\n        /* \"contracts/testToken.sol\":10594:10599  owner */\n      dup3\n        /* \"contracts/testToken.sol\":10601:10608  spender */\n      dup7\n        /* \"contracts/testToken.sol\":10584:10593  allowance */\n      tag_151\n        /* \"contracts/testToken.sol\":10584:10609  allowance(owner, spender) */\n      jump\t// in\n    tag_216:\n        /* \"contracts/testToken.sol\":10557:10609  uint256 currentAllowance = allowance(owner, spender) */\n      swap1\n      pop\n        /* \"contracts/testToken.sol\":10660:10675  subtractedValue */\n      dup4\n        /* \"contracts/testToken.sol\":10640:10656  currentAllowance */\n      dup2\n        /* \"contracts/testToken.sol\":10640:10675  currentAllowance >= subtractedValue */\n      lt\n      iszero\n        /* \"contracts/testToken.sol\":10619:10738  require(... */\n      tag_217\n      jumpi\n      mload(0x40)\n      0x08c379a000000000000000000000000000000000000000000000000000000000\n      dup2\n      mstore\n      0x04\n      add\n      tag_218\n      swap1\n      tag_219\n      jump\t// in\n    tag_218:\n      mload(0x40)\n      dup1\n      swap2\n      sub\n      swap1\n      revert\n    tag_217:\n        /* \"contracts/testToken.sol\":10772:10832  _approve(owner, spender, currentAllowance - subtractedValue) */\n      tag_220\n        /* \"contracts/testToken.sol\":10781:10786  owner */\n      dup3\n        /* \"contracts/testToken.sol\":10788:10795  spender */\n      dup7\n        /* \"contracts/testToken.sol\":10816:10831  subtractedValue */\n      dup7\n        /* \"contracts/testToken.sol\":10797:10813  currentAllowance */\n      dup5\n        /* \"contracts/testToken.sol\":10797:10831  currentAllowance - subtractedValue */\n      sub\n        /* \"contracts/testToken.sol\":10772:10780  _approve */\n      tag_173\n        /* \"contracts/testToken.sol\":10772:10832  _approve(owner, spender, currentAllowance - subtractedValue) */\n      jump\t// in\n    tag_220:\n        /* \"contracts/testToken.sol\":10860:10864  true */\n      0x01\n        /* \"contracts/testToken.sol\":10853:10864  return true */\n      swap3\n      pop\n      pop\n      pop\n        /* \"contracts/testToken.sol\":10386:10871  function decreaseAllowance(... */\n      swap3\n      swap2\n      pop\n      pop\n      jump\t// out\n        /* \"contracts/testToken.sol\":15467:15540  address public _rewardWallet = 0xBF3C56f4D317A11e5796df613E52081A34462410 */\n    tag_132:\n      0x06\n      0x00\n      swap1\n      sload\n      swap1\n      0x0100\n      exp\n      swap1\n      div\n      0xffffffffffffffffffffffffffffffffffffffff\n      and\n      dup2\n      jump\t// out\n        /* \"contracts/testToken.sol\":8307:8520  function transfer(... */\n    tag_136:\n        /* \"contracts/testToken.sol\":8410:8414  bool */\n      0x00\n        /* \"contracts/testToken.sol\":8426:8439  address owner */\n      dup1\n        /* \"contracts/testToken.sol\":8442:8454  _msgSender() */\n      tag_222\n        /* \"contracts/testToken.sol\":8442:8452  _msgSender */\n      tag_171\n        /* \"contracts/testToken.sol\":8442:8454  _msgSender() */\n      jump\t// in\n    tag_222:\n        /* \"contracts/testToken.sol\":8426:8454  address owner = _msgSender() */\n      swap1\n      pop\n        /* \"contracts/testToken.sol\":8464:8492  _transfer(owner, to, amount) */\n      tag_223\n        /* \"contracts/testToken.sol\":8474:8479  owner */\n      dup2\n        /* \"contracts/testToken.sol\":8481:8483  to */\n      dup6\n        /* \"contracts/testToken.sol\":8485:8491  amount */\n      dup6\n        /* \"contracts/testToken.sol\":8464:8473  _transfer */\n      tag_188\n        /* \"contracts/testToken.sol\":8464:8492  _transfer(owner, to, amount) */\n      jump\t// in\n    tag_223:\n        /* \"contracts/testToken.sol\":8509:8513  true */\n      0x01\n        /* \"contracts/testToken.sol\":8502:8513  return true */\n      swap2\n      pop\n      pop\n        /* \"contracts/testToken.sol\":8307:8520  function transfer(... */\n      swap3\n      swap2\n      pop\n      pop\n      jump\t// out\n        /* \"contracts/testToken.sol\":19913:20237  function editSellFees(... */\n    tag_140:\n        /* \"contracts/testToken.sol\":4472:4485  _checkOwner() */\n      tag_225\n        /* \"contracts/testToken.sol\":4472:4483  _checkOwner */\n      tag_158\n        /* \"contracts/testToken.sol\":4472:4485  _checkOwner() */\n      jump\t// in\n    tag_225:\n        /* \"contracts/testToken.sol\":20078:20093  __feeSellReward */\n      dup3\n        /* \"contracts/testToken.sol\":20061:20075  _feeSellReward */\n      0x0d\n        /* \"contracts/testToken.sol\":20061:20093  _feeSellReward = __feeSellReward */\n      dup2\n      swap1\n      sstore\n      pop\n        /* \"contracts/testToken.sol\":20116:20127  __feeSellMK */\n      dup2\n        /* \"contracts/testToken.sol\":20103:20113  _feeSellMK */\n      0x0e\n        /* \"contracts/testToken.sol\":20103:20127  _feeSellMK = __feeSellMK */\n      dup2\n      swap1\n      sstore\n      pop\n        /* \"contracts/testToken.sol\":20150:20161  __feeSellLP */\n      dup1\n        /* \"contracts/testToken.sol\":20137:20147  _feeSellLP */\n      0x0f\n        /* \"contracts/testToken.sol\":20137:20161  _feeSellLP = __feeSellLP */\n      dup2\n      swap1\n      sstore\n      pop\n        /* \"contracts/testToken.sol\":20219:20230  __feeSellLP */\n      dup1\n        /* \"contracts/testToken.sol\":20205:20216  __feeSellMK */\n      dup3\n        /* \"contracts/testToken.sol\":20187:20202  __feeSellReward */\n      dup5\n        /* \"contracts/testToken.sol\":20187:20216  __feeSellReward + __feeSellMK */\n      tag_227\n      swap2\n      swap1\n      tag_161\n      jump\t// in\n    tag_227:\n        /* \"contracts/testToken.sol\":20187:20230  __feeSellReward + __feeSellMK + __feeSellLP */\n      tag_228\n      swap2\n      swap1\n      tag_161\n      jump\t// in\n    tag_228:\n        /* \"contracts/testToken.sol\":20171:20184  _feeSellTotal */\n      0x0c\n        /* \"contracts/testToken.sol\":20171:20230  _feeSellTotal = __feeSellReward + __feeSellMK + __feeSellLP */\n      dup2\n      swap1\n      sstore\n      pop\n        /* \"contracts/testToken.sol\":19913:20237  function editSellFees(... */\n      pop\n      pop\n      pop\n      jump\t// out\n        /* \"contracts/testToken.sol\":15874:15903  uint256 public _feeSellMK = 2 */\n    tag_142:\n      sload(0x0e)\n      dup2\n      jump\t// out\n        /* \"contracts/testToken.sol\":16165:16201  IUniswapV2Router public   swapRouter */\n    tag_145:\n      0x14\n      0x00\n      swap1\n      sload\n      swap1\n      0x0100\n      exp\n      swap1\n      div\n      0xffffffffffffffffffffffffffffffffffffffff\n      and\n      dup2\n      jump\t// out\n        /* \"contracts/testToken.sol\":7940:8111  function allowance(... */\n    tag_151:\n        /* \"contracts/testToken.sol\":8051:8058  uint256 */\n      0x00\n        /* \"contracts/testToken.sol\":8077:8088  _allowances */\n      0x01\n        /* \"contracts/testToken.sol\":8077:8095  _allowances[owner] */\n      0x00\n        /* \"contracts/testToken.sol\":8089:8094  owner */\n      dup5\n        /* \"contracts/testToken.sol\":8077:8095  _allowances[owner] */\n      0xffffffffffffffffffffffffffffffffffffffff\n      and\n      0xffffffffffffffffffffffffffffffffffffffff\n      and\n      dup2\n      mstore\n      0x20\n      add\n      swap1\n      dup2\n      mstore\n      0x20\n      add\n      0x00\n      keccak256\n        /* \"contracts/testToken.sol\":8077:8104  _allowances[owner][spender] */\n      0x00\n        /* \"contracts/testToken.sol\":8096:8103  spender */\n      dup4\n        /* \"contracts/testToken.sol\":8077:8104  _allowances[owner][spender] */\n      0xffffffffffffffffffffffffffffffffffffffff\n      and\n      0xffffffffffffffffffffffffffffffffffffffff\n      and\n      dup2\n      mstore\n      0x20\n      add\n      swap1\n      dup2\n      mstore\n      0x20\n      add\n      0x00\n      keccak256\n      sload\n        /* \"contracts/testToken.sol\":8070:8104  return _allowances[owner][spender] */\n      swap1\n      pop\n        /* \"contracts/testToken.sol\":7940:8111  function allowance(... */\n      swap3\n      swap2\n      pop\n      pop\n      jump\t// out\n        /* \"contracts/testToken.sol\":5459:5691  function transferOwnership(address newOwner) public virtual onlyOwner {... */\n    tag_155:\n        /* \"contracts/testToken.sol\":4472:4485  _checkOwner() */\n      tag_231\n        /* \"contracts/testToken.sol\":4472:4483  _checkOwner */\n      tag_158\n        /* \"contracts/testToken.sol\":4472:4485  _checkOwner() */\n      jump\t// in\n    tag_231:\n        /* \"contracts/testToken.sol\":5580:5581  0 */\n      0x00\n        /* \"contracts/testToken.sol\":5560:5582  newOwner != address(0) */\n      0xffffffffffffffffffffffffffffffffffffffff\n      and\n        /* \"contracts/testToken.sol\":5560:5568  newOwner */\n      dup2\n        /* \"contracts/testToken.sol\":5560:5582  newOwner != address(0) */\n      0xffffffffffffffffffffffffffffffffffffffff\n      and\n      sub\n        /* \"contracts/testToken.sol\":5539:5646  require(... */\n      tag_233\n      jumpi\n      mload(0x40)\n      0x08c379a000000000000000000000000000000000000000000000000000000000\n      dup2\n      mstore\n      0x04\n      add\n      tag_234\n      swap1\n      tag_235\n      jump\t// in\n    tag_234:\n      mload(0x40)\n      dup1\n      swap2\n      sub\n      swap1\n      revert\n    tag_233:\n        /* \"contracts/testToken.sol\":5656:5684  _transferOwnership(newOwner) */\n      tag_236\n        /* \"contracts/testToken.sol\":5675:5683  newOwner */\n      dup2\n        /* \"contracts/testToken.sol\":5656:5674  _transferOwnership */\n      tag_206\n        /* \"contracts/testToken.sol\":5656:5684  _transferOwnership(newOwner) */\n      jump\t// in\n    tag_236:\n        /* \"contracts/testToken.sol\":5459:5691  function transferOwnership(address newOwner) public virtual onlyOwner {... */\n      pop\n      jump\t// out\n        /* \"contracts/testToken.sol\":4737:4867  function _checkOwner() internal view virtual {... */\n    tag_158:\n        /* \"contracts/testToken.sol\":4811:4823  _msgSender() */\n      tag_238\n        /* \"contracts/testToken.sol\":4811:4821  _msgSender */\n      tag_171\n        /* \"contracts/testToken.sol\":4811:4823  _msgSender() */\n      jump\t// in\n    tag_238:\n        /* \"contracts/testToken.sol\":4800:4823  owner() == _msgSender() */\n      0xffffffffffffffffffffffffffffffffffffffff\n      and\n        /* \"contracts/testToken.sol\":4800:4807  owner() */\n      tag_239\n        /* \"contracts/testToken.sol\":4800:4805  owner */\n      tag_116\n        /* \"contracts/testToken.sol\":4800:4807  owner() */\n      jump\t// in\n    tag_239:\n        /* \"contracts/testToken.sol\":4800:4823  owner() == _msgSender() */\n      0xffffffffffffffffffffffffffffffffffffffff\n      and\n      eq\n        /* \"contracts/testToken.sol\":4792:4860  require(owner() == _msgSender(), \"Ownable: caller is not the owner\") */\n      tag_240\n      jumpi\n      mload(0x40)\n      0x08c379a000000000000000000000000000000000000000000000000000000000\n      dup2\n      mstore\n      0x04\n      add\n      tag_241\n      swap1\n      tag_242\n      jump\t// in\n    tag_241:\n      mload(0x40)\n      dup1\n      swap2\n      sub\n      swap1\n      revert\n    tag_240:\n        /* \"contracts/testToken.sol\":4737:4867  function _checkOwner() internal view virtual {... */\n      jump\t// out\n        /* \"contracts/testToken.sol\":3910:4006  function _msgSender() internal view virtual returns (address) {... */\n    tag_171:\n        /* \"contracts/testToken.sol\":3963:3970  address */\n      0x00\n        /* \"contracts/testToken.sol\":3989:3999  msg.sender */\n      caller\n        /* \"contracts/testToken.sol\":3982:3999  return msg.sender */\n      swap1\n      pop\n        /* \"contracts/testToken.sol\":3910:4006  function _msgSender() internal view virtual returns (address) {... */\n      swap1\n      jump\t// out\n        /* \"contracts/testToken.sol\":13499:13869  function _approve(... */\n    tag_173:\n        /* \"contracts/testToken.sol\":13647:13648  0 */\n      0x00\n        /* \"contracts/testToken.sol\":13630:13649  owner != address(0) */\n      0xffffffffffffffffffffffffffffffffffffffff\n      and\n        /* \"contracts/testToken.sol\":13630:13635  owner */\n      dup4\n        /* \"contracts/testToken.sol\":13630:13649  owner != address(0) */\n      0xffffffffffffffffffffffffffffffffffffffff\n      and\n      sub\n        /* \"contracts/testToken.sol\":13622:13690  require(owner != address(0), \"ERC20: approve from the zero address\") */\n      tag_245\n      jumpi\n      mload(0x40)\n      0x08c379a000000000000000000000000000000000000000000000000000000000\n      dup2\n      mstore\n      0x04\n      add\n      tag_246\n      swap1\n      tag_247\n      jump\t// in\n    tag_246:\n      mload(0x40)\n      dup1\n      swap2\n      sub\n      swap1\n      revert\n    tag_245:\n        /* \"contracts/testToken.sol\":13727:13728  0 */\n      0x00\n        /* \"contracts/testToken.sol\":13708:13729  spender != address(0) */\n      0xffffffffffffffffffffffffffffffffffffffff\n      and\n        /* \"contracts/testToken.sol\":13708:13715  spender */\n      dup3\n        /* \"contracts/testToken.sol\":13708:13729  spender != address(0) */\n      0xffffffffffffffffffffffffffffffffffffffff\n      and\n      sub\n        /* \"contracts/testToken.sol\":13700:13768  require(spender != address(0), \"ERC20: approve to the zero address\") */\n      tag_248\n      jumpi\n      mload(0x40)\n      0x08c379a000000000000000000000000000000000000000000000000000000000\n      dup2\n      mstore\n      0x04\n      add\n      tag_249\n      swap1\n      tag_250\n      jump\t// in\n    tag_249:\n      mload(0x40)\n      dup1\n      swap2\n      sub\n      swap1\n      revert\n    tag_248:\n        /* \"contracts/testToken.sol\":13809:13815  amount */\n      dup1\n        /* \"contracts/testToken.sol\":13779:13790  _allowances */\n      0x01\n        /* \"contracts/testToken.sol\":13779:13797  _allowances[owner] */\n      0x00\n        /* \"contracts/testToken.sol\":13791:13796  owner */\n      dup6\n        /* \"contracts/testToken.sol\":13779:13797  _allowances[owner] */\n      0xffffffffffffffffffffffffffffffffffffffff\n      and\n      0xffffffffffffffffffffffffffffffffffffffff\n      and\n      dup2\n      mstore\n      0x20\n      add\n      swap1\n      dup2\n      mstore\n      0x20\n      add\n      0x00\n      keccak256\n        /* \"contracts/testToken.sol\":13779:13806  _allowances[owner][spender] */\n      0x00\n        /* \"contracts/testToken.sol\":13798:13805  spender */\n      dup5\n        /* \"contracts/testToken.sol\":13779:13806  _allowances[owner][spender] */\n      0xffffffffffffffffffffffffffffffffffffffff\n      and\n      0xffffffffffffffffffffffffffffffffffffffff\n      and\n      dup2\n      mstore\n      0x20\n      add\n      swap1\n      dup2\n      mstore\n      0x20\n      add\n      0x00\n      keccak256\n        /* \"contracts/testToken.sol\":13779:13815  _allowances[owner][spender] = amount */\n      dup2\n      swap1\n      sstore\n      pop\n        /* \"contracts/testToken.sol\":13846:13853  spender */\n      dup2\n        /* \"contracts/testToken.sol\":13830:13862  Approval(owner, spender, amount) */\n      0xffffffffffffffffffffffffffffffffffffffff\n      and\n        /* \"contracts/testToken.sol\":13839:13844  owner */\n      dup4\n        /* \"contracts/testToken.sol\":13830:13862  Approval(owner, spender, amount) */\n      0xffffffffffffffffffffffffffffffffffffffff\n      and\n      0x8c5be1e5ebec7d5bd14f71427d1e84f3dd0314c0f7b2291e5b200ac8c7c3b925\n        /* \"contracts/testToken.sol\":13855:13861  amount */\n      dup4\n        /* \"contracts/testToken.sol\":13830:13862  Approval(owner, spender, amount) */\n      mload(0x40)\n      tag_251\n      swap2\n      swap1\n      tag_59\n      jump\t// in\n    tag_251:\n      mload(0x40)\n      dup1\n      swap2\n      sub\n      swap1\n      log3\n        /* \"contracts/testToken.sol\":13499:13869  function _approve(... */\n      pop\n      pop\n      pop\n      jump\t// out\n        /* \"contracts/testToken.sol\":14150:14637  function _spendAllowance(... */\n    tag_186:\n        /* \"contracts/testToken.sol\":14280:14304  uint256 currentAllowance */\n      0x00\n        /* \"contracts/testToken.sol\":14307:14332  allowance(owner, spender) */\n      tag_253\n        /* \"contracts/testToken.sol\":14317:14322  owner */\n      dup5\n        /* \"contracts/testToken.sol\":14324:14331  spender */\n      dup5\n        /* \"contracts/testToken.sol\":14307:14316  allowance */\n      tag_151\n        /* \"contracts/testToken.sol\":14307:14332  allowance(owner, spender) */\n      jump\t// in\n    tag_253:\n        /* \"contracts/testToken.sol\":14280:14332  uint256 currentAllowance = allowance(owner, spender) */\n      swap1\n      pop\n        /* \"contracts/testToken.sol\":14366:14383  type(uint256).max */\n      0xffffffffffffffffffffffffffffffffffffffffffffffffffffffffffffffff\n        /* \"contracts/testToken.sol\":14346:14362  currentAllowance */\n      dup2\n        /* \"contracts/testToken.sol\":14346:14383  currentAllowance != type(uint256).max */\n      eq\n        /* \"contracts/testToken.sol\":14342:14631  if (currentAllowance != type(uint256).max) {... */\n      tag_254\n      jumpi\n        /* \"contracts/testToken.sol\":14444:14450  amount */\n      dup2\n        /* \"contracts/testToken.sol\":14424:14440  currentAllowance */\n      dup2\n        /* \"contracts/testToken.sol\":14424:14450  currentAllowance >= amount */\n      lt\n      iszero\n        /* \"contracts/testToken.sol\":14399:14513  require(... */\n      tag_255\n      jumpi\n      mload(0x40)\n      0x08c379a000000000000000000000000000000000000000000000000000000000\n      dup2\n      mstore\n      0x04\n      add\n      tag_256\n      swap1\n      tag_257\n      jump\t// in\n    tag_256:\n      mload(0x40)\n      dup1\n      swap2\n      sub\n      swap1\n      revert\n    tag_255:\n        /* \"contracts/testToken.sol\":14555:14606  _approve(owner, spender, currentAllowance - amount) */\n      tag_258\n        /* \"contracts/testToken.sol\":14564:14569  owner */\n      dup5\n        /* \"contracts/testToken.sol\":14571:14578  spender */\n      dup5\n        /* \"contracts/testToken.sol\":14599:14605  amount */\n      dup5\n        /* \"contracts/testToken.sol\":14580:14596  currentAllowance */\n      dup5\n        /* \"contracts/testToken.sol\":14580:14605  currentAllowance - amount */\n      sub\n        /* \"contracts/testToken.sol\":14555:14563  _approve */\n      tag_173\n        /* \"contracts/testToken.sol\":14555:14606  _approve(owner, spender, currentAllowance - amount) */\n      jump\t// in\n    tag_258:\n        /* \"contracts/testToken.sol\":14342:14631  if (currentAllowance != type(uint256).max) {... */\n    tag_254:\n        /* \"contracts/testToken.sol\":14270:14637  {... */\n      pop\n        /* \"contracts/testToken.sol\":14150:14637  function _spendAllowance(... */\n      pop\n      pop\n      pop\n      jump\t// out\n        /* \"contracts/testToken.sol\":16894:18061  function _transfer(... */\n    tag_188:\n        /* \"contracts/testToken.sol\":17013:17030  uint256 taxAmount */\n      0x00\n        /* \"contracts/testToken.sol\":17044:17053  Flag flag */\n      dup1\n        /* \"contracts/testToken.sol\":17086:17094  swapPair */\n      0x15\n      0x00\n      swap1\n      sload\n      swap1\n      0x0100\n      exp\n      swap1\n      div\n      0xffffffffffffffffffffffffffffffffffffffff\n      and\n        /* \"contracts/testToken.sol\":17080:17094  to == swapPair */\n      0xffffffffffffffffffffffffffffffffffffffff\n      and\n        /* \"contracts/testToken.sol\":17080:17082  to */\n      dup5\n        /* \"contracts/testToken.sol\":17080:17094  to == swapPair */\n      0xffffffffffffffffffffffffffffffffffffffff\n      and\n      sub\n        /* \"contracts/testToken.sol\":17076:17312  if (to == swapPair) {... */\n      tag_260\n      jumpi\n        /* \"contracts/testToken.sol\":17147:17150  100 */\n      0x64\n        /* \"contracts/testToken.sol\":17131:17144  _feeSellTotal */\n      sload(0x0c)\n        /* \"contracts/testToken.sol\":17122:17128  amount */\n      dup5\n        /* \"contracts/testToken.sol\":17122:17144  amount * _feeSellTotal */\n      tag_261\n      swap2\n      swap1\n      tag_181\n      jump\t// in\n    tag_261:\n        /* \"contracts/testToken.sol\":17122:17150  amount * _feeSellTotal / 100 */\n      tag_262\n      swap2\n      swap1\n      tag_263\n      jump\t// in\n    tag_262:\n        /* \"contracts/testToken.sol\":17110:17150  taxAmount = amount * _feeSellTotal / 100 */\n      swap2\n      pop\n        /* \"contracts/testToken.sol\":17171:17180  Flag.Sell */\n      0x01\n        /* \"contracts/testToken.sol\":17164:17180  flag = Flag.Sell */\n      swap1\n      pop\n        /* \"contracts/testToken.sol\":17076:17312  if (to == swapPair) {... */\n      jump(tag_264)\n    tag_260:\n        /* \"contracts/testToken.sol\":17209:17217  swapPair */\n      0x15\n      0x00\n      swap1\n      sload\n      swap1\n      0x0100\n      exp\n      swap1\n      div\n      0xffffffffffffffffffffffffffffffffffffffff\n      and\n        /* \"contracts/testToken.sol\":17201:17217  from == swapPair */\n      0xffffffffffffffffffffffffffffffffffffffff\n      and\n        /* \"contracts/testToken.sol\":17201:17205  from */\n      dup6\n        /* \"contracts/testToken.sol\":17201:17217  from == swapPair */\n      0xffffffffffffffffffffffffffffffffffffffff\n      and\n      sub\n        /* \"contracts/testToken.sol\":17197:17312  if (from == swapPair) {... */\n      tag_265\n      jumpi\n        /* \"contracts/testToken.sol\":17269:17272  100 */\n      0x64\n        /* \"contracts/testToken.sol\":17254:17266  _feeBuyTotal */\n      sload(0x08)\n        /* \"contracts/testToken.sol\":17245:17251  amount */\n      dup5\n        /* \"contracts/testToken.sol\":17245:17266  amount * _feeBuyTotal */\n      tag_266\n      swap2\n      swap1\n      tag_181\n      jump\t// in\n    tag_266:\n        /* \"contracts/testToken.sol\":17245:17272  amount * _feeBuyTotal / 100 */\n      tag_267\n      swap2\n      swap1\n      tag_263\n      jump\t// in\n    tag_267:\n        /* \"contracts/testToken.sol\":17233:17272  taxAmount = amount * _feeBuyTotal / 100 */\n      swap2\n      pop\n        /* \"contracts/testToken.sol\":17293:17301  Flag.Buy */\n      0x02\n        /* \"contracts/testToken.sol\":17286:17301  flag = Flag.Buy */\n      swap1\n      pop\n        /* \"contracts/testToken.sol\":17197:17312  if (from == swapPair) {... */\n    tag_265:\n        /* \"contracts/testToken.sol\":17076:17312  if (to == swapPair) {... */\n    tag_264:\n        /* \"contracts/testToken.sol\":17322:17367  super._transfer(from, to, amount - taxAmount) */\n      tag_268\n        /* \"contracts/testToken.sol\":17338:17342  from */\n      dup6\n        /* \"contracts/testToken.sol\":17344:17346  to */\n      dup6\n        /* \"contracts/testToken.sol\":17357:17366  taxAmount */\n      dup5\n        /* \"contracts/testToken.sol\":17348:17354  amount */\n      dup7\n        /* \"contracts/testToken.sol\":17348:17366  amount - taxAmount */\n      tag_269\n      swap2\n      swap1\n      tag_270\n      jump\t// in\n    tag_269:\n        /* \"contracts/testToken.sol\":17322:17337  super._transfer */\n      tag_271\n        /* \"contracts/testToken.sol\":17322:17367  super._transfer(from, to, amount - taxAmount) */\n      jump\t// in\n    tag_268:\n        /* \"contracts/testToken.sol\":17402:17403  0 */\n      0x00\n        /* \"contracts/testToken.sol\":17390:17399  taxAmount */\n      dup3\n        /* \"contracts/testToken.sol\":17390:17403  taxAmount > 0 */\n      gt\n        /* \"contracts/testToken.sol\":17386:17970  if (taxAmount > 0) {... */\n      iszero\n      tag_272\n      jumpi\n        /* \"contracts/testToken.sol\":17430:17439  Flag.Sell */\n      0x01\n        /* \"contracts/testToken.sol\":17422:17439  flag == Flag.Sell */\n      0x02\n      dup2\n      gt\n      iszero\n      tag_273\n      jumpi\n      tag_274\n      tag_275\n      jump\t// in\n    tag_274:\n    tag_273:\n        /* \"contracts/testToken.sol\":17422:17426  flag */\n      dup2\n        /* \"contracts/testToken.sol\":17422:17439  flag == Flag.Sell */\n      0x02\n      dup2\n      gt\n      iszero\n      tag_276\n      jumpi\n      tag_277\n      tag_275\n      jump\t// in\n    tag_277:\n    tag_276:\n      sub\n        /* \"contracts/testToken.sol\":17419:17899  if(flag == Flag.Sell){... */\n      tag_278\n      jumpi\n        /* \"contracts/testToken.sol\":17494:17507  _feeSellTotal */\n      sload(0x0c)\n        /* \"contracts/testToken.sol\":17481:17491  _feeSellLP */\n      sload(0x0f)\n        /* \"contracts/testToken.sol\":17469:17478  taxAmount */\n      dup4\n        /* \"contracts/testToken.sol\":17469:17491  taxAmount * _feeSellLP */\n      tag_279\n      swap2\n      swap1\n      tag_181\n      jump\t// in\n    tag_279:\n        /* \"contracts/testToken.sol\":17469:17507  taxAmount * _feeSellLP / _feeSellTotal */\n      tag_280\n      swap2\n      swap1\n      tag_263\n      jump\t// in\n    tag_280:\n        /* \"contracts/testToken.sol\":17458:17465  _tempLP */\n      0x13\n      0x00\n        /* \"contracts/testToken.sol\":17458:17507  _tempLP += taxAmount * _feeSellLP / _feeSellTotal */\n      dup3\n      dup3\n      sload\n      tag_281\n      swap2\n      swap1\n      tag_161\n      jump\t// in\n    tag_281:\n      swap3\n      pop\n      pop\n      dup2\n      swap1\n      sstore\n      pop\n        /* \"contracts/testToken.sol\":17561:17574  _feeSellTotal */\n      sload(0x0c)\n        /* \"contracts/testToken.sol\":17548:17558  _feeSellMK */\n      sload(0x0e)\n        /* \"contracts/testToken.sol\":17536:17545  taxAmount */\n      dup4\n        /* \"contracts/testToken.sol\":17536:17558  taxAmount * _feeSellMK */\n      tag_282\n      swap2\n      swap1\n      tag_181\n      jump\t// in\n    tag_282:\n        /* \"contracts/testToken.sol\":17536:17574  taxAmount * _feeSellMK / _feeSellTotal */\n      tag_283\n      swap2\n      swap1\n      tag_263\n      jump\t// in\n    tag_283:\n        /* \"contracts/testToken.sol\":17525:17532  _tempMK */\n      0x12\n      0x00\n        /* \"contracts/testToken.sol\":17525:17574  _tempMK += taxAmount * _feeSellMK / _feeSellTotal */\n      dup3\n      dup3\n      sload\n      tag_284\n      swap2\n      swap1\n      tag_161\n      jump\t// in\n    tag_284:\n      swap3\n      pop\n      pop\n      dup2\n      swap1\n      sstore\n      pop\n        /* \"contracts/testToken.sol\":17636:17649  _feeSellTotal */\n      sload(0x0c)\n        /* \"contracts/testToken.sol\":17619:17633  _feeSellReward */\n      sload(0x0d)\n        /* \"contracts/testToken.sol\":17607:17616  taxAmount */\n      dup4\n        /* \"contracts/testToken.sol\":17607:17633  taxAmount * _feeSellReward */\n      tag_285\n      swap2\n      swap1\n      tag_181\n      jump\t// in\n    tag_285:\n        /* \"contracts/testToken.sol\":17607:17649  taxAmount * _feeSellReward / _feeSellTotal */\n      tag_286\n      swap2\n      swap1\n      tag_263\n      jump\t// in\n    tag_286:\n        /* \"contracts/testToken.sol\":17592:17603  _tempReward */\n      0x11\n      0x00\n        /* \"contracts/testToken.sol\":17592:17649  _tempReward += taxAmount * _feeSellReward / _feeSellTotal */\n      dup3\n      dup3\n      sload\n      tag_287\n      swap2\n      swap1\n      tag_161\n      jump\t// in\n    tag_287:\n      swap3\n      pop\n      pop\n      dup2\n      swap1\n      sstore\n      pop\n        /* \"contracts/testToken.sol\":17419:17899  if(flag == Flag.Sell){... */\n      jump(tag_288)\n    tag_278:\n        /* \"contracts/testToken.sol\":17734:17746  _feeBuyTotal */\n      sload(0x08)\n        /* \"contracts/testToken.sol\":17722:17731  _feeBuyLP */\n      sload(0x0b)\n        /* \"contracts/testToken.sol\":17710:17719  taxAmount */\n      dup4\n        /* \"contracts/testToken.sol\":17710:17731  taxAmount * _feeBuyLP */\n      tag_289\n      swap2\n      swap1\n      tag_181\n      jump\t// in\n    tag_289:\n        /* \"contracts/testToken.sol\":17710:17746  taxAmount * _feeBuyLP / _feeBuyTotal */\n      tag_290\n      swap2\n      swap1\n      tag_263\n      jump\t// in\n    tag_290:\n        /* \"contracts/testToken.sol\":17699:17706  _tempLP */\n      0x13\n      0x00\n        /* \"contracts/testToken.sol\":17699:17746  _tempLP += taxAmount * _feeBuyLP / _feeBuyTotal */\n      dup3\n      dup3\n      sload\n      tag_291\n      swap2\n      swap1\n      tag_161\n      jump\t// in\n    tag_291:\n      swap3\n      pop\n      pop\n      dup2\n      swap1\n      sstore\n      pop\n        /* \"contracts/testToken.sol\":17799:17811  _feeBuyTotal */\n      sload(0x08)\n        /* \"contracts/testToken.sol\":17787:17796  _feeBuyMK */\n      sload(0x0a)\n        /* \"contracts/testToken.sol\":17775:17784  taxAmount */\n      dup4\n        /* \"contracts/testToken.sol\":17775:17796  taxAmount * _feeBuyMK */\n      tag_292\n      swap2\n      swap1\n      tag_181\n      jump\t// in\n    tag_292:\n        /* \"contracts/testToken.sol\":17775:17811  taxAmount * _feeBuyMK / _feeBuyTotal */\n      tag_293\n      swap2\n      swap1\n      tag_263\n      jump\t// in\n    tag_293:\n        /* \"contracts/testToken.sol\":17764:17771  _tempMK */\n      0x12\n      0x00\n        /* \"contracts/testToken.sol\":17764:17811  _tempMK += taxAmount * _feeBuyMK / _feeBuyTotal */\n      dup3\n      dup3\n      sload\n      tag_294\n      swap2\n      swap1\n      tag_161\n      jump\t// in\n    tag_294:\n      swap3\n      pop\n      pop\n      dup2\n      swap1\n      sstore\n      pop\n        /* \"contracts/testToken.sol\":17872:17884  _feeBuyTotal */\n      sload(0x08)\n        /* \"contracts/testToken.sol\":17856:17869  _feeBuyReward */\n      sload(0x09)\n        /* \"contracts/testToken.sol\":17844:17853  taxAmount */\n      dup4\n        /* \"contracts/testToken.sol\":17844:17869  taxAmount * _feeBuyReward */\n      tag_295\n      swap2\n      swap1\n      tag_181\n      jump\t// in\n    tag_295:\n        /* \"contracts/testToken.sol\":17844:17884  taxAmount * _feeBuyReward / _feeBuyTotal */\n      tag_296\n      swap2\n      swap1\n      tag_263\n      jump\t// in\n    tag_296:\n        /* \"contracts/testToken.sol\":17829:17840  _tempReward */\n      0x11\n      0x00\n        /* \"contracts/testToken.sol\":17829:17884  _tempReward += taxAmount * _feeBuyReward / _feeBuyTotal */\n      dup3\n      dup3\n      sload\n      tag_297\n      swap2\n      swap1\n      tag_161\n      jump\t// in\n    tag_297:\n      swap3\n      pop\n      pop\n      dup2\n      swap1\n      sstore\n      pop\n        /* \"contracts/testToken.sol\":17419:17899  if(flag == Flag.Sell){... */\n    tag_288:\n        /* \"contracts/testToken.sol\":17912:17959  super._transfer(from, address(this), taxAmount) */\n      tag_298\n        /* \"contracts/testToken.sol\":17928:17932  from */\n      dup6\n        /* \"contracts/testToken.sol\":17942:17946  this */\n      address\n        /* \"contracts/testToken.sol\":17949:17958  taxAmount */\n      dup5\n        /* \"contracts/testToken.sol\":17912:17927  super._transfer */\n      tag_271\n        /* \"contracts/testToken.sol\":17912:17959  super._transfer(from, address(this), taxAmount) */\n      jump\t// in\n    tag_298:\n        /* \"contracts/testToken.sol\":17386:17970  if (taxAmount > 0) {... */\n    tag_272:\n        /* \"contracts/testToken.sol\":17993:18003  _maxTokens */\n      sload(0x10)\n        /* \"contracts/testToken.sol\":17983:17990  _tempLP */\n      sload(0x13)\n        /* \"contracts/testToken.sol\":17983:18003  _tempLP > _maxTokens */\n      gt\n        /* \"contracts/testToken.sol\":17980:18055  if(_tempLP > _maxTokens)... */\n      iszero\n      tag_299\n      jumpi\n        /* \"contracts/testToken.sol\":18027:18044  _swapAndLiquify() */\n      tag_300\n        /* \"contracts/testToken.sol\":18027:18042  _swapAndLiquify */\n      tag_301\n        /* \"contracts/testToken.sol\":18027:18044  _swapAndLiquify() */\n      jump\t// in\n    tag_300:\n        /* \"contracts/testToken.sol\":17980:18055  if(_tempLP > _maxTokens)... */\n    tag_299:\n        /* \"contracts/testToken.sol\":17003:18061  {... */\n      pop\n      pop\n        /* \"contracts/testToken.sol\":16894:18061  function _transfer(... */\n      pop\n      pop\n      pop\n      jump\t// out\n        /* \"contracts/testToken.sol\":5845:6032  function _transferOwnership(address newOwner) internal virtual {... */\n    tag_206:\n        /* \"contracts/testToken.sol\":5918:5934  address oldOwner */\n      0x00\n        /* \"contracts/testToken.sol\":5937:5943  _owner */\n      0x05\n      0x00\n      swap1\n      sload\n      swap1\n      0x0100\n      exp\n      swap1\n      div\n      0xffffffffffffffffffffffffffffffffffffffff\n      and\n        /* \"contracts/testToken.sol\":5918:5943  address oldOwner = _owner */\n      swap1\n      pop\n        /* \"contracts/testToken.sol\":5962:5970  newOwner */\n      dup2\n        /* \"contracts/testToken.sol\":5953:5959  _owner */\n      0x05\n      0x00\n        /* \"contracts/testToken.sol\":5953:5970  _owner = newOwner */\n      0x0100\n      exp\n      dup2\n      sload\n      dup2\n      0xffffffffffffffffffffffffffffffffffffffff\n      mul\n      not\n      and\n      swap1\n      dup4\n      0xffffffffffffffffffffffffffffffffffffffff\n      and\n      mul\n      or\n      swap1\n      sstore\n      pop\n        /* \"contracts/testToken.sol\":6016:6024  newOwner */\n      dup2\n        /* \"contracts/testToken.sol\":5985:6025  OwnershipTransferred(oldOwner, newOwner) */\n      0xffffffffffffffffffffffffffffffffffffffff\n      and\n        /* \"contracts/testToken.sol\":6006:6014  oldOwner */\n      dup2\n        /* \"contracts/testToken.sol\":5985:6025  OwnershipTransferred(oldOwner, newOwner) */\n      0xffffffffffffffffffffffffffffffffffffffff\n      and\n      0x8be0079c531659141344cd1fd0a4f28419497f9722a3daafe3b4186f6b6457e0\n      mload(0x40)\n      mload(0x40)\n      dup1\n      swap2\n      sub\n      swap1\n      log3\n        /* \"contracts/testToken.sol\":5908:6032  {... */\n      pop\n        /* \"contracts/testToken.sol\":5845:6032  function _transferOwnership(address newOwner) internal virtual {... */\n      pop\n      jump\t// out\n        /* \"contracts/testToken.sol\":14643:15398  function _transfer(... */\n    tag_271:\n        /* \"contracts/testToken.sol\":14785:14786  0 */\n      0x00\n        /* \"contracts/testToken.sol\":14769:14787  from != address(0) */\n      0xffffffffffffffffffffffffffffffffffffffff\n      and\n        /* \"contracts/testToken.sol\":14769:14773  from */\n      dup4\n        /* \"contracts/testToken.sol\":14769:14787  from != address(0) */\n      0xffffffffffffffffffffffffffffffffffffffff\n      and\n      sub\n        /* \"contracts/testToken.sol\":14761:14829  require(from != address(0), \"ERC20: transfer from the zero address\") */\n      tag_304\n      jumpi\n      mload(0x40)\n      0x08c379a000000000000000000000000000000000000000000000000000000000\n      dup2\n      mstore\n      0x04\n      add\n      tag_305\n      swap1\n      tag_306\n      jump\t// in\n    tag_305:\n      mload(0x40)\n      dup1\n      swap2\n      sub\n      swap1\n      revert\n    tag_304:\n        /* \"contracts/testToken.sol\":14861:14862  0 */\n      0x00\n        /* \"contracts/testToken.sol\":14847:14863  to != address(0) */\n      0xffffffffffffffffffffffffffffffffffffffff\n      and\n        /* \"contracts/testToken.sol\":14847:14849  to */\n      dup3\n        /* \"contracts/testToken.sol\":14847:14863  to != address(0) */\n      0xffffffffffffffffffffffffffffffffffffffff\n      and\n      sub\n        /* \"contracts/testToken.sol\":14839:14903  require(to != address(0), \"ERC20: transfer to the zero address\") */\n      tag_307\n      jumpi\n      mload(0x40)\n      0x08c379a000000000000000000000000000000000000000000000000000000000\n      dup2\n      mstore\n      0x04\n      add\n      tag_308\n      swap1\n      tag_309\n      jump\t// in\n    tag_308:\n      mload(0x40)\n      dup1\n      swap2\n      sub\n      swap1\n      revert\n    tag_307:\n        /* \"contracts/testToken.sol\":14914:14933  uint256 fromBalance */\n      0x00\n        /* \"contracts/testToken.sol\":14936:14945  _balances */\n      dup1\n        /* \"contracts/testToken.sol\":14936:14951  _balances[from] */\n      0x00\n        /* \"contracts/testToken.sol\":14946:14950  from */\n      dup6\n        /* \"contracts/testToken.sol\":14936:14951  _balances[from] */\n      0xffffffffffffffffffffffffffffffffffffffff\n      and\n      0xffffffffffffffffffffffffffffffffffffffff\n      and\n      dup2\n      mstore\n      0x20\n      add\n      swap1\n      dup2\n      mstore\n      0x20\n      add\n      0x00\n      keccak256\n      sload\n        /* \"contracts/testToken.sol\":14914:14951  uint256 fromBalance = _balances[from] */\n      swap1\n      pop\n        /* \"contracts/testToken.sol\":14997:15003  amount */\n      dup2\n        /* \"contracts/testToken.sol\":14982:14993  fromBalance */\n      dup2\n        /* \"contracts/testToken.sol\":14982:15003  fromBalance >= amount */\n      lt\n      iszero\n        /* \"contracts/testToken.sol\":14961:15067  require(... */\n      tag_310\n      jumpi\n      mload(0x40)\n      0x08c379a000000000000000000000000000000000000000000000000000000000\n      dup2\n      mstore\n      0x04\n      add\n      tag_311\n      swap1\n      tag_312\n      jump\t// in\n    tag_311:\n      mload(0x40)\n      dup1\n      swap2\n      sub\n      swap1\n      revert\n    tag_310:\n        /* \"contracts/testToken.sol\":15133:15139  amount */\n      dup2\n        /* \"contracts/testToken.sol\":15119:15130  fromBalance */\n      dup2\n        /* \"contracts/testToken.sol\":15119:15139  fromBalance - amount */\n      sub\n        /* \"contracts/testToken.sol\":15101:15110  _balances */\n      0x00\n        /* \"contracts/testToken.sol\":15101:15116  _balances[from] */\n      dup1\n        /* \"contracts/testToken.sol\":15111:15115  from */\n      dup7\n        /* \"contracts/testToken.sol\":15101:15116  _balances[from] */\n      0xffffffffffffffffffffffffffffffffffffffff\n      and\n      0xffffffffffffffffffffffffffffffffffffffff\n      and\n      dup2\n      mstore\n      0x20\n      add\n      swap1\n      dup2\n      mstore\n      0x20\n      add\n      0x00\n      keccak256\n        /* \"contracts/testToken.sol\":15101:15139  _balances[from] = fromBalance - amount */\n      dup2\n      swap1\n      sstore\n      pop\n        /* \"contracts/testToken.sol\":15333:15339  amount */\n      dup2\n        /* \"contracts/testToken.sol\":15316:15325  _balances */\n      0x00\n        /* \"contracts/testToken.sol\":15316:15329  _balances[to] */\n      dup1\n        /* \"contracts/testToken.sol\":15326:15328  to */\n      dup6\n        /* \"contracts/testToken.sol\":15316:15329  _balances[to] */\n      0xffffffffffffffffffffffffffffffffffffffff\n      and\n      0xffffffffffffffffffffffffffffffffffffffff\n      and\n      dup2\n      mstore\n      0x20\n      add\n      swap1\n      dup2\n      mstore\n      0x20\n      add\n      0x00\n      keccak256\n      0x00\n        /* \"contracts/testToken.sol\":15316:15339  _balances[to] += amount */\n      dup3\n      dup3\n      sload\n      add\n      swap3\n      pop\n      pop\n      dup2\n      swap1\n      sstore\n      pop\n        /* \"contracts/testToken.sol\":15380:15382  to */\n      dup3\n        /* \"contracts/testToken.sol\":15365:15391  Transfer(from, to, amount) */\n      0xffffffffffffffffffffffffffffffffffffffff\n      and\n        /* \"contracts/testToken.sol\":15374:15378  from */\n      dup5\n        /* \"contracts/testToken.sol\":15365:15391  Transfer(from, to, amount) */\n      0xffffffffffffffffffffffffffffffffffffffff\n      and\n      0xddf252ad1be2c89b69c2b068fc378daa952ba7f163c4a11628f55a4df523b3ef\n        /* \"contracts/testToken.sol\":15384:15390  amount */\n      dup5\n        /* \"contracts/testToken.sol\":15365:15391  Transfer(from, to, amount) */\n      mload(0x40)\n      tag_313\n      swap2\n      swap1\n      tag_59\n      jump\t// in\n    tag_313:\n      mload(0x40)\n      dup1\n      swap2\n      sub\n      swap1\n      log3\n        /* \"contracts/testToken.sol\":14751:15398  {... */\n      pop\n        /* \"contracts/testToken.sol\":14643:15398  function _transfer(... */\n      pop\n      pop\n      pop\n      jump\t// out\n        /* \"contracts/testToken.sol\":18093:18541  function _swapAndLiquify() private {... */\n    tag_301:\n        /* \"contracts/testToken.sol\":18147:18181  _swapTokensForEth(_tempReward / 2) */\n      tag_315\n        /* \"contracts/testToken.sol\":18179:18180  2 */\n      0x02\n        /* \"contracts/testToken.sol\":18165:18176  _tempReward */\n      sload(0x11)\n        /* \"contracts/testToken.sol\":18165:18180  _tempReward / 2 */\n      tag_316\n      swap2\n      swap1\n      tag_263\n      jump\t// in\n    tag_316:\n        /* \"contracts/testToken.sol\":18147:18164  _swapTokensForEth */\n      tag_317\n        /* \"contracts/testToken.sol\":18147:18181  _swapTokensForEth(_tempReward / 2) */\n      jump\t// in\n    tag_315:\n        /* \"contracts/testToken.sol\":18191:18206  uint256 balance */\n      0x00\n        /* \"contracts/testToken.sol\":18209:18230  address(this).balance */\n      selfbalance\n        /* \"contracts/testToken.sol\":18191:18230  uint256 balance = address(this).balance */\n      swap1\n      pop\n        /* \"contracts/testToken.sol\":18249:18322  _addLiquidity(... */\n      tag_318\n        /* \"contracts/testToken.sol\":18290:18291  2 */\n      0x02\n        /* \"contracts/testToken.sol\":18276:18287  _tempReward */\n      sload(0x11)\n        /* \"contracts/testToken.sol\":18276:18291  _tempReward / 2 */\n      tag_319\n      swap2\n      swap1\n      tag_263\n      jump\t// in\n    tag_319:\n        /* \"contracts/testToken.sol\":18305:18312  balance */\n      dup3\n        /* \"contracts/testToken.sol\":18249:18262  _addLiquidity */\n      tag_320\n        /* \"contracts/testToken.sol\":18249:18322  _addLiquidity(... */\n      jump\t// in\n    tag_318:\n        /* \"contracts/testToken.sol\":18333:18391  super._transfer(address(this), _rewardWallet, _tempReward) */\n      tag_321\n        /* \"contracts/testToken.sol\":18357:18361  this */\n      address\n        /* \"contracts/testToken.sol\":18364:18377  _rewardWallet */\n      0x06\n      0x00\n      swap1\n      sload\n      swap1\n      0x0100\n      exp\n      swap1\n      div\n      0xffffffffffffffffffffffffffffffffffffffff\n      and\n        /* \"contracts/testToken.sol\":18379:18390  _tempReward */\n      sload(0x11)\n        /* \"contracts/testToken.sol\":18333:18348  super._transfer */\n      tag_271\n        /* \"contracts/testToken.sol\":18333:18391  super._transfer(address(this), _rewardWallet, _tempReward) */\n      jump\t// in\n    tag_321:\n        /* \"contracts/testToken.sol\":18401:18458  super._transfer(address(this), _marketingWallet, _tempMK) */\n      tag_322\n        /* \"contracts/testToken.sol\":18425:18429  this */\n      address\n        /* \"contracts/testToken.sol\":18432:18448  _marketingWallet */\n      0x07\n      0x00\n      swap1\n      sload\n      swap1\n      0x0100\n      exp\n      swap1\n      div\n      0xffffffffffffffffffffffffffffffffffffffff\n      and\n        /* \"contracts/testToken.sol\":18450:18457  _tempMK */\n      sload(0x12)\n        /* \"contracts/testToken.sol\":18401:18416  super._transfer */\n      tag_271\n        /* \"contracts/testToken.sol\":18401:18458  super._transfer(address(this), _marketingWallet, _tempMK) */\n      jump\t// in\n    tag_322:\n        /* \"contracts/testToken.sol\":18487:18488  0 */\n      0x00\n        /* \"contracts/testToken.sol\":18477:18484  _tempLP */\n      0x13\n        /* \"contracts/testToken.sol\":18477:18488  _tempLP = 0 */\n      dup2\n      swap1\n      sstore\n      pop\n        /* \"contracts/testToken.sol\":18508:18509  0 */\n      0x00\n        /* \"contracts/testToken.sol\":18498:18505  _tempMK */\n      0x12\n        /* \"contracts/testToken.sol\":18498:18509  _tempMK = 0 */\n      dup2\n      swap1\n      sstore\n      pop\n        /* \"contracts/testToken.sol\":18533:18534  0 */\n      0x00\n        /* \"contracts/testToken.sol\":18519:18530  _tempReward */\n      0x11\n        /* \"contracts/testToken.sol\":18519:18534  _tempReward = 0 */\n      dup2\n      swap1\n      sstore\n      pop\n        /* \"contracts/testToken.sol\":18128:18541  {... */\n      pop\n        /* \"contracts/testToken.sol\":18093:18541  function _swapAndLiquify() private {... */\n      jump\t// out\n        /* \"contracts/testToken.sol\":18547:18928  function _swapTokensForEth(uint256 tokenAmount) private  {... */\n    tag_317:\n        /* \"contracts/testToken.sol\":18614:18635  address[] memory path */\n      0x00\n        /* \"contracts/testToken.sol\":18652:18653  2 */\n      0x02\n        /* \"contracts/testToken.sol\":18638:18654  new address[](2) */\n      0xffffffffffffffff\n      dup2\n      gt\n      iszero\n      tag_324\n      jumpi\n      tag_325\n      tag_326\n      jump\t// in\n    tag_325:\n    tag_324:\n      mload(0x40)\n      swap1\n      dup1\n      dup3\n      mstore\n      dup1\n      0x20\n      mul\n      0x20\n      add\n      dup3\n      add\n      0x40\n      mstore\n      dup1\n      iszero\n      tag_327\n      jumpi\n      dup2\n      0x20\n      add\n      0x20\n      dup3\n      mul\n      dup1\n      calldatasize\n      dup4\n      calldatacopy\n      dup1\n      dup3\n      add\n      swap2\n      pop\n      pop\n      swap1\n      pop\n    tag_327:\n      pop\n        /* \"contracts/testToken.sol\":18614:18654  address[] memory path = new address[](2) */\n      swap1\n      pop\n        /* \"contracts/testToken.sol\":18682:18686  this */\n      address\n        /* \"contracts/testToken.sol\":18664:18668  path */\n      dup2\n        /* \"contracts/testToken.sol\":18669:18670  0 */\n      0x00\n        /* \"contracts/testToken.sol\":18664:18671  path[0] */\n      dup2\n      mload\n      dup2\n      lt\n      tag_328\n      jumpi\n      tag_329\n      tag_330\n      jump\t// in\n    tag_329:\n    tag_328:\n      0x20\n      mul\n      0x20\n      add\n      add\n        /* \"contracts/testToken.sol\":18664:18687  path[0] = address(this) */\n      swap1\n      0xffffffffffffffffffffffffffffffffffffffff\n      and\n      swap1\n      dup2\n      0xffffffffffffffffffffffffffffffffffffffff\n      and\n      dup2\n      mstore\n      pop\n      pop\n        /* \"contracts/testToken.sol\":18707:18717  swapRouter */\n      0x14\n      0x00\n      swap1\n      sload\n      swap1\n      0x0100\n      exp\n      swap1\n      div\n      0xffffffffffffffffffffffffffffffffffffffff\n      and\n        /* \"contracts/testToken.sol\":18707:18722  swapRouter.WETH */\n      0xffffffffffffffffffffffffffffffffffffffff\n      and\n      0xad5c4648\n        /* \"contracts/testToken.sol\":18707:18724  swapRouter.WETH() */\n      mload(0x40)\n      dup2\n      0xffffffff\n      and\n      0xe0\n      shl\n      dup2\n      mstore\n      0x04\n      add\n      0x20\n      mload(0x40)\n      dup1\n      dup4\n      sub\n      dup2\n      dup7\n      gas\n      staticcall\n      iszero\n      dup1\n      iszero\n      tag_332\n      jumpi\n      returndatasize\n      0x00\n      dup1\n      returndatacopy\n      revert(0x00, returndatasize)\n    tag_332:\n      pop\n      pop\n      pop\n      pop\n      mload(0x40)\n      returndatasize\n      not(0x1f)\n      0x1f\n      dup3\n      add\n      and\n      dup3\n      add\n      dup1\n      0x40\n      mstore\n      pop\n      dup2\n      add\n      swap1\n      tag_333\n      swap2\n      swap1\n      tag_334\n      jump\t// in\n    tag_333:\n        /* \"contracts/testToken.sol\":18697:18701  path */\n      dup2\n        /* \"contracts/testToken.sol\":18702:18703  1 */\n      0x01\n        /* \"contracts/testToken.sol\":18697:18704  path[1] */\n      dup2\n      mload\n      dup2\n      lt\n      tag_335\n      jumpi\n      tag_336\n      tag_330\n      jump\t// in\n    tag_336:\n    tag_335:\n      0x20\n      mul\n      0x20\n      add\n      add\n        /* \"contracts/testToken.sol\":18697:18724  path[1] = swapRouter.WETH() */\n      swap1\n      0xffffffffffffffffffffffffffffffffffffffff\n      and\n      swap1\n      dup2\n      0xffffffffffffffffffffffffffffffffffffffff\n      and\n      dup2\n      mstore\n      pop\n      pop\n        /* \"contracts/testToken.sol\":18734:18744  swapRouter */\n      0x14\n      0x00\n      swap1\n      sload\n      swap1\n      0x0100\n      exp\n      swap1\n      div\n      0xffffffffffffffffffffffffffffffffffffffff\n      and\n        /* \"contracts/testToken.sol\":18734:18795  swapRouter.swapExactTokensForETHSupportingFeeOnTransferTokens */\n      0xffffffffffffffffffffffffffffffffffffffff\n      and\n      0x791ac947\n        /* \"contracts/testToken.sol\":18809:18820  tokenAmount */\n      dup4\n        /* \"contracts/testToken.sol\":18834:18835  0 */\n      0x00\n        /* \"contracts/testToken.sol\":18849:18853  path */\n      dup5\n        /* \"contracts/testToken.sol\":18875:18879  this */\n      address\n        /* \"contracts/testToken.sol\":18895:18910  block.timestamp */\n      timestamp\n        /* \"contracts/testToken.sol\":18734:18921  swapRouter.swapExactTokensForETHSupportingFeeOnTransferTokens(... */\n      mload(0x40)\n      dup7\n      0xffffffff\n      and\n      0xe0\n      shl\n      dup2\n      mstore\n      0x04\n      add\n      tag_337\n      swap6\n      swap5\n      swap4\n      swap3\n      swap2\n      swap1\n      tag_338\n      jump\t// in\n    tag_337:\n      0x00\n      mload(0x40)\n      dup1\n      dup4\n      sub\n      dup2\n      0x00\n      dup8\n      dup1\n      extcodesize\n      iszero\n      dup1\n      iszero\n      tag_339\n      jumpi\n      0x00\n      dup1\n      revert\n    tag_339:\n      pop\n      gas\n      call\n      iszero\n      dup1\n      iszero\n      tag_341\n      jumpi\n      returndatasize\n      0x00\n      dup1\n      returndatacopy\n      revert(0x00, returndatasize)\n    tag_341:\n      pop\n      pop\n      pop\n      pop\n        /* \"contracts/testToken.sol\":18604:18928  {... */\n      pop\n        /* \"contracts/testToken.sol\":18547:18928  function _swapTokensForEth(uint256 tokenAmount) private  {... */\n      pop\n      jump\t// out\n        /* \"contracts/testToken.sol\":18934:19230  function _addLiquidity(... */\n    tag_320:\n        /* \"contracts/testToken.sol\":19037:19047  swapRouter */\n      0x14\n      0x00\n      swap1\n      sload\n      swap1\n      0x0100\n      exp\n      swap1\n      div\n      0xffffffffffffffffffffffffffffffffffffffff\n      and\n        /* \"contracts/testToken.sol\":19037:19063  swapRouter.addLiquidityETH */\n      0xffffffffffffffffffffffffffffffffffffffff\n      and\n      0xf305d719\n        /* \"contracts/testToken.sol\":19071:19080  ethAmount */\n      dup3\n        /* \"contracts/testToken.sol\":19103:19107  this */\n      address\n        /* \"contracts/testToken.sol\":19122:19133  tokenAmount */\n      dup6\n        /* \"contracts/testToken.sol\":19147:19148  0 */\n      0x00\n        /* \"contracts/testToken.sol\":19162:19163  0 */\n      dup1\n        /* \"contracts/testToken.sol\":19177:19184  owner() */\n      tag_343\n        /* \"contracts/testToken.sol\":19177:19182  owner */\n      tag_116\n        /* \"contracts/testToken.sol\":19177:19184  owner() */\n      jump\t// in\n    tag_343:\n        /* \"contracts/testToken.sol\":19198:19213  block.timestamp */\n      timestamp\n        /* \"contracts/testToken.sol\":19037:19223  swapRouter.addLiquidityETH{value: ethAmount}(... */\n      mload(0x40)\n      dup9\n      0xffffffff\n      and\n      0xe0\n      shl\n      dup2\n      mstore\n      0x04\n      add\n      tag_344\n      swap7\n      swap6\n      swap5\n      swap4\n      swap3\n      swap2\n      swap1\n      tag_345\n      jump\t// in\n    tag_344:\n      0x60\n      mload(0x40)\n      dup1\n      dup4\n      sub\n      dup2\n      dup6\n      dup9\n      gas\n      call\n      iszero\n      dup1\n      iszero\n      tag_347\n      jumpi\n      returndatasize\n      0x00\n      dup1\n      returndatacopy\n      revert(0x00, returndatasize)\n    tag_347:\n      pop\n      pop\n      pop\n      pop\n      pop\n      mload(0x40)\n      returndatasize\n      not(0x1f)\n      0x1f\n      dup3\n      add\n      and\n      dup3\n      add\n      dup1\n      0x40\n      mstore\n      pop\n      dup2\n      add\n      swap1\n      tag_348\n      swap2\n      swap1\n      tag_349\n      jump\t// in\n    tag_348:\n      pop\n      pop\n      pop\n        /* \"contracts/testToken.sol\":18934:19230  function _addLiquidity(... */\n      pop\n      pop\n      jump\t// out\n        /* \"#utility.yul\":88:205   */\n    tag_351:\n        /* \"#utility.yul\":197:198   */\n      0x00\n        /* \"#utility.yul\":194:195   */\n      dup1\n        /* \"#utility.yul\":187:199   */\n      revert\n        /* \"#utility.yul\":334:411   */\n    tag_353:\n        /* \"#utility.yul\":371:378   */\n      0x00\n        /* \"#utility.yul\":400:405   */\n      dup2\n        /* \"#utility.yul\":389:405   */\n      swap1\n      pop\n        /* \"#utility.yul\":334:411   */\n      swap2\n      swap1\n      pop\n      jump\t// out\n        /* \"#utility.yul\":417:539   */\n    tag_354:\n        /* \"#utility.yul\":490:514   */\n      tag_418\n        /* \"#utility.yul\":508:513   */\n      dup2\n        /* \"#utility.yul\":490:514   */\n      tag_353\n      jump\t// in\n    tag_418:\n        /* \"#utility.yul\":483:488   */\n      dup2\n        /* \"#utility.yul\":480:515   */\n      eq\n        /* \"#utility.yul\":470:533   */\n      tag_419\n      jumpi\n        /* \"#utility.yul\":529:530   */\n      0x00\n        /* \"#utility.yul\":526:527   */\n      dup1\n        /* \"#utility.yul\":519:531   */\n      revert\n        /* \"#utility.yul\":470:533   */\n    tag_419:\n        /* \"#utility.yul\":417:539   */\n      pop\n      jump\t// out\n        /* \"#utility.yul\":545:684   */\n    tag_355:\n        /* \"#utility.yul\":591:596   */\n      0x00\n        /* \"#utility.yul\":629:635   */\n      dup2\n        /* \"#utility.yul\":616:636   */\n      calldataload\n        /* \"#utility.yul\":607:636   */\n      swap1\n      pop\n        /* \"#utility.yul\":645:678   */\n      tag_421\n        /* \"#utility.yul\":672:677   */\n      dup2\n        /* \"#utility.yul\":645:678   */\n      tag_354\n      jump\t// in\n    tag_421:\n        /* \"#utility.yul\":545:684   */\n      swap3\n      swap2\n      pop\n      pop\n      jump\t// out\n        /* \"#utility.yul\":690:1309   */\n    tag_44:\n        /* \"#utility.yul\":767:773   */\n      0x00\n        /* \"#utility.yul\":775:781   */\n      dup1\n        /* \"#utility.yul\":783:789   */\n      0x00\n        /* \"#utility.yul\":832:834   */\n      0x60\n        /* \"#utility.yul\":820:829   */\n      dup5\n        /* \"#utility.yul\":811:818   */\n      dup7\n        /* \"#utility.yul\":807:830   */\n      sub\n        /* \"#utility.yul\":803:835   */\n      slt\n        /* \"#utility.yul\":800:919   */\n      iszero\n      tag_423\n      jumpi\n        /* \"#utility.yul\":838:917   */\n      tag_424\n      tag_351\n      jump\t// in\n    tag_424:\n        /* \"#utility.yul\":800:919   */\n    tag_423:\n        /* \"#utility.yul\":958:959   */\n      0x00\n        /* \"#utility.yul\":983:1036   */\n      tag_425\n        /* \"#utility.yul\":1028:1035   */\n      dup7\n        /* \"#utility.yul\":1019:1025   */\n      dup3\n        /* \"#utility.yul\":1008:1017   */\n      dup8\n        /* \"#utility.yul\":1004:1026   */\n      add\n        /* \"#utility.yul\":983:1036   */\n      tag_355\n      jump\t// in\n    tag_425:\n        /* \"#utility.yul\":973:1036   */\n      swap4\n      pop\n        /* \"#utility.yul\":929:1046   */\n      pop\n        /* \"#utility.yul\":1085:1087   */\n      0x20\n        /* \"#utility.yul\":1111:1164   */\n      tag_426\n        /* \"#utility.yul\":1156:1163   */\n      dup7\n        /* \"#utility.yul\":1147:1153   */\n      dup3\n        /* \"#utility.yul\":1136:1145   */\n      dup8\n        /* \"#utility.yul\":1132:1154   */\n      add\n        /* \"#utility.yul\":1111:1164   */\n      tag_355\n      jump\t// in\n    tag_426:\n        /* \"#utility.yul\":1101:1164   */\n      swap3\n      pop\n        /* \"#utility.yul\":1056:1174   */\n      pop\n        /* \"#utility.yul\":1213:1215   */\n      0x40\n        /* \"#utility.yul\":1239:1292   */\n      tag_427\n        /* \"#utility.yul\":1284:1291   */\n      dup7\n        /* \"#utility.yul\":1275:1281   */\n      dup3\n        /* \"#utility.yul\":1264:1273   */\n      dup8\n        /* \"#utility.yul\":1260:1282   */\n      add\n        /* \"#utility.yul\":1239:1292   */\n      tag_355\n      jump\t// in\n    tag_427:\n        /* \"#utility.yul\":1229:1292   */\n      swap2\n      pop\n        /* \"#utility.yul\":1184:1302   */\n      pop\n        /* \"#utility.yul\":690:1309   */\n      swap3\n      pop\n      swap3\n      pop\n      swap3\n      jump\t// out\n        /* \"#utility.yul\":1315:1414   */\n    tag_356:\n        /* \"#utility.yul\":1367:1373   */\n      0x00\n        /* \"#utility.yul\":1401:1406   */\n      dup2\n        /* \"#utility.yul\":1395:1407   */\n      mload\n        /* \"#utility.yul\":1385:1407   */\n      swap1\n      pop\n        /* \"#utility.yul\":1315:1414   */\n      swap2\n      swap1\n      pop\n      jump\t// out\n        /* \"#utility.yul\":1420:1589   */\n    tag_357:\n        /* \"#utility.yul\":1504:1515   */\n      0x00\n        /* \"#utility.yul\":1538:1544   */\n      dup3\n        /* \"#utility.yul\":1533:1536   */\n      dup3\n        /* \"#utility.yul\":1526:1545   */\n      mstore\n        /* \"#utility.yul\":1578:1582   */\n      0x20\n        /* \"#utility.yul\":1573:1576   */\n      dup3\n        /* \"#utility.yul\":1569:1583   */\n      add\n        /* \"#utility.yul\":1554:1583   */\n      swap1\n      pop\n        /* \"#utility.yul\":1420:1589   */\n      swap3\n      swap2\n      pop\n      pop\n      jump\t// out\n        /* \"#utility.yul\":1595:1841   */\n    tag_358:\n        /* \"#utility.yul\":1676:1677   */\n      0x00\n        /* \"#utility.yul\":1686:1799   */\n    tag_431:\n        /* \"#utility.yul\":1700:1706   */\n      dup4\n        /* \"#utility.yul\":1697:1698   */\n      dup2\n        /* \"#utility.yul\":1694:1707   */\n      lt\n        /* \"#utility.yul\":1686:1799   */\n      iszero\n      tag_433\n      jumpi\n        /* \"#utility.yul\":1785:1786   */\n      dup1\n        /* \"#utility.yul\":1780:1783   */\n      dup3\n        /* \"#utility.yul\":1776:1787   */\n      add\n        /* \"#utility.yul\":1770:1788   */\n      mload\n        /* \"#utility.yul\":1766:1767   */\n      dup2\n        /* \"#utility.yul\":1761:1764   */\n      dup5\n        /* \"#utility.yul\":1757:1768   */\n      add\n        /* \"#utility.yul\":1750:1789   */\n      mstore\n        /* \"#utility.yul\":1722:1724   */\n      0x20\n        /* \"#utility.yul\":1719:1720   */\n      dup2\n        /* \"#utility.yul\":1715:1725   */\n      add\n        /* \"#utility.yul\":1710:1725   */\n      swap1\n      pop\n        /* \"#utility.yul\":1686:1799   */\n      jump(tag_431)\n    tag_433:\n        /* \"#utility.yul\":1833:1834   */\n      0x00\n        /* \"#utility.yul\":1824:1830   */\n      dup5\n        /* \"#utility.yul\":1819:1822   */\n      dup5\n        /* \"#utility.yul\":1815:1831   */\n      add\n        /* \"#utility.yul\":1808:1835   */\n      mstore\n        /* \"#utility.yul\":1657:1841   */\n      pop\n        /* \"#utility.yul\":1595:1841   */\n      pop\n      pop\n      pop\n      jump\t// out\n        /* \"#utility.yul\":1847:1949   */\n    tag_359:\n        /* \"#utility.yul\":1888:1894   */\n      0x00\n        /* \"#utility.yul\":1939:1941   */\n      0x1f\n        /* \"#utility.yul\":1935:1942   */\n      not\n        /* \"#utility.yul\":1930:1932   */\n      0x1f\n        /* \"#utility.yul\":1923:1928   */\n      dup4\n        /* \"#utility.yul\":1919:1933   */\n      add\n        /* \"#utility.yul\":1915:1943   */\n      and\n        /* \"#utility.yul\":1905:1943   */\n      swap1\n      pop\n        /* \"#utility.yul\":1847:1949   */\n      swap2\n      swap1\n      pop\n      jump\t// out\n        /* \"#utility.yul\":1955:2332   */\n    tag_360:\n        /* \"#utility.yul\":2043:2046   */\n      0x00\n        /* \"#utility.yul\":2071:2110   */\n      tag_436\n        /* \"#utility.yul\":2104:2109   */\n      dup3\n        /* \"#utility.yul\":2071:2110   */\n      tag_356\n      jump\t// in\n    tag_436:\n        /* \"#utility.yul\":2126:2197   */\n      tag_437\n        /* \"#utility.yul\":2190:2196   */\n      dup2\n        /* \"#utility.yul\":2185:2188   */\n      dup6\n        /* \"#utility.yul\":2126:2197   */\n      tag_357\n      jump\t// in\n    tag_437:\n        /* \"#utility.yul\":2119:2197   */\n      swap4\n      pop\n        /* \"#utility.yul\":2206:2271   */\n      tag_438\n        /* \"#utility.yul\":2264:2270   */\n      dup2\n        /* \"#utility.yul\":2259:2262   */\n      dup6\n        /* \"#utility.yul\":2252:2256   */\n      0x20\n        /* \"#utility.yul\":2245:2250   */\n      dup7\n        /* \"#utility.yul\":2241:2257   */\n      add\n        /* \"#utility.yul\":2206:2271   */\n      tag_358\n      jump\t// in\n    tag_438:\n        /* \"#utility.yul\":2296:2325   */\n      tag_439\n        /* \"#utility.yul\":2318:2324   */\n      dup2\n        /* \"#utility.yul\":2296:2325   */\n      tag_359\n      jump\t// in\n    tag_439:\n        /* \"#utility.yul\":2291:2294   */\n      dup5\n        /* \"#utility.yul\":2287:2326   */\n      add\n        /* \"#utility.yul\":2280:2326   */\n      swap2\n      pop\n        /* \"#utility.yul\":2047:2332   */\n      pop\n        /* \"#utility.yul\":1955:2332   */\n      swap3\n      swap2\n      pop\n      pop\n      jump\t// out\n        /* \"#utility.yul\":2338:2651   */\n    tag_49:\n        /* \"#utility.yul\":2451:2455   */\n      0x00\n        /* \"#utility.yul\":2489:2491   */\n      0x20\n        /* \"#utility.yul\":2478:2487   */\n      dup3\n        /* \"#utility.yul\":2474:2492   */\n      add\n        /* \"#utility.yul\":2466:2492   */\n      swap1\n      pop\n        /* \"#utility.yul\":2538:2547   */\n      dup2\n        /* \"#utility.yul\":2532:2536   */\n      dup2\n        /* \"#utility.yul\":2528:2548   */\n      sub\n        /* \"#utility.yul\":2524:2525   */\n      0x00\n        /* \"#utility.yul\":2513:2522   */\n      dup4\n        /* \"#utility.yul\":2509:2526   */\n      add\n        /* \"#utility.yul\":2502:2549   */\n      mstore\n        /* \"#utility.yul\":2566:2644   */\n      tag_441\n        /* \"#utility.yul\":2639:2643   */\n      dup2\n        /* \"#utility.yul\":2630:2636   */\n      dup5\n        /* \"#utility.yul\":2566:2644   */\n      tag_360\n      jump\t// in\n    tag_441:\n        /* \"#utility.yul\":2558:2644   */\n      swap1\n      pop\n        /* \"#utility.yul\":2338:2651   */\n      swap3\n      swap2\n      pop\n      pop\n      jump\t// out\n        /* \"#utility.yul\":2657:2783   */\n    tag_361:\n        /* \"#utility.yul\":2694:2701   */\n      0x00\n        /* \"#utility.yul\":2734:2776   */\n      0xffffffffffffffffffffffffffffffffffffffff\n        /* \"#utility.yul\":2727:2732   */\n      dup3\n        /* \"#utility.yul\":2723:2777   */\n      and\n        /* \"#utility.yul\":2712:2777   */\n      swap1\n      pop\n        /* \"#utility.yul\":2657:2783   */\n      swap2\n      swap1\n      pop\n      jump\t// out\n        /* \"#utility.yul\":2789:2885   */\n    tag_362:\n        /* \"#utility.yul\":2826:2833   */\n      0x00\n        /* \"#utility.yul\":2855:2879   */\n      tag_444\n        /* \"#utility.yul\":2873:2878   */\n      dup3\n        /* \"#utility.yul\":2855:2879   */\n      tag_361\n      jump\t// in\n    tag_444:\n        /* \"#utility.yul\":2844:2879   */\n      swap1\n      pop\n        /* \"#utility.yul\":2789:2885   */\n      swap2\n      swap1\n      pop\n      jump\t// out\n        /* \"#utility.yul\":2891:3013   */\n    tag_363:\n        /* \"#utility.yul\":2964:2988   */\n      tag_446\n        /* \"#utility.yul\":2982:2987   */\n      dup2\n        /* \"#utility.yul\":2964:2988   */\n      tag_362\n      jump\t// in\n    tag_446:\n        /* \"#utility.yul\":2957:2962   */\n      dup2\n        /* \"#utility.yul\":2954:2989   */\n      eq\n        /* \"#utility.yul\":2944:3007   */\n      tag_447\n      jumpi\n        /* \"#utility.yul\":3003:3004   */\n      0x00\n        /* \"#utility.yul\":3000:3001   */\n      dup1\n        /* \"#utility.yul\":2993:3005   */\n      revert\n        /* \"#utility.yul\":2944:3007   */\n    tag_447:\n        /* \"#utility.yul\":2891:3013   */\n      pop\n      jump\t// out\n        /* \"#utility.yul\":3019:3158   */\n    tag_364:\n        /* \"#utility.yul\":3065:3070   */\n      0x00\n        /* \"#utility.yul\":3103:3109   */\n      dup2\n        /* \"#utility.yul\":3090:3110   */\n      calldataload\n        /* \"#utility.yul\":3081:3110   */\n      swap1\n      pop\n        /* \"#utility.yul\":3119:3152   */\n      tag_449\n        /* \"#utility.yul\":3146:3151   */\n      dup2\n        /* \"#utility.yul\":3119:3152   */\n      tag_363\n      jump\t// in\n    tag_449:\n        /* \"#utility.yul\":3019:3158   */\n      swap3\n      swap2\n      pop\n      pop\n      jump\t// out\n        /* \"#utility.yul\":3164:3638   */\n    tag_52:\n        /* \"#utility.yul\":3232:3238   */\n      0x00\n        /* \"#utility.yul\":3240:3246   */\n      dup1\n        /* \"#utility.yul\":3289:3291   */\n      0x40\n        /* \"#utility.yul\":3277:3286   */\n      dup4\n        /* \"#utility.yul\":3268:3275   */\n      dup6\n        /* \"#utility.yul\":3264:3287   */\n      sub\n        /* \"#utility.yul\":3260:3292   */\n      slt\n        /* \"#utility.yul\":3257:3376   */\n      iszero\n      tag_451\n      jumpi\n        /* \"#utility.yul\":3295:3374   */\n      tag_452\n      tag_351\n      jump\t// in\n    tag_452:\n        /* \"#utility.yul\":3257:3376   */\n    tag_451:\n        /* \"#utility.yul\":3415:3416   */\n      0x00\n        /* \"#utility.yul\":3440:3493   */\n      tag_453\n        /* \"#utility.yul\":3485:3492   */\n      dup6\n        /* \"#utility.yul\":3476:3482   */\n      dup3\n        /* \"#utility.yul\":3465:3474   */\n      dup7\n        /* \"#utility.yul\":3461:3483   */\n      add\n        /* \"#utility.yul\":3440:3493   */\n      tag_364\n      jump\t// in\n    tag_453:\n        /* \"#utility.yul\":3430:3493   */\n      swap3\n      pop\n        /* \"#utility.yul\":3386:3503   */\n      pop\n        /* \"#utility.yul\":3542:3544   */\n      0x20\n        /* \"#utility.yul\":3568:3621   */\n      tag_454\n        /* \"#utility.yul\":3613:3620   */\n      dup6\n        /* \"#utility.yul\":3604:3610   */\n      dup3\n        /* \"#utility.yul\":3593:3602   */\n      dup7\n        /* \"#utility.yul\":3589:3611   */\n      add\n        /* \"#utility.yul\":3568:3621   */\n      tag_355\n      jump\t// in\n    tag_454:\n        /* \"#utility.yul\":3558:3621   */\n      swap2\n      pop\n        /* \"#utility.yul\":3513:3631   */\n      pop\n        /* \"#utility.yul\":3164:3638   */\n      swap3\n      pop\n      swap3\n      swap1\n      pop\n      jump\t// out\n        /* \"#utility.yul\":3644:3734   */\n    tag_365:\n        /* \"#utility.yul\":3678:3685   */\n      0x00\n        /* \"#utility.yul\":3721:3726   */\n      dup2\n        /* \"#utility.yul\":3714:3727   */\n      iszero\n        /* \"#utility.yul\":3707:3728   */\n      iszero\n        /* \"#utility.yul\":3696:3728   */\n      swap1\n      pop\n        /* \"#utility.yul\":3644:3734   */\n      swap2\n      swap1\n      pop\n      jump\t// out\n        /* \"#utility.yul\":3740:3849   */\n    tag_366:\n        /* \"#utility.yul\":3821:3842   */\n      tag_457\n        /* \"#utility.yul\":3836:3841   */\n      dup2\n        /* \"#utility.yul\":3821:3842   */\n      tag_365\n      jump\t// in\n    tag_457:\n        /* \"#utility.yul\":3816:3819   */\n      dup3\n        /* \"#utility.yul\":3809:3843   */\n      mstore\n        /* \"#utility.yul\":3740:3849   */\n      pop\n      pop\n      jump\t// out\n        /* \"#utility.yul\":3855:4065   */\n    tag_55:\n        /* \"#utility.yul\":3942:3946   */\n      0x00\n        /* \"#utility.yul\":3980:3982   */\n      0x20\n        /* \"#utility.yul\":3969:3978   */\n      dup3\n        /* \"#utility.yul\":3965:3983   */\n      add\n        /* \"#utility.yul\":3957:3983   */\n      swap1\n      pop\n        /* \"#utility.yul\":3993:4058   */\n      tag_459\n        /* \"#utility.yul\":4055:4056   */\n      0x00\n        /* \"#utility.yul\":4044:4053   */\n      dup4\n        /* \"#utility.yul\":4040:4057   */\n      add\n        /* \"#utility.yul\":4031:4037   */\n      dup5\n        /* \"#utility.yul\":3993:4058   */\n      tag_366\n      jump\t// in\n    tag_459:\n        /* \"#utility.yul\":3855:4065   */\n      swap3\n      swap2\n      pop\n      pop\n      jump\t// out\n        /* \"#utility.yul\":4071:4189   */\n    tag_367:\n        /* \"#utility.yul\":4158:4182   */\n      tag_461\n        /* \"#utility.yul\":4176:4181   */\n      dup2\n        /* \"#utility.yul\":4158:4182   */\n      tag_353\n      jump\t// in\n    tag_461:\n        /* \"#utility.yul\":4153:4156   */\n      dup3\n        /* \"#utility.yul\":4146:4183   */\n      mstore\n        /* \"#utility.yul\":4071:4189   */\n      pop\n      pop\n      jump\t// out\n        /* \"#utility.yul\":4195:4417   */\n    tag_59:\n        /* \"#utility.yul\":4288:4292   */\n      0x00\n        /* \"#utility.yul\":4326:4328   */\n      0x20\n        /* \"#utility.yul\":4315:4324   */\n      dup3\n        /* \"#utility.yul\":4311:4329   */\n      add\n        /* \"#utility.yul\":4303:4329   */\n      swap1\n      pop\n        /* \"#utility.yul\":4339:4410   */\n      tag_463\n        /* \"#utility.yul\":4407:4408   */\n      0x00\n        /* \"#utility.yul\":4396:4405   */\n      dup4\n        /* \"#utility.yul\":4392:4409   */\n      add\n        /* \"#utility.yul\":4383:4389   */\n      dup5\n        /* \"#utility.yul\":4339:4410   */\n      tag_367\n      jump\t// in\n    tag_463:\n        /* \"#utility.yul\":4195:4417   */\n      swap3\n      swap2\n      pop\n      pop\n      jump\t// out\n        /* \"#utility.yul\":4423:4752   */\n    tag_62:\n        /* \"#utility.yul\":4482:4488   */\n      0x00\n        /* \"#utility.yul\":4531:4533   */\n      0x20\n        /* \"#utility.yul\":4519:4528   */\n      dup3\n        /* \"#utility.yul\":4510:4517   */\n      dup5\n        /* \"#utility.yul\":4506:4529   */\n      sub\n        /* \"#utility.yul\":4502:4534   */\n      slt\n        /* \"#utility.yul\":4499:4618   */\n      iszero\n      tag_465\n      jumpi\n        /* \"#utility.yul\":4537:4616   */\n      tag_466\n      tag_351\n      jump\t// in\n    tag_466:\n        /* \"#utility.yul\":4499:4618   */\n    tag_465:\n        /* \"#utility.yul\":4657:4658   */\n      0x00\n        /* \"#utility.yul\":4682:4735   */\n      tag_467\n        /* \"#utility.yul\":4727:4734   */\n      dup5\n        /* \"#utility.yul\":4718:4724   */\n      dup3\n        /* \"#utility.yul\":4707:4716   */\n      dup6\n        /* \"#utility.yul\":4703:4725   */\n      add\n        /* \"#utility.yul\":4682:4735   */\n      tag_355\n      jump\t// in\n    tag_467:\n        /* \"#utility.yul\":4672:4735   */\n      swap2\n      pop\n        /* \"#utility.yul\":4628:4745   */\n      pop\n        /* \"#utility.yul\":4423:4752   */\n      swap3\n      swap2\n      pop\n      pop\n      jump\t// out\n        /* \"#utility.yul\":4758:5377   */\n    tag_72:\n        /* \"#utility.yul\":4835:4841   */\n      0x00\n        /* \"#utility.yul\":4843:4849   */\n      dup1\n        /* \"#utility.yul\":4851:4857   */\n      0x00\n        /* \"#utility.yul\":4900:4902   */\n      0x60\n        /* \"#utility.yul\":4888:4897   */\n      dup5\n        /* \"#utility.yul\":4879:4886   */\n      dup7\n        /* \"#utility.yul\":4875:4898   */\n      sub\n        /* \"#utility.yul\":4871:4903   */\n      slt\n        /* \"#utility.yul\":4868:4987   */\n      iszero\n      tag_469\n      jumpi\n        /* \"#utility.yul\":4906:4985   */\n      tag_470\n      tag_351\n      jump\t// in\n    tag_470:\n        /* \"#utility.yul\":4868:4987   */\n    tag_469:\n        /* \"#utility.yul\":5026:5027   */\n      0x00\n        /* \"#utility.yul\":5051:5104   */\n      tag_471\n        /* \"#utility.yul\":5096:5103   */\n      dup7\n        /* \"#utility.yul\":5087:5093   */\n      dup3\n        /* \"#utility.yul\":5076:5085   */\n      dup8\n        /* \"#utility.yul\":5072:5094   */\n      add\n        /* \"#utility.yul\":5051:5104   */\n      tag_364\n      jump\t// in\n    tag_471:\n        /* \"#utility.yul\":5041:5104   */\n      swap4\n      pop\n        /* \"#utility.yul\":4997:5114   */\n      pop\n        /* \"#utility.yul\":5153:5155   */\n      0x20\n        /* \"#utility.yul\":5179:5232   */\n      tag_472\n        /* \"#utility.yul\":5224:5231   */\n      dup7\n        /* \"#utility.yul\":5215:5221   */\n      dup3\n        /* \"#utility.yul\":5204:5213   */\n      dup8\n        /* \"#utility.yul\":5200:5222   */\n      add\n        /* \"#utility.yul\":5179:5232   */\n      tag_364\n      jump\t// in\n    tag_472:\n        /* \"#utility.yul\":5169:5232   */\n      swap3\n      pop\n        /* \"#utility.yul\":5124:5242   */\n      pop\n        /* \"#utility.yul\":5281:5283   */\n      0x40\n        /* \"#utility.yul\":5307:5360   */\n      tag_473\n        /* \"#utility.yul\":5352:5359   */\n      dup7\n        /* \"#utility.yul\":5343:5349   */\n      dup3\n        /* \"#utility.yul\":5332:5341   */\n      dup8\n        /* \"#utility.yul\":5328:5350   */\n      add\n        /* \"#utility.yul\":5307:5360   */\n      tag_355\n      jump\t// in\n    tag_473:\n        /* \"#utility.yul\":5297:5360   */\n      swap2\n      pop\n        /* \"#utility.yul\":5252:5370   */\n      pop\n        /* \"#utility.yul\":4758:5377   */\n      swap3\n      pop\n      swap3\n      pop\n      swap3\n      jump\t// out\n        /* \"#utility.yul\":5383:5501   */\n    tag_368:\n        /* \"#utility.yul\":5470:5494   */\n      tag_475\n        /* \"#utility.yul\":5488:5493   */\n      dup2\n        /* \"#utility.yul\":5470:5494   */\n      tag_362\n      jump\t// in\n    tag_475:\n        /* \"#utility.yul\":5465:5468   */\n      dup3\n        /* \"#utility.yul\":5458:5495   */\n      mstore\n        /* \"#utility.yul\":5383:5501   */\n      pop\n      pop\n      jump\t// out\n        /* \"#utility.yul\":5507:5729   */\n    tag_78:\n        /* \"#utility.yul\":5600:5604   */\n      0x00\n        /* \"#utility.yul\":5638:5640   */\n      0x20\n        /* \"#utility.yul\":5627:5636   */\n      dup3\n        /* \"#utility.yul\":5623:5641   */\n      add\n        /* \"#utility.yul\":5615:5641   */\n      swap1\n      pop\n        /* \"#utility.yul\":5651:5722   */\n      tag_477\n        /* \"#utility.yul\":5719:5720   */\n      0x00\n        /* \"#utility.yul\":5708:5717   */\n      dup4\n        /* \"#utility.yul\":5704:5721   */\n      add\n        /* \"#utility.yul\":5695:5701   */\n      dup5\n        /* \"#utility.yul\":5651:5722   */\n      tag_368\n      jump\t// in\n    tag_477:\n        /* \"#utility.yul\":5507:5729   */\n      swap3\n      swap2\n      pop\n      pop\n      jump\t// out\n        /* \"#utility.yul\":5735:5821   */\n    tag_369:\n        /* \"#utility.yul\":5770:5777   */\n      0x00\n        /* \"#utility.yul\":5810:5814   */\n      0xff\n        /* \"#utility.yul\":5803:5808   */\n      dup3\n        /* \"#utility.yul\":5799:5815   */\n      and\n        /* \"#utility.yul\":5788:5815   */\n      swap1\n      pop\n        /* \"#utility.yul\":5735:5821   */\n      swap2\n      swap1\n      pop\n      jump\t// out\n        /* \"#utility.yul\":5827:5939   */\n    tag_370:\n        /* \"#utility.yul\":5910:5932   */\n      tag_480\n        /* \"#utility.yul\":5926:5931   */\n      dup2\n        /* \"#utility.yul\":5910:5932   */\n      tag_369\n      jump\t// in\n    tag_480:\n        /* \"#utility.yul\":5905:5908   */\n      dup3\n        /* \"#utility.yul\":5898:5933   */\n      mstore\n        /* \"#utility.yul\":5827:5939   */\n      pop\n      pop\n      jump\t// out\n        /* \"#utility.yul\":5945:6159   */\n    tag_82:\n        /* \"#utility.yul\":6034:6038   */\n      0x00\n        /* \"#utility.yul\":6072:6074   */\n      0x20\n        /* \"#utility.yul\":6061:6070   */\n      dup3\n        /* \"#utility.yul\":6057:6075   */\n      add\n        /* \"#utility.yul\":6049:6075   */\n      swap1\n      pop\n        /* \"#utility.yul\":6085:6152   */\n      tag_482\n        /* \"#utility.yul\":6149:6150   */\n      0x00\n        /* \"#utility.yul\":6138:6147   */\n      dup4\n        /* \"#utility.yul\":6134:6151   */\n      add\n        /* \"#utility.yul\":6125:6131   */\n      dup5\n        /* \"#utility.yul\":6085:6152   */\n      tag_370\n      jump\t// in\n    tag_482:\n        /* \"#utility.yul\":5945:6159   */\n      swap3\n      swap2\n      pop\n      pop\n      jump\t// out\n        /* \"#utility.yul\":6165:6494   */\n    tag_101:\n        /* \"#utility.yul\":6224:6230   */\n      0x00\n        /* \"#utility.yul\":6273:6275   */\n      0x20\n        /* \"#utility.yul\":6261:6270   */\n      dup3\n        /* \"#utility.yul\":6252:6259   */\n      dup5\n        /* \"#utility.yul\":6248:6271   */\n      sub\n        /* \"#utility.yul\":6244:6276   */\n      slt\n        /* \"#utility.yul\":6241:6360   */\n      iszero\n      tag_484\n      jumpi\n        /* \"#utility.yul\":6279:6358   */\n      tag_485\n      tag_351\n      jump\t// in\n    tag_485:\n        /* \"#utility.yul\":6241:6360   */\n    tag_484:\n        /* \"#utility.yul\":6399:6400   */\n      0x00\n        /* \"#utility.yul\":6424:6477   */\n      tag_486\n        /* \"#utility.yul\":6469:6476   */\n      dup5\n        /* \"#utility.yul\":6460:6466   */\n      dup3\n        /* \"#utility.yul\":6449:6458   */\n      dup6\n        /* \"#utility.yul\":6445:6467   */\n      add\n        /* \"#utility.yul\":6424:6477   */\n      tag_364\n      jump\t// in\n    tag_486:\n        /* \"#utility.yul\":6414:6477   */\n      swap2\n      pop\n        /* \"#utility.yul\":6370:6487   */\n      pop\n        /* \"#utility.yul\":6165:6494   */\n      swap3\n      swap2\n      pop\n      pop\n      jump\t// out\n        /* \"#utility.yul\":6500:6560   */\n    tag_371:\n        /* \"#utility.yul\":6528:6531   */\n      0x00\n        /* \"#utility.yul\":6549:6554   */\n      dup2\n        /* \"#utility.yul\":6542:6554   */\n      swap1\n      pop\n        /* \"#utility.yul\":6500:6560   */\n      swap2\n      swap1\n      pop\n      jump\t// out\n        /* \"#utility.yul\":6566:6708   */\n    tag_372:\n        /* \"#utility.yul\":6616:6625   */\n      0x00\n        /* \"#utility.yul\":6649:6702   */\n      tag_489\n        /* \"#utility.yul\":6667:6701   */\n      tag_490\n        /* \"#utility.yul\":6676:6700   */\n      tag_491\n        /* \"#utility.yul\":6694:6699   */\n      dup5\n        /* \"#utility.yul\":6676:6700   */\n      tag_361\n      jump\t// in\n    tag_491:\n        /* \"#utility.yul\":6667:6701   */\n      tag_371\n      jump\t// in\n    tag_490:\n        /* \"#utility.yul\":6649:6702   */\n      tag_361\n      jump\t// in\n    tag_489:\n        /* \"#utility.yul\":6636:6702   */\n      swap1\n      pop\n        /* \"#utility.yul\":6566:6708   */\n      swap2\n      swap1\n      pop\n      jump\t// out\n        /* \"#utility.yul\":6714:6840   */\n    tag_373:\n        /* \"#utility.yul\":6764:6773   */\n      0x00\n        /* \"#utility.yul\":6797:6834   */\n      tag_493\n        /* \"#utility.yul\":6828:6833   */\n      dup3\n        /* \"#utility.yul\":6797:6834   */\n      tag_372\n      jump\t// in\n    tag_493:\n        /* \"#utility.yul\":6784:6834   */\n      swap1\n      pop\n        /* \"#utility.yul\":6714:6840   */\n      swap2\n      swap1\n      pop\n      jump\t// out\n        /* \"#utility.yul\":6846:6996   */\n    tag_374:\n        /* \"#utility.yul\":6920:6929   */\n      0x00\n        /* \"#utility.yul\":6953:6990   */\n      tag_495\n        /* \"#utility.yul\":6984:6989   */\n      dup3\n        /* \"#utility.yul\":6953:6990   */\n      tag_373\n      jump\t// in\n    tag_495:\n        /* \"#utility.yul\":6940:6990   */\n      swap1\n      pop\n        /* \"#utility.yul\":6846:6996   */\n      swap2\n      swap1\n      pop\n      jump\t// out\n        /* \"#utility.yul\":7002:7181   */\n    tag_375:\n        /* \"#utility.yul\":7113:7174   */\n      tag_497\n        /* \"#utility.yul\":7168:7173   */\n      dup2\n        /* \"#utility.yul\":7113:7174   */\n      tag_374\n      jump\t// in\n    tag_497:\n        /* \"#utility.yul\":7108:7111   */\n      dup3\n        /* \"#utility.yul\":7101:7175   */\n      mstore\n        /* \"#utility.yul\":7002:7181   */\n      pop\n      pop\n      jump\t// out\n        /* \"#utility.yul\":7187:7457   */\n    tag_147:\n        /* \"#utility.yul\":7304:7308   */\n      0x00\n        /* \"#utility.yul\":7342:7344   */\n      0x20\n        /* \"#utility.yul\":7331:7340   */\n      dup3\n        /* \"#utility.yul\":7327:7345   */\n      add\n        /* \"#utility.yul\":7319:7345   */\n      swap1\n      pop\n        /* \"#utility.yul\":7355:7450   */\n      tag_499\n        /* \"#utility.yul\":7447:7448   */\n      0x00\n        /* \"#utility.yul\":7436:7445   */\n      dup4\n        /* \"#utility.yul\":7432:7449   */\n      add\n        /* \"#utility.yul\":7423:7429   */\n      dup5\n        /* \"#utility.yul\":7355:7450   */\n      tag_375\n      jump\t// in\n    tag_499:\n        /* \"#utility.yul\":7187:7457   */\n      swap3\n      swap2\n      pop\n      pop\n      jump\t// out\n        /* \"#utility.yul\":7463:7937   */\n    tag_150:\n        /* \"#utility.yul\":7531:7537   */\n      0x00\n        /* \"#utility.yul\":7539:7545   */\n      dup1\n        /* \"#utility.yul\":7588:7590   */\n      0x40\n        /* \"#utility.yul\":7576:7585   */\n      dup4\n        /* \"#utility.yul\":7567:7574   */\n      dup6\n        /* \"#utility.yul\":7563:7586   */\n      sub\n        /* \"#utility.yul\":7559:7591   */\n      slt\n        /* \"#utility.yul\":7556:7675   */\n      iszero\n      tag_501\n      jumpi\n        /* \"#utility.yul\":7594:7673   */\n      tag_502\n      tag_351\n      jump\t// in\n    tag_502:\n        /* \"#utility.yul\":7556:7675   */\n    tag_501:\n        /* \"#utility.yul\":7714:7715   */\n      0x00\n        /* \"#utility.yul\":7739:7792   */\n      tag_503\n        /* \"#utility.yul\":7784:7791   */\n      dup6\n        /* \"#utility.yul\":7775:7781   */\n      dup3\n        /* \"#utility.yul\":7764:7773   */\n      dup7\n        /* \"#utility.yul\":7760:7782   */\n      add\n        /* \"#utility.yul\":7739:7792   */\n      tag_364\n      jump\t// in\n    tag_503:\n        /* \"#utility.yul\":7729:7792   */\n      swap3\n      pop\n        /* \"#utility.yul\":7685:7802   */\n      pop\n        /* \"#utility.yul\":7841:7843   */\n      0x20\n        /* \"#utility.yul\":7867:7920   */\n      tag_504\n        /* \"#utility.yul\":7912:7919   */\n      dup6\n        /* \"#utility.yul\":7903:7909   */\n      dup3\n        /* \"#utility.yul\":7892:7901   */\n      dup7\n        /* \"#utility.yul\":7888:7910   */\n      add\n        /* \"#utility.yul\":7867:7920   */\n      tag_364\n      jump\t// in\n    tag_504:\n        /* \"#utility.yul\":7857:7920   */\n      swap2\n      pop\n        /* \"#utility.yul\":7812:7930   */\n      pop\n        /* \"#utility.yul\":7463:7937   */\n      swap3\n      pop\n      swap3\n      swap1\n      pop\n      jump\t// out\n        /* \"#utility.yul\":7943:8123   */\n    tag_376:\n        /* \"#utility.yul\":7991:8068   */\n      0x4e487b7100000000000000000000000000000000000000000000000000000000\n        /* \"#utility.yul\":7988:7989   */\n      0x00\n        /* \"#utility.yul\":7981:8069   */\n      mstore\n        /* \"#utility.yul\":8088:8092   */\n      0x11\n        /* \"#utility.yul\":8085:8086   */\n      0x04\n        /* \"#utility.yul\":8078:8093   */\n      mstore\n        /* \"#utility.yul\":8112:8116   */\n      0x24\n        /* \"#utility.yul\":8109:8110   */\n      0x00\n        /* \"#utility.yul\":8102:8117   */\n      revert\n        /* \"#utility.yul\":8129:8320   */\n    tag_161:\n        /* \"#utility.yul\":8169:8172   */\n      0x00\n        /* \"#utility.yul\":8188:8208   */\n      tag_507\n        /* \"#utility.yul\":8206:8207   */\n      dup3\n        /* \"#utility.yul\":8188:8208   */\n      tag_353\n      jump\t// in\n    tag_507:\n        /* \"#utility.yul\":8183:8208   */\n      swap2\n      pop\n        /* \"#utility.yul\":8222:8242   */\n      tag_508\n        /* \"#utility.yul\":8240:8241   */\n      dup4\n        /* \"#utility.yul\":8222:8242   */\n      tag_353\n      jump\t// in\n    tag_508:\n        /* \"#utility.yul\":8217:8242   */\n      swap3\n      pop\n        /* \"#utility.yul\":8265:8266   */\n      dup3\n        /* \"#utility.yul\":8262:8263   */\n      dup3\n        /* \"#utility.yul\":8258:8267   */\n      add\n        /* \"#utility.yul\":8251:8267   */\n      swap1\n      pop\n        /* \"#utility.yul\":8286:8289   */\n      dup1\n        /* \"#utility.yul\":8283:8284   */\n      dup3\n        /* \"#utility.yul\":8280:8290   */\n      gt\n        /* \"#utility.yul\":8277:8313   */\n      iszero\n      tag_509\n      jumpi\n        /* \"#utility.yul\":8293:8311   */\n      tag_510\n      tag_376\n      jump\t// in\n    tag_510:\n        /* \"#utility.yul\":8277:8313   */\n    tag_509:\n        /* \"#utility.yul\":8129:8320   */\n      swap3\n      swap2\n      pop\n      pop\n      jump\t// out\n        /* \"#utility.yul\":8326:8506   */\n    tag_377:\n        /* \"#utility.yul\":8374:8451   */\n      0x4e487b7100000000000000000000000000000000000000000000000000000000\n        /* \"#utility.yul\":8371:8372   */\n      0x00\n        /* \"#utility.yul\":8364:8452   */\n      mstore\n        /* \"#utility.yul\":8471:8475   */\n      0x22\n        /* \"#utility.yul\":8468:8469   */\n      0x04\n        /* \"#utility.yul\":8461:8476   */\n      mstore\n        /* \"#utility.yul\":8495:8499   */\n      0x24\n        /* \"#utility.yul\":8492:8493   */\n      0x00\n        /* \"#utility.yul\":8485:8500   */\n      revert\n        /* \"#utility.yul\":8512:8832   */\n    tag_164:\n        /* \"#utility.yul\":8556:8562   */\n      0x00\n        /* \"#utility.yul\":8593:8594   */\n      0x02\n        /* \"#utility.yul\":8587:8591   */\n      dup3\n        /* \"#utility.yul\":8583:8595   */\n      div\n        /* \"#utility.yul\":8573:8595   */\n      swap1\n      pop\n        /* \"#utility.yul\":8640:8641   */\n      0x01\n        /* \"#utility.yul\":8634:8638   */\n      dup3\n        /* \"#utility.yul\":8630:8642   */\n      and\n        /* \"#utility.yul\":8661:8679   */\n      dup1\n        /* \"#utility.yul\":8651:8732   */\n      tag_513\n      jumpi\n        /* \"#utility.yul\":8717:8721   */\n      0x7f\n        /* \"#utility.yul\":8709:8715   */\n      dup3\n        /* \"#utility.yul\":8705:8722   */\n      and\n        /* \"#utility.yul\":8695:8722   */\n      swap2\n      pop\n        /* \"#utility.yul\":8651:8732   */\n    tag_513:\n        /* \"#utility.yul\":8779:8781   */\n      0x20\n        /* \"#utility.yul\":8771:8777   */\n      dup3\n        /* \"#utility.yul\":8768:8782   */\n      lt\n        /* \"#utility.yul\":8748:8766   */\n      dup2\n        /* \"#utility.yul\":8745:8783   */\n      sub\n        /* \"#utility.yul\":8742:8826   */\n      tag_514\n      jumpi\n        /* \"#utility.yul\":8798:8816   */\n      tag_515\n      tag_377\n      jump\t// in\n    tag_515:\n        /* \"#utility.yul\":8742:8826   */\n    tag_514:\n        /* \"#utility.yul\":8563:8832   */\n      pop\n        /* \"#utility.yul\":8512:8832   */\n      swap2\n      swap1\n      pop\n      jump\t// out\n        /* \"#utility.yul\":8838:8940   */\n    tag_378:\n        /* \"#utility.yul\":8880:8888   */\n      0x00\n        /* \"#utility.yul\":8927:8932   */\n      dup2\n        /* \"#utility.yul\":8924:8925   */\n      0x01\n        /* \"#utility.yul\":8920:8933   */\n      shr\n        /* \"#utility.yul\":8899:8933   */\n      swap1\n      pop\n        /* \"#utility.yul\":8838:8940   */\n      swap2\n      swap1\n      pop\n      jump\t// out\n        /* \"#utility.yul\":8946:9794   */\n    tag_379:\n        /* \"#utility.yul\":9007:9012   */\n      0x00\n        /* \"#utility.yul\":9014:9018   */\n      dup1\n        /* \"#utility.yul\":9038:9044   */\n      dup3\n        /* \"#utility.yul\":9029:9044   */\n      swap2\n      pop\n        /* \"#utility.yul\":9062:9067   */\n      dup4\n        /* \"#utility.yul\":9053:9067   */\n      swap1\n      pop\n        /* \"#utility.yul\":9076:9788   */\n    tag_518:\n        /* \"#utility.yul\":9097:9098   */\n      0x01\n        /* \"#utility.yul\":9087:9095   */\n      dup6\n        /* \"#utility.yul\":9084:9099   */\n      gt\n        /* \"#utility.yul\":9076:9788   */\n      iszero\n      tag_520\n      jumpi\n        /* \"#utility.yul\":9192:9196   */\n      dup1\n        /* \"#utility.yul\":9187:9190   */\n      dup7\n        /* \"#utility.yul\":9183:9197   */\n      div\n        /* \"#utility.yul\":9177:9181   */\n      dup2\n        /* \"#utility.yul\":9174:9198   */\n      gt\n        /* \"#utility.yul\":9171:9221   */\n      iszero\n      tag_521\n      jumpi\n        /* \"#utility.yul\":9201:9219   */\n      tag_522\n      tag_376\n      jump\t// in\n    tag_522:\n        /* \"#utility.yul\":9171:9221   */\n    tag_521:\n        /* \"#utility.yul\":9251:9252   */\n      0x01\n        /* \"#utility.yul\":9241:9249   */\n      dup6\n        /* \"#utility.yul\":9237:9253   */\n      and\n        /* \"#utility.yul\":9234:9685   */\n      iszero\n      tag_523\n      jumpi\n        /* \"#utility.yul\":9666:9670   */\n      dup1\n        /* \"#utility.yul\":9659:9664   */\n      dup3\n        /* \"#utility.yul\":9655:9671   */\n      mul\n        /* \"#utility.yul\":9646:9671   */\n      swap2\n      pop\n        /* \"#utility.yul\":9234:9685   */\n    tag_523:\n        /* \"#utility.yul\":9716:9720   */\n      dup1\n        /* \"#utility.yul\":9710:9714   */\n      dup2\n        /* \"#utility.yul\":9706:9721   */\n      mul\n        /* \"#utility.yul\":9698:9721   */\n      swap1\n      pop\n        /* \"#utility.yul\":9746:9778   */\n      tag_524\n        /* \"#utility.yul\":9769:9777   */\n      dup6\n        /* \"#utility.yul\":9746:9778   */\n      tag_378\n      jump\t// in\n    tag_524:\n        /* \"#utility.yul\":9734:9778   */\n      swap5\n      pop\n        /* \"#utility.yul\":9076:9788   */\n      jump(tag_518)\n    tag_520:\n        /* \"#utility.yul\":8946:9794   */\n      swap5\n      pop\n      swap5\n      swap3\n      pop\n      pop\n      pop\n      jump\t// out\n        /* \"#utility.yul\":9800:10873   */\n    tag_380:\n        /* \"#utility.yul\":9854:9859   */\n      0x00\n        /* \"#utility.yul\":10045:10053   */\n      dup3\n        /* \"#utility.yul\":10035:10075   */\n      tag_526\n      jumpi\n        /* \"#utility.yul\":10066:10067   */\n      0x01\n        /* \"#utility.yul\":10057:10067   */\n      swap1\n      pop\n        /* \"#utility.yul\":10068:10073   */\n      jump(tag_525)\n        /* \"#utility.yul\":10035:10075   */\n    tag_526:\n        /* \"#utility.yul\":10094:10098   */\n      dup2\n        /* \"#utility.yul\":10084:10120   */\n      tag_527\n      jumpi\n        /* \"#utility.yul\":10111:10112   */\n      0x00\n        /* \"#utility.yul\":10102:10112   */\n      swap1\n      pop\n        /* \"#utility.yul\":10113:10118   */\n      jump(tag_525)\n        /* \"#utility.yul\":10084:10120   */\n    tag_527:\n        /* \"#utility.yul\":10180:10184   */\n      dup2\n        /* \"#utility.yul\":10228:10229   */\n      0x01\n        /* \"#utility.yul\":10223:10250   */\n      dup2\n      eq\n      tag_529\n      jumpi\n        /* \"#utility.yul\":10264:10265   */\n      0x02\n        /* \"#utility.yul\":10259:10450   */\n      dup2\n      eq\n      tag_530\n      jumpi\n        /* \"#utility.yul\":10173:10450   */\n      jump(tag_528)\n        /* \"#utility.yul\":10223:10250   */\n    tag_529:\n        /* \"#utility.yul\":10241:10242   */\n      0x01\n        /* \"#utility.yul\":10232:10242   */\n      swap2\n      pop\n        /* \"#utility.yul\":10243:10248   */\n      pop\n      jump(tag_525)\n        /* \"#utility.yul\":10259:10450   */\n    tag_530:\n        /* \"#utility.yul\":10304:10307   */\n      0xff\n        /* \"#utility.yul\":10294:10302   */\n      dup5\n        /* \"#utility.yul\":10291:10308   */\n      gt\n        /* \"#utility.yul\":10288:10331   */\n      iszero\n      tag_531\n      jumpi\n        /* \"#utility.yul\":10311:10329   */\n      tag_532\n      tag_376\n      jump\t// in\n    tag_532:\n        /* \"#utility.yul\":10288:10331   */\n    tag_531:\n        /* \"#utility.yul\":10360:10368   */\n      dup4\n        /* \"#utility.yul\":10357:10358   */\n      0x02\n        /* \"#utility.yul\":10353:10369   */\n      exp\n        /* \"#utility.yul\":10344:10369   */\n      swap2\n      pop\n        /* \"#utility.yul\":10395:10398   */\n      dup5\n        /* \"#utility.yul\":10388:10393   */\n      dup3\n        /* \"#utility.yul\":10385:10399   */\n      gt\n        /* \"#utility.yul\":10382:10422   */\n      iszero\n      tag_533\n      jumpi\n        /* \"#utility.yul\":10402:10420   */\n      tag_534\n      tag_376\n      jump\t// in\n    tag_534:\n        /* \"#utility.yul\":10382:10422   */\n    tag_533:\n        /* \"#utility.yul\":10435:10440   */\n      pop\n      jump(tag_525)\n        /* \"#utility.yul\":10173:10450   */\n    tag_528:\n      pop\n        /* \"#utility.yul\":10559:10561   */\n      0x20\n        /* \"#utility.yul\":10549:10557   */\n      dup4\n        /* \"#utility.yul\":10546:10562   */\n      lt\n        /* \"#utility.yul\":10540:10543   */\n      0x0133\n        /* \"#utility.yul\":10534:10538   */\n      dup4\n        /* \"#utility.yul\":10531:10544   */\n      lt\n        /* \"#utility.yul\":10527:10563   */\n      and\n        /* \"#utility.yul\":10509:10511   */\n      0x4e\n        /* \"#utility.yul\":10499:10507   */\n      dup5\n        /* \"#utility.yul\":10496:10512   */\n      lt\n        /* \"#utility.yul\":10491:10493   */\n      0x0b\n        /* \"#utility.yul\":10485:10489   */\n      dup5\n        /* \"#utility.yul\":10482:10494   */\n      lt\n        /* \"#utility.yul\":10478:10513   */\n      and\n        /* \"#utility.yul\":10462:10573   */\n      or\n        /* \"#utility.yul\":10459:10705   */\n      iszero\n      tag_535\n      jumpi\n        /* \"#utility.yul\":10615:10623   */\n      dup3\n        /* \"#utility.yul\":10609:10613   */\n      dup3\n        /* \"#utility.yul\":10605:10624   */\n      exp\n        /* \"#utility.yul\":10596:10624   */\n      swap1\n      pop\n        /* \"#utility.yul\":10650:10653   */\n      dup4\n        /* \"#utility.yul\":10643:10648   */\n      dup2\n        /* \"#utility.yul\":10640:10654   */\n      gt\n        /* \"#utility.yul\":10637:10677   */\n      iszero\n      tag_536\n      jumpi\n        /* \"#utility.yul\":10657:10675   */\n      tag_537\n      tag_376\n      jump\t// in\n    tag_537:\n        /* \"#utility.yul\":10637:10677   */\n    tag_536:\n        /* \"#utility.yul\":10690:10695   */\n      jump(tag_525)\n        /* \"#utility.yul\":10459:10705   */\n    tag_535:\n        /* \"#utility.yul\":10730:10772   */\n      tag_538\n        /* \"#utility.yul\":10768:10771   */\n      dup5\n        /* \"#utility.yul\":10758:10766   */\n      dup5\n        /* \"#utility.yul\":10752:10756   */\n      dup5\n        /* \"#utility.yul\":10749:10750   */\n      0x01\n        /* \"#utility.yul\":10730:10772   */\n      tag_379\n      jump\t// in\n    tag_538:\n        /* \"#utility.yul\":10715:10772   */\n      swap3\n      pop\n      swap1\n      pop\n        /* \"#utility.yul\":10804:10808   */\n      dup2\n        /* \"#utility.yul\":10799:10802   */\n      dup5\n        /* \"#utility.yul\":10795:10809   */\n      div\n        /* \"#utility.yul\":10788:10793   */\n      dup2\n        /* \"#utility.yul\":10785:10810   */\n      gt\n        /* \"#utility.yul\":10782:10833   */\n      iszero\n      tag_539\n      jumpi\n        /* \"#utility.yul\":10813:10831   */\n      tag_540\n      tag_376\n      jump\t// in\n    tag_540:\n        /* \"#utility.yul\":10782:10833   */\n    tag_539:\n        /* \"#utility.yul\":10862:10866   */\n      dup2\n        /* \"#utility.yul\":10855:10860   */\n      dup2\n        /* \"#utility.yul\":10851:10867   */\n      mul\n        /* \"#utility.yul\":10842:10867   */\n      swap1\n      pop\n        /* \"#utility.yul\":9800:10873   */\n    tag_525:\n      swap4\n      swap3\n      pop\n      pop\n      pop\n      jump\t// out\n        /* \"#utility.yul\":10879:11160   */\n    tag_179:\n        /* \"#utility.yul\":10937:10942   */\n      0x00\n        /* \"#utility.yul\":10961:10984   */\n      tag_542\n        /* \"#utility.yul\":10979:10983   */\n      dup3\n        /* \"#utility.yul\":10961:10984   */\n      tag_353\n      jump\t// in\n    tag_542:\n        /* \"#utility.yul\":10953:10984   */\n      swap2\n      pop\n        /* \"#utility.yul\":11005:11030   */\n      tag_543\n        /* \"#utility.yul\":11021:11029   */\n      dup4\n        /* \"#utility.yul\":11005:11030   */\n      tag_369\n      jump\t// in\n    tag_543:\n        /* \"#utility.yul\":10993:11030   */\n      swap3\n      pop\n        /* \"#utility.yul\":11049:11153   */\n      tag_544\n        /* \"#utility.yul\":11086:11152   */\n      0xffffffffffffffffffffffffffffffffffffffffffffffffffffffffffffffff\n        /* \"#utility.yul\":11076:11084   */\n      dup5\n        /* \"#utility.yul\":11070:11074   */\n      dup5\n        /* \"#utility.yul\":11049:11153   */\n      tag_380\n      jump\t// in\n    tag_544:\n        /* \"#utility.yul\":11040:11153   */\n      swap1\n      pop\n        /* \"#utility.yul\":10879:11160   */\n      swap3\n      swap2\n      pop\n      pop\n      jump\t// out\n        /* \"#utility.yul\":11166:11576   */\n    tag_181:\n        /* \"#utility.yul\":11206:11213   */\n      0x00\n        /* \"#utility.yul\":11229:11249   */\n      tag_546\n        /* \"#utility.yul\":11247:11248   */\n      dup3\n        /* \"#utility.yul\":11229:11249   */\n      tag_353\n      jump\t// in\n    tag_546:\n        /* \"#utility.yul\":11224:11249   */\n      swap2\n      pop\n        /* \"#utility.yul\":11263:11283   */\n      tag_547\n        /* \"#utility.yul\":11281:11282   */\n      dup4\n        /* \"#utility.yul\":11263:11283   */\n      tag_353\n      jump\t// in\n    tag_547:\n        /* \"#utility.yul\":11258:11283   */\n      swap3\n      pop\n        /* \"#utility.yul\":11318:11319   */\n      dup3\n        /* \"#utility.yul\":11315:11316   */\n      dup3\n        /* \"#utility.yul\":11311:11320   */\n      mul\n        /* \"#utility.yul\":11340:11370   */\n      tag_548\n        /* \"#utility.yul\":11358:11369   */\n      dup2\n        /* \"#utility.yul\":11340:11370   */\n      tag_353\n      jump\t// in\n    tag_548:\n        /* \"#utility.yul\":11329:11370   */\n      swap2\n      pop\n        /* \"#utility.yul\":11519:11520   */\n      dup3\n        /* \"#utility.yul\":11510:11517   */\n      dup3\n        /* \"#utility.yul\":11506:11521   */\n      div\n        /* \"#utility.yul\":11503:11504   */\n      dup5\n        /* \"#utility.yul\":11500:11522   */\n      eq\n        /* \"#utility.yul\":11480:11481   */\n      dup4\n        /* \"#utility.yul\":11473:11482   */\n      iszero\n        /* \"#utility.yul\":11453:11536   */\n      or\n        /* \"#utility.yul\":11430:11569   */\n      tag_549\n      jumpi\n        /* \"#utility.yul\":11549:11567   */\n      tag_550\n      tag_376\n      jump\t// in\n    tag_550:\n        /* \"#utility.yul\":11430:11569   */\n    tag_549:\n        /* \"#utility.yul\":11214:11576   */\n      pop\n        /* \"#utility.yul\":11166:11576   */\n      swap3\n      swap2\n      pop\n      pop\n      jump\t// out\n        /* \"#utility.yul\":11582:11806   */\n    tag_381:\n        /* \"#utility.yul\":11722:11756   */\n      0x45524332303a2064656372656173656420616c6c6f77616e63652062656c6f77\n        /* \"#utility.yul\":11718:11719   */\n      0x00\n        /* \"#utility.yul\":11710:11716   */\n      dup3\n        /* \"#utility.yul\":11706:11720   */\n      add\n        /* \"#utility.yul\":11699:11757   */\n      mstore\n        /* \"#utility.yul\":11791:11798   */\n      0x207a65726f000000000000000000000000000000000000000000000000000000\n        /* \"#utility.yul\":11786:11788   */\n      0x20\n        /* \"#utility.yul\":11778:11784   */\n      dup3\n        /* \"#utility.yul\":11774:11789   */\n      add\n        /* \"#utility.yul\":11767:11799   */\n      mstore\n        /* \"#utility.yul\":11582:11806   */\n      pop\n      jump\t// out\n        /* \"#utility.yul\":11812:12178   */\n    tag_382:\n        /* \"#utility.yul\":11954:11957   */\n      0x00\n        /* \"#utility.yul\":11975:12042   */\n      tag_553\n        /* \"#utility.yul\":12039:12041   */\n      0x25\n        /* \"#utility.yul\":12034:12037   */\n      dup4\n        /* \"#utility.yul\":11975:12042   */\n      tag_357\n      jump\t// in\n    tag_553:\n        /* \"#utility.yul\":11968:12042   */\n      swap2\n      pop\n        /* \"#utility.yul\":12051:12144   */\n      tag_554\n        /* \"#utility.yul\":12140:12143   */\n      dup3\n        /* \"#utility.yul\":12051:12144   */\n      tag_381\n      jump\t// in\n    tag_554:\n        /* \"#utility.yul\":12169:12171   */\n      0x40\n        /* \"#utility.yul\":12164:12167   */\n      dup3\n        /* \"#utility.yul\":12160:12172   */\n      add\n        /* \"#utility.yul\":12153:12172   */\n      swap1\n      pop\n        /* \"#utility.yul\":11812:12178   */\n      swap2\n      swap1\n      pop\n      jump\t// out\n        /* \"#utility.yul\":12184:12603   */\n    tag_219:\n        /* \"#utility.yul\":12350:12354   */\n      0x00\n        /* \"#utility.yul\":12388:12390   */\n      0x20\n        /* \"#utility.yul\":12377:12386   */\n      dup3\n        /* \"#utility.yul\":12373:12391   */\n      add\n        /* \"#utility.yul\":12365:12391   */\n      swap1\n      pop\n        /* \"#utility.yul\":12437:12446   */\n      dup2\n        /* \"#utility.yul\":12431:12435   */\n      dup2\n        /* \"#utility.yul\":12427:12447   */\n      sub\n        /* \"#utility.yul\":12423:12424   */\n      0x00\n        /* \"#utility.yul\":12412:12421   */\n      dup4\n        /* \"#utility.yul\":12408:12425   */\n      add\n        /* \"#utility.yul\":12401:12448   */\n      mstore\n        /* \"#utility.yul\":12465:12596   */\n      tag_556\n        /* \"#utility.yul\":12591:12595   */\n      dup2\n        /* \"#utility.yul\":12465:12596   */\n      tag_382\n      jump\t// in\n    tag_556:\n        /* \"#utility.yul\":12457:12596   */\n      swap1\n      pop\n        /* \"#utility.yul\":12184:12603   */\n      swap2\n      swap1\n      pop\n      jump\t// out\n        /* \"#utility.yul\":12609:12834   */\n    tag_383:\n        /* \"#utility.yul\":12749:12783   */\n      0x4f776e61626c653a206e6577206f776e657220697320746865207a65726f2061\n        /* \"#utility.yul\":12745:12746   */\n      0x00\n        /* \"#utility.yul\":12737:12743   */\n      dup3\n        /* \"#utility.yul\":12733:12747   */\n      add\n        /* \"#utility.yul\":12726:12784   */\n      mstore\n        /* \"#utility.yul\":12818:12826   */\n      0x6464726573730000000000000000000000000000000000000000000000000000\n        /* \"#utility.yul\":12813:12815   */\n      0x20\n        /* \"#utility.yul\":12805:12811   */\n      dup3\n        /* \"#utility.yul\":12801:12816   */\n      add\n        /* \"#utility.yul\":12794:12827   */\n      mstore\n        /* \"#utility.yul\":12609:12834   */\n      pop\n      jump\t// out\n        /* \"#utility.yul\":12840:13206   */\n    tag_384:\n        /* \"#utility.yul\":12982:12985   */\n      0x00\n        /* \"#utility.yul\":13003:13070   */\n      tag_559\n        /* \"#utility.yul\":13067:13069   */\n      0x26\n        /* \"#utility.yul\":13062:13065   */\n      dup4\n        /* \"#utility.yul\":13003:13070   */\n      tag_357\n      jump\t// in\n    tag_559:\n        /* \"#utility.yul\":12996:13070   */\n      swap2\n      pop\n        /* \"#utility.yul\":13079:13172   */\n      tag_560\n        /* \"#utility.yul\":13168:13171   */\n      dup3\n        /* \"#utility.yul\":13079:13172   */\n      tag_383\n      jump\t// in\n    tag_560:\n        /* \"#utility.yul\":13197:13199   */\n      0x40\n        /* \"#utility.yul\":13192:13195   */\n      dup3\n        /* \"#utility.yul\":13188:13200   */\n      add\n        /* \"#utility.yul\":13181:13200   */\n      swap1\n      pop\n        /* \"#utility.yul\":12840:13206   */\n      swap2\n      swap1\n      pop\n      jump\t// out\n        /* \"#utility.yul\":13212:13631   */\n    tag_235:\n        /* \"#utility.yul\":13378:13382   */\n      0x00\n        /* \"#utility.yul\":13416:13418   */\n      0x20\n        /* \"#utility.yul\":13405:13414   */\n      dup3\n        /* \"#utility.yul\":13401:13419   */\n      add\n        /* \"#utility.yul\":13393:13419   */\n      swap1\n      pop\n        /* \"#utility.yul\":13465:13474   */\n      dup2\n        /* \"#utility.yul\":13459:13463   */\n      dup2\n        /* \"#utility.yul\":13455:13475   */\n      sub\n        /* \"#utility.yul\":13451:13452   */\n      0x00\n        /* \"#utility.yul\":13440:13449   */\n      dup4\n        /* \"#utility.yul\":13436:13453   */\n      add\n        /* \"#utility.yul\":13429:13476   */\n      mstore\n        /* \"#utility.yul\":13493:13624   */\n      tag_562\n        /* \"#utility.yul\":13619:13623   */\n      dup2\n        /* \"#utility.yul\":13493:13624   */\n      tag_384\n      jump\t// in\n    tag_562:\n        /* \"#utility.yul\":13485:13624   */\n      swap1\n      pop\n        /* \"#utility.yul\":13212:13631   */\n      swap2\n      swap1\n      pop\n      jump\t// out\n        /* \"#utility.yul\":13637:13819   */\n    tag_385:\n        /* \"#utility.yul\":13777:13811   */\n      0x4f776e61626c653a2063616c6c6572206973206e6f7420746865206f776e6572\n        /* \"#utility.yul\":13773:13774   */\n      0x00\n        /* \"#utility.yul\":13765:13771   */\n      dup3\n        /* \"#utility.yul\":13761:13775   */\n      add\n        /* \"#utility.yul\":13754:13812   */\n      mstore\n        /* \"#utility.yul\":13637:13819   */\n      pop\n      jump\t// out\n        /* \"#utility.yul\":13825:14191   */\n    tag_386:\n        /* \"#utility.yul\":13967:13970   */\n      0x00\n        /* \"#utility.yul\":13988:14055   */\n      tag_565\n        /* \"#utility.yul\":14052:14054   */\n      0x20\n        /* \"#utility.yul\":14047:14050   */\n      dup4\n        /* \"#utility.yul\":13988:14055   */\n      tag_357\n      jump\t// in\n    tag_565:\n        /* \"#utility.yul\":13981:14055   */\n      swap2\n      pop\n        /* \"#utility.yul\":14064:14157   */\n      tag_566\n        /* \"#utility.yul\":14153:14156   */\n      dup3\n        /* \"#utility.yul\":14064:14157   */\n      tag_385\n      jump\t// in\n    tag_566:\n        /* \"#utility.yul\":14182:14184   */\n      0x20\n        /* \"#utility.yul\":14177:14180   */\n      dup3\n        /* \"#utility.yul\":14173:14185   */\n      add\n        /* \"#utility.yul\":14166:14185   */\n      swap1\n      pop\n        /* \"#utility.yul\":13825:14191   */\n      swap2\n      swap1\n      pop\n      jump\t// out\n        /* \"#utility.yul\":14197:14616   */\n    tag_242:\n        /* \"#utility.yul\":14363:14367   */\n      0x00\n        /* \"#utility.yul\":14401:14403   */\n      0x20\n        /* \"#utility.yul\":14390:14399   */\n      dup3\n        /* \"#utility.yul\":14386:14404   */\n      add\n        /* \"#utility.yul\":14378:14404   */\n      swap1\n      pop\n        /* \"#utility.yul\":14450:14459   */\n      dup2\n        /* \"#utility.yul\":14444:14448   */\n      dup2\n        /* \"#utility.yul\":14440:14460   */\n      sub\n        /* \"#utility.yul\":14436:14437   */\n      0x00\n        /* \"#utility.yul\":14425:14434   */\n      dup4\n        /* \"#utility.yul\":14421:14438   */\n      add\n        /* \"#utility.yul\":14414:14461   */\n      mstore\n        /* \"#utility.yul\":14478:14609   */\n      tag_568\n        /* \"#utility.yul\":14604:14608   */\n      dup2\n        /* \"#utility.yul\":14478:14609   */\n      tag_386\n      jump\t// in\n    tag_568:\n        /* \"#utility.yul\":14470:14609   */\n      swap1\n      pop\n        /* \"#utility.yul\":14197:14616   */\n      swap2\n      swap1\n      pop\n      jump\t// out\n        /* \"#utility.yul\":14622:14845   */\n    tag_387:\n        /* \"#utility.yul\":14762:14796   */\n      0x45524332303a20617070726f76652066726f6d20746865207a65726f20616464\n        /* \"#utility.yul\":14758:14759   */\n      0x00\n        /* \"#utility.yul\":14750:14756   */\n      dup3\n        /* \"#utility.yul\":14746:14760   */\n      add\n        /* \"#utility.yul\":14739:14797   */\n      mstore\n        /* \"#utility.yul\":14831:14837   */\n      0x7265737300000000000000000000000000000000000000000000000000000000\n        /* \"#utility.yul\":14826:14828   */\n      0x20\n        /* \"#utility.yul\":14818:14824   */\n      dup3\n        /* \"#utility.yul\":14814:14829   */\n      add\n        /* \"#utility.yul\":14807:14838   */\n      mstore\n        /* \"#utility.yul\":14622:14845   */\n      pop\n      jump\t// out\n        /* \"#utility.yul\":14851:15217   */\n    tag_388:\n        /* \"#utility.yul\":14993:14996   */\n      0x00\n        /* \"#utility.yul\":15014:15081   */\n      tag_571\n        /* \"#utility.yul\":15078:15080   */\n      0x24\n        /* \"#utility.yul\":15073:15076   */\n      dup4\n        /* \"#utility.yul\":15014:15081   */\n      tag_357\n      jump\t// in\n    tag_571:\n        /* \"#utility.yul\":15007:15081   */\n      swap2\n      pop\n        /* \"#utility.yul\":15090:15183   */\n      tag_572\n        /* \"#utility.yul\":15179:15182   */\n      dup3\n        /* \"#utility.yul\":15090:15183   */\n      tag_387\n      jump\t// in\n    tag_572:\n        /* \"#utility.yul\":15208:15210   */\n      0x40\n        /* \"#utility.yul\":15203:15206   */\n      dup3\n        /* \"#utility.yul\":15199:15211   */\n      add\n        /* \"#utility.yul\":15192:15211   */\n      swap1\n      pop\n        /* \"#utility.yul\":14851:15217   */\n      swap2\n      swap1\n      pop\n      jump\t// out\n        /* \"#utility.yul\":15223:15642   */\n    tag_247:\n        /* \"#utility.yul\":15389:15393   */\n      0x00\n        /* \"#utility.yul\":15427:15429   */\n      0x20\n        /* \"#utility.yul\":15416:15425   */\n      dup3\n        /* \"#utility.yul\":15412:15430   */\n      add\n        /* \"#utility.yul\":15404:15430   */\n      swap1\n      pop\n        /* \"#utility.yul\":15476:15485   */\n      dup2\n        /* \"#utility.yul\":15470:15474   */\n      dup2\n        /* \"#utility.yul\":15466:15486   */\n      sub\n        /* \"#utility.yul\":15462:15463   */\n      0x00\n        /* \"#utility.yul\":15451:15460   */\n      dup4\n        /* \"#utility.yul\":15447:15464   */\n      add\n        /* \"#utility.yul\":15440:15487   */\n      mstore\n        /* \"#utility.yul\":15504:15635   */\n      tag_574\n        /* \"#utility.yul\":15630:15634   */\n      dup2\n        /* \"#utility.yul\":15504:15635   */\n      tag_388\n      jump\t// in\n    tag_574:\n        /* \"#utility.yul\":15496:15635   */\n      swap1\n      pop\n        /* \"#utility.yul\":15223:15642   */\n      swap2\n      swap1\n      pop\n      jump\t// out\n        /* \"#utility.yul\":15648:15869   */\n    tag_389:\n        /* \"#utility.yul\":15788:15822   */\n      0x45524332303a20617070726f766520746f20746865207a65726f206164647265\n        /* \"#utility.yul\":15784:15785   */\n      0x00\n        /* \"#utility.yul\":15776:15782   */\n      dup3\n        /* \"#utility.yul\":15772:15786   */\n      add\n        /* \"#utility.yul\":15765:15823   */\n      mstore\n        /* \"#utility.yul\":15857:15861   */\n      0x7373000000000000000000000000000000000000000000000000000000000000\n        /* \"#utility.yul\":15852:15854   */\n      0x20\n        /* \"#utility.yul\":15844:15850   */\n      dup3\n        /* \"#utility.yul\":15840:15855   */\n      add\n        /* \"#utility.yul\":15833:15862   */\n      mstore\n        /* \"#utility.yul\":15648:15869   */\n      pop\n      jump\t// out\n        /* \"#utility.yul\":15875:16241   */\n    tag_390:\n        /* \"#utility.yul\":16017:16020   */\n      0x00\n        /* \"#utility.yul\":16038:16105   */\n      tag_577\n        /* \"#utility.yul\":16102:16104   */\n      0x22\n        /* \"#utility.yul\":16097:16100   */\n      dup4\n        /* \"#utility.yul\":16038:16105   */\n      tag_357\n      jump\t// in\n    tag_577:\n        /* \"#utility.yul\":16031:16105   */\n      swap2\n      pop\n        /* \"#utility.yul\":16114:16207   */\n      tag_578\n        /* \"#utility.yul\":16203:16206   */\n      dup3\n        /* \"#utility.yul\":16114:16207   */\n      tag_389\n      jump\t// in\n    tag_578:\n        /* \"#utility.yul\":16232:16234   */\n      0x40\n        /* \"#utility.yul\":16227:16230   */\n      dup3\n        /* \"#utility.yul\":16223:16235   */\n      add\n        /* \"#utility.yul\":16216:16235   */\n      swap1\n      pop\n        /* \"#utility.yul\":15875:16241   */\n      swap2\n      swap1\n      pop\n      jump\t// out\n        /* \"#utility.yul\":16247:16666   */\n    tag_250:\n        /* \"#utility.yul\":16413:16417   */\n      0x00\n        /* \"#utility.yul\":16451:16453   */\n      0x20\n        /* \"#utility.yul\":16440:16449   */\n      dup3\n        /* \"#utility.yul\":16436:16454   */\n      add\n        /* \"#utility.yul\":16428:16454   */\n      swap1\n      pop\n        /* \"#utility.yul\":16500:16509   */\n      dup2\n        /* \"#utility.yul\":16494:16498   */\n      dup2\n        /* \"#utility.yul\":16490:16510   */\n      sub\n        /* \"#utility.yul\":16486:16487   */\n      0x00\n        /* \"#utility.yul\":16475:16484   */\n      dup4\n        /* \"#utility.yul\":16471:16488   */\n      add\n        /* \"#utility.yul\":16464:16511   */\n      mstore\n        /* \"#utility.yul\":16528:16659   */\n      tag_580\n        /* \"#utility.yul\":16654:16658   */\n      dup2\n        /* \"#utility.yul\":16528:16659   */\n      tag_390\n      jump\t// in\n    tag_580:\n        /* \"#utility.yul\":16520:16659   */\n      swap1\n      pop\n        /* \"#utility.yul\":16247:16666   */\n      swap2\n      swap1\n      pop\n      jump\t// out\n        /* \"#utility.yul\":16672:16851   */\n    tag_391:\n        /* \"#utility.yul\":16812:16843   */\n      0x45524332303a20696e73756666696369656e7420616c6c6f77616e6365000000\n        /* \"#utility.yul\":16808:16809   */\n      0x00\n        /* \"#utility.yul\":16800:16806   */\n      dup3\n        /* \"#utility.yul\":16796:16810   */\n      add\n        /* \"#utility.yul\":16789:16844   */\n      mstore\n        /* \"#utility.yul\":16672:16851   */\n      pop\n      jump\t// out\n        /* \"#utility.yul\":16857:17223   */\n    tag_392:\n        /* \"#utility.yul\":16999:17002   */\n      0x00\n        /* \"#utility.yul\":17020:17087   */\n      tag_583\n        /* \"#utility.yul\":17084:17086   */\n      0x1d\n        /* \"#utility.yul\":17079:17082   */\n      dup4\n        /* \"#utility.yul\":17020:17087   */\n      tag_357\n      jump\t// in\n    tag_583:\n        /* \"#utility.yul\":17013:17087   */\n      swap2\n      pop\n        /* \"#utility.yul\":17096:17189   */\n      tag_584\n        /* \"#utility.yul\":17185:17188   */\n      dup3\n        /* \"#utility.yul\":17096:17189   */\n      tag_391\n      jump\t// in\n    tag_584:\n        /* \"#utility.yul\":17214:17216   */\n      0x20\n        /* \"#utility.yul\":17209:17212   */\n      dup3\n        /* \"#utility.yul\":17205:17217   */\n      add\n        /* \"#utility.yul\":17198:17217   */\n      swap1\n      pop\n        /* \"#utility.yul\":16857:17223   */\n      swap2\n      swap1\n      pop\n      jump\t// out\n        /* \"#utility.yul\":17229:17648   */\n    tag_257:\n        /* \"#utility.yul\":17395:17399   */\n      0x00\n        /* \"#utility.yul\":17433:17435   */\n      0x20\n        /* \"#utility.yul\":17422:17431   */\n      dup3\n        /* \"#utility.yul\":17418:17436   */\n      add\n        /* \"#utility.yul\":17410:17436   */\n      swap1\n      pop\n        /* \"#utility.yul\":17482:17491   */\n      dup2\n        /* \"#utility.yul\":17476:17480   */\n      dup2\n        /* \"#utility.yul\":17472:17492   */\n      sub\n        /* \"#utility.yul\":17468:17469   */\n      0x00\n        /* \"#utility.yul\":17457:17466   */\n      dup4\n        /* \"#utility.yul\":17453:17470   */\n      add\n        /* \"#utility.yul\":17446:17493   */\n      mstore\n        /* \"#utility.yul\":17510:17641   */\n      tag_586\n        /* \"#utility.yul\":17636:17640   */\n      dup2\n        /* \"#utility.yul\":17510:17641   */\n      tag_392\n      jump\t// in\n    tag_586:\n        /* \"#utility.yul\":17502:17641   */\n      swap1\n      pop\n        /* \"#utility.yul\":17229:17648   */\n      swap2\n      swap1\n      pop\n      jump\t// out\n        /* \"#utility.yul\":17654:17834   */\n    tag_393:\n        /* \"#utility.yul\":17702:17779   */\n      0x4e487b7100000000000000000000000000000000000000000000000000000000\n        /* \"#utility.yul\":17699:17700   */\n      0x00\n        /* \"#utility.yul\":17692:17780   */\n      mstore\n        /* \"#utility.yul\":17799:17803   */\n      0x12\n        /* \"#utility.yul\":17796:17797   */\n      0x04\n        /* \"#utility.yul\":17789:17804   */\n      mstore\n        /* \"#utility.yul\":17823:17827   */\n      0x24\n        /* \"#utility.yul\":17820:17821   */\n      0x00\n        /* \"#utility.yul\":17813:17828   */\n      revert\n        /* \"#utility.yul\":17840:18025   */\n    tag_263:\n        /* \"#utility.yul\":17880:17881   */\n      0x00\n        /* \"#utility.yul\":17897:17917   */\n      tag_589\n        /* \"#utility.yul\":17915:17916   */\n      dup3\n        /* \"#utility.yul\":17897:17917   */\n      tag_353\n      jump\t// in\n    tag_589:\n        /* \"#utility.yul\":17892:17917   */\n      swap2\n      pop\n        /* \"#utility.yul\":17931:17951   */\n      tag_590\n        /* \"#utility.yul\":17949:17950   */\n      dup4\n        /* \"#utility.yul\":17931:17951   */\n      tag_353\n      jump\t// in\n    tag_590:\n        /* \"#utility.yul\":17926:17951   */\n      swap3\n      pop\n        /* \"#utility.yul\":17970:17971   */\n      dup3\n        /* \"#utility.yul\":17960:17995   */\n      tag_591\n      jumpi\n        /* \"#utility.yul\":17975:17993   */\n      tag_592\n      tag_393\n      jump\t// in\n    tag_592:\n        /* \"#utility.yul\":17960:17995   */\n    tag_591:\n        /* \"#utility.yul\":18017:18018   */\n      dup3\n        /* \"#utility.yul\":18014:18015   */\n      dup3\n        /* \"#utility.yul\":18010:18019   */\n      div\n        /* \"#utility.yul\":18005:18019   */\n      swap1\n      pop\n        /* \"#utility.yul\":17840:18025   */\n      swap3\n      swap2\n      pop\n      pop\n      jump\t// out\n        /* \"#utility.yul\":18031:18225   */\n    tag_270:\n        /* \"#utility.yul\":18071:18075   */\n      0x00\n        /* \"#utility.yul\":18091:18111   */\n      tag_594\n        /* \"#utility.yul\":18109:18110   */\n      dup3\n        /* \"#utility.yul\":18091:18111   */\n      tag_353\n      jump\t// in\n    tag_594:\n        /* \"#utility.yul\":18086:18111   */\n      swap2\n      pop\n        /* \"#utility.yul\":18125:18145   */\n      tag_595\n        /* \"#utility.yul\":18143:18144   */\n      dup4\n        /* \"#utility.yul\":18125:18145   */\n      tag_353\n      jump\t// in\n    tag_595:\n        /* \"#utility.yul\":18120:18145   */\n      swap3\n      pop\n        /* \"#utility.yul\":18169:18170   */\n      dup3\n        /* \"#utility.yul\":18166:18167   */\n      dup3\n        /* \"#utility.yul\":18162:18171   */\n      sub\n        /* \"#utility.yul\":18154:18171   */\n      swap1\n      pop\n        /* \"#utility.yul\":18193:18194   */\n      dup2\n        /* \"#utility.yul\":18187:18191   */\n      dup2\n        /* \"#utility.yul\":18184:18195   */\n      gt\n        /* \"#utility.yul\":18181:18218   */\n      iszero\n      tag_596\n      jumpi\n        /* \"#utility.yul\":18198:18216   */\n      tag_597\n      tag_376\n      jump\t// in\n    tag_597:\n        /* \"#utility.yul\":18181:18218   */\n    tag_596:\n        /* \"#utility.yul\":18031:18225   */\n      swap3\n      swap2\n      pop\n      pop\n      jump\t// out\n        /* \"#utility.yul\":18231:18411   */\n    tag_275:\n        /* \"#utility.yul\":18279:18356   */\n      0x4e487b7100000000000000000000000000000000000000000000000000000000\n        /* \"#utility.yul\":18276:18277   */\n      0x00\n        /* \"#utility.yul\":18269:18357   */\n      mstore\n        /* \"#utility.yul\":18376:18380   */\n      0x21\n        /* \"#utility.yul\":18373:18374   */\n      0x04\n        /* \"#utility.yul\":18366:18381   */\n      mstore\n        /* \"#utility.yul\":18400:18404   */\n      0x24\n        /* \"#utility.yul\":18397:18398   */\n      0x00\n        /* \"#utility.yul\":18390:18405   */\n      revert\n        /* \"#utility.yul\":18417:18641   */\n    tag_394:\n        /* \"#utility.yul\":18557:18591   */\n      0x45524332303a207472616e736665722066726f6d20746865207a65726f206164\n        /* \"#utility.yul\":18553:18554   */\n      0x00\n        /* \"#utility.yul\":18545:18551   */\n      dup3\n        /* \"#utility.yul\":18541:18555   */\n      add\n        /* \"#utility.yul\":18534:18592   */\n      mstore\n        /* \"#utility.yul\":18626:18633   */\n      0x6472657373000000000000000000000000000000000000000000000000000000\n        /* \"#utility.yul\":18621:18623   */\n      0x20\n        /* \"#utility.yul\":18613:18619   */\n      dup3\n        /* \"#utility.yul\":18609:18624   */\n      add\n        /* \"#utility.yul\":18602:18634   */\n      mstore\n        /* \"#utility.yul\":18417:18641   */\n      pop\n      jump\t// out\n        /* \"#utility.yul\":18647:19013   */\n    tag_395:\n        /* \"#utility.yul\":18789:18792   */\n      0x00\n        /* \"#utility.yul\":18810:18877   */\n      tag_601\n        /* \"#utility.yul\":18874:18876   */\n      0x25\n        /* \"#utility.yul\":18869:18872   */\n      dup4\n        /* \"#utility.yul\":18810:18877   */\n      tag_357\n      jump\t// in\n    tag_601:\n        /* \"#utility.yul\":18803:18877   */\n      swap2\n      pop\n        /* \"#utility.yul\":18886:18979   */\n      tag_602\n        /* \"#utility.yul\":18975:18978   */\n      dup3\n        /* \"#utility.yul\":18886:18979   */\n      tag_394\n      jump\t// in\n    tag_602:\n        /* \"#utility.yul\":19004:19006   */\n      0x40\n        /* \"#utility.yul\":18999:19002   */\n      dup3\n        /* \"#utility.yul\":18995:19007   */\n      add\n        /* \"#utility.yul\":18988:19007   */\n      swap1\n      pop\n        /* \"#utility.yul\":18647:19013   */\n      swap2\n      swap1\n      pop\n      jump\t// out\n        /* \"#utility.yul\":19019:19438   */\n    tag_306:\n        /* \"#utility.yul\":19185:19189   */\n      0x00\n        /* \"#utility.yul\":19223:19225   */\n      0x20\n        /* \"#utility.yul\":19212:19221   */\n      dup3\n        /* \"#utility.yul\":19208:19226   */\n      add\n        /* \"#utility.yul\":19200:19226   */\n      swap1\n      pop\n        /* \"#utility.yul\":19272:19281   */\n      dup2\n        /* \"#utility.yul\":19266:19270   */\n      dup2\n        /* \"#utility.yul\":19262:19282   */\n      sub\n        /* \"#utility.yul\":19258:19259   */\n      0x00\n        /* \"#utility.yul\":19247:19256   */\n      dup4\n        /* \"#utility.yul\":19243:19260   */\n      add\n        /* \"#utility.yul\":19236:19283   */\n      mstore\n        /* \"#utility.yul\":19300:19431   */\n      tag_604\n        /* \"#utility.yul\":19426:19430   */\n      dup2\n        /* \"#utility.yul\":19300:19431   */\n      tag_395\n      jump\t// in\n    tag_604:\n        /* \"#utility.yul\":19292:19431   */\n      swap1\n      pop\n        /* \"#utility.yul\":19019:19438   */\n      swap2\n      swap1\n      pop\n      jump\t// out\n        /* \"#utility.yul\":19444:19666   */\n    tag_396:\n        /* \"#utility.yul\":19584:19618   */\n      0x45524332303a207472616e7366657220746f20746865207a65726f2061646472\n        /* \"#utility.yul\":19580:19581   */\n      0x00\n        /* \"#utility.yul\":19572:19578   */\n      dup3\n        /* \"#utility.yul\":19568:19582   */\n      add\n        /* \"#utility.yul\":19561:19619   */\n      mstore\n        /* \"#utility.yul\":19653:19658   */\n      0x6573730000000000000000000000000000000000000000000000000000000000\n        /* \"#utility.yul\":19648:19650   */\n      0x20\n        /* \"#utility.yul\":19640:19646   */\n      dup3\n        /* \"#utility.yul\":19636:19651   */\n      add\n        /* \"#utility.yul\":19629:19659   */\n      mstore\n        /* \"#utility.yul\":19444:19666   */\n      pop\n      jump\t// out\n        /* \"#utility.yul\":19672:20038   */\n    tag_397:\n        /* \"#utility.yul\":19814:19817   */\n      0x00\n        /* \"#utility.yul\":19835:19902   */\n      tag_607\n        /* \"#utility.yul\":19899:19901   */\n      0x23\n        /* \"#utility.yul\":19894:19897   */\n      dup4\n        /* \"#utility.yul\":19835:19902   */\n      tag_357\n      jump\t// in\n    tag_607:\n        /* \"#utility.yul\":19828:19902   */\n      swap2\n      pop\n        /* \"#utility.yul\":19911:20004   */\n      tag_608\n        /* \"#utility.yul\":20000:20003   */\n      dup3\n        /* \"#utility.yul\":19911:20004   */\n      tag_396\n      jump\t// in\n    tag_608:\n        /* \"#utility.yul\":20029:20031   */\n      0x40\n        /* \"#utility.yul\":20024:20027   */\n      dup3\n        /* \"#utility.yul\":20020:20032   */\n      add\n        /* \"#utility.yul\":20013:20032   */\n      swap1\n      pop\n        /* \"#utility.yul\":19672:20038   */\n      swap2\n      swap1\n      pop\n      jump\t// out\n        /* \"#utility.yul\":20044:20463   */\n    tag_309:\n        /* \"#utility.yul\":20210:20214   */\n      0x00\n        /* \"#utility.yul\":20248:20250   */\n      0x20\n        /* \"#utility.yul\":20237:20246   */\n      dup3\n        /* \"#utility.yul\":20233:20251   */\n      add\n        /* \"#utility.yul\":20225:20251   */\n      swap1\n      pop\n        /* \"#utility.yul\":20297:20306   */\n      dup2\n        /* \"#utility.yul\":20291:20295   */\n      dup2\n        /* \"#utility.yul\":20287:20307   */\n      sub\n        /* \"#utility.yul\":20283:20284   */\n      0x00\n        /* \"#utility.yul\":20272:20281   */\n      dup4\n        /* \"#utility.yul\":20268:20285   */\n      add\n        /* \"#utility.yul\":20261:20308   */\n      mstore\n        /* \"#utility.yul\":20325:20456   */\n      tag_610\n        /* \"#utility.yul\":20451:20455   */\n      dup2\n        /* \"#utility.yul\":20325:20456   */\n      tag_397\n      jump\t// in\n    tag_610:\n        /* \"#utility.yul\":20317:20456   */\n      swap1\n      pop\n        /* \"#utility.yul\":20044:20463   */\n      swap2\n      swap1\n      pop\n      jump\t// out\n        /* \"#utility.yul\":20469:20694   */\n    tag_398:\n        /* \"#utility.yul\":20609:20643   */\n      0x45524332303a207472616e7366657220616d6f756e7420657863656564732062\n        /* \"#utility.yul\":20605:20606   */\n      0x00\n        /* \"#utility.yul\":20597:20603   */\n      dup3\n        /* \"#utility.yul\":20593:20607   */\n      add\n        /* \"#utility.yul\":20586:20644   */\n      mstore\n        /* \"#utility.yul\":20678:20686   */\n      0x616c616e63650000000000000000000000000000000000000000000000000000\n        /* \"#utility.yul\":20673:20675   */\n      0x20\n        /* \"#utility.yul\":20665:20671   */\n      dup3\n        /* \"#utility.yul\":20661:20676   */\n      add\n        /* \"#utility.yul\":20654:20687   */\n      mstore\n        /* \"#utility.yul\":20469:20694   */\n      pop\n      jump\t// out\n        /* \"#utility.yul\":20700:21066   */\n    tag_399:\n        /* \"#utility.yul\":20842:20845   */\n      0x00\n        /* \"#utility.yul\":20863:20930   */\n      tag_613\n        /* \"#utility.yul\":20927:20929   */\n      0x26\n        /* \"#utility.yul\":20922:20925   */\n      dup4\n        /* \"#utility.yul\":20863:20930   */\n      tag_357\n      jump\t// in\n    tag_613:\n        /* \"#utility.yul\":20856:20930   */\n      swap2\n      pop\n        /* \"#utility.yul\":20939:21032   */\n      tag_614\n        /* \"#utility.yul\":21028:21031   */\n      dup3\n        /* \"#utility.yul\":20939:21032   */\n      tag_398\n      jump\t// in\n    tag_614:\n        /* \"#utility.yul\":21057:21059   */\n      0x40\n        /* \"#utility.yul\":21052:21055   */\n      dup3\n        /* \"#utility.yul\":21048:21060   */\n      add\n        /* \"#utility.yul\":21041:21060   */\n      swap1\n      pop\n        /* \"#utility.yul\":20700:21066   */\n      swap2\n      swap1\n      pop\n      jump\t// out\n        /* \"#utility.yul\":21072:21491   */\n    tag_312:\n        /* \"#utility.yul\":21238:21242   */\n      0x00\n        /* \"#utility.yul\":21276:21278   */\n      0x20\n        /* \"#utility.yul\":21265:21274   */\n      dup3\n        /* \"#utility.yul\":21261:21279   */\n      add\n        /* \"#utility.yul\":21253:21279   */\n      swap1\n      pop\n        /* \"#utility.yul\":21325:21334   */\n      dup2\n        /* \"#utility.yul\":21319:21323   */\n      dup2\n        /* \"#utility.yul\":21315:21335   */\n      sub\n        /* \"#utility.yul\":21311:21312   */\n      0x00\n        /* \"#utility.yul\":21300:21309   */\n      dup4\n        /* \"#utility.yul\":21296:21313   */\n      add\n        /* \"#utility.yul\":21289:21336   */\n      mstore\n        /* \"#utility.yul\":21353:21484   */\n      tag_616\n        /* \"#utility.yul\":21479:21483   */\n      dup2\n        /* \"#utility.yul\":21353:21484   */\n      tag_399\n      jump\t// in\n    tag_616:\n        /* \"#utility.yul\":21345:21484   */\n      swap1\n      pop\n        /* \"#utility.yul\":21072:21491   */\n      swap2\n      swap1\n      pop\n      jump\t// out\n        /* \"#utility.yul\":21497:21677   */\n    tag_326:\n        /* \"#utility.yul\":21545:21622   */\n      0x4e487b7100000000000000000000000000000000000000000000000000000000\n        /* \"#utility.yul\":21542:21543   */\n      0x00\n        /* \"#utility.yul\":21535:21623   */\n      mstore\n        /* \"#utility.yul\":21642:21646   */\n      0x41\n        /* \"#utility.yul\":21639:21640   */\n      0x04\n        /* \"#utility.yul\":21632:21647   */\n      mstore\n        /* \"#utility.yul\":21666:21670   */\n      0x24\n        /* \"#utility.yul\":21663:21664   */\n      0x00\n        /* \"#utility.yul\":21656:21671   */\n      revert\n        /* \"#utility.yul\":21683:21863   */\n    tag_330:\n        /* \"#utility.yul\":21731:21808   */\n      0x4e487b7100000000000000000000000000000000000000000000000000000000\n        /* \"#utility.yul\":21728:21729   */\n      0x00\n        /* \"#utility.yul\":21721:21809   */\n      mstore\n        /* \"#utility.yul\":21828:21832   */\n      0x32\n        /* \"#utility.yul\":21825:21826   */\n      0x04\n        /* \"#utility.yul\":21818:21833   */\n      mstore\n        /* \"#utility.yul\":21852:21856   */\n      0x24\n        /* \"#utility.yul\":21849:21850   */\n      0x00\n        /* \"#utility.yul\":21842:21857   */\n      revert\n        /* \"#utility.yul\":21869:22012   */\n    tag_400:\n        /* \"#utility.yul\":21926:21931   */\n      0x00\n        /* \"#utility.yul\":21957:21963   */\n      dup2\n        /* \"#utility.yul\":21951:21964   */\n      mload\n        /* \"#utility.yul\":21942:21964   */\n      swap1\n      pop\n        /* \"#utility.yul\":21973:22006   */\n      tag_620\n        /* \"#utility.yul\":22000:22005   */\n      dup2\n        /* \"#utility.yul\":21973:22006   */\n      tag_363\n      jump\t// in\n    tag_620:\n        /* \"#utility.yul\":21869:22012   */\n      swap3\n      swap2\n      pop\n      pop\n      jump\t// out\n        /* \"#utility.yul\":22018:22369   */\n    tag_334:\n        /* \"#utility.yul\":22088:22094   */\n      0x00\n        /* \"#utility.yul\":22137:22139   */\n      0x20\n        /* \"#utility.yul\":22125:22134   */\n      dup3\n        /* \"#utility.yul\":22116:22123   */\n      dup5\n        /* \"#utility.yul\":22112:22135   */\n      sub\n        /* \"#utility.yul\":22108:22140   */\n      slt\n        /* \"#utility.yul\":22105:22224   */\n      iszero\n      tag_622\n      jumpi\n        /* \"#utility.yul\":22143:22222   */\n      tag_623\n      tag_351\n      jump\t// in\n    tag_623:\n        /* \"#utility.yul\":22105:22224   */\n    tag_622:\n        /* \"#utility.yul\":22263:22264   */\n      0x00\n        /* \"#utility.yul\":22288:22352   */\n      tag_624\n        /* \"#utility.yul\":22344:22351   */\n      dup5\n        /* \"#utility.yul\":22335:22341   */\n      dup3\n        /* \"#utility.yul\":22324:22333   */\n      dup6\n        /* \"#utility.yul\":22320:22342   */\n      add\n        /* \"#utility.yul\":22288:22352   */\n      tag_400\n      jump\t// in\n    tag_624:\n        /* \"#utility.yul\":22278:22352   */\n      swap2\n      pop\n        /* \"#utility.yul\":22234:22362   */\n      pop\n        /* \"#utility.yul\":22018:22369   */\n      swap3\n      swap2\n      pop\n      pop\n      jump\t// out\n        /* \"#utility.yul\":22375:22460   */\n    tag_401:\n        /* \"#utility.yul\":22420:22427   */\n      0x00\n        /* \"#utility.yul\":22449:22454   */\n      dup2\n        /* \"#utility.yul\":22438:22454   */\n      swap1\n      pop\n        /* \"#utility.yul\":22375:22460   */\n      swap2\n      swap1\n      pop\n      jump\t// out\n        /* \"#utility.yul\":22466:22624   */\n    tag_402:\n        /* \"#utility.yul\":22524:22533   */\n      0x00\n        /* \"#utility.yul\":22557:22618   */\n      tag_627\n        /* \"#utility.yul\":22575:22617   */\n      tag_628\n        /* \"#utility.yul\":22584:22616   */\n      tag_629\n        /* \"#utility.yul\":22610:22615   */\n      dup5\n        /* \"#utility.yul\":22584:22616   */\n      tag_401\n      jump\t// in\n    tag_629:\n        /* \"#utility.yul\":22575:22617   */\n      tag_371\n      jump\t// in\n    tag_628:\n        /* \"#utility.yul\":22557:22618   */\n      tag_353\n      jump\t// in\n    tag_627:\n        /* \"#utility.yul\":22544:22618   */\n      swap1\n      pop\n        /* \"#utility.yul\":22466:22624   */\n      swap2\n      swap1\n      pop\n      jump\t// out\n        /* \"#utility.yul\":22630:22777   */\n    tag_403:\n        /* \"#utility.yul\":22725:22770   */\n      tag_631\n        /* \"#utility.yul\":22764:22769   */\n      dup2\n        /* \"#utility.yul\":22725:22770   */\n      tag_402\n      jump\t// in\n    tag_631:\n        /* \"#utility.yul\":22720:22723   */\n      dup3\n        /* \"#utility.yul\":22713:22771   */\n      mstore\n        /* \"#utility.yul\":22630:22777   */\n      pop\n      pop\n      jump\t// out\n        /* \"#utility.yul\":22783:22897   */\n    tag_404:\n        /* \"#utility.yul\":22850:22856   */\n      0x00\n        /* \"#utility.yul\":22884:22889   */\n      dup2\n        /* \"#utility.yul\":22878:22890   */\n      mload\n        /* \"#utility.yul\":22868:22890   */\n      swap1\n      pop\n        /* \"#utility.yul\":22783:22897   */\n      swap2\n      swap1\n      pop\n      jump\t// out\n        /* \"#utility.yul\":22903:23087   */\n    tag_405:\n        /* \"#utility.yul\":23002:23013   */\n      0x00\n        /* \"#utility.yul\":23036:23042   */\n      dup3\n        /* \"#utility.yul\":23031:23034   */\n      dup3\n        /* \"#utility.yul\":23024:23043   */\n      mstore\n        /* \"#utility.yul\":23076:23080   */\n      0x20\n        /* \"#utility.yul\":23071:23074   */\n      dup3\n        /* \"#utility.yul\":23067:23081   */\n      add\n        /* \"#utility.yul\":23052:23081   */\n      swap1\n      pop\n        /* \"#utility.yul\":22903:23087   */\n      swap3\n      swap2\n      pop\n      pop\n      jump\t// out\n        /* \"#utility.yul\":23093:23225   */\n    tag_406:\n        /* \"#utility.yul\":23160:23164   */\n      0x00\n        /* \"#utility.yul\":23183:23186   */\n      dup2\n        /* \"#utility.yul\":23175:23186   */\n      swap1\n      pop\n        /* \"#utility.yul\":23213:23217   */\n      0x20\n        /* \"#utility.yul\":23208:23211   */\n      dup3\n        /* \"#utility.yul\":23204:23218   */\n      add\n        /* \"#utility.yul\":23196:23218   */\n      swap1\n      pop\n        /* \"#utility.yul\":23093:23225   */\n      swap2\n      swap1\n      pop\n      jump\t// out\n        /* \"#utility.yul\":23231:23339   */\n    tag_407:\n        /* \"#utility.yul\":23308:23332   */\n      tag_636\n        /* \"#utility.yul\":23326:23331   */\n      dup2\n        /* \"#utility.yul\":23308:23332   */\n      tag_362\n      jump\t// in\n    tag_636:\n        /* \"#utility.yul\":23303:23306   */\n      dup3\n        /* \"#utility.yul\":23296:23333   */\n      mstore\n        /* \"#utility.yul\":23231:23339   */\n      pop\n      pop\n      jump\t// out\n        /* \"#utility.yul\":23345:23524   */\n    tag_408:\n        /* \"#utility.yul\":23414:23424   */\n      0x00\n        /* \"#utility.yul\":23435:23481   */\n      tag_638\n        /* \"#utility.yul\":23477:23480   */\n      dup4\n        /* \"#utility.yul\":23469:23475   */\n      dup4\n        /* \"#utility.yul\":23435:23481   */\n      tag_407\n      jump\t// in\n    tag_638:\n        /* \"#utility.yul\":23513:23517   */\n      0x20\n        /* \"#utility.yul\":23508:23511   */\n      dup4\n        /* \"#utility.yul\":23504:23518   */\n      add\n        /* \"#utility.yul\":23490:23518   */\n      swap1\n      pop\n        /* \"#utility.yul\":23345:23524   */\n      swap3\n      swap2\n      pop\n      pop\n      jump\t// out\n        /* \"#utility.yul\":23530:23643   */\n    tag_409:\n        /* \"#utility.yul\":23600:23604   */\n      0x00\n        /* \"#utility.yul\":23632:23636   */\n      0x20\n        /* \"#utility.yul\":23627:23630   */\n      dup3\n        /* \"#utility.yul\":23623:23637   */\n      add\n        /* \"#utility.yul\":23615:23637   */\n      swap1\n      pop\n        /* \"#utility.yul\":23530:23643   */\n      swap2\n      swap1\n      pop\n      jump\t// out\n        /* \"#utility.yul\":23679:24411   */\n    tag_410:\n        /* \"#utility.yul\":23798:23801   */\n      0x00\n        /* \"#utility.yul\":23827:23881   */\n      tag_641\n        /* \"#utility.yul\":23875:23880   */\n      dup3\n        /* \"#utility.yul\":23827:23881   */\n      tag_404\n      jump\t// in\n    tag_641:\n        /* \"#utility.yul\":23897:23983   */\n      tag_642\n        /* \"#utility.yul\":23976:23982   */\n      dup2\n        /* \"#utility.yul\":23971:23974   */\n      dup6\n        /* \"#utility.yul\":23897:23983   */\n      tag_405\n      jump\t// in\n    tag_642:\n        /* \"#utility.yul\":23890:23983   */\n      swap4\n      pop\n        /* \"#utility.yul\":24007:24063   */\n      tag_643\n        /* \"#utility.yul\":24057:24062   */\n      dup4\n        /* \"#utility.yul\":24007:24063   */\n      tag_406\n      jump\t// in\n    tag_643:\n        /* \"#utility.yul\":24086:24093   */\n      dup1\n        /* \"#utility.yul\":24117:24118   */\n      0x00\n        /* \"#utility.yul\":24102:24386   */\n    tag_644:\n        /* \"#utility.yul\":24127:24133   */\n      dup4\n        /* \"#utility.yul\":24124:24125   */\n      dup2\n        /* \"#utility.yul\":24121:24134   */\n      lt\n        /* \"#utility.yul\":24102:24386   */\n      iszero\n      tag_646\n      jumpi\n        /* \"#utility.yul\":24203:24209   */\n      dup2\n        /* \"#utility.yul\":24197:24210   */\n      mload\n        /* \"#utility.yul\":24230:24293   */\n      tag_647\n        /* \"#utility.yul\":24289:24292   */\n      dup9\n        /* \"#utility.yul\":24274:24287   */\n      dup3\n        /* \"#utility.yul\":24230:24293   */\n      tag_408\n      jump\t// in\n    tag_647:\n        /* \"#utility.yul\":24223:24293   */\n      swap8\n      pop\n        /* \"#utility.yul\":24316:24376   */\n      tag_648\n        /* \"#utility.yul\":24369:24375   */\n      dup4\n        /* \"#utility.yul\":24316:24376   */\n      tag_409\n      jump\t// in\n    tag_648:\n        /* \"#utility.yul\":24306:24376   */\n      swap3\n      pop\n        /* \"#utility.yul\":24162:24386   */\n      pop\n        /* \"#utility.yul\":24149:24150   */\n      0x01\n        /* \"#utility.yul\":24146:24147   */\n      dup2\n        /* \"#utility.yul\":24142:24151   */\n      add\n        /* \"#utility.yul\":24137:24151   */\n      swap1\n      pop\n        /* \"#utility.yul\":24102:24386   */\n      jump(tag_644)\n    tag_646:\n        /* \"#utility.yul\":24106:24120   */\n      pop\n        /* \"#utility.yul\":24402:24405   */\n      dup6\n        /* \"#utility.yul\":24395:24405   */\n      swap4\n      pop\n        /* \"#utility.yul\":23803:24411   */\n      pop\n      pop\n      pop\n        /* \"#utility.yul\":23679:24411   */\n      swap3\n      swap2\n      pop\n      pop\n      jump\t// out\n        /* \"#utility.yul\":24417:25248   */\n    tag_338:\n        /* \"#utility.yul\":24680:24684   */\n      0x00\n        /* \"#utility.yul\":24718:24721   */\n      0xa0\n        /* \"#utility.yul\":24707:24716   */\n      dup3\n        /* \"#utility.yul\":24703:24722   */\n      add\n        /* \"#utility.yul\":24695:24722   */\n      swap1\n      pop\n        /* \"#utility.yul\":24732:24803   */\n      tag_650\n        /* \"#utility.yul\":24800:24801   */\n      0x00\n        /* \"#utility.yul\":24789:24798   */\n      dup4\n        /* \"#utility.yul\":24785:24802   */\n      add\n        /* \"#utility.yul\":24776:24782   */\n      dup9\n        /* \"#utility.yul\":24732:24803   */\n      tag_367\n      jump\t// in\n    tag_650:\n        /* \"#utility.yul\":24813:24893   */\n      tag_651\n        /* \"#utility.yul\":24889:24891   */\n      0x20\n        /* \"#utility.yul\":24878:24887   */\n      dup4\n        /* \"#utility.yul\":24874:24892   */\n      add\n        /* \"#utility.yul\":24865:24871   */\n      dup8\n        /* \"#utility.yul\":24813:24893   */\n      tag_403\n      jump\t// in\n    tag_651:\n        /* \"#utility.yul\":24940:24949   */\n      dup2\n        /* \"#utility.yul\":24934:24938   */\n      dup2\n        /* \"#utility.yul\":24930:24950   */\n      sub\n        /* \"#utility.yul\":24925:24927   */\n      0x40\n        /* \"#utility.yul\":24914:24923   */\n      dup4\n        /* \"#utility.yul\":24910:24928   */\n      add\n        /* \"#utility.yul\":24903:24951   */\n      mstore\n        /* \"#utility.yul\":24968:25076   */\n      tag_652\n        /* \"#utility.yul\":25071:25075   */\n      dup2\n        /* \"#utility.yul\":25062:25068   */\n      dup7\n        /* \"#utility.yul\":24968:25076   */\n      tag_410\n      jump\t// in\n    tag_652:\n        /* \"#utility.yul\":24960:25076   */\n      swap1\n      pop\n        /* \"#utility.yul\":25086:25158   */\n      tag_653\n        /* \"#utility.yul\":25154:25156   */\n      0x60\n        /* \"#utility.yul\":25143:25152   */\n      dup4\n        /* \"#utility.yul\":25139:25157   */\n      add\n        /* \"#utility.yul\":25130:25136   */\n      dup6\n        /* \"#utility.yul\":25086:25158   */\n      tag_368\n      jump\t// in\n    tag_653:\n        /* \"#utility.yul\":25168:25241   */\n      tag_654\n        /* \"#utility.yul\":25236:25239   */\n      0x80\n        /* \"#utility.yul\":25225:25234   */\n      dup4\n        /* \"#utility.yul\":25221:25240   */\n      add\n        /* \"#utility.yul\":25212:25218   */\n      dup5\n        /* \"#utility.yul\":25168:25241   */\n      tag_367\n      jump\t// in\n    tag_654:\n        /* \"#utility.yul\":24417:25248   */\n      swap7\n      swap6\n      pop\n      pop\n      pop\n      pop\n      pop\n      pop\n      jump\t// out\n        /* \"#utility.yul\":25254:26061   */\n    tag_345:\n        /* \"#utility.yul\":25503:25507   */\n      0x00\n        /* \"#utility.yul\":25541:25544   */\n      0xc0\n        /* \"#utility.yul\":25530:25539   */\n      dup3\n        /* \"#utility.yul\":25526:25545   */\n      add\n        /* \"#utility.yul\":25518:25545   */\n      swap1\n      pop\n        /* \"#utility.yul\":25555:25626   */\n      tag_656\n        /* \"#utility.yul\":25623:25624   */\n      0x00\n        /* \"#utility.yul\":25612:25621   */\n      dup4\n        /* \"#utility.yul\":25608:25625   */\n      add\n        /* \"#utility.yul\":25599:25605   */\n      dup10\n        /* \"#utility.yul\":25555:25626   */\n      tag_368\n      jump\t// in\n    tag_656:\n        /* \"#utility.yul\":25636:25708   */\n      tag_657\n        /* \"#utility.yul\":25704:25706   */\n      0x20\n        /* \"#utility.yul\":25693:25702   */\n      dup4\n        /* \"#utility.yul\":25689:25707   */\n      add\n        /* \"#utility.yul\":25680:25686   */\n      dup9\n        /* \"#utility.yul\":25636:25708   */\n      tag_367\n      jump\t// in\n    tag_657:\n        /* \"#utility.yul\":25718:25798   */\n      tag_658\n        /* \"#utility.yul\":25794:25796   */\n      0x40\n        /* \"#utility.yul\":25783:25792   */\n      dup4\n        /* \"#utility.yul\":25779:25797   */\n      add\n        /* \"#utility.yul\":25770:25776   */\n      dup8\n        /* \"#utility.yul\":25718:25798   */\n      tag_403\n      jump\t// in\n    tag_658:\n        /* \"#utility.yul\":25808:25888   */\n      tag_659\n        /* \"#utility.yul\":25884:25886   */\n      0x60\n        /* \"#utility.yul\":25873:25882   */\n      dup4\n        /* \"#utility.yul\":25869:25887   */\n      add\n        /* \"#utility.yul\":25860:25866   */\n      dup7\n        /* \"#utility.yul\":25808:25888   */\n      tag_403\n      jump\t// in\n    tag_659:\n        /* \"#utility.yul\":25898:25971   */\n      tag_660\n        /* \"#utility.yul\":25966:25969   */\n      0x80\n        /* \"#utility.yul\":25955:25964   */\n      dup4\n        /* \"#utility.yul\":25951:25970   */\n      add\n        /* \"#utility.yul\":25942:25948   */\n      dup6\n        /* \"#utility.yul\":25898:25971   */\n      tag_368\n      jump\t// in\n    tag_660:\n        /* \"#utility.yul\":25981:26054   */\n      tag_661\n        /* \"#utility.yul\":26049:26052   */\n      0xa0\n        /* \"#utility.yul\":26038:26047   */\n      dup4\n        /* \"#utility.yul\":26034:26053   */\n      add\n        /* \"#utility.yul\":26025:26031   */\n      dup5\n        /* \"#utility.yul\":25981:26054   */\n      tag_367\n      jump\t// in\n    tag_661:\n        /* \"#utility.yul\":25254:26061   */\n      swap8\n      swap7\n      pop\n      pop\n      pop\n      pop\n      pop\n      pop\n      pop\n      jump\t// out\n        /* \"#utility.yul\":26067:26210   */\n    tag_411:\n        /* \"#utility.yul\":26124:26129   */\n      0x00\n        /* \"#utility.yul\":26155:26161   */\n      dup2\n        /* \"#utility.yul\":26149:26162   */\n      mload\n        /* \"#utility.yul\":26140:26162   */\n      swap1\n      pop\n        /* \"#utility.yul\":26171:26204   */\n      tag_663\n        /* \"#utility.yul\":26198:26203   */\n      dup2\n        /* \"#utility.yul\":26171:26204   */\n      tag_354\n      jump\t// in\n    tag_663:\n        /* \"#utility.yul\":26067:26210   */\n      swap3\n      swap2\n      pop\n      pop\n      jump\t// out\n        /* \"#utility.yul\":26216:26879   */\n    tag_349:\n        /* \"#utility.yul\":26304:26310   */\n      0x00\n        /* \"#utility.yul\":26312:26318   */\n      dup1\n        /* \"#utility.yul\":26320:26326   */\n      0x00\n        /* \"#utility.yul\":26369:26371   */\n      0x60\n        /* \"#utility.yul\":26357:26366   */\n      dup5\n        /* \"#utility.yul\":26348:26355   */\n      dup7\n        /* \"#utility.yul\":26344:26367   */\n      sub\n        /* \"#utility.yul\":26340:26372   */\n      slt\n        /* \"#utility.yul\":26337:26456   */\n      iszero\n      tag_665\n      jumpi\n        /* \"#utility.yul\":26375:26454   */\n      tag_666\n      tag_351\n      jump\t// in\n    tag_666:\n        /* \"#utility.yul\":26337:26456   */\n    tag_665:\n        /* \"#utility.yul\":26495:26496   */\n      0x00\n        /* \"#utility.yul\":26520:26584   */\n      tag_667\n        /* \"#utility.yul\":26576:26583   */\n      dup7\n        /* \"#utility.yul\":26567:26573   */\n      dup3\n        /* \"#utility.yul\":26556:26565   */\n      dup8\n        /* \"#utility.yul\":26552:26574   */\n      add\n        /* \"#utility.yul\":26520:26584   */\n      tag_411\n      jump\t// in\n    tag_667:\n        /* \"#utility.yul\":26510:26584   */\n      swap4\n      pop\n        /* \"#utility.yul\":26466:26594   */\n      pop\n        /* \"#utility.yul\":26633:26635   */\n      0x20\n        /* \"#utility.yul\":26659:26723   */\n      tag_668\n        /* \"#utility.yul\":26715:26722   */\n      dup7\n        /* \"#utility.yul\":26706:26712   */\n      dup3\n        /* \"#utility.yul\":26695:26704   */\n      dup8\n        /* \"#utility.yul\":26691:26713   */\n      add\n        /* \"#utility.yul\":26659:26723   */\n      tag_411\n      jump\t// in\n    tag_668:\n        /* \"#utility.yul\":26649:26723   */\n      swap3\n      pop\n        /* \"#utility.yul\":26604:26733   */\n      pop\n        /* \"#utility.yul\":26772:26774   */\n      0x40\n        /* \"#utility.yul\":26798:26862   */\n      tag_669\n        /* \"#utility.yul\":26854:26861   */\n      dup7\n        /* \"#utility.yul\":26845:26851   */\n      dup3\n        /* \"#utility.yul\":26834:26843   */\n      dup8\n        /* \"#utility.yul\":26830:26852   */\n      add\n        /* \"#utility.yul\":26798:26862   */\n      tag_411\n      jump\t// in\n    tag_669:\n        /* \"#utility.yul\":26788:26862   */\n      swap2\n      pop\n        /* \"#utility.yul\":26743:26872   */\n      pop\n        /* \"#utility.yul\":26216:26879   */\n      swap3\n      pop\n      swap3\n      pop\n      swap3\n      jump\t// out\n\n    auxdata: 0xa2646970667358221220d956e028538a7b152054e5d3f5e14555ac4eb7ac7c5272b14fd361776a58462e64736f6c63430008140033\n}\n",
				"bytecode": {
					"linkReferences": {},
					"object": "608060405273bf3c56f4d317a11e5796df613e52081a3446241060065f6101000a81548173ffffffffffffffffffffffffffffffffffffffff021916908373ffffffffffffffffffffffffffffffffffffffff16021790555073b93131ee7be304c183790d3f6edcdd978024f93f60075f6101000a81548173ffffffffffffffffffffffffffffffffffffffff021916908373ffffffffffffffffffffffffffffffffffffffff160217905550600a60085560066009555f600a556004600b55600e600c55600a600d556002600e556002600f55620000e3620004b660201b60201c565b600a620000f1919062000a24565b6064620000ff919062000a74565b6010555f6011555f6012555f6013553480156200011a575f80fd5b506040518060400160405280600981526020017f54657374546f6b656e00000000000000000000000000000000000000000000008152506040518060400160405280600381526020017f54544b0000000000000000000000000000000000000000000000000000000000815250816003908162000198919062000d19565b508060049081620001aa919062000d19565b505050620001cd620001c1620004be60201b60201c565b620004c560201b60201c565b5f620001de620004b660201b60201c565b600a620001ec919062000a24565b6305f5e100620001fd919062000a74565b90506200021133826200058860201b60201c565b5f73edf6066a2b290c185783862c7f4776a2c8077ad190508073ffffffffffffffffffffffffffffffffffffffff1663c45a01556040518163ffffffff1660e01b8152600401602060405180830381865afa15801562000273573d5f803e3d5ffd5b505050506040513d601f19601f8201168201806040525081019062000299919062000e62565b73ffffffffffffffffffffffffffffffffffffffff1663c9c65396308373ffffffffffffffffffffffffffffffffffffffff1663ad5c46486040518163ffffffff1660e01b8152600401602060405180830381865afa158015620002ff573d5f803e3d5ffd5b505050506040513d601f19601f8201168201806040525081019062000325919062000e62565b6040518363ffffffff1660e01b81526004016200034492919062000ea3565b6020604051808303815f875af115801562000361573d5f803e3d5ffd5b505050506040513d601f19601f8201168201806040525081019062000387919062000e62565b60155f6101000a81548173ffffffffffffffffffffffffffffffffffffffff021916908373ffffffffffffffffffffffffffffffffffffffff1602179055508060145f6101000a81548173ffffffffffffffffffffffffffffffffffffffff021916908373ffffffffffffffffffffffffffffffffffffffff1602179055506200045a3360145f9054906101000a900473ffffffffffffffffffffffffffffffffffffffff167fffffffffffffffffffffffffffffffffffffffffffffffffffffffffffffffff620006c760201b60201c565b620004ae3060145f9054906101000a900473ffffffffffffffffffffffffffffffffffffffff167fffffffffffffffffffffffffffffffffffffffffffffffffffffffffffffffff620006c760201b60201c565b5050620010da565b5f6012905090565b5f33905090565b5f60055f9054906101000a900473ffffffffffffffffffffffffffffffffffffffff1690508160055f6101000a81548173ffffffffffffffffffffffffffffffffffffffff021916908373ffffffffffffffffffffffffffffffffffffffff1602179055508173ffffffffffffffffffffffffffffffffffffffff168173ffffffffffffffffffffffffffffffffffffffff167f8be0079c531659141344cd1fd0a4f28419497f9722a3daafe3b4186f6b6457e060405160405180910390a35050565b5f73ffffffffffffffffffffffffffffffffffffffff168273ffffffffffffffffffffffffffffffffffffffff1603620005f9576040517f08c379a0000000000000000000000000000000000000000000000000000000008152600401620005f09062000f2c565b60405180910390fd5b8060025f8282546200060c919062000f4c565b92505081905550805f808473ffffffffffffffffffffffffffffffffffffffff1673ffffffffffffffffffffffffffffffffffffffff1681526020019081526020015f205f82825401925050819055508173ffffffffffffffffffffffffffffffffffffffff165f73ffffffffffffffffffffffffffffffffffffffff167fddf252ad1be2c89b69c2b068fc378daa952ba7f163c4a11628f55a4df523b3ef83604051620006bb919062000f97565b60405180910390a35050565b5f73ffffffffffffffffffffffffffffffffffffffff168373ffffffffffffffffffffffffffffffffffffffff160362000738576040517f08c379a00000000000000000000000000000000000000000000000000000000081526004016200072f9062001026565b60405180910390fd5b5f73ffffffffffffffffffffffffffffffffffffffff168273ffffffffffffffffffffffffffffffffffffffff1603620007a9576040517f08c379a0000000000000000000000000000000000000000000000000000000008152600401620007a090620010ba565b60405180910390fd5b8060015f8573ffffffffffffffffffffffffffffffffffffffff1673ffffffffffffffffffffffffffffffffffffffff1681526020019081526020015f205f8473ffffffffffffffffffffffffffffffffffffffff1673ffffffffffffffffffffffffffffffffffffffff1681526020019081526020015f20819055508173ffffffffffffffffffffffffffffffffffffffff168373ffffffffffffffffffffffffffffffffffffffff167f8c5be1e5ebec7d5bd14f71427d1e84f3dd0314c0f7b2291e5b200ac8c7c3b9258360405162000885919062000f97565b60405180910390a3505050565b7f4e487b71000000000000000000000000000000000000000000000000000000005f52601160045260245ffd5b5f8160011c9050919050565b5f808291508390505b60018511156200091c57808604811115620008f457620008f362000892565b5b6001851615620009045780820291505b80810290506200091485620008bf565b9450620008d4565b94509492505050565b5f8262000936576001905062000a08565b8162000945575f905062000a08565b81600181146200095e576002811462000969576200099f565b600191505062000a08565b60ff8411156200097e576200097d62000892565b5b8360020a91508482111562000998576200099762000892565b5b5062000a08565b5060208310610133831016604e8410600b8410161715620009d95782820a905083811115620009d357620009d262000892565b5b62000a08565b620009e88484846001620008cb565b9250905081840481111562000a025762000a0162000892565b5b81810290505b9392505050565b5f819050919050565b5f60ff82169050919050565b5f62000a308262000a0f565b915062000a3d8362000a18565b925062000a6c7fffffffffffffffffffffffffffffffffffffffffffffffffffffffffffffffff848462000925565b905092915050565b5f62000a808262000a0f565b915062000a8d8362000a0f565b925082820262000a9d8162000a0f565b9150828204841483151762000ab75762000ab662000892565b5b5092915050565b5f81519050919050565b7f4e487b71000000000000000000000000000000000000000000000000000000005f52604160045260245ffd5b7f4e487b71000000000000000000000000000000000000000000000000000000005f52602260045260245ffd5b5f600282049050600182168062000b3a57607f821691505b60208210810362000b505762000b4f62000af5565b5b50919050565b5f819050815f5260205f209050919050565b5f6020601f8301049050919050565b5f82821b905092915050565b5f6008830262000bb47fffffffffffffffffffffffffffffffffffffffffffffffffffffffffffffffff8262000b77565b62000bc0868362000b77565b95508019841693508086168417925050509392505050565b5f819050919050565b5f62000c0162000bfb62000bf58462000a0f565b62000bd8565b62000a0f565b9050919050565b5f819050919050565b62000c1c8362000be1565b62000c3462000c2b8262000c08565b84845462000b83565b825550505050565b5f90565b62000c4a62000c3c565b62000c5781848462000c11565b505050565b5b8181101562000c7e5762000c725f8262000c40565b60018101905062000c5d565b5050565b601f82111562000ccd5762000c978162000b56565b62000ca28462000b68565b8101602085101562000cb2578190505b62000cca62000cc18562000b68565b83018262000c5c565b50505b505050565b5f82821c905092915050565b5f62000cef5f198460080262000cd2565b1980831691505092915050565b5f62000d09838362000cde565b9150826002028217905092915050565b62000d248262000abe565b67ffffffffffffffff81111562000d405762000d3f62000ac8565b5b62000d4c825462000b22565b62000d5982828562000c82565b5f60209050601f83116001811462000d8f575f841562000d7a578287015190505b62000d86858262000cfc565b86555062000df5565b601f19841662000d9f8662000b56565b5f5b8281101562000dc85784890151825560018201915060208501945060208101905062000da1565b8683101562000de8578489015162000de4601f89168262000cde565b8355505b6001600288020188555050505b505050505050565b5f80fd5b5f73ffffffffffffffffffffffffffffffffffffffff82169050919050565b5f62000e2c8262000e01565b9050919050565b62000e3e8162000e20565b811462000e49575f80fd5b50565b5f8151905062000e5c8162000e33565b92915050565b5f6020828403121562000e7a5762000e7962000dfd565b5b5f62000e898482850162000e4c565b91505092915050565b62000e9d8162000e20565b82525050565b5f60408201905062000eb85f83018562000e92565b62000ec7602083018462000e92565b9392505050565b5f82825260208201905092915050565b7f45524332303a206d696e7420746f20746865207a65726f2061646472657373005f82015250565b5f62000f14601f8362000ece565b915062000f218262000ede565b602082019050919050565b5f6020820190508181035f83015262000f458162000f06565b9050919050565b5f62000f588262000a0f565b915062000f658362000a0f565b925082820190508082111562000f805762000f7f62000892565b5b92915050565b62000f918162000a0f565b82525050565b5f60208201905062000fac5f83018462000f86565b92915050565b7f45524332303a20617070726f76652066726f6d20746865207a65726f206164645f8201527f7265737300000000000000000000000000000000000000000000000000000000602082015250565b5f6200100e60248362000ece565b91506200101b8262000fb2565b604082019050919050565b5f6020820190508181035f8301526200103f8162001000565b9050919050565b7f45524332303a20617070726f766520746f20746865207a65726f2061646472655f8201527f7373000000000000000000000000000000000000000000000000000000000000602082015250565b5f620010a260228362000ece565b9150620010af8262001046565b604082019050919050565b5f6020820190508181035f830152620010d38162001094565b9050919050565b61266380620010e85f395ff3fe608060405234801561000f575f80fd5b50600436106101ee575f3560e01c80635d098b381161010d578063a457c2d7116100a0578063bba8c23f1161006f578063bba8c23f14610588578063c31c9c07146105a6578063dd62ed3e146105c4578063f2fde38b146105f4576101ee565b8063a457c2d7146104ee578063a4f4a7651461051e578063a9059cbb1461053c578063b41150c51461056c576101ee565b80638da5cb5b116100dc5780638da5cb5b1461047657806395d89b4114610494578063962dfc75146104b2578063a21028db146104d0576101ee565b80635d098b381461040257806370a082311461041e578063715018a61461044e57806388529bad14610458576101ee565b806326991cc811610185578063487c70fc11610154578063487c70fc1461038c5780634e8bfcfc146103aa57806351492be7146103c85780635958621e146103e6576101ee565b806326991cc814610302578063313ce56714610320578063395093511461033e5780634753fa351461036e576101ee565b80630e7e573f116101c15780630e7e573f1461027a57806318160ddd146102965780631bd313c8146102b457806323b872dd146102d2576101ee565b806301aaed92146101f257806306fdde031461020e578063095ea7b31461022c57806309f30a031461025c575b5f80fd5b61020c60048036038101906102079190611802565b610610565b005b610216610644565b60405161022391906118dc565b60405180910390f35b61024660048036038101906102419190611956565b6106d4565b60405161025391906119ae565b60405180910390f35b6102646106f6565b60405161027191906119d6565b60405180910390f35b610294600480360381019061028f91906119ef565b6106fc565b005b61029e61072c565b6040516102ab91906119d6565b60405180910390f35b6102bc610735565b6040516102c991906119d6565b60405180910390f35b6102ec60048036038101906102e79190611a1a565b61073b565b6040516102f991906119ae565b60405180910390f35b61030a610769565b6040516103179190611a79565b60405180910390f35b61032861078e565b6040516103359190611aad565b60405180910390f35b61035860048036038101906103539190611956565b610796565b60405161036591906119ae565b60405180910390f35b6103766107cc565b60405161038391906119d6565b60405180910390f35b6103946107d2565b6040516103a191906119d6565b60405180910390f35b6103b26107d8565b6040516103bf91906119d6565b60405180910390f35b6103d06107de565b6040516103dd91906119d6565b60405180910390f35b61040060048036038101906103fb9190611ac6565b6107e4565b005b61041c60048036038101906104179190611ac6565b61082f565b005b61043860048036038101906104339190611ac6565b61087a565b60405161044591906119d6565b60405180910390f35b6104566108bf565b005b6104606108d2565b60405161046d91906119d6565b60405180910390f35b61047e6108d8565b60405161048b9190611a79565b60405180910390f35b61049c610900565b6040516104a991906118dc565b60405180910390f35b6104ba610990565b6040516104c79190611a79565b60405180910390f35b6104d86109b5565b6040516104e591906119d6565b60405180910390f35b61050860048036038101906105039190611956565b6109bb565b60405161051591906119ae565b60405180910390f35b610526610a30565b6040516105339190611a79565b60405180910390f35b61055660048036038101906105519190611956565b610a55565b60405161056391906119ae565b60405180910390f35b61058660048036038101906105819190611802565b610a77565b005b610590610ab6565b60405161059d91906119d6565b60405180910390f35b6105ae610abc565b6040516105bb9190611b4c565b60405180910390f35b6105de60048036038101906105d99190611b65565b610ae1565b6040516105eb91906119d6565b60405180910390f35b61060e60048036038101906106099190611ac6565b610b63565b005b610618610be5565b8260098190555081600a8190555080600b8190555080836106399190611bd0565b600881905550505050565b60606003805461065390611c30565b80601f016020809104026020016040519081016040528092919081815260200182805461067f90611c30565b80156106ca5780601f106106a1576101008083540402835291602001916106ca565b820191905f5260205f20905b8154815290600101906020018083116106ad57829003601f168201915b5050505050905090565b5f806106de610c63565b90506106eb818585610c6a565b600191505092915050565b600d5481565b610704610be5565b61070c61078e565b600a6107189190611d8f565b816107239190611dd9565b60108190555050565b5f600254905090565b600b5481565b5f80610745610c63565b9050610752858285610e2d565b61075d858585610eb8565b60019150509392505050565b60155f9054906101000a900473ffffffffffffffffffffffffffffffffffffffff1681565b5f6012905090565b5f806107a0610c63565b90506107c18185856107b28589610ae1565b6107bc9190611bd0565b610c6a565b600191505092915050565b60095481565b60105481565b600f5481565b600a5481565b6107ec610be5565b8060065f6101000a81548173ffffffffffffffffffffffffffffffffffffffff021916908373ffffffffffffffffffffffffffffffffffffffff16021790555050565b610837610be5565b8060075f6101000a81548173ffffffffffffffffffffffffffffffffffffffff021916908373ffffffffffffffffffffffffffffffffffffffff16021790555050565b5f805f8373ffffffffffffffffffffffffffffffffffffffff1673ffffffffffffffffffffffffffffffffffffffff1681526020019081526020015f20549050919050565b6108c7610be5565b6108d05f61114d565b565b600c5481565b5f60055f9054906101000a900473ffffffffffffffffffffffffffffffffffffffff16905090565b60606004805461090f90611c30565b80601f016020809104026020016040519081016040528092919081815260200182805461093b90611c30565b80156109865780601f1061095d57610100808354040283529160200191610986565b820191905f5260205f20905b81548152906001019060200180831161096957829003601f168201915b5050505050905090565b60075f9054906101000a900473ffffffffffffffffffffffffffffffffffffffff1681565b60085481565b5f806109c5610c63565b90505f6109d28286610ae1565b905083811015610a17576040517f08c379a0000000000000000000000000000000000000000000000000000000008152600401610a0e90611e8a565b60405180910390fd5b610a248286868403610c6a565b60019250505092915050565b60065f9054906101000a900473ffffffffffffffffffffffffffffffffffffffff1681565b5f80610a5f610c63565b9050610a6c818585610eb8565b600191505092915050565b610a7f610be5565b82600d8190555081600e8190555080600f81905550808284610aa19190611bd0565b610aab9190611bd0565b600c81905550505050565b600e5481565b60145f9054906101000a900473ffffffffffffffffffffffffffffffffffffffff1681565b5f60015f8473ffffffffffffffffffffffffffffffffffffffff1673ffffffffffffffffffffffffffffffffffffffff1681526020019081526020015f205f8373ffffffffffffffffffffffffffffffffffffffff1673ffffffffffffffffffffffffffffffffffffffff1681526020019081526020015f2054905092915050565b610b6b610be5565b5f73ffffffffffffffffffffffffffffffffffffffff168173ffffffffffffffffffffffffffffffffffffffff1603610bd9576040517f08c379a0000000000000000000000000000000000000000000000000000000008152600401610bd090611f18565b60405180910390fd5b610be28161114d565b50565b610bed610c63565b73ffffffffffffffffffffffffffffffffffffffff16610c0b6108d8565b73ffffffffffffffffffffffffffffffffffffffff1614610c61576040517f08c379a0000000000000000000000000000000000000000000000000000000008152600401610c5890611f80565b60405180910390fd5b565b5f33905090565b5f73ffffffffffffffffffffffffffffffffffffffff168373ffffffffffffffffffffffffffffffffffffffff1603610cd8576040517f08c379a0000000000000000000000000000000000000000000000000000000008152600401610ccf9061200e565b60405180910390fd5b5f73ffffffffffffffffffffffffffffffffffffffff168273ffffffffffffffffffffffffffffffffffffffff1603610d46576040517f08c379a0000000000000000000000000000000000000000000000000000000008152600401610d3d9061209c565b60405180910390fd5b8060015f8573ffffffffffffffffffffffffffffffffffffffff1673ffffffffffffffffffffffffffffffffffffffff1681526020019081526020015f205f8473ffffffffffffffffffffffffffffffffffffffff1673ffffffffffffffffffffffffffffffffffffffff1681526020019081526020015f20819055508173ffffffffffffffffffffffffffffffffffffffff168373ffffffffffffffffffffffffffffffffffffffff167f8c5be1e5ebec7d5bd14f71427d1e84f3dd0314c0f7b2291e5b200ac8c7c3b92583604051610e2091906119d6565b60405180910390a3505050565b5f610e388484610ae1565b90507fffffffffffffffffffffffffffffffffffffffffffffffffffffffffffffffff8114610eb25781811015610ea4576040517f08c379a0000000000000000000000000000000000000000000000000000000008152600401610e9b90612104565b60405180910390fd5b610eb18484848403610c6a565b5b50505050565b5f8060155f9054906101000a900473ffffffffffffffffffffffffffffffffffffffff1673ffffffffffffffffffffffffffffffffffffffff168473ffffffffffffffffffffffffffffffffffffffff1603610f33576064600c5484610f1e9190611dd9565b610f28919061214f565b915060019050610fa9565b60155f9054906101000a900473ffffffffffffffffffffffffffffffffffffffff1673ffffffffffffffffffffffffffffffffffffffff168573ffffffffffffffffffffffffffffffffffffffff1603610fa857606460085484610f979190611dd9565b610fa1919061214f565b9150600290505b5b610fbf85858486610fba919061217f565b611210565b5f8211156111315760016002811115610fdb57610fda6121b2565b5b816002811115610fee57610fed6121b2565b5b0361108e57600c54600f54836110049190611dd9565b61100e919061214f565b60135f82825461101e9190611bd0565b92505081905550600c54600e54836110369190611dd9565b611040919061214f565b60125f8282546110509190611bd0565b92505081905550600c54600d54836110689190611dd9565b611072919061214f565b60115f8282546110829190611bd0565b92505081905550611125565b600854600b548361109f9190611dd9565b6110a9919061214f565b60135f8282546110b99190611bd0565b92505081905550600854600a54836110d19190611dd9565b6110db919061214f565b60125f8282546110eb9190611bd0565b92505081905550600854600954836111039190611dd9565b61110d919061214f565b60115f82825461111d9190611bd0565b925050819055505b611130853084611210565b5b601054601354111561114657611145611466565b5b5050505050565b5f60055f9054906101000a900473ffffffffffffffffffffffffffffffffffffffff1690508160055f6101000a81548173ffffffffffffffffffffffffffffffffffffffff021916908373ffffffffffffffffffffffffffffffffffffffff1602179055508173ffffffffffffffffffffffffffffffffffffffff168173ffffffffffffffffffffffffffffffffffffffff167f8be0079c531659141344cd1fd0a4f28419497f9722a3daafe3b4186f6b6457e060405160405180910390a35050565b5f73ffffffffffffffffffffffffffffffffffffffff168373ffffffffffffffffffffffffffffffffffffffff160361127e576040517f08c379a00000000000000000000000000000000000000000000000000000000081526004016112759061224f565b60405180910390fd5b5f73ffffffffffffffffffffffffffffffffffffffff168273ffffffffffffffffffffffffffffffffffffffff16036112ec576040517f08c379a00000000000000000000000000000000000000000000000000000000081526004016112e3906122dd565b60405180910390fd5b5f805f8573ffffffffffffffffffffffffffffffffffffffff1673ffffffffffffffffffffffffffffffffffffffff1681526020019081526020015f205490508181101561136f576040517f08c379a00000000000000000000000000000000000000000000000000000000081526004016113669061236b565b60405180910390fd5b8181035f808673ffffffffffffffffffffffffffffffffffffffff1673ffffffffffffffffffffffffffffffffffffffff1681526020019081526020015f2081905550815f808573ffffffffffffffffffffffffffffffffffffffff1673ffffffffffffffffffffffffffffffffffffffff1681526020019081526020015f205f82825401925050819055508273ffffffffffffffffffffffffffffffffffffffff168473ffffffffffffffffffffffffffffffffffffffff167fddf252ad1be2c89b69c2b068fc378daa952ba7f163c4a11628f55a4df523b3ef8460405161145891906119d6565b60405180910390a350505050565b61147d6002601154611478919061214f565b61150d565b5f4790506114996002601154611493919061214f565b82611717565b6114c73060065f9054906101000a900473ffffffffffffffffffffffffffffffffffffffff16601154611210565b6114f53060075f9054906101000a900473ffffffffffffffffffffffffffffffffffffffff16601254611210565b5f6013819055505f6012819055505f60118190555050565b5f600267ffffffffffffffff81111561152957611528612389565b5b6040519080825280602002602001820160405280156115575781602001602082028036833780820191505090505b50905030815f8151811061156e5761156d6123b6565b5b602002602001019073ffffffffffffffffffffffffffffffffffffffff16908173ffffffffffffffffffffffffffffffffffffffff168152505060145f9054906101000a900473ffffffffffffffffffffffffffffffffffffffff1673ffffffffffffffffffffffffffffffffffffffff1663ad5c46486040518163ffffffff1660e01b8152600401602060405180830381865afa158015611612573d5f803e3d5ffd5b505050506040513d601f19601f8201168201806040525081019061163691906123f7565b8160018151811061164a576116496123b6565b5b602002602001019073ffffffffffffffffffffffffffffffffffffffff16908173ffffffffffffffffffffffffffffffffffffffff168152505060145f9054906101000a900473ffffffffffffffffffffffffffffffffffffffff1673ffffffffffffffffffffffffffffffffffffffff1663791ac947835f8430426040518663ffffffff1660e01b81526004016116e6959493929190612512565b5f604051808303815f87803b1580156116fd575f80fd5b505af115801561170f573d5f803e3d5ffd5b505050505050565b60145f9054906101000a900473ffffffffffffffffffffffffffffffffffffffff1673ffffffffffffffffffffffffffffffffffffffff1663f305d7198230855f806117616108d8565b426040518863ffffffff1660e01b81526004016117839695949392919061256a565b60606040518083038185885af115801561179f573d5f803e3d5ffd5b50505050506040513d601f19601f820116820180604052508101906117c491906125dd565b5050505050565b5f80fd5b5f819050919050565b6117e1816117cf565b81146117eb575f80fd5b50565b5f813590506117fc816117d8565b92915050565b5f805f60608486031215611819576118186117cb565b5b5f611826868287016117ee565b9350506020611837868287016117ee565b9250506040611848868287016117ee565b9150509250925092565b5f81519050919050565b5f82825260208201905092915050565b5f5b8381101561188957808201518184015260208101905061186e565b5f8484015250505050565b5f601f19601f8301169050919050565b5f6118ae82611852565b6118b8818561185c565b93506118c881856020860161186c565b6118d181611894565b840191505092915050565b5f6020820190508181035f8301526118f481846118a4565b905092915050565b5f73ffffffffffffffffffffffffffffffffffffffff82169050919050565b5f611925826118fc565b9050919050565b6119358161191b565b811461193f575f80fd5b50565b5f813590506119508161192c565b92915050565b5f806040838503121561196c5761196b6117cb565b5b5f61197985828601611942565b925050602061198a858286016117ee565b9150509250929050565b5f8115159050919050565b6119a881611994565b82525050565b5f6020820190506119c15f83018461199f565b92915050565b6119d0816117cf565b82525050565b5f6020820190506119e95f8301846119c7565b92915050565b5f60208284031215611a0457611a036117cb565b5b5f611a11848285016117ee565b91505092915050565b5f805f60608486031215611a3157611a306117cb565b5b5f611a3e86828701611942565b9350506020611a4f86828701611942565b9250506040611a60868287016117ee565b9150509250925092565b611a738161191b565b82525050565b5f602082019050611a8c5f830184611a6a565b92915050565b5f60ff82169050919050565b611aa781611a92565b82525050565b5f602082019050611ac05f830184611a9e565b92915050565b5f60208284031215611adb57611ada6117cb565b5b5f611ae884828501611942565b91505092915050565b5f819050919050565b5f611b14611b0f611b0a846118fc565b611af1565b6118fc565b9050919050565b5f611b2582611afa565b9050919050565b5f611b3682611b1b565b9050919050565b611b4681611b2c565b82525050565b5f602082019050611b5f5f830184611b3d565b92915050565b5f8060408385031215611b7b57611b7a6117cb565b5b5f611b8885828601611942565b9250506020611b9985828601611942565b9150509250929050565b7f4e487b71000000000000000000000000000000000000000000000000000000005f52601160045260245ffd5b5f611bda826117cf565b9150611be5836117cf565b9250828201905080821115611bfd57611bfc611ba3565b5b92915050565b7f4e487b71000000000000000000000000000000000000000000000000000000005f52602260045260245ffd5b5f6002820490506001821680611c4757607f821691505b602082108103611c5a57611c59611c03565b5b50919050565b5f8160011c9050919050565b5f808291508390505b6001851115611cb557808604811115611c9157611c90611ba3565b5b6001851615611ca05780820291505b8081029050611cae85611c60565b9450611c75565b94509492505050565b5f82611ccd5760019050611d88565b81611cda575f9050611d88565b8160018114611cf05760028114611cfa57611d29565b6001915050611d88565b60ff841115611d0c57611d0b611ba3565b5b8360020a915084821115611d2357611d22611ba3565b5b50611d88565b5060208310610133831016604e8410600b8410161715611d5e5782820a905083811115611d5957611d58611ba3565b5b611d88565b611d6b8484846001611c6c565b92509050818404811115611d8257611d81611ba3565b5b81810290505b9392505050565b5f611d99826117cf565b9150611da483611a92565b9250611dd17fffffffffffffffffffffffffffffffffffffffffffffffffffffffffffffffff8484611cbe565b905092915050565b5f611de3826117cf565b9150611dee836117cf565b9250828202611dfc816117cf565b91508282048414831517611e1357611e12611ba3565b5b5092915050565b7f45524332303a2064656372656173656420616c6c6f77616e63652062656c6f775f8201527f207a65726f000000000000000000000000000000000000000000000000000000602082015250565b5f611e7460258361185c565b9150611e7f82611e1a565b604082019050919050565b5f6020820190508181035f830152611ea181611e68565b9050919050565b7f4f776e61626c653a206e6577206f776e657220697320746865207a65726f20615f8201527f6464726573730000000000000000000000000000000000000000000000000000602082015250565b5f611f0260268361185c565b9150611f0d82611ea8565b604082019050919050565b5f6020820190508181035f830152611f2f81611ef6565b9050919050565b7f4f776e61626c653a2063616c6c6572206973206e6f7420746865206f776e65725f82015250565b5f611f6a60208361185c565b9150611f7582611f36565b602082019050919050565b5f6020820190508181035f830152611f9781611f5e565b9050919050565b7f45524332303a20617070726f76652066726f6d20746865207a65726f206164645f8201527f7265737300000000000000000000000000000000000000000000000000000000602082015250565b5f611ff860248361185c565b915061200382611f9e565b604082019050919050565b5f6020820190508181035f83015261202581611fec565b9050919050565b7f45524332303a20617070726f766520746f20746865207a65726f2061646472655f8201527f7373000000000000000000000000000000000000000000000000000000000000602082015250565b5f61208660228361185c565b91506120918261202c565b604082019050919050565b5f6020820190508181035f8301526120b38161207a565b9050919050565b7f45524332303a20696e73756666696369656e7420616c6c6f77616e63650000005f82015250565b5f6120ee601d8361185c565b91506120f9826120ba565b602082019050919050565b5f6020820190508181035f83015261211b816120e2565b9050919050565b7f4e487b71000000000000000000000000000000000000000000000000000000005f52601260045260245ffd5b5f612159826117cf565b9150612164836117cf565b92508261217457612173612122565b5b828204905092915050565b5f612189826117cf565b9150612194836117cf565b92508282039050818111156121ac576121ab611ba3565b5b92915050565b7f4e487b71000000000000000000000000000000000000000000000000000000005f52602160045260245ffd5b7f45524332303a207472616e736665722066726f6d20746865207a65726f2061645f8201527f6472657373000000000000000000000000000000000000000000000000000000602082015250565b5f61223960258361185c565b9150612244826121df565b604082019050919050565b5f6020820190508181035f8301526122668161222d565b9050919050565b7f45524332303a207472616e7366657220746f20746865207a65726f20616464725f8201527f6573730000000000000000000000000000000000000000000000000000000000602082015250565b5f6122c760238361185c565b91506122d28261226d565b604082019050919050565b5f6020820190508181035f8301526122f4816122bb565b9050919050565b7f45524332303a207472616e7366657220616d6f756e74206578636565647320625f8201527f616c616e63650000000000000000000000000000000000000000000000000000602082015250565b5f61235560268361185c565b9150612360826122fb565b604082019050919050565b5f6020820190508181035f83015261238281612349565b9050919050565b7f4e487b71000000000000000000000000000000000000000000000000000000005f52604160045260245ffd5b7f4e487b71000000000000000000000000000000000000000000000000000000005f52603260045260245ffd5b5f815190506123f18161192c565b92915050565b5f6020828403121561240c5761240b6117cb565b5b5f612419848285016123e3565b91505092915050565b5f819050919050565b5f61244561244061243b84612422565b611af1565b6117cf565b9050919050565b6124558161242b565b82525050565b5f81519050919050565b5f82825260208201905092915050565b5f819050602082019050919050565b61248d8161191b565b82525050565b5f61249e8383612484565b60208301905092915050565b5f602082019050919050565b5f6124c08261245b565b6124ca8185612465565b93506124d583612475565b805f5b838110156125055781516124ec8882612493565b97506124f7836124aa565b9250506001810190506124d8565b5085935050505092915050565b5f60a0820190506125255f8301886119c7565b612532602083018761244c565b818103604083015261254481866124b6565b90506125536060830185611a6a565b61256060808301846119c7565b9695505050505050565b5f60c08201905061257d5f830189611a6a565b61258a60208301886119c7565b612597604083018761244c565b6125a4606083018661244c565b6125b16080830185611a6a565b6125be60a08301846119c7565b979650505050505050565b5f815190506125d7816117d8565b92915050565b5f805f606084860312156125f4576125f36117cb565b5b5f612601868287016125c9565b9350506020612612868287016125c9565b9250506040612623868287016125c9565b915050925092509256fea2646970667358221220d956e028538a7b152054e5d3f5e14555ac4eb7ac7c5272b14fd361776a58462e64736f6c63430008140033",
					"opcodes": "PUSH1 0x80 PUSH1 0x40 MSTORE PUSH20 0xBF3C56F4D317A11E5796DF613E52081A34462410 PUSH1 0x6 PUSH0 PUSH2 0x100 EXP DUP2 SLOAD DUP2 PUSH20 0xFFFFFFFFFFFFFFFFFFFFFFFFFFFFFFFFFFFFFFFF MUL NOT AND SWAP1 DUP4 PUSH20 0xFFFFFFFFFFFFFFFFFFFFFFFFFFFFFFFFFFFFFFFF AND MUL OR SWAP1 SSTORE POP PUSH20 0xB93131EE7BE304C183790D3F6EDCDD978024F93F PUSH1 0x7 PUSH0 PUSH2 0x100 EXP DUP2 SLOAD DUP2 PUSH20 0xFFFFFFFFFFFFFFFFFFFFFFFFFFFFFFFFFFFFFFFF MUL NOT AND SWAP1 DUP4 PUSH20 0xFFFFFFFFFFFFFFFFFFFFFFFFFFFFFFFFFFFFFFFF AND MUL OR SWAP1 SSTORE POP PUSH1 0xA PUSH1 0x8 SSTORE PUSH1 0x6 PUSH1 0x9 SSTORE PUSH0 PUSH1 0xA SSTORE PUSH1 0x4 PUSH1 0xB SSTORE PUSH1 0xE PUSH1 0xC SSTORE PUSH1 0xA PUSH1 0xD SSTORE PUSH1 0x2 PUSH1 0xE SSTORE PUSH1 0x2 PUSH1 0xF SSTORE PUSH3 0xE3 PUSH3 0x4B6 PUSH1 0x20 SHL PUSH1 0x20 SHR JUMP JUMPDEST PUSH1 0xA PUSH3 0xF1 SWAP2 SWAP1 PUSH3 0xA24 JUMP JUMPDEST PUSH1 0x64 PUSH3 0xFF SWAP2 SWAP1 PUSH3 0xA74 JUMP JUMPDEST PUSH1 0x10 SSTORE PUSH0 PUSH1 0x11 SSTORE PUSH0 PUSH1 0x12 SSTORE PUSH0 PUSH1 0x13 SSTORE CALLVALUE DUP1 ISZERO PUSH3 0x11A JUMPI PUSH0 DUP1 REVERT JUMPDEST POP PUSH1 0x40 MLOAD DUP1 PUSH1 0x40 ADD PUSH1 0x40 MSTORE DUP1 PUSH1 0x9 DUP2 MSTORE PUSH1 0x20 ADD PUSH32 0x54657374546F6B656E0000000000000000000000000000000000000000000000 DUP2 MSTORE POP PUSH1 0x40 MLOAD DUP1 PUSH1 0x40 ADD PUSH1 0x40 MSTORE DUP1 PUSH1 0x3 DUP2 MSTORE PUSH1 0x20 ADD PUSH32 0x54544B0000000000000000000000000000000000000000000000000000000000 DUP2 MSTORE POP DUP2 PUSH1 0x3 SWAP1 DUP2 PUSH3 0x198 SWAP2 SWAP1 PUSH3 0xD19 JUMP JUMPDEST POP DUP1 PUSH1 0x4 SWAP1 DUP2 PUSH3 0x1AA SWAP2 SWAP1 PUSH3 0xD19 JUMP JUMPDEST POP POP POP PUSH3 0x1CD PUSH3 0x1C1 PUSH3 0x4BE PUSH1 0x20 SHL PUSH1 0x20 SHR JUMP JUMPDEST PUSH3 0x4C5 PUSH1 0x20 SHL PUSH1 0x20 SHR JUMP JUMPDEST PUSH0 PUSH3 0x1DE PUSH3 0x4B6 PUSH1 0x20 SHL PUSH1 0x20 SHR JUMP JUMPDEST PUSH1 0xA PUSH3 0x1EC SWAP2 SWAP1 PUSH3 0xA24 JUMP JUMPDEST PUSH4 0x5F5E100 PUSH3 0x1FD SWAP2 SWAP1 PUSH3 0xA74 JUMP JUMPDEST SWAP1 POP PUSH3 0x211 CALLER DUP3 PUSH3 0x588 PUSH1 0x20 SHL PUSH1 0x20 SHR JUMP JUMPDEST PUSH0 PUSH20 0xEDF6066A2B290C185783862C7F4776A2C8077AD1 SWAP1 POP DUP1 PUSH20 0xFFFFFFFFFFFFFFFFFFFFFFFFFFFFFFFFFFFFFFFF AND PUSH4 0xC45A0155 PUSH1 0x40 MLOAD DUP2 PUSH4 0xFFFFFFFF AND PUSH1 0xE0 SHL DUP2 MSTORE PUSH1 0x4 ADD PUSH1 0x20 PUSH1 0x40 MLOAD DUP1 DUP4 SUB DUP2 DUP7 GAS STATICCALL ISZERO DUP1 ISZERO PUSH3 0x273 JUMPI RETURNDATASIZE PUSH0 DUP1 RETURNDATACOPY RETURNDATASIZE PUSH0 REVERT JUMPDEST POP POP POP POP PUSH1 0x40 MLOAD RETURNDATASIZE PUSH1 0x1F NOT PUSH1 0x1F DUP3 ADD AND DUP3 ADD DUP1 PUSH1 0x40 MSTORE POP DUP2 ADD SWAP1 PUSH3 0x299 SWAP2 SWAP1 PUSH3 0xE62 JUMP JUMPDEST PUSH20 0xFFFFFFFFFFFFFFFFFFFFFFFFFFFFFFFFFFFFFFFF AND PUSH4 0xC9C65396 ADDRESS DUP4 PUSH20 0xFFFFFFFFFFFFFFFFFFFFFFFFFFFFFFFFFFFFFFFF AND PUSH4 0xAD5C4648 PUSH1 0x40 MLOAD DUP2 PUSH4 0xFFFFFFFF AND PUSH1 0xE0 SHL DUP2 MSTORE PUSH1 0x4 ADD PUSH1 0x20 PUSH1 0x40 MLOAD DUP1 DUP4 SUB DUP2 DUP7 GAS STATICCALL ISZERO DUP1 ISZERO PUSH3 0x2FF JUMPI RETURNDATASIZE PUSH0 DUP1 RETURNDATACOPY RETURNDATASIZE PUSH0 REVERT JUMPDEST POP POP POP POP PUSH1 0x40 MLOAD RETURNDATASIZE PUSH1 0x1F NOT PUSH1 0x1F DUP3 ADD AND DUP3 ADD DUP1 PUSH1 0x40 MSTORE POP DUP2 ADD SWAP1 PUSH3 0x325 SWAP2 SWAP1 PUSH3 0xE62 JUMP JUMPDEST PUSH1 0x40 MLOAD DUP4 PUSH4 0xFFFFFFFF AND PUSH1 0xE0 SHL DUP2 MSTORE PUSH1 0x4 ADD PUSH3 0x344 SWAP3 SWAP2 SWAP1 PUSH3 0xEA3 JUMP JUMPDEST PUSH1 0x20 PUSH1 0x40 MLOAD DUP1 DUP4 SUB DUP2 PUSH0 DUP8 GAS CALL ISZERO DUP1 ISZERO PUSH3 0x361 JUMPI RETURNDATASIZE PUSH0 DUP1 RETURNDATACOPY RETURNDATASIZE PUSH0 REVERT JUMPDEST POP POP POP POP PUSH1 0x40 MLOAD RETURNDATASIZE PUSH1 0x1F NOT PUSH1 0x1F DUP3 ADD AND DUP3 ADD DUP1 PUSH1 0x40 MSTORE POP DUP2 ADD SWAP1 PUSH3 0x387 SWAP2 SWAP1 PUSH3 0xE62 JUMP JUMPDEST PUSH1 0x15 PUSH0 PUSH2 0x100 EXP DUP2 SLOAD DUP2 PUSH20 0xFFFFFFFFFFFFFFFFFFFFFFFFFFFFFFFFFFFFFFFF MUL NOT AND SWAP1 DUP4 PUSH20 0xFFFFFFFFFFFFFFFFFFFFFFFFFFFFFFFFFFFFFFFF AND MUL OR SWAP1 SSTORE POP DUP1 PUSH1 0x14 PUSH0 PUSH2 0x100 EXP DUP2 SLOAD DUP2 PUSH20 0xFFFFFFFFFFFFFFFFFFFFFFFFFFFFFFFFFFFFFFFF MUL NOT AND SWAP1 DUP4 PUSH20 0xFFFFFFFFFFFFFFFFFFFFFFFFFFFFFFFFFFFFFFFF AND MUL OR SWAP1 SSTORE POP PUSH3 0x45A CALLER PUSH1 0x14 PUSH0 SWAP1 SLOAD SWAP1 PUSH2 0x100 EXP SWAP1 DIV PUSH20 0xFFFFFFFFFFFFFFFFFFFFFFFFFFFFFFFFFFFFFFFF AND PUSH32 0xFFFFFFFFFFFFFFFFFFFFFFFFFFFFFFFFFFFFFFFFFFFFFFFFFFFFFFFFFFFFFFFF PUSH3 0x6C7 PUSH1 0x20 SHL PUSH1 0x20 SHR JUMP JUMPDEST PUSH3 0x4AE ADDRESS PUSH1 0x14 PUSH0 SWAP1 SLOAD SWAP1 PUSH2 0x100 EXP SWAP1 DIV PUSH20 0xFFFFFFFFFFFFFFFFFFFFFFFFFFFFFFFFFFFFFFFF AND PUSH32 0xFFFFFFFFFFFFFFFFFFFFFFFFFFFFFFFFFFFFFFFFFFFFFFFFFFFFFFFFFFFFFFFF PUSH3 0x6C7 PUSH1 0x20 SHL PUSH1 0x20 SHR JUMP JUMPDEST POP POP PUSH3 0x10DA JUMP JUMPDEST PUSH0 PUSH1 0x12 SWAP1 POP SWAP1 JUMP JUMPDEST PUSH0 CALLER SWAP1 POP SWAP1 JUMP JUMPDEST PUSH0 PUSH1 0x5 PUSH0 SWAP1 SLOAD SWAP1 PUSH2 0x100 EXP SWAP1 DIV PUSH20 0xFFFFFFFFFFFFFFFFFFFFFFFFFFFFFFFFFFFFFFFF AND SWAP1 POP DUP2 PUSH1 0x5 PUSH0 PUSH2 0x100 EXP DUP2 SLOAD DUP2 PUSH20 0xFFFFFFFFFFFFFFFFFFFFFFFFFFFFFFFFFFFFFFFF MUL NOT AND SWAP1 DUP4 PUSH20 0xFFFFFFFFFFFFFFFFFFFFFFFFFFFFFFFFFFFFFFFF AND MUL OR SWAP1 SSTORE POP DUP2 PUSH20 0xFFFFFFFFFFFFFFFFFFFFFFFFFFFFFFFFFFFFFFFF AND DUP2 PUSH20 0xFFFFFFFFFFFFFFFFFFFFFFFFFFFFFFFFFFFFFFFF AND PUSH32 0x8BE0079C531659141344CD1FD0A4F28419497F9722A3DAAFE3B4186F6B6457E0 PUSH1 0x40 MLOAD PUSH1 0x40 MLOAD DUP1 SWAP2 SUB SWAP1 LOG3 POP POP JUMP JUMPDEST PUSH0 PUSH20 0xFFFFFFFFFFFFFFFFFFFFFFFFFFFFFFFFFFFFFFFF AND DUP3 PUSH20 0xFFFFFFFFFFFFFFFFFFFFFFFFFFFFFFFFFFFFFFFF AND SUB PUSH3 0x5F9 JUMPI PUSH1 0x40 MLOAD PUSH32 0x8C379A000000000000000000000000000000000000000000000000000000000 DUP2 MSTORE PUSH1 0x4 ADD PUSH3 0x5F0 SWAP1 PUSH3 0xF2C JUMP JUMPDEST PUSH1 0x40 MLOAD DUP1 SWAP2 SUB SWAP1 REVERT JUMPDEST DUP1 PUSH1 0x2 PUSH0 DUP3 DUP3 SLOAD PUSH3 0x60C SWAP2 SWAP1 PUSH3 0xF4C JUMP JUMPDEST SWAP3 POP POP DUP2 SWAP1 SSTORE POP DUP1 PUSH0 DUP1 DUP5 PUSH20 0xFFFFFFFFFFFFFFFFFFFFFFFFFFFFFFFFFFFFFFFF AND PUSH20 0xFFFFFFFFFFFFFFFFFFFFFFFFFFFFFFFFFFFFFFFF AND DUP2 MSTORE PUSH1 0x20 ADD SWAP1 DUP2 MSTORE PUSH1 0x20 ADD PUSH0 KECCAK256 PUSH0 DUP3 DUP3 SLOAD ADD SWAP3 POP POP DUP2 SWAP1 SSTORE POP DUP2 PUSH20 0xFFFFFFFFFFFFFFFFFFFFFFFFFFFFFFFFFFFFFFFF AND PUSH0 PUSH20 0xFFFFFFFFFFFFFFFFFFFFFFFFFFFFFFFFFFFFFFFF AND PUSH32 0xDDF252AD1BE2C89B69C2B068FC378DAA952BA7F163C4A11628F55A4DF523B3EF DUP4 PUSH1 0x40 MLOAD PUSH3 0x6BB SWAP2 SWAP1 PUSH3 0xF97 JUMP JUMPDEST PUSH1 0x40 MLOAD DUP1 SWAP2 SUB SWAP1 LOG3 POP POP JUMP JUMPDEST PUSH0 PUSH20 0xFFFFFFFFFFFFFFFFFFFFFFFFFFFFFFFFFFFFFFFF AND DUP4 PUSH20 0xFFFFFFFFFFFFFFFFFFFFFFFFFFFFFFFFFFFFFFFF AND SUB PUSH3 0x738 JUMPI PUSH1 0x40 MLOAD PUSH32 0x8C379A000000000000000000000000000000000000000000000000000000000 DUP2 MSTORE PUSH1 0x4 ADD PUSH3 0x72F SWAP1 PUSH3 0x1026 JUMP JUMPDEST PUSH1 0x40 MLOAD DUP1 SWAP2 SUB SWAP1 REVERT JUMPDEST PUSH0 PUSH20 0xFFFFFFFFFFFFFFFFFFFFFFFFFFFFFFFFFFFFFFFF AND DUP3 PUSH20 0xFFFFFFFFFFFFFFFFFFFFFFFFFFFFFFFFFFFFFFFF AND SUB PUSH3 0x7A9 JUMPI PUSH1 0x40 MLOAD PUSH32 0x8C379A000000000000000000000000000000000000000000000000000000000 DUP2 MSTORE PUSH1 0x4 ADD PUSH3 0x7A0 SWAP1 PUSH3 0x10BA JUMP JUMPDEST PUSH1 0x40 MLOAD DUP1 SWAP2 SUB SWAP1 REVERT JUMPDEST DUP1 PUSH1 0x1 PUSH0 DUP6 PUSH20 0xFFFFFFFFFFFFFFFFFFFFFFFFFFFFFFFFFFFFFFFF AND PUSH20 0xFFFFFFFFFFFFFFFFFFFFFFFFFFFFFFFFFFFFFFFF AND DUP2 MSTORE PUSH1 0x20 ADD SWAP1 DUP2 MSTORE PUSH1 0x20 ADD PUSH0 KECCAK256 PUSH0 DUP5 PUSH20 0xFFFFFFFFFFFFFFFFFFFFFFFFFFFFFFFFFFFFFFFF AND PUSH20 0xFFFFFFFFFFFFFFFFFFFFFFFFFFFFFFFFFFFFFFFF AND DUP2 MSTORE PUSH1 0x20 ADD SWAP1 DUP2 MSTORE PUSH1 0x20 ADD PUSH0 KECCAK256 DUP2 SWAP1 SSTORE POP DUP2 PUSH20 0xFFFFFFFFFFFFFFFFFFFFFFFFFFFFFFFFFFFFFFFF AND DUP4 PUSH20 0xFFFFFFFFFFFFFFFFFFFFFFFFFFFFFFFFFFFFFFFF AND PUSH32 0x8C5BE1E5EBEC7D5BD14F71427D1E84F3DD0314C0F7B2291E5B200AC8C7C3B925 DUP4 PUSH1 0x40 MLOAD PUSH3 0x885 SWAP2 SWAP1 PUSH3 0xF97 JUMP JUMPDEST PUSH1 0x40 MLOAD DUP1 SWAP2 SUB SWAP1 LOG3 POP POP POP JUMP JUMPDEST PUSH32 0x4E487B7100000000000000000000000000000000000000000000000000000000 PUSH0 MSTORE PUSH1 0x11 PUSH1 0x4 MSTORE PUSH1 0x24 PUSH0 REVERT JUMPDEST PUSH0 DUP2 PUSH1 0x1 SHR SWAP1 POP SWAP2 SWAP1 POP JUMP JUMPDEST PUSH0 DUP1 DUP3 SWAP2 POP DUP4 SWAP1 POP JUMPDEST PUSH1 0x1 DUP6 GT ISZERO PUSH3 0x91C JUMPI DUP1 DUP7 DIV DUP2 GT ISZERO PUSH3 0x8F4 JUMPI PUSH3 0x8F3 PUSH3 0x892 JUMP JUMPDEST JUMPDEST PUSH1 0x1 DUP6 AND ISZERO PUSH3 0x904 JUMPI DUP1 DUP3 MUL SWAP2 POP JUMPDEST DUP1 DUP2 MUL SWAP1 POP PUSH3 0x914 DUP6 PUSH3 0x8BF JUMP JUMPDEST SWAP5 POP PUSH3 0x8D4 JUMP JUMPDEST SWAP5 POP SWAP5 SWAP3 POP POP POP JUMP JUMPDEST PUSH0 DUP3 PUSH3 0x936 JUMPI PUSH1 0x1 SWAP1 POP PUSH3 0xA08 JUMP JUMPDEST DUP2 PUSH3 0x945 JUMPI PUSH0 SWAP1 POP PUSH3 0xA08 JUMP JUMPDEST DUP2 PUSH1 0x1 DUP2 EQ PUSH3 0x95E JUMPI PUSH1 0x2 DUP2 EQ PUSH3 0x969 JUMPI PUSH3 0x99F JUMP JUMPDEST PUSH1 0x1 SWAP2 POP POP PUSH3 0xA08 JUMP JUMPDEST PUSH1 0xFF DUP5 GT ISZERO PUSH3 0x97E JUMPI PUSH3 0x97D PUSH3 0x892 JUMP JUMPDEST JUMPDEST DUP4 PUSH1 0x2 EXP SWAP2 POP DUP5 DUP3 GT ISZERO PUSH3 0x998 JUMPI PUSH3 0x997 PUSH3 0x892 JUMP JUMPDEST JUMPDEST POP PUSH3 0xA08 JUMP JUMPDEST POP PUSH1 0x20 DUP4 LT PUSH2 0x133 DUP4 LT AND PUSH1 0x4E DUP5 LT PUSH1 0xB DUP5 LT AND OR ISZERO PUSH3 0x9D9 JUMPI DUP3 DUP3 EXP SWAP1 POP DUP4 DUP2 GT ISZERO PUSH3 0x9D3 JUMPI PUSH3 0x9D2 PUSH3 0x892 JUMP JUMPDEST JUMPDEST PUSH3 0xA08 JUMP JUMPDEST PUSH3 0x9E8 DUP5 DUP5 DUP5 PUSH1 0x1 PUSH3 0x8CB JUMP JUMPDEST SWAP3 POP SWAP1 POP DUP2 DUP5 DIV DUP2 GT ISZERO PUSH3 0xA02 JUMPI PUSH3 0xA01 PUSH3 0x892 JUMP JUMPDEST JUMPDEST DUP2 DUP2 MUL SWAP1 POP JUMPDEST SWAP4 SWAP3 POP POP POP JUMP JUMPDEST PUSH0 DUP2 SWAP1 POP SWAP2 SWAP1 POP JUMP JUMPDEST PUSH0 PUSH1 0xFF DUP3 AND SWAP1 POP SWAP2 SWAP1 POP JUMP JUMPDEST PUSH0 PUSH3 0xA30 DUP3 PUSH3 0xA0F JUMP JUMPDEST SWAP2 POP PUSH3 0xA3D DUP4 PUSH3 0xA18 JUMP JUMPDEST SWAP3 POP PUSH3 0xA6C PUSH32 0xFFFFFFFFFFFFFFFFFFFFFFFFFFFFFFFFFFFFFFFFFFFFFFFFFFFFFFFFFFFFFFFF DUP5 DUP5 PUSH3 0x925 JUMP JUMPDEST SWAP1 POP SWAP3 SWAP2 POP POP JUMP JUMPDEST PUSH0 PUSH3 0xA80 DUP3 PUSH3 0xA0F JUMP JUMPDEST SWAP2 POP PUSH3 0xA8D DUP4 PUSH3 0xA0F JUMP JUMPDEST SWAP3 POP DUP3 DUP3 MUL PUSH3 0xA9D DUP2 PUSH3 0xA0F JUMP JUMPDEST SWAP2 POP DUP3 DUP3 DIV DUP5 EQ DUP4 ISZERO OR PUSH3 0xAB7 JUMPI PUSH3 0xAB6 PUSH3 0x892 JUMP JUMPDEST JUMPDEST POP SWAP3 SWAP2 POP POP JUMP JUMPDEST PUSH0 DUP2 MLOAD SWAP1 POP SWAP2 SWAP1 POP JUMP JUMPDEST PUSH32 0x4E487B7100000000000000000000000000000000000000000000000000000000 PUSH0 MSTORE PUSH1 0x41 PUSH1 0x4 MSTORE PUSH1 0x24 PUSH0 REVERT JUMPDEST PUSH32 0x4E487B7100000000000000000000000000000000000000000000000000000000 PUSH0 MSTORE PUSH1 0x22 PUSH1 0x4 MSTORE PUSH1 0x24 PUSH0 REVERT JUMPDEST PUSH0 PUSH1 0x2 DUP3 DIV SWAP1 POP PUSH1 0x1 DUP3 AND DUP1 PUSH3 0xB3A JUMPI PUSH1 0x7F DUP3 AND SWAP2 POP JUMPDEST PUSH1 0x20 DUP3 LT DUP2 SUB PUSH3 0xB50 JUMPI PUSH3 0xB4F PUSH3 0xAF5 JUMP JUMPDEST JUMPDEST POP SWAP2 SWAP1 POP JUMP JUMPDEST PUSH0 DUP2 SWAP1 POP DUP2 PUSH0 MSTORE PUSH1 0x20 PUSH0 KECCAK256 SWAP1 POP SWAP2 SWAP1 POP JUMP JUMPDEST PUSH0 PUSH1 0x20 PUSH1 0x1F DUP4 ADD DIV SWAP1 POP SWAP2 SWAP1 POP JUMP JUMPDEST PUSH0 DUP3 DUP3 SHL SWAP1 POP SWAP3 SWAP2 POP POP JUMP JUMPDEST PUSH0 PUSH1 0x8 DUP4 MUL PUSH3 0xBB4 PUSH32 0xFFFFFFFFFFFFFFFFFFFFFFFFFFFFFFFFFFFFFFFFFFFFFFFFFFFFFFFFFFFFFFFF DUP3 PUSH3 0xB77 JUMP JUMPDEST PUSH3 0xBC0 DUP7 DUP4 PUSH3 0xB77 JUMP JUMPDEST SWAP6 POP DUP1 NOT DUP5 AND SWAP4 POP DUP1 DUP7 AND DUP5 OR SWAP3 POP POP POP SWAP4 SWAP3 POP POP POP JUMP JUMPDEST PUSH0 DUP2 SWAP1 POP SWAP2 SWAP1 POP JUMP JUMPDEST PUSH0 PUSH3 0xC01 PUSH3 0xBFB PUSH3 0xBF5 DUP5 PUSH3 0xA0F JUMP JUMPDEST PUSH3 0xBD8 JUMP JUMPDEST PUSH3 0xA0F JUMP JUMPDEST SWAP1 POP SWAP2 SWAP1 POP JUMP JUMPDEST PUSH0 DUP2 SWAP1 POP SWAP2 SWAP1 POP JUMP JUMPDEST PUSH3 0xC1C DUP4 PUSH3 0xBE1 JUMP JUMPDEST PUSH3 0xC34 PUSH3 0xC2B DUP3 PUSH3 0xC08 JUMP JUMPDEST DUP5 DUP5 SLOAD PUSH3 0xB83 JUMP JUMPDEST DUP3 SSTORE POP POP POP POP JUMP JUMPDEST PUSH0 SWAP1 JUMP JUMPDEST PUSH3 0xC4A PUSH3 0xC3C JUMP JUMPDEST PUSH3 0xC57 DUP2 DUP5 DUP5 PUSH3 0xC11 JUMP JUMPDEST POP POP POP JUMP JUMPDEST JUMPDEST DUP2 DUP2 LT ISZERO PUSH3 0xC7E JUMPI PUSH3 0xC72 PUSH0 DUP3 PUSH3 0xC40 JUMP JUMPDEST PUSH1 0x1 DUP2 ADD SWAP1 POP PUSH3 0xC5D JUMP JUMPDEST POP POP JUMP JUMPDEST PUSH1 0x1F DUP3 GT ISZERO PUSH3 0xCCD JUMPI PUSH3 0xC97 DUP2 PUSH3 0xB56 JUMP JUMPDEST PUSH3 0xCA2 DUP5 PUSH3 0xB68 JUMP JUMPDEST DUP2 ADD PUSH1 0x20 DUP6 LT ISZERO PUSH3 0xCB2 JUMPI DUP2 SWAP1 POP JUMPDEST PUSH3 0xCCA PUSH3 0xCC1 DUP6 PUSH3 0xB68 JUMP JUMPDEST DUP4 ADD DUP3 PUSH3 0xC5C JUMP JUMPDEST POP POP JUMPDEST POP POP POP JUMP JUMPDEST PUSH0 DUP3 DUP3 SHR SWAP1 POP SWAP3 SWAP2 POP POP JUMP JUMPDEST PUSH0 PUSH3 0xCEF PUSH0 NOT DUP5 PUSH1 0x8 MUL PUSH3 0xCD2 JUMP JUMPDEST NOT DUP1 DUP4 AND SWAP2 POP POP SWAP3 SWAP2 POP POP JUMP JUMPDEST PUSH0 PUSH3 0xD09 DUP4 DUP4 PUSH3 0xCDE JUMP JUMPDEST SWAP2 POP DUP3 PUSH1 0x2 MUL DUP3 OR SWAP1 POP SWAP3 SWAP2 POP POP JUMP JUMPDEST PUSH3 0xD24 DUP3 PUSH3 0xABE JUMP JUMPDEST PUSH8 0xFFFFFFFFFFFFFFFF DUP2 GT ISZERO PUSH3 0xD40 JUMPI PUSH3 0xD3F PUSH3 0xAC8 JUMP JUMPDEST JUMPDEST PUSH3 0xD4C DUP3 SLOAD PUSH3 0xB22 JUMP JUMPDEST PUSH3 0xD59 DUP3 DUP3 DUP6 PUSH3 0xC82 JUMP JUMPDEST PUSH0 PUSH1 0x20 SWAP1 POP PUSH1 0x1F DUP4 GT PUSH1 0x1 DUP2 EQ PUSH3 0xD8F JUMPI PUSH0 DUP5 ISZERO PUSH3 0xD7A JUMPI DUP3 DUP8 ADD MLOAD SWAP1 POP JUMPDEST PUSH3 0xD86 DUP6 DUP3 PUSH3 0xCFC JUMP JUMPDEST DUP7 SSTORE POP PUSH3 0xDF5 JUMP JUMPDEST PUSH1 0x1F NOT DUP5 AND PUSH3 0xD9F DUP7 PUSH3 0xB56 JUMP JUMPDEST PUSH0 JUMPDEST DUP3 DUP2 LT ISZERO PUSH3 0xDC8 JUMPI DUP5 DUP10 ADD MLOAD DUP3 SSTORE PUSH1 0x1 DUP3 ADD SWAP2 POP PUSH1 0x20 DUP6 ADD SWAP5 POP PUSH1 0x20 DUP2 ADD SWAP1 POP PUSH3 0xDA1 JUMP JUMPDEST DUP7 DUP4 LT ISZERO PUSH3 0xDE8 JUMPI DUP5 DUP10 ADD MLOAD PUSH3 0xDE4 PUSH1 0x1F DUP10 AND DUP3 PUSH3 0xCDE JUMP JUMPDEST DUP4 SSTORE POP JUMPDEST PUSH1 0x1 PUSH1 0x2 DUP9 MUL ADD DUP9 SSTORE POP POP POP JUMPDEST POP POP POP POP POP POP JUMP JUMPDEST PUSH0 DUP1 REVERT JUMPDEST PUSH0 PUSH20 0xFFFFFFFFFFFFFFFFFFFFFFFFFFFFFFFFFFFFFFFF DUP3 AND SWAP1 POP SWAP2 SWAP1 POP JUMP JUMPDEST PUSH0 PUSH3 0xE2C DUP3 PUSH3 0xE01 JUMP JUMPDEST SWAP1 POP SWAP2 SWAP1 POP JUMP JUMPDEST PUSH3 0xE3E DUP2 PUSH3 0xE20 JUMP JUMPDEST DUP2 EQ PUSH3 0xE49 JUMPI PUSH0 DUP1 REVERT JUMPDEST POP JUMP JUMPDEST PUSH0 DUP2 MLOAD SWAP1 POP PUSH3 0xE5C DUP2 PUSH3 0xE33 JUMP JUMPDEST SWAP3 SWAP2 POP POP JUMP JUMPDEST PUSH0 PUSH1 0x20 DUP3 DUP5 SUB SLT ISZERO PUSH3 0xE7A JUMPI PUSH3 0xE79 PUSH3 0xDFD JUMP JUMPDEST JUMPDEST PUSH0 PUSH3 0xE89 DUP5 DUP3 DUP6 ADD PUSH3 0xE4C JUMP JUMPDEST SWAP2 POP POP SWAP3 SWAP2 POP POP JUMP JUMPDEST PUSH3 0xE9D DUP2 PUSH3 0xE20 JUMP JUMPDEST DUP3 MSTORE POP POP JUMP JUMPDEST PUSH0 PUSH1 0x40 DUP3 ADD SWAP1 POP PUSH3 0xEB8 PUSH0 DUP4 ADD DUP6 PUSH3 0xE92 JUMP JUMPDEST PUSH3 0xEC7 PUSH1 0x20 DUP4 ADD DUP5 PUSH3 0xE92 JUMP JUMPDEST SWAP4 SWAP3 POP POP POP JUMP JUMPDEST PUSH0 DUP3 DUP3 MSTORE PUSH1 0x20 DUP3 ADD SWAP1 POP SWAP3 SWAP2 POP POP JUMP JUMPDEST PUSH32 0x45524332303A206D696E7420746F20746865207A65726F206164647265737300 PUSH0 DUP3 ADD MSTORE POP JUMP JUMPDEST PUSH0 PUSH3 0xF14 PUSH1 0x1F DUP4 PUSH3 0xECE JUMP JUMPDEST SWAP2 POP PUSH3 0xF21 DUP3 PUSH3 0xEDE JUMP JUMPDEST PUSH1 0x20 DUP3 ADD SWAP1 POP SWAP2 SWAP1 POP JUMP JUMPDEST PUSH0 PUSH1 0x20 DUP3 ADD SWAP1 POP DUP2 DUP2 SUB PUSH0 DUP4 ADD MSTORE PUSH3 0xF45 DUP2 PUSH3 0xF06 JUMP JUMPDEST SWAP1 POP SWAP2 SWAP1 POP JUMP JUMPDEST PUSH0 PUSH3 0xF58 DUP3 PUSH3 0xA0F JUMP JUMPDEST SWAP2 POP PUSH3 0xF65 DUP4 PUSH3 0xA0F JUMP JUMPDEST SWAP3 POP DUP3 DUP3 ADD SWAP1 POP DUP1 DUP3 GT ISZERO PUSH3 0xF80 JUMPI PUSH3 0xF7F PUSH3 0x892 JUMP JUMPDEST JUMPDEST SWAP3 SWAP2 POP POP JUMP JUMPDEST PUSH3 0xF91 DUP2 PUSH3 0xA0F JUMP JUMPDEST DUP3 MSTORE POP POP JUMP JUMPDEST PUSH0 PUSH1 0x20 DUP3 ADD SWAP1 POP PUSH3 0xFAC PUSH0 DUP4 ADD DUP5 PUSH3 0xF86 JUMP JUMPDEST SWAP3 SWAP2 POP POP JUMP JUMPDEST PUSH32 0x45524332303A20617070726F76652066726F6D20746865207A65726F20616464 PUSH0 DUP3 ADD MSTORE PUSH32 0x7265737300000000000000000000000000000000000000000000000000000000 PUSH1 0x20 DUP3 ADD MSTORE POP JUMP JUMPDEST PUSH0 PUSH3 0x100E PUSH1 0x24 DUP4 PUSH3 0xECE JUMP JUMPDEST SWAP2 POP PUSH3 0x101B DUP3 PUSH3 0xFB2 JUMP JUMPDEST PUSH1 0x40 DUP3 ADD SWAP1 POP SWAP2 SWAP1 POP JUMP JUMPDEST PUSH0 PUSH1 0x20 DUP3 ADD SWAP1 POP DUP2 DUP2 SUB PUSH0 DUP4 ADD MSTORE PUSH3 0x103F DUP2 PUSH3 0x1000 JUMP JUMPDEST SWAP1 POP SWAP2 SWAP1 POP JUMP JUMPDEST PUSH32 0x45524332303A20617070726F766520746F20746865207A65726F206164647265 PUSH0 DUP3 ADD MSTORE PUSH32 0x7373000000000000000000000000000000000000000000000000000000000000 PUSH1 0x20 DUP3 ADD MSTORE POP JUMP JUMPDEST PUSH0 PUSH3 0x10A2 PUSH1 0x22 DUP4 PUSH3 0xECE JUMP JUMPDEST SWAP2 POP PUSH3 0x10AF DUP3 PUSH3 0x1046 JUMP JUMPDEST PUSH1 0x40 DUP3 ADD SWAP1 POP SWAP2 SWAP1 POP JUMP JUMPDEST PUSH0 PUSH1 0x20 DUP3 ADD SWAP1 POP DUP2 DUP2 SUB PUSH0 DUP4 ADD MSTORE PUSH3 0x10D3 DUP2 PUSH3 0x1094 JUMP JUMPDEST SWAP1 POP SWAP2 SWAP1 POP JUMP JUMPDEST PUSH2 0x2663 DUP1 PUSH3 0x10E8 PUSH0 CODECOPY PUSH0 RETURN INVALID PUSH1 0x80 PUSH1 0x40 MSTORE CALLVALUE DUP1 ISZERO PUSH2 0xF JUMPI PUSH0 DUP1 REVERT JUMPDEST POP PUSH1 0x4 CALLDATASIZE LT PUSH2 0x1EE JUMPI PUSH0 CALLDATALOAD PUSH1 0xE0 SHR DUP1 PUSH4 0x5D098B38 GT PUSH2 0x10D JUMPI DUP1 PUSH4 0xA457C2D7 GT PUSH2 0xA0 JUMPI DUP1 PUSH4 0xBBA8C23F GT PUSH2 0x6F JUMPI DUP1 PUSH4 0xBBA8C23F EQ PUSH2 0x588 JUMPI DUP1 PUSH4 0xC31C9C07 EQ PUSH2 0x5A6 JUMPI DUP1 PUSH4 0xDD62ED3E EQ PUSH2 0x5C4 JUMPI DUP1 PUSH4 0xF2FDE38B EQ PUSH2 0x5F4 JUMPI PUSH2 0x1EE JUMP JUMPDEST DUP1 PUSH4 0xA457C2D7 EQ PUSH2 0x4EE JUMPI DUP1 PUSH4 0xA4F4A765 EQ PUSH2 0x51E JUMPI DUP1 PUSH4 0xA9059CBB EQ PUSH2 0x53C JUMPI DUP1 PUSH4 0xB41150C5 EQ PUSH2 0x56C JUMPI PUSH2 0x1EE JUMP JUMPDEST DUP1 PUSH4 0x8DA5CB5B GT PUSH2 0xDC JUMPI DUP1 PUSH4 0x8DA5CB5B EQ PUSH2 0x476 JUMPI DUP1 PUSH4 0x95D89B41 EQ PUSH2 0x494 JUMPI DUP1 PUSH4 0x962DFC75 EQ PUSH2 0x4B2 JUMPI DUP1 PUSH4 0xA21028DB EQ PUSH2 0x4D0 JUMPI PUSH2 0x1EE JUMP JUMPDEST DUP1 PUSH4 0x5D098B38 EQ PUSH2 0x402 JUMPI DUP1 PUSH4 0x70A08231 EQ PUSH2 0x41E JUMPI DUP1 PUSH4 0x715018A6 EQ PUSH2 0x44E JUMPI DUP1 PUSH4 0x88529BAD EQ PUSH2 0x458 JUMPI PUSH2 0x1EE JUMP JUMPDEST DUP1 PUSH4 0x26991CC8 GT PUSH2 0x185 JUMPI DUP1 PUSH4 0x487C70FC GT PUSH2 0x154 JUMPI DUP1 PUSH4 0x487C70FC EQ PUSH2 0x38C JUMPI DUP1 PUSH4 0x4E8BFCFC EQ PUSH2 0x3AA JUMPI DUP1 PUSH4 0x51492BE7 EQ PUSH2 0x3C8 JUMPI DUP1 PUSH4 0x5958621E EQ PUSH2 0x3E6 JUMPI PUSH2 0x1EE JUMP JUMPDEST DUP1 PUSH4 0x26991CC8 EQ PUSH2 0x302 JUMPI DUP1 PUSH4 0x313CE567 EQ PUSH2 0x320 JUMPI DUP1 PUSH4 0x39509351 EQ PUSH2 0x33E JUMPI DUP1 PUSH4 0x4753FA35 EQ PUSH2 0x36E JUMPI PUSH2 0x1EE JUMP JUMPDEST DUP1 PUSH4 0xE7E573F GT PUSH2 0x1C1 JUMPI DUP1 PUSH4 0xE7E573F EQ PUSH2 0x27A JUMPI DUP1 PUSH4 0x18160DDD EQ PUSH2 0x296 JUMPI DUP1 PUSH4 0x1BD313C8 EQ PUSH2 0x2B4 JUMPI DUP1 PUSH4 0x23B872DD EQ PUSH2 0x2D2 JUMPI PUSH2 0x1EE JUMP JUMPDEST DUP1 PUSH4 0x1AAED92 EQ PUSH2 0x1F2 JUMPI DUP1 PUSH4 0x6FDDE03 EQ PUSH2 0x20E JUMPI DUP1 PUSH4 0x95EA7B3 EQ PUSH2 0x22C JUMPI DUP1 PUSH4 0x9F30A03 EQ PUSH2 0x25C JUMPI JUMPDEST PUSH0 DUP1 REVERT JUMPDEST PUSH2 0x20C PUSH1 0x4 DUP1 CALLDATASIZE SUB DUP2 ADD SWAP1 PUSH2 0x207 SWAP2 SWAP1 PUSH2 0x1802 JUMP JUMPDEST PUSH2 0x610 JUMP JUMPDEST STOP JUMPDEST PUSH2 0x216 PUSH2 0x644 JUMP JUMPDEST PUSH1 0x40 MLOAD PUSH2 0x223 SWAP2 SWAP1 PUSH2 0x18DC JUMP JUMPDEST PUSH1 0x40 MLOAD DUP1 SWAP2 SUB SWAP1 RETURN JUMPDEST PUSH2 0x246 PUSH1 0x4 DUP1 CALLDATASIZE SUB DUP2 ADD SWAP1 PUSH2 0x241 SWAP2 SWAP1 PUSH2 0x1956 JUMP JUMPDEST PUSH2 0x6D4 JUMP JUMPDEST PUSH1 0x40 MLOAD PUSH2 0x253 SWAP2 SWAP1 PUSH2 0x19AE JUMP JUMPDEST PUSH1 0x40 MLOAD DUP1 SWAP2 SUB SWAP1 RETURN JUMPDEST PUSH2 0x264 PUSH2 0x6F6 JUMP JUMPDEST PUSH1 0x40 MLOAD PUSH2 0x271 SWAP2 SWAP1 PUSH2 0x19D6 JUMP JUMPDEST PUSH1 0x40 MLOAD DUP1 SWAP2 SUB SWAP1 RETURN JUMPDEST PUSH2 0x294 PUSH1 0x4 DUP1 CALLDATASIZE SUB DUP2 ADD SWAP1 PUSH2 0x28F SWAP2 SWAP1 PUSH2 0x19EF JUMP JUMPDEST PUSH2 0x6FC JUMP JUMPDEST STOP JUMPDEST PUSH2 0x29E PUSH2 0x72C JUMP JUMPDEST PUSH1 0x40 MLOAD PUSH2 0x2AB SWAP2 SWAP1 PUSH2 0x19D6 JUMP JUMPDEST PUSH1 0x40 MLOAD DUP1 SWAP2 SUB SWAP1 RETURN JUMPDEST PUSH2 0x2BC PUSH2 0x735 JUMP JUMPDEST PUSH1 0x40 MLOAD PUSH2 0x2C9 SWAP2 SWAP1 PUSH2 0x19D6 JUMP JUMPDEST PUSH1 0x40 MLOAD DUP1 SWAP2 SUB SWAP1 RETURN JUMPDEST PUSH2 0x2EC PUSH1 0x4 DUP1 CALLDATASIZE SUB DUP2 ADD SWAP1 PUSH2 0x2E7 SWAP2 SWAP1 PUSH2 0x1A1A JUMP JUMPDEST PUSH2 0x73B JUMP JUMPDEST PUSH1 0x40 MLOAD PUSH2 0x2F9 SWAP2 SWAP1 PUSH2 0x19AE JUMP JUMPDEST PUSH1 0x40 MLOAD DUP1 SWAP2 SUB SWAP1 RETURN JUMPDEST PUSH2 0x30A PUSH2 0x769 JUMP JUMPDEST PUSH1 0x40 MLOAD PUSH2 0x317 SWAP2 SWAP1 PUSH2 0x1A79 JUMP JUMPDEST PUSH1 0x40 MLOAD DUP1 SWAP2 SUB SWAP1 RETURN JUMPDEST PUSH2 0x328 PUSH2 0x78E JUMP JUMPDEST PUSH1 0x40 MLOAD PUSH2 0x335 SWAP2 SWAP1 PUSH2 0x1AAD JUMP JUMPDEST PUSH1 0x40 MLOAD DUP1 SWAP2 SUB SWAP1 RETURN JUMPDEST PUSH2 0x358 PUSH1 0x4 DUP1 CALLDATASIZE SUB DUP2 ADD SWAP1 PUSH2 0x353 SWAP2 SWAP1 PUSH2 0x1956 JUMP JUMPDEST PUSH2 0x796 JUMP JUMPDEST PUSH1 0x40 MLOAD PUSH2 0x365 SWAP2 SWAP1 PUSH2 0x19AE JUMP JUMPDEST PUSH1 0x40 MLOAD DUP1 SWAP2 SUB SWAP1 RETURN JUMPDEST PUSH2 0x376 PUSH2 0x7CC JUMP JUMPDEST PUSH1 0x40 MLOAD PUSH2 0x383 SWAP2 SWAP1 PUSH2 0x19D6 JUMP JUMPDEST PUSH1 0x40 MLOAD DUP1 SWAP2 SUB SWAP1 RETURN JUMPDEST PUSH2 0x394 PUSH2 0x7D2 JUMP JUMPDEST PUSH1 0x40 MLOAD PUSH2 0x3A1 SWAP2 SWAP1 PUSH2 0x19D6 JUMP JUMPDEST PUSH1 0x40 MLOAD DUP1 SWAP2 SUB SWAP1 RETURN JUMPDEST PUSH2 0x3B2 PUSH2 0x7D8 JUMP JUMPDEST PUSH1 0x40 MLOAD PUSH2 0x3BF SWAP2 SWAP1 PUSH2 0x19D6 JUMP JUMPDEST PUSH1 0x40 MLOAD DUP1 SWAP2 SUB SWAP1 RETURN JUMPDEST PUSH2 0x3D0 PUSH2 0x7DE JUMP JUMPDEST PUSH1 0x40 MLOAD PUSH2 0x3DD SWAP2 SWAP1 PUSH2 0x19D6 JUMP JUMPDEST PUSH1 0x40 MLOAD DUP1 SWAP2 SUB SWAP1 RETURN JUMPDEST PUSH2 0x400 PUSH1 0x4 DUP1 CALLDATASIZE SUB DUP2 ADD SWAP1 PUSH2 0x3FB SWAP2 SWAP1 PUSH2 0x1AC6 JUMP JUMPDEST PUSH2 0x7E4 JUMP JUMPDEST STOP JUMPDEST PUSH2 0x41C PUSH1 0x4 DUP1 CALLDATASIZE SUB DUP2 ADD SWAP1 PUSH2 0x417 SWAP2 SWAP1 PUSH2 0x1AC6 JUMP JUMPDEST PUSH2 0x82F JUMP JUMPDEST STOP JUMPDEST PUSH2 0x438 PUSH1 0x4 DUP1 CALLDATASIZE SUB DUP2 ADD SWAP1 PUSH2 0x433 SWAP2 SWAP1 PUSH2 0x1AC6 JUMP JUMPDEST PUSH2 0x87A JUMP JUMPDEST PUSH1 0x40 MLOAD PUSH2 0x445 SWAP2 SWAP1 PUSH2 0x19D6 JUMP JUMPDEST PUSH1 0x40 MLOAD DUP1 SWAP2 SUB SWAP1 RETURN JUMPDEST PUSH2 0x456 PUSH2 0x8BF JUMP JUMPDEST STOP JUMPDEST PUSH2 0x460 PUSH2 0x8D2 JUMP JUMPDEST PUSH1 0x40 MLOAD PUSH2 0x46D SWAP2 SWAP1 PUSH2 0x19D6 JUMP JUMPDEST PUSH1 0x40 MLOAD DUP1 SWAP2 SUB SWAP1 RETURN JUMPDEST PUSH2 0x47E PUSH2 0x8D8 JUMP JUMPDEST PUSH1 0x40 MLOAD PUSH2 0x48B SWAP2 SWAP1 PUSH2 0x1A79 JUMP JUMPDEST PUSH1 0x40 MLOAD DUP1 SWAP2 SUB SWAP1 RETURN JUMPDEST PUSH2 0x49C PUSH2 0x900 JUMP JUMPDEST PUSH1 0x40 MLOAD PUSH2 0x4A9 SWAP2 SWAP1 PUSH2 0x18DC JUMP JUMPDEST PUSH1 0x40 MLOAD DUP1 SWAP2 SUB SWAP1 RETURN JUMPDEST PUSH2 0x4BA PUSH2 0x990 JUMP JUMPDEST PUSH1 0x40 MLOAD PUSH2 0x4C7 SWAP2 SWAP1 PUSH2 0x1A79 JUMP JUMPDEST PUSH1 0x40 MLOAD DUP1 SWAP2 SUB SWAP1 RETURN JUMPDEST PUSH2 0x4D8 PUSH2 0x9B5 JUMP JUMPDEST PUSH1 0x40 MLOAD PUSH2 0x4E5 SWAP2 SWAP1 PUSH2 0x19D6 JUMP JUMPDEST PUSH1 0x40 MLOAD DUP1 SWAP2 SUB SWAP1 RETURN JUMPDEST PUSH2 0x508 PUSH1 0x4 DUP1 CALLDATASIZE SUB DUP2 ADD SWAP1 PUSH2 0x503 SWAP2 SWAP1 PUSH2 0x1956 JUMP JUMPDEST PUSH2 0x9BB JUMP JUMPDEST PUSH1 0x40 MLOAD PUSH2 0x515 SWAP2 SWAP1 PUSH2 0x19AE JUMP JUMPDEST PUSH1 0x40 MLOAD DUP1 SWAP2 SUB SWAP1 RETURN JUMPDEST PUSH2 0x526 PUSH2 0xA30 JUMP JUMPDEST PUSH1 0x40 MLOAD PUSH2 0x533 SWAP2 SWAP1 PUSH2 0x1A79 JUMP JUMPDEST PUSH1 0x40 MLOAD DUP1 SWAP2 SUB SWAP1 RETURN JUMPDEST PUSH2 0x556 PUSH1 0x4 DUP1 CALLDATASIZE SUB DUP2 ADD SWAP1 PUSH2 0x551 SWAP2 SWAP1 PUSH2 0x1956 JUMP JUMPDEST PUSH2 0xA55 JUMP JUMPDEST PUSH1 0x40 MLOAD PUSH2 0x563 SWAP2 SWAP1 PUSH2 0x19AE JUMP JUMPDEST PUSH1 0x40 MLOAD DUP1 SWAP2 SUB SWAP1 RETURN JUMPDEST PUSH2 0x586 PUSH1 0x4 DUP1 CALLDATASIZE SUB DUP2 ADD SWAP1 PUSH2 0x581 SWAP2 SWAP1 PUSH2 0x1802 JUMP JUMPDEST PUSH2 0xA77 JUMP JUMPDEST STOP JUMPDEST PUSH2 0x590 PUSH2 0xAB6 JUMP JUMPDEST PUSH1 0x40 MLOAD PUSH2 0x59D SWAP2 SWAP1 PUSH2 0x19D6 JUMP JUMPDEST PUSH1 0x40 MLOAD DUP1 SWAP2 SUB SWAP1 RETURN JUMPDEST PUSH2 0x5AE PUSH2 0xABC JUMP JUMPDEST PUSH1 0x40 MLOAD PUSH2 0x5BB SWAP2 SWAP1 PUSH2 0x1B4C JUMP JUMPDEST PUSH1 0x40 MLOAD DUP1 SWAP2 SUB SWAP1 RETURN JUMPDEST PUSH2 0x5DE PUSH1 0x4 DUP1 CALLDATASIZE SUB DUP2 ADD SWAP1 PUSH2 0x5D9 SWAP2 SWAP1 PUSH2 0x1B65 JUMP JUMPDEST PUSH2 0xAE1 JUMP JUMPDEST PUSH1 0x40 MLOAD PUSH2 0x5EB SWAP2 SWAP1 PUSH2 0x19D6 JUMP JUMPDEST PUSH1 0x40 MLOAD DUP1 SWAP2 SUB SWAP1 RETURN JUMPDEST PUSH2 0x60E PUSH1 0x4 DUP1 CALLDATASIZE SUB DUP2 ADD SWAP1 PUSH2 0x609 SWAP2 SWAP1 PUSH2 0x1AC6 JUMP JUMPDEST PUSH2 0xB63 JUMP JUMPDEST STOP JUMPDEST PUSH2 0x618 PUSH2 0xBE5 JUMP JUMPDEST DUP3 PUSH1 0x9 DUP2 SWAP1 SSTORE POP DUP2 PUSH1 0xA DUP2 SWAP1 SSTORE POP DUP1 PUSH1 0xB DUP2 SWAP1 SSTORE POP DUP1 DUP4 PUSH2 0x639 SWAP2 SWAP1 PUSH2 0x1BD0 JUMP JUMPDEST PUSH1 0x8 DUP2 SWAP1 SSTORE POP POP POP POP JUMP JUMPDEST PUSH1 0x60 PUSH1 0x3 DUP1 SLOAD PUSH2 0x653 SWAP1 PUSH2 0x1C30 JUMP JUMPDEST DUP1 PUSH1 0x1F ADD PUSH1 0x20 DUP1 SWAP2 DIV MUL PUSH1 0x20 ADD PUSH1 0x40 MLOAD SWAP1 DUP2 ADD PUSH1 0x40 MSTORE DUP1 SWAP3 SWAP2 SWAP1 DUP2 DUP2 MSTORE PUSH1 0x20 ADD DUP3 DUP1 SLOAD PUSH2 0x67F SWAP1 PUSH2 0x1C30 JUMP JUMPDEST DUP1 ISZERO PUSH2 0x6CA JUMPI DUP1 PUSH1 0x1F LT PUSH2 0x6A1 JUMPI PUSH2 0x100 DUP1 DUP4 SLOAD DIV MUL DUP4 MSTORE SWAP2 PUSH1 0x20 ADD SWAP2 PUSH2 0x6CA JUMP JUMPDEST DUP3 ADD SWAP2 SWAP1 PUSH0 MSTORE PUSH1 0x20 PUSH0 KECCAK256 SWAP1 JUMPDEST DUP2 SLOAD DUP2 MSTORE SWAP1 PUSH1 0x1 ADD SWAP1 PUSH1 0x20 ADD DUP1 DUP4 GT PUSH2 0x6AD JUMPI DUP3 SWAP1 SUB PUSH1 0x1F AND DUP3 ADD SWAP2 JUMPDEST POP POP POP POP POP SWAP1 POP SWAP1 JUMP JUMPDEST PUSH0 DUP1 PUSH2 0x6DE PUSH2 0xC63 JUMP JUMPDEST SWAP1 POP PUSH2 0x6EB DUP2 DUP6 DUP6 PUSH2 0xC6A JUMP JUMPDEST PUSH1 0x1 SWAP2 POP POP SWAP3 SWAP2 POP POP JUMP JUMPDEST PUSH1 0xD SLOAD DUP2 JUMP JUMPDEST PUSH2 0x704 PUSH2 0xBE5 JUMP JUMPDEST PUSH2 0x70C PUSH2 0x78E JUMP JUMPDEST PUSH1 0xA PUSH2 0x718 SWAP2 SWAP1 PUSH2 0x1D8F JUMP JUMPDEST DUP2 PUSH2 0x723 SWAP2 SWAP1 PUSH2 0x1DD9 JUMP JUMPDEST PUSH1 0x10 DUP2 SWAP1 SSTORE POP POP JUMP JUMPDEST PUSH0 PUSH1 0x2 SLOAD SWAP1 POP SWAP1 JUMP JUMPDEST PUSH1 0xB SLOAD DUP2 JUMP JUMPDEST PUSH0 DUP1 PUSH2 0x745 PUSH2 0xC63 JUMP JUMPDEST SWAP1 POP PUSH2 0x752 DUP6 DUP3 DUP6 PUSH2 0xE2D JUMP JUMPDEST PUSH2 0x75D DUP6 DUP6 DUP6 PUSH2 0xEB8 JUMP JUMPDEST PUSH1 0x1 SWAP2 POP POP SWAP4 SWAP3 POP POP POP JUMP JUMPDEST PUSH1 0x15 PUSH0 SWAP1 SLOAD SWAP1 PUSH2 0x100 EXP SWAP1 DIV PUSH20 0xFFFFFFFFFFFFFFFFFFFFFFFFFFFFFFFFFFFFFFFF AND DUP2 JUMP JUMPDEST PUSH0 PUSH1 0x12 SWAP1 POP SWAP1 JUMP JUMPDEST PUSH0 DUP1 PUSH2 0x7A0 PUSH2 0xC63 JUMP JUMPDEST SWAP1 POP PUSH2 0x7C1 DUP2 DUP6 DUP6 PUSH2 0x7B2 DUP6 DUP10 PUSH2 0xAE1 JUMP JUMPDEST PUSH2 0x7BC SWAP2 SWAP1 PUSH2 0x1BD0 JUMP JUMPDEST PUSH2 0xC6A JUMP JUMPDEST PUSH1 0x1 SWAP2 POP POP SWAP3 SWAP2 POP POP JUMP JUMPDEST PUSH1 0x9 SLOAD DUP2 JUMP JUMPDEST PUSH1 0x10 SLOAD DUP2 JUMP JUMPDEST PUSH1 0xF SLOAD DUP2 JUMP JUMPDEST PUSH1 0xA SLOAD DUP2 JUMP JUMPDEST PUSH2 0x7EC PUSH2 0xBE5 JUMP JUMPDEST DUP1 PUSH1 0x6 PUSH0 PUSH2 0x100 EXP DUP2 SLOAD DUP2 PUSH20 0xFFFFFFFFFFFFFFFFFFFFFFFFFFFFFFFFFFFFFFFF MUL NOT AND SWAP1 DUP4 PUSH20 0xFFFFFFFFFFFFFFFFFFFFFFFFFFFFFFFFFFFFFFFF AND MUL OR SWAP1 SSTORE POP POP JUMP JUMPDEST PUSH2 0x837 PUSH2 0xBE5 JUMP JUMPDEST DUP1 PUSH1 0x7 PUSH0 PUSH2 0x100 EXP DUP2 SLOAD DUP2 PUSH20 0xFFFFFFFFFFFFFFFFFFFFFFFFFFFFFFFFFFFFFFFF MUL NOT AND SWAP1 DUP4 PUSH20 0xFFFFFFFFFFFFFFFFFFFFFFFFFFFFFFFFFFFFFFFF AND MUL OR SWAP1 SSTORE POP POP JUMP JUMPDEST PUSH0 DUP1 PUSH0 DUP4 PUSH20 0xFFFFFFFFFFFFFFFFFFFFFFFFFFFFFFFFFFFFFFFF AND PUSH20 0xFFFFFFFFFFFFFFFFFFFFFFFFFFFFFFFFFFFFFFFF AND DUP2 MSTORE PUSH1 0x20 ADD SWAP1 DUP2 MSTORE PUSH1 0x20 ADD PUSH0 KECCAK256 SLOAD SWAP1 POP SWAP2 SWAP1 POP JUMP JUMPDEST PUSH2 0x8C7 PUSH2 0xBE5 JUMP JUMPDEST PUSH2 0x8D0 PUSH0 PUSH2 0x114D JUMP JUMPDEST JUMP JUMPDEST PUSH1 0xC SLOAD DUP2 JUMP JUMPDEST PUSH0 PUSH1 0x5 PUSH0 SWAP1 SLOAD SWAP1 PUSH2 0x100 EXP SWAP1 DIV PUSH20 0xFFFFFFFFFFFFFFFFFFFFFFFFFFFFFFFFFFFFFFFF AND SWAP1 POP SWAP1 JUMP JUMPDEST PUSH1 0x60 PUSH1 0x4 DUP1 SLOAD PUSH2 0x90F SWAP1 PUSH2 0x1C30 JUMP JUMPDEST DUP1 PUSH1 0x1F ADD PUSH1 0x20 DUP1 SWAP2 DIV MUL PUSH1 0x20 ADD PUSH1 0x40 MLOAD SWAP1 DUP2 ADD PUSH1 0x40 MSTORE DUP1 SWAP3 SWAP2 SWAP1 DUP2 DUP2 MSTORE PUSH1 0x20 ADD DUP3 DUP1 SLOAD PUSH2 0x93B SWAP1 PUSH2 0x1C30 JUMP JUMPDEST DUP1 ISZERO PUSH2 0x986 JUMPI DUP1 PUSH1 0x1F LT PUSH2 0x95D JUMPI PUSH2 0x100 DUP1 DUP4 SLOAD DIV MUL DUP4 MSTORE SWAP2 PUSH1 0x20 ADD SWAP2 PUSH2 0x986 JUMP JUMPDEST DUP3 ADD SWAP2 SWAP1 PUSH0 MSTORE PUSH1 0x20 PUSH0 KECCAK256 SWAP1 JUMPDEST DUP2 SLOAD DUP2 MSTORE SWAP1 PUSH1 0x1 ADD SWAP1 PUSH1 0x20 ADD DUP1 DUP4 GT PUSH2 0x969 JUMPI DUP3 SWAP1 SUB PUSH1 0x1F AND DUP3 ADD SWAP2 JUMPDEST POP POP POP POP POP SWAP1 POP SWAP1 JUMP JUMPDEST PUSH1 0x7 PUSH0 SWAP1 SLOAD SWAP1 PUSH2 0x100 EXP SWAP1 DIV PUSH20 0xFFFFFFFFFFFFFFFFFFFFFFFFFFFFFFFFFFFFFFFF AND DUP2 JUMP JUMPDEST PUSH1 0x8 SLOAD DUP2 JUMP JUMPDEST PUSH0 DUP1 PUSH2 0x9C5 PUSH2 0xC63 JUMP JUMPDEST SWAP1 POP PUSH0 PUSH2 0x9D2 DUP3 DUP7 PUSH2 0xAE1 JUMP JUMPDEST SWAP1 POP DUP4 DUP2 LT ISZERO PUSH2 0xA17 JUMPI PUSH1 0x40 MLOAD PUSH32 0x8C379A000000000000000000000000000000000000000000000000000000000 DUP2 MSTORE PUSH1 0x4 ADD PUSH2 0xA0E SWAP1 PUSH2 0x1E8A JUMP JUMPDEST PUSH1 0x40 MLOAD DUP1 SWAP2 SUB SWAP1 REVERT JUMPDEST PUSH2 0xA24 DUP3 DUP7 DUP7 DUP5 SUB PUSH2 0xC6A JUMP JUMPDEST PUSH1 0x1 SWAP3 POP POP POP SWAP3 SWAP2 POP POP JUMP JUMPDEST PUSH1 0x6 PUSH0 SWAP1 SLOAD SWAP1 PUSH2 0x100 EXP SWAP1 DIV PUSH20 0xFFFFFFFFFFFFFFFFFFFFFFFFFFFFFFFFFFFFFFFF AND DUP2 JUMP JUMPDEST PUSH0 DUP1 PUSH2 0xA5F PUSH2 0xC63 JUMP JUMPDEST SWAP1 POP PUSH2 0xA6C DUP2 DUP6 DUP6 PUSH2 0xEB8 JUMP JUMPDEST PUSH1 0x1 SWAP2 POP POP SWAP3 SWAP2 POP POP JUMP JUMPDEST PUSH2 0xA7F PUSH2 0xBE5 JUMP JUMPDEST DUP3 PUSH1 0xD DUP2 SWAP1 SSTORE POP DUP2 PUSH1 0xE DUP2 SWAP1 SSTORE POP DUP1 PUSH1 0xF DUP2 SWAP1 SSTORE POP DUP1 DUP3 DUP5 PUSH2 0xAA1 SWAP2 SWAP1 PUSH2 0x1BD0 JUMP JUMPDEST PUSH2 0xAAB SWAP2 SWAP1 PUSH2 0x1BD0 JUMP JUMPDEST PUSH1 0xC DUP2 SWAP1 SSTORE POP POP POP POP JUMP JUMPDEST PUSH1 0xE SLOAD DUP2 JUMP JUMPDEST PUSH1 0x14 PUSH0 SWAP1 SLOAD SWAP1 PUSH2 0x100 EXP SWAP1 DIV PUSH20 0xFFFFFFFFFFFFFFFFFFFFFFFFFFFFFFFFFFFFFFFF AND DUP2 JUMP JUMPDEST PUSH0 PUSH1 0x1 PUSH0 DUP5 PUSH20 0xFFFFFFFFFFFFFFFFFFFFFFFFFFFFFFFFFFFFFFFF AND PUSH20 0xFFFFFFFFFFFFFFFFFFFFFFFFFFFFFFFFFFFFFFFF AND DUP2 MSTORE PUSH1 0x20 ADD SWAP1 DUP2 MSTORE PUSH1 0x20 ADD PUSH0 KECCAK256 PUSH0 DUP4 PUSH20 0xFFFFFFFFFFFFFFFFFFFFFFFFFFFFFFFFFFFFFFFF AND PUSH20 0xFFFFFFFFFFFFFFFFFFFFFFFFFFFFFFFFFFFFFFFF AND DUP2 MSTORE PUSH1 0x20 ADD SWAP1 DUP2 MSTORE PUSH1 0x20 ADD PUSH0 KECCAK256 SLOAD SWAP1 POP SWAP3 SWAP2 POP POP JUMP JUMPDEST PUSH2 0xB6B PUSH2 0xBE5 JUMP JUMPDEST PUSH0 PUSH20 0xFFFFFFFFFFFFFFFFFFFFFFFFFFFFFFFFFFFFFFFF AND DUP2 PUSH20 0xFFFFFFFFFFFFFFFFFFFFFFFFFFFFFFFFFFFFFFFF AND SUB PUSH2 0xBD9 JUMPI PUSH1 0x40 MLOAD PUSH32 0x8C379A000000000000000000000000000000000000000000000000000000000 DUP2 MSTORE PUSH1 0x4 ADD PUSH2 0xBD0 SWAP1 PUSH2 0x1F18 JUMP JUMPDEST PUSH1 0x40 MLOAD DUP1 SWAP2 SUB SWAP1 REVERT JUMPDEST PUSH2 0xBE2 DUP2 PUSH2 0x114D JUMP JUMPDEST POP JUMP JUMPDEST PUSH2 0xBED PUSH2 0xC63 JUMP JUMPDEST PUSH20 0xFFFFFFFFFFFFFFFFFFFFFFFFFFFFFFFFFFFFFFFF AND PUSH2 0xC0B PUSH2 0x8D8 JUMP JUMPDEST PUSH20 0xFFFFFFFFFFFFFFFFFFFFFFFFFFFFFFFFFFFFFFFF AND EQ PUSH2 0xC61 JUMPI PUSH1 0x40 MLOAD PUSH32 0x8C379A000000000000000000000000000000000000000000000000000000000 DUP2 MSTORE PUSH1 0x4 ADD PUSH2 0xC58 SWAP1 PUSH2 0x1F80 JUMP JUMPDEST PUSH1 0x40 MLOAD DUP1 SWAP2 SUB SWAP1 REVERT JUMPDEST JUMP JUMPDEST PUSH0 CALLER SWAP1 POP SWAP1 JUMP JUMPDEST PUSH0 PUSH20 0xFFFFFFFFFFFFFFFFFFFFFFFFFFFFFFFFFFFFFFFF AND DUP4 PUSH20 0xFFFFFFFFFFFFFFFFFFFFFFFFFFFFFFFFFFFFFFFF AND SUB PUSH2 0xCD8 JUMPI PUSH1 0x40 MLOAD PUSH32 0x8C379A000000000000000000000000000000000000000000000000000000000 DUP2 MSTORE PUSH1 0x4 ADD PUSH2 0xCCF SWAP1 PUSH2 0x200E JUMP JUMPDEST PUSH1 0x40 MLOAD DUP1 SWAP2 SUB SWAP1 REVERT JUMPDEST PUSH0 PUSH20 0xFFFFFFFFFFFFFFFFFFFFFFFFFFFFFFFFFFFFFFFF AND DUP3 PUSH20 0xFFFFFFFFFFFFFFFFFFFFFFFFFFFFFFFFFFFFFFFF AND SUB PUSH2 0xD46 JUMPI PUSH1 0x40 MLOAD PUSH32 0x8C379A000000000000000000000000000000000000000000000000000000000 DUP2 MSTORE PUSH1 0x4 ADD PUSH2 0xD3D SWAP1 PUSH2 0x209C JUMP JUMPDEST PUSH1 0x40 MLOAD DUP1 SWAP2 SUB SWAP1 REVERT JUMPDEST DUP1 PUSH1 0x1 PUSH0 DUP6 PUSH20 0xFFFFFFFFFFFFFFFFFFFFFFFFFFFFFFFFFFFFFFFF AND PUSH20 0xFFFFFFFFFFFFFFFFFFFFFFFFFFFFFFFFFFFFFFFF AND DUP2 MSTORE PUSH1 0x20 ADD SWAP1 DUP2 MSTORE PUSH1 0x20 ADD PUSH0 KECCAK256 PUSH0 DUP5 PUSH20 0xFFFFFFFFFFFFFFFFFFFFFFFFFFFFFFFFFFFFFFFF AND PUSH20 0xFFFFFFFFFFFFFFFFFFFFFFFFFFFFFFFFFFFFFFFF AND DUP2 MSTORE PUSH1 0x20 ADD SWAP1 DUP2 MSTORE PUSH1 0x20 ADD PUSH0 KECCAK256 DUP2 SWAP1 SSTORE POP DUP2 PUSH20 0xFFFFFFFFFFFFFFFFFFFFFFFFFFFFFFFFFFFFFFFF AND DUP4 PUSH20 0xFFFFFFFFFFFFFFFFFFFFFFFFFFFFFFFFFFFFFFFF AND PUSH32 0x8C5BE1E5EBEC7D5BD14F71427D1E84F3DD0314C0F7B2291E5B200AC8C7C3B925 DUP4 PUSH1 0x40 MLOAD PUSH2 0xE20 SWAP2 SWAP1 PUSH2 0x19D6 JUMP JUMPDEST PUSH1 0x40 MLOAD DUP1 SWAP2 SUB SWAP1 LOG3 POP POP POP JUMP JUMPDEST PUSH0 PUSH2 0xE38 DUP5 DUP5 PUSH2 0xAE1 JUMP JUMPDEST SWAP1 POP PUSH32 0xFFFFFFFFFFFFFFFFFFFFFFFFFFFFFFFFFFFFFFFFFFFFFFFFFFFFFFFFFFFFFFFF DUP2 EQ PUSH2 0xEB2 JUMPI DUP2 DUP2 LT ISZERO PUSH2 0xEA4 JUMPI PUSH1 0x40 MLOAD PUSH32 0x8C379A000000000000000000000000000000000000000000000000000000000 DUP2 MSTORE PUSH1 0x4 ADD PUSH2 0xE9B SWAP1 PUSH2 0x2104 JUMP JUMPDEST PUSH1 0x40 MLOAD DUP1 SWAP2 SUB SWAP1 REVERT JUMPDEST PUSH2 0xEB1 DUP5 DUP5 DUP5 DUP5 SUB PUSH2 0xC6A JUMP JUMPDEST JUMPDEST POP POP POP POP JUMP JUMPDEST PUSH0 DUP1 PUSH1 0x15 PUSH0 SWAP1 SLOAD SWAP1 PUSH2 0x100 EXP SWAP1 DIV PUSH20 0xFFFFFFFFFFFFFFFFFFFFFFFFFFFFFFFFFFFFFFFF AND PUSH20 0xFFFFFFFFFFFFFFFFFFFFFFFFFFFFFFFFFFFFFFFF AND DUP5 PUSH20 0xFFFFFFFFFFFFFFFFFFFFFFFFFFFFFFFFFFFFFFFF AND SUB PUSH2 0xF33 JUMPI PUSH1 0x64 PUSH1 0xC SLOAD DUP5 PUSH2 0xF1E SWAP2 SWAP1 PUSH2 0x1DD9 JUMP JUMPDEST PUSH2 0xF28 SWAP2 SWAP1 PUSH2 0x214F JUMP JUMPDEST SWAP2 POP PUSH1 0x1 SWAP1 POP PUSH2 0xFA9 JUMP JUMPDEST PUSH1 0x15 PUSH0 SWAP1 SLOAD SWAP1 PUSH2 0x100 EXP SWAP1 DIV PUSH20 0xFFFFFFFFFFFFFFFFFFFFFFFFFFFFFFFFFFFFFFFF AND PUSH20 0xFFFFFFFFFFFFFFFFFFFFFFFFFFFFFFFFFFFFFFFF AND DUP6 PUSH20 0xFFFFFFFFFFFFFFFFFFFFFFFFFFFFFFFFFFFFFFFF AND SUB PUSH2 0xFA8 JUMPI PUSH1 0x64 PUSH1 0x8 SLOAD DUP5 PUSH2 0xF97 SWAP2 SWAP1 PUSH2 0x1DD9 JUMP JUMPDEST PUSH2 0xFA1 SWAP2 SWAP1 PUSH2 0x214F JUMP JUMPDEST SWAP2 POP PUSH1 0x2 SWAP1 POP JUMPDEST JUMPDEST PUSH2 0xFBF DUP6 DUP6 DUP5 DUP7 PUSH2 0xFBA SWAP2 SWAP1 PUSH2 0x217F JUMP JUMPDEST PUSH2 0x1210 JUMP JUMPDEST PUSH0 DUP3 GT ISZERO PUSH2 0x1131 JUMPI PUSH1 0x1 PUSH1 0x2 DUP2 GT ISZERO PUSH2 0xFDB JUMPI PUSH2 0xFDA PUSH2 0x21B2 JUMP JUMPDEST JUMPDEST DUP2 PUSH1 0x2 DUP2 GT ISZERO PUSH2 0xFEE JUMPI PUSH2 0xFED PUSH2 0x21B2 JUMP JUMPDEST JUMPDEST SUB PUSH2 0x108E JUMPI PUSH1 0xC SLOAD PUSH1 0xF SLOAD DUP4 PUSH2 0x1004 SWAP2 SWAP1 PUSH2 0x1DD9 JUMP JUMPDEST PUSH2 0x100E SWAP2 SWAP1 PUSH2 0x214F JUMP JUMPDEST PUSH1 0x13 PUSH0 DUP3 DUP3 SLOAD PUSH2 0x101E SWAP2 SWAP1 PUSH2 0x1BD0 JUMP JUMPDEST SWAP3 POP POP DUP2 SWAP1 SSTORE POP PUSH1 0xC SLOAD PUSH1 0xE SLOAD DUP4 PUSH2 0x1036 SWAP2 SWAP1 PUSH2 0x1DD9 JUMP JUMPDEST PUSH2 0x1040 SWAP2 SWAP1 PUSH2 0x214F JUMP JUMPDEST PUSH1 0x12 PUSH0 DUP3 DUP3 SLOAD PUSH2 0x1050 SWAP2 SWAP1 PUSH2 0x1BD0 JUMP JUMPDEST SWAP3 POP POP DUP2 SWAP1 SSTORE POP PUSH1 0xC SLOAD PUSH1 0xD SLOAD DUP4 PUSH2 0x1068 SWAP2 SWAP1 PUSH2 0x1DD9 JUMP JUMPDEST PUSH2 0x1072 SWAP2 SWAP1 PUSH2 0x214F JUMP JUMPDEST PUSH1 0x11 PUSH0 DUP3 DUP3 SLOAD PUSH2 0x1082 SWAP2 SWAP1 PUSH2 0x1BD0 JUMP JUMPDEST SWAP3 POP POP DUP2 SWAP1 SSTORE POP PUSH2 0x1125 JUMP JUMPDEST PUSH1 0x8 SLOAD PUSH1 0xB SLOAD DUP4 PUSH2 0x109F SWAP2 SWAP1 PUSH2 0x1DD9 JUMP JUMPDEST PUSH2 0x10A9 SWAP2 SWAP1 PUSH2 0x214F JUMP JUMPDEST PUSH1 0x13 PUSH0 DUP3 DUP3 SLOAD PUSH2 0x10B9 SWAP2 SWAP1 PUSH2 0x1BD0 JUMP JUMPDEST SWAP3 POP POP DUP2 SWAP1 SSTORE POP PUSH1 0x8 SLOAD PUSH1 0xA SLOAD DUP4 PUSH2 0x10D1 SWAP2 SWAP1 PUSH2 0x1DD9 JUMP JUMPDEST PUSH2 0x10DB SWAP2 SWAP1 PUSH2 0x214F JUMP JUMPDEST PUSH1 0x12 PUSH0 DUP3 DUP3 SLOAD PUSH2 0x10EB SWAP2 SWAP1 PUSH2 0x1BD0 JUMP JUMPDEST SWAP3 POP POP DUP2 SWAP1 SSTORE POP PUSH1 0x8 SLOAD PUSH1 0x9 SLOAD DUP4 PUSH2 0x1103 SWAP2 SWAP1 PUSH2 0x1DD9 JUMP JUMPDEST PUSH2 0x110D SWAP2 SWAP1 PUSH2 0x214F JUMP JUMPDEST PUSH1 0x11 PUSH0 DUP3 DUP3 SLOAD PUSH2 0x111D SWAP2 SWAP1 PUSH2 0x1BD0 JUMP JUMPDEST SWAP3 POP POP DUP2 SWAP1 SSTORE POP JUMPDEST PUSH2 0x1130 DUP6 ADDRESS DUP5 PUSH2 0x1210 JUMP JUMPDEST JUMPDEST PUSH1 0x10 SLOAD PUSH1 0x13 SLOAD GT ISZERO PUSH2 0x1146 JUMPI PUSH2 0x1145 PUSH2 0x1466 JUMP JUMPDEST JUMPDEST POP POP POP POP POP JUMP JUMPDEST PUSH0 PUSH1 0x5 PUSH0 SWAP1 SLOAD SWAP1 PUSH2 0x100 EXP SWAP1 DIV PUSH20 0xFFFFFFFFFFFFFFFFFFFFFFFFFFFFFFFFFFFFFFFF AND SWAP1 POP DUP2 PUSH1 0x5 PUSH0 PUSH2 0x100 EXP DUP2 SLOAD DUP2 PUSH20 0xFFFFFFFFFFFFFFFFFFFFFFFFFFFFFFFFFFFFFFFF MUL NOT AND SWAP1 DUP4 PUSH20 0xFFFFFFFFFFFFFFFFFFFFFFFFFFFFFFFFFFFFFFFF AND MUL OR SWAP1 SSTORE POP DUP2 PUSH20 0xFFFFFFFFFFFFFFFFFFFFFFFFFFFFFFFFFFFFFFFF AND DUP2 PUSH20 0xFFFFFFFFFFFFFFFFFFFFFFFFFFFFFFFFFFFFFFFF AND PUSH32 0x8BE0079C531659141344CD1FD0A4F28419497F9722A3DAAFE3B4186F6B6457E0 PUSH1 0x40 MLOAD PUSH1 0x40 MLOAD DUP1 SWAP2 SUB SWAP1 LOG3 POP POP JUMP JUMPDEST PUSH0 PUSH20 0xFFFFFFFFFFFFFFFFFFFFFFFFFFFFFFFFFFFFFFFF AND DUP4 PUSH20 0xFFFFFFFFFFFFFFFFFFFFFFFFFFFFFFFFFFFFFFFF AND SUB PUSH2 0x127E JUMPI PUSH1 0x40 MLOAD PUSH32 0x8C379A000000000000000000000000000000000000000000000000000000000 DUP2 MSTORE PUSH1 0x4 ADD PUSH2 0x1275 SWAP1 PUSH2 0x224F JUMP JUMPDEST PUSH1 0x40 MLOAD DUP1 SWAP2 SUB SWAP1 REVERT JUMPDEST PUSH0 PUSH20 0xFFFFFFFFFFFFFFFFFFFFFFFFFFFFFFFFFFFFFFFF AND DUP3 PUSH20 0xFFFFFFFFFFFFFFFFFFFFFFFFFFFFFFFFFFFFFFFF AND SUB PUSH2 0x12EC JUMPI PUSH1 0x40 MLOAD PUSH32 0x8C379A000000000000000000000000000000000000000000000000000000000 DUP2 MSTORE PUSH1 0x4 ADD PUSH2 0x12E3 SWAP1 PUSH2 0x22DD JUMP JUMPDEST PUSH1 0x40 MLOAD DUP1 SWAP2 SUB SWAP1 REVERT JUMPDEST PUSH0 DUP1 PUSH0 DUP6 PUSH20 0xFFFFFFFFFFFFFFFFFFFFFFFFFFFFFFFFFFFFFFFF AND PUSH20 0xFFFFFFFFFFFFFFFFFFFFFFFFFFFFFFFFFFFFFFFF AND DUP2 MSTORE PUSH1 0x20 ADD SWAP1 DUP2 MSTORE PUSH1 0x20 ADD PUSH0 KECCAK256 SLOAD SWAP1 POP DUP2 DUP2 LT ISZERO PUSH2 0x136F JUMPI PUSH1 0x40 MLOAD PUSH32 0x8C379A000000000000000000000000000000000000000000000000000000000 DUP2 MSTORE PUSH1 0x4 ADD PUSH2 0x1366 SWAP1 PUSH2 0x236B JUMP JUMPDEST PUSH1 0x40 MLOAD DUP1 SWAP2 SUB SWAP1 REVERT JUMPDEST DUP2 DUP2 SUB PUSH0 DUP1 DUP7 PUSH20 0xFFFFFFFFFFFFFFFFFFFFFFFFFFFFFFFFFFFFFFFF AND PUSH20 0xFFFFFFFFFFFFFFFFFFFFFFFFFFFFFFFFFFFFFFFF AND DUP2 MSTORE PUSH1 0x20 ADD SWAP1 DUP2 MSTORE PUSH1 0x20 ADD PUSH0 KECCAK256 DUP2 SWAP1 SSTORE POP DUP2 PUSH0 DUP1 DUP6 PUSH20 0xFFFFFFFFFFFFFFFFFFFFFFFFFFFFFFFFFFFFFFFF AND PUSH20 0xFFFFFFFFFFFFFFFFFFFFFFFFFFFFFFFFFFFFFFFF AND DUP2 MSTORE PUSH1 0x20 ADD SWAP1 DUP2 MSTORE PUSH1 0x20 ADD PUSH0 KECCAK256 PUSH0 DUP3 DUP3 SLOAD ADD SWAP3 POP POP DUP2 SWAP1 SSTORE POP DUP3 PUSH20 0xFFFFFFFFFFFFFFFFFFFFFFFFFFFFFFFFFFFFFFFF AND DUP5 PUSH20 0xFFFFFFFFFFFFFFFFFFFFFFFFFFFFFFFFFFFFFFFF AND PUSH32 0xDDF252AD1BE2C89B69C2B068FC378DAA952BA7F163C4A11628F55A4DF523B3EF DUP5 PUSH1 0x40 MLOAD PUSH2 0x1458 SWAP2 SWAP1 PUSH2 0x19D6 JUMP JUMPDEST PUSH1 0x40 MLOAD DUP1 SWAP2 SUB SWAP1 LOG3 POP POP POP POP JUMP JUMPDEST PUSH2 0x147D PUSH1 0x2 PUSH1 0x11 SLOAD PUSH2 0x1478 SWAP2 SWAP1 PUSH2 0x214F JUMP JUMPDEST PUSH2 0x150D JUMP JUMPDEST PUSH0 SELFBALANCE SWAP1 POP PUSH2 0x1499 PUSH1 0x2 PUSH1 0x11 SLOAD PUSH2 0x1493 SWAP2 SWAP1 PUSH2 0x214F JUMP JUMPDEST DUP3 PUSH2 0x1717 JUMP JUMPDEST PUSH2 0x14C7 ADDRESS PUSH1 0x6 PUSH0 SWAP1 SLOAD SWAP1 PUSH2 0x100 EXP SWAP1 DIV PUSH20 0xFFFFFFFFFFFFFFFFFFFFFFFFFFFFFFFFFFFFFFFF AND PUSH1 0x11 SLOAD PUSH2 0x1210 JUMP JUMPDEST PUSH2 0x14F5 ADDRESS PUSH1 0x7 PUSH0 SWAP1 SLOAD SWAP1 PUSH2 0x100 EXP SWAP1 DIV PUSH20 0xFFFFFFFFFFFFFFFFFFFFFFFFFFFFFFFFFFFFFFFF AND PUSH1 0x12 SLOAD PUSH2 0x1210 JUMP JUMPDEST PUSH0 PUSH1 0x13 DUP2 SWAP1 SSTORE POP PUSH0 PUSH1 0x12 DUP2 SWAP1 SSTORE POP PUSH0 PUSH1 0x11 DUP2 SWAP1 SSTORE POP POP JUMP JUMPDEST PUSH0 PUSH1 0x2 PUSH8 0xFFFFFFFFFFFFFFFF DUP2 GT ISZERO PUSH2 0x1529 JUMPI PUSH2 0x1528 PUSH2 0x2389 JUMP JUMPDEST JUMPDEST PUSH1 0x40 MLOAD SWAP1 DUP1 DUP3 MSTORE DUP1 PUSH1 0x20 MUL PUSH1 0x20 ADD DUP3 ADD PUSH1 0x40 MSTORE DUP1 ISZERO PUSH2 0x1557 JUMPI DUP2 PUSH1 0x20 ADD PUSH1 0x20 DUP3 MUL DUP1 CALLDATASIZE DUP4 CALLDATACOPY DUP1 DUP3 ADD SWAP2 POP POP SWAP1 POP JUMPDEST POP SWAP1 POP ADDRESS DUP2 PUSH0 DUP2 MLOAD DUP2 LT PUSH2 0x156E JUMPI PUSH2 0x156D PUSH2 0x23B6 JUMP JUMPDEST JUMPDEST PUSH1 0x20 MUL PUSH1 0x20 ADD ADD SWAP1 PUSH20 0xFFFFFFFFFFFFFFFFFFFFFFFFFFFFFFFFFFFFFFFF AND SWAP1 DUP2 PUSH20 0xFFFFFFFFFFFFFFFFFFFFFFFFFFFFFFFFFFFFFFFF AND DUP2 MSTORE POP POP PUSH1 0x14 PUSH0 SWAP1 SLOAD SWAP1 PUSH2 0x100 EXP SWAP1 DIV PUSH20 0xFFFFFFFFFFFFFFFFFFFFFFFFFFFFFFFFFFFFFFFF AND PUSH20 0xFFFFFFFFFFFFFFFFFFFFFFFFFFFFFFFFFFFFFFFF AND PUSH4 0xAD5C4648 PUSH1 0x40 MLOAD DUP2 PUSH4 0xFFFFFFFF AND PUSH1 0xE0 SHL DUP2 MSTORE PUSH1 0x4 ADD PUSH1 0x20 PUSH1 0x40 MLOAD DUP1 DUP4 SUB DUP2 DUP7 GAS STATICCALL ISZERO DUP1 ISZERO PUSH2 0x1612 JUMPI RETURNDATASIZE PUSH0 DUP1 RETURNDATACOPY RETURNDATASIZE PUSH0 REVERT JUMPDEST POP POP POP POP PUSH1 0x40 MLOAD RETURNDATASIZE PUSH1 0x1F NOT PUSH1 0x1F DUP3 ADD AND DUP3 ADD DUP1 PUSH1 0x40 MSTORE POP DUP2 ADD SWAP1 PUSH2 0x1636 SWAP2 SWAP1 PUSH2 0x23F7 JUMP JUMPDEST DUP2 PUSH1 0x1 DUP2 MLOAD DUP2 LT PUSH2 0x164A JUMPI PUSH2 0x1649 PUSH2 0x23B6 JUMP JUMPDEST JUMPDEST PUSH1 0x20 MUL PUSH1 0x20 ADD ADD SWAP1 PUSH20 0xFFFFFFFFFFFFFFFFFFFFFFFFFFFFFFFFFFFFFFFF AND SWAP1 DUP2 PUSH20 0xFFFFFFFFFFFFFFFFFFFFFFFFFFFFFFFFFFFFFFFF AND DUP2 MSTORE POP POP PUSH1 0x14 PUSH0 SWAP1 SLOAD SWAP1 PUSH2 0x100 EXP SWAP1 DIV PUSH20 0xFFFFFFFFFFFFFFFFFFFFFFFFFFFFFFFFFFFFFFFF AND PUSH20 0xFFFFFFFFFFFFFFFFFFFFFFFFFFFFFFFFFFFFFFFF AND PUSH4 0x791AC947 DUP4 PUSH0 DUP5 ADDRESS TIMESTAMP PUSH1 0x40 MLOAD DUP7 PUSH4 0xFFFFFFFF AND PUSH1 0xE0 SHL DUP2 MSTORE PUSH1 0x4 ADD PUSH2 0x16E6 SWAP6 SWAP5 SWAP4 SWAP3 SWAP2 SWAP1 PUSH2 0x2512 JUMP JUMPDEST PUSH0 PUSH1 0x40 MLOAD DUP1 DUP4 SUB DUP2 PUSH0 DUP8 DUP1 EXTCODESIZE ISZERO DUP1 ISZERO PUSH2 0x16FD JUMPI PUSH0 DUP1 REVERT JUMPDEST POP GAS CALL ISZERO DUP1 ISZERO PUSH2 0x170F JUMPI RETURNDATASIZE PUSH0 DUP1 RETURNDATACOPY RETURNDATASIZE PUSH0 REVERT JUMPDEST POP POP POP POP POP POP JUMP JUMPDEST PUSH1 0x14 PUSH0 SWAP1 SLOAD SWAP1 PUSH2 0x100 EXP SWAP1 DIV PUSH20 0xFFFFFFFFFFFFFFFFFFFFFFFFFFFFFFFFFFFFFFFF AND PUSH20 0xFFFFFFFFFFFFFFFFFFFFFFFFFFFFFFFFFFFFFFFF AND PUSH4 0xF305D719 DUP3 ADDRESS DUP6 PUSH0 DUP1 PUSH2 0x1761 PUSH2 0x8D8 JUMP JUMPDEST TIMESTAMP PUSH1 0x40 MLOAD DUP9 PUSH4 0xFFFFFFFF AND PUSH1 0xE0 SHL DUP2 MSTORE PUSH1 0x4 ADD PUSH2 0x1783 SWAP7 SWAP6 SWAP5 SWAP4 SWAP3 SWAP2 SWAP1 PUSH2 0x256A JUMP JUMPDEST PUSH1 0x60 PUSH1 0x40 MLOAD DUP1 DUP4 SUB DUP2 DUP6 DUP9 GAS CALL ISZERO DUP1 ISZERO PUSH2 0x179F JUMPI RETURNDATASIZE PUSH0 DUP1 RETURNDATACOPY RETURNDATASIZE PUSH0 REVERT JUMPDEST POP POP POP POP POP PUSH1 0x40 MLOAD RETURNDATASIZE PUSH1 0x1F NOT PUSH1 0x1F DUP3 ADD AND DUP3 ADD DUP1 PUSH1 0x40 MSTORE POP DUP2 ADD SWAP1 PUSH2 0x17C4 SWAP2 SWAP1 PUSH2 0x25DD JUMP JUMPDEST POP POP POP POP POP JUMP JUMPDEST PUSH0 DUP1 REVERT JUMPDEST PUSH0 DUP2 SWAP1 POP SWAP2 SWAP1 POP JUMP JUMPDEST PUSH2 0x17E1 DUP2 PUSH2 0x17CF JUMP JUMPDEST DUP2 EQ PUSH2 0x17EB JUMPI PUSH0 DUP1 REVERT JUMPDEST POP JUMP JUMPDEST PUSH0 DUP2 CALLDATALOAD SWAP1 POP PUSH2 0x17FC DUP2 PUSH2 0x17D8 JUMP JUMPDEST SWAP3 SWAP2 POP POP JUMP JUMPDEST PUSH0 DUP1 PUSH0 PUSH1 0x60 DUP5 DUP7 SUB SLT ISZERO PUSH2 0x1819 JUMPI PUSH2 0x1818 PUSH2 0x17CB JUMP JUMPDEST JUMPDEST PUSH0 PUSH2 0x1826 DUP7 DUP3 DUP8 ADD PUSH2 0x17EE JUMP JUMPDEST SWAP4 POP POP PUSH1 0x20 PUSH2 0x1837 DUP7 DUP3 DUP8 ADD PUSH2 0x17EE JUMP JUMPDEST SWAP3 POP POP PUSH1 0x40 PUSH2 0x1848 DUP7 DUP3 DUP8 ADD PUSH2 0x17EE JUMP JUMPDEST SWAP2 POP POP SWAP3 POP SWAP3 POP SWAP3 JUMP JUMPDEST PUSH0 DUP2 MLOAD SWAP1 POP SWAP2 SWAP1 POP JUMP JUMPDEST PUSH0 DUP3 DUP3 MSTORE PUSH1 0x20 DUP3 ADD SWAP1 POP SWAP3 SWAP2 POP POP JUMP JUMPDEST PUSH0 JUMPDEST DUP4 DUP2 LT ISZERO PUSH2 0x1889 JUMPI DUP1 DUP3 ADD MLOAD DUP2 DUP5 ADD MSTORE PUSH1 0x20 DUP2 ADD SWAP1 POP PUSH2 0x186E JUMP JUMPDEST PUSH0 DUP5 DUP5 ADD MSTORE POP POP POP POP JUMP JUMPDEST PUSH0 PUSH1 0x1F NOT PUSH1 0x1F DUP4 ADD AND SWAP1 POP SWAP2 SWAP1 POP JUMP JUMPDEST PUSH0 PUSH2 0x18AE DUP3 PUSH2 0x1852 JUMP JUMPDEST PUSH2 0x18B8 DUP2 DUP6 PUSH2 0x185C JUMP JUMPDEST SWAP4 POP PUSH2 0x18C8 DUP2 DUP6 PUSH1 0x20 DUP7 ADD PUSH2 0x186C JUMP JUMPDEST PUSH2 0x18D1 DUP2 PUSH2 0x1894 JUMP JUMPDEST DUP5 ADD SWAP2 POP POP SWAP3 SWAP2 POP POP JUMP JUMPDEST PUSH0 PUSH1 0x20 DUP3 ADD SWAP1 POP DUP2 DUP2 SUB PUSH0 DUP4 ADD MSTORE PUSH2 0x18F4 DUP2 DUP5 PUSH2 0x18A4 JUMP JUMPDEST SWAP1 POP SWAP3 SWAP2 POP POP JUMP JUMPDEST PUSH0 PUSH20 0xFFFFFFFFFFFFFFFFFFFFFFFFFFFFFFFFFFFFFFFF DUP3 AND SWAP1 POP SWAP2 SWAP1 POP JUMP JUMPDEST PUSH0 PUSH2 0x1925 DUP3 PUSH2 0x18FC JUMP JUMPDEST SWAP1 POP SWAP2 SWAP1 POP JUMP JUMPDEST PUSH2 0x1935 DUP2 PUSH2 0x191B JUMP JUMPDEST DUP2 EQ PUSH2 0x193F JUMPI PUSH0 DUP1 REVERT JUMPDEST POP JUMP JUMPDEST PUSH0 DUP2 CALLDATALOAD SWAP1 POP PUSH2 0x1950 DUP2 PUSH2 0x192C JUMP JUMPDEST SWAP3 SWAP2 POP POP JUMP JUMPDEST PUSH0 DUP1 PUSH1 0x40 DUP4 DUP6 SUB SLT ISZERO PUSH2 0x196C JUMPI PUSH2 0x196B PUSH2 0x17CB JUMP JUMPDEST JUMPDEST PUSH0 PUSH2 0x1979 DUP6 DUP3 DUP7 ADD PUSH2 0x1942 JUMP JUMPDEST SWAP3 POP POP PUSH1 0x20 PUSH2 0x198A DUP6 DUP3 DUP7 ADD PUSH2 0x17EE JUMP JUMPDEST SWAP2 POP POP SWAP3 POP SWAP3 SWAP1 POP JUMP JUMPDEST PUSH0 DUP2 ISZERO ISZERO SWAP1 POP SWAP2 SWAP1 POP JUMP JUMPDEST PUSH2 0x19A8 DUP2 PUSH2 0x1994 JUMP JUMPDEST DUP3 MSTORE POP POP JUMP JUMPDEST PUSH0 PUSH1 0x20 DUP3 ADD SWAP1 POP PUSH2 0x19C1 PUSH0 DUP4 ADD DUP5 PUSH2 0x199F JUMP JUMPDEST SWAP3 SWAP2 POP POP JUMP JUMPDEST PUSH2 0x19D0 DUP2 PUSH2 0x17CF JUMP JUMPDEST DUP3 MSTORE POP POP JUMP JUMPDEST PUSH0 PUSH1 0x20 DUP3 ADD SWAP1 POP PUSH2 0x19E9 PUSH0 DUP4 ADD DUP5 PUSH2 0x19C7 JUMP JUMPDEST SWAP3 SWAP2 POP POP JUMP JUMPDEST PUSH0 PUSH1 0x20 DUP3 DUP5 SUB SLT ISZERO PUSH2 0x1A04 JUMPI PUSH2 0x1A03 PUSH2 0x17CB JUMP JUMPDEST JUMPDEST PUSH0 PUSH2 0x1A11 DUP5 DUP3 DUP6 ADD PUSH2 0x17EE JUMP JUMPDEST SWAP2 POP POP SWAP3 SWAP2 POP POP JUMP JUMPDEST PUSH0 DUP1 PUSH0 PUSH1 0x60 DUP5 DUP7 SUB SLT ISZERO PUSH2 0x1A31 JUMPI PUSH2 0x1A30 PUSH2 0x17CB JUMP JUMPDEST JUMPDEST PUSH0 PUSH2 0x1A3E DUP7 DUP3 DUP8 ADD PUSH2 0x1942 JUMP JUMPDEST SWAP4 POP POP PUSH1 0x20 PUSH2 0x1A4F DUP7 DUP3 DUP8 ADD PUSH2 0x1942 JUMP JUMPDEST SWAP3 POP POP PUSH1 0x40 PUSH2 0x1A60 DUP7 DUP3 DUP8 ADD PUSH2 0x17EE JUMP JUMPDEST SWAP2 POP POP SWAP3 POP SWAP3 POP SWAP3 JUMP JUMPDEST PUSH2 0x1A73 DUP2 PUSH2 0x191B JUMP JUMPDEST DUP3 MSTORE POP POP JUMP JUMPDEST PUSH0 PUSH1 0x20 DUP3 ADD SWAP1 POP PUSH2 0x1A8C PUSH0 DUP4 ADD DUP5 PUSH2 0x1A6A JUMP JUMPDEST SWAP3 SWAP2 POP POP JUMP JUMPDEST PUSH0 PUSH1 0xFF DUP3 AND SWAP1 POP SWAP2 SWAP1 POP JUMP JUMPDEST PUSH2 0x1AA7 DUP2 PUSH2 0x1A92 JUMP JUMPDEST DUP3 MSTORE POP POP JUMP JUMPDEST PUSH0 PUSH1 0x20 DUP3 ADD SWAP1 POP PUSH2 0x1AC0 PUSH0 DUP4 ADD DUP5 PUSH2 0x1A9E JUMP JUMPDEST SWAP3 SWAP2 POP POP JUMP JUMPDEST PUSH0 PUSH1 0x20 DUP3 DUP5 SUB SLT ISZERO PUSH2 0x1ADB JUMPI PUSH2 0x1ADA PUSH2 0x17CB JUMP JUMPDEST JUMPDEST PUSH0 PUSH2 0x1AE8 DUP5 DUP3 DUP6 ADD PUSH2 0x1942 JUMP JUMPDEST SWAP2 POP POP SWAP3 SWAP2 POP POP JUMP JUMPDEST PUSH0 DUP2 SWAP1 POP SWAP2 SWAP1 POP JUMP JUMPDEST PUSH0 PUSH2 0x1B14 PUSH2 0x1B0F PUSH2 0x1B0A DUP5 PUSH2 0x18FC JUMP JUMPDEST PUSH2 0x1AF1 JUMP JUMPDEST PUSH2 0x18FC JUMP JUMPDEST SWAP1 POP SWAP2 SWAP1 POP JUMP JUMPDEST PUSH0 PUSH2 0x1B25 DUP3 PUSH2 0x1AFA JUMP JUMPDEST SWAP1 POP SWAP2 SWAP1 POP JUMP JUMPDEST PUSH0 PUSH2 0x1B36 DUP3 PUSH2 0x1B1B JUMP JUMPDEST SWAP1 POP SWAP2 SWAP1 POP JUMP JUMPDEST PUSH2 0x1B46 DUP2 PUSH2 0x1B2C JUMP JUMPDEST DUP3 MSTORE POP POP JUMP JUMPDEST PUSH0 PUSH1 0x20 DUP3 ADD SWAP1 POP PUSH2 0x1B5F PUSH0 DUP4 ADD DUP5 PUSH2 0x1B3D JUMP JUMPDEST SWAP3 SWAP2 POP POP JUMP JUMPDEST PUSH0 DUP1 PUSH1 0x40 DUP4 DUP6 SUB SLT ISZERO PUSH2 0x1B7B JUMPI PUSH2 0x1B7A PUSH2 0x17CB JUMP JUMPDEST JUMPDEST PUSH0 PUSH2 0x1B88 DUP6 DUP3 DUP7 ADD PUSH2 0x1942 JUMP JUMPDEST SWAP3 POP POP PUSH1 0x20 PUSH2 0x1B99 DUP6 DUP3 DUP7 ADD PUSH2 0x1942 JUMP JUMPDEST SWAP2 POP POP SWAP3 POP SWAP3 SWAP1 POP JUMP JUMPDEST PUSH32 0x4E487B7100000000000000000000000000000000000000000000000000000000 PUSH0 MSTORE PUSH1 0x11 PUSH1 0x4 MSTORE PUSH1 0x24 PUSH0 REVERT JUMPDEST PUSH0 PUSH2 0x1BDA DUP3 PUSH2 0x17CF JUMP JUMPDEST SWAP2 POP PUSH2 0x1BE5 DUP4 PUSH2 0x17CF JUMP JUMPDEST SWAP3 POP DUP3 DUP3 ADD SWAP1 POP DUP1 DUP3 GT ISZERO PUSH2 0x1BFD JUMPI PUSH2 0x1BFC PUSH2 0x1BA3 JUMP JUMPDEST JUMPDEST SWAP3 SWAP2 POP POP JUMP JUMPDEST PUSH32 0x4E487B7100000000000000000000000000000000000000000000000000000000 PUSH0 MSTORE PUSH1 0x22 PUSH1 0x4 MSTORE PUSH1 0x24 PUSH0 REVERT JUMPDEST PUSH0 PUSH1 0x2 DUP3 DIV SWAP1 POP PUSH1 0x1 DUP3 AND DUP1 PUSH2 0x1C47 JUMPI PUSH1 0x7F DUP3 AND SWAP2 POP JUMPDEST PUSH1 0x20 DUP3 LT DUP2 SUB PUSH2 0x1C5A JUMPI PUSH2 0x1C59 PUSH2 0x1C03 JUMP JUMPDEST JUMPDEST POP SWAP2 SWAP1 POP JUMP JUMPDEST PUSH0 DUP2 PUSH1 0x1 SHR SWAP1 POP SWAP2 SWAP1 POP JUMP JUMPDEST PUSH0 DUP1 DUP3 SWAP2 POP DUP4 SWAP1 POP JUMPDEST PUSH1 0x1 DUP6 GT ISZERO PUSH2 0x1CB5 JUMPI DUP1 DUP7 DIV DUP2 GT ISZERO PUSH2 0x1C91 JUMPI PUSH2 0x1C90 PUSH2 0x1BA3 JUMP JUMPDEST JUMPDEST PUSH1 0x1 DUP6 AND ISZERO PUSH2 0x1CA0 JUMPI DUP1 DUP3 MUL SWAP2 POP JUMPDEST DUP1 DUP2 MUL SWAP1 POP PUSH2 0x1CAE DUP6 PUSH2 0x1C60 JUMP JUMPDEST SWAP5 POP PUSH2 0x1C75 JUMP JUMPDEST SWAP5 POP SWAP5 SWAP3 POP POP POP JUMP JUMPDEST PUSH0 DUP3 PUSH2 0x1CCD JUMPI PUSH1 0x1 SWAP1 POP PUSH2 0x1D88 JUMP JUMPDEST DUP2 PUSH2 0x1CDA JUMPI PUSH0 SWAP1 POP PUSH2 0x1D88 JUMP JUMPDEST DUP2 PUSH1 0x1 DUP2 EQ PUSH2 0x1CF0 JUMPI PUSH1 0x2 DUP2 EQ PUSH2 0x1CFA JUMPI PUSH2 0x1D29 JUMP JUMPDEST PUSH1 0x1 SWAP2 POP POP PUSH2 0x1D88 JUMP JUMPDEST PUSH1 0xFF DUP5 GT ISZERO PUSH2 0x1D0C JUMPI PUSH2 0x1D0B PUSH2 0x1BA3 JUMP JUMPDEST JUMPDEST DUP4 PUSH1 0x2 EXP SWAP2 POP DUP5 DUP3 GT ISZERO PUSH2 0x1D23 JUMPI PUSH2 0x1D22 PUSH2 0x1BA3 JUMP JUMPDEST JUMPDEST POP PUSH2 0x1D88 JUMP JUMPDEST POP PUSH1 0x20 DUP4 LT PUSH2 0x133 DUP4 LT AND PUSH1 0x4E DUP5 LT PUSH1 0xB DUP5 LT AND OR ISZERO PUSH2 0x1D5E JUMPI DUP3 DUP3 EXP SWAP1 POP DUP4 DUP2 GT ISZERO PUSH2 0x1D59 JUMPI PUSH2 0x1D58 PUSH2 0x1BA3 JUMP JUMPDEST JUMPDEST PUSH2 0x1D88 JUMP JUMPDEST PUSH2 0x1D6B DUP5 DUP5 DUP5 PUSH1 0x1 PUSH2 0x1C6C JUMP JUMPDEST SWAP3 POP SWAP1 POP DUP2 DUP5 DIV DUP2 GT ISZERO PUSH2 0x1D82 JUMPI PUSH2 0x1D81 PUSH2 0x1BA3 JUMP JUMPDEST JUMPDEST DUP2 DUP2 MUL SWAP1 POP JUMPDEST SWAP4 SWAP3 POP POP POP JUMP JUMPDEST PUSH0 PUSH2 0x1D99 DUP3 PUSH2 0x17CF JUMP JUMPDEST SWAP2 POP PUSH2 0x1DA4 DUP4 PUSH2 0x1A92 JUMP JUMPDEST SWAP3 POP PUSH2 0x1DD1 PUSH32 0xFFFFFFFFFFFFFFFFFFFFFFFFFFFFFFFFFFFFFFFFFFFFFFFFFFFFFFFFFFFFFFFF DUP5 DUP5 PUSH2 0x1CBE JUMP JUMPDEST SWAP1 POP SWAP3 SWAP2 POP POP JUMP JUMPDEST PUSH0 PUSH2 0x1DE3 DUP3 PUSH2 0x17CF JUMP JUMPDEST SWAP2 POP PUSH2 0x1DEE DUP4 PUSH2 0x17CF JUMP JUMPDEST SWAP3 POP DUP3 DUP3 MUL PUSH2 0x1DFC DUP2 PUSH2 0x17CF JUMP JUMPDEST SWAP2 POP DUP3 DUP3 DIV DUP5 EQ DUP4 ISZERO OR PUSH2 0x1E13 JUMPI PUSH2 0x1E12 PUSH2 0x1BA3 JUMP JUMPDEST JUMPDEST POP SWAP3 SWAP2 POP POP JUMP JUMPDEST PUSH32 0x45524332303A2064656372656173656420616C6C6F77616E63652062656C6F77 PUSH0 DUP3 ADD MSTORE PUSH32 0x207A65726F000000000000000000000000000000000000000000000000000000 PUSH1 0x20 DUP3 ADD MSTORE POP JUMP JUMPDEST PUSH0 PUSH2 0x1E74 PUSH1 0x25 DUP4 PUSH2 0x185C JUMP JUMPDEST SWAP2 POP PUSH2 0x1E7F DUP3 PUSH2 0x1E1A JUMP JUMPDEST PUSH1 0x40 DUP3 ADD SWAP1 POP SWAP2 SWAP1 POP JUMP JUMPDEST PUSH0 PUSH1 0x20 DUP3 ADD SWAP1 POP DUP2 DUP2 SUB PUSH0 DUP4 ADD MSTORE PUSH2 0x1EA1 DUP2 PUSH2 0x1E68 JUMP JUMPDEST SWAP1 POP SWAP2 SWAP1 POP JUMP JUMPDEST PUSH32 0x4F776E61626C653A206E6577206F776E657220697320746865207A65726F2061 PUSH0 DUP3 ADD MSTORE PUSH32 0x6464726573730000000000000000000000000000000000000000000000000000 PUSH1 0x20 DUP3 ADD MSTORE POP JUMP JUMPDEST PUSH0 PUSH2 0x1F02 PUSH1 0x26 DUP4 PUSH2 0x185C JUMP JUMPDEST SWAP2 POP PUSH2 0x1F0D DUP3 PUSH2 0x1EA8 JUMP JUMPDEST PUSH1 0x40 DUP3 ADD SWAP1 POP SWAP2 SWAP1 POP JUMP JUMPDEST PUSH0 PUSH1 0x20 DUP3 ADD SWAP1 POP DUP2 DUP2 SUB PUSH0 DUP4 ADD MSTORE PUSH2 0x1F2F DUP2 PUSH2 0x1EF6 JUMP JUMPDEST SWAP1 POP SWAP2 SWAP1 POP JUMP JUMPDEST PUSH32 0x4F776E61626C653A2063616C6C6572206973206E6F7420746865206F776E6572 PUSH0 DUP3 ADD MSTORE POP JUMP JUMPDEST PUSH0 PUSH2 0x1F6A PUSH1 0x20 DUP4 PUSH2 0x185C JUMP JUMPDEST SWAP2 POP PUSH2 0x1F75 DUP3 PUSH2 0x1F36 JUMP JUMPDEST PUSH1 0x20 DUP3 ADD SWAP1 POP SWAP2 SWAP1 POP JUMP JUMPDEST PUSH0 PUSH1 0x20 DUP3 ADD SWAP1 POP DUP2 DUP2 SUB PUSH0 DUP4 ADD MSTORE PUSH2 0x1F97 DUP2 PUSH2 0x1F5E JUMP JUMPDEST SWAP1 POP SWAP2 SWAP1 POP JUMP JUMPDEST PUSH32 0x45524332303A20617070726F76652066726F6D20746865207A65726F20616464 PUSH0 DUP3 ADD MSTORE PUSH32 0x7265737300000000000000000000000000000000000000000000000000000000 PUSH1 0x20 DUP3 ADD MSTORE POP JUMP JUMPDEST PUSH0 PUSH2 0x1FF8 PUSH1 0x24 DUP4 PUSH2 0x185C JUMP JUMPDEST SWAP2 POP PUSH2 0x2003 DUP3 PUSH2 0x1F9E JUMP JUMPDEST PUSH1 0x40 DUP3 ADD SWAP1 POP SWAP2 SWAP1 POP JUMP JUMPDEST PUSH0 PUSH1 0x20 DUP3 ADD SWAP1 POP DUP2 DUP2 SUB PUSH0 DUP4 ADD MSTORE PUSH2 0x2025 DUP2 PUSH2 0x1FEC JUMP JUMPDEST SWAP1 POP SWAP2 SWAP1 POP JUMP JUMPDEST PUSH32 0x45524332303A20617070726F766520746F20746865207A65726F206164647265 PUSH0 DUP3 ADD MSTORE PUSH32 0x7373000000000000000000000000000000000000000000000000000000000000 PUSH1 0x20 DUP3 ADD MSTORE POP JUMP JUMPDEST PUSH0 PUSH2 0x2086 PUSH1 0x22 DUP4 PUSH2 0x185C JUMP JUMPDEST SWAP2 POP PUSH2 0x2091 DUP3 PUSH2 0x202C JUMP JUMPDEST PUSH1 0x40 DUP3 ADD SWAP1 POP SWAP2 SWAP1 POP JUMP JUMPDEST PUSH0 PUSH1 0x20 DUP3 ADD SWAP1 POP DUP2 DUP2 SUB PUSH0 DUP4 ADD MSTORE PUSH2 0x20B3 DUP2 PUSH2 0x207A JUMP JUMPDEST SWAP1 POP SWAP2 SWAP1 POP JUMP JUMPDEST PUSH32 0x45524332303A20696E73756666696369656E7420616C6C6F77616E6365000000 PUSH0 DUP3 ADD MSTORE POP JUMP JUMPDEST PUSH0 PUSH2 0x20EE PUSH1 0x1D DUP4 PUSH2 0x185C JUMP JUMPDEST SWAP2 POP PUSH2 0x20F9 DUP3 PUSH2 0x20BA JUMP JUMPDEST PUSH1 0x20 DUP3 ADD SWAP1 POP SWAP2 SWAP1 POP JUMP JUMPDEST PUSH0 PUSH1 0x20 DUP3 ADD SWAP1 POP DUP2 DUP2 SUB PUSH0 DUP4 ADD MSTORE PUSH2 0x211B DUP2 PUSH2 0x20E2 JUMP JUMPDEST SWAP1 POP SWAP2 SWAP1 POP JUMP JUMPDEST PUSH32 0x4E487B7100000000000000000000000000000000000000000000000000000000 PUSH0 MSTORE PUSH1 0x12 PUSH1 0x4 MSTORE PUSH1 0x24 PUSH0 REVERT JUMPDEST PUSH0 PUSH2 0x2159 DUP3 PUSH2 0x17CF JUMP JUMPDEST SWAP2 POP PUSH2 0x2164 DUP4 PUSH2 0x17CF JUMP JUMPDEST SWAP3 POP DUP3 PUSH2 0x2174 JUMPI PUSH2 0x2173 PUSH2 0x2122 JUMP JUMPDEST JUMPDEST DUP3 DUP3 DIV SWAP1 POP SWAP3 SWAP2 POP POP JUMP JUMPDEST PUSH0 PUSH2 0x2189 DUP3 PUSH2 0x17CF JUMP JUMPDEST SWAP2 POP PUSH2 0x2194 DUP4 PUSH2 0x17CF JUMP JUMPDEST SWAP3 POP DUP3 DUP3 SUB SWAP1 POP DUP2 DUP2 GT ISZERO PUSH2 0x21AC JUMPI PUSH2 0x21AB PUSH2 0x1BA3 JUMP JUMPDEST JUMPDEST SWAP3 SWAP2 POP POP JUMP JUMPDEST PUSH32 0x4E487B7100000000000000000000000000000000000000000000000000000000 PUSH0 MSTORE PUSH1 0x21 PUSH1 0x4 MSTORE PUSH1 0x24 PUSH0 REVERT JUMPDEST PUSH32 0x45524332303A207472616E736665722066726F6D20746865207A65726F206164 PUSH0 DUP3 ADD MSTORE PUSH32 0x6472657373000000000000000000000000000000000000000000000000000000 PUSH1 0x20 DUP3 ADD MSTORE POP JUMP JUMPDEST PUSH0 PUSH2 0x2239 PUSH1 0x25 DUP4 PUSH2 0x185C JUMP JUMPDEST SWAP2 POP PUSH2 0x2244 DUP3 PUSH2 0x21DF JUMP JUMPDEST PUSH1 0x40 DUP3 ADD SWAP1 POP SWAP2 SWAP1 POP JUMP JUMPDEST PUSH0 PUSH1 0x20 DUP3 ADD SWAP1 POP DUP2 DUP2 SUB PUSH0 DUP4 ADD MSTORE PUSH2 0x2266 DUP2 PUSH2 0x222D JUMP JUMPDEST SWAP1 POP SWAP2 SWAP1 POP JUMP JUMPDEST PUSH32 0x45524332303A207472616E7366657220746F20746865207A65726F2061646472 PUSH0 DUP3 ADD MSTORE PUSH32 0x6573730000000000000000000000000000000000000000000000000000000000 PUSH1 0x20 DUP3 ADD MSTORE POP JUMP JUMPDEST PUSH0 PUSH2 0x22C7 PUSH1 0x23 DUP4 PUSH2 0x185C JUMP JUMPDEST SWAP2 POP PUSH2 0x22D2 DUP3 PUSH2 0x226D JUMP JUMPDEST PUSH1 0x40 DUP3 ADD SWAP1 POP SWAP2 SWAP1 POP JUMP JUMPDEST PUSH0 PUSH1 0x20 DUP3 ADD SWAP1 POP DUP2 DUP2 SUB PUSH0 DUP4 ADD MSTORE PUSH2 0x22F4 DUP2 PUSH2 0x22BB JUMP JUMPDEST SWAP1 POP SWAP2 SWAP1 POP JUMP JUMPDEST PUSH32 0x45524332303A207472616E7366657220616D6F756E7420657863656564732062 PUSH0 DUP3 ADD MSTORE PUSH32 0x616C616E63650000000000000000000000000000000000000000000000000000 PUSH1 0x20 DUP3 ADD MSTORE POP JUMP JUMPDEST PUSH0 PUSH2 0x2355 PUSH1 0x26 DUP4 PUSH2 0x185C JUMP JUMPDEST SWAP2 POP PUSH2 0x2360 DUP3 PUSH2 0x22FB JUMP JUMPDEST PUSH1 0x40 DUP3 ADD SWAP1 POP SWAP2 SWAP1 POP JUMP JUMPDEST PUSH0 PUSH1 0x20 DUP3 ADD SWAP1 POP DUP2 DUP2 SUB PUSH0 DUP4 ADD MSTORE PUSH2 0x2382 DUP2 PUSH2 0x2349 JUMP JUMPDEST SWAP1 POP SWAP2 SWAP1 POP JUMP JUMPDEST PUSH32 0x4E487B7100000000000000000000000000000000000000000000000000000000 PUSH0 MSTORE PUSH1 0x41 PUSH1 0x4 MSTORE PUSH1 0x24 PUSH0 REVERT JUMPDEST PUSH32 0x4E487B7100000000000000000000000000000000000000000000000000000000 PUSH0 MSTORE PUSH1 0x32 PUSH1 0x4 MSTORE PUSH1 0x24 PUSH0 REVERT JUMPDEST PUSH0 DUP2 MLOAD SWAP1 POP PUSH2 0x23F1 DUP2 PUSH2 0x192C JUMP JUMPDEST SWAP3 SWAP2 POP POP JUMP JUMPDEST PUSH0 PUSH1 0x20 DUP3 DUP5 SUB SLT ISZERO PUSH2 0x240C JUMPI PUSH2 0x240B PUSH2 0x17CB JUMP JUMPDEST JUMPDEST PUSH0 PUSH2 0x2419 DUP5 DUP3 DUP6 ADD PUSH2 0x23E3 JUMP JUMPDEST SWAP2 POP POP SWAP3 SWAP2 POP POP JUMP JUMPDEST PUSH0 DUP2 SWAP1 POP SWAP2 SWAP1 POP JUMP JUMPDEST PUSH0 PUSH2 0x2445 PUSH2 0x2440 PUSH2 0x243B DUP5 PUSH2 0x2422 JUMP JUMPDEST PUSH2 0x1AF1 JUMP JUMPDEST PUSH2 0x17CF JUMP JUMPDEST SWAP1 POP SWAP2 SWAP1 POP JUMP JUMPDEST PUSH2 0x2455 DUP2 PUSH2 0x242B JUMP JUMPDEST DUP3 MSTORE POP POP JUMP JUMPDEST PUSH0 DUP2 MLOAD SWAP1 POP SWAP2 SWAP1 POP JUMP JUMPDEST PUSH0 DUP3 DUP3 MSTORE PUSH1 0x20 DUP3 ADD SWAP1 POP SWAP3 SWAP2 POP POP JUMP JUMPDEST PUSH0 DUP2 SWAP1 POP PUSH1 0x20 DUP3 ADD SWAP1 POP SWAP2 SWAP1 POP JUMP JUMPDEST PUSH2 0x248D DUP2 PUSH2 0x191B JUMP JUMPDEST DUP3 MSTORE POP POP JUMP JUMPDEST PUSH0 PUSH2 0x249E DUP4 DUP4 PUSH2 0x2484 JUMP JUMPDEST PUSH1 0x20 DUP4 ADD SWAP1 POP SWAP3 SWAP2 POP POP JUMP JUMPDEST PUSH0 PUSH1 0x20 DUP3 ADD SWAP1 POP SWAP2 SWAP1 POP JUMP JUMPDEST PUSH0 PUSH2 0x24C0 DUP3 PUSH2 0x245B JUMP JUMPDEST PUSH2 0x24CA DUP2 DUP6 PUSH2 0x2465 JUMP JUMPDEST SWAP4 POP PUSH2 0x24D5 DUP4 PUSH2 0x2475 JUMP JUMPDEST DUP1 PUSH0 JUMPDEST DUP4 DUP2 LT ISZERO PUSH2 0x2505 JUMPI DUP2 MLOAD PUSH2 0x24EC DUP9 DUP3 PUSH2 0x2493 JUMP JUMPDEST SWAP8 POP PUSH2 0x24F7 DUP4 PUSH2 0x24AA JUMP JUMPDEST SWAP3 POP POP PUSH1 0x1 DUP2 ADD SWAP1 POP PUSH2 0x24D8 JUMP JUMPDEST POP DUP6 SWAP4 POP POP POP POP SWAP3 SWAP2 POP POP JUMP JUMPDEST PUSH0 PUSH1 0xA0 DUP3 ADD SWAP1 POP PUSH2 0x2525 PUSH0 DUP4 ADD DUP9 PUSH2 0x19C7 JUMP JUMPDEST PUSH2 0x2532 PUSH1 0x20 DUP4 ADD DUP8 PUSH2 0x244C JUMP JUMPDEST DUP2 DUP2 SUB PUSH1 0x40 DUP4 ADD MSTORE PUSH2 0x2544 DUP2 DUP7 PUSH2 0x24B6 JUMP JUMPDEST SWAP1 POP PUSH2 0x2553 PUSH1 0x60 DUP4 ADD DUP6 PUSH2 0x1A6A JUMP JUMPDEST PUSH2 0x2560 PUSH1 0x80 DUP4 ADD DUP5 PUSH2 0x19C7 JUMP JUMPDEST SWAP7 SWAP6 POP POP POP POP POP POP JUMP JUMPDEST PUSH0 PUSH1 0xC0 DUP3 ADD SWAP1 POP PUSH2 0x257D PUSH0 DUP4 ADD DUP10 PUSH2 0x1A6A JUMP JUMPDEST PUSH2 0x258A PUSH1 0x20 DUP4 ADD DUP9 PUSH2 0x19C7 JUMP JUMPDEST PUSH2 0x2597 PUSH1 0x40 DUP4 ADD DUP8 PUSH2 0x244C JUMP JUMPDEST PUSH2 0x25A4 PUSH1 0x60 DUP4 ADD DUP7 PUSH2 0x244C JUMP JUMPDEST PUSH2 0x25B1 PUSH1 0x80 DUP4 ADD DUP6 PUSH2 0x1A6A JUMP JUMPDEST PUSH2 0x25BE PUSH1 0xA0 DUP4 ADD DUP5 PUSH2 0x19C7 JUMP JUMPDEST SWAP8 SWAP7 POP POP POP POP POP POP POP JUMP JUMPDEST PUSH0 DUP2 MLOAD SWAP1 POP PUSH2 0x25D7 DUP2 PUSH2 0x17D8 JUMP JUMPDEST SWAP3 SWAP2 POP POP JUMP JUMPDEST PUSH0 DUP1 PUSH0 PUSH1 0x60 DUP5 DUP7 SUB SLT ISZERO PUSH2 0x25F4 JUMPI PUSH2 0x25F3 PUSH2 0x17CB JUMP JUMPDEST JUMPDEST PUSH0 PUSH2 0x2601 DUP7 DUP3 DUP8 ADD PUSH2 0x25C9 JUMP JUMPDEST SWAP4 POP POP PUSH1 0x20 PUSH2 0x2612 DUP7 DUP3 DUP8 ADD PUSH2 0x25C9 JUMP JUMPDEST SWAP3 POP POP PUSH1 0x40 PUSH2 0x2623 DUP7 DUP3 DUP8 ADD PUSH2 0x25C9 JUMP JUMPDEST SWAP2 POP POP SWAP3 POP SWAP3 POP SWAP3 JUMP INVALID LOG2 PUSH5 0x6970667358 0x22 SLT KECCAK256 0xD9 JUMP 0xE0 0x28 MSTORE8 DUP11 PUSH28 0x152054E5D3F5E14555AC4EB7AC7C5272B14FD361776A58462E64736F PUSH13 0x63430008140033000000000000 "
				},
				"gasEstimates": {
					"creation": {
						"codeDepositCost": "1965400",
						"executionCost": "infinite",
						"totalCost": "infinite"
					},
					"external": {
						"_feeBuyLP()": "2515",
						"_feeBuyMK()": "2514",
						"_feeBuyReward()": "2537",
						"_feeBuyTotal()": "2536",
						"_feeSellLP()": "2492",
						"_feeSellMK()": "2469",
						"_feeSellReward()": "2538",
						"_feeSellTotal()": "2537",
						"_marketingWallet()": "2597",
						"_maxTokens()": "2470",
						"_rewardWallet()": "2575",
						"allowance(address,address)": "infinite",
						"approve(address,uint256)": "infinite",
						"balanceOf(address)": "2897",
						"decimals()": "406",
						"decreaseAllowance(address,uint256)": "infinite",
						"editBuyFees(uint256,uint256,uint256)": "infinite",
						"editSellFees(uint256,uint256,uint256)": "infinite",
						"increaseAllowance(address,uint256)": "infinite",
						"name()": "infinite",
						"owner()": "2560",
						"renounceOwnership()": "30480",
						"setMarketingWallet(address)": "27022",
						"setMinTokens(uint256)": "infinite",
						"setRewardWallet(address)": "27087",
						"swapPair()": "2554",
						"swapRouter()": "infinite",
						"symbol()": "infinite",
						"totalSupply()": "2500",
						"transfer(address,uint256)": "infinite",
						"transferFrom(address,address,uint256)": "infinite",
						"transferOwnership(address)": "30841"
					},
					"internal": {
						"_addLiquidity(uint256,uint256)": "infinite",
						"_swapAndLiquify()": "infinite",
						"_swapTokensForEth(uint256)": "infinite",
						"_transfer(address,address,uint256)": "infinite"
					}
				},
				"methodIdentifiers": {
					"_feeBuyLP()": "1bd313c8",
					"_feeBuyMK()": "51492be7",
					"_feeBuyReward()": "4753fa35",
					"_feeBuyTotal()": "a21028db",
					"_feeSellLP()": "4e8bfcfc",
					"_feeSellMK()": "bba8c23f",
					"_feeSellReward()": "09f30a03",
					"_feeSellTotal()": "88529bad",
					"_marketingWallet()": "962dfc75",
					"_maxTokens()": "487c70fc",
					"_rewardWallet()": "a4f4a765",
					"allowance(address,address)": "dd62ed3e",
					"approve(address,uint256)": "095ea7b3",
					"balanceOf(address)": "70a08231",
					"decimals()": "313ce567",
					"decreaseAllowance(address,uint256)": "a457c2d7",
					"editBuyFees(uint256,uint256,uint256)": "01aaed92",
					"editSellFees(uint256,uint256,uint256)": "b41150c5",
					"increaseAllowance(address,uint256)": "39509351",
					"name()": "06fdde03",
					"owner()": "8da5cb5b",
					"renounceOwnership()": "715018a6",
					"setMarketingWallet(address)": "5d098b38",
					"setMinTokens(uint256)": "0e7e573f",
					"setRewardWallet(address)": "5958621e",
					"swapPair()": "26991cc8",
					"swapRouter()": "c31c9c07",
					"symbol()": "95d89b41",
					"totalSupply()": "18160ddd",
					"transfer(address,uint256)": "a9059cbb",
					"transferFrom(address,address,uint256)": "23b872dd",
					"transferOwnership(address)": "f2fde38b"
				}
			},
			"storageLayout": {
				"storage": [
					{
						"astId": 282,
						"contract": "contracts/testToken.sol:TestToken",
						"label": "_balances",
						"offset": 0,
						"slot": "0",
						"type": "t_mapping(t_address,t_uint256)"
					},
					{
						"astId": 288,
						"contract": "contracts/testToken.sol:TestToken",
						"label": "_allowances",
						"offset": 0,
						"slot": "1",
						"type": "t_mapping(t_address,t_mapping(t_address,t_uint256))"
					},
					{
						"astId": 290,
						"contract": "contracts/testToken.sol:TestToken",
						"label": "_totalSupply",
						"offset": 0,
						"slot": "2",
						"type": "t_uint256"
					},
					{
						"astId": 292,
						"contract": "contracts/testToken.sol:TestToken",
						"label": "_name",
						"offset": 0,
						"slot": "3",
						"type": "t_string_storage"
					},
					{
						"astId": 294,
						"contract": "contracts/testToken.sol:TestToken",
						"label": "_symbol",
						"offset": 0,
						"slot": "4",
						"type": "t_string_storage"
					},
					{
						"astId": 167,
						"contract": "contracts/testToken.sol:TestToken",
						"label": "_owner",
						"offset": 0,
						"slot": "5",
						"type": "t_address"
					},
					{
						"astId": 788,
						"contract": "contracts/testToken.sol:TestToken",
						"label": "_rewardWallet",
						"offset": 0,
						"slot": "6",
						"type": "t_address"
					},
					{
						"astId": 791,
						"contract": "contracts/testToken.sol:TestToken",
						"label": "_marketingWallet",
						"offset": 0,
						"slot": "7",
						"type": "t_address"
					},
					{
						"astId": 794,
						"contract": "contracts/testToken.sol:TestToken",
						"label": "_feeBuyTotal",
						"offset": 0,
						"slot": "8",
						"type": "t_uint256"
					},
					{
						"astId": 797,
						"contract": "contracts/testToken.sol:TestToken",
						"label": "_feeBuyReward",
						"offset": 0,
						"slot": "9",
						"type": "t_uint256"
					},
					{
						"astId": 800,
						"contract": "contracts/testToken.sol:TestToken",
						"label": "_feeBuyMK",
						"offset": 0,
						"slot": "10",
						"type": "t_uint256"
					},
					{
						"astId": 803,
						"contract": "contracts/testToken.sol:TestToken",
						"label": "_feeBuyLP",
						"offset": 0,
						"slot": "11",
						"type": "t_uint256"
					},
					{
						"astId": 806,
						"contract": "contracts/testToken.sol:TestToken",
						"label": "_feeSellTotal",
						"offset": 0,
						"slot": "12",
						"type": "t_uint256"
					},
					{
						"astId": 809,
						"contract": "contracts/testToken.sol:TestToken",
						"label": "_feeSellReward",
						"offset": 0,
						"slot": "13",
						"type": "t_uint256"
					},
					{
						"astId": 812,
						"contract": "contracts/testToken.sol:TestToken",
						"label": "_feeSellMK",
						"offset": 0,
						"slot": "14",
						"type": "t_uint256"
					},
					{
						"astId": 815,
						"contract": "contracts/testToken.sol:TestToken",
						"label": "_feeSellLP",
						"offset": 0,
						"slot": "15",
						"type": "t_uint256"
					},
					{
						"astId": 823,
						"contract": "contracts/testToken.sol:TestToken",
						"label": "_maxTokens",
						"offset": 0,
						"slot": "16",
						"type": "t_uint256"
					},
					{
						"astId": 826,
						"contract": "contracts/testToken.sol:TestToken",
						"label": "_tempReward",
						"offset": 0,
						"slot": "17",
						"type": "t_uint256"
					},
					{
						"astId": 829,
						"contract": "contracts/testToken.sol:TestToken",
						"label": "_tempMK",
						"offset": 0,
						"slot": "18",
						"type": "t_uint256"
					},
					{
						"astId": 832,
						"contract": "contracts/testToken.sol:TestToken",
						"label": "_tempLP",
						"offset": 0,
						"slot": "19",
						"type": "t_uint256"
					},
					{
						"astId": 835,
						"contract": "contracts/testToken.sol:TestToken",
						"label": "swapRouter",
						"offset": 0,
						"slot": "20",
						"type": "t_contract(IUniswapV2Router)132"
					},
					{
						"astId": 837,
						"contract": "contracts/testToken.sol:TestToken",
						"label": "swapPair",
						"offset": 0,
						"slot": "21",
						"type": "t_address"
					}
				],
				"types": {
					"t_address": {
						"encoding": "inplace",
						"label": "address",
						"numberOfBytes": "20"
					},
					"t_contract(IUniswapV2Router)132": {
						"encoding": "inplace",
						"label": "contract IUniswapV2Router",
						"numberOfBytes": "20"
					},
					"t_mapping(t_address,t_mapping(t_address,t_uint256))": {
						"encoding": "mapping",
						"key": "t_address",
						"label": "mapping(address => mapping(address => uint256))",
						"numberOfBytes": "32",
						"value": "t_mapping(t_address,t_uint256)"
					},
					"t_mapping(t_address,t_uint256)": {
						"encoding": "mapping",
						"key": "t_address",
						"label": "mapping(address => uint256)",
						"numberOfBytes": "32",
						"value": "t_uint256"
					},
					"t_string_storage": {
						"encoding": "bytes",
						"label": "string",
						"numberOfBytes": "32"
					},
					"t_uint256": {
						"encoding": "inplace",
						"label": "uint256",
						"numberOfBytes": "32"
					}
				}
			},
			"userdoc": {
				"kind": "user",
				"methods": {},
				"version": 1
			}
		}
	}
}