{
	"data": {
		"bytecode": {
			"linkReferences": {},
			"object": "61016060405273047c0d746d42ff4cee7d2cb1fbf5c0d090267931600a5f6101000a81548173ffffffffffffffffffffffffffffffffffffffff021916908373ffffffffffffffffffffffffffffffffffffffff160217905550730331535b9f37eb41f437ea0cfe345abb9d102a1a600b5f6101000a81548173ffffffffffffffffffffffffffffffffffffffff021916908373ffffffffffffffffffffffffffffffffffffffff16021790555073edf6066a2b290c185783862c7f4776a2c8077ad1600c5f6101000a81548173ffffffffffffffffffffffffffffffffffffffff021916908373ffffffffffffffffffffffffffffffffffffffff160217905550600a600e60146101000a81548161ffff021916908361ffff160217905550600a600e60166101000a81548161ffff021916908361ffff1602179055506009600e60186101000a81548161ffff021916908361ffff1602179055505f600e601a6101000a81548160ff02191690831515021790555034801562000181575f80fd5b5060405162005a4d38038062005a4d8339818101604052810190620001a791906200188a565b6040518060400160405280600781526020017f46726565646f6d00000000000000000000000000000000000000000000000000815250806040518060400160405280600181526020017f3100000000000000000000000000000000000000000000000000000000000000815250836040518060400160405280600c81526020017f46726565646f6d20436f696e00000000000000000000000000000000000000008152506040518060400160405280600581526020017f4652454544000000000000000000000000000000000000000000000000000000815250816003908162000292919062001b1e565b508060049081620002a4919062001b1e565b5050505f73ffffffffffffffffffffffffffffffffffffffff168173ffffffffffffffffffffffffffffffffffffffff16036200031a575f6040517f1e4fbdf700000000000000000000000000000000000000000000000000000000815260040162000311919062001c13565b60405180910390fd5b6200032b816200078e60201b60201c565b50620003426006836200085160201b90919060201c565b6101208181525050620003606007826200085160201b90919060201c565b6101408181525050818051906020012060e08181525050808051906020012061010081815250504660a081815250506200039f620008a660201b60201c565b608081815250503073ffffffffffffffffffffffffffffffffffffffff1660c08173ffffffffffffffffffffffffffffffffffffffff16815250505050505f620003ee6200090260201b60201c565b60ff16600a620003ff919062001dab565b626acfc06200040f919062001dfb565b90506200042382826200090a60201b60201c565b5f606460018362000435919062001dfb565b62000441919062001e72565b90505f6103e860098462000456919062001dfb565b62000462919062001e72565b90506200049884600a5f9054906101000a900473ffffffffffffffffffffffffffffffffffffffff16846200099460201b60201c565b50620004cd84600b5f9054906101000a900473ffffffffffffffffffffffffffffffffffffffff16836200099460201b60201c565b50600c5f9054906101000a900473ffffffffffffffffffffffffffffffffffffffff16600d5f6101000a81548173ffffffffffffffffffffffffffffffffffffffff021916908373ffffffffffffffffffffffffffffffffffffffff160217905550600d5f9054906101000a900473ffffffffffffffffffffffffffffffffffffffff1673ffffffffffffffffffffffffffffffffffffffff1663c45a01556040518163ffffffff1660e01b8152600401602060405180830381865afa1580156200059a573d5f803e3d5ffd5b505050506040513d601f19601f82011682018060405250810190620005c091906200188a565b73ffffffffffffffffffffffffffffffffffffffff1663c9c65396600d5f9054906101000a900473ffffffffffffffffffffffffffffffffffffffff1673ffffffffffffffffffffffffffffffffffffffff1663ad5c46486040518163ffffffff1660e01b8152600401602060405180830381865afa15801562000646573d5f803e3d5ffd5b505050506040513d601f19601f820116820180604052508101906200066c91906200188a565b306040518363ffffffff1660e01b81526004016200068c92919062001ea9565b6020604051808303815f875af1158015620006a9573d5f803e3d5ffd5b505050506040513d601f19601f82011682018060405250810190620006cf91906200188a565b600e5f6101000a81548173ffffffffffffffffffffffffffffffffffffffff021916908373ffffffffffffffffffffffffffffffffffffffff160217905550600160095f600e5f9054906101000a900473ffffffffffffffffffffffffffffffffffffffff1673ffffffffffffffffffffffffffffffffffffffff1673ffffffffffffffffffffffffffffffffffffffff1681526020019081526020015f205f6101000a81548160ff021916908315150217905550505050506200266a565b5f60055f9054906101000a900473ffffffffffffffffffffffffffffffffffffffff1690508160055f6101000a81548173ffffffffffffffffffffffffffffffffffffffff021916908373ffffffffffffffffffffffffffffffffffffffff1602179055508173ffffffffffffffffffffffffffffffffffffffff168173ffffffffffffffffffffffffffffffffffffffff167f8be0079c531659141344cd1fd0a4f28419497f9722a3daafe3b4186f6b6457e060405160405180910390a35050565b5f60208351101562000876576200086e83620009b360201b60201c565b9050620008a0565b82620008888362000a1d60201b60201c565b5f01908162000898919062001b1e565b5060ff5f1b90505b92915050565b5f7f8b73c3c69bb8fe3d512ecc4cf759cc79239f7b179b0ffacaa9a75d522b39400f60e051610100514630604051602001620008e795949392919062001eff565b60405160208183030381529060405280519060200120905090565b5f6012905090565b5f73ffffffffffffffffffffffffffffffffffffffff168273ffffffffffffffffffffffffffffffffffffffff16036200097d575f6040517fec442f0500000000000000000000000000000000000000000000000000000000815260040162000974919062001c13565b60405180910390fd5b620009905f838362000a2660201b60201c565b5050565b5f620009a884848462000c4a60201b60201c565b600190509392505050565b5f80829050601f8151111562000a0257826040517f305a27a9000000000000000000000000000000000000000000000000000000008152600401620009f9919062001fe4565b60405180910390fd5b80518162000a109062002035565b5f1c175f1b915050919050565b5f819050919050565b5f73ffffffffffffffffffffffffffffffffffffffff168373ffffffffffffffffffffffffffffffffffffffff160362000a7a578060025f82825462000a6d9190620020a4565b9250508190555062000b4b565b5f805f8573ffffffffffffffffffffffffffffffffffffffff1673ffffffffffffffffffffffffffffffffffffffff1681526020019081526020015f205490508181101562000b06578381836040517fe450d38c00000000000000000000000000000000000000000000000000000000815260040162000afd93929190620020de565b60405180910390fd5b8181035f808673ffffffffffffffffffffffffffffffffffffffff1673ffffffffffffffffffffffffffffffffffffffff1681526020019081526020015f2081905550505b5f73ffffffffffffffffffffffffffffffffffffffff168273ffffffffffffffffffffffffffffffffffffffff160362000b94578060025f828254039250508190555062000bde565b805f808473ffffffffffffffffffffffffffffffffffffffff1673ffffffffffffffffffffffffffffffffffffffff1681526020019081526020015f205f82825401925050819055505b8173ffffffffffffffffffffffffffffffffffffffff168373ffffffffffffffffffffffffffffffffffffffff167fddf252ad1be2c89b69c2b068fc378daa952ba7f163c4a11628f55a4df523b3ef8360405162000c3d919062002119565b60405180910390a3505050565b600e601a9054906101000a900460ff16801562000cff575060095f8473ffffffffffffffffffffffffffffffffffffffff1673ffffffffffffffffffffffffffffffffffffffff1681526020019081526020015f205f9054906101000a900460ff168062000cfe575060095f8373ffffffffffffffffffffffffffffffffffffffff1673ffffffffffffffffffffffffffffffffffffffff1681526020019081526020015f205f9054906101000a900460ff165b5b1562000ea3575f6103e8600e60169054906101000a900461ffff1661ffff168362000d2b919062001dfb565b62000d37919062001e72565b90505f6103e8600e60149054906101000a900461ffff1661ffff168462000d5f919062001dfb565b62000d6b919062001e72565b90505f6103e8600e60189054906101000a900461ffff1661ffff168562000d93919062001dfb565b62000d9f919062001e72565b90505f81838562000db19190620020a4565b62000dbd9190620020a4565b90505f818662000dce919062002134565b905062000de388308462000ebc60201b60201c565b62000df688888362000ebc60201b60201c565b5f62000e088662000fba60201b60201c565b90505f62000e1c8562000fba60201b60201c565b905062000e51600a5f9054906101000a900473ffffffffffffffffffffffffffffffffffffffff1683620012fe60201b60201c565b62000e84600b5f9054906101000a900473ffffffffffffffffffffffffffffffffffffffff1682620012fe60201b60201c565b62000e968a876200134760201b60201c565b5050505050505062000eb7565b62000eb683838362000ebc60201b60201c565b5b505050565b5f73ffffffffffffffffffffffffffffffffffffffff168373ffffffffffffffffffffffffffffffffffffffff160362000f2f575f6040517f96c6fd1e00000000000000000000000000000000000000000000000000000000815260040162000f26919062001c13565b60405180910390fd5b5f73ffffffffffffffffffffffffffffffffffffffff168273ffffffffffffffffffffffffffffffffffffffff160362000fa2575f6040517fec442f0500000000000000000000000000000000000000000000000000000000815260040162000f99919062001c13565b60405180910390fd5b62000fb583838362000a2660201b60201c565b505050565b5f804790505f600267ffffffffffffffff81111562000fde5762000fdd620018c4565b5b6040519080825280602002602001820160405280156200100d5781602001602082028036833780820191505090505b50905030815f815181106200102757620010266200216e565b5b602002602001019073ffffffffffffffffffffffffffffffffffffffff16908173ffffffffffffffffffffffffffffffffffffffff1681525050600d5f9054906101000a900473ffffffffffffffffffffffffffffffffffffffff1673ffffffffffffffffffffffffffffffffffffffff1663ad5c46486040518163ffffffff1660e01b8152600401602060405180830381865afa158015620010cc573d5f803e3d5ffd5b505050506040513d601f19601f82011682018060405250810190620010f291906200188a565b816001815181106200110957620011086200216e565b5b602002602001019073ffffffffffffffffffffffffffffffffffffffff16908173ffffffffffffffffffffffffffffffffffffffff1681525050836200115530620013b860201b60201c565b101562001199576040517f08c379a00000000000000000000000000000000000000000000000000000000081526004016200119090620021e9565b60405180910390fd5b620011cd30600c5f9054906101000a900473ffffffffffffffffffffffffffffffffffffffff1686620013fd60201b60201c565b6200120030600d5f9054906101000a900473ffffffffffffffffffffffffffffffffffffffff166200141760201b60201c565b84111562001245576040517f08c379a00000000000000000000000000000000000000000000000000000000081526004016200123c9062002257565b60405180910390fd5b600d5f9054906101000a900473ffffffffffffffffffffffffffffffffffffffff1673ffffffffffffffffffffffffffffffffffffffff1663791ac947855f843061025842620012969190620020a4565b6040518663ffffffff1660e01b8152600401620012b89594939291906200237f565b5f604051808303815f87803b158015620012d0575f80fd5b505af1158015620012e3573d5f803e3d5ffd5b505050508147620012f5919062002134565b92505050919050565b8173ffffffffffffffffffffffffffffffffffffffff166108fc8290811502906040515f60405180830381858888f1935050505015801562001342573d5f803e3d5ffd5b505050565b5f620013598262000fba60201b60201c565b90505f8111620013a0576040517f08c379a0000000000000000000000000000000000000000000000000000000008152600401620013979062002455565b60405180910390fd5b620013b38282856200149960201b60201c565b505050565b5f805f8373ffffffffffffffffffffffffffffffffffffffff1673ffffffffffffffffffffffffffffffffffffffff1681526020019081526020015f20549050919050565b6200141283838360016200164d60201b60201c565b505050565b5f60015f8473ffffffffffffffffffffffffffffffffffffffff1673ffffffffffffffffffffffffffffffffffffffff1681526020019081526020015f205f8373ffffffffffffffffffffffffffffffffffffffff1673ffffffffffffffffffffffffffffffffffffffff1681526020019081526020015f2054905092915050565b81471015620014df576040517f08c379a0000000000000000000000000000000000000000000000000000000008152600401620014d690620024c3565b60405180910390fd5b6200151330600c5f9054906101000a900473ffffffffffffffffffffffffffffffffffffffff1685620013fd60201b60201c565b6200154630600d5f9054906101000a900473ffffffffffffffffffffffffffffffffffffffff166200141760201b60201c565b8311156200158b576040517f08c379a0000000000000000000000000000000000000000000000000000000008152600401620015829062002557565b60405180910390fd5b600d5f9054906101000a900473ffffffffffffffffffffffffffffffffffffffff1673ffffffffffffffffffffffffffffffffffffffff1663f305d7198330865f808761025842620015de9190620020a4565b6040518863ffffffff1660e01b8152600401620016019695949392919062002577565b60606040518083038185885af11580156200161e573d5f803e3d5ffd5b50505050506040513d601f19601f8201168201806040525081019062001645919062002611565b505050505050565b5f73ffffffffffffffffffffffffffffffffffffffff168473ffffffffffffffffffffffffffffffffffffffff1603620016c0575f6040517fe602df05000000000000000000000000000000000000000000000000000000008152600401620016b7919062001c13565b60405180910390fd5b5f73ffffffffffffffffffffffffffffffffffffffff168373ffffffffffffffffffffffffffffffffffffffff160362001733575f6040517f94280d620000000000000000000000000000000000000000000000000000000081526004016200172a919062001c13565b60405180910390fd5b8160015f8673ffffffffffffffffffffffffffffffffffffffff1673ffffffffffffffffffffffffffffffffffffffff1681526020019081526020015f205f8573ffffffffffffffffffffffffffffffffffffffff1673ffffffffffffffffffffffffffffffffffffffff1681526020019081526020015f208190555080156200181f578273ffffffffffffffffffffffffffffffffffffffff168473ffffffffffffffffffffffffffffffffffffffff167f8c5be1e5ebec7d5bd14f71427d1e84f3dd0314c0f7b2291e5b200ac8c7c3b9258460405162001816919062002119565b60405180910390a35b50505050565b5f80fd5b5f73ffffffffffffffffffffffffffffffffffffffff82169050919050565b5f620018548262001829565b9050919050565b620018668162001848565b811462001871575f80fd5b50565b5f8151905062001884816200185b565b92915050565b5f60208284031215620018a257620018a162001825565b5b5f620018b18482850162001874565b91505092915050565b5f81519050919050565b7f4e487b71000000000000000000000000000000000000000000000000000000005f52604160045260245ffd5b7f4e487b71000000000000000000000000000000000000000000000000000000005f52602260045260245ffd5b5f60028204905060018216806200193657607f821691505b6020821081036200194c576200194b620018f1565b5b50919050565b5f819050815f5260205f209050919050565b5f6020601f8301049050919050565b5f82821b905092915050565b5f60088302620019b07fffffffffffffffffffffffffffffffffffffffffffffffffffffffffffffffff8262001973565b620019bc868362001973565b95508019841693508086168417925050509392505050565b5f819050919050565b5f819050919050565b5f62001a0662001a00620019fa84620019d4565b620019dd565b620019d4565b9050919050565b5f819050919050565b62001a2183620019e6565b62001a3962001a308262001a0d565b8484546200197f565b825550505050565b5f90565b62001a4f62001a41565b62001a5c81848462001a16565b505050565b5b8181101562001a835762001a775f8262001a45565b60018101905062001a62565b5050565b601f82111562001ad25762001a9c8162001952565b62001aa78462001964565b8101602085101562001ab7578190505b62001acf62001ac68562001964565b83018262001a61565b50505b505050565b5f82821c905092915050565b5f62001af45f198460080262001ad7565b1980831691505092915050565b5f62001b0e838362001ae3565b9150826002028217905092915050565b62001b2982620018ba565b67ffffffffffffffff81111562001b455762001b44620018c4565b5b62001b5182546200191e565b62001b5e82828562001a87565b5f60209050601f83116001811462001b94575f841562001b7f578287015190505b62001b8b858262001b01565b86555062001bfa565b601f19841662001ba48662001952565b5f5b8281101562001bcd5784890151825560018201915060208501945060208101905062001ba6565b8683101562001bed578489015162001be9601f89168262001ae3565b8355505b6001600288020188555050505b505050505050565b62001c0d8162001848565b82525050565b5f60208201905062001c285f83018462001c02565b92915050565b7f4e487b71000000000000000000000000000000000000000000000000000000005f52601160045260245ffd5b5f8160011c9050919050565b5f808291508390505b600185111562001cb85780860481111562001c905762001c8f62001c2e565b5b600185161562001ca05780820291505b808102905062001cb08562001c5b565b945062001c70565b94509492505050565b5f8262001cd2576001905062001da4565b8162001ce1575f905062001da4565b816001811462001cfa576002811462001d055762001d3b565b600191505062001da4565b60ff84111562001d1a5762001d1962001c2e565b5b8360020a91508482111562001d345762001d3362001c2e565b5b5062001da4565b5060208310610133831016604e8410600b841016171562001d755782820a90508381111562001d6f5762001d6e62001c2e565b5b62001da4565b62001d84848484600162001c67565b9250905081840481111562001d9e5762001d9d62001c2e565b5b81810290505b9392505050565b5f62001db782620019d4565b915062001dc483620019d4565b925062001df37fffffffffffffffffffffffffffffffffffffffffffffffffffffffffffffffff848462001cc1565b905092915050565b5f62001e0782620019d4565b915062001e1483620019d4565b925082820262001e2481620019d4565b9150828204841483151762001e3e5762001e3d62001c2e565b5b5092915050565b7f4e487b71000000000000000000000000000000000000000000000000000000005f52601260045260245ffd5b5f62001e7e82620019d4565b915062001e8b83620019d4565b92508262001e9e5762001e9d62001e45565b5b828204905092915050565b5f60408201905062001ebe5f83018562001c02565b62001ecd602083018462001c02565b9392505050565b5f819050919050565b62001ee88162001ed4565b82525050565b62001ef981620019d4565b82525050565b5f60a08201905062001f145f83018862001edd565b62001f23602083018762001edd565b62001f32604083018662001edd565b62001f41606083018562001eee565b62001f50608083018462001c02565b9695505050505050565b5f82825260208201905092915050565b5f5b8381101562001f8957808201518184015260208101905062001f6c565b5f8484015250505050565b5f601f19601f8301169050919050565b5f62001fb082620018ba565b62001fbc818562001f5a565b935062001fce81856020860162001f6a565b62001fd98162001f94565b840191505092915050565b5f6020820190508181035f83015262001ffe818462001fa4565b905092915050565b5f81519050919050565b5f819050602082019050919050565b5f6200202c825162001ed4565b80915050919050565b5f620020418262002006565b826200204d8462002010565b90506200205a816200201f565b925060208210156200209d57620020987fffffffffffffffffffffffffffffffffffffffffffffffffffffffffffffffff8360200360080262001973565b831692505b5050919050565b5f620020b082620019d4565b9150620020bd83620019d4565b9250828201905080821115620020d857620020d762001c2e565b5b92915050565b5f606082019050620020f35f83018662001c02565b62002102602083018562001eee565b62002111604083018462001eee565b949350505050565b5f6020820190506200212e5f83018462001eee565b92915050565b5f6200214082620019d4565b91506200214d83620019d4565b925082820390508181111562002168576200216762001c2e565b5b92915050565b7f4e487b71000000000000000000000000000000000000000000000000000000005f52603260045260245ffd5b7f496e73756666696369656e7420746f6b656e7320696e20636f6e7472616374005f82015250565b5f620021d1601f8362001f5a565b9150620021de826200219b565b602082019050919050565b5f6020820190508181035f8301526200220281620021c3565b9050919050565b7f537761702072657175657374206578636565647320616c6c6f77616e636500005f82015250565b5f6200223f601e8362001f5a565b91506200224c8262002209565b602082019050919050565b5f6020820190508181035f830152620022708162002231565b9050919050565b5f819050919050565b5f620022a06200229a620022948462002277565b620019dd565b620019d4565b9050919050565b620022b28162002280565b82525050565b5f81519050919050565b5f82825260208201905092915050565b5f819050602082019050919050565b620022ec8162001848565b82525050565b5f620022ff8383620022e1565b60208301905092915050565b5f602082019050919050565b5f6200232382620022b8565b6200232f8185620022c2565b93506200233c83620022d2565b805f5b8381101562002372578151620023568882620022f2565b975062002363836200230b565b9250506001810190506200233f565b5085935050505092915050565b5f60a082019050620023945f83018862001eee565b620023a36020830187620022a7565b8181036040830152620023b7818662002317565b9050620023c8606083018562001c02565b620023d7608083018462001eee565b9695505050505050565b7f5377617020746f20455448206661696c65642c206e6f204554482072656365695f8201527f7665640000000000000000000000000000000000000000000000000000000000602082015250565b5f6200243d60238362001f5a565b91506200244a82620023e1565b604082019050919050565b5f6020820190508181035f8301526200246e816200242f565b9050919050565b7f4e6f7420656e6f7567682045544820666f72206c6971756964697479000000005f82015250565b5f620024ab601c8362001f5a565b9150620024b88262002475565b602082019050919050565b5f6020820190508181035f830152620024dc816200249d565b9050919050565b7f4c6971756964697479206164646974696f6e20726571756573742065786365655f8201527f647320616c6c6f77616e63650000000000000000000000000000000000000000602082015250565b5f6200253f602c8362001f5a565b91506200254c82620024e3565b604082019050919050565b5f6020820190508181035f830152620025708162002531565b9050919050565b5f60c0820190506200258c5f83018962001c02565b6200259b602083018862001eee565b620025aa6040830187620022a7565b620025b96060830186620022a7565b620025c8608083018562001c02565b620025d760a083018462001eee565b979650505050505050565b620025ed81620019d4565b8114620025f8575f80fd5b50565b5f815190506200260b81620025e2565b92915050565b5f805f606084860312156200262b576200262a62001825565b5b5f6200263a86828701620025fb565b93505060206200264d86828701620025fb565b92505060406200266086828701620025fb565b9150509250925092565b60805160a05160c05160e051610100516101205161014051613391620026bc5f395f6118a901525f61186e01525f611f3901525f611f1801525f61162201525f61167801525f6116a101526133915ff3fe6080604052600436106101db575f3560e01c806370a082311161010157806395d89b4111610094578063d505accf11610063578063d505accf146106bc578063dd62ed3e146106e4578063ecfca89914610720578063f2fde38b1461074a576101e2565b806395d89b411461060257806398118cb41461062c578063a9059cbb14610656578063afcf2fc414610692576101e2565b806383afaac0116100d057806383afaac01461055457806384b0196e1461057e5780638da5cb5b146105ae5780638fffabed146105d8576101e2565b806370a082311461049e578063715018a6146104da5780637e060bf6146104f05780637ecebe0014610518576101e2565b8063313ce5671161017957806356a227f21161014857806356a227f2146103e6578063571ac8b01461040e5780636ddd17131461044a5780636e03832a14610474576101e2565b8063313ce567146103405780633644e5151461036a578063492a937b146103945780634a377e1d146103bc576101e2565b80630b0fd47e116101b55780630b0fd47e146102745780631694505e146102b057806318160ddd146102da57806323b872dd14610304576101e2565b80630298a5f7146101e657806306fdde031461020e578063095ea7b314610238576101e2565b366101e257005b5f80fd5b3480156101f1575f80fd5b5061020c60048036038101906102079190612410565b610772565b005b348015610219575f80fd5b5061022261098e565b60405161022f91906124ea565b60405180910390f35b348015610243575f80fd5b5061025e6004803603810190610259919061250a565b610a1e565b60405161026b9190612562565b60405180910390f35b34801561027f575f80fd5b5061029a6004803603810190610295919061257b565b610a40565b6040516102a79190612562565b60405180910390f35b3480156102bb575f80fd5b506102c4610a5d565b6040516102d19190612601565b60405180910390f35b3480156102e5575f80fd5b506102ee610a82565b6040516102fb9190612629565b60405180910390f35b34801561030f575f80fd5b5061032a60048036038101906103259190612410565b610a8b565b6040516103379190612562565b60405180910390f35b34801561034b575f80fd5b50610354610aa2565b604051610361919061265d565b60405180910390f35b348015610375575f80fd5b5061037e610aaa565b60405161038b919061268e565b60405180910390f35b34801561039f575f80fd5b506103ba60048036038101906103b591906126d1565b610ab8565b005b3480156103c7575f80fd5b506103d0610b18565b6040516103dd919061271e565b60405180910390f35b3480156103f1575f80fd5b5061040c60048036038101906104079190612737565b610b3d565b005b348015610419575f80fd5b50610434600480360381019061042f919061257b565b610c17565b6040516104419190612562565b60405180910390f35b348015610455575f80fd5b5061045e610c49565b60405161046b9190612562565b60405180910390f35b34801561047f575f80fd5b50610488610c5c565b6040516104959190612795565b60405180910390f35b3480156104a9575f80fd5b506104c460048036038101906104bf919061257b565b610c81565b6040516104d19190612629565b60405180910390f35b3480156104e5575f80fd5b506104ee610cc6565b005b3480156104fb575f80fd5b50610516600480360381019061051191906127ae565b610cd9565b005b348015610523575f80fd5b5061053e6004803603810190610539919061257b565b610cfe565b60405161054b9190612629565b60405180910390f35b34801561055f575f80fd5b50610568610d0f565b60405161057591906127f5565b60405180910390f35b348015610589575f80fd5b50610592610d23565b6040516105a597969594939291906128ff565b60405180910390f35b3480156105b9575f80fd5b506105c2610dc8565b6040516105cf919061271e565b60405180910390f35b3480156105e3575f80fd5b506105ec610df0565b6040516105f9919061271e565b60405180910390f35b34801561060d575f80fd5b50610616610e15565b60405161062391906124ea565b60405180910390f35b348015610637575f80fd5b50610640610ea5565b60405161064d91906127f5565b60405180910390f35b348015610661575f80fd5b5061067c6004803603810190610677919061250a565b610eb9565b6040516106899190612562565b60405180910390f35b34801561069d575f80fd5b506106a6610edb565b6040516106b39190612795565b60405180910390f35b3480156106c7575f80fd5b506106e260048036038101906106dd91906129d5565b610f00565b005b3480156106ef575f80fd5b5061070a60048036038101906107059190612a72565b611045565b6040516107179190612629565b60405180910390f35b34801561072b575f80fd5b506107346110c7565b60405161074191906127f5565b60405180910390f35b348015610755575f80fd5b50610770600480360381019061076b919061257b565b6110db565b005b600e601a9054906101000a900460ff168015610825575060095f8473ffffffffffffffffffffffffffffffffffffffff1673ffffffffffffffffffffffffffffffffffffffff1681526020019081526020015f205f9054906101000a900460ff1680610824575060095f8373ffffffffffffffffffffffffffffffffffffffff1673ffffffffffffffffffffffffffffffffffffffff1681526020019081526020015f205f9054906101000a900460ff165b5b1561097d575f6103e8600e60169054906101000a900461ffff1661ffff168361084e9190612add565b6108589190612b4b565b90505f6103e8600e60149054906101000a900461ffff1661ffff168461087e9190612add565b6108889190612b4b565b90505f6103e8600e60189054906101000a900461ffff1661ffff16856108ae9190612add565b6108b89190612b4b565b90505f8183856108c89190612b7b565b6108d29190612b7b565b90505f81866108e19190612bae565b90506108ee88308461115f565b6108f988888361115f565b5f6109038661124f565b90505f61090f8561124f565b905061093c600a5f9054906101000a900473ffffffffffffffffffffffffffffffffffffffff1683611560565b610967600b5f9054906101000a900473ffffffffffffffffffffffffffffffffffffffff1682611560565b6109718a876115a8565b50505050505050610989565b61098883838361115f565b5b505050565b60606003805461099d90612c0e565b80601f01602080910402602001604051908101604052809291908181526020018280546109c990612c0e565b8015610a145780601f106109eb57610100808354040283529160200191610a14565b820191905f5260205f20905b8154815290600101906020018083116109f757829003601f168201915b5050505050905090565b5f80610a28611606565b9050610a3581858561160d565b600191505092915050565b6009602052805f5260405f205f915054906101000a900460ff1681565b600d5f9054906101000a900473ffffffffffffffffffffffffffffffffffffffff1681565b5f600254905090565b5f610a97848484610772565b600190509392505050565b5f6012905090565b5f610ab361161f565b905090565b610ac06116d5565b8060095f8473ffffffffffffffffffffffffffffffffffffffff1673ffffffffffffffffffffffffffffffffffffffff1681526020019081526020015f205f6101000a81548160ff0219169083151502179055505050565b600c5f9054906101000a900473ffffffffffffffffffffffffffffffffffffffff1681565b610b456116d5565b5f4790505f811115610c12575f8273ffffffffffffffffffffffffffffffffffffffff1660648584610b779190612add565b610b819190612b4b565b604051610b8d90612c6b565b5f6040518083038185875af1925050503d805f8114610bc7576040519150601f19603f3d011682016040523d82523d5f602084013e610bcc565b606091505b5050905080610c10576040517f08c379a0000000000000000000000000000000000000000000000000000000008152600401610c0790612cc9565b60405180910390fd5b505b505050565b5f610c42827fffffffffffffffffffffffffffffffffffffffffffffffffffffffffffffffff610a1e565b9050919050565b600e601a9054906101000a900460ff1681565b600b5f9054906101000a900473ffffffffffffffffffffffffffffffffffffffff1681565b5f805f8373ffffffffffffffffffffffffffffffffffffffff1673ffffffffffffffffffffffffffffffffffffffff1681526020019081526020015f20549050919050565b610cce6116d5565b610cd75f61175c565b565b610ce16116d5565b80600e601a6101000a81548160ff02191690831515021790555050565b5f610d088261181f565b9050919050565b600e60189054906101000a900461ffff1681565b5f6060805f805f6060610d34611865565b610d3c6118a0565b46305f801b5f67ffffffffffffffff811115610d5b57610d5a612ce7565b5b604051908082528060200260200182016040528015610d895781602001602082028036833780820191505090505b507f0f00000000000000000000000000000000000000000000000000000000000000959493929190965096509650965096509650965090919293949596565b5f60055f9054906101000a900473ffffffffffffffffffffffffffffffffffffffff16905090565b600e5f9054906101000a900473ffffffffffffffffffffffffffffffffffffffff1681565b606060048054610e2490612c0e565b80601f0160208091040260200160405190810160405280929190818152602001828054610e5090612c0e565b8015610e9b5780601f10610e7257610100808354040283529160200191610e9b565b820191905f5260205f20905b815481529060010190602001808311610e7e57829003601f168201915b5050505050905090565b600e60149054906101000a900461ffff1681565b5f80610ec3611606565b9050610ed0818585610772565b600191505092915050565b600a5f9054906101000a900473ffffffffffffffffffffffffffffffffffffffff1681565b83421115610f4557836040517f62791302000000000000000000000000000000000000000000000000000000008152600401610f3c9190612629565b60405180910390fd5b5f7f6e71edae12b1b97f4d1f60370fef10105fa2faae0126114a169c64845d6126c9888888610f738c6118db565b89604051602001610f8996959493929190612d14565b6040516020818303038152906040528051906020012090505f610fab8261192e565b90505f610fba82878787611947565b90508973ffffffffffffffffffffffffffffffffffffffff168173ffffffffffffffffffffffffffffffffffffffff161461102e57808a6040517f4b800e46000000000000000000000000000000000000000000000000000000008152600401611025929190612d73565b60405180910390fd5b6110398a8a8a61160d565b50505050505050505050565b5f60015f8473ffffffffffffffffffffffffffffffffffffffff1673ffffffffffffffffffffffffffffffffffffffff1681526020019081526020015f205f8373ffffffffffffffffffffffffffffffffffffffff1673ffffffffffffffffffffffffffffffffffffffff1681526020019081526020015f2054905092915050565b600e60169054906101000a900461ffff1681565b6110e36116d5565b5f73ffffffffffffffffffffffffffffffffffffffff168173ffffffffffffffffffffffffffffffffffffffff1603611153575f6040517f1e4fbdf700000000000000000000000000000000000000000000000000000000815260040161114a919061271e565b60405180910390fd5b61115c8161175c565b50565b5f73ffffffffffffffffffffffffffffffffffffffff168373ffffffffffffffffffffffffffffffffffffffff16036111cf575f6040517f96c6fd1e0000000000000000000000000000000000000000000000000000000081526004016111c6919061271e565b60405180910390fd5b5f73ffffffffffffffffffffffffffffffffffffffff168273ffffffffffffffffffffffffffffffffffffffff160361123f575f6040517fec442f05000000000000000000000000000000000000000000000000000000008152600401611236919061271e565b60405180910390fd5b61124a838383611975565b505050565b5f804790505f600267ffffffffffffffff8111156112705761126f612ce7565b5b60405190808252806020026020018201604052801561129e5781602001602082028036833780820191505090505b50905030815f815181106112b5576112b4612d9a565b5b602002602001019073ffffffffffffffffffffffffffffffffffffffff16908173ffffffffffffffffffffffffffffffffffffffff1681525050600d5f9054906101000a900473ffffffffffffffffffffffffffffffffffffffff1673ffffffffffffffffffffffffffffffffffffffff1663ad5c46486040518163ffffffff1660e01b8152600401602060405180830381865afa158015611359573d5f803e3d5ffd5b505050506040513d601f19601f8201168201806040525081019061137d9190612ddb565b8160018151811061139157611390612d9a565b5b602002602001019073ffffffffffffffffffffffffffffffffffffffff16908173ffffffffffffffffffffffffffffffffffffffff1681525050836113d530610c81565b1015611416576040517f08c379a000000000000000000000000000000000000000000000000000000000815260040161140d90612e50565b60405180910390fd5b61144230600c5f9054906101000a900473ffffffffffffffffffffffffffffffffffffffff168661160d565b61146d30600d5f9054906101000a900473ffffffffffffffffffffffffffffffffffffffff16611045565b8411156114af576040517f08c379a00000000000000000000000000000000000000000000000000000000081526004016114a690612eb8565b60405180910390fd5b600d5f9054906101000a900473ffffffffffffffffffffffffffffffffffffffff1673ffffffffffffffffffffffffffffffffffffffff1663791ac947855f8430610258426114fe9190612b7b565b6040518663ffffffff1660e01b815260040161151e959493929190612fc6565b5f604051808303815f87803b158015611535575f80fd5b505af1158015611547573d5f803e3d5ffd5b5050505081476115579190612bae565b92505050919050565b8173ffffffffffffffffffffffffffffffffffffffff166108fc8290811502906040515f60405180830381858888f193505050501580156115a3573d5f803e3d5ffd5b505050565b5f6115b28261124f565b90505f81116115f6576040517f08c379a00000000000000000000000000000000000000000000000000000000081526004016115ed9061308e565b60405180910390fd5b611601828285611b8e565b505050565b5f33905090565b61161a8383836001611d25565b505050565b5f7f000000000000000000000000000000000000000000000000000000000000000073ffffffffffffffffffffffffffffffffffffffff163073ffffffffffffffffffffffffffffffffffffffff1614801561169a57507f000000000000000000000000000000000000000000000000000000000000000046145b156116c7577f000000000000000000000000000000000000000000000000000000000000000090506116d2565b6116cf611ef4565b90505b90565b6116dd611606565b73ffffffffffffffffffffffffffffffffffffffff166116fb610dc8565b73ffffffffffffffffffffffffffffffffffffffff161461175a5761171e611606565b6040517f118cdaa7000000000000000000000000000000000000000000000000000000008152600401611751919061271e565b60405180910390fd5b565b5f60055f9054906101000a900473ffffffffffffffffffffffffffffffffffffffff1690508160055f6101000a81548173ffffffffffffffffffffffffffffffffffffffff021916908373ffffffffffffffffffffffffffffffffffffffff1602179055508173ffffffffffffffffffffffffffffffffffffffff168173ffffffffffffffffffffffffffffffffffffffff167f8be0079c531659141344cd1fd0a4f28419497f9722a3daafe3b4186f6b6457e060405160405180910390a35050565b5f60085f8373ffffffffffffffffffffffffffffffffffffffff1673ffffffffffffffffffffffffffffffffffffffff1681526020019081526020015f20549050919050565b606061189b60067f0000000000000000000000000000000000000000000000000000000000000000611f8990919063ffffffff16565b905090565b60606118d660077f0000000000000000000000000000000000000000000000000000000000000000611f8990919063ffffffff16565b905090565b5f60085f8373ffffffffffffffffffffffffffffffffffffffff1673ffffffffffffffffffffffffffffffffffffffff1681526020019081526020015f205f815480929190600101919050559050919050565b5f61194061193a61161f565b83612036565b9050919050565b5f805f8061195788888888612076565b925092509250611967828261215d565b829350505050949350505050565b5f73ffffffffffffffffffffffffffffffffffffffff168373ffffffffffffffffffffffffffffffffffffffff16036119c5578060025f8282546119b99190612b7b565b92505081905550611a93565b5f805f8573ffffffffffffffffffffffffffffffffffffffff1673ffffffffffffffffffffffffffffffffffffffff1681526020019081526020015f2054905081811015611a4e578381836040517fe450d38c000000000000000000000000000000000000000000000000000000008152600401611a45939291906130ac565b60405180910390fd5b8181035f808673ffffffffffffffffffffffffffffffffffffffff1673ffffffffffffffffffffffffffffffffffffffff1681526020019081526020015f2081905550505b5f73ffffffffffffffffffffffffffffffffffffffff168273ffffffffffffffffffffffffffffffffffffffff1603611ada578060025f8282540392505081905550611b24565b805f808473ffffffffffffffffffffffffffffffffffffffff1673ffffffffffffffffffffffffffffffffffffffff1681526020019081526020015f205f82825401925050819055505b8173ffffffffffffffffffffffffffffffffffffffff168373ffffffffffffffffffffffffffffffffffffffff167fddf252ad1be2c89b69c2b068fc378daa952ba7f163c4a11628f55a4df523b3ef83604051611b819190612629565b60405180910390a3505050565b81471015611bd1576040517f08c379a0000000000000000000000000000000000000000000000000000000008152600401611bc89061312b565b60405180910390fd5b611bfd30600c5f9054906101000a900473ffffffffffffffffffffffffffffffffffffffff168561160d565b611c2830600d5f9054906101000a900473ffffffffffffffffffffffffffffffffffffffff16611045565b831115611c6a576040517f08c379a0000000000000000000000000000000000000000000000000000000008152600401611c61906131b9565b60405180910390fd5b600d5f9054906101000a900473ffffffffffffffffffffffffffffffffffffffff1673ffffffffffffffffffffffffffffffffffffffff1663f305d7198330865f808761025842611cbb9190612b7b565b6040518863ffffffff1660e01b8152600401611cdc969594939291906131d7565b60606040518083038185885af1158015611cf8573d5f803e3d5ffd5b50505050506040513d601f19601f82011682018060405250810190611d1d919061324a565b505050505050565b5f73ffffffffffffffffffffffffffffffffffffffff168473ffffffffffffffffffffffffffffffffffffffff1603611d95575f6040517fe602df05000000000000000000000000000000000000000000000000000000008152600401611d8c919061271e565b60405180910390fd5b5f73ffffffffffffffffffffffffffffffffffffffff168373ffffffffffffffffffffffffffffffffffffffff1603611e05575f6040517f94280d62000000000000000000000000000000000000000000000000000000008152600401611dfc919061271e565b60405180910390fd5b8160015f8673ffffffffffffffffffffffffffffffffffffffff1673ffffffffffffffffffffffffffffffffffffffff1681526020019081526020015f205f8573ffffffffffffffffffffffffffffffffffffffff1673ffffffffffffffffffffffffffffffffffffffff1681526020019081526020015f20819055508015611eee578273ffffffffffffffffffffffffffffffffffffffff168473ffffffffffffffffffffffffffffffffffffffff167f8c5be1e5ebec7d5bd14f71427d1e84f3dd0314c0f7b2291e5b200ac8c7c3b92584604051611ee59190612629565b60405180910390a35b50505050565b5f7f8b73c3c69bb8fe3d512ecc4cf759cc79239f7b179b0ffacaa9a75d522b39400f7f00000000000000000000000000000000000000000000000000000000000000007f00000000000000000000000000000000000000000000000000000000000000004630604051602001611f6e95949392919061329a565b60405160208183030381529060405280519060200120905090565b606060ff5f1b8314611fa557611f9e836122bf565b9050612030565b818054611fb190612c0e565b80601f0160208091040260200160405190810160405280929190818152602001828054611fdd90612c0e565b80156120285780601f10611fff57610100808354040283529160200191612028565b820191905f5260205f20905b81548152906001019060200180831161200b57829003601f168201915b505050505090505b92915050565b5f6040517f190100000000000000000000000000000000000000000000000000000000000081528360028201528260228201526042812091505092915050565b5f805f7f7fffffffffffffffffffffffffffffff5d576e7357a4501ddfe92f46681b20a0845f1c11156120b2575f600385925092509250612153565b5f6001888888886040515f81526020016040526040516120d594939291906132eb565b6020604051602081039080840390855afa1580156120f5573d5f803e3d5ffd5b5050506020604051035190505f73ffffffffffffffffffffffffffffffffffffffff168173ffffffffffffffffffffffffffffffffffffffff1603612146575f60015f801b93509350935050612153565b805f805f1b935093509350505b9450945094915050565b5f60038111156121705761216f61332e565b5b8260038111156121835761218261332e565b5b03156122bb576001600381111561219d5761219c61332e565b5b8260038111156121b0576121af61332e565b5b036121e7576040517ff645eedf00000000000000000000000000000000000000000000000000000000815260040160405180910390fd5b600260038111156121fb576121fa61332e565b5b82600381111561220e5761220d61332e565b5b0361225257805f1c6040517ffce698f70000000000000000000000000000000000000000000000000000000081526004016122499190612629565b60405180910390fd5b6003808111156122655761226461332e565b5b8260038111156122785761227761332e565b5b036122ba57806040517fd78bce0c0000000000000000000000000000000000000000000000000000000081526004016122b1919061268e565b60405180910390fd5b5b5050565b60605f6122cb83612331565b90505f602067ffffffffffffffff8111156122e9576122e8612ce7565b5b6040519080825280601f01601f19166020018201604052801561231b5781602001600182028036833780820191505090505b5090508181528360208201528092505050919050565b5f8060ff835f1c169050601f811115612376576040517fb3512b0c00000000000000000000000000000000000000000000000000000000815260040160405180910390fd5b80915050919050565b5f80fd5b5f73ffffffffffffffffffffffffffffffffffffffff82169050919050565b5f6123ac82612383565b9050919050565b6123bc816123a2565b81146123c6575f80fd5b50565b5f813590506123d7816123b3565b92915050565b5f819050919050565b6123ef816123dd565b81146123f9575f80fd5b50565b5f8135905061240a816123e6565b92915050565b5f805f606084860312156124275761242661237f565b5b5f612434868287016123c9565b9350506020612445868287016123c9565b9250506040612456868287016123fc565b9150509250925092565b5f81519050919050565b5f82825260208201905092915050565b5f5b8381101561249757808201518184015260208101905061247c565b5f8484015250505050565b5f601f19601f8301169050919050565b5f6124bc82612460565b6124c6818561246a565b93506124d681856020860161247a565b6124df816124a2565b840191505092915050565b5f6020820190508181035f83015261250281846124b2565b905092915050565b5f80604083850312156125205761251f61237f565b5b5f61252d858286016123c9565b925050602061253e858286016123fc565b9150509250929050565b5f8115159050919050565b61255c81612548565b82525050565b5f6020820190506125755f830184612553565b92915050565b5f602082840312156125905761258f61237f565b5b5f61259d848285016123c9565b91505092915050565b5f819050919050565b5f6125c96125c46125bf84612383565b6125a6565b612383565b9050919050565b5f6125da826125af565b9050919050565b5f6125eb826125d0565b9050919050565b6125fb816125e1565b82525050565b5f6020820190506126145f8301846125f2565b92915050565b612623816123dd565b82525050565b5f60208201905061263c5f83018461261a565b92915050565b5f60ff82169050919050565b61265781612642565b82525050565b5f6020820190506126705f83018461264e565b92915050565b5f819050919050565b61268881612676565b82525050565b5f6020820190506126a15f83018461267f565b92915050565b6126b081612548565b81146126ba575f80fd5b50565b5f813590506126cb816126a7565b92915050565b5f80604083850312156126e7576126e661237f565b5b5f6126f4858286016123c9565b9250506020612705858286016126bd565b9150509250929050565b612718816123a2565b82525050565b5f6020820190506127315f83018461270f565b92915050565b5f806040838503121561274d5761274c61237f565b5b5f61275a858286016123fc565b925050602061276b858286016123c9565b9150509250929050565b5f61277f82612383565b9050919050565b61278f81612775565b82525050565b5f6020820190506127a85f830184612786565b92915050565b5f602082840312156127c3576127c261237f565b5b5f6127d0848285016126bd565b91505092915050565b5f61ffff82169050919050565b6127ef816127d9565b82525050565b5f6020820190506128085f8301846127e6565b92915050565b5f7fff0000000000000000000000000000000000000000000000000000000000000082169050919050565b6128428161280e565b82525050565b5f81519050919050565b5f82825260208201905092915050565b5f819050602082019050919050565b61287a816123dd565b82525050565b5f61288b8383612871565b60208301905092915050565b5f602082019050919050565b5f6128ad82612848565b6128b78185612852565b93506128c283612862565b805f5b838110156128f25781516128d98882612880565b97506128e483612897565b9250506001810190506128c5565b5085935050505092915050565b5f60e0820190506129125f83018a612839565b818103602083015261292481896124b2565b9050818103604083015261293881886124b2565b9050612947606083018761261a565b612954608083018661270f565b61296160a083018561267f565b81810360c083015261297381846128a3565b905098975050505050505050565b61298a81612642565b8114612994575f80fd5b50565b5f813590506129a581612981565b92915050565b6129b481612676565b81146129be575f80fd5b50565b5f813590506129cf816129ab565b92915050565b5f805f805f805f60e0888a0312156129f0576129ef61237f565b5b5f6129fd8a828b016123c9565b9750506020612a0e8a828b016123c9565b9650506040612a1f8a828b016123fc565b9550506060612a308a828b016123fc565b9450506080612a418a828b01612997565b93505060a0612a528a828b016129c1565b92505060c0612a638a828b016129c1565b91505092959891949750929550565b5f8060408385031215612a8857612a8761237f565b5b5f612a95858286016123c9565b9250506020612aa6858286016123c9565b9150509250929050565b7f4e487b71000000000000000000000000000000000000000000000000000000005f52601160045260245ffd5b5f612ae7826123dd565b9150612af2836123dd565b9250828202612b00816123dd565b91508282048414831517612b1757612b16612ab0565b5b5092915050565b7f4e487b71000000000000000000000000000000000000000000000000000000005f52601260045260245ffd5b5f612b55826123dd565b9150612b60836123dd565b925082612b7057612b6f612b1e565b5b828204905092915050565b5f612b85826123dd565b9150612b90836123dd565b9250828201905080821115612ba857612ba7612ab0565b5b92915050565b5f612bb8826123dd565b9150612bc3836123dd565b9250828203905081811115612bdb57612bda612ab0565b5b92915050565b7f4e487b71000000000000000000000000000000000000000000000000000000005f52602260045260245ffd5b5f6002820490506001821680612c2557607f821691505b602082108103612c3857612c37612be1565b5b50919050565b5f81905092915050565b50565b5f612c565f83612c3e565b9150612c6182612c48565b5f82019050919050565b5f612c7582612c4b565b9150819050919050565b7f4661696c656420746f207472616e736665722066756e647300000000000000005f82015250565b5f612cb360188361246a565b9150612cbe82612c7f565b602082019050919050565b5f6020820190508181035f830152612ce081612ca7565b9050919050565b7f4e487b71000000000000000000000000000000000000000000000000000000005f52604160045260245ffd5b5f60c082019050612d275f83018961267f565b612d34602083018861270f565b612d41604083018761270f565b612d4e606083018661261a565b612d5b608083018561261a565b612d6860a083018461261a565b979650505050505050565b5f604082019050612d865f83018561270f565b612d93602083018461270f565b9392505050565b7f4e487b71000000000000000000000000000000000000000000000000000000005f52603260045260245ffd5b5f81519050612dd5816123b3565b92915050565b5f60208284031215612df057612def61237f565b5b5f612dfd84828501612dc7565b91505092915050565b7f496e73756666696369656e7420746f6b656e7320696e20636f6e7472616374005f82015250565b5f612e3a601f8361246a565b9150612e4582612e06565b602082019050919050565b5f6020820190508181035f830152612e6781612e2e565b9050919050565b7f537761702072657175657374206578636565647320616c6c6f77616e636500005f82015250565b5f612ea2601e8361246a565b9150612ead82612e6e565b602082019050919050565b5f6020820190508181035f830152612ecf81612e96565b9050919050565b5f819050919050565b5f612ef9612ef4612eef84612ed6565b6125a6565b6123dd565b9050919050565b612f0981612edf565b82525050565b5f81519050919050565b5f82825260208201905092915050565b5f819050602082019050919050565b612f41816123a2565b82525050565b5f612f528383612f38565b60208301905092915050565b5f602082019050919050565b5f612f7482612f0f565b612f7e8185612f19565b9350612f8983612f29565b805f5b83811015612fb9578151612fa08882612f47565b9750612fab83612f5e565b925050600181019050612f8c565b5085935050505092915050565b5f60a082019050612fd95f83018861261a565b612fe66020830187612f00565b8181036040830152612ff88186612f6a565b9050613007606083018561270f565b613014608083018461261a565b9695505050505050565b7f5377617020746f20455448206661696c65642c206e6f204554482072656365695f8201527f7665640000000000000000000000000000000000000000000000000000000000602082015250565b5f61307860238361246a565b91506130838261301e565b604082019050919050565b5f6020820190508181035f8301526130a58161306c565b9050919050565b5f6060820190506130bf5f83018661270f565b6130cc602083018561261a565b6130d9604083018461261a565b949350505050565b7f4e6f7420656e6f7567682045544820666f72206c6971756964697479000000005f82015250565b5f613115601c8361246a565b9150613120826130e1565b602082019050919050565b5f6020820190508181035f83015261314281613109565b9050919050565b7f4c6971756964697479206164646974696f6e20726571756573742065786365655f8201527f647320616c6c6f77616e63650000000000000000000000000000000000000000602082015250565b5f6131a3602c8361246a565b91506131ae82613149565b604082019050919050565b5f6020820190508181035f8301526131d081613197565b9050919050565b5f60c0820190506131ea5f83018961270f565b6131f7602083018861261a565b6132046040830187612f00565b6132116060830186612f00565b61321e608083018561270f565b61322b60a083018461261a565b979650505050505050565b5f81519050613244816123e6565b92915050565b5f805f606084860312156132615761326061237f565b5b5f61326e86828701613236565b935050602061327f86828701613236565b925050604061329086828701613236565b9150509250925092565b5f60a0820190506132ad5f83018861267f565b6132ba602083018761267f565b6132c7604083018661267f565b6132d4606083018561261a565b6132e1608083018461270f565b9695505050505050565b5f6080820190506132fe5f83018761267f565b61330b602083018661264e565b613318604083018561267f565b613325606083018461267f565b95945050505050565b7f4e487b71000000000000000000000000000000000000000000000000000000005f52602160045260245ffdfea26469706673582212200f67cd2032a239d28931fcafb05c4730209649d99a55387aeaa10bb0c5c2e64964736f6c63430008140033",
			"opcodes": "PUSH2 0x160 PUSH1 0x40 MSTORE PUSH20 0x47C0D746D42FF4CEE7D2CB1FBF5C0D090267931 PUSH1 0xA PUSH0 PUSH2 0x100 EXP DUP2 SLOAD DUP2 PUSH20 0xFFFFFFFFFFFFFFFFFFFFFFFFFFFFFFFFFFFFFFFF MUL NOT AND SWAP1 DUP4 PUSH20 0xFFFFFFFFFFFFFFFFFFFFFFFFFFFFFFFFFFFFFFFF AND MUL OR SWAP1 SSTORE POP PUSH20 0x331535B9F37EB41F437EA0CFE345ABB9D102A1A PUSH1 0xB PUSH0 PUSH2 0x100 EXP DUP2 SLOAD DUP2 PUSH20 0xFFFFFFFFFFFFFFFFFFFFFFFFFFFFFFFFFFFFFFFF MUL NOT AND SWAP1 DUP4 PUSH20 0xFFFFFFFFFFFFFFFFFFFFFFFFFFFFFFFFFFFFFFFF AND MUL OR SWAP1 SSTORE POP PUSH20 0xEDF6066A2B290C185783862C7F4776A2C8077AD1 PUSH1 0xC PUSH0 PUSH2 0x100 EXP DUP2 SLOAD DUP2 PUSH20 0xFFFFFFFFFFFFFFFFFFFFFFFFFFFFFFFFFFFFFFFF MUL NOT AND SWAP1 DUP4 PUSH20 0xFFFFFFFFFFFFFFFFFFFFFFFFFFFFFFFFFFFFFFFF AND MUL OR SWAP1 SSTORE POP PUSH1 0xA PUSH1 0xE PUSH1 0x14 PUSH2 0x100 EXP DUP2 SLOAD DUP2 PUSH2 0xFFFF MUL NOT AND SWAP1 DUP4 PUSH2 0xFFFF AND MUL OR SWAP1 SSTORE POP PUSH1 0xA PUSH1 0xE PUSH1 0x16 PUSH2 0x100 EXP DUP2 SLOAD DUP2 PUSH2 0xFFFF MUL NOT AND SWAP1 DUP4 PUSH2 0xFFFF AND MUL OR SWAP1 SSTORE POP PUSH1 0x9 PUSH1 0xE PUSH1 0x18 PUSH2 0x100 EXP DUP2 SLOAD DUP2 PUSH2 0xFFFF MUL NOT AND SWAP1 DUP4 PUSH2 0xFFFF AND MUL OR SWAP1 SSTORE POP PUSH0 PUSH1 0xE PUSH1 0x1A PUSH2 0x100 EXP DUP2 SLOAD DUP2 PUSH1 0xFF MUL NOT AND SWAP1 DUP4 ISZERO ISZERO MUL OR SWAP1 SSTORE POP CALLVALUE DUP1 ISZERO PUSH3 0x181 JUMPI PUSH0 DUP1 REVERT JUMPDEST POP PUSH1 0x40 MLOAD PUSH3 0x5A4D CODESIZE SUB DUP1 PUSH3 0x5A4D DUP4 CODECOPY DUP2 DUP2 ADD PUSH1 0x40 MSTORE DUP2 ADD SWAP1 PUSH3 0x1A7 SWAP2 SWAP1 PUSH3 0x188A JUMP JUMPDEST PUSH1 0x40 MLOAD DUP1 PUSH1 0x40 ADD PUSH1 0x40 MSTORE DUP1 PUSH1 0x7 DUP2 MSTORE PUSH1 0x20 ADD PUSH32 0x46726565646F6D00000000000000000000000000000000000000000000000000 DUP2 MSTORE POP DUP1 PUSH1 0x40 MLOAD DUP1 PUSH1 0x40 ADD PUSH1 0x40 MSTORE DUP1 PUSH1 0x1 DUP2 MSTORE PUSH1 0x20 ADD PUSH32 0x3100000000000000000000000000000000000000000000000000000000000000 DUP2 MSTORE POP DUP4 PUSH1 0x40 MLOAD DUP1 PUSH1 0x40 ADD PUSH1 0x40 MSTORE DUP1 PUSH1 0xC DUP2 MSTORE PUSH1 0x20 ADD PUSH32 0x46726565646F6D20436F696E0000000000000000000000000000000000000000 DUP2 MSTORE POP PUSH1 0x40 MLOAD DUP1 PUSH1 0x40 ADD PUSH1 0x40 MSTORE DUP1 PUSH1 0x5 DUP2 MSTORE PUSH1 0x20 ADD PUSH32 0x4652454544000000000000000000000000000000000000000000000000000000 DUP2 MSTORE POP DUP2 PUSH1 0x3 SWAP1 DUP2 PUSH3 0x292 SWAP2 SWAP1 PUSH3 0x1B1E JUMP JUMPDEST POP DUP1 PUSH1 0x4 SWAP1 DUP2 PUSH3 0x2A4 SWAP2 SWAP1 PUSH3 0x1B1E JUMP JUMPDEST POP POP POP PUSH0 PUSH20 0xFFFFFFFFFFFFFFFFFFFFFFFFFFFFFFFFFFFFFFFF AND DUP2 PUSH20 0xFFFFFFFFFFFFFFFFFFFFFFFFFFFFFFFFFFFFFFFF AND SUB PUSH3 0x31A JUMPI PUSH0 PUSH1 0x40 MLOAD PUSH32 0x1E4FBDF700000000000000000000000000000000000000000000000000000000 DUP2 MSTORE PUSH1 0x4 ADD PUSH3 0x311 SWAP2 SWAP1 PUSH3 0x1C13 JUMP JUMPDEST PUSH1 0x40 MLOAD DUP1 SWAP2 SUB SWAP1 REVERT JUMPDEST PUSH3 0x32B DUP2 PUSH3 0x78E PUSH1 0x20 SHL PUSH1 0x20 SHR JUMP JUMPDEST POP PUSH3 0x342 PUSH1 0x6 DUP4 PUSH3 0x851 PUSH1 0x20 SHL SWAP1 SWAP2 SWAP1 PUSH1 0x20 SHR JUMP JUMPDEST PUSH2 0x120 DUP2 DUP2 MSTORE POP POP PUSH3 0x360 PUSH1 0x7 DUP3 PUSH3 0x851 PUSH1 0x20 SHL SWAP1 SWAP2 SWAP1 PUSH1 0x20 SHR JUMP JUMPDEST PUSH2 0x140 DUP2 DUP2 MSTORE POP POP DUP2 DUP1 MLOAD SWAP1 PUSH1 0x20 ADD KECCAK256 PUSH1 0xE0 DUP2 DUP2 MSTORE POP POP DUP1 DUP1 MLOAD SWAP1 PUSH1 0x20 ADD KECCAK256 PUSH2 0x100 DUP2 DUP2 MSTORE POP POP CHAINID PUSH1 0xA0 DUP2 DUP2 MSTORE POP POP PUSH3 0x39F PUSH3 0x8A6 PUSH1 0x20 SHL PUSH1 0x20 SHR JUMP JUMPDEST PUSH1 0x80 DUP2 DUP2 MSTORE POP POP ADDRESS PUSH20 0xFFFFFFFFFFFFFFFFFFFFFFFFFFFFFFFFFFFFFFFF AND PUSH1 0xC0 DUP2 PUSH20 0xFFFFFFFFFFFFFFFFFFFFFFFFFFFFFFFFFFFFFFFF AND DUP2 MSTORE POP POP POP POP POP PUSH0 PUSH3 0x3EE PUSH3 0x902 PUSH1 0x20 SHL PUSH1 0x20 SHR JUMP JUMPDEST PUSH1 0xFF AND PUSH1 0xA PUSH3 0x3FF SWAP2 SWAP1 PUSH3 0x1DAB JUMP JUMPDEST PUSH3 0x6ACFC0 PUSH3 0x40F SWAP2 SWAP1 PUSH3 0x1DFB JUMP JUMPDEST SWAP1 POP PUSH3 0x423 DUP3 DUP3 PUSH3 0x90A PUSH1 0x20 SHL PUSH1 0x20 SHR JUMP JUMPDEST PUSH0 PUSH1 0x64 PUSH1 0x1 DUP4 PUSH3 0x435 SWAP2 SWAP1 PUSH3 0x1DFB JUMP JUMPDEST PUSH3 0x441 SWAP2 SWAP1 PUSH3 0x1E72 JUMP JUMPDEST SWAP1 POP PUSH0 PUSH2 0x3E8 PUSH1 0x9 DUP5 PUSH3 0x456 SWAP2 SWAP1 PUSH3 0x1DFB JUMP JUMPDEST PUSH3 0x462 SWAP2 SWAP1 PUSH3 0x1E72 JUMP JUMPDEST SWAP1 POP PUSH3 0x498 DUP5 PUSH1 0xA PUSH0 SWAP1 SLOAD SWAP1 PUSH2 0x100 EXP SWAP1 DIV PUSH20 0xFFFFFFFFFFFFFFFFFFFFFFFFFFFFFFFFFFFFFFFF AND DUP5 PUSH3 0x994 PUSH1 0x20 SHL PUSH1 0x20 SHR JUMP JUMPDEST POP PUSH3 0x4CD DUP5 PUSH1 0xB PUSH0 SWAP1 SLOAD SWAP1 PUSH2 0x100 EXP SWAP1 DIV PUSH20 0xFFFFFFFFFFFFFFFFFFFFFFFFFFFFFFFFFFFFFFFF AND DUP4 PUSH3 0x994 PUSH1 0x20 SHL PUSH1 0x20 SHR JUMP JUMPDEST POP PUSH1 0xC PUSH0 SWAP1 SLOAD SWAP1 PUSH2 0x100 EXP SWAP1 DIV PUSH20 0xFFFFFFFFFFFFFFFFFFFFFFFFFFFFFFFFFFFFFFFF AND PUSH1 0xD PUSH0 PUSH2 0x100 EXP DUP2 SLOAD DUP2 PUSH20 0xFFFFFFFFFFFFFFFFFFFFFFFFFFFFFFFFFFFFFFFF MUL NOT AND SWAP1 DUP4 PUSH20 0xFFFFFFFFFFFFFFFFFFFFFFFFFFFFFFFFFFFFFFFF AND MUL OR SWAP1 SSTORE POP PUSH1 0xD PUSH0 SWAP1 SLOAD SWAP1 PUSH2 0x100 EXP SWAP1 DIV PUSH20 0xFFFFFFFFFFFFFFFFFFFFFFFFFFFFFFFFFFFFFFFF AND PUSH20 0xFFFFFFFFFFFFFFFFFFFFFFFFFFFFFFFFFFFFFFFF AND PUSH4 0xC45A0155 PUSH1 0x40 MLOAD DUP2 PUSH4 0xFFFFFFFF AND PUSH1 0xE0 SHL DUP2 MSTORE PUSH1 0x4 ADD PUSH1 0x20 PUSH1 0x40 MLOAD DUP1 DUP4 SUB DUP2 DUP7 GAS STATICCALL ISZERO DUP1 ISZERO PUSH3 0x59A JUMPI RETURNDATASIZE PUSH0 DUP1 RETURNDATACOPY RETURNDATASIZE PUSH0 REVERT JUMPDEST POP POP POP POP PUSH1 0x40 MLOAD RETURNDATASIZE PUSH1 0x1F NOT PUSH1 0x1F DUP3 ADD AND DUP3 ADD DUP1 PUSH1 0x40 MSTORE POP DUP2 ADD SWAP1 PUSH3 0x5C0 SWAP2 SWAP1 PUSH3 0x188A JUMP JUMPDEST PUSH20 0xFFFFFFFFFFFFFFFFFFFFFFFFFFFFFFFFFFFFFFFF AND PUSH4 0xC9C65396 PUSH1 0xD PUSH0 SWAP1 SLOAD SWAP1 PUSH2 0x100 EXP SWAP1 DIV PUSH20 0xFFFFFFFFFFFFFFFFFFFFFFFFFFFFFFFFFFFFFFFF AND PUSH20 0xFFFFFFFFFFFFFFFFFFFFFFFFFFFFFFFFFFFFFFFF AND PUSH4 0xAD5C4648 PUSH1 0x40 MLOAD DUP2 PUSH4 0xFFFFFFFF AND PUSH1 0xE0 SHL DUP2 MSTORE PUSH1 0x4 ADD PUSH1 0x20 PUSH1 0x40 MLOAD DUP1 DUP4 SUB DUP2 DUP7 GAS STATICCALL ISZERO DUP1 ISZERO PUSH3 0x646 JUMPI RETURNDATASIZE PUSH0 DUP1 RETURNDATACOPY RETURNDATASIZE PUSH0 REVERT JUMPDEST POP POP POP POP PUSH1 0x40 MLOAD RETURNDATASIZE PUSH1 0x1F NOT PUSH1 0x1F DUP3 ADD AND DUP3 ADD DUP1 PUSH1 0x40 MSTORE POP DUP2 ADD SWAP1 PUSH3 0x66C SWAP2 SWAP1 PUSH3 0x188A JUMP JUMPDEST ADDRESS PUSH1 0x40 MLOAD DUP4 PUSH4 0xFFFFFFFF AND PUSH1 0xE0 SHL DUP2 MSTORE PUSH1 0x4 ADD PUSH3 0x68C SWAP3 SWAP2 SWAP1 PUSH3 0x1EA9 JUMP JUMPDEST PUSH1 0x20 PUSH1 0x40 MLOAD DUP1 DUP4 SUB DUP2 PUSH0 DUP8 GAS CALL ISZERO DUP1 ISZERO PUSH3 0x6A9 JUMPI RETURNDATASIZE PUSH0 DUP1 RETURNDATACOPY RETURNDATASIZE PUSH0 REVERT JUMPDEST POP POP POP POP PUSH1 0x40 MLOAD RETURNDATASIZE PUSH1 0x1F NOT PUSH1 0x1F DUP3 ADD AND DUP3 ADD DUP1 PUSH1 0x40 MSTORE POP DUP2 ADD SWAP1 PUSH3 0x6CF SWAP2 SWAP1 PUSH3 0x188A JUMP JUMPDEST PUSH1 0xE PUSH0 PUSH2 0x100 EXP DUP2 SLOAD DUP2 PUSH20 0xFFFFFFFFFFFFFFFFFFFFFFFFFFFFFFFFFFFFFFFF MUL NOT AND SWAP1 DUP4 PUSH20 0xFFFFFFFFFFFFFFFFFFFFFFFFFFFFFFFFFFFFFFFF AND MUL OR SWAP1 SSTORE POP PUSH1 0x1 PUSH1 0x9 PUSH0 PUSH1 0xE PUSH0 SWAP1 SLOAD SWAP1 PUSH2 0x100 EXP SWAP1 DIV PUSH20 0xFFFFFFFFFFFFFFFFFFFFFFFFFFFFFFFFFFFFFFFF AND PUSH20 0xFFFFFFFFFFFFFFFFFFFFFFFFFFFFFFFFFFFFFFFF AND PUSH20 0xFFFFFFFFFFFFFFFFFFFFFFFFFFFFFFFFFFFFFFFF AND DUP2 MSTORE PUSH1 0x20 ADD SWAP1 DUP2 MSTORE PUSH1 0x20 ADD PUSH0 KECCAK256 PUSH0 PUSH2 0x100 EXP DUP2 SLOAD DUP2 PUSH1 0xFF MUL NOT AND SWAP1 DUP4 ISZERO ISZERO MUL OR SWAP1 SSTORE POP POP POP POP POP PUSH3 0x266A JUMP JUMPDEST PUSH0 PUSH1 0x5 PUSH0 SWAP1 SLOAD SWAP1 PUSH2 0x100 EXP SWAP1 DIV PUSH20 0xFFFFFFFFFFFFFFFFFFFFFFFFFFFFFFFFFFFFFFFF AND SWAP1 POP DUP2 PUSH1 0x5 PUSH0 PUSH2 0x100 EXP DUP2 SLOAD DUP2 PUSH20 0xFFFFFFFFFFFFFFFFFFFFFFFFFFFFFFFFFFFFFFFF MUL NOT AND SWAP1 DUP4 PUSH20 0xFFFFFFFFFFFFFFFFFFFFFFFFFFFFFFFFFFFFFFFF AND MUL OR SWAP1 SSTORE POP DUP2 PUSH20 0xFFFFFFFFFFFFFFFFFFFFFFFFFFFFFFFFFFFFFFFF AND DUP2 PUSH20 0xFFFFFFFFFFFFFFFFFFFFFFFFFFFFFFFFFFFFFFFF AND PUSH32 0x8BE0079C531659141344CD1FD0A4F28419497F9722A3DAAFE3B4186F6B6457E0 PUSH1 0x40 MLOAD PUSH1 0x40 MLOAD DUP1 SWAP2 SUB SWAP1 LOG3 POP POP JUMP JUMPDEST PUSH0 PUSH1 0x20 DUP4 MLOAD LT ISZERO PUSH3 0x876 JUMPI PUSH3 0x86E DUP4 PUSH3 0x9B3 PUSH1 0x20 SHL PUSH1 0x20 SHR JUMP JUMPDEST SWAP1 POP PUSH3 0x8A0 JUMP JUMPDEST DUP3 PUSH3 0x888 DUP4 PUSH3 0xA1D PUSH1 0x20 SHL PUSH1 0x20 SHR JUMP JUMPDEST PUSH0 ADD SWAP1 DUP2 PUSH3 0x898 SWAP2 SWAP1 PUSH3 0x1B1E JUMP JUMPDEST POP PUSH1 0xFF PUSH0 SHL SWAP1 POP JUMPDEST SWAP3 SWAP2 POP POP JUMP JUMPDEST PUSH0 PUSH32 0x8B73C3C69BB8FE3D512ECC4CF759CC79239F7B179B0FFACAA9A75D522B39400F PUSH1 0xE0 MLOAD PUSH2 0x100 MLOAD CHAINID ADDRESS PUSH1 0x40 MLOAD PUSH1 0x20 ADD PUSH3 0x8E7 SWAP6 SWAP5 SWAP4 SWAP3 SWAP2 SWAP1 PUSH3 0x1EFF JUMP JUMPDEST PUSH1 0x40 MLOAD PUSH1 0x20 DUP2 DUP4 SUB SUB DUP2 MSTORE SWAP1 PUSH1 0x40 MSTORE DUP1 MLOAD SWAP1 PUSH1 0x20 ADD KECCAK256 SWAP1 POP SWAP1 JUMP JUMPDEST PUSH0 PUSH1 0x12 SWAP1 POP SWAP1 JUMP JUMPDEST PUSH0 PUSH20 0xFFFFFFFFFFFFFFFFFFFFFFFFFFFFFFFFFFFFFFFF AND DUP3 PUSH20 0xFFFFFFFFFFFFFFFFFFFFFFFFFFFFFFFFFFFFFFFF AND SUB PUSH3 0x97D JUMPI PUSH0 PUSH1 0x40 MLOAD PUSH32 0xEC442F0500000000000000000000000000000000000000000000000000000000 DUP2 MSTORE PUSH1 0x4 ADD PUSH3 0x974 SWAP2 SWAP1 PUSH3 0x1C13 JUMP JUMPDEST PUSH1 0x40 MLOAD DUP1 SWAP2 SUB SWAP1 REVERT JUMPDEST PUSH3 0x990 PUSH0 DUP4 DUP4 PUSH3 0xA26 PUSH1 0x20 SHL PUSH1 0x20 SHR JUMP JUMPDEST POP POP JUMP JUMPDEST PUSH0 PUSH3 0x9A8 DUP5 DUP5 DUP5 PUSH3 0xC4A PUSH1 0x20 SHL PUSH1 0x20 SHR JUMP JUMPDEST PUSH1 0x1 SWAP1 POP SWAP4 SWAP3 POP POP POP JUMP JUMPDEST PUSH0 DUP1 DUP3 SWAP1 POP PUSH1 0x1F DUP2 MLOAD GT ISZERO PUSH3 0xA02 JUMPI DUP3 PUSH1 0x40 MLOAD PUSH32 0x305A27A900000000000000000000000000000000000000000000000000000000 DUP2 MSTORE PUSH1 0x4 ADD PUSH3 0x9F9 SWAP2 SWAP1 PUSH3 0x1FE4 JUMP JUMPDEST PUSH1 0x40 MLOAD DUP1 SWAP2 SUB SWAP1 REVERT JUMPDEST DUP1 MLOAD DUP2 PUSH3 0xA10 SWAP1 PUSH3 0x2035 JUMP JUMPDEST PUSH0 SHR OR PUSH0 SHL SWAP2 POP POP SWAP2 SWAP1 POP JUMP JUMPDEST PUSH0 DUP2 SWAP1 POP SWAP2 SWAP1 POP JUMP JUMPDEST PUSH0 PUSH20 0xFFFFFFFFFFFFFFFFFFFFFFFFFFFFFFFFFFFFFFFF AND DUP4 PUSH20 0xFFFFFFFFFFFFFFFFFFFFFFFFFFFFFFFFFFFFFFFF AND SUB PUSH3 0xA7A JUMPI DUP1 PUSH1 0x2 PUSH0 DUP3 DUP3 SLOAD PUSH3 0xA6D SWAP2 SWAP1 PUSH3 0x20A4 JUMP JUMPDEST SWAP3 POP POP DUP2 SWAP1 SSTORE POP PUSH3 0xB4B JUMP JUMPDEST PUSH0 DUP1 PUSH0 DUP6 PUSH20 0xFFFFFFFFFFFFFFFFFFFFFFFFFFFFFFFFFFFFFFFF AND PUSH20 0xFFFFFFFFFFFFFFFFFFFFFFFFFFFFFFFFFFFFFFFF AND DUP2 MSTORE PUSH1 0x20 ADD SWAP1 DUP2 MSTORE PUSH1 0x20 ADD PUSH0 KECCAK256 SLOAD SWAP1 POP DUP2 DUP2 LT ISZERO PUSH3 0xB06 JUMPI DUP4 DUP2 DUP4 PUSH1 0x40 MLOAD PUSH32 0xE450D38C00000000000000000000000000000000000000000000000000000000 DUP2 MSTORE PUSH1 0x4 ADD PUSH3 0xAFD SWAP4 SWAP3 SWAP2 SWAP1 PUSH3 0x20DE JUMP JUMPDEST PUSH1 0x40 MLOAD DUP1 SWAP2 SUB SWAP1 REVERT JUMPDEST DUP2 DUP2 SUB PUSH0 DUP1 DUP7 PUSH20 0xFFFFFFFFFFFFFFFFFFFFFFFFFFFFFFFFFFFFFFFF AND PUSH20 0xFFFFFFFFFFFFFFFFFFFFFFFFFFFFFFFFFFFFFFFF AND DUP2 MSTORE PUSH1 0x20 ADD SWAP1 DUP2 MSTORE PUSH1 0x20 ADD PUSH0 KECCAK256 DUP2 SWAP1 SSTORE POP POP JUMPDEST PUSH0 PUSH20 0xFFFFFFFFFFFFFFFFFFFFFFFFFFFFFFFFFFFFFFFF AND DUP3 PUSH20 0xFFFFFFFFFFFFFFFFFFFFFFFFFFFFFFFFFFFFFFFF AND SUB PUSH3 0xB94 JUMPI DUP1 PUSH1 0x2 PUSH0 DUP3 DUP3 SLOAD SUB SWAP3 POP POP DUP2 SWAP1 SSTORE POP PUSH3 0xBDE JUMP JUMPDEST DUP1 PUSH0 DUP1 DUP5 PUSH20 0xFFFFFFFFFFFFFFFFFFFFFFFFFFFFFFFFFFFFFFFF AND PUSH20 0xFFFFFFFFFFFFFFFFFFFFFFFFFFFFFFFFFFFFFFFF AND DUP2 MSTORE PUSH1 0x20 ADD SWAP1 DUP2 MSTORE PUSH1 0x20 ADD PUSH0 KECCAK256 PUSH0 DUP3 DUP3 SLOAD ADD SWAP3 POP POP DUP2 SWAP1 SSTORE POP JUMPDEST DUP2 PUSH20 0xFFFFFFFFFFFFFFFFFFFFFFFFFFFFFFFFFFFFFFFF AND DUP4 PUSH20 0xFFFFFFFFFFFFFFFFFFFFFFFFFFFFFFFFFFFFFFFF AND PUSH32 0xDDF252AD1BE2C89B69C2B068FC378DAA952BA7F163C4A11628F55A4DF523B3EF DUP4 PUSH1 0x40 MLOAD PUSH3 0xC3D SWAP2 SWAP1 PUSH3 0x2119 JUMP JUMPDEST PUSH1 0x40 MLOAD DUP1 SWAP2 SUB SWAP1 LOG3 POP POP POP JUMP JUMPDEST PUSH1 0xE PUSH1 0x1A SWAP1 SLOAD SWAP1 PUSH2 0x100 EXP SWAP1 DIV PUSH1 0xFF AND DUP1 ISZERO PUSH3 0xCFF JUMPI POP PUSH1 0x9 PUSH0 DUP5 PUSH20 0xFFFFFFFFFFFFFFFFFFFFFFFFFFFFFFFFFFFFFFFF AND PUSH20 0xFFFFFFFFFFFFFFFFFFFFFFFFFFFFFFFFFFFFFFFF AND DUP2 MSTORE PUSH1 0x20 ADD SWAP1 DUP2 MSTORE PUSH1 0x20 ADD PUSH0 KECCAK256 PUSH0 SWAP1 SLOAD SWAP1 PUSH2 0x100 EXP SWAP1 DIV PUSH1 0xFF AND DUP1 PUSH3 0xCFE JUMPI POP PUSH1 0x9 PUSH0 DUP4 PUSH20 0xFFFFFFFFFFFFFFFFFFFFFFFFFFFFFFFFFFFFFFFF AND PUSH20 0xFFFFFFFFFFFFFFFFFFFFFFFFFFFFFFFFFFFFFFFF AND DUP2 MSTORE PUSH1 0x20 ADD SWAP1 DUP2 MSTORE PUSH1 0x20 ADD PUSH0 KECCAK256 PUSH0 SWAP1 SLOAD SWAP1 PUSH2 0x100 EXP SWAP1 DIV PUSH1 0xFF AND JUMPDEST JUMPDEST ISZERO PUSH3 0xEA3 JUMPI PUSH0 PUSH2 0x3E8 PUSH1 0xE PUSH1 0x16 SWAP1 SLOAD SWAP1 PUSH2 0x100 EXP SWAP1 DIV PUSH2 0xFFFF AND PUSH2 0xFFFF AND DUP4 PUSH3 0xD2B SWAP2 SWAP1 PUSH3 0x1DFB JUMP JUMPDEST PUSH3 0xD37 SWAP2 SWAP1 PUSH3 0x1E72 JUMP JUMPDEST SWAP1 POP PUSH0 PUSH2 0x3E8 PUSH1 0xE PUSH1 0x14 SWAP1 SLOAD SWAP1 PUSH2 0x100 EXP SWAP1 DIV PUSH2 0xFFFF AND PUSH2 0xFFFF AND DUP5 PUSH3 0xD5F SWAP2 SWAP1 PUSH3 0x1DFB JUMP JUMPDEST PUSH3 0xD6B SWAP2 SWAP1 PUSH3 0x1E72 JUMP JUMPDEST SWAP1 POP PUSH0 PUSH2 0x3E8 PUSH1 0xE PUSH1 0x18 SWAP1 SLOAD SWAP1 PUSH2 0x100 EXP SWAP1 DIV PUSH2 0xFFFF AND PUSH2 0xFFFF AND DUP6 PUSH3 0xD93 SWAP2 SWAP1 PUSH3 0x1DFB JUMP JUMPDEST PUSH3 0xD9F SWAP2 SWAP1 PUSH3 0x1E72 JUMP JUMPDEST SWAP1 POP PUSH0 DUP2 DUP4 DUP6 PUSH3 0xDB1 SWAP2 SWAP1 PUSH3 0x20A4 JUMP JUMPDEST PUSH3 0xDBD SWAP2 SWAP1 PUSH3 0x20A4 JUMP JUMPDEST SWAP1 POP PUSH0 DUP2 DUP7 PUSH3 0xDCE SWAP2 SWAP1 PUSH3 0x2134 JUMP JUMPDEST SWAP1 POP PUSH3 0xDE3 DUP9 ADDRESS DUP5 PUSH3 0xEBC PUSH1 0x20 SHL PUSH1 0x20 SHR JUMP JUMPDEST PUSH3 0xDF6 DUP9 DUP9 DUP4 PUSH3 0xEBC PUSH1 0x20 SHL PUSH1 0x20 SHR JUMP JUMPDEST PUSH0 PUSH3 0xE08 DUP7 PUSH3 0xFBA PUSH1 0x20 SHL PUSH1 0x20 SHR JUMP JUMPDEST SWAP1 POP PUSH0 PUSH3 0xE1C DUP6 PUSH3 0xFBA PUSH1 0x20 SHL PUSH1 0x20 SHR JUMP JUMPDEST SWAP1 POP PUSH3 0xE51 PUSH1 0xA PUSH0 SWAP1 SLOAD SWAP1 PUSH2 0x100 EXP SWAP1 DIV PUSH20 0xFFFFFFFFFFFFFFFFFFFFFFFFFFFFFFFFFFFFFFFF AND DUP4 PUSH3 0x12FE PUSH1 0x20 SHL PUSH1 0x20 SHR JUMP JUMPDEST PUSH3 0xE84 PUSH1 0xB PUSH0 SWAP1 SLOAD SWAP1 PUSH2 0x100 EXP SWAP1 DIV PUSH20 0xFFFFFFFFFFFFFFFFFFFFFFFFFFFFFFFFFFFFFFFF AND DUP3 PUSH3 0x12FE PUSH1 0x20 SHL PUSH1 0x20 SHR JUMP JUMPDEST PUSH3 0xE96 DUP11 DUP8 PUSH3 0x1347 PUSH1 0x20 SHL PUSH1 0x20 SHR JUMP JUMPDEST POP POP POP POP POP POP POP PUSH3 0xEB7 JUMP JUMPDEST PUSH3 0xEB6 DUP4 DUP4 DUP4 PUSH3 0xEBC PUSH1 0x20 SHL PUSH1 0x20 SHR JUMP JUMPDEST JUMPDEST POP POP POP JUMP JUMPDEST PUSH0 PUSH20 0xFFFFFFFFFFFFFFFFFFFFFFFFFFFFFFFFFFFFFFFF AND DUP4 PUSH20 0xFFFFFFFFFFFFFFFFFFFFFFFFFFFFFFFFFFFFFFFF AND SUB PUSH3 0xF2F JUMPI PUSH0 PUSH1 0x40 MLOAD PUSH32 0x96C6FD1E00000000000000000000000000000000000000000000000000000000 DUP2 MSTORE PUSH1 0x4 ADD PUSH3 0xF26 SWAP2 SWAP1 PUSH3 0x1C13 JUMP JUMPDEST PUSH1 0x40 MLOAD DUP1 SWAP2 SUB SWAP1 REVERT JUMPDEST PUSH0 PUSH20 0xFFFFFFFFFFFFFFFFFFFFFFFFFFFFFFFFFFFFFFFF AND DUP3 PUSH20 0xFFFFFFFFFFFFFFFFFFFFFFFFFFFFFFFFFFFFFFFF AND SUB PUSH3 0xFA2 JUMPI PUSH0 PUSH1 0x40 MLOAD PUSH32 0xEC442F0500000000000000000000000000000000000000000000000000000000 DUP2 MSTORE PUSH1 0x4 ADD PUSH3 0xF99 SWAP2 SWAP1 PUSH3 0x1C13 JUMP JUMPDEST PUSH1 0x40 MLOAD DUP1 SWAP2 SUB SWAP1 REVERT JUMPDEST PUSH3 0xFB5 DUP4 DUP4 DUP4 PUSH3 0xA26 PUSH1 0x20 SHL PUSH1 0x20 SHR JUMP JUMPDEST POP POP POP JUMP JUMPDEST PUSH0 DUP1 SELFBALANCE SWAP1 POP PUSH0 PUSH1 0x2 PUSH8 0xFFFFFFFFFFFFFFFF DUP2 GT ISZERO PUSH3 0xFDE JUMPI PUSH3 0xFDD PUSH3 0x18C4 JUMP JUMPDEST JUMPDEST PUSH1 0x40 MLOAD SWAP1 DUP1 DUP3 MSTORE DUP1 PUSH1 0x20 MUL PUSH1 0x20 ADD DUP3 ADD PUSH1 0x40 MSTORE DUP1 ISZERO PUSH3 0x100D JUMPI DUP2 PUSH1 0x20 ADD PUSH1 0x20 DUP3 MUL DUP1 CALLDATASIZE DUP4 CALLDATACOPY DUP1 DUP3 ADD SWAP2 POP POP SWAP1 POP JUMPDEST POP SWAP1 POP ADDRESS DUP2 PUSH0 DUP2 MLOAD DUP2 LT PUSH3 0x1027 JUMPI PUSH3 0x1026 PUSH3 0x216E JUMP JUMPDEST JUMPDEST PUSH1 0x20 MUL PUSH1 0x20 ADD ADD SWAP1 PUSH20 0xFFFFFFFFFFFFFFFFFFFFFFFFFFFFFFFFFFFFFFFF AND SWAP1 DUP2 PUSH20 0xFFFFFFFFFFFFFFFFFFFFFFFFFFFFFFFFFFFFFFFF AND DUP2 MSTORE POP POP PUSH1 0xD PUSH0 SWAP1 SLOAD SWAP1 PUSH2 0x100 EXP SWAP1 DIV PUSH20 0xFFFFFFFFFFFFFFFFFFFFFFFFFFFFFFFFFFFFFFFF AND PUSH20 0xFFFFFFFFFFFFFFFFFFFFFFFFFFFFFFFFFFFFFFFF AND PUSH4 0xAD5C4648 PUSH1 0x40 MLOAD DUP2 PUSH4 0xFFFFFFFF AND PUSH1 0xE0 SHL DUP2 MSTORE PUSH1 0x4 ADD PUSH1 0x20 PUSH1 0x40 MLOAD DUP1 DUP4 SUB DUP2 DUP7 GAS STATICCALL ISZERO DUP1 ISZERO PUSH3 0x10CC JUMPI RETURNDATASIZE PUSH0 DUP1 RETURNDATACOPY RETURNDATASIZE PUSH0 REVERT JUMPDEST POP POP POP POP PUSH1 0x40 MLOAD RETURNDATASIZE PUSH1 0x1F NOT PUSH1 0x1F DUP3 ADD AND DUP3 ADD DUP1 PUSH1 0x40 MSTORE POP DUP2 ADD SWAP1 PUSH3 0x10F2 SWAP2 SWAP1 PUSH3 0x188A JUMP JUMPDEST DUP2 PUSH1 0x1 DUP2 MLOAD DUP2 LT PUSH3 0x1109 JUMPI PUSH3 0x1108 PUSH3 0x216E JUMP JUMPDEST JUMPDEST PUSH1 0x20 MUL PUSH1 0x20 ADD ADD SWAP1 PUSH20 0xFFFFFFFFFFFFFFFFFFFFFFFFFFFFFFFFFFFFFFFF AND SWAP1 DUP2 PUSH20 0xFFFFFFFFFFFFFFFFFFFFFFFFFFFFFFFFFFFFFFFF AND DUP2 MSTORE POP POP DUP4 PUSH3 0x1155 ADDRESS PUSH3 0x13B8 PUSH1 0x20 SHL PUSH1 0x20 SHR JUMP JUMPDEST LT ISZERO PUSH3 0x1199 JUMPI PUSH1 0x40 MLOAD PUSH32 0x8C379A000000000000000000000000000000000000000000000000000000000 DUP2 MSTORE PUSH1 0x4 ADD PUSH3 0x1190 SWAP1 PUSH3 0x21E9 JUMP JUMPDEST PUSH1 0x40 MLOAD DUP1 SWAP2 SUB SWAP1 REVERT JUMPDEST PUSH3 0x11CD ADDRESS PUSH1 0xC PUSH0 SWAP1 SLOAD SWAP1 PUSH2 0x100 EXP SWAP1 DIV PUSH20 0xFFFFFFFFFFFFFFFFFFFFFFFFFFFFFFFFFFFFFFFF AND DUP7 PUSH3 0x13FD PUSH1 0x20 SHL PUSH1 0x20 SHR JUMP JUMPDEST PUSH3 0x1200 ADDRESS PUSH1 0xD PUSH0 SWAP1 SLOAD SWAP1 PUSH2 0x100 EXP SWAP1 DIV PUSH20 0xFFFFFFFFFFFFFFFFFFFFFFFFFFFFFFFFFFFFFFFF AND PUSH3 0x1417 PUSH1 0x20 SHL PUSH1 0x20 SHR JUMP JUMPDEST DUP5 GT ISZERO PUSH3 0x1245 JUMPI PUSH1 0x40 MLOAD PUSH32 0x8C379A000000000000000000000000000000000000000000000000000000000 DUP2 MSTORE PUSH1 0x4 ADD PUSH3 0x123C SWAP1 PUSH3 0x2257 JUMP JUMPDEST PUSH1 0x40 MLOAD DUP1 SWAP2 SUB SWAP1 REVERT JUMPDEST PUSH1 0xD PUSH0 SWAP1 SLOAD SWAP1 PUSH2 0x100 EXP SWAP1 DIV PUSH20 0xFFFFFFFFFFFFFFFFFFFFFFFFFFFFFFFFFFFFFFFF AND PUSH20 0xFFFFFFFFFFFFFFFFFFFFFFFFFFFFFFFFFFFFFFFF AND PUSH4 0x791AC947 DUP6 PUSH0 DUP5 ADDRESS PUSH2 0x258 TIMESTAMP PUSH3 0x1296 SWAP2 SWAP1 PUSH3 0x20A4 JUMP JUMPDEST PUSH1 0x40 MLOAD DUP7 PUSH4 0xFFFFFFFF AND PUSH1 0xE0 SHL DUP2 MSTORE PUSH1 0x4 ADD PUSH3 0x12B8 SWAP6 SWAP5 SWAP4 SWAP3 SWAP2 SWAP1 PUSH3 0x237F JUMP JUMPDEST PUSH0 PUSH1 0x40 MLOAD DUP1 DUP4 SUB DUP2 PUSH0 DUP8 DUP1 EXTCODESIZE ISZERO DUP1 ISZERO PUSH3 0x12D0 JUMPI PUSH0 DUP1 REVERT JUMPDEST POP GAS CALL ISZERO DUP1 ISZERO PUSH3 0x12E3 JUMPI RETURNDATASIZE PUSH0 DUP1 RETURNDATACOPY RETURNDATASIZE PUSH0 REVERT JUMPDEST POP POP POP POP DUP2 SELFBALANCE PUSH3 0x12F5 SWAP2 SWAP1 PUSH3 0x2134 JUMP JUMPDEST SWAP3 POP POP POP SWAP2 SWAP1 POP JUMP JUMPDEST DUP2 PUSH20 0xFFFFFFFFFFFFFFFFFFFFFFFFFFFFFFFFFFFFFFFF AND PUSH2 0x8FC DUP3 SWAP1 DUP2 ISZERO MUL SWAP1 PUSH1 0x40 MLOAD PUSH0 PUSH1 0x40 MLOAD DUP1 DUP4 SUB DUP2 DUP6 DUP9 DUP9 CALL SWAP4 POP POP POP POP ISZERO DUP1 ISZERO PUSH3 0x1342 JUMPI RETURNDATASIZE PUSH0 DUP1 RETURNDATACOPY RETURNDATASIZE PUSH0 REVERT JUMPDEST POP POP POP JUMP JUMPDEST PUSH0 PUSH3 0x1359 DUP3 PUSH3 0xFBA PUSH1 0x20 SHL PUSH1 0x20 SHR JUMP JUMPDEST SWAP1 POP PUSH0 DUP2 GT PUSH3 0x13A0 JUMPI PUSH1 0x40 MLOAD PUSH32 0x8C379A000000000000000000000000000000000000000000000000000000000 DUP2 MSTORE PUSH1 0x4 ADD PUSH3 0x1397 SWAP1 PUSH3 0x2455 JUMP JUMPDEST PUSH1 0x40 MLOAD DUP1 SWAP2 SUB SWAP1 REVERT JUMPDEST PUSH3 0x13B3 DUP3 DUP3 DUP6 PUSH3 0x1499 PUSH1 0x20 SHL PUSH1 0x20 SHR JUMP JUMPDEST POP POP POP JUMP JUMPDEST PUSH0 DUP1 PUSH0 DUP4 PUSH20 0xFFFFFFFFFFFFFFFFFFFFFFFFFFFFFFFFFFFFFFFF AND PUSH20 0xFFFFFFFFFFFFFFFFFFFFFFFFFFFFFFFFFFFFFFFF AND DUP2 MSTORE PUSH1 0x20 ADD SWAP1 DUP2 MSTORE PUSH1 0x20 ADD PUSH0 KECCAK256 SLOAD SWAP1 POP SWAP2 SWAP1 POP JUMP JUMPDEST PUSH3 0x1412 DUP4 DUP4 DUP4 PUSH1 0x1 PUSH3 0x164D PUSH1 0x20 SHL PUSH1 0x20 SHR JUMP JUMPDEST POP POP POP JUMP JUMPDEST PUSH0 PUSH1 0x1 PUSH0 DUP5 PUSH20 0xFFFFFFFFFFFFFFFFFFFFFFFFFFFFFFFFFFFFFFFF AND PUSH20 0xFFFFFFFFFFFFFFFFFFFFFFFFFFFFFFFFFFFFFFFF AND DUP2 MSTORE PUSH1 0x20 ADD SWAP1 DUP2 MSTORE PUSH1 0x20 ADD PUSH0 KECCAK256 PUSH0 DUP4 PUSH20 0xFFFFFFFFFFFFFFFFFFFFFFFFFFFFFFFFFFFFFFFF AND PUSH20 0xFFFFFFFFFFFFFFFFFFFFFFFFFFFFFFFFFFFFFFFF AND DUP2 MSTORE PUSH1 0x20 ADD SWAP1 DUP2 MSTORE PUSH1 0x20 ADD PUSH0 KECCAK256 SLOAD SWAP1 POP SWAP3 SWAP2 POP POP JUMP JUMPDEST DUP2 SELFBALANCE LT ISZERO PUSH3 0x14DF JUMPI PUSH1 0x40 MLOAD PUSH32 0x8C379A000000000000000000000000000000000000000000000000000000000 DUP2 MSTORE PUSH1 0x4 ADD PUSH3 0x14D6 SWAP1 PUSH3 0x24C3 JUMP JUMPDEST PUSH1 0x40 MLOAD DUP1 SWAP2 SUB SWAP1 REVERT JUMPDEST PUSH3 0x1513 ADDRESS PUSH1 0xC PUSH0 SWAP1 SLOAD SWAP1 PUSH2 0x100 EXP SWAP1 DIV PUSH20 0xFFFFFFFFFFFFFFFFFFFFFFFFFFFFFFFFFFFFFFFF AND DUP6 PUSH3 0x13FD PUSH1 0x20 SHL PUSH1 0x20 SHR JUMP JUMPDEST PUSH3 0x1546 ADDRESS PUSH1 0xD PUSH0 SWAP1 SLOAD SWAP1 PUSH2 0x100 EXP SWAP1 DIV PUSH20 0xFFFFFFFFFFFFFFFFFFFFFFFFFFFFFFFFFFFFFFFF AND PUSH3 0x1417 PUSH1 0x20 SHL PUSH1 0x20 SHR JUMP JUMPDEST DUP4 GT ISZERO PUSH3 0x158B JUMPI PUSH1 0x40 MLOAD PUSH32 0x8C379A000000000000000000000000000000000000000000000000000000000 DUP2 MSTORE PUSH1 0x4 ADD PUSH3 0x1582 SWAP1 PUSH3 0x2557 JUMP JUMPDEST PUSH1 0x40 MLOAD DUP1 SWAP2 SUB SWAP1 REVERT JUMPDEST PUSH1 0xD PUSH0 SWAP1 SLOAD SWAP1 PUSH2 0x100 EXP SWAP1 DIV PUSH20 0xFFFFFFFFFFFFFFFFFFFFFFFFFFFFFFFFFFFFFFFF AND PUSH20 0xFFFFFFFFFFFFFFFFFFFFFFFFFFFFFFFFFFFFFFFF AND PUSH4 0xF305D719 DUP4 ADDRESS DUP7 PUSH0 DUP1 DUP8 PUSH2 0x258 TIMESTAMP PUSH3 0x15DE SWAP2 SWAP1 PUSH3 0x20A4 JUMP JUMPDEST PUSH1 0x40 MLOAD DUP9 PUSH4 0xFFFFFFFF AND PUSH1 0xE0 SHL DUP2 MSTORE PUSH1 0x4 ADD PUSH3 0x1601 SWAP7 SWAP6 SWAP5 SWAP4 SWAP3 SWAP2 SWAP1 PUSH3 0x2577 JUMP JUMPDEST PUSH1 0x60 PUSH1 0x40 MLOAD DUP1 DUP4 SUB DUP2 DUP6 DUP9 GAS CALL ISZERO DUP1 ISZERO PUSH3 0x161E JUMPI RETURNDATASIZE PUSH0 DUP1 RETURNDATACOPY RETURNDATASIZE PUSH0 REVERT JUMPDEST POP POP POP POP POP PUSH1 0x40 MLOAD RETURNDATASIZE PUSH1 0x1F NOT PUSH1 0x1F DUP3 ADD AND DUP3 ADD DUP1 PUSH1 0x40 MSTORE POP DUP2 ADD SWAP1 PUSH3 0x1645 SWAP2 SWAP1 PUSH3 0x2611 JUMP JUMPDEST POP POP POP POP POP POP JUMP JUMPDEST PUSH0 PUSH20 0xFFFFFFFFFFFFFFFFFFFFFFFFFFFFFFFFFFFFFFFF AND DUP5 PUSH20 0xFFFFFFFFFFFFFFFFFFFFFFFFFFFFFFFFFFFFFFFF AND SUB PUSH3 0x16C0 JUMPI PUSH0 PUSH1 0x40 MLOAD PUSH32 0xE602DF0500000000000000000000000000000000000000000000000000000000 DUP2 MSTORE PUSH1 0x4 ADD PUSH3 0x16B7 SWAP2 SWAP1 PUSH3 0x1C13 JUMP JUMPDEST PUSH1 0x40 MLOAD DUP1 SWAP2 SUB SWAP1 REVERT JUMPDEST PUSH0 PUSH20 0xFFFFFFFFFFFFFFFFFFFFFFFFFFFFFFFFFFFFFFFF AND DUP4 PUSH20 0xFFFFFFFFFFFFFFFFFFFFFFFFFFFFFFFFFFFFFFFF AND SUB PUSH3 0x1733 JUMPI PUSH0 PUSH1 0x40 MLOAD PUSH32 0x94280D6200000000000000000000000000000000000000000000000000000000 DUP2 MSTORE PUSH1 0x4 ADD PUSH3 0x172A SWAP2 SWAP1 PUSH3 0x1C13 JUMP JUMPDEST PUSH1 0x40 MLOAD DUP1 SWAP2 SUB SWAP1 REVERT JUMPDEST DUP2 PUSH1 0x1 PUSH0 DUP7 PUSH20 0xFFFFFFFFFFFFFFFFFFFFFFFFFFFFFFFFFFFFFFFF AND PUSH20 0xFFFFFFFFFFFFFFFFFFFFFFFFFFFFFFFFFFFFFFFF AND DUP2 MSTORE PUSH1 0x20 ADD SWAP1 DUP2 MSTORE PUSH1 0x20 ADD PUSH0 KECCAK256 PUSH0 DUP6 PUSH20 0xFFFFFFFFFFFFFFFFFFFFFFFFFFFFFFFFFFFFFFFF AND PUSH20 0xFFFFFFFFFFFFFFFFFFFFFFFFFFFFFFFFFFFFFFFF AND DUP2 MSTORE PUSH1 0x20 ADD SWAP1 DUP2 MSTORE PUSH1 0x20 ADD PUSH0 KECCAK256 DUP2 SWAP1 SSTORE POP DUP1 ISZERO PUSH3 0x181F JUMPI DUP3 PUSH20 0xFFFFFFFFFFFFFFFFFFFFFFFFFFFFFFFFFFFFFFFF AND DUP5 PUSH20 0xFFFFFFFFFFFFFFFFFFFFFFFFFFFFFFFFFFFFFFFF AND PUSH32 0x8C5BE1E5EBEC7D5BD14F71427D1E84F3DD0314C0F7B2291E5B200AC8C7C3B925 DUP5 PUSH1 0x40 MLOAD PUSH3 0x1816 SWAP2 SWAP1 PUSH3 0x2119 JUMP JUMPDEST PUSH1 0x40 MLOAD DUP1 SWAP2 SUB SWAP1 LOG3 JUMPDEST POP POP POP POP JUMP JUMPDEST PUSH0 DUP1 REVERT JUMPDEST PUSH0 PUSH20 0xFFFFFFFFFFFFFFFFFFFFFFFFFFFFFFFFFFFFFFFF DUP3 AND SWAP1 POP SWAP2 SWAP1 POP JUMP JUMPDEST PUSH0 PUSH3 0x1854 DUP3 PUSH3 0x1829 JUMP JUMPDEST SWAP1 POP SWAP2 SWAP1 POP JUMP JUMPDEST PUSH3 0x1866 DUP2 PUSH3 0x1848 JUMP JUMPDEST DUP2 EQ PUSH3 0x1871 JUMPI PUSH0 DUP1 REVERT JUMPDEST POP JUMP JUMPDEST PUSH0 DUP2 MLOAD SWAP1 POP PUSH3 0x1884 DUP2 PUSH3 0x185B JUMP JUMPDEST SWAP3 SWAP2 POP POP JUMP JUMPDEST PUSH0 PUSH1 0x20 DUP3 DUP5 SUB SLT ISZERO PUSH3 0x18A2 JUMPI PUSH3 0x18A1 PUSH3 0x1825 JUMP JUMPDEST JUMPDEST PUSH0 PUSH3 0x18B1 DUP5 DUP3 DUP6 ADD PUSH3 0x1874 JUMP JUMPDEST SWAP2 POP POP SWAP3 SWAP2 POP POP JUMP JUMPDEST PUSH0 DUP2 MLOAD SWAP1 POP SWAP2 SWAP1 POP JUMP JUMPDEST PUSH32 0x4E487B7100000000000000000000000000000000000000000000000000000000 PUSH0 MSTORE PUSH1 0x41 PUSH1 0x4 MSTORE PUSH1 0x24 PUSH0 REVERT JUMPDEST PUSH32 0x4E487B7100000000000000000000000000000000000000000000000000000000 PUSH0 MSTORE PUSH1 0x22 PUSH1 0x4 MSTORE PUSH1 0x24 PUSH0 REVERT JUMPDEST PUSH0 PUSH1 0x2 DUP3 DIV SWAP1 POP PUSH1 0x1 DUP3 AND DUP1 PUSH3 0x1936 JUMPI PUSH1 0x7F DUP3 AND SWAP2 POP JUMPDEST PUSH1 0x20 DUP3 LT DUP2 SUB PUSH3 0x194C JUMPI PUSH3 0x194B PUSH3 0x18F1 JUMP JUMPDEST JUMPDEST POP SWAP2 SWAP1 POP JUMP JUMPDEST PUSH0 DUP2 SWAP1 POP DUP2 PUSH0 MSTORE PUSH1 0x20 PUSH0 KECCAK256 SWAP1 POP SWAP2 SWAP1 POP JUMP JUMPDEST PUSH0 PUSH1 0x20 PUSH1 0x1F DUP4 ADD DIV SWAP1 POP SWAP2 SWAP1 POP JUMP JUMPDEST PUSH0 DUP3 DUP3 SHL SWAP1 POP SWAP3 SWAP2 POP POP JUMP JUMPDEST PUSH0 PUSH1 0x8 DUP4 MUL PUSH3 0x19B0 PUSH32 0xFFFFFFFFFFFFFFFFFFFFFFFFFFFFFFFFFFFFFFFFFFFFFFFFFFFFFFFFFFFFFFFF DUP3 PUSH3 0x1973 JUMP JUMPDEST PUSH3 0x19BC DUP7 DUP4 PUSH3 0x1973 JUMP JUMPDEST SWAP6 POP DUP1 NOT DUP5 AND SWAP4 POP DUP1 DUP7 AND DUP5 OR SWAP3 POP POP POP SWAP4 SWAP3 POP POP POP JUMP JUMPDEST PUSH0 DUP2 SWAP1 POP SWAP2 SWAP1 POP JUMP JUMPDEST PUSH0 DUP2 SWAP1 POP SWAP2 SWAP1 POP JUMP JUMPDEST PUSH0 PUSH3 0x1A06 PUSH3 0x1A00 PUSH3 0x19FA DUP5 PUSH3 0x19D4 JUMP JUMPDEST PUSH3 0x19DD JUMP JUMPDEST PUSH3 0x19D4 JUMP JUMPDEST SWAP1 POP SWAP2 SWAP1 POP JUMP JUMPDEST PUSH0 DUP2 SWAP1 POP SWAP2 SWAP1 POP JUMP JUMPDEST PUSH3 0x1A21 DUP4 PUSH3 0x19E6 JUMP JUMPDEST PUSH3 0x1A39 PUSH3 0x1A30 DUP3 PUSH3 0x1A0D JUMP JUMPDEST DUP5 DUP5 SLOAD PUSH3 0x197F JUMP JUMPDEST DUP3 SSTORE POP POP POP POP JUMP JUMPDEST PUSH0 SWAP1 JUMP JUMPDEST PUSH3 0x1A4F PUSH3 0x1A41 JUMP JUMPDEST PUSH3 0x1A5C DUP2 DUP5 DUP5 PUSH3 0x1A16 JUMP JUMPDEST POP POP POP JUMP JUMPDEST JUMPDEST DUP2 DUP2 LT ISZERO PUSH3 0x1A83 JUMPI PUSH3 0x1A77 PUSH0 DUP3 PUSH3 0x1A45 JUMP JUMPDEST PUSH1 0x1 DUP2 ADD SWAP1 POP PUSH3 0x1A62 JUMP JUMPDEST POP POP JUMP JUMPDEST PUSH1 0x1F DUP3 GT ISZERO PUSH3 0x1AD2 JUMPI PUSH3 0x1A9C DUP2 PUSH3 0x1952 JUMP JUMPDEST PUSH3 0x1AA7 DUP5 PUSH3 0x1964 JUMP JUMPDEST DUP2 ADD PUSH1 0x20 DUP6 LT ISZERO PUSH3 0x1AB7 JUMPI DUP2 SWAP1 POP JUMPDEST PUSH3 0x1ACF PUSH3 0x1AC6 DUP6 PUSH3 0x1964 JUMP JUMPDEST DUP4 ADD DUP3 PUSH3 0x1A61 JUMP JUMPDEST POP POP JUMPDEST POP POP POP JUMP JUMPDEST PUSH0 DUP3 DUP3 SHR SWAP1 POP SWAP3 SWAP2 POP POP JUMP JUMPDEST PUSH0 PUSH3 0x1AF4 PUSH0 NOT DUP5 PUSH1 0x8 MUL PUSH3 0x1AD7 JUMP JUMPDEST NOT DUP1 DUP4 AND SWAP2 POP POP SWAP3 SWAP2 POP POP JUMP JUMPDEST PUSH0 PUSH3 0x1B0E DUP4 DUP4 PUSH3 0x1AE3 JUMP JUMPDEST SWAP2 POP DUP3 PUSH1 0x2 MUL DUP3 OR SWAP1 POP SWAP3 SWAP2 POP POP JUMP JUMPDEST PUSH3 0x1B29 DUP3 PUSH3 0x18BA JUMP JUMPDEST PUSH8 0xFFFFFFFFFFFFFFFF DUP2 GT ISZERO PUSH3 0x1B45 JUMPI PUSH3 0x1B44 PUSH3 0x18C4 JUMP JUMPDEST JUMPDEST PUSH3 0x1B51 DUP3 SLOAD PUSH3 0x191E JUMP JUMPDEST PUSH3 0x1B5E DUP3 DUP3 DUP6 PUSH3 0x1A87 JUMP JUMPDEST PUSH0 PUSH1 0x20 SWAP1 POP PUSH1 0x1F DUP4 GT PUSH1 0x1 DUP2 EQ PUSH3 0x1B94 JUMPI PUSH0 DUP5 ISZERO PUSH3 0x1B7F JUMPI DUP3 DUP8 ADD MLOAD SWAP1 POP JUMPDEST PUSH3 0x1B8B DUP6 DUP3 PUSH3 0x1B01 JUMP JUMPDEST DUP7 SSTORE POP PUSH3 0x1BFA JUMP JUMPDEST PUSH1 0x1F NOT DUP5 AND PUSH3 0x1BA4 DUP7 PUSH3 0x1952 JUMP JUMPDEST PUSH0 JUMPDEST DUP3 DUP2 LT ISZERO PUSH3 0x1BCD JUMPI DUP5 DUP10 ADD MLOAD DUP3 SSTORE PUSH1 0x1 DUP3 ADD SWAP2 POP PUSH1 0x20 DUP6 ADD SWAP5 POP PUSH1 0x20 DUP2 ADD SWAP1 POP PUSH3 0x1BA6 JUMP JUMPDEST DUP7 DUP4 LT ISZERO PUSH3 0x1BED JUMPI DUP5 DUP10 ADD MLOAD PUSH3 0x1BE9 PUSH1 0x1F DUP10 AND DUP3 PUSH3 0x1AE3 JUMP JUMPDEST DUP4 SSTORE POP JUMPDEST PUSH1 0x1 PUSH1 0x2 DUP9 MUL ADD DUP9 SSTORE POP POP POP JUMPDEST POP POP POP POP POP POP JUMP JUMPDEST PUSH3 0x1C0D DUP2 PUSH3 0x1848 JUMP JUMPDEST DUP3 MSTORE POP POP JUMP JUMPDEST PUSH0 PUSH1 0x20 DUP3 ADD SWAP1 POP PUSH3 0x1C28 PUSH0 DUP4 ADD DUP5 PUSH3 0x1C02 JUMP JUMPDEST SWAP3 SWAP2 POP POP JUMP JUMPDEST PUSH32 0x4E487B7100000000000000000000000000000000000000000000000000000000 PUSH0 MSTORE PUSH1 0x11 PUSH1 0x4 MSTORE PUSH1 0x24 PUSH0 REVERT JUMPDEST PUSH0 DUP2 PUSH1 0x1 SHR SWAP1 POP SWAP2 SWAP1 POP JUMP JUMPDEST PUSH0 DUP1 DUP3 SWAP2 POP DUP4 SWAP1 POP JUMPDEST PUSH1 0x1 DUP6 GT ISZERO PUSH3 0x1CB8 JUMPI DUP1 DUP7 DIV DUP2 GT ISZERO PUSH3 0x1C90 JUMPI PUSH3 0x1C8F PUSH3 0x1C2E JUMP JUMPDEST JUMPDEST PUSH1 0x1 DUP6 AND ISZERO PUSH3 0x1CA0 JUMPI DUP1 DUP3 MUL SWAP2 POP JUMPDEST DUP1 DUP2 MUL SWAP1 POP PUSH3 0x1CB0 DUP6 PUSH3 0x1C5B JUMP JUMPDEST SWAP5 POP PUSH3 0x1C70 JUMP JUMPDEST SWAP5 POP SWAP5 SWAP3 POP POP POP JUMP JUMPDEST PUSH0 DUP3 PUSH3 0x1CD2 JUMPI PUSH1 0x1 SWAP1 POP PUSH3 0x1DA4 JUMP JUMPDEST DUP2 PUSH3 0x1CE1 JUMPI PUSH0 SWAP1 POP PUSH3 0x1DA4 JUMP JUMPDEST DUP2 PUSH1 0x1 DUP2 EQ PUSH3 0x1CFA JUMPI PUSH1 0x2 DUP2 EQ PUSH3 0x1D05 JUMPI PUSH3 0x1D3B JUMP JUMPDEST PUSH1 0x1 SWAP2 POP POP PUSH3 0x1DA4 JUMP JUMPDEST PUSH1 0xFF DUP5 GT ISZERO PUSH3 0x1D1A JUMPI PUSH3 0x1D19 PUSH3 0x1C2E JUMP JUMPDEST JUMPDEST DUP4 PUSH1 0x2 EXP SWAP2 POP DUP5 DUP3 GT ISZERO PUSH3 0x1D34 JUMPI PUSH3 0x1D33 PUSH3 0x1C2E JUMP JUMPDEST JUMPDEST POP PUSH3 0x1DA4 JUMP JUMPDEST POP PUSH1 0x20 DUP4 LT PUSH2 0x133 DUP4 LT AND PUSH1 0x4E DUP5 LT PUSH1 0xB DUP5 LT AND OR ISZERO PUSH3 0x1D75 JUMPI DUP3 DUP3 EXP SWAP1 POP DUP4 DUP2 GT ISZERO PUSH3 0x1D6F JUMPI PUSH3 0x1D6E PUSH3 0x1C2E JUMP JUMPDEST JUMPDEST PUSH3 0x1DA4 JUMP JUMPDEST PUSH3 0x1D84 DUP5 DUP5 DUP5 PUSH1 0x1 PUSH3 0x1C67 JUMP JUMPDEST SWAP3 POP SWAP1 POP DUP2 DUP5 DIV DUP2 GT ISZERO PUSH3 0x1D9E JUMPI PUSH3 0x1D9D PUSH3 0x1C2E JUMP JUMPDEST JUMPDEST DUP2 DUP2 MUL SWAP1 POP JUMPDEST SWAP4 SWAP3 POP POP POP JUMP JUMPDEST PUSH0 PUSH3 0x1DB7 DUP3 PUSH3 0x19D4 JUMP JUMPDEST SWAP2 POP PUSH3 0x1DC4 DUP4 PUSH3 0x19D4 JUMP JUMPDEST SWAP3 POP PUSH3 0x1DF3 PUSH32 0xFFFFFFFFFFFFFFFFFFFFFFFFFFFFFFFFFFFFFFFFFFFFFFFFFFFFFFFFFFFFFFFF DUP5 DUP5 PUSH3 0x1CC1 JUMP JUMPDEST SWAP1 POP SWAP3 SWAP2 POP POP JUMP JUMPDEST PUSH0 PUSH3 0x1E07 DUP3 PUSH3 0x19D4 JUMP JUMPDEST SWAP2 POP PUSH3 0x1E14 DUP4 PUSH3 0x19D4 JUMP JUMPDEST SWAP3 POP DUP3 DUP3 MUL PUSH3 0x1E24 DUP2 PUSH3 0x19D4 JUMP JUMPDEST SWAP2 POP DUP3 DUP3 DIV DUP5 EQ DUP4 ISZERO OR PUSH3 0x1E3E JUMPI PUSH3 0x1E3D PUSH3 0x1C2E JUMP JUMPDEST JUMPDEST POP SWAP3 SWAP2 POP POP JUMP JUMPDEST PUSH32 0x4E487B7100000000000000000000000000000000000000000000000000000000 PUSH0 MSTORE PUSH1 0x12 PUSH1 0x4 MSTORE PUSH1 0x24 PUSH0 REVERT JUMPDEST PUSH0 PUSH3 0x1E7E DUP3 PUSH3 0x19D4 JUMP JUMPDEST SWAP2 POP PUSH3 0x1E8B DUP4 PUSH3 0x19D4 JUMP JUMPDEST SWAP3 POP DUP3 PUSH3 0x1E9E JUMPI PUSH3 0x1E9D PUSH3 0x1E45 JUMP JUMPDEST JUMPDEST DUP3 DUP3 DIV SWAP1 POP SWAP3 SWAP2 POP POP JUMP JUMPDEST PUSH0 PUSH1 0x40 DUP3 ADD SWAP1 POP PUSH3 0x1EBE PUSH0 DUP4 ADD DUP6 PUSH3 0x1C02 JUMP JUMPDEST PUSH3 0x1ECD PUSH1 0x20 DUP4 ADD DUP5 PUSH3 0x1C02 JUMP JUMPDEST SWAP4 SWAP3 POP POP POP JUMP JUMPDEST PUSH0 DUP2 SWAP1 POP SWAP2 SWAP1 POP JUMP JUMPDEST PUSH3 0x1EE8 DUP2 PUSH3 0x1ED4 JUMP JUMPDEST DUP3 MSTORE POP POP JUMP JUMPDEST PUSH3 0x1EF9 DUP2 PUSH3 0x19D4 JUMP JUMPDEST DUP3 MSTORE POP POP JUMP JUMPDEST PUSH0 PUSH1 0xA0 DUP3 ADD SWAP1 POP PUSH3 0x1F14 PUSH0 DUP4 ADD DUP9 PUSH3 0x1EDD JUMP JUMPDEST PUSH3 0x1F23 PUSH1 0x20 DUP4 ADD DUP8 PUSH3 0x1EDD JUMP JUMPDEST PUSH3 0x1F32 PUSH1 0x40 DUP4 ADD DUP7 PUSH3 0x1EDD JUMP JUMPDEST PUSH3 0x1F41 PUSH1 0x60 DUP4 ADD DUP6 PUSH3 0x1EEE JUMP JUMPDEST PUSH3 0x1F50 PUSH1 0x80 DUP4 ADD DUP5 PUSH3 0x1C02 JUMP JUMPDEST SWAP7 SWAP6 POP POP POP POP POP POP JUMP JUMPDEST PUSH0 DUP3 DUP3 MSTORE PUSH1 0x20 DUP3 ADD SWAP1 POP SWAP3 SWAP2 POP POP JUMP JUMPDEST PUSH0 JUMPDEST DUP4 DUP2 LT ISZERO PUSH3 0x1F89 JUMPI DUP1 DUP3 ADD MLOAD DUP2 DUP5 ADD MSTORE PUSH1 0x20 DUP2 ADD SWAP1 POP PUSH3 0x1F6C JUMP JUMPDEST PUSH0 DUP5 DUP5 ADD MSTORE POP POP POP POP JUMP JUMPDEST PUSH0 PUSH1 0x1F NOT PUSH1 0x1F DUP4 ADD AND SWAP1 POP SWAP2 SWAP1 POP JUMP JUMPDEST PUSH0 PUSH3 0x1FB0 DUP3 PUSH3 0x18BA JUMP JUMPDEST PUSH3 0x1FBC DUP2 DUP6 PUSH3 0x1F5A JUMP JUMPDEST SWAP4 POP PUSH3 0x1FCE DUP2 DUP6 PUSH1 0x20 DUP7 ADD PUSH3 0x1F6A JUMP JUMPDEST PUSH3 0x1FD9 DUP2 PUSH3 0x1F94 JUMP JUMPDEST DUP5 ADD SWAP2 POP POP SWAP3 SWAP2 POP POP JUMP JUMPDEST PUSH0 PUSH1 0x20 DUP3 ADD SWAP1 POP DUP2 DUP2 SUB PUSH0 DUP4 ADD MSTORE PUSH3 0x1FFE DUP2 DUP5 PUSH3 0x1FA4 JUMP JUMPDEST SWAP1 POP SWAP3 SWAP2 POP POP JUMP JUMPDEST PUSH0 DUP2 MLOAD SWAP1 POP SWAP2 SWAP1 POP JUMP JUMPDEST PUSH0 DUP2 SWAP1 POP PUSH1 0x20 DUP3 ADD SWAP1 POP SWAP2 SWAP1 POP JUMP JUMPDEST PUSH0 PUSH3 0x202C DUP3 MLOAD PUSH3 0x1ED4 JUMP JUMPDEST DUP1 SWAP2 POP POP SWAP2 SWAP1 POP JUMP JUMPDEST PUSH0 PUSH3 0x2041 DUP3 PUSH3 0x2006 JUMP JUMPDEST DUP3 PUSH3 0x204D DUP5 PUSH3 0x2010 JUMP JUMPDEST SWAP1 POP PUSH3 0x205A DUP2 PUSH3 0x201F JUMP JUMPDEST SWAP3 POP PUSH1 0x20 DUP3 LT ISZERO PUSH3 0x209D JUMPI PUSH3 0x2098 PUSH32 0xFFFFFFFFFFFFFFFFFFFFFFFFFFFFFFFFFFFFFFFFFFFFFFFFFFFFFFFFFFFFFFFF DUP4 PUSH1 0x20 SUB PUSH1 0x8 MUL PUSH3 0x1973 JUMP JUMPDEST DUP4 AND SWAP3 POP JUMPDEST POP POP SWAP2 SWAP1 POP JUMP JUMPDEST PUSH0 PUSH3 0x20B0 DUP3 PUSH3 0x19D4 JUMP JUMPDEST SWAP2 POP PUSH3 0x20BD DUP4 PUSH3 0x19D4 JUMP JUMPDEST SWAP3 POP DUP3 DUP3 ADD SWAP1 POP DUP1 DUP3 GT ISZERO PUSH3 0x20D8 JUMPI PUSH3 0x20D7 PUSH3 0x1C2E JUMP JUMPDEST JUMPDEST SWAP3 SWAP2 POP POP JUMP JUMPDEST PUSH0 PUSH1 0x60 DUP3 ADD SWAP1 POP PUSH3 0x20F3 PUSH0 DUP4 ADD DUP7 PUSH3 0x1C02 JUMP JUMPDEST PUSH3 0x2102 PUSH1 0x20 DUP4 ADD DUP6 PUSH3 0x1EEE JUMP JUMPDEST PUSH3 0x2111 PUSH1 0x40 DUP4 ADD DUP5 PUSH3 0x1EEE JUMP JUMPDEST SWAP5 SWAP4 POP POP POP POP JUMP JUMPDEST PUSH0 PUSH1 0x20 DUP3 ADD SWAP1 POP PUSH3 0x212E PUSH0 DUP4 ADD DUP5 PUSH3 0x1EEE JUMP JUMPDEST SWAP3 SWAP2 POP POP JUMP JUMPDEST PUSH0 PUSH3 0x2140 DUP3 PUSH3 0x19D4 JUMP JUMPDEST SWAP2 POP PUSH3 0x214D DUP4 PUSH3 0x19D4 JUMP JUMPDEST SWAP3 POP DUP3 DUP3 SUB SWAP1 POP DUP2 DUP2 GT ISZERO PUSH3 0x2168 JUMPI PUSH3 0x2167 PUSH3 0x1C2E JUMP JUMPDEST JUMPDEST SWAP3 SWAP2 POP POP JUMP JUMPDEST PUSH32 0x4E487B7100000000000000000000000000000000000000000000000000000000 PUSH0 MSTORE PUSH1 0x32 PUSH1 0x4 MSTORE PUSH1 0x24 PUSH0 REVERT JUMPDEST PUSH32 0x496E73756666696369656E7420746F6B656E7320696E20636F6E747261637400 PUSH0 DUP3 ADD MSTORE POP JUMP JUMPDEST PUSH0 PUSH3 0x21D1 PUSH1 0x1F DUP4 PUSH3 0x1F5A JUMP JUMPDEST SWAP2 POP PUSH3 0x21DE DUP3 PUSH3 0x219B JUMP JUMPDEST PUSH1 0x20 DUP3 ADD SWAP1 POP SWAP2 SWAP1 POP JUMP JUMPDEST PUSH0 PUSH1 0x20 DUP3 ADD SWAP1 POP DUP2 DUP2 SUB PUSH0 DUP4 ADD MSTORE PUSH3 0x2202 DUP2 PUSH3 0x21C3 JUMP JUMPDEST SWAP1 POP SWAP2 SWAP1 POP JUMP JUMPDEST PUSH32 0x537761702072657175657374206578636565647320616C6C6F77616E63650000 PUSH0 DUP3 ADD MSTORE POP JUMP JUMPDEST PUSH0 PUSH3 0x223F PUSH1 0x1E DUP4 PUSH3 0x1F5A JUMP JUMPDEST SWAP2 POP PUSH3 0x224C DUP3 PUSH3 0x2209 JUMP JUMPDEST PUSH1 0x20 DUP3 ADD SWAP1 POP SWAP2 SWAP1 POP JUMP JUMPDEST PUSH0 PUSH1 0x20 DUP3 ADD SWAP1 POP DUP2 DUP2 SUB PUSH0 DUP4 ADD MSTORE PUSH3 0x2270 DUP2 PUSH3 0x2231 JUMP JUMPDEST SWAP1 POP SWAP2 SWAP1 POP JUMP JUMPDEST PUSH0 DUP2 SWAP1 POP SWAP2 SWAP1 POP JUMP JUMPDEST PUSH0 PUSH3 0x22A0 PUSH3 0x229A PUSH3 0x2294 DUP5 PUSH3 0x2277 JUMP JUMPDEST PUSH3 0x19DD JUMP JUMPDEST PUSH3 0x19D4 JUMP JUMPDEST SWAP1 POP SWAP2 SWAP1 POP JUMP JUMPDEST PUSH3 0x22B2 DUP2 PUSH3 0x2280 JUMP JUMPDEST DUP3 MSTORE POP POP JUMP JUMPDEST PUSH0 DUP2 MLOAD SWAP1 POP SWAP2 SWAP1 POP JUMP JUMPDEST PUSH0 DUP3 DUP3 MSTORE PUSH1 0x20 DUP3 ADD SWAP1 POP SWAP3 SWAP2 POP POP JUMP JUMPDEST PUSH0 DUP2 SWAP1 POP PUSH1 0x20 DUP3 ADD SWAP1 POP SWAP2 SWAP1 POP JUMP JUMPDEST PUSH3 0x22EC DUP2 PUSH3 0x1848 JUMP JUMPDEST DUP3 MSTORE POP POP JUMP JUMPDEST PUSH0 PUSH3 0x22FF DUP4 DUP4 PUSH3 0x22E1 JUMP JUMPDEST PUSH1 0x20 DUP4 ADD SWAP1 POP SWAP3 SWAP2 POP POP JUMP JUMPDEST PUSH0 PUSH1 0x20 DUP3 ADD SWAP1 POP SWAP2 SWAP1 POP JUMP JUMPDEST PUSH0 PUSH3 0x2323 DUP3 PUSH3 0x22B8 JUMP JUMPDEST PUSH3 0x232F DUP2 DUP6 PUSH3 0x22C2 JUMP JUMPDEST SWAP4 POP PUSH3 0x233C DUP4 PUSH3 0x22D2 JUMP JUMPDEST DUP1 PUSH0 JUMPDEST DUP4 DUP2 LT ISZERO PUSH3 0x2372 JUMPI DUP2 MLOAD PUSH3 0x2356 DUP9 DUP3 PUSH3 0x22F2 JUMP JUMPDEST SWAP8 POP PUSH3 0x2363 DUP4 PUSH3 0x230B JUMP JUMPDEST SWAP3 POP POP PUSH1 0x1 DUP2 ADD SWAP1 POP PUSH3 0x233F JUMP JUMPDEST POP DUP6 SWAP4 POP POP POP POP SWAP3 SWAP2 POP POP JUMP JUMPDEST PUSH0 PUSH1 0xA0 DUP3 ADD SWAP1 POP PUSH3 0x2394 PUSH0 DUP4 ADD DUP9 PUSH3 0x1EEE JUMP JUMPDEST PUSH3 0x23A3 PUSH1 0x20 DUP4 ADD DUP8 PUSH3 0x22A7 JUMP JUMPDEST DUP2 DUP2 SUB PUSH1 0x40 DUP4 ADD MSTORE PUSH3 0x23B7 DUP2 DUP7 PUSH3 0x2317 JUMP JUMPDEST SWAP1 POP PUSH3 0x23C8 PUSH1 0x60 DUP4 ADD DUP6 PUSH3 0x1C02 JUMP JUMPDEST PUSH3 0x23D7 PUSH1 0x80 DUP4 ADD DUP5 PUSH3 0x1EEE JUMP JUMPDEST SWAP7 SWAP6 POP POP POP POP POP POP JUMP JUMPDEST PUSH32 0x5377617020746F20455448206661696C65642C206E6F20455448207265636569 PUSH0 DUP3 ADD MSTORE PUSH32 0x7665640000000000000000000000000000000000000000000000000000000000 PUSH1 0x20 DUP3 ADD MSTORE POP JUMP JUMPDEST PUSH0 PUSH3 0x243D PUSH1 0x23 DUP4 PUSH3 0x1F5A JUMP JUMPDEST SWAP2 POP PUSH3 0x244A DUP3 PUSH3 0x23E1 JUMP JUMPDEST PUSH1 0x40 DUP3 ADD SWAP1 POP SWAP2 SWAP1 POP JUMP JUMPDEST PUSH0 PUSH1 0x20 DUP3 ADD SWAP1 POP DUP2 DUP2 SUB PUSH0 DUP4 ADD MSTORE PUSH3 0x246E DUP2 PUSH3 0x242F JUMP JUMPDEST SWAP1 POP SWAP2 SWAP1 POP JUMP JUMPDEST PUSH32 0x4E6F7420656E6F7567682045544820666F72206C697175696469747900000000 PUSH0 DUP3 ADD MSTORE POP JUMP JUMPDEST PUSH0 PUSH3 0x24AB PUSH1 0x1C DUP4 PUSH3 0x1F5A JUMP JUMPDEST SWAP2 POP PUSH3 0x24B8 DUP3 PUSH3 0x2475 JUMP JUMPDEST PUSH1 0x20 DUP3 ADD SWAP1 POP SWAP2 SWAP1 POP JUMP JUMPDEST PUSH0 PUSH1 0x20 DUP3 ADD SWAP1 POP DUP2 DUP2 SUB PUSH0 DUP4 ADD MSTORE PUSH3 0x24DC DUP2 PUSH3 0x249D JUMP JUMPDEST SWAP1 POP SWAP2 SWAP1 POP JUMP JUMPDEST PUSH32 0x4C6971756964697479206164646974696F6E2072657175657374206578636565 PUSH0 DUP3 ADD MSTORE PUSH32 0x647320616C6C6F77616E63650000000000000000000000000000000000000000 PUSH1 0x20 DUP3 ADD MSTORE POP JUMP JUMPDEST PUSH0 PUSH3 0x253F PUSH1 0x2C DUP4 PUSH3 0x1F5A JUMP JUMPDEST SWAP2 POP PUSH3 0x254C DUP3 PUSH3 0x24E3 JUMP JUMPDEST PUSH1 0x40 DUP3 ADD SWAP1 POP SWAP2 SWAP1 POP JUMP JUMPDEST PUSH0 PUSH1 0x20 DUP3 ADD SWAP1 POP DUP2 DUP2 SUB PUSH0 DUP4 ADD MSTORE PUSH3 0x2570 DUP2 PUSH3 0x2531 JUMP JUMPDEST SWAP1 POP SWAP2 SWAP1 POP JUMP JUMPDEST PUSH0 PUSH1 0xC0 DUP3 ADD SWAP1 POP PUSH3 0x258C PUSH0 DUP4 ADD DUP10 PUSH3 0x1C02 JUMP JUMPDEST PUSH3 0x259B PUSH1 0x20 DUP4 ADD DUP9 PUSH3 0x1EEE JUMP JUMPDEST PUSH3 0x25AA PUSH1 0x40 DUP4 ADD DUP8 PUSH3 0x22A7 JUMP JUMPDEST PUSH3 0x25B9 PUSH1 0x60 DUP4 ADD DUP7 PUSH3 0x22A7 JUMP JUMPDEST PUSH3 0x25C8 PUSH1 0x80 DUP4 ADD DUP6 PUSH3 0x1C02 JUMP JUMPDEST PUSH3 0x25D7 PUSH1 0xA0 DUP4 ADD DUP5 PUSH3 0x1EEE JUMP JUMPDEST SWAP8 SWAP7 POP POP POP POP POP POP POP JUMP JUMPDEST PUSH3 0x25ED DUP2 PUSH3 0x19D4 JUMP JUMPDEST DUP2 EQ PUSH3 0x25F8 JUMPI PUSH0 DUP1 REVERT JUMPDEST POP JUMP JUMPDEST PUSH0 DUP2 MLOAD SWAP1 POP PUSH3 0x260B DUP2 PUSH3 0x25E2 JUMP JUMPDEST SWAP3 SWAP2 POP POP JUMP JUMPDEST PUSH0 DUP1 PUSH0 PUSH1 0x60 DUP5 DUP7 SUB SLT ISZERO PUSH3 0x262B JUMPI PUSH3 0x262A PUSH3 0x1825 JUMP JUMPDEST JUMPDEST PUSH0 PUSH3 0x263A DUP7 DUP3 DUP8 ADD PUSH3 0x25FB JUMP JUMPDEST SWAP4 POP POP PUSH1 0x20 PUSH3 0x264D DUP7 DUP3 DUP8 ADD PUSH3 0x25FB JUMP JUMPDEST SWAP3 POP POP PUSH1 0x40 PUSH3 0x2660 DUP7 DUP3 DUP8 ADD PUSH3 0x25FB JUMP JUMPDEST SWAP2 POP POP SWAP3 POP SWAP3 POP SWAP3 JUMP JUMPDEST PUSH1 0x80 MLOAD PUSH1 0xA0 MLOAD PUSH1 0xC0 MLOAD PUSH1 0xE0 MLOAD PUSH2 0x100 MLOAD PUSH2 0x120 MLOAD PUSH2 0x140 MLOAD PUSH2 0x3391 PUSH3 0x26BC PUSH0 CODECOPY PUSH0 PUSH2 0x18A9 ADD MSTORE PUSH0 PUSH2 0x186E ADD MSTORE PUSH0 PUSH2 0x1F39 ADD MSTORE PUSH0 PUSH2 0x1F18 ADD MSTORE PUSH0 PUSH2 0x1622 ADD MSTORE PUSH0 PUSH2 0x1678 ADD MSTORE PUSH0 PUSH2 0x16A1 ADD MSTORE PUSH2 0x3391 PUSH0 RETURN INVALID PUSH1 0x80 PUSH1 0x40 MSTORE PUSH1 0x4 CALLDATASIZE LT PUSH2 0x1DB JUMPI PUSH0 CALLDATALOAD PUSH1 0xE0 SHR DUP1 PUSH4 0x70A08231 GT PUSH2 0x101 JUMPI DUP1 PUSH4 0x95D89B41 GT PUSH2 0x94 JUMPI DUP1 PUSH4 0xD505ACCF GT PUSH2 0x63 JUMPI DUP1 PUSH4 0xD505ACCF EQ PUSH2 0x6BC JUMPI DUP1 PUSH4 0xDD62ED3E EQ PUSH2 0x6E4 JUMPI DUP1 PUSH4 0xECFCA899 EQ PUSH2 0x720 JUMPI DUP1 PUSH4 0xF2FDE38B EQ PUSH2 0x74A JUMPI PUSH2 0x1E2 JUMP JUMPDEST DUP1 PUSH4 0x95D89B41 EQ PUSH2 0x602 JUMPI DUP1 PUSH4 0x98118CB4 EQ PUSH2 0x62C JUMPI DUP1 PUSH4 0xA9059CBB EQ PUSH2 0x656 JUMPI DUP1 PUSH4 0xAFCF2FC4 EQ PUSH2 0x692 JUMPI PUSH2 0x1E2 JUMP JUMPDEST DUP1 PUSH4 0x83AFAAC0 GT PUSH2 0xD0 JUMPI DUP1 PUSH4 0x83AFAAC0 EQ PUSH2 0x554 JUMPI DUP1 PUSH4 0x84B0196E EQ PUSH2 0x57E JUMPI DUP1 PUSH4 0x8DA5CB5B EQ PUSH2 0x5AE JUMPI DUP1 PUSH4 0x8FFFABED EQ PUSH2 0x5D8 JUMPI PUSH2 0x1E2 JUMP JUMPDEST DUP1 PUSH4 0x70A08231 EQ PUSH2 0x49E JUMPI DUP1 PUSH4 0x715018A6 EQ PUSH2 0x4DA JUMPI DUP1 PUSH4 0x7E060BF6 EQ PUSH2 0x4F0 JUMPI DUP1 PUSH4 0x7ECEBE00 EQ PUSH2 0x518 JUMPI PUSH2 0x1E2 JUMP JUMPDEST DUP1 PUSH4 0x313CE567 GT PUSH2 0x179 JUMPI DUP1 PUSH4 0x56A227F2 GT PUSH2 0x148 JUMPI DUP1 PUSH4 0x56A227F2 EQ PUSH2 0x3E6 JUMPI DUP1 PUSH4 0x571AC8B0 EQ PUSH2 0x40E JUMPI DUP1 PUSH4 0x6DDD1713 EQ PUSH2 0x44A JUMPI DUP1 PUSH4 0x6E03832A EQ PUSH2 0x474 JUMPI PUSH2 0x1E2 JUMP JUMPDEST DUP1 PUSH4 0x313CE567 EQ PUSH2 0x340 JUMPI DUP1 PUSH4 0x3644E515 EQ PUSH2 0x36A JUMPI DUP1 PUSH4 0x492A937B EQ PUSH2 0x394 JUMPI DUP1 PUSH4 0x4A377E1D EQ PUSH2 0x3BC JUMPI PUSH2 0x1E2 JUMP JUMPDEST DUP1 PUSH4 0xB0FD47E GT PUSH2 0x1B5 JUMPI DUP1 PUSH4 0xB0FD47E EQ PUSH2 0x274 JUMPI DUP1 PUSH4 0x1694505E EQ PUSH2 0x2B0 JUMPI DUP1 PUSH4 0x18160DDD EQ PUSH2 0x2DA JUMPI DUP1 PUSH4 0x23B872DD EQ PUSH2 0x304 JUMPI PUSH2 0x1E2 JUMP JUMPDEST DUP1 PUSH4 0x298A5F7 EQ PUSH2 0x1E6 JUMPI DUP1 PUSH4 0x6FDDE03 EQ PUSH2 0x20E JUMPI DUP1 PUSH4 0x95EA7B3 EQ PUSH2 0x238 JUMPI PUSH2 0x1E2 JUMP JUMPDEST CALLDATASIZE PUSH2 0x1E2 JUMPI STOP JUMPDEST PUSH0 DUP1 REVERT JUMPDEST CALLVALUE DUP1 ISZERO PUSH2 0x1F1 JUMPI PUSH0 DUP1 REVERT JUMPDEST POP PUSH2 0x20C PUSH1 0x4 DUP1 CALLDATASIZE SUB DUP2 ADD SWAP1 PUSH2 0x207 SWAP2 SWAP1 PUSH2 0x2410 JUMP JUMPDEST PUSH2 0x772 JUMP JUMPDEST STOP JUMPDEST CALLVALUE DUP1 ISZERO PUSH2 0x219 JUMPI PUSH0 DUP1 REVERT JUMPDEST POP PUSH2 0x222 PUSH2 0x98E JUMP JUMPDEST PUSH1 0x40 MLOAD PUSH2 0x22F SWAP2 SWAP1 PUSH2 0x24EA JUMP JUMPDEST PUSH1 0x40 MLOAD DUP1 SWAP2 SUB SWAP1 RETURN JUMPDEST CALLVALUE DUP1 ISZERO PUSH2 0x243 JUMPI PUSH0 DUP1 REVERT JUMPDEST POP PUSH2 0x25E PUSH1 0x4 DUP1 CALLDATASIZE SUB DUP2 ADD SWAP1 PUSH2 0x259 SWAP2 SWAP1 PUSH2 0x250A JUMP JUMPDEST PUSH2 0xA1E JUMP JUMPDEST PUSH1 0x40 MLOAD PUSH2 0x26B SWAP2 SWAP1 PUSH2 0x2562 JUMP JUMPDEST PUSH1 0x40 MLOAD DUP1 SWAP2 SUB SWAP1 RETURN JUMPDEST CALLVALUE DUP1 ISZERO PUSH2 0x27F JUMPI PUSH0 DUP1 REVERT JUMPDEST POP PUSH2 0x29A PUSH1 0x4 DUP1 CALLDATASIZE SUB DUP2 ADD SWAP1 PUSH2 0x295 SWAP2 SWAP1 PUSH2 0x257B JUMP JUMPDEST PUSH2 0xA40 JUMP JUMPDEST PUSH1 0x40 MLOAD PUSH2 0x2A7 SWAP2 SWAP1 PUSH2 0x2562 JUMP JUMPDEST PUSH1 0x40 MLOAD DUP1 SWAP2 SUB SWAP1 RETURN JUMPDEST CALLVALUE DUP1 ISZERO PUSH2 0x2BB JUMPI PUSH0 DUP1 REVERT JUMPDEST POP PUSH2 0x2C4 PUSH2 0xA5D JUMP JUMPDEST PUSH1 0x40 MLOAD PUSH2 0x2D1 SWAP2 SWAP1 PUSH2 0x2601 JUMP JUMPDEST PUSH1 0x40 MLOAD DUP1 SWAP2 SUB SWAP1 RETURN JUMPDEST CALLVALUE DUP1 ISZERO PUSH2 0x2E5 JUMPI PUSH0 DUP1 REVERT JUMPDEST POP PUSH2 0x2EE PUSH2 0xA82 JUMP JUMPDEST PUSH1 0x40 MLOAD PUSH2 0x2FB SWAP2 SWAP1 PUSH2 0x2629 JUMP JUMPDEST PUSH1 0x40 MLOAD DUP1 SWAP2 SUB SWAP1 RETURN JUMPDEST CALLVALUE DUP1 ISZERO PUSH2 0x30F JUMPI PUSH0 DUP1 REVERT JUMPDEST POP PUSH2 0x32A PUSH1 0x4 DUP1 CALLDATASIZE SUB DUP2 ADD SWAP1 PUSH2 0x325 SWAP2 SWAP1 PUSH2 0x2410 JUMP JUMPDEST PUSH2 0xA8B JUMP JUMPDEST PUSH1 0x40 MLOAD PUSH2 0x337 SWAP2 SWAP1 PUSH2 0x2562 JUMP JUMPDEST PUSH1 0x40 MLOAD DUP1 SWAP2 SUB SWAP1 RETURN JUMPDEST CALLVALUE DUP1 ISZERO PUSH2 0x34B JUMPI PUSH0 DUP1 REVERT JUMPDEST POP PUSH2 0x354 PUSH2 0xAA2 JUMP JUMPDEST PUSH1 0x40 MLOAD PUSH2 0x361 SWAP2 SWAP1 PUSH2 0x265D JUMP JUMPDEST PUSH1 0x40 MLOAD DUP1 SWAP2 SUB SWAP1 RETURN JUMPDEST CALLVALUE DUP1 ISZERO PUSH2 0x375 JUMPI PUSH0 DUP1 REVERT JUMPDEST POP PUSH2 0x37E PUSH2 0xAAA JUMP JUMPDEST PUSH1 0x40 MLOAD PUSH2 0x38B SWAP2 SWAP1 PUSH2 0x268E JUMP JUMPDEST PUSH1 0x40 MLOAD DUP1 SWAP2 SUB SWAP1 RETURN JUMPDEST CALLVALUE DUP1 ISZERO PUSH2 0x39F JUMPI PUSH0 DUP1 REVERT JUMPDEST POP PUSH2 0x3BA PUSH1 0x4 DUP1 CALLDATASIZE SUB DUP2 ADD SWAP1 PUSH2 0x3B5 SWAP2 SWAP1 PUSH2 0x26D1 JUMP JUMPDEST PUSH2 0xAB8 JUMP JUMPDEST STOP JUMPDEST CALLVALUE DUP1 ISZERO PUSH2 0x3C7 JUMPI PUSH0 DUP1 REVERT JUMPDEST POP PUSH2 0x3D0 PUSH2 0xB18 JUMP JUMPDEST PUSH1 0x40 MLOAD PUSH2 0x3DD SWAP2 SWAP1 PUSH2 0x271E JUMP JUMPDEST PUSH1 0x40 MLOAD DUP1 SWAP2 SUB SWAP1 RETURN JUMPDEST CALLVALUE DUP1 ISZERO PUSH2 0x3F1 JUMPI PUSH0 DUP1 REVERT JUMPDEST POP PUSH2 0x40C PUSH1 0x4 DUP1 CALLDATASIZE SUB DUP2 ADD SWAP1 PUSH2 0x407 SWAP2 SWAP1 PUSH2 0x2737 JUMP JUMPDEST PUSH2 0xB3D JUMP JUMPDEST STOP JUMPDEST CALLVALUE DUP1 ISZERO PUSH2 0x419 JUMPI PUSH0 DUP1 REVERT JUMPDEST POP PUSH2 0x434 PUSH1 0x4 DUP1 CALLDATASIZE SUB DUP2 ADD SWAP1 PUSH2 0x42F SWAP2 SWAP1 PUSH2 0x257B JUMP JUMPDEST PUSH2 0xC17 JUMP JUMPDEST PUSH1 0x40 MLOAD PUSH2 0x441 SWAP2 SWAP1 PUSH2 0x2562 JUMP JUMPDEST PUSH1 0x40 MLOAD DUP1 SWAP2 SUB SWAP1 RETURN JUMPDEST CALLVALUE DUP1 ISZERO PUSH2 0x455 JUMPI PUSH0 DUP1 REVERT JUMPDEST POP PUSH2 0x45E PUSH2 0xC49 JUMP JUMPDEST PUSH1 0x40 MLOAD PUSH2 0x46B SWAP2 SWAP1 PUSH2 0x2562 JUMP JUMPDEST PUSH1 0x40 MLOAD DUP1 SWAP2 SUB SWAP1 RETURN JUMPDEST CALLVALUE DUP1 ISZERO PUSH2 0x47F JUMPI PUSH0 DUP1 REVERT JUMPDEST POP PUSH2 0x488 PUSH2 0xC5C JUMP JUMPDEST PUSH1 0x40 MLOAD PUSH2 0x495 SWAP2 SWAP1 PUSH2 0x2795 JUMP JUMPDEST PUSH1 0x40 MLOAD DUP1 SWAP2 SUB SWAP1 RETURN JUMPDEST CALLVALUE DUP1 ISZERO PUSH2 0x4A9 JUMPI PUSH0 DUP1 REVERT JUMPDEST POP PUSH2 0x4C4 PUSH1 0x4 DUP1 CALLDATASIZE SUB DUP2 ADD SWAP1 PUSH2 0x4BF SWAP2 SWAP1 PUSH2 0x257B JUMP JUMPDEST PUSH2 0xC81 JUMP JUMPDEST PUSH1 0x40 MLOAD PUSH2 0x4D1 SWAP2 SWAP1 PUSH2 0x2629 JUMP JUMPDEST PUSH1 0x40 MLOAD DUP1 SWAP2 SUB SWAP1 RETURN JUMPDEST CALLVALUE DUP1 ISZERO PUSH2 0x4E5 JUMPI PUSH0 DUP1 REVERT JUMPDEST POP PUSH2 0x4EE PUSH2 0xCC6 JUMP JUMPDEST STOP JUMPDEST CALLVALUE DUP1 ISZERO PUSH2 0x4FB JUMPI PUSH0 DUP1 REVERT JUMPDEST POP PUSH2 0x516 PUSH1 0x4 DUP1 CALLDATASIZE SUB DUP2 ADD SWAP1 PUSH2 0x511 SWAP2 SWAP1 PUSH2 0x27AE JUMP JUMPDEST PUSH2 0xCD9 JUMP JUMPDEST STOP JUMPDEST CALLVALUE DUP1 ISZERO PUSH2 0x523 JUMPI PUSH0 DUP1 REVERT JUMPDEST POP PUSH2 0x53E PUSH1 0x4 DUP1 CALLDATASIZE SUB DUP2 ADD SWAP1 PUSH2 0x539 SWAP2 SWAP1 PUSH2 0x257B JUMP JUMPDEST PUSH2 0xCFE JUMP JUMPDEST PUSH1 0x40 MLOAD PUSH2 0x54B SWAP2 SWAP1 PUSH2 0x2629 JUMP JUMPDEST PUSH1 0x40 MLOAD DUP1 SWAP2 SUB SWAP1 RETURN JUMPDEST CALLVALUE DUP1 ISZERO PUSH2 0x55F JUMPI PUSH0 DUP1 REVERT JUMPDEST POP PUSH2 0x568 PUSH2 0xD0F JUMP JUMPDEST PUSH1 0x40 MLOAD PUSH2 0x575 SWAP2 SWAP1 PUSH2 0x27F5 JUMP JUMPDEST PUSH1 0x40 MLOAD DUP1 SWAP2 SUB SWAP1 RETURN JUMPDEST CALLVALUE DUP1 ISZERO PUSH2 0x589 JUMPI PUSH0 DUP1 REVERT JUMPDEST POP PUSH2 0x592 PUSH2 0xD23 JUMP JUMPDEST PUSH1 0x40 MLOAD PUSH2 0x5A5 SWAP8 SWAP7 SWAP6 SWAP5 SWAP4 SWAP3 SWAP2 SWAP1 PUSH2 0x28FF JUMP JUMPDEST PUSH1 0x40 MLOAD DUP1 SWAP2 SUB SWAP1 RETURN JUMPDEST CALLVALUE DUP1 ISZERO PUSH2 0x5B9 JUMPI PUSH0 DUP1 REVERT JUMPDEST POP PUSH2 0x5C2 PUSH2 0xDC8 JUMP JUMPDEST PUSH1 0x40 MLOAD PUSH2 0x5CF SWAP2 SWAP1 PUSH2 0x271E JUMP JUMPDEST PUSH1 0x40 MLOAD DUP1 SWAP2 SUB SWAP1 RETURN JUMPDEST CALLVALUE DUP1 ISZERO PUSH2 0x5E3 JUMPI PUSH0 DUP1 REVERT JUMPDEST POP PUSH2 0x5EC PUSH2 0xDF0 JUMP JUMPDEST PUSH1 0x40 MLOAD PUSH2 0x5F9 SWAP2 SWAP1 PUSH2 0x271E JUMP JUMPDEST PUSH1 0x40 MLOAD DUP1 SWAP2 SUB SWAP1 RETURN JUMPDEST CALLVALUE DUP1 ISZERO PUSH2 0x60D JUMPI PUSH0 DUP1 REVERT JUMPDEST POP PUSH2 0x616 PUSH2 0xE15 JUMP JUMPDEST PUSH1 0x40 MLOAD PUSH2 0x623 SWAP2 SWAP1 PUSH2 0x24EA JUMP JUMPDEST PUSH1 0x40 MLOAD DUP1 SWAP2 SUB SWAP1 RETURN JUMPDEST CALLVALUE DUP1 ISZERO PUSH2 0x637 JUMPI PUSH0 DUP1 REVERT JUMPDEST POP PUSH2 0x640 PUSH2 0xEA5 JUMP JUMPDEST PUSH1 0x40 MLOAD PUSH2 0x64D SWAP2 SWAP1 PUSH2 0x27F5 JUMP JUMPDEST PUSH1 0x40 MLOAD DUP1 SWAP2 SUB SWAP1 RETURN JUMPDEST CALLVALUE DUP1 ISZERO PUSH2 0x661 JUMPI PUSH0 DUP1 REVERT JUMPDEST POP PUSH2 0x67C PUSH1 0x4 DUP1 CALLDATASIZE SUB DUP2 ADD SWAP1 PUSH2 0x677 SWAP2 SWAP1 PUSH2 0x250A JUMP JUMPDEST PUSH2 0xEB9 JUMP JUMPDEST PUSH1 0x40 MLOAD PUSH2 0x689 SWAP2 SWAP1 PUSH2 0x2562 JUMP JUMPDEST PUSH1 0x40 MLOAD DUP1 SWAP2 SUB SWAP1 RETURN JUMPDEST CALLVALUE DUP1 ISZERO PUSH2 0x69D JUMPI PUSH0 DUP1 REVERT JUMPDEST POP PUSH2 0x6A6 PUSH2 0xEDB JUMP JUMPDEST PUSH1 0x40 MLOAD PUSH2 0x6B3 SWAP2 SWAP1 PUSH2 0x2795 JUMP JUMPDEST PUSH1 0x40 MLOAD DUP1 SWAP2 SUB SWAP1 RETURN JUMPDEST CALLVALUE DUP1 ISZERO PUSH2 0x6C7 JUMPI PUSH0 DUP1 REVERT JUMPDEST POP PUSH2 0x6E2 PUSH1 0x4 DUP1 CALLDATASIZE SUB DUP2 ADD SWAP1 PUSH2 0x6DD SWAP2 SWAP1 PUSH2 0x29D5 JUMP JUMPDEST PUSH2 0xF00 JUMP JUMPDEST STOP JUMPDEST CALLVALUE DUP1 ISZERO PUSH2 0x6EF JUMPI PUSH0 DUP1 REVERT JUMPDEST POP PUSH2 0x70A PUSH1 0x4 DUP1 CALLDATASIZE SUB DUP2 ADD SWAP1 PUSH2 0x705 SWAP2 SWAP1 PUSH2 0x2A72 JUMP JUMPDEST PUSH2 0x1045 JUMP JUMPDEST PUSH1 0x40 MLOAD PUSH2 0x717 SWAP2 SWAP1 PUSH2 0x2629 JUMP JUMPDEST PUSH1 0x40 MLOAD DUP1 SWAP2 SUB SWAP1 RETURN JUMPDEST CALLVALUE DUP1 ISZERO PUSH2 0x72B JUMPI PUSH0 DUP1 REVERT JUMPDEST POP PUSH2 0x734 PUSH2 0x10C7 JUMP JUMPDEST PUSH1 0x40 MLOAD PUSH2 0x741 SWAP2 SWAP1 PUSH2 0x27F5 JUMP JUMPDEST PUSH1 0x40 MLOAD DUP1 SWAP2 SUB SWAP1 RETURN JUMPDEST CALLVALUE DUP1 ISZERO PUSH2 0x755 JUMPI PUSH0 DUP1 REVERT JUMPDEST POP PUSH2 0x770 PUSH1 0x4 DUP1 CALLDATASIZE SUB DUP2 ADD SWAP1 PUSH2 0x76B SWAP2 SWAP1 PUSH2 0x257B JUMP JUMPDEST PUSH2 0x10DB JUMP JUMPDEST STOP JUMPDEST PUSH1 0xE PUSH1 0x1A SWAP1 SLOAD SWAP1 PUSH2 0x100 EXP SWAP1 DIV PUSH1 0xFF AND DUP1 ISZERO PUSH2 0x825 JUMPI POP PUSH1 0x9 PUSH0 DUP5 PUSH20 0xFFFFFFFFFFFFFFFFFFFFFFFFFFFFFFFFFFFFFFFF AND PUSH20 0xFFFFFFFFFFFFFFFFFFFFFFFFFFFFFFFFFFFFFFFF AND DUP2 MSTORE PUSH1 0x20 ADD SWAP1 DUP2 MSTORE PUSH1 0x20 ADD PUSH0 KECCAK256 PUSH0 SWAP1 SLOAD SWAP1 PUSH2 0x100 EXP SWAP1 DIV PUSH1 0xFF AND DUP1 PUSH2 0x824 JUMPI POP PUSH1 0x9 PUSH0 DUP4 PUSH20 0xFFFFFFFFFFFFFFFFFFFFFFFFFFFFFFFFFFFFFFFF AND PUSH20 0xFFFFFFFFFFFFFFFFFFFFFFFFFFFFFFFFFFFFFFFF AND DUP2 MSTORE PUSH1 0x20 ADD SWAP1 DUP2 MSTORE PUSH1 0x20 ADD PUSH0 KECCAK256 PUSH0 SWAP1 SLOAD SWAP1 PUSH2 0x100 EXP SWAP1 DIV PUSH1 0xFF AND JUMPDEST JUMPDEST ISZERO PUSH2 0x97D JUMPI PUSH0 PUSH2 0x3E8 PUSH1 0xE PUSH1 0x16 SWAP1 SLOAD SWAP1 PUSH2 0x100 EXP SWAP1 DIV PUSH2 0xFFFF AND PUSH2 0xFFFF AND DUP4 PUSH2 0x84E SWAP2 SWAP1 PUSH2 0x2ADD JUMP JUMPDEST PUSH2 0x858 SWAP2 SWAP1 PUSH2 0x2B4B JUMP JUMPDEST SWAP1 POP PUSH0 PUSH2 0x3E8 PUSH1 0xE PUSH1 0x14 SWAP1 SLOAD SWAP1 PUSH2 0x100 EXP SWAP1 DIV PUSH2 0xFFFF AND PUSH2 0xFFFF AND DUP5 PUSH2 0x87E SWAP2 SWAP1 PUSH2 0x2ADD JUMP JUMPDEST PUSH2 0x888 SWAP2 SWAP1 PUSH2 0x2B4B JUMP JUMPDEST SWAP1 POP PUSH0 PUSH2 0x3E8 PUSH1 0xE PUSH1 0x18 SWAP1 SLOAD SWAP1 PUSH2 0x100 EXP SWAP1 DIV PUSH2 0xFFFF AND PUSH2 0xFFFF AND DUP6 PUSH2 0x8AE SWAP2 SWAP1 PUSH2 0x2ADD JUMP JUMPDEST PUSH2 0x8B8 SWAP2 SWAP1 PUSH2 0x2B4B JUMP JUMPDEST SWAP1 POP PUSH0 DUP2 DUP4 DUP6 PUSH2 0x8C8 SWAP2 SWAP1 PUSH2 0x2B7B JUMP JUMPDEST PUSH2 0x8D2 SWAP2 SWAP1 PUSH2 0x2B7B JUMP JUMPDEST SWAP1 POP PUSH0 DUP2 DUP7 PUSH2 0x8E1 SWAP2 SWAP1 PUSH2 0x2BAE JUMP JUMPDEST SWAP1 POP PUSH2 0x8EE DUP9 ADDRESS DUP5 PUSH2 0x115F JUMP JUMPDEST PUSH2 0x8F9 DUP9 DUP9 DUP4 PUSH2 0x115F JUMP JUMPDEST PUSH0 PUSH2 0x903 DUP7 PUSH2 0x124F JUMP JUMPDEST SWAP1 POP PUSH0 PUSH2 0x90F DUP6 PUSH2 0x124F JUMP JUMPDEST SWAP1 POP PUSH2 0x93C PUSH1 0xA PUSH0 SWAP1 SLOAD SWAP1 PUSH2 0x100 EXP SWAP1 DIV PUSH20 0xFFFFFFFFFFFFFFFFFFFFFFFFFFFFFFFFFFFFFFFF AND DUP4 PUSH2 0x1560 JUMP JUMPDEST PUSH2 0x967 PUSH1 0xB PUSH0 SWAP1 SLOAD SWAP1 PUSH2 0x100 EXP SWAP1 DIV PUSH20 0xFFFFFFFFFFFFFFFFFFFFFFFFFFFFFFFFFFFFFFFF AND DUP3 PUSH2 0x1560 JUMP JUMPDEST PUSH2 0x971 DUP11 DUP8 PUSH2 0x15A8 JUMP JUMPDEST POP POP POP POP POP POP POP PUSH2 0x989 JUMP JUMPDEST PUSH2 0x988 DUP4 DUP4 DUP4 PUSH2 0x115F JUMP JUMPDEST JUMPDEST POP POP POP JUMP JUMPDEST PUSH1 0x60 PUSH1 0x3 DUP1 SLOAD PUSH2 0x99D SWAP1 PUSH2 0x2C0E JUMP JUMPDEST DUP1 PUSH1 0x1F ADD PUSH1 0x20 DUP1 SWAP2 DIV MUL PUSH1 0x20 ADD PUSH1 0x40 MLOAD SWAP1 DUP2 ADD PUSH1 0x40 MSTORE DUP1 SWAP3 SWAP2 SWAP1 DUP2 DUP2 MSTORE PUSH1 0x20 ADD DUP3 DUP1 SLOAD PUSH2 0x9C9 SWAP1 PUSH2 0x2C0E JUMP JUMPDEST DUP1 ISZERO PUSH2 0xA14 JUMPI DUP1 PUSH1 0x1F LT PUSH2 0x9EB JUMPI PUSH2 0x100 DUP1 DUP4 SLOAD DIV MUL DUP4 MSTORE SWAP2 PUSH1 0x20 ADD SWAP2 PUSH2 0xA14 JUMP JUMPDEST DUP3 ADD SWAP2 SWAP1 PUSH0 MSTORE PUSH1 0x20 PUSH0 KECCAK256 SWAP1 JUMPDEST DUP2 SLOAD DUP2 MSTORE SWAP1 PUSH1 0x1 ADD SWAP1 PUSH1 0x20 ADD DUP1 DUP4 GT PUSH2 0x9F7 JUMPI DUP3 SWAP1 SUB PUSH1 0x1F AND DUP3 ADD SWAP2 JUMPDEST POP POP POP POP POP SWAP1 POP SWAP1 JUMP JUMPDEST PUSH0 DUP1 PUSH2 0xA28 PUSH2 0x1606 JUMP JUMPDEST SWAP1 POP PUSH2 0xA35 DUP2 DUP6 DUP6 PUSH2 0x160D JUMP JUMPDEST PUSH1 0x1 SWAP2 POP POP SWAP3 SWAP2 POP POP JUMP JUMPDEST PUSH1 0x9 PUSH1 0x20 MSTORE DUP1 PUSH0 MSTORE PUSH1 0x40 PUSH0 KECCAK256 PUSH0 SWAP2 POP SLOAD SWAP1 PUSH2 0x100 EXP SWAP1 DIV PUSH1 0xFF AND DUP2 JUMP JUMPDEST PUSH1 0xD PUSH0 SWAP1 SLOAD SWAP1 PUSH2 0x100 EXP SWAP1 DIV PUSH20 0xFFFFFFFFFFFFFFFFFFFFFFFFFFFFFFFFFFFFFFFF AND DUP2 JUMP JUMPDEST PUSH0 PUSH1 0x2 SLOAD SWAP1 POP SWAP1 JUMP JUMPDEST PUSH0 PUSH2 0xA97 DUP5 DUP5 DUP5 PUSH2 0x772 JUMP JUMPDEST PUSH1 0x1 SWAP1 POP SWAP4 SWAP3 POP POP POP JUMP JUMPDEST PUSH0 PUSH1 0x12 SWAP1 POP SWAP1 JUMP JUMPDEST PUSH0 PUSH2 0xAB3 PUSH2 0x161F JUMP JUMPDEST SWAP1 POP SWAP1 JUMP JUMPDEST PUSH2 0xAC0 PUSH2 0x16D5 JUMP JUMPDEST DUP1 PUSH1 0x9 PUSH0 DUP5 PUSH20 0xFFFFFFFFFFFFFFFFFFFFFFFFFFFFFFFFFFFFFFFF AND PUSH20 0xFFFFFFFFFFFFFFFFFFFFFFFFFFFFFFFFFFFFFFFF AND DUP2 MSTORE PUSH1 0x20 ADD SWAP1 DUP2 MSTORE PUSH1 0x20 ADD PUSH0 KECCAK256 PUSH0 PUSH2 0x100 EXP DUP2 SLOAD DUP2 PUSH1 0xFF MUL NOT AND SWAP1 DUP4 ISZERO ISZERO MUL OR SWAP1 SSTORE POP POP POP JUMP JUMPDEST PUSH1 0xC PUSH0 SWAP1 SLOAD SWAP1 PUSH2 0x100 EXP SWAP1 DIV PUSH20 0xFFFFFFFFFFFFFFFFFFFFFFFFFFFFFFFFFFFFFFFF AND DUP2 JUMP JUMPDEST PUSH2 0xB45 PUSH2 0x16D5 JUMP JUMPDEST PUSH0 SELFBALANCE SWAP1 POP PUSH0 DUP2 GT ISZERO PUSH2 0xC12 JUMPI PUSH0 DUP3 PUSH20 0xFFFFFFFFFFFFFFFFFFFFFFFFFFFFFFFFFFFFFFFF AND PUSH1 0x64 DUP6 DUP5 PUSH2 0xB77 SWAP2 SWAP1 PUSH2 0x2ADD JUMP JUMPDEST PUSH2 0xB81 SWAP2 SWAP1 PUSH2 0x2B4B JUMP JUMPDEST PUSH1 0x40 MLOAD PUSH2 0xB8D SWAP1 PUSH2 0x2C6B JUMP JUMPDEST PUSH0 PUSH1 0x40 MLOAD DUP1 DUP4 SUB DUP2 DUP6 DUP8 GAS CALL SWAP3 POP POP POP RETURNDATASIZE DUP1 PUSH0 DUP2 EQ PUSH2 0xBC7 JUMPI PUSH1 0x40 MLOAD SWAP2 POP PUSH1 0x1F NOT PUSH1 0x3F RETURNDATASIZE ADD AND DUP3 ADD PUSH1 0x40 MSTORE RETURNDATASIZE DUP3 MSTORE RETURNDATASIZE PUSH0 PUSH1 0x20 DUP5 ADD RETURNDATACOPY PUSH2 0xBCC JUMP JUMPDEST PUSH1 0x60 SWAP2 POP JUMPDEST POP POP SWAP1 POP DUP1 PUSH2 0xC10 JUMPI PUSH1 0x40 MLOAD PUSH32 0x8C379A000000000000000000000000000000000000000000000000000000000 DUP2 MSTORE PUSH1 0x4 ADD PUSH2 0xC07 SWAP1 PUSH2 0x2CC9 JUMP JUMPDEST PUSH1 0x40 MLOAD DUP1 SWAP2 SUB SWAP1 REVERT JUMPDEST POP JUMPDEST POP POP POP JUMP JUMPDEST PUSH0 PUSH2 0xC42 DUP3 PUSH32 0xFFFFFFFFFFFFFFFFFFFFFFFFFFFFFFFFFFFFFFFFFFFFFFFFFFFFFFFFFFFFFFFF PUSH2 0xA1E JUMP JUMPDEST SWAP1 POP SWAP2 SWAP1 POP JUMP JUMPDEST PUSH1 0xE PUSH1 0x1A SWAP1 SLOAD SWAP1 PUSH2 0x100 EXP SWAP1 DIV PUSH1 0xFF AND DUP2 JUMP JUMPDEST PUSH1 0xB PUSH0 SWAP1 SLOAD SWAP1 PUSH2 0x100 EXP SWAP1 DIV PUSH20 0xFFFFFFFFFFFFFFFFFFFFFFFFFFFFFFFFFFFFFFFF AND DUP2 JUMP JUMPDEST PUSH0 DUP1 PUSH0 DUP4 PUSH20 0xFFFFFFFFFFFFFFFFFFFFFFFFFFFFFFFFFFFFFFFF AND PUSH20 0xFFFFFFFFFFFFFFFFFFFFFFFFFFFFFFFFFFFFFFFF AND DUP2 MSTORE PUSH1 0x20 ADD SWAP1 DUP2 MSTORE PUSH1 0x20 ADD PUSH0 KECCAK256 SLOAD SWAP1 POP SWAP2 SWAP1 POP JUMP JUMPDEST PUSH2 0xCCE PUSH2 0x16D5 JUMP JUMPDEST PUSH2 0xCD7 PUSH0 PUSH2 0x175C JUMP JUMPDEST JUMP JUMPDEST PUSH2 0xCE1 PUSH2 0x16D5 JUMP JUMPDEST DUP1 PUSH1 0xE PUSH1 0x1A PUSH2 0x100 EXP DUP2 SLOAD DUP2 PUSH1 0xFF MUL NOT AND SWAP1 DUP4 ISZERO ISZERO MUL OR SWAP1 SSTORE POP POP JUMP JUMPDEST PUSH0 PUSH2 0xD08 DUP3 PUSH2 0x181F JUMP JUMPDEST SWAP1 POP SWAP2 SWAP1 POP JUMP JUMPDEST PUSH1 0xE PUSH1 0x18 SWAP1 SLOAD SWAP1 PUSH2 0x100 EXP SWAP1 DIV PUSH2 0xFFFF AND DUP2 JUMP JUMPDEST PUSH0 PUSH1 0x60 DUP1 PUSH0 DUP1 PUSH0 PUSH1 0x60 PUSH2 0xD34 PUSH2 0x1865 JUMP JUMPDEST PUSH2 0xD3C PUSH2 0x18A0 JUMP JUMPDEST CHAINID ADDRESS PUSH0 DUP1 SHL PUSH0 PUSH8 0xFFFFFFFFFFFFFFFF DUP2 GT ISZERO PUSH2 0xD5B JUMPI PUSH2 0xD5A PUSH2 0x2CE7 JUMP JUMPDEST JUMPDEST PUSH1 0x40 MLOAD SWAP1 DUP1 DUP3 MSTORE DUP1 PUSH1 0x20 MUL PUSH1 0x20 ADD DUP3 ADD PUSH1 0x40 MSTORE DUP1 ISZERO PUSH2 0xD89 JUMPI DUP2 PUSH1 0x20 ADD PUSH1 0x20 DUP3 MUL DUP1 CALLDATASIZE DUP4 CALLDATACOPY DUP1 DUP3 ADD SWAP2 POP POP SWAP1 POP JUMPDEST POP PUSH32 0xF00000000000000000000000000000000000000000000000000000000000000 SWAP6 SWAP5 SWAP4 SWAP3 SWAP2 SWAP1 SWAP7 POP SWAP7 POP SWAP7 POP SWAP7 POP SWAP7 POP SWAP7 POP SWAP7 POP SWAP1 SWAP2 SWAP3 SWAP4 SWAP5 SWAP6 SWAP7 JUMP JUMPDEST PUSH0 PUSH1 0x5 PUSH0 SWAP1 SLOAD SWAP1 PUSH2 0x100 EXP SWAP1 DIV PUSH20 0xFFFFFFFFFFFFFFFFFFFFFFFFFFFFFFFFFFFFFFFF AND SWAP1 POP SWAP1 JUMP JUMPDEST PUSH1 0xE PUSH0 SWAP1 SLOAD SWAP1 PUSH2 0x100 EXP SWAP1 DIV PUSH20 0xFFFFFFFFFFFFFFFFFFFFFFFFFFFFFFFFFFFFFFFF AND DUP2 JUMP JUMPDEST PUSH1 0x60 PUSH1 0x4 DUP1 SLOAD PUSH2 0xE24 SWAP1 PUSH2 0x2C0E JUMP JUMPDEST DUP1 PUSH1 0x1F ADD PUSH1 0x20 DUP1 SWAP2 DIV MUL PUSH1 0x20 ADD PUSH1 0x40 MLOAD SWAP1 DUP2 ADD PUSH1 0x40 MSTORE DUP1 SWAP3 SWAP2 SWAP1 DUP2 DUP2 MSTORE PUSH1 0x20 ADD DUP3 DUP1 SLOAD PUSH2 0xE50 SWAP1 PUSH2 0x2C0E JUMP JUMPDEST DUP1 ISZERO PUSH2 0xE9B JUMPI DUP1 PUSH1 0x1F LT PUSH2 0xE72 JUMPI PUSH2 0x100 DUP1 DUP4 SLOAD DIV MUL DUP4 MSTORE SWAP2 PUSH1 0x20 ADD SWAP2 PUSH2 0xE9B JUMP JUMPDEST DUP3 ADD SWAP2 SWAP1 PUSH0 MSTORE PUSH1 0x20 PUSH0 KECCAK256 SWAP1 JUMPDEST DUP2 SLOAD DUP2 MSTORE SWAP1 PUSH1 0x1 ADD SWAP1 PUSH1 0x20 ADD DUP1 DUP4 GT PUSH2 0xE7E JUMPI DUP3 SWAP1 SUB PUSH1 0x1F AND DUP3 ADD SWAP2 JUMPDEST POP POP POP POP POP SWAP1 POP SWAP1 JUMP JUMPDEST PUSH1 0xE PUSH1 0x14 SWAP1 SLOAD SWAP1 PUSH2 0x100 EXP SWAP1 DIV PUSH2 0xFFFF AND DUP2 JUMP JUMPDEST PUSH0 DUP1 PUSH2 0xEC3 PUSH2 0x1606 JUMP JUMPDEST SWAP1 POP PUSH2 0xED0 DUP2 DUP6 DUP6 PUSH2 0x772 JUMP JUMPDEST PUSH1 0x1 SWAP2 POP POP SWAP3 SWAP2 POP POP JUMP JUMPDEST PUSH1 0xA PUSH0 SWAP1 SLOAD SWAP1 PUSH2 0x100 EXP SWAP1 DIV PUSH20 0xFFFFFFFFFFFFFFFFFFFFFFFFFFFFFFFFFFFFFFFF AND DUP2 JUMP JUMPDEST DUP4 TIMESTAMP GT ISZERO PUSH2 0xF45 JUMPI DUP4 PUSH1 0x40 MLOAD PUSH32 0x6279130200000000000000000000000000000000000000000000000000000000 DUP2 MSTORE PUSH1 0x4 ADD PUSH2 0xF3C SWAP2 SWAP1 PUSH2 0x2629 JUMP JUMPDEST PUSH1 0x40 MLOAD DUP1 SWAP2 SUB SWAP1 REVERT JUMPDEST PUSH0 PUSH32 0x6E71EDAE12B1B97F4D1F60370FEF10105FA2FAAE0126114A169C64845D6126C9 DUP9 DUP9 DUP9 PUSH2 0xF73 DUP13 PUSH2 0x18DB JUMP JUMPDEST DUP10 PUSH1 0x40 MLOAD PUSH1 0x20 ADD PUSH2 0xF89 SWAP7 SWAP6 SWAP5 SWAP4 SWAP3 SWAP2 SWAP1 PUSH2 0x2D14 JUMP JUMPDEST PUSH1 0x40 MLOAD PUSH1 0x20 DUP2 DUP4 SUB SUB DUP2 MSTORE SWAP1 PUSH1 0x40 MSTORE DUP1 MLOAD SWAP1 PUSH1 0x20 ADD KECCAK256 SWAP1 POP PUSH0 PUSH2 0xFAB DUP3 PUSH2 0x192E JUMP JUMPDEST SWAP1 POP PUSH0 PUSH2 0xFBA DUP3 DUP8 DUP8 DUP8 PUSH2 0x1947 JUMP JUMPDEST SWAP1 POP DUP10 PUSH20 0xFFFFFFFFFFFFFFFFFFFFFFFFFFFFFFFFFFFFFFFF AND DUP2 PUSH20 0xFFFFFFFFFFFFFFFFFFFFFFFFFFFFFFFFFFFFFFFF AND EQ PUSH2 0x102E JUMPI DUP1 DUP11 PUSH1 0x40 MLOAD PUSH32 0x4B800E4600000000000000000000000000000000000000000000000000000000 DUP2 MSTORE PUSH1 0x4 ADD PUSH2 0x1025 SWAP3 SWAP2 SWAP1 PUSH2 0x2D73 JUMP JUMPDEST PUSH1 0x40 MLOAD DUP1 SWAP2 SUB SWAP1 REVERT JUMPDEST PUSH2 0x1039 DUP11 DUP11 DUP11 PUSH2 0x160D JUMP JUMPDEST POP POP POP POP POP POP POP POP POP POP JUMP JUMPDEST PUSH0 PUSH1 0x1 PUSH0 DUP5 PUSH20 0xFFFFFFFFFFFFFFFFFFFFFFFFFFFFFFFFFFFFFFFF AND PUSH20 0xFFFFFFFFFFFFFFFFFFFFFFFFFFFFFFFFFFFFFFFF AND DUP2 MSTORE PUSH1 0x20 ADD SWAP1 DUP2 MSTORE PUSH1 0x20 ADD PUSH0 KECCAK256 PUSH0 DUP4 PUSH20 0xFFFFFFFFFFFFFFFFFFFFFFFFFFFFFFFFFFFFFFFF AND PUSH20 0xFFFFFFFFFFFFFFFFFFFFFFFFFFFFFFFFFFFFFFFF AND DUP2 MSTORE PUSH1 0x20 ADD SWAP1 DUP2 MSTORE PUSH1 0x20 ADD PUSH0 KECCAK256 SLOAD SWAP1 POP SWAP3 SWAP2 POP POP JUMP JUMPDEST PUSH1 0xE PUSH1 0x16 SWAP1 SLOAD SWAP1 PUSH2 0x100 EXP SWAP1 DIV PUSH2 0xFFFF AND DUP2 JUMP JUMPDEST PUSH2 0x10E3 PUSH2 0x16D5 JUMP JUMPDEST PUSH0 PUSH20 0xFFFFFFFFFFFFFFFFFFFFFFFFFFFFFFFFFFFFFFFF AND DUP2 PUSH20 0xFFFFFFFFFFFFFFFFFFFFFFFFFFFFFFFFFFFFFFFF AND SUB PUSH2 0x1153 JUMPI PUSH0 PUSH1 0x40 MLOAD PUSH32 0x1E4FBDF700000000000000000000000000000000000000000000000000000000 DUP2 MSTORE PUSH1 0x4 ADD PUSH2 0x114A SWAP2 SWAP1 PUSH2 0x271E JUMP JUMPDEST PUSH1 0x40 MLOAD DUP1 SWAP2 SUB SWAP1 REVERT JUMPDEST PUSH2 0x115C DUP2 PUSH2 0x175C JUMP JUMPDEST POP JUMP JUMPDEST PUSH0 PUSH20 0xFFFFFFFFFFFFFFFFFFFFFFFFFFFFFFFFFFFFFFFF AND DUP4 PUSH20 0xFFFFFFFFFFFFFFFFFFFFFFFFFFFFFFFFFFFFFFFF AND SUB PUSH2 0x11CF JUMPI PUSH0 PUSH1 0x40 MLOAD PUSH32 0x96C6FD1E00000000000000000000000000000000000000000000000000000000 DUP2 MSTORE PUSH1 0x4 ADD PUSH2 0x11C6 SWAP2 SWAP1 PUSH2 0x271E JUMP JUMPDEST PUSH1 0x40 MLOAD DUP1 SWAP2 SUB SWAP1 REVERT JUMPDEST PUSH0 PUSH20 0xFFFFFFFFFFFFFFFFFFFFFFFFFFFFFFFFFFFFFFFF AND DUP3 PUSH20 0xFFFFFFFFFFFFFFFFFFFFFFFFFFFFFFFFFFFFFFFF AND SUB PUSH2 0x123F JUMPI PUSH0 PUSH1 0x40 MLOAD PUSH32 0xEC442F0500000000000000000000000000000000000000000000000000000000 DUP2 MSTORE PUSH1 0x4 ADD PUSH2 0x1236 SWAP2 SWAP1 PUSH2 0x271E JUMP JUMPDEST PUSH1 0x40 MLOAD DUP1 SWAP2 SUB SWAP1 REVERT JUMPDEST PUSH2 0x124A DUP4 DUP4 DUP4 PUSH2 0x1975 JUMP JUMPDEST POP POP POP JUMP JUMPDEST PUSH0 DUP1 SELFBALANCE SWAP1 POP PUSH0 PUSH1 0x2 PUSH8 0xFFFFFFFFFFFFFFFF DUP2 GT ISZERO PUSH2 0x1270 JUMPI PUSH2 0x126F PUSH2 0x2CE7 JUMP JUMPDEST JUMPDEST PUSH1 0x40 MLOAD SWAP1 DUP1 DUP3 MSTORE DUP1 PUSH1 0x20 MUL PUSH1 0x20 ADD DUP3 ADD PUSH1 0x40 MSTORE DUP1 ISZERO PUSH2 0x129E JUMPI DUP2 PUSH1 0x20 ADD PUSH1 0x20 DUP3 MUL DUP1 CALLDATASIZE DUP4 CALLDATACOPY DUP1 DUP3 ADD SWAP2 POP POP SWAP1 POP JUMPDEST POP SWAP1 POP ADDRESS DUP2 PUSH0 DUP2 MLOAD DUP2 LT PUSH2 0x12B5 JUMPI PUSH2 0x12B4 PUSH2 0x2D9A JUMP JUMPDEST JUMPDEST PUSH1 0x20 MUL PUSH1 0x20 ADD ADD SWAP1 PUSH20 0xFFFFFFFFFFFFFFFFFFFFFFFFFFFFFFFFFFFFFFFF AND SWAP1 DUP2 PUSH20 0xFFFFFFFFFFFFFFFFFFFFFFFFFFFFFFFFFFFFFFFF AND DUP2 MSTORE POP POP PUSH1 0xD PUSH0 SWAP1 SLOAD SWAP1 PUSH2 0x100 EXP SWAP1 DIV PUSH20 0xFFFFFFFFFFFFFFFFFFFFFFFFFFFFFFFFFFFFFFFF AND PUSH20 0xFFFFFFFFFFFFFFFFFFFFFFFFFFFFFFFFFFFFFFFF AND PUSH4 0xAD5C4648 PUSH1 0x40 MLOAD DUP2 PUSH4 0xFFFFFFFF AND PUSH1 0xE0 SHL DUP2 MSTORE PUSH1 0x4 ADD PUSH1 0x20 PUSH1 0x40 MLOAD DUP1 DUP4 SUB DUP2 DUP7 GAS STATICCALL ISZERO DUP1 ISZERO PUSH2 0x1359 JUMPI RETURNDATASIZE PUSH0 DUP1 RETURNDATACOPY RETURNDATASIZE PUSH0 REVERT JUMPDEST POP POP POP POP PUSH1 0x40 MLOAD RETURNDATASIZE PUSH1 0x1F NOT PUSH1 0x1F DUP3 ADD AND DUP3 ADD DUP1 PUSH1 0x40 MSTORE POP DUP2 ADD SWAP1 PUSH2 0x137D SWAP2 SWAP1 PUSH2 0x2DDB JUMP JUMPDEST DUP2 PUSH1 0x1 DUP2 MLOAD DUP2 LT PUSH2 0x1391 JUMPI PUSH2 0x1390 PUSH2 0x2D9A JUMP JUMPDEST JUMPDEST PUSH1 0x20 MUL PUSH1 0x20 ADD ADD SWAP1 PUSH20 0xFFFFFFFFFFFFFFFFFFFFFFFFFFFFFFFFFFFFFFFF AND SWAP1 DUP2 PUSH20 0xFFFFFFFFFFFFFFFFFFFFFFFFFFFFFFFFFFFFFFFF AND DUP2 MSTORE POP POP DUP4 PUSH2 0x13D5 ADDRESS PUSH2 0xC81 JUMP JUMPDEST LT ISZERO PUSH2 0x1416 JUMPI PUSH1 0x40 MLOAD PUSH32 0x8C379A000000000000000000000000000000000000000000000000000000000 DUP2 MSTORE PUSH1 0x4 ADD PUSH2 0x140D SWAP1 PUSH2 0x2E50 JUMP JUMPDEST PUSH1 0x40 MLOAD DUP1 SWAP2 SUB SWAP1 REVERT JUMPDEST PUSH2 0x1442 ADDRESS PUSH1 0xC PUSH0 SWAP1 SLOAD SWAP1 PUSH2 0x100 EXP SWAP1 DIV PUSH20 0xFFFFFFFFFFFFFFFFFFFFFFFFFFFFFFFFFFFFFFFF AND DUP7 PUSH2 0x160D JUMP JUMPDEST PUSH2 0x146D ADDRESS PUSH1 0xD PUSH0 SWAP1 SLOAD SWAP1 PUSH2 0x100 EXP SWAP1 DIV PUSH20 0xFFFFFFFFFFFFFFFFFFFFFFFFFFFFFFFFFFFFFFFF AND PUSH2 0x1045 JUMP JUMPDEST DUP5 GT ISZERO PUSH2 0x14AF JUMPI PUSH1 0x40 MLOAD PUSH32 0x8C379A000000000000000000000000000000000000000000000000000000000 DUP2 MSTORE PUSH1 0x4 ADD PUSH2 0x14A6 SWAP1 PUSH2 0x2EB8 JUMP JUMPDEST PUSH1 0x40 MLOAD DUP1 SWAP2 SUB SWAP1 REVERT JUMPDEST PUSH1 0xD PUSH0 SWAP1 SLOAD SWAP1 PUSH2 0x100 EXP SWAP1 DIV PUSH20 0xFFFFFFFFFFFFFFFFFFFFFFFFFFFFFFFFFFFFFFFF AND PUSH20 0xFFFFFFFFFFFFFFFFFFFFFFFFFFFFFFFFFFFFFFFF AND PUSH4 0x791AC947 DUP6 PUSH0 DUP5 ADDRESS PUSH2 0x258 TIMESTAMP PUSH2 0x14FE SWAP2 SWAP1 PUSH2 0x2B7B JUMP JUMPDEST PUSH1 0x40 MLOAD DUP7 PUSH4 0xFFFFFFFF AND PUSH1 0xE0 SHL DUP2 MSTORE PUSH1 0x4 ADD PUSH2 0x151E SWAP6 SWAP5 SWAP4 SWAP3 SWAP2 SWAP1 PUSH2 0x2FC6 JUMP JUMPDEST PUSH0 PUSH1 0x40 MLOAD DUP1 DUP4 SUB DUP2 PUSH0 DUP8 DUP1 EXTCODESIZE ISZERO DUP1 ISZERO PUSH2 0x1535 JUMPI PUSH0 DUP1 REVERT JUMPDEST POP GAS CALL ISZERO DUP1 ISZERO PUSH2 0x1547 JUMPI RETURNDATASIZE PUSH0 DUP1 RETURNDATACOPY RETURNDATASIZE PUSH0 REVERT JUMPDEST POP POP POP POP DUP2 SELFBALANCE PUSH2 0x1557 SWAP2 SWAP1 PUSH2 0x2BAE JUMP JUMPDEST SWAP3 POP POP POP SWAP2 SWAP1 POP JUMP JUMPDEST DUP2 PUSH20 0xFFFFFFFFFFFFFFFFFFFFFFFFFFFFFFFFFFFFFFFF AND PUSH2 0x8FC DUP3 SWAP1 DUP2 ISZERO MUL SWAP1 PUSH1 0x40 MLOAD PUSH0 PUSH1 0x40 MLOAD DUP1 DUP4 SUB DUP2 DUP6 DUP9 DUP9 CALL SWAP4 POP POP POP POP ISZERO DUP1 ISZERO PUSH2 0x15A3 JUMPI RETURNDATASIZE PUSH0 DUP1 RETURNDATACOPY RETURNDATASIZE PUSH0 REVERT JUMPDEST POP POP POP JUMP JUMPDEST PUSH0 PUSH2 0x15B2 DUP3 PUSH2 0x124F JUMP JUMPDEST SWAP1 POP PUSH0 DUP2 GT PUSH2 0x15F6 JUMPI PUSH1 0x40 MLOAD PUSH32 0x8C379A000000000000000000000000000000000000000000000000000000000 DUP2 MSTORE PUSH1 0x4 ADD PUSH2 0x15ED SWAP1 PUSH2 0x308E JUMP JUMPDEST PUSH1 0x40 MLOAD DUP1 SWAP2 SUB SWAP1 REVERT JUMPDEST PUSH2 0x1601 DUP3 DUP3 DUP6 PUSH2 0x1B8E JUMP JUMPDEST POP POP POP JUMP JUMPDEST PUSH0 CALLER SWAP1 POP SWAP1 JUMP JUMPDEST PUSH2 0x161A DUP4 DUP4 DUP4 PUSH1 0x1 PUSH2 0x1D25 JUMP JUMPDEST POP POP POP JUMP JUMPDEST PUSH0 PUSH32 0x0 PUSH20 0xFFFFFFFFFFFFFFFFFFFFFFFFFFFFFFFFFFFFFFFF AND ADDRESS PUSH20 0xFFFFFFFFFFFFFFFFFFFFFFFFFFFFFFFFFFFFFFFF AND EQ DUP1 ISZERO PUSH2 0x169A JUMPI POP PUSH32 0x0 CHAINID EQ JUMPDEST ISZERO PUSH2 0x16C7 JUMPI PUSH32 0x0 SWAP1 POP PUSH2 0x16D2 JUMP JUMPDEST PUSH2 0x16CF PUSH2 0x1EF4 JUMP JUMPDEST SWAP1 POP JUMPDEST SWAP1 JUMP JUMPDEST PUSH2 0x16DD PUSH2 0x1606 JUMP JUMPDEST PUSH20 0xFFFFFFFFFFFFFFFFFFFFFFFFFFFFFFFFFFFFFFFF AND PUSH2 0x16FB PUSH2 0xDC8 JUMP JUMPDEST PUSH20 0xFFFFFFFFFFFFFFFFFFFFFFFFFFFFFFFFFFFFFFFF AND EQ PUSH2 0x175A JUMPI PUSH2 0x171E PUSH2 0x1606 JUMP JUMPDEST PUSH1 0x40 MLOAD PUSH32 0x118CDAA700000000000000000000000000000000000000000000000000000000 DUP2 MSTORE PUSH1 0x4 ADD PUSH2 0x1751 SWAP2 SWAP1 PUSH2 0x271E JUMP JUMPDEST PUSH1 0x40 MLOAD DUP1 SWAP2 SUB SWAP1 REVERT JUMPDEST JUMP JUMPDEST PUSH0 PUSH1 0x5 PUSH0 SWAP1 SLOAD SWAP1 PUSH2 0x100 EXP SWAP1 DIV PUSH20 0xFFFFFFFFFFFFFFFFFFFFFFFFFFFFFFFFFFFFFFFF AND SWAP1 POP DUP2 PUSH1 0x5 PUSH0 PUSH2 0x100 EXP DUP2 SLOAD DUP2 PUSH20 0xFFFFFFFFFFFFFFFFFFFFFFFFFFFFFFFFFFFFFFFF MUL NOT AND SWAP1 DUP4 PUSH20 0xFFFFFFFFFFFFFFFFFFFFFFFFFFFFFFFFFFFFFFFF AND MUL OR SWAP1 SSTORE POP DUP2 PUSH20 0xFFFFFFFFFFFFFFFFFFFFFFFFFFFFFFFFFFFFFFFF AND DUP2 PUSH20 0xFFFFFFFFFFFFFFFFFFFFFFFFFFFFFFFFFFFFFFFF AND PUSH32 0x8BE0079C531659141344CD1FD0A4F28419497F9722A3DAAFE3B4186F6B6457E0 PUSH1 0x40 MLOAD PUSH1 0x40 MLOAD DUP1 SWAP2 SUB SWAP1 LOG3 POP POP JUMP JUMPDEST PUSH0 PUSH1 0x8 PUSH0 DUP4 PUSH20 0xFFFFFFFFFFFFFFFFFFFFFFFFFFFFFFFFFFFFFFFF AND PUSH20 0xFFFFFFFFFFFFFFFFFFFFFFFFFFFFFFFFFFFFFFFF AND DUP2 MSTORE PUSH1 0x20 ADD SWAP1 DUP2 MSTORE PUSH1 0x20 ADD PUSH0 KECCAK256 SLOAD SWAP1 POP SWAP2 SWAP1 POP JUMP JUMPDEST PUSH1 0x60 PUSH2 0x189B PUSH1 0x6 PUSH32 0x0 PUSH2 0x1F89 SWAP1 SWAP2 SWAP1 PUSH4 0xFFFFFFFF AND JUMP JUMPDEST SWAP1 POP SWAP1 JUMP JUMPDEST PUSH1 0x60 PUSH2 0x18D6 PUSH1 0x7 PUSH32 0x0 PUSH2 0x1F89 SWAP1 SWAP2 SWAP1 PUSH4 0xFFFFFFFF AND JUMP JUMPDEST SWAP1 POP SWAP1 JUMP JUMPDEST PUSH0 PUSH1 0x8 PUSH0 DUP4 PUSH20 0xFFFFFFFFFFFFFFFFFFFFFFFFFFFFFFFFFFFFFFFF AND PUSH20 0xFFFFFFFFFFFFFFFFFFFFFFFFFFFFFFFFFFFFFFFF AND DUP2 MSTORE PUSH1 0x20 ADD SWAP1 DUP2 MSTORE PUSH1 0x20 ADD PUSH0 KECCAK256 PUSH0 DUP2 SLOAD DUP1 SWAP3 SWAP2 SWAP1 PUSH1 0x1 ADD SWAP2 SWAP1 POP SSTORE SWAP1 POP SWAP2 SWAP1 POP JUMP JUMPDEST PUSH0 PUSH2 0x1940 PUSH2 0x193A PUSH2 0x161F JUMP JUMPDEST DUP4 PUSH2 0x2036 JUMP JUMPDEST SWAP1 POP SWAP2 SWAP1 POP JUMP JUMPDEST PUSH0 DUP1 PUSH0 DUP1 PUSH2 0x1957 DUP9 DUP9 DUP9 DUP9 PUSH2 0x2076 JUMP JUMPDEST SWAP3 POP SWAP3 POP SWAP3 POP PUSH2 0x1967 DUP3 DUP3 PUSH2 0x215D JUMP JUMPDEST DUP3 SWAP4 POP POP POP POP SWAP5 SWAP4 POP POP POP POP JUMP JUMPDEST PUSH0 PUSH20 0xFFFFFFFFFFFFFFFFFFFFFFFFFFFFFFFFFFFFFFFF AND DUP4 PUSH20 0xFFFFFFFFFFFFFFFFFFFFFFFFFFFFFFFFFFFFFFFF AND SUB PUSH2 0x19C5 JUMPI DUP1 PUSH1 0x2 PUSH0 DUP3 DUP3 SLOAD PUSH2 0x19B9 SWAP2 SWAP1 PUSH2 0x2B7B JUMP JUMPDEST SWAP3 POP POP DUP2 SWAP1 SSTORE POP PUSH2 0x1A93 JUMP JUMPDEST PUSH0 DUP1 PUSH0 DUP6 PUSH20 0xFFFFFFFFFFFFFFFFFFFFFFFFFFFFFFFFFFFFFFFF AND PUSH20 0xFFFFFFFFFFFFFFFFFFFFFFFFFFFFFFFFFFFFFFFF AND DUP2 MSTORE PUSH1 0x20 ADD SWAP1 DUP2 MSTORE PUSH1 0x20 ADD PUSH0 KECCAK256 SLOAD SWAP1 POP DUP2 DUP2 LT ISZERO PUSH2 0x1A4E JUMPI DUP4 DUP2 DUP4 PUSH1 0x40 MLOAD PUSH32 0xE450D38C00000000000000000000000000000000000000000000000000000000 DUP2 MSTORE PUSH1 0x4 ADD PUSH2 0x1A45 SWAP4 SWAP3 SWAP2 SWAP1 PUSH2 0x30AC JUMP JUMPDEST PUSH1 0x40 MLOAD DUP1 SWAP2 SUB SWAP1 REVERT JUMPDEST DUP2 DUP2 SUB PUSH0 DUP1 DUP7 PUSH20 0xFFFFFFFFFFFFFFFFFFFFFFFFFFFFFFFFFFFFFFFF AND PUSH20 0xFFFFFFFFFFFFFFFFFFFFFFFFFFFFFFFFFFFFFFFF AND DUP2 MSTORE PUSH1 0x20 ADD SWAP1 DUP2 MSTORE PUSH1 0x20 ADD PUSH0 KECCAK256 DUP2 SWAP1 SSTORE POP POP JUMPDEST PUSH0 PUSH20 0xFFFFFFFFFFFFFFFFFFFFFFFFFFFFFFFFFFFFFFFF AND DUP3 PUSH20 0xFFFFFFFFFFFFFFFFFFFFFFFFFFFFFFFFFFFFFFFF AND SUB PUSH2 0x1ADA JUMPI DUP1 PUSH1 0x2 PUSH0 DUP3 DUP3 SLOAD SUB SWAP3 POP POP DUP2 SWAP1 SSTORE POP PUSH2 0x1B24 JUMP JUMPDEST DUP1 PUSH0 DUP1 DUP5 PUSH20 0xFFFFFFFFFFFFFFFFFFFFFFFFFFFFFFFFFFFFFFFF AND PUSH20 0xFFFFFFFFFFFFFFFFFFFFFFFFFFFFFFFFFFFFFFFF AND DUP2 MSTORE PUSH1 0x20 ADD SWAP1 DUP2 MSTORE PUSH1 0x20 ADD PUSH0 KECCAK256 PUSH0 DUP3 DUP3 SLOAD ADD SWAP3 POP POP DUP2 SWAP1 SSTORE POP JUMPDEST DUP2 PUSH20 0xFFFFFFFFFFFFFFFFFFFFFFFFFFFFFFFFFFFFFFFF AND DUP4 PUSH20 0xFFFFFFFFFFFFFFFFFFFFFFFFFFFFFFFFFFFFFFFF AND PUSH32 0xDDF252AD1BE2C89B69C2B068FC378DAA952BA7F163C4A11628F55A4DF523B3EF DUP4 PUSH1 0x40 MLOAD PUSH2 0x1B81 SWAP2 SWAP1 PUSH2 0x2629 JUMP JUMPDEST PUSH1 0x40 MLOAD DUP1 SWAP2 SUB SWAP1 LOG3 POP POP POP JUMP JUMPDEST DUP2 SELFBALANCE LT ISZERO PUSH2 0x1BD1 JUMPI PUSH1 0x40 MLOAD PUSH32 0x8C379A000000000000000000000000000000000000000000000000000000000 DUP2 MSTORE PUSH1 0x4 ADD PUSH2 0x1BC8 SWAP1 PUSH2 0x312B JUMP JUMPDEST PUSH1 0x40 MLOAD DUP1 SWAP2 SUB SWAP1 REVERT JUMPDEST PUSH2 0x1BFD ADDRESS PUSH1 0xC PUSH0 SWAP1 SLOAD SWAP1 PUSH2 0x100 EXP SWAP1 DIV PUSH20 0xFFFFFFFFFFFFFFFFFFFFFFFFFFFFFFFFFFFFFFFF AND DUP6 PUSH2 0x160D JUMP JUMPDEST PUSH2 0x1C28 ADDRESS PUSH1 0xD PUSH0 SWAP1 SLOAD SWAP1 PUSH2 0x100 EXP SWAP1 DIV PUSH20 0xFFFFFFFFFFFFFFFFFFFFFFFFFFFFFFFFFFFFFFFF AND PUSH2 0x1045 JUMP JUMPDEST DUP4 GT ISZERO PUSH2 0x1C6A JUMPI PUSH1 0x40 MLOAD PUSH32 0x8C379A000000000000000000000000000000000000000000000000000000000 DUP2 MSTORE PUSH1 0x4 ADD PUSH2 0x1C61 SWAP1 PUSH2 0x31B9 JUMP JUMPDEST PUSH1 0x40 MLOAD DUP1 SWAP2 SUB SWAP1 REVERT JUMPDEST PUSH1 0xD PUSH0 SWAP1 SLOAD SWAP1 PUSH2 0x100 EXP SWAP1 DIV PUSH20 0xFFFFFFFFFFFFFFFFFFFFFFFFFFFFFFFFFFFFFFFF AND PUSH20 0xFFFFFFFFFFFFFFFFFFFFFFFFFFFFFFFFFFFFFFFF AND PUSH4 0xF305D719 DUP4 ADDRESS DUP7 PUSH0 DUP1 DUP8 PUSH2 0x258 TIMESTAMP PUSH2 0x1CBB SWAP2 SWAP1 PUSH2 0x2B7B JUMP JUMPDEST PUSH1 0x40 MLOAD DUP9 PUSH4 0xFFFFFFFF AND PUSH1 0xE0 SHL DUP2 MSTORE PUSH1 0x4 ADD PUSH2 0x1CDC SWAP7 SWAP6 SWAP5 SWAP4 SWAP3 SWAP2 SWAP1 PUSH2 0x31D7 JUMP JUMPDEST PUSH1 0x60 PUSH1 0x40 MLOAD DUP1 DUP4 SUB DUP2 DUP6 DUP9 GAS CALL ISZERO DUP1 ISZERO PUSH2 0x1CF8 JUMPI RETURNDATASIZE PUSH0 DUP1 RETURNDATACOPY RETURNDATASIZE PUSH0 REVERT JUMPDEST POP POP POP POP POP PUSH1 0x40 MLOAD RETURNDATASIZE PUSH1 0x1F NOT PUSH1 0x1F DUP3 ADD AND DUP3 ADD DUP1 PUSH1 0x40 MSTORE POP DUP2 ADD SWAP1 PUSH2 0x1D1D SWAP2 SWAP1 PUSH2 0x324A JUMP JUMPDEST POP POP POP POP POP POP JUMP JUMPDEST PUSH0 PUSH20 0xFFFFFFFFFFFFFFFFFFFFFFFFFFFFFFFFFFFFFFFF AND DUP5 PUSH20 0xFFFFFFFFFFFFFFFFFFFFFFFFFFFFFFFFFFFFFFFF AND SUB PUSH2 0x1D95 JUMPI PUSH0 PUSH1 0x40 MLOAD PUSH32 0xE602DF0500000000000000000000000000000000000000000000000000000000 DUP2 MSTORE PUSH1 0x4 ADD PUSH2 0x1D8C SWAP2 SWAP1 PUSH2 0x271E JUMP JUMPDEST PUSH1 0x40 MLOAD DUP1 SWAP2 SUB SWAP1 REVERT JUMPDEST PUSH0 PUSH20 0xFFFFFFFFFFFFFFFFFFFFFFFFFFFFFFFFFFFFFFFF AND DUP4 PUSH20 0xFFFFFFFFFFFFFFFFFFFFFFFFFFFFFFFFFFFFFFFF AND SUB PUSH2 0x1E05 JUMPI PUSH0 PUSH1 0x40 MLOAD PUSH32 0x94280D6200000000000000000000000000000000000000000000000000000000 DUP2 MSTORE PUSH1 0x4 ADD PUSH2 0x1DFC SWAP2 SWAP1 PUSH2 0x271E JUMP JUMPDEST PUSH1 0x40 MLOAD DUP1 SWAP2 SUB SWAP1 REVERT JUMPDEST DUP2 PUSH1 0x1 PUSH0 DUP7 PUSH20 0xFFFFFFFFFFFFFFFFFFFFFFFFFFFFFFFFFFFFFFFF AND PUSH20 0xFFFFFFFFFFFFFFFFFFFFFFFFFFFFFFFFFFFFFFFF AND DUP2 MSTORE PUSH1 0x20 ADD SWAP1 DUP2 MSTORE PUSH1 0x20 ADD PUSH0 KECCAK256 PUSH0 DUP6 PUSH20 0xFFFFFFFFFFFFFFFFFFFFFFFFFFFFFFFFFFFFFFFF AND PUSH20 0xFFFFFFFFFFFFFFFFFFFFFFFFFFFFFFFFFFFFFFFF AND DUP2 MSTORE PUSH1 0x20 ADD SWAP1 DUP2 MSTORE PUSH1 0x20 ADD PUSH0 KECCAK256 DUP2 SWAP1 SSTORE POP DUP1 ISZERO PUSH2 0x1EEE JUMPI DUP3 PUSH20 0xFFFFFFFFFFFFFFFFFFFFFFFFFFFFFFFFFFFFFFFF AND DUP5 PUSH20 0xFFFFFFFFFFFFFFFFFFFFFFFFFFFFFFFFFFFFFFFF AND PUSH32 0x8C5BE1E5EBEC7D5BD14F71427D1E84F3DD0314C0F7B2291E5B200AC8C7C3B925 DUP5 PUSH1 0x40 MLOAD PUSH2 0x1EE5 SWAP2 SWAP1 PUSH2 0x2629 JUMP JUMPDEST PUSH1 0x40 MLOAD DUP1 SWAP2 SUB SWAP1 LOG3 JUMPDEST POP POP POP POP JUMP JUMPDEST PUSH0 PUSH32 0x8B73C3C69BB8FE3D512ECC4CF759CC79239F7B179B0FFACAA9A75D522B39400F PUSH32 0x0 PUSH32 0x0 CHAINID ADDRESS PUSH1 0x40 MLOAD PUSH1 0x20 ADD PUSH2 0x1F6E SWAP6 SWAP5 SWAP4 SWAP3 SWAP2 SWAP1 PUSH2 0x329A JUMP JUMPDEST PUSH1 0x40 MLOAD PUSH1 0x20 DUP2 DUP4 SUB SUB DUP2 MSTORE SWAP1 PUSH1 0x40 MSTORE DUP1 MLOAD SWAP1 PUSH1 0x20 ADD KECCAK256 SWAP1 POP SWAP1 JUMP JUMPDEST PUSH1 0x60 PUSH1 0xFF PUSH0 SHL DUP4 EQ PUSH2 0x1FA5 JUMPI PUSH2 0x1F9E DUP4 PUSH2 0x22BF JUMP JUMPDEST SWAP1 POP PUSH2 0x2030 JUMP JUMPDEST DUP2 DUP1 SLOAD PUSH2 0x1FB1 SWAP1 PUSH2 0x2C0E JUMP JUMPDEST DUP1 PUSH1 0x1F ADD PUSH1 0x20 DUP1 SWAP2 DIV MUL PUSH1 0x20 ADD PUSH1 0x40 MLOAD SWAP1 DUP2 ADD PUSH1 0x40 MSTORE DUP1 SWAP3 SWAP2 SWAP1 DUP2 DUP2 MSTORE PUSH1 0x20 ADD DUP3 DUP1 SLOAD PUSH2 0x1FDD SWAP1 PUSH2 0x2C0E JUMP JUMPDEST DUP1 ISZERO PUSH2 0x2028 JUMPI DUP1 PUSH1 0x1F LT PUSH2 0x1FFF JUMPI PUSH2 0x100 DUP1 DUP4 SLOAD DIV MUL DUP4 MSTORE SWAP2 PUSH1 0x20 ADD SWAP2 PUSH2 0x2028 JUMP JUMPDEST DUP3 ADD SWAP2 SWAP1 PUSH0 MSTORE PUSH1 0x20 PUSH0 KECCAK256 SWAP1 JUMPDEST DUP2 SLOAD DUP2 MSTORE SWAP1 PUSH1 0x1 ADD SWAP1 PUSH1 0x20 ADD DUP1 DUP4 GT PUSH2 0x200B JUMPI DUP3 SWAP1 SUB PUSH1 0x1F AND DUP3 ADD SWAP2 JUMPDEST POP POP POP POP POP SWAP1 POP JUMPDEST SWAP3 SWAP2 POP POP JUMP JUMPDEST PUSH0 PUSH1 0x40 MLOAD PUSH32 0x1901000000000000000000000000000000000000000000000000000000000000 DUP2 MSTORE DUP4 PUSH1 0x2 DUP3 ADD MSTORE DUP3 PUSH1 0x22 DUP3 ADD MSTORE PUSH1 0x42 DUP2 KECCAK256 SWAP2 POP POP SWAP3 SWAP2 POP POP JUMP JUMPDEST PUSH0 DUP1 PUSH0 PUSH32 0x7FFFFFFFFFFFFFFFFFFFFFFFFFFFFFFF5D576E7357A4501DDFE92F46681B20A0 DUP5 PUSH0 SHR GT ISZERO PUSH2 0x20B2 JUMPI PUSH0 PUSH1 0x3 DUP6 SWAP3 POP SWAP3 POP SWAP3 POP PUSH2 0x2153 JUMP JUMPDEST PUSH0 PUSH1 0x1 DUP9 DUP9 DUP9 DUP9 PUSH1 0x40 MLOAD PUSH0 DUP2 MSTORE PUSH1 0x20 ADD PUSH1 0x40 MSTORE PUSH1 0x40 MLOAD PUSH2 0x20D5 SWAP5 SWAP4 SWAP3 SWAP2 SWAP1 PUSH2 0x32EB JUMP JUMPDEST PUSH1 0x20 PUSH1 0x40 MLOAD PUSH1 0x20 DUP2 SUB SWAP1 DUP1 DUP5 SUB SWAP1 DUP6 GAS STATICCALL ISZERO DUP1 ISZERO PUSH2 0x20F5 JUMPI RETURNDATASIZE PUSH0 DUP1 RETURNDATACOPY RETURNDATASIZE PUSH0 REVERT JUMPDEST POP POP POP PUSH1 0x20 PUSH1 0x40 MLOAD SUB MLOAD SWAP1 POP PUSH0 PUSH20 0xFFFFFFFFFFFFFFFFFFFFFFFFFFFFFFFFFFFFFFFF AND DUP2 PUSH20 0xFFFFFFFFFFFFFFFFFFFFFFFFFFFFFFFFFFFFFFFF AND SUB PUSH2 0x2146 JUMPI PUSH0 PUSH1 0x1 PUSH0 DUP1 SHL SWAP4 POP SWAP4 POP SWAP4 POP POP PUSH2 0x2153 JUMP JUMPDEST DUP1 PUSH0 DUP1 PUSH0 SHL SWAP4 POP SWAP4 POP SWAP4 POP POP JUMPDEST SWAP5 POP SWAP5 POP SWAP5 SWAP2 POP POP JUMP JUMPDEST PUSH0 PUSH1 0x3 DUP2 GT ISZERO PUSH2 0x2170 JUMPI PUSH2 0x216F PUSH2 0x332E JUMP JUMPDEST JUMPDEST DUP3 PUSH1 0x3 DUP2 GT ISZERO PUSH2 0x2183 JUMPI PUSH2 0x2182 PUSH2 0x332E JUMP JUMPDEST JUMPDEST SUB ISZERO PUSH2 0x22BB JUMPI PUSH1 0x1 PUSH1 0x3 DUP2 GT ISZERO PUSH2 0x219D JUMPI PUSH2 0x219C PUSH2 0x332E JUMP JUMPDEST JUMPDEST DUP3 PUSH1 0x3 DUP2 GT ISZERO PUSH2 0x21B0 JUMPI PUSH2 0x21AF PUSH2 0x332E JUMP JUMPDEST JUMPDEST SUB PUSH2 0x21E7 JUMPI PUSH1 0x40 MLOAD PUSH32 0xF645EEDF00000000000000000000000000000000000000000000000000000000 DUP2 MSTORE PUSH1 0x4 ADD PUSH1 0x40 MLOAD DUP1 SWAP2 SUB SWAP1 REVERT JUMPDEST PUSH1 0x2 PUSH1 0x3 DUP2 GT ISZERO PUSH2 0x21FB JUMPI PUSH2 0x21FA PUSH2 0x332E JUMP JUMPDEST JUMPDEST DUP3 PUSH1 0x3 DUP2 GT ISZERO PUSH2 0x220E JUMPI PUSH2 0x220D PUSH2 0x332E JUMP JUMPDEST JUMPDEST SUB PUSH2 0x2252 JUMPI DUP1 PUSH0 SHR PUSH1 0x40 MLOAD PUSH32 0xFCE698F700000000000000000000000000000000000000000000000000000000 DUP2 MSTORE PUSH1 0x4 ADD PUSH2 0x2249 SWAP2 SWAP1 PUSH2 0x2629 JUMP JUMPDEST PUSH1 0x40 MLOAD DUP1 SWAP2 SUB SWAP1 REVERT JUMPDEST PUSH1 0x3 DUP1 DUP2 GT ISZERO PUSH2 0x2265 JUMPI PUSH2 0x2264 PUSH2 0x332E JUMP JUMPDEST JUMPDEST DUP3 PUSH1 0x3 DUP2 GT ISZERO PUSH2 0x2278 JUMPI PUSH2 0x2277 PUSH2 0x332E JUMP JUMPDEST JUMPDEST SUB PUSH2 0x22BA JUMPI DUP1 PUSH1 0x40 MLOAD PUSH32 0xD78BCE0C00000000000000000000000000000000000000000000000000000000 DUP2 MSTORE PUSH1 0x4 ADD PUSH2 0x22B1 SWAP2 SWAP1 PUSH2 0x268E JUMP JUMPDEST PUSH1 0x40 MLOAD DUP1 SWAP2 SUB SWAP1 REVERT JUMPDEST JUMPDEST POP POP JUMP JUMPDEST PUSH1 0x60 PUSH0 PUSH2 0x22CB DUP4 PUSH2 0x2331 JUMP JUMPDEST SWAP1 POP PUSH0 PUSH1 0x20 PUSH8 0xFFFFFFFFFFFFFFFF DUP2 GT ISZERO PUSH2 0x22E9 JUMPI PUSH2 0x22E8 PUSH2 0x2CE7 JUMP JUMPDEST JUMPDEST PUSH1 0x40 MLOAD SWAP1 DUP1 DUP3 MSTORE DUP1 PUSH1 0x1F ADD PUSH1 0x1F NOT AND PUSH1 0x20 ADD DUP3 ADD PUSH1 0x40 MSTORE DUP1 ISZERO PUSH2 0x231B JUMPI DUP2 PUSH1 0x20 ADD PUSH1 0x1 DUP3 MUL DUP1 CALLDATASIZE DUP4 CALLDATACOPY DUP1 DUP3 ADD SWAP2 POP POP SWAP1 POP JUMPDEST POP SWAP1 POP DUP2 DUP2 MSTORE DUP4 PUSH1 0x20 DUP3 ADD MSTORE DUP1 SWAP3 POP POP POP SWAP2 SWAP1 POP JUMP JUMPDEST PUSH0 DUP1 PUSH1 0xFF DUP4 PUSH0 SHR AND SWAP1 POP PUSH1 0x1F DUP2 GT ISZERO PUSH2 0x2376 JUMPI PUSH1 0x40 MLOAD PUSH32 0xB3512B0C00000000000000000000000000000000000000000000000000000000 DUP2 MSTORE PUSH1 0x4 ADD PUSH1 0x40 MLOAD DUP1 SWAP2 SUB SWAP1 REVERT JUMPDEST DUP1 SWAP2 POP POP SWAP2 SWAP1 POP JUMP JUMPDEST PUSH0 DUP1 REVERT JUMPDEST PUSH0 PUSH20 0xFFFFFFFFFFFFFFFFFFFFFFFFFFFFFFFFFFFFFFFF DUP3 AND SWAP1 POP SWAP2 SWAP1 POP JUMP JUMPDEST PUSH0 PUSH2 0x23AC DUP3 PUSH2 0x2383 JUMP JUMPDEST SWAP1 POP SWAP2 SWAP1 POP JUMP JUMPDEST PUSH2 0x23BC DUP2 PUSH2 0x23A2 JUMP JUMPDEST DUP2 EQ PUSH2 0x23C6 JUMPI PUSH0 DUP1 REVERT JUMPDEST POP JUMP JUMPDEST PUSH0 DUP2 CALLDATALOAD SWAP1 POP PUSH2 0x23D7 DUP2 PUSH2 0x23B3 JUMP JUMPDEST SWAP3 SWAP2 POP POP JUMP JUMPDEST PUSH0 DUP2 SWAP1 POP SWAP2 SWAP1 POP JUMP JUMPDEST PUSH2 0x23EF DUP2 PUSH2 0x23DD JUMP JUMPDEST DUP2 EQ PUSH2 0x23F9 JUMPI PUSH0 DUP1 REVERT JUMPDEST POP JUMP JUMPDEST PUSH0 DUP2 CALLDATALOAD SWAP1 POP PUSH2 0x240A DUP2 PUSH2 0x23E6 JUMP JUMPDEST SWAP3 SWAP2 POP POP JUMP JUMPDEST PUSH0 DUP1 PUSH0 PUSH1 0x60 DUP5 DUP7 SUB SLT ISZERO PUSH2 0x2427 JUMPI PUSH2 0x2426 PUSH2 0x237F JUMP JUMPDEST JUMPDEST PUSH0 PUSH2 0x2434 DUP7 DUP3 DUP8 ADD PUSH2 0x23C9 JUMP JUMPDEST SWAP4 POP POP PUSH1 0x20 PUSH2 0x2445 DUP7 DUP3 DUP8 ADD PUSH2 0x23C9 JUMP JUMPDEST SWAP3 POP POP PUSH1 0x40 PUSH2 0x2456 DUP7 DUP3 DUP8 ADD PUSH2 0x23FC JUMP JUMPDEST SWAP2 POP POP SWAP3 POP SWAP3 POP SWAP3 JUMP JUMPDEST PUSH0 DUP2 MLOAD SWAP1 POP SWAP2 SWAP1 POP JUMP JUMPDEST PUSH0 DUP3 DUP3 MSTORE PUSH1 0x20 DUP3 ADD SWAP1 POP SWAP3 SWAP2 POP POP JUMP JUMPDEST PUSH0 JUMPDEST DUP4 DUP2 LT ISZERO PUSH2 0x2497 JUMPI DUP1 DUP3 ADD MLOAD DUP2 DUP5 ADD MSTORE PUSH1 0x20 DUP2 ADD SWAP1 POP PUSH2 0x247C JUMP JUMPDEST PUSH0 DUP5 DUP5 ADD MSTORE POP POP POP POP JUMP JUMPDEST PUSH0 PUSH1 0x1F NOT PUSH1 0x1F DUP4 ADD AND SWAP1 POP SWAP2 SWAP1 POP JUMP JUMPDEST PUSH0 PUSH2 0x24BC DUP3 PUSH2 0x2460 JUMP JUMPDEST PUSH2 0x24C6 DUP2 DUP6 PUSH2 0x246A JUMP JUMPDEST SWAP4 POP PUSH2 0x24D6 DUP2 DUP6 PUSH1 0x20 DUP7 ADD PUSH2 0x247A JUMP JUMPDEST PUSH2 0x24DF DUP2 PUSH2 0x24A2 JUMP JUMPDEST DUP5 ADD SWAP2 POP POP SWAP3 SWAP2 POP POP JUMP JUMPDEST PUSH0 PUSH1 0x20 DUP3 ADD SWAP1 POP DUP2 DUP2 SUB PUSH0 DUP4 ADD MSTORE PUSH2 0x2502 DUP2 DUP5 PUSH2 0x24B2 JUMP JUMPDEST SWAP1 POP SWAP3 SWAP2 POP POP JUMP JUMPDEST PUSH0 DUP1 PUSH1 0x40 DUP4 DUP6 SUB SLT ISZERO PUSH2 0x2520 JUMPI PUSH2 0x251F PUSH2 0x237F JUMP JUMPDEST JUMPDEST PUSH0 PUSH2 0x252D DUP6 DUP3 DUP7 ADD PUSH2 0x23C9 JUMP JUMPDEST SWAP3 POP POP PUSH1 0x20 PUSH2 0x253E DUP6 DUP3 DUP7 ADD PUSH2 0x23FC JUMP JUMPDEST SWAP2 POP POP SWAP3 POP SWAP3 SWAP1 POP JUMP JUMPDEST PUSH0 DUP2 ISZERO ISZERO SWAP1 POP SWAP2 SWAP1 POP JUMP JUMPDEST PUSH2 0x255C DUP2 PUSH2 0x2548 JUMP JUMPDEST DUP3 MSTORE POP POP JUMP JUMPDEST PUSH0 PUSH1 0x20 DUP3 ADD SWAP1 POP PUSH2 0x2575 PUSH0 DUP4 ADD DUP5 PUSH2 0x2553 JUMP JUMPDEST SWAP3 SWAP2 POP POP JUMP JUMPDEST PUSH0 PUSH1 0x20 DUP3 DUP5 SUB SLT ISZERO PUSH2 0x2590 JUMPI PUSH2 0x258F PUSH2 0x237F JUMP JUMPDEST JUMPDEST PUSH0 PUSH2 0x259D DUP5 DUP3 DUP6 ADD PUSH2 0x23C9 JUMP JUMPDEST SWAP2 POP POP SWAP3 SWAP2 POP POP JUMP JUMPDEST PUSH0 DUP2 SWAP1 POP SWAP2 SWAP1 POP JUMP JUMPDEST PUSH0 PUSH2 0x25C9 PUSH2 0x25C4 PUSH2 0x25BF DUP5 PUSH2 0x2383 JUMP JUMPDEST PUSH2 0x25A6 JUMP JUMPDEST PUSH2 0x2383 JUMP JUMPDEST SWAP1 POP SWAP2 SWAP1 POP JUMP JUMPDEST PUSH0 PUSH2 0x25DA DUP3 PUSH2 0x25AF JUMP JUMPDEST SWAP1 POP SWAP2 SWAP1 POP JUMP JUMPDEST PUSH0 PUSH2 0x25EB DUP3 PUSH2 0x25D0 JUMP JUMPDEST SWAP1 POP SWAP2 SWAP1 POP JUMP JUMPDEST PUSH2 0x25FB DUP2 PUSH2 0x25E1 JUMP JUMPDEST DUP3 MSTORE POP POP JUMP JUMPDEST PUSH0 PUSH1 0x20 DUP3 ADD SWAP1 POP PUSH2 0x2614 PUSH0 DUP4 ADD DUP5 PUSH2 0x25F2 JUMP JUMPDEST SWAP3 SWAP2 POP POP JUMP JUMPDEST PUSH2 0x2623 DUP2 PUSH2 0x23DD JUMP JUMPDEST DUP3 MSTORE POP POP JUMP JUMPDEST PUSH0 PUSH1 0x20 DUP3 ADD SWAP1 POP PUSH2 0x263C PUSH0 DUP4 ADD DUP5 PUSH2 0x261A JUMP JUMPDEST SWAP3 SWAP2 POP POP JUMP JUMPDEST PUSH0 PUSH1 0xFF DUP3 AND SWAP1 POP SWAP2 SWAP1 POP JUMP JUMPDEST PUSH2 0x2657 DUP2 PUSH2 0x2642 JUMP JUMPDEST DUP3 MSTORE POP POP JUMP JUMPDEST PUSH0 PUSH1 0x20 DUP3 ADD SWAP1 POP PUSH2 0x2670 PUSH0 DUP4 ADD DUP5 PUSH2 0x264E JUMP JUMPDEST SWAP3 SWAP2 POP POP JUMP JUMPDEST PUSH0 DUP2 SWAP1 POP SWAP2 SWAP1 POP JUMP JUMPDEST PUSH2 0x2688 DUP2 PUSH2 0x2676 JUMP JUMPDEST DUP3 MSTORE POP POP JUMP JUMPDEST PUSH0 PUSH1 0x20 DUP3 ADD SWAP1 POP PUSH2 0x26A1 PUSH0 DUP4 ADD DUP5 PUSH2 0x267F JUMP JUMPDEST SWAP3 SWAP2 POP POP JUMP JUMPDEST PUSH2 0x26B0 DUP2 PUSH2 0x2548 JUMP JUMPDEST DUP2 EQ PUSH2 0x26BA JUMPI PUSH0 DUP1 REVERT JUMPDEST POP JUMP JUMPDEST PUSH0 DUP2 CALLDATALOAD SWAP1 POP PUSH2 0x26CB DUP2 PUSH2 0x26A7 JUMP JUMPDEST SWAP3 SWAP2 POP POP JUMP JUMPDEST PUSH0 DUP1 PUSH1 0x40 DUP4 DUP6 SUB SLT ISZERO PUSH2 0x26E7 JUMPI PUSH2 0x26E6 PUSH2 0x237F JUMP JUMPDEST JUMPDEST PUSH0 PUSH2 0x26F4 DUP6 DUP3 DUP7 ADD PUSH2 0x23C9 JUMP JUMPDEST SWAP3 POP POP PUSH1 0x20 PUSH2 0x2705 DUP6 DUP3 DUP7 ADD PUSH2 0x26BD JUMP JUMPDEST SWAP2 POP POP SWAP3 POP SWAP3 SWAP1 POP JUMP JUMPDEST PUSH2 0x2718 DUP2 PUSH2 0x23A2 JUMP JUMPDEST DUP3 MSTORE POP POP JUMP JUMPDEST PUSH0 PUSH1 0x20 DUP3 ADD SWAP1 POP PUSH2 0x2731 PUSH0 DUP4 ADD DUP5 PUSH2 0x270F JUMP JUMPDEST SWAP3 SWAP2 POP POP JUMP JUMPDEST PUSH0 DUP1 PUSH1 0x40 DUP4 DUP6 SUB SLT ISZERO PUSH2 0x274D JUMPI PUSH2 0x274C PUSH2 0x237F JUMP JUMPDEST JUMPDEST PUSH0 PUSH2 0x275A DUP6 DUP3 DUP7 ADD PUSH2 0x23FC JUMP JUMPDEST SWAP3 POP POP PUSH1 0x20 PUSH2 0x276B DUP6 DUP3 DUP7 ADD PUSH2 0x23C9 JUMP JUMPDEST SWAP2 POP POP SWAP3 POP SWAP3 SWAP1 POP JUMP JUMPDEST PUSH0 PUSH2 0x277F DUP3 PUSH2 0x2383 JUMP JUMPDEST SWAP1 POP SWAP2 SWAP1 POP JUMP JUMPDEST PUSH2 0x278F DUP2 PUSH2 0x2775 JUMP JUMPDEST DUP3 MSTORE POP POP JUMP JUMPDEST PUSH0 PUSH1 0x20 DUP3 ADD SWAP1 POP PUSH2 0x27A8 PUSH0 DUP4 ADD DUP5 PUSH2 0x2786 JUMP JUMPDEST SWAP3 SWAP2 POP POP JUMP JUMPDEST PUSH0 PUSH1 0x20 DUP3 DUP5 SUB SLT ISZERO PUSH2 0x27C3 JUMPI PUSH2 0x27C2 PUSH2 0x237F JUMP JUMPDEST JUMPDEST PUSH0 PUSH2 0x27D0 DUP5 DUP3 DUP6 ADD PUSH2 0x26BD JUMP JUMPDEST SWAP2 POP POP SWAP3 SWAP2 POP POP JUMP JUMPDEST PUSH0 PUSH2 0xFFFF DUP3 AND SWAP1 POP SWAP2 SWAP1 POP JUMP JUMPDEST PUSH2 0x27EF DUP2 PUSH2 0x27D9 JUMP JUMPDEST DUP3 MSTORE POP POP JUMP JUMPDEST PUSH0 PUSH1 0x20 DUP3 ADD SWAP1 POP PUSH2 0x2808 PUSH0 DUP4 ADD DUP5 PUSH2 0x27E6 JUMP JUMPDEST SWAP3 SWAP2 POP POP JUMP JUMPDEST PUSH0 PUSH32 0xFF00000000000000000000000000000000000000000000000000000000000000 DUP3 AND SWAP1 POP SWAP2 SWAP1 POP JUMP JUMPDEST PUSH2 0x2842 DUP2 PUSH2 0x280E JUMP JUMPDEST DUP3 MSTORE POP POP JUMP JUMPDEST PUSH0 DUP2 MLOAD SWAP1 POP SWAP2 SWAP1 POP JUMP JUMPDEST PUSH0 DUP3 DUP3 MSTORE PUSH1 0x20 DUP3 ADD SWAP1 POP SWAP3 SWAP2 POP POP JUMP JUMPDEST PUSH0 DUP2 SWAP1 POP PUSH1 0x20 DUP3 ADD SWAP1 POP SWAP2 SWAP1 POP JUMP JUMPDEST PUSH2 0x287A DUP2 PUSH2 0x23DD JUMP JUMPDEST DUP3 MSTORE POP POP JUMP JUMPDEST PUSH0 PUSH2 0x288B DUP4 DUP4 PUSH2 0x2871 JUMP JUMPDEST PUSH1 0x20 DUP4 ADD SWAP1 POP SWAP3 SWAP2 POP POP JUMP JUMPDEST PUSH0 PUSH1 0x20 DUP3 ADD SWAP1 POP SWAP2 SWAP1 POP JUMP JUMPDEST PUSH0 PUSH2 0x28AD DUP3 PUSH2 0x2848 JUMP JUMPDEST PUSH2 0x28B7 DUP2 DUP6 PUSH2 0x2852 JUMP JUMPDEST SWAP4 POP PUSH2 0x28C2 DUP4 PUSH2 0x2862 JUMP JUMPDEST DUP1 PUSH0 JUMPDEST DUP4 DUP2 LT ISZERO PUSH2 0x28F2 JUMPI DUP2 MLOAD PUSH2 0x28D9 DUP9 DUP3 PUSH2 0x2880 JUMP JUMPDEST SWAP8 POP PUSH2 0x28E4 DUP4 PUSH2 0x2897 JUMP JUMPDEST SWAP3 POP POP PUSH1 0x1 DUP2 ADD SWAP1 POP PUSH2 0x28C5 JUMP JUMPDEST POP DUP6 SWAP4 POP POP POP POP SWAP3 SWAP2 POP POP JUMP JUMPDEST PUSH0 PUSH1 0xE0 DUP3 ADD SWAP1 POP PUSH2 0x2912 PUSH0 DUP4 ADD DUP11 PUSH2 0x2839 JUMP JUMPDEST DUP2 DUP2 SUB PUSH1 0x20 DUP4 ADD MSTORE PUSH2 0x2924 DUP2 DUP10 PUSH2 0x24B2 JUMP JUMPDEST SWAP1 POP DUP2 DUP2 SUB PUSH1 0x40 DUP4 ADD MSTORE PUSH2 0x2938 DUP2 DUP9 PUSH2 0x24B2 JUMP JUMPDEST SWAP1 POP PUSH2 0x2947 PUSH1 0x60 DUP4 ADD DUP8 PUSH2 0x261A JUMP JUMPDEST PUSH2 0x2954 PUSH1 0x80 DUP4 ADD DUP7 PUSH2 0x270F JUMP JUMPDEST PUSH2 0x2961 PUSH1 0xA0 DUP4 ADD DUP6 PUSH2 0x267F JUMP JUMPDEST DUP2 DUP2 SUB PUSH1 0xC0 DUP4 ADD MSTORE PUSH2 0x2973 DUP2 DUP5 PUSH2 0x28A3 JUMP JUMPDEST SWAP1 POP SWAP9 SWAP8 POP POP POP POP POP POP POP POP JUMP JUMPDEST PUSH2 0x298A DUP2 PUSH2 0x2642 JUMP JUMPDEST DUP2 EQ PUSH2 0x2994 JUMPI PUSH0 DUP1 REVERT JUMPDEST POP JUMP JUMPDEST PUSH0 DUP2 CALLDATALOAD SWAP1 POP PUSH2 0x29A5 DUP2 PUSH2 0x2981 JUMP JUMPDEST SWAP3 SWAP2 POP POP JUMP JUMPDEST PUSH2 0x29B4 DUP2 PUSH2 0x2676 JUMP JUMPDEST DUP2 EQ PUSH2 0x29BE JUMPI PUSH0 DUP1 REVERT JUMPDEST POP JUMP JUMPDEST PUSH0 DUP2 CALLDATALOAD SWAP1 POP PUSH2 0x29CF DUP2 PUSH2 0x29AB JUMP JUMPDEST SWAP3 SWAP2 POP POP JUMP JUMPDEST PUSH0 DUP1 PUSH0 DUP1 PUSH0 DUP1 PUSH0 PUSH1 0xE0 DUP9 DUP11 SUB SLT ISZERO PUSH2 0x29F0 JUMPI PUSH2 0x29EF PUSH2 0x237F JUMP JUMPDEST JUMPDEST PUSH0 PUSH2 0x29FD DUP11 DUP3 DUP12 ADD PUSH2 0x23C9 JUMP JUMPDEST SWAP8 POP POP PUSH1 0x20 PUSH2 0x2A0E DUP11 DUP3 DUP12 ADD PUSH2 0x23C9 JUMP JUMPDEST SWAP7 POP POP PUSH1 0x40 PUSH2 0x2A1F DUP11 DUP3 DUP12 ADD PUSH2 0x23FC JUMP JUMPDEST SWAP6 POP POP PUSH1 0x60 PUSH2 0x2A30 DUP11 DUP3 DUP12 ADD PUSH2 0x23FC JUMP JUMPDEST SWAP5 POP POP PUSH1 0x80 PUSH2 0x2A41 DUP11 DUP3 DUP12 ADD PUSH2 0x2997 JUMP JUMPDEST SWAP4 POP POP PUSH1 0xA0 PUSH2 0x2A52 DUP11 DUP3 DUP12 ADD PUSH2 0x29C1 JUMP JUMPDEST SWAP3 POP POP PUSH1 0xC0 PUSH2 0x2A63 DUP11 DUP3 DUP12 ADD PUSH2 0x29C1 JUMP JUMPDEST SWAP2 POP POP SWAP3 SWAP6 SWAP9 SWAP2 SWAP5 SWAP8 POP SWAP3 SWAP6 POP JUMP JUMPDEST PUSH0 DUP1 PUSH1 0x40 DUP4 DUP6 SUB SLT ISZERO PUSH2 0x2A88 JUMPI PUSH2 0x2A87 PUSH2 0x237F JUMP JUMPDEST JUMPDEST PUSH0 PUSH2 0x2A95 DUP6 DUP3 DUP7 ADD PUSH2 0x23C9 JUMP JUMPDEST SWAP3 POP POP PUSH1 0x20 PUSH2 0x2AA6 DUP6 DUP3 DUP7 ADD PUSH2 0x23C9 JUMP JUMPDEST SWAP2 POP POP SWAP3 POP SWAP3 SWAP1 POP JUMP JUMPDEST PUSH32 0x4E487B7100000000000000000000000000000000000000000000000000000000 PUSH0 MSTORE PUSH1 0x11 PUSH1 0x4 MSTORE PUSH1 0x24 PUSH0 REVERT JUMPDEST PUSH0 PUSH2 0x2AE7 DUP3 PUSH2 0x23DD JUMP JUMPDEST SWAP2 POP PUSH2 0x2AF2 DUP4 PUSH2 0x23DD JUMP JUMPDEST SWAP3 POP DUP3 DUP3 MUL PUSH2 0x2B00 DUP2 PUSH2 0x23DD JUMP JUMPDEST SWAP2 POP DUP3 DUP3 DIV DUP5 EQ DUP4 ISZERO OR PUSH2 0x2B17 JUMPI PUSH2 0x2B16 PUSH2 0x2AB0 JUMP JUMPDEST JUMPDEST POP SWAP3 SWAP2 POP POP JUMP JUMPDEST PUSH32 0x4E487B7100000000000000000000000000000000000000000000000000000000 PUSH0 MSTORE PUSH1 0x12 PUSH1 0x4 MSTORE PUSH1 0x24 PUSH0 REVERT JUMPDEST PUSH0 PUSH2 0x2B55 DUP3 PUSH2 0x23DD JUMP JUMPDEST SWAP2 POP PUSH2 0x2B60 DUP4 PUSH2 0x23DD JUMP JUMPDEST SWAP3 POP DUP3 PUSH2 0x2B70 JUMPI PUSH2 0x2B6F PUSH2 0x2B1E JUMP JUMPDEST JUMPDEST DUP3 DUP3 DIV SWAP1 POP SWAP3 SWAP2 POP POP JUMP JUMPDEST PUSH0 PUSH2 0x2B85 DUP3 PUSH2 0x23DD JUMP JUMPDEST SWAP2 POP PUSH2 0x2B90 DUP4 PUSH2 0x23DD JUMP JUMPDEST SWAP3 POP DUP3 DUP3 ADD SWAP1 POP DUP1 DUP3 GT ISZERO PUSH2 0x2BA8 JUMPI PUSH2 0x2BA7 PUSH2 0x2AB0 JUMP JUMPDEST JUMPDEST SWAP3 SWAP2 POP POP JUMP JUMPDEST PUSH0 PUSH2 0x2BB8 DUP3 PUSH2 0x23DD JUMP JUMPDEST SWAP2 POP PUSH2 0x2BC3 DUP4 PUSH2 0x23DD JUMP JUMPDEST SWAP3 POP DUP3 DUP3 SUB SWAP1 POP DUP2 DUP2 GT ISZERO PUSH2 0x2BDB JUMPI PUSH2 0x2BDA PUSH2 0x2AB0 JUMP JUMPDEST JUMPDEST SWAP3 SWAP2 POP POP JUMP JUMPDEST PUSH32 0x4E487B7100000000000000000000000000000000000000000000000000000000 PUSH0 MSTORE PUSH1 0x22 PUSH1 0x4 MSTORE PUSH1 0x24 PUSH0 REVERT JUMPDEST PUSH0 PUSH1 0x2 DUP3 DIV SWAP1 POP PUSH1 0x1 DUP3 AND DUP1 PUSH2 0x2C25 JUMPI PUSH1 0x7F DUP3 AND SWAP2 POP JUMPDEST PUSH1 0x20 DUP3 LT DUP2 SUB PUSH2 0x2C38 JUMPI PUSH2 0x2C37 PUSH2 0x2BE1 JUMP JUMPDEST JUMPDEST POP SWAP2 SWAP1 POP JUMP JUMPDEST PUSH0 DUP2 SWAP1 POP SWAP3 SWAP2 POP POP JUMP JUMPDEST POP JUMP JUMPDEST PUSH0 PUSH2 0x2C56 PUSH0 DUP4 PUSH2 0x2C3E JUMP JUMPDEST SWAP2 POP PUSH2 0x2C61 DUP3 PUSH2 0x2C48 JUMP JUMPDEST PUSH0 DUP3 ADD SWAP1 POP SWAP2 SWAP1 POP JUMP JUMPDEST PUSH0 PUSH2 0x2C75 DUP3 PUSH2 0x2C4B JUMP JUMPDEST SWAP2 POP DUP2 SWAP1 POP SWAP2 SWAP1 POP JUMP JUMPDEST PUSH32 0x4661696C656420746F207472616E736665722066756E64730000000000000000 PUSH0 DUP3 ADD MSTORE POP JUMP JUMPDEST PUSH0 PUSH2 0x2CB3 PUSH1 0x18 DUP4 PUSH2 0x246A JUMP JUMPDEST SWAP2 POP PUSH2 0x2CBE DUP3 PUSH2 0x2C7F JUMP JUMPDEST PUSH1 0x20 DUP3 ADD SWAP1 POP SWAP2 SWAP1 POP JUMP JUMPDEST PUSH0 PUSH1 0x20 DUP3 ADD SWAP1 POP DUP2 DUP2 SUB PUSH0 DUP4 ADD MSTORE PUSH2 0x2CE0 DUP2 PUSH2 0x2CA7 JUMP JUMPDEST SWAP1 POP SWAP2 SWAP1 POP JUMP JUMPDEST PUSH32 0x4E487B7100000000000000000000000000000000000000000000000000000000 PUSH0 MSTORE PUSH1 0x41 PUSH1 0x4 MSTORE PUSH1 0x24 PUSH0 REVERT JUMPDEST PUSH0 PUSH1 0xC0 DUP3 ADD SWAP1 POP PUSH2 0x2D27 PUSH0 DUP4 ADD DUP10 PUSH2 0x267F JUMP JUMPDEST PUSH2 0x2D34 PUSH1 0x20 DUP4 ADD DUP9 PUSH2 0x270F JUMP JUMPDEST PUSH2 0x2D41 PUSH1 0x40 DUP4 ADD DUP8 PUSH2 0x270F JUMP JUMPDEST PUSH2 0x2D4E PUSH1 0x60 DUP4 ADD DUP7 PUSH2 0x261A JUMP JUMPDEST PUSH2 0x2D5B PUSH1 0x80 DUP4 ADD DUP6 PUSH2 0x261A JUMP JUMPDEST PUSH2 0x2D68 PUSH1 0xA0 DUP4 ADD DUP5 PUSH2 0x261A JUMP JUMPDEST SWAP8 SWAP7 POP POP POP POP POP POP POP JUMP JUMPDEST PUSH0 PUSH1 0x40 DUP3 ADD SWAP1 POP PUSH2 0x2D86 PUSH0 DUP4 ADD DUP6 PUSH2 0x270F JUMP JUMPDEST PUSH2 0x2D93 PUSH1 0x20 DUP4 ADD DUP5 PUSH2 0x270F JUMP JUMPDEST SWAP4 SWAP3 POP POP POP JUMP JUMPDEST PUSH32 0x4E487B7100000000000000000000000000000000000000000000000000000000 PUSH0 MSTORE PUSH1 0x32 PUSH1 0x4 MSTORE PUSH1 0x24 PUSH0 REVERT JUMPDEST PUSH0 DUP2 MLOAD SWAP1 POP PUSH2 0x2DD5 DUP2 PUSH2 0x23B3 JUMP JUMPDEST SWAP3 SWAP2 POP POP JUMP JUMPDEST PUSH0 PUSH1 0x20 DUP3 DUP5 SUB SLT ISZERO PUSH2 0x2DF0 JUMPI PUSH2 0x2DEF PUSH2 0x237F JUMP JUMPDEST JUMPDEST PUSH0 PUSH2 0x2DFD DUP5 DUP3 DUP6 ADD PUSH2 0x2DC7 JUMP JUMPDEST SWAP2 POP POP SWAP3 SWAP2 POP POP JUMP JUMPDEST PUSH32 0x496E73756666696369656E7420746F6B656E7320696E20636F6E747261637400 PUSH0 DUP3 ADD MSTORE POP JUMP JUMPDEST PUSH0 PUSH2 0x2E3A PUSH1 0x1F DUP4 PUSH2 0x246A JUMP JUMPDEST SWAP2 POP PUSH2 0x2E45 DUP3 PUSH2 0x2E06 JUMP JUMPDEST PUSH1 0x20 DUP3 ADD SWAP1 POP SWAP2 SWAP1 POP JUMP JUMPDEST PUSH0 PUSH1 0x20 DUP3 ADD SWAP1 POP DUP2 DUP2 SUB PUSH0 DUP4 ADD MSTORE PUSH2 0x2E67 DUP2 PUSH2 0x2E2E JUMP JUMPDEST SWAP1 POP SWAP2 SWAP1 POP JUMP JUMPDEST PUSH32 0x537761702072657175657374206578636565647320616C6C6F77616E63650000 PUSH0 DUP3 ADD MSTORE POP JUMP JUMPDEST PUSH0 PUSH2 0x2EA2 PUSH1 0x1E DUP4 PUSH2 0x246A JUMP JUMPDEST SWAP2 POP PUSH2 0x2EAD DUP3 PUSH2 0x2E6E JUMP JUMPDEST PUSH1 0x20 DUP3 ADD SWAP1 POP SWAP2 SWAP1 POP JUMP JUMPDEST PUSH0 PUSH1 0x20 DUP3 ADD SWAP1 POP DUP2 DUP2 SUB PUSH0 DUP4 ADD MSTORE PUSH2 0x2ECF DUP2 PUSH2 0x2E96 JUMP JUMPDEST SWAP1 POP SWAP2 SWAP1 POP JUMP JUMPDEST PUSH0 DUP2 SWAP1 POP SWAP2 SWAP1 POP JUMP JUMPDEST PUSH0 PUSH2 0x2EF9 PUSH2 0x2EF4 PUSH2 0x2EEF DUP5 PUSH2 0x2ED6 JUMP JUMPDEST PUSH2 0x25A6 JUMP JUMPDEST PUSH2 0x23DD JUMP JUMPDEST SWAP1 POP SWAP2 SWAP1 POP JUMP JUMPDEST PUSH2 0x2F09 DUP2 PUSH2 0x2EDF JUMP JUMPDEST DUP3 MSTORE POP POP JUMP JUMPDEST PUSH0 DUP2 MLOAD SWAP1 POP SWAP2 SWAP1 POP JUMP JUMPDEST PUSH0 DUP3 DUP3 MSTORE PUSH1 0x20 DUP3 ADD SWAP1 POP SWAP3 SWAP2 POP POP JUMP JUMPDEST PUSH0 DUP2 SWAP1 POP PUSH1 0x20 DUP3 ADD SWAP1 POP SWAP2 SWAP1 POP JUMP JUMPDEST PUSH2 0x2F41 DUP2 PUSH2 0x23A2 JUMP JUMPDEST DUP3 MSTORE POP POP JUMP JUMPDEST PUSH0 PUSH2 0x2F52 DUP4 DUP4 PUSH2 0x2F38 JUMP JUMPDEST PUSH1 0x20 DUP4 ADD SWAP1 POP SWAP3 SWAP2 POP POP JUMP JUMPDEST PUSH0 PUSH1 0x20 DUP3 ADD SWAP1 POP SWAP2 SWAP1 POP JUMP JUMPDEST PUSH0 PUSH2 0x2F74 DUP3 PUSH2 0x2F0F JUMP JUMPDEST PUSH2 0x2F7E DUP2 DUP6 PUSH2 0x2F19 JUMP JUMPDEST SWAP4 POP PUSH2 0x2F89 DUP4 PUSH2 0x2F29 JUMP JUMPDEST DUP1 PUSH0 JUMPDEST DUP4 DUP2 LT ISZERO PUSH2 0x2FB9 JUMPI DUP2 MLOAD PUSH2 0x2FA0 DUP9 DUP3 PUSH2 0x2F47 JUMP JUMPDEST SWAP8 POP PUSH2 0x2FAB DUP4 PUSH2 0x2F5E JUMP JUMPDEST SWAP3 POP POP PUSH1 0x1 DUP2 ADD SWAP1 POP PUSH2 0x2F8C JUMP JUMPDEST POP DUP6 SWAP4 POP POP POP POP SWAP3 SWAP2 POP POP JUMP JUMPDEST PUSH0 PUSH1 0xA0 DUP3 ADD SWAP1 POP PUSH2 0x2FD9 PUSH0 DUP4 ADD DUP9 PUSH2 0x261A JUMP JUMPDEST PUSH2 0x2FE6 PUSH1 0x20 DUP4 ADD DUP8 PUSH2 0x2F00 JUMP JUMPDEST DUP2 DUP2 SUB PUSH1 0x40 DUP4 ADD MSTORE PUSH2 0x2FF8 DUP2 DUP7 PUSH2 0x2F6A JUMP JUMPDEST SWAP1 POP PUSH2 0x3007 PUSH1 0x60 DUP4 ADD DUP6 PUSH2 0x270F JUMP JUMPDEST PUSH2 0x3014 PUSH1 0x80 DUP4 ADD DUP5 PUSH2 0x261A JUMP JUMPDEST SWAP7 SWAP6 POP POP POP POP POP POP JUMP JUMPDEST PUSH32 0x5377617020746F20455448206661696C65642C206E6F20455448207265636569 PUSH0 DUP3 ADD MSTORE PUSH32 0x7665640000000000000000000000000000000000000000000000000000000000 PUSH1 0x20 DUP3 ADD MSTORE POP JUMP JUMPDEST PUSH0 PUSH2 0x3078 PUSH1 0x23 DUP4 PUSH2 0x246A JUMP JUMPDEST SWAP2 POP PUSH2 0x3083 DUP3 PUSH2 0x301E JUMP JUMPDEST PUSH1 0x40 DUP3 ADD SWAP1 POP SWAP2 SWAP1 POP JUMP JUMPDEST PUSH0 PUSH1 0x20 DUP3 ADD SWAP1 POP DUP2 DUP2 SUB PUSH0 DUP4 ADD MSTORE PUSH2 0x30A5 DUP2 PUSH2 0x306C JUMP JUMPDEST SWAP1 POP SWAP2 SWAP1 POP JUMP JUMPDEST PUSH0 PUSH1 0x60 DUP3 ADD SWAP1 POP PUSH2 0x30BF PUSH0 DUP4 ADD DUP7 PUSH2 0x270F JUMP JUMPDEST PUSH2 0x30CC PUSH1 0x20 DUP4 ADD DUP6 PUSH2 0x261A JUMP JUMPDEST PUSH2 0x30D9 PUSH1 0x40 DUP4 ADD DUP5 PUSH2 0x261A JUMP JUMPDEST SWAP5 SWAP4 POP POP POP POP JUMP JUMPDEST PUSH32 0x4E6F7420656E6F7567682045544820666F72206C697175696469747900000000 PUSH0 DUP3 ADD MSTORE POP JUMP JUMPDEST PUSH0 PUSH2 0x3115 PUSH1 0x1C DUP4 PUSH2 0x246A JUMP JUMPDEST SWAP2 POP PUSH2 0x3120 DUP3 PUSH2 0x30E1 JUMP JUMPDEST PUSH1 0x20 DUP3 ADD SWAP1 POP SWAP2 SWAP1 POP JUMP JUMPDEST PUSH0 PUSH1 0x20 DUP3 ADD SWAP1 POP DUP2 DUP2 SUB PUSH0 DUP4 ADD MSTORE PUSH2 0x3142 DUP2 PUSH2 0x3109 JUMP JUMPDEST SWAP1 POP SWAP2 SWAP1 POP JUMP JUMPDEST PUSH32 0x4C6971756964697479206164646974696F6E2072657175657374206578636565 PUSH0 DUP3 ADD MSTORE PUSH32 0x647320616C6C6F77616E63650000000000000000000000000000000000000000 PUSH1 0x20 DUP3 ADD MSTORE POP JUMP JUMPDEST PUSH0 PUSH2 0x31A3 PUSH1 0x2C DUP4 PUSH2 0x246A JUMP JUMPDEST SWAP2 POP PUSH2 0x31AE DUP3 PUSH2 0x3149 JUMP JUMPDEST PUSH1 0x40 DUP3 ADD SWAP1 POP SWAP2 SWAP1 POP JUMP JUMPDEST PUSH0 PUSH1 0x20 DUP3 ADD SWAP1 POP DUP2 DUP2 SUB PUSH0 DUP4 ADD MSTORE PUSH2 0x31D0 DUP2 PUSH2 0x3197 JUMP JUMPDEST SWAP1 POP SWAP2 SWAP1 POP JUMP JUMPDEST PUSH0 PUSH1 0xC0 DUP3 ADD SWAP1 POP PUSH2 0x31EA PUSH0 DUP4 ADD DUP10 PUSH2 0x270F JUMP JUMPDEST PUSH2 0x31F7 PUSH1 0x20 DUP4 ADD DUP9 PUSH2 0x261A JUMP JUMPDEST PUSH2 0x3204 PUSH1 0x40 DUP4 ADD DUP8 PUSH2 0x2F00 JUMP JUMPDEST PUSH2 0x3211 PUSH1 0x60 DUP4 ADD DUP7 PUSH2 0x2F00 JUMP JUMPDEST PUSH2 0x321E PUSH1 0x80 DUP4 ADD DUP6 PUSH2 0x270F JUMP JUMPDEST PUSH2 0x322B PUSH1 0xA0 DUP4 ADD DUP5 PUSH2 0x261A JUMP JUMPDEST SWAP8 SWAP7 POP POP POP POP POP POP POP JUMP JUMPDEST PUSH0 DUP2 MLOAD SWAP1 POP PUSH2 0x3244 DUP2 PUSH2 0x23E6 JUMP JUMPDEST SWAP3 SWAP2 POP POP JUMP JUMPDEST PUSH0 DUP1 PUSH0 PUSH1 0x60 DUP5 DUP7 SUB SLT ISZERO PUSH2 0x3261 JUMPI PUSH2 0x3260 PUSH2 0x237F JUMP JUMPDEST JUMPDEST PUSH0 PUSH2 0x326E DUP7 DUP3 DUP8 ADD PUSH2 0x3236 JUMP JUMPDEST SWAP4 POP POP PUSH1 0x20 PUSH2 0x327F DUP7 DUP3 DUP8 ADD PUSH2 0x3236 JUMP JUMPDEST SWAP3 POP POP PUSH1 0x40 PUSH2 0x3290 DUP7 DUP3 DUP8 ADD PUSH2 0x3236 JUMP JUMPDEST SWAP2 POP POP SWAP3 POP SWAP3 POP SWAP3 JUMP JUMPDEST PUSH0 PUSH1 0xA0 DUP3 ADD SWAP1 POP PUSH2 0x32AD PUSH0 DUP4 ADD DUP9 PUSH2 0x267F JUMP JUMPDEST PUSH2 0x32BA PUSH1 0x20 DUP4 ADD DUP8 PUSH2 0x267F JUMP JUMPDEST PUSH2 0x32C7 PUSH1 0x40 DUP4 ADD DUP7 PUSH2 0x267F JUMP JUMPDEST PUSH2 0x32D4 PUSH1 0x60 DUP4 ADD DUP6 PUSH2 0x261A JUMP JUMPDEST PUSH2 0x32E1 PUSH1 0x80 DUP4 ADD DUP5 PUSH2 0x270F JUMP JUMPDEST SWAP7 SWAP6 POP POP POP POP POP POP JUMP JUMPDEST PUSH0 PUSH1 0x80 DUP3 ADD SWAP1 POP PUSH2 0x32FE PUSH0 DUP4 ADD DUP8 PUSH2 0x267F JUMP JUMPDEST PUSH2 0x330B PUSH1 0x20 DUP4 ADD DUP7 PUSH2 0x264E JUMP JUMPDEST PUSH2 0x3318 PUSH1 0x40 DUP4 ADD DUP6 PUSH2 0x267F JUMP JUMPDEST PUSH2 0x3325 PUSH1 0x60 DUP4 ADD DUP5 PUSH2 0x267F JUMP JUMPDEST SWAP6 SWAP5 POP POP POP POP POP JUMP JUMPDEST PUSH32 0x4E487B7100000000000000000000000000000000000000000000000000000000 PUSH0 MSTORE PUSH1 0x21 PUSH1 0x4 MSTORE PUSH1 0x24 PUSH0 REVERT INVALID LOG2 PUSH5 0x6970667358 0x22 SLT KECCAK256 0xF PUSH8 0xCD2032A239D28931 0xFC 0xAF 0xB0 0x5C SELFBALANCE ADDRESS KECCAK256 SWAP7 0x49 0xD9 SWAP11 SSTORE CODESIZE PUSH27 0xEAA10BB0C5C2E64964736F6C634300081400330000000000000000 "
		},
		"gasEstimates": {
			"creation": {
				"codeDepositCost": "2640200",
				"executionCost": "infinite",
				"totalCost": "infinite"
			},
			"external": {
				"DOMAIN_SEPARATOR()": "infinite",
				"_transferWithFee(address,address,uint256)": "infinite",
				"addLiquidityPool(address,bool)": "infinite",
				"allowance(address,address)": "infinite",
				"approve(address,uint256)": "infinite",
				"approveMax(address)": "infinite",
				"balanceOf(address)": "2875",
				"charityAddress()": "2619",
				"charityFee()": "2605",
				"clearStuckBalance(uint256,address)": "infinite",
				"decimals()": "384",
				"devMarketingFee()": "2562",
				"eip712Domain()": "infinite",
				"liquidityFee()": "2584",
				"liquidityPools(address)": "2879",
				"marketingDevAddress()": "2619",
				"name()": "infinite",
				"nonces(address)": "2983",
				"owner()": "2604",
				"pairV2()": "2619",
				"permit(address,address,uint256,uint256,uint8,bytes32,bytes32)": "infinite",
				"renounceOwnership()": "infinite",
				"swapDisableOrEnable(bool)": "infinite",
				"swapEnabled()": "2606",
				"symbol()": "infinite",
				"totalSupply()": "2522",
				"transfer(address,uint256)": "infinite",
				"transferFrom(address,address,uint256)": "infinite",
				"transferOwnership(address)": "infinite",
				"uniswapV2Router()": "infinite",
				"uniswapV2RouterAddress()": "2620"
			},
			"internal": {
				"addLiquidityETH(uint256,uint256,address)": "infinite",
				"sendETHToWallet(address payable,uint256)": "infinite",
				"swapToETH(uint256)": "infinite",
				"swapTokensForEthAndAddLiquidity(address,uint256)": "infinite"
			}
		},
		"methodIdentifiers": {
			"DOMAIN_SEPARATOR()": "3644e515",
			"_transferWithFee(address,address,uint256)": "0298a5f7",
			"addLiquidityPool(address,bool)": "492a937b",
			"allowance(address,address)": "dd62ed3e",
			"approve(address,uint256)": "095ea7b3",
			"approveMax(address)": "571ac8b0",
			"balanceOf(address)": "70a08231",
			"charityAddress()": "afcf2fc4",
			"charityFee()": "ecfca899",
			"clearStuckBalance(uint256,address)": "56a227f2",
			"decimals()": "313ce567",
			"devMarketingFee()": "83afaac0",
			"eip712Domain()": "84b0196e",
			"liquidityFee()": "98118cb4",
			"liquidityPools(address)": "0b0fd47e",
			"marketingDevAddress()": "6e03832a",
			"name()": "06fdde03",
			"nonces(address)": "7ecebe00",
			"owner()": "8da5cb5b",
			"pairV2()": "8fffabed",
			"permit(address,address,uint256,uint256,uint8,bytes32,bytes32)": "d505accf",
			"renounceOwnership()": "715018a6",
			"swapDisableOrEnable(bool)": "7e060bf6",
			"swapEnabled()": "6ddd1713",
			"symbol()": "95d89b41",
			"totalSupply()": "18160ddd",
			"transfer(address,uint256)": "a9059cbb",
			"transferFrom(address,address,uint256)": "23b872dd",
			"transferOwnership(address)": "f2fde38b",
			"uniswapV2Router()": "1694505e",
			"uniswapV2RouterAddress()": "4a377e1d"
		}
	},
	"abi": [
		{
			"inputs": [
				{
					"internalType": "address",
					"name": "initialOwner",
					"type": "address"
				}
			],
			"stateMutability": "nonpayable",
			"type": "constructor"
		},
		{
			"inputs": [],
			"name": "ECDSAInvalidSignature",
			"type": "error"
		},
		{
			"inputs": [
				{
					"internalType": "uint256",
					"name": "length",
					"type": "uint256"
				}
			],
			"name": "ECDSAInvalidSignatureLength",
			"type": "error"
		},
		{
			"inputs": [
				{
					"internalType": "bytes32",
					"name": "s",
					"type": "bytes32"
				}
			],
			"name": "ECDSAInvalidSignatureS",
			"type": "error"
		},
		{
			"inputs": [
				{
					"internalType": "address",
					"name": "spender",
					"type": "address"
				},
				{
					"internalType": "uint256",
					"name": "allowance",
					"type": "uint256"
				},
				{
					"internalType": "uint256",
					"name": "needed",
					"type": "uint256"
				}
			],
			"name": "ERC20InsufficientAllowance",
			"type": "error"
		},
		{
			"inputs": [
				{
					"internalType": "address",
					"name": "sender",
					"type": "address"
				},
				{
					"internalType": "uint256",
					"name": "balance",
					"type": "uint256"
				},
				{
					"internalType": "uint256",
					"name": "needed",
					"type": "uint256"
				}
			],
			"name": "ERC20InsufficientBalance",
			"type": "error"
		},
		{
			"inputs": [
				{
					"internalType": "address",
					"name": "approver",
					"type": "address"
				}
			],
			"name": "ERC20InvalidApprover",
			"type": "error"
		},
		{
			"inputs": [
				{
					"internalType": "address",
					"name": "receiver",
					"type": "address"
				}
			],
			"name": "ERC20InvalidReceiver",
			"type": "error"
		},
		{
			"inputs": [
				{
					"internalType": "address",
					"name": "sender",
					"type": "address"
				}
			],
			"name": "ERC20InvalidSender",
			"type": "error"
		},
		{
			"inputs": [
				{
					"internalType": "address",
					"name": "spender",
					"type": "address"
				}
			],
			"name": "ERC20InvalidSpender",
			"type": "error"
		},
		{
			"inputs": [
				{
					"internalType": "uint256",
					"name": "deadline",
					"type": "uint256"
				}
			],
			"name": "ERC2612ExpiredSignature",
			"type": "error"
		},
		{
			"inputs": [
				{
					"internalType": "address",
					"name": "signer",
					"type": "address"
				},
				{
					"internalType": "address",
					"name": "owner",
					"type": "address"
				}
			],
			"name": "ERC2612InvalidSigner",
			"type": "error"
		},
		{
			"inputs": [
				{
					"internalType": "address",
					"name": "account",
					"type": "address"
				},
				{
					"internalType": "uint256",
					"name": "currentNonce",
					"type": "uint256"
				}
			],
			"name": "InvalidAccountNonce",
			"type": "error"
		},
		{
			"inputs": [],
			"name": "InvalidShortString",
			"type": "error"
		},
		{
			"inputs": [
				{
					"internalType": "address",
					"name": "owner",
					"type": "address"
				}
			],
			"name": "OwnableInvalidOwner",
			"type": "error"
		},
		{
			"inputs": [
				{
					"internalType": "address",
					"name": "account",
					"type": "address"
				}
			],
			"name": "OwnableUnauthorizedAccount",
			"type": "error"
		},
		{
			"inputs": [
				{
					"internalType": "string",
					"name": "str",
					"type": "string"
				}
			],
			"name": "StringTooLong",
			"type": "error"
		},
		{
			"anonymous": false,
			"inputs": [
				{
					"indexed": true,
					"internalType": "address",
					"name": "owner",
					"type": "address"
				},
				{
					"indexed": true,
					"internalType": "address",
					"name": "spender",
					"type": "address"
				},
				{
					"indexed": false,
					"internalType": "uint256",
					"name": "value",
					"type": "uint256"
				}
			],
			"name": "Approval",
			"type": "event"
		},
		{
			"anonymous": false,
			"inputs": [],
			"name": "EIP712DomainChanged",
			"type": "event"
		},
		{
			"anonymous": false,
			"inputs": [
				{
					"indexed": true,
					"internalType": "address",
					"name": "previousOwner",
					"type": "address"
				},
				{
					"indexed": true,
					"internalType": "address",
					"name": "newOwner",
					"type": "address"
				}
			],
			"name": "OwnershipTransferred",
			"type": "event"
		},
		{
			"anonymous": false,
			"inputs": [
				{
					"indexed": true,
					"internalType": "address",
					"name": "from",
					"type": "address"
				},
				{
					"indexed": true,
					"internalType": "address",
					"name": "to",
					"type": "address"
				},
				{
					"indexed": false,
					"internalType": "uint256",
					"name": "value",
					"type": "uint256"
				}
			],
			"name": "Transfer",
			"type": "event"
		},
		{
			"inputs": [],
			"name": "DOMAIN_SEPARATOR",
			"outputs": [
				{
					"internalType": "bytes32",
					"name": "",
					"type": "bytes32"
				}
			],
			"stateMutability": "view",
			"type": "function"
		},
		{
			"inputs": [
				{
					"internalType": "address",
					"name": "sender",
					"type": "address"
				},
				{
					"internalType": "address",
					"name": "recipient",
					"type": "address"
				},
				{
					"internalType": "uint256",
					"name": "amount",
					"type": "uint256"
				}
			],
			"name": "_transferWithFee",
			"outputs": [],
			"stateMutability": "nonpayable",
			"type": "function"
		},
		{
			"inputs": [
				{
					"internalType": "address",
					"name": "_liquidityAddress",
					"type": "address"
				},
				{
					"internalType": "bool",
					"name": "_isActive",
					"type": "bool"
				}
			],
			"name": "addLiquidityPool",
			"outputs": [],
			"stateMutability": "nonpayable",
			"type": "function"
		},
		{
			"inputs": [
				{
					"internalType": "address",
					"name": "owner",
					"type": "address"
				},
				{
					"internalType": "address",
					"name": "spender",
					"type": "address"
				}
			],
			"name": "allowance",
			"outputs": [
				{
					"internalType": "uint256",
					"name": "",
					"type": "uint256"
				}
			],
			"stateMutability": "view",
			"type": "function"
		},
		{
			"inputs": [
				{
					"internalType": "address",
					"name": "spender",
					"type": "address"
				},
				{
					"internalType": "uint256",
					"name": "value",
					"type": "uint256"
				}
			],
			"name": "approve",
			"outputs": [
				{
					"internalType": "bool",
					"name": "",
					"type": "bool"
				}
			],
			"stateMutability": "nonpayable",
			"type": "function"
		},
		{
			"inputs": [
				{
					"internalType": "address",
					"name": "spender",
					"type": "address"
				}
			],
			"name": "approveMax",
			"outputs": [
				{
					"internalType": "bool",
					"name": "",
					"type": "bool"
				}
			],
			"stateMutability": "nonpayable",
			"type": "function"
		},
		{
			"inputs": [
				{
					"internalType": "address",
					"name": "account",
					"type": "address"
				}
			],
			"name": "balanceOf",
			"outputs": [
				{
					"internalType": "uint256",
					"name": "",
					"type": "uint256"
				}
			],
			"stateMutability": "view",
			"type": "function"
		},
		{
			"inputs": [],
			"name": "charityAddress",
			"outputs": [
				{
					"internalType": "address payable",
					"name": "",
					"type": "address"
				}
			],
			"stateMutability": "view",
			"type": "function"
		},
		{
			"inputs": [],
			"name": "charityFee",
			"outputs": [
				{
					"internalType": "uint16",
					"name": "",
					"type": "uint16"
				}
			],
			"stateMutability": "view",
			"type": "function"
		},
		{
			"inputs": [
				{
					"internalType": "uint256",
					"name": "amountPercentage",
					"type": "uint256"
				},
				{
					"internalType": "address",
					"name": "adr",
					"type": "address"
				}
			],
			"name": "clearStuckBalance",
			"outputs": [],
			"stateMutability": "nonpayable",
			"type": "function"
		},
		{
			"inputs": [],
			"name": "decimals",
			"outputs": [
				{
					"internalType": "uint8",
					"name": "",
					"type": "uint8"
				}
			],
			"stateMutability": "view",
			"type": "function"
		},
		{
			"inputs": [],
			"name": "devMarketingFee",
			"outputs": [
				{
					"internalType": "uint16",
					"name": "",
					"type": "uint16"
				}
			],
			"stateMutability": "view",
			"type": "function"
		},
		{
			"inputs": [],
			"name": "eip712Domain",
			"outputs": [
				{
					"internalType": "bytes1",
					"name": "fields",
					"type": "bytes1"
				},
				{
					"internalType": "string",
					"name": "name",
					"type": "string"
				},
				{
					"internalType": "string",
					"name": "version",
					"type": "string"
				},
				{
					"internalType": "uint256",
					"name": "chainId",
					"type": "uint256"
				},
				{
					"internalType": "address",
					"name": "verifyingContract",
					"type": "address"
				},
				{
					"internalType": "bytes32",
					"name": "salt",
					"type": "bytes32"
				},
				{
					"internalType": "uint256[]",
					"name": "extensions",
					"type": "uint256[]"
				}
			],
			"stateMutability": "view",
			"type": "function"
		},
		{
			"inputs": [],
			"name": "liquidityFee",
			"outputs": [
				{
					"internalType": "uint16",
					"name": "",
					"type": "uint16"
				}
			],
			"stateMutability": "view",
			"type": "function"
		},
		{
			"inputs": [
				{
					"internalType": "address",
					"name": "",
					"type": "address"
				}
			],
			"name": "liquidityPools",
			"outputs": [
				{
					"internalType": "bool",
					"name": "",
					"type": "bool"
				}
			],
			"stateMutability": "view",
			"type": "function"
		},
		{
			"inputs": [],
			"name": "marketingDevAddress",
			"outputs": [
				{
					"internalType": "address payable",
					"name": "",
					"type": "address"
				}
			],
			"stateMutability": "view",
			"type": "function"
		},
		{
			"inputs": [],
			"name": "name",
			"outputs": [
				{
					"internalType": "string",
					"name": "",
					"type": "string"
				}
			],
			"stateMutability": "view",
			"type": "function"
		},
		{
			"inputs": [
				{
					"internalType": "address",
					"name": "owner",
					"type": "address"
				}
			],
			"name": "nonces",
			"outputs": [
				{
					"internalType": "uint256",
					"name": "",
					"type": "uint256"
				}
			],
			"stateMutability": "view",
			"type": "function"
		},
		{
			"inputs": [],
			"name": "owner",
			"outputs": [
				{
					"internalType": "address",
					"name": "",
					"type": "address"
				}
			],
			"stateMutability": "view",
			"type": "function"
		},
		{
			"inputs": [],
			"name": "pairV2",
			"outputs": [
				{
					"internalType": "address",
					"name": "",
					"type": "address"
				}
			],
			"stateMutability": "view",
			"type": "function"
		},
		{
			"inputs": [
				{
					"internalType": "address",
					"name": "owner",
					"type": "address"
				},
				{
					"internalType": "address",
					"name": "spender",
					"type": "address"
				},
				{
					"internalType": "uint256",
					"name": "value",
					"type": "uint256"
				},
				{
					"internalType": "uint256",
					"name": "deadline",
					"type": "uint256"
				},
				{
					"internalType": "uint8",
					"name": "v",
					"type": "uint8"
				},
				{
					"internalType": "bytes32",
					"name": "r",
					"type": "bytes32"
				},
				{
					"internalType": "bytes32",
					"name": "s",
					"type": "bytes32"
				}
			],
			"name": "permit",
			"outputs": [],
			"stateMutability": "nonpayable",
			"type": "function"
		},
		{
			"inputs": [],
			"name": "renounceOwnership",
			"outputs": [],
			"stateMutability": "nonpayable",
			"type": "function"
		},
		{
			"inputs": [
				{
					"internalType": "bool",
					"name": "_status",
					"type": "bool"
				}
			],
			"name": "swapDisableOrEnable",
			"outputs": [],
			"stateMutability": "nonpayable",
			"type": "function"
		},
		{
			"inputs": [],
			"name": "swapEnabled",
			"outputs": [
				{
					"internalType": "bool",
					"name": "",
					"type": "bool"
				}
			],
			"stateMutability": "view",
			"type": "function"
		},
		{
			"inputs": [],
			"name": "symbol",
			"outputs": [
				{
					"internalType": "string",
					"name": "",
					"type": "string"
				}
			],
			"stateMutability": "view",
			"type": "function"
		},
		{
			"inputs": [],
			"name": "totalSupply",
			"outputs": [
				{
					"internalType": "uint256",
					"name": "",
					"type": "uint256"
				}
			],
			"stateMutability": "view",
			"type": "function"
		},
		{
			"inputs": [
				{
					"internalType": "address",
					"name": "recipient",
					"type": "address"
				},
				{
					"internalType": "uint256",
					"name": "amount",
					"type": "uint256"
				}
			],
			"name": "transfer",
			"outputs": [
				{
					"internalType": "bool",
					"name": "",
					"type": "bool"
				}
			],
			"stateMutability": "nonpayable",
			"type": "function"
		},
		{
			"inputs": [
				{
					"internalType": "address",
					"name": "sender",
					"type": "address"
				},
				{
					"internalType": "address",
					"name": "recipient",
					"type": "address"
				},
				{
					"internalType": "uint256",
					"name": "amount",
					"type": "uint256"
				}
			],
			"name": "transferFrom",
			"outputs": [
				{
					"internalType": "bool",
					"name": "",
					"type": "bool"
				}
			],
			"stateMutability": "nonpayable",
			"type": "function"
		},
		{
			"inputs": [
				{
					"internalType": "address",
					"name": "newOwner",
					"type": "address"
				}
			],
			"name": "transferOwnership",
			"outputs": [],
			"stateMutability": "nonpayable",
			"type": "function"
		},
		{
			"inputs": [],
			"name": "uniswapV2Router",
			"outputs": [
				{
					"internalType": "contract IUniswapV2Router02",
					"name": "",
					"type": "address"
				}
			],
			"stateMutability": "view",
			"type": "function"
		},
		{
			"inputs": [],
			"name": "uniswapV2RouterAddress",
			"outputs": [
				{
					"internalType": "address",
					"name": "",
					"type": "address"
				}
			],
			"stateMutability": "view",
			"type": "function"
		},
		{
			"stateMutability": "payable",
			"type": "receive"
		}
	]
}