{
	"data": {
		"bytecode": {
			"linkReferences": {},
			"object": "61016060405273047c0d746d42ff4cee7d2cb1fbf5c0d090267931600a5f6101000a81548173ffffffffffffffffffffffffffffffffffffffff021916908373ffffffffffffffffffffffffffffffffffffffff160217905550730331535b9f37eb41f437ea0cfe345abb9d102a1a600b5f6101000a81548173ffffffffffffffffffffffffffffffffffffffff021916908373ffffffffffffffffffffffffffffffffffffffff16021790555073edf6066a2b290c185783862c7f4776a2c8077ad1600c5f6101000a81548173ffffffffffffffffffffffffffffffffffffffff021916908373ffffffffffffffffffffffffffffffffffffffff160217905550600a600e60146101000a81548161ffff021916908361ffff160217905550600a600e60166101000a81548161ffff021916908361ffff1602179055506009600e60186101000a81548161ffff021916908361ffff1602179055505f600e601a6101000a81548160ff0219169083151502179055505f600f555f6010555f6011553480156200018d575f80fd5b5060405162005dd438038062005dd48339818101604052810190620001b39190620019ef565b6040518060400160405280600781526020017f46726565646f6d00000000000000000000000000000000000000000000000000815250806040518060400160405280600181526020017f3100000000000000000000000000000000000000000000000000000000000000815250836040518060400160405280600c81526020017f46726565646f6d20436f696e00000000000000000000000000000000000000008152506040518060400160405280600581526020017f465245454400000000000000000000000000000000000000000000000000000081525081600390816200029e919062001c83565b508060049081620002b0919062001c83565b5050505f73ffffffffffffffffffffffffffffffffffffffff168173ffffffffffffffffffffffffffffffffffffffff160362000326575f6040517f1e4fbdf70000000000000000000000000000000000000000000000000000000081526004016200031d919062001d78565b60405180910390fd5b62000337816200084260201b60201c565b506200034e6006836200090560201b90919060201c565b61012081815250506200036c6007826200090560201b90919060201c565b6101408181525050818051906020012060e08181525050808051906020012061010081815250504660a08181525050620003ab6200095a60201b60201c565b608081815250503073ffffffffffffffffffffffffffffffffffffffff1660c08173ffffffffffffffffffffffffffffffffffffffff16815250505050505f620003fa620009b660201b60201c565b60ff16600a6200040b919062001f10565b626acfc06200041b919062001f60565b90506200042f8282620009be60201b60201c565b5f606460018362000441919062001f60565b6200044d919062001fd7565b90505f6103e860098462000462919062001f60565b6200046e919062001fd7565b9050620004a484600a5f9054906101000a900473ffffffffffffffffffffffffffffffffffffffff168462000a4860201b60201c565b50620004d984600b5f9054906101000a900473ffffffffffffffffffffffffffffffffffffffff168362000a4860201b60201c565b50600c5f9054906101000a900473ffffffffffffffffffffffffffffffffffffffff16600d5f6101000a81548173ffffffffffffffffffffffffffffffffffffffff021916908373ffffffffffffffffffffffffffffffffffffffff160217905550600d5f9054906101000a900473ffffffffffffffffffffffffffffffffffffffff1673ffffffffffffffffffffffffffffffffffffffff1663c45a01556040518163ffffffff1660e01b8152600401602060405180830381865afa158015620005a6573d5f803e3d5ffd5b505050506040513d601f19601f82011682018060405250810190620005cc9190620019ef565b73ffffffffffffffffffffffffffffffffffffffff1663c9c65396600d5f9054906101000a900473ffffffffffffffffffffffffffffffffffffffff1673ffffffffffffffffffffffffffffffffffffffff1663ad5c46486040518163ffffffff1660e01b8152600401602060405180830381865afa15801562000652573d5f803e3d5ffd5b505050506040513d601f19601f82011682018060405250810190620006789190620019ef565b306040518363ffffffff1660e01b8152600401620006989291906200200e565b6020604051808303815f875af1158015620006b5573d5f803e3d5ffd5b505050506040513d601f19601f82011682018060405250810190620006db9190620019ef565b600e5f6101000a81548173ffffffffffffffffffffffffffffffffffffffff021916908373ffffffffffffffffffffffffffffffffffffffff160217905550600160095f600e5f9054906101000a900473ffffffffffffffffffffffffffffffffffffffff1673ffffffffffffffffffffffffffffffffffffffff1673ffffffffffffffffffffffffffffffffffffffff1681526020019081526020015f205f6101000a81548160ff021916908315150217905550620007e433600c5f9054906101000a900473ffffffffffffffffffffffffffffffffffffffff167fffffffffffffffffffffffffffffffffffffffffffffffffffffffffffffffff62000a6760201b60201c565b6200083830600c5f9054906101000a900473ffffffffffffffffffffffffffffffffffffffff167fffffffffffffffffffffffffffffffffffffffffffffffffffffffffffffffff62000a6760201b60201c565b505050506200283d565b5f60055f9054906101000a900473ffffffffffffffffffffffffffffffffffffffff1690508160055f6101000a81548173ffffffffffffffffffffffffffffffffffffffff021916908373ffffffffffffffffffffffffffffffffffffffff1602179055508173ffffffffffffffffffffffffffffffffffffffff168173ffffffffffffffffffffffffffffffffffffffff167f8be0079c531659141344cd1fd0a4f28419497f9722a3daafe3b4186f6b6457e060405160405180910390a35050565b5f6020835110156200092a57620009228362000a8160201b60201c565b905062000954565b826200093c8362000aeb60201b60201c565b5f0190816200094c919062001c83565b5060ff5f1b90505b92915050565b5f7f8b73c3c69bb8fe3d512ecc4cf759cc79239f7b179b0ffacaa9a75d522b39400f60e0516101005146306040516020016200099b95949392919062002064565b60405160208183030381529060405280519060200120905090565b5f6012905090565b5f73ffffffffffffffffffffffffffffffffffffffff168273ffffffffffffffffffffffffffffffffffffffff160362000a31575f6040517fec442f0500000000000000000000000000000000000000000000000000000000815260040162000a28919062001d78565b60405180910390fd5b62000a445f838362000af460201b60201c565b5050565b5f62000a5c84848462000d1860201b60201c565b600190509392505050565b62000a7c838383600162000f2d60201b60201c565b505050565b5f80829050601f8151111562000ad057826040517f305a27a900000000000000000000000000000000000000000000000000000000815260040162000ac7919062002149565b60405180910390fd5b80518162000ade906200219a565b5f1c175f1b915050919050565b5f819050919050565b5f73ffffffffffffffffffffffffffffffffffffffff168373ffffffffffffffffffffffffffffffffffffffff160362000b48578060025f82825462000b3b919062002209565b9250508190555062000c19565b5f805f8573ffffffffffffffffffffffffffffffffffffffff1673ffffffffffffffffffffffffffffffffffffffff1681526020019081526020015f205490508181101562000bd4578381836040517fe450d38c00000000000000000000000000000000000000000000000000000000815260040162000bcb9392919062002243565b60405180910390fd5b8181035f808673ffffffffffffffffffffffffffffffffffffffff1673ffffffffffffffffffffffffffffffffffffffff1681526020019081526020015f2081905550505b5f73ffffffffffffffffffffffffffffffffffffffff168273ffffffffffffffffffffffffffffffffffffffff160362000c62578060025f828254039250508190555062000cac565b805f808473ffffffffffffffffffffffffffffffffffffffff1673ffffffffffffffffffffffffffffffffffffffff1681526020019081526020015f205f82825401925050819055505b8173ffffffffffffffffffffffffffffffffffffffff168373ffffffffffffffffffffffffffffffffffffffff167fddf252ad1be2c89b69c2b068fc378daa952ba7f163c4a11628f55a4df523b3ef8360405162000d0b91906200227e565b60405180910390a3505050565b5f6103e8600e60169054906101000a900461ffff1661ffff168362000d3e919062001f60565b62000d4a919062001fd7565b600f819055506103e8600e60149054906101000a900461ffff1661ffff168362000d75919062001f60565b62000d81919062001fd7565b6011819055506103e8600e60189054906101000a900461ffff1661ffff168362000dac919062001f60565b62000db8919062001fd7565b6010819055505f601054601154600f5462000dd4919062002209565b62000de0919062002209565b90505f818462000df1919062002299565b9050600e601b9054906101000a900460ff161562000e255762000e1c8686866200110560201b60201c565b50505062000f28565b600e601a9054906101000a900460ff16801562000eda575060095f8673ffffffffffffffffffffffffffffffffffffffff1673ffffffffffffffffffffffffffffffffffffffff1681526020019081526020015f205f9054906101000a900460ff168062000ed9575060095f8773ffffffffffffffffffffffffffffffffffffffff1673ffffffffffffffffffffffffffffffffffffffff1681526020019081526020015f205f9054906101000a900460ff165b5b1562000ef75781925062000ef68630846200110560201b60201c565b5b62000f0a8686836200110560201b60201c565b5f83111562000f245762000f236200120360201b60201c565b5b5050505b505050565b5f73ffffffffffffffffffffffffffffffffffffffff168473ffffffffffffffffffffffffffffffffffffffff160362000fa0575f6040517fe602df0500000000000000000000000000000000000000000000000000000000815260040162000f97919062001d78565b60405180910390fd5b5f73ffffffffffffffffffffffffffffffffffffffff168373ffffffffffffffffffffffffffffffffffffffff160362001013575f6040517f94280d620000000000000000000000000000000000000000000000000000000081526004016200100a919062001d78565b60405180910390fd5b8160015f8673ffffffffffffffffffffffffffffffffffffffff1673ffffffffffffffffffffffffffffffffffffffff1681526020019081526020015f205f8573ffffffffffffffffffffffffffffffffffffffff1673ffffffffffffffffffffffffffffffffffffffff1681526020019081526020015f20819055508015620010ff578273ffffffffffffffffffffffffffffffffffffffff168473ffffffffffffffffffffffffffffffffffffffff167f8c5be1e5ebec7d5bd14f71427d1e84f3dd0314c0f7b2291e5b200ac8c7c3b92584604051620010f691906200227e565b60405180910390a35b50505050565b5f73ffffffffffffffffffffffffffffffffffffffff168373ffffffffffffffffffffffffffffffffffffffff160362001178575f6040517f96c6fd1e0000000000000000000000000000000000000000000000000000000081526004016200116f919062001d78565b60405180910390fd5b5f73ffffffffffffffffffffffffffffffffffffffff168273ffffffffffffffffffffffffffffffffffffffff1603620011eb575f6040517fec442f05000000000000000000000000000000000000000000000000000000008152600401620011e2919062001d78565b60405180910390fd5b620011fe83838362000af460201b60201c565b505050565b6001600e601b6101000a81548160ff0219169083151502179055505f600f54111562001275576200126c6002600f546200123e919062001fd7565b600a5f9054906101000a900473ffffffffffffffffffffffffffffffffffffffff166200131560201b60201c565b505f600f819055505b5f6010541115620012cc57620012c3600260105462001295919062001fd7565b600b5f9054906101000a900473ffffffffffffffffffffffffffffffffffffffff166200131560201b60201c565b505f6010819055505b5f6011541115620012f957620012f86002601154620012ec919062001fd7565b6200164b60201b60201c565b5b5f600e601b6101000a81548160ff021916908315150217905550565b5f804790505f600267ffffffffffffffff81111562001339576200133862001a29565b5b604051908082528060200260200182016040528015620013685781602001602082028036833780820191505090505b50905030815f81518110620013825762001381620022d3565b5b602002602001019073ffffffffffffffffffffffffffffffffffffffff16908173ffffffffffffffffffffffffffffffffffffffff1681525050600d5f9054906101000a900473ffffffffffffffffffffffffffffffffffffffff1673ffffffffffffffffffffffffffffffffffffffff1663ad5c46486040518163ffffffff1660e01b8152600401602060405180830381865afa15801562001427573d5f803e3d5ffd5b505050506040513d601f19601f820116820180604052508101906200144d9190620019ef565b81600181518110620014645762001463620022d3565b5b602002602001019073ffffffffffffffffffffffffffffffffffffffff16908173ffffffffffffffffffffffffffffffffffffffff168152505084620014b030620016bb60201b60201c565b1015620014f4576040517f08c379a0000000000000000000000000000000000000000000000000000000008152600401620014eb906200234e565b60405180910390fd5b6200152830600c5f9054906101000a900473ffffffffffffffffffffffffffffffffffffffff168762000a6760201b60201c565b6200155b30600c5f9054906101000a900473ffffffffffffffffffffffffffffffffffffffff166200170060201b60201c565b851115620015a0576040517f08c379a00000000000000000000000000000000000000000000000000000000081526004016200159790620023bc565b60405180910390fd5b600d5f9054906101000a900473ffffffffffffffffffffffffffffffffffffffff1673ffffffffffffffffffffffffffffffffffffffff1663791ac947865f8488426040518663ffffffff1660e01b815260040162001604959493929190620024e4565b5f604051808303815f87803b1580156200161c575f80fd5b505af11580156200162f573d5f803e3d5ffd5b50505050814762001641919062002299565b9250505092915050565b5f6200165e82306200131560201b60201c565b90505f8111620016a5576040517f08c379a00000000000000000000000000000000000000000000000000000000081526004016200169c90620025ba565b60405180910390fd5b620016b782826200178260201b60201c565b5050565b5f805f8373ffffffffffffffffffffffffffffffffffffffff1673ffffffffffffffffffffffffffffffffffffffff1681526020019081526020015f20549050919050565b5f60015f8473ffffffffffffffffffffffffffffffffffffffff1673ffffffffffffffffffffffffffffffffffffffff1681526020019081526020015f205f8373ffffffffffffffffffffffffffffffffffffffff1673ffffffffffffffffffffffffffffffffffffffff1681526020019081526020015f2054905092915050565b80471015620017c8576040517f08c379a0000000000000000000000000000000000000000000000000000000008152600401620017bf9062002628565b60405180910390fd5b620017fc30600c5f9054906101000a900473ffffffffffffffffffffffffffffffffffffffff168462000a6760201b60201c565b6200182f30600d5f9054906101000a900473ffffffffffffffffffffffffffffffffffffffff166200170060201b60201c565b82111562001874576040517f08c379a00000000000000000000000000000000000000000000000000000000081526004016200186b90620026bc565b60405180910390fd5b5f805f600d5f9054906101000a900473ffffffffffffffffffffffffffffffffffffffff1673ffffffffffffffffffffffffffffffffffffffff1663f305d7198530885f803061025842620018ca919062002209565b6040518863ffffffff1660e01b8152600401620018ed96959493929190620026dc565b60606040518083038185885af11580156200190a573d5f803e3d5ffd5b50505050506040513d601f19601f8201168201806040525081019062001931919062002776565b9250925092505f81116200197c576040517f08c379a000000000000000000000000000000000000000000000000000000000815260040162001973906200281d565b60405180910390fd5b5f6011819055505050505050565b5f80fd5b5f73ffffffffffffffffffffffffffffffffffffffff82169050919050565b5f620019b9826200198e565b9050919050565b620019cb81620019ad565b8114620019d6575f80fd5b50565b5f81519050620019e981620019c0565b92915050565b5f6020828403121562001a075762001a066200198a565b5b5f62001a1684828501620019d9565b91505092915050565b5f81519050919050565b7f4e487b71000000000000000000000000000000000000000000000000000000005f52604160045260245ffd5b7f4e487b71000000000000000000000000000000000000000000000000000000005f52602260045260245ffd5b5f600282049050600182168062001a9b57607f821691505b60208210810362001ab15762001ab062001a56565b5b50919050565b5f819050815f5260205f209050919050565b5f6020601f8301049050919050565b5f82821b905092915050565b5f6008830262001b157fffffffffffffffffffffffffffffffffffffffffffffffffffffffffffffffff8262001ad8565b62001b21868362001ad8565b95508019841693508086168417925050509392505050565b5f819050919050565b5f819050919050565b5f62001b6b62001b6562001b5f8462001b39565b62001b42565b62001b39565b9050919050565b5f819050919050565b62001b868362001b4b565b62001b9e62001b958262001b72565b84845462001ae4565b825550505050565b5f90565b62001bb462001ba6565b62001bc181848462001b7b565b505050565b5b8181101562001be85762001bdc5f8262001baa565b60018101905062001bc7565b5050565b601f82111562001c375762001c018162001ab7565b62001c0c8462001ac9565b8101602085101562001c1c578190505b62001c3462001c2b8562001ac9565b83018262001bc6565b50505b505050565b5f82821c905092915050565b5f62001c595f198460080262001c3c565b1980831691505092915050565b5f62001c73838362001c48565b9150826002028217905092915050565b62001c8e8262001a1f565b67ffffffffffffffff81111562001caa5762001ca962001a29565b5b62001cb6825462001a83565b62001cc382828562001bec565b5f60209050601f83116001811462001cf9575f841562001ce4578287015190505b62001cf0858262001c66565b86555062001d5f565b601f19841662001d098662001ab7565b5f5b8281101562001d325784890151825560018201915060208501945060208101905062001d0b565b8683101562001d52578489015162001d4e601f89168262001c48565b8355505b6001600288020188555050505b505050505050565b62001d7281620019ad565b82525050565b5f60208201905062001d8d5f83018462001d67565b92915050565b7f4e487b71000000000000000000000000000000000000000000000000000000005f52601160045260245ffd5b5f8160011c9050919050565b5f808291508390505b600185111562001e1d5780860481111562001df55762001df462001d93565b5b600185161562001e055780820291505b808102905062001e158562001dc0565b945062001dd5565b94509492505050565b5f8262001e37576001905062001f09565b8162001e46575f905062001f09565b816001811462001e5f576002811462001e6a5762001ea0565b600191505062001f09565b60ff84111562001e7f5762001e7e62001d93565b5b8360020a91508482111562001e995762001e9862001d93565b5b5062001f09565b5060208310610133831016604e8410600b841016171562001eda5782820a90508381111562001ed45762001ed362001d93565b5b62001f09565b62001ee9848484600162001dcc565b9250905081840481111562001f035762001f0262001d93565b5b81810290505b9392505050565b5f62001f1c8262001b39565b915062001f298362001b39565b925062001f587fffffffffffffffffffffffffffffffffffffffffffffffffffffffffffffffff848462001e26565b905092915050565b5f62001f6c8262001b39565b915062001f798362001b39565b925082820262001f898162001b39565b9150828204841483151762001fa35762001fa262001d93565b5b5092915050565b7f4e487b71000000000000000000000000000000000000000000000000000000005f52601260045260245ffd5b5f62001fe38262001b39565b915062001ff08362001b39565b92508262002003576200200262001faa565b5b828204905092915050565b5f604082019050620020235f83018562001d67565b62002032602083018462001d67565b9392505050565b5f819050919050565b6200204d8162002039565b82525050565b6200205e8162001b39565b82525050565b5f60a082019050620020795f83018862002042565b62002088602083018762002042565b62002097604083018662002042565b620020a6606083018562002053565b620020b5608083018462001d67565b9695505050505050565b5f82825260208201905092915050565b5f5b83811015620020ee578082015181840152602081019050620020d1565b5f8484015250505050565b5f601f19601f8301169050919050565b5f620021158262001a1f565b620021218185620020bf565b935062002133818560208601620020cf565b6200213e81620020f9565b840191505092915050565b5f6020820190508181035f83015262002163818462002109565b905092915050565b5f81519050919050565b5f819050602082019050919050565b5f62002191825162002039565b80915050919050565b5f620021a6826200216b565b82620021b28462002175565b9050620021bf8162002184565b925060208210156200220257620021fd7fffffffffffffffffffffffffffffffffffffffffffffffffffffffffffffffff8360200360080262001ad8565b831692505b5050919050565b5f620022158262001b39565b9150620022228362001b39565b92508282019050808211156200223d576200223c62001d93565b5b92915050565b5f606082019050620022585f83018662001d67565b62002267602083018562002053565b62002276604083018462002053565b949350505050565b5f602082019050620022935f83018462002053565b92915050565b5f620022a58262001b39565b9150620022b28362001b39565b9250828203905081811115620022cd57620022cc62001d93565b5b92915050565b7f4e487b71000000000000000000000000000000000000000000000000000000005f52603260045260245ffd5b7f496e73756666696369656e7420746f6b656e7320696e20636f6e7472616374005f82015250565b5f62002336601f83620020bf565b9150620023438262002300565b602082019050919050565b5f6020820190508181035f830152620023678162002328565b9050919050565b7f537761702072657175657374206578636565647320616c6c6f77616e636500005f82015250565b5f620023a4601e83620020bf565b9150620023b1826200236e565b602082019050919050565b5f6020820190508181035f830152620023d58162002396565b9050919050565b5f819050919050565b5f62002405620023ff620023f984620023dc565b62001b42565b62001b39565b9050919050565b6200241781620023e5565b82525050565b5f81519050919050565b5f82825260208201905092915050565b5f819050602082019050919050565b6200245181620019ad565b82525050565b5f62002464838362002446565b60208301905092915050565b5f602082019050919050565b5f62002488826200241d565b62002494818562002427565b9350620024a18362002437565b805f5b83811015620024d7578151620024bb888262002457565b9750620024c88362002470565b925050600181019050620024a4565b5085935050505092915050565b5f60a082019050620024f95f83018862002053565b6200250860208301876200240c565b81810360408301526200251c81866200247c565b90506200252d606083018562001d67565b6200253c608083018462002053565b9695505050505050565b7f5377617020746f20455448206661696c65642c206e6f204554482072656365695f8201527f7665640000000000000000000000000000000000000000000000000000000000602082015250565b5f620025a2602383620020bf565b9150620025af8262002546565b604082019050919050565b5f6020820190508181035f830152620025d38162002594565b9050919050565b7f4e6f7420656e6f7567682045544820666f72206c6971756964697479000000005f82015250565b5f62002610601c83620020bf565b91506200261d82620025da565b602082019050919050565b5f6020820190508181035f830152620026418162002602565b9050919050565b7f4c6971756964697479206164646974696f6e20726571756573742065786365655f8201527f647320616c6c6f77616e63650000000000000000000000000000000000000000602082015250565b5f620026a4602c83620020bf565b9150620026b18262002648565b604082019050919050565b5f6020820190508181035f830152620026d58162002696565b9050919050565b5f60c082019050620026f15f83018962001d67565b62002700602083018862002053565b6200270f60408301876200240c565b6200271e60608301866200240c565b6200272d608083018562001d67565b6200273c60a083018462002053565b979650505050505050565b620027528162001b39565b81146200275d575f80fd5b50565b5f81519050620027708162002747565b92915050565b5f805f6060848603121562002790576200278f6200198a565b5b5f6200279f8682870162002760565b9350506020620027b28682870162002760565b9250506040620027c58682870162002760565b9150509250925092565b7f4c6971756964697479206164646974696f6e206661696c6564000000000000005f82015250565b5f62002805601983620020bf565b91506200281282620027cf565b602082019050919050565b5f6020820190508181035f8301526200283681620027f7565b9050919050565b60805160a05160c05160e0516101005161012051610140516135456200288f5f395f61192901525f6118ee01525f61200a01525f611fe901525f61172901525f61177f01525f6117a801526135455ff3fe6080604052600436106101e6575f3560e01c80637ecebe0011610101578063afcf2fc411610094578063dd49756e11610063578063dd49756e146106db578063dd62ed3e14610703578063ecfca8991461073f578063f2fde38b14610769576101ed565b8063afcf2fc414610637578063ba244b7d14610661578063d505accf14610689578063dca5f865146106b1576101ed565b80638fffabed116100d05780638fffabed1461057d57806395d89b41146105a757806398118cb4146105d1578063a9059cbb146105fb576101ed565b80637ecebe00146104bd57806383afaac0146104f957806384b0196e146105235780638da5cb5b14610553576101ed565b806323b872dd116101795780634a377e1d116101485780634a377e1d146104175780636e03832a1461044157806370a082311461046b578063715018a6146104a7576101ed565b806323b872dd1461035f578063313ce5671461039b5780633644e515146103c5578063492a937b146103ef576101ed565b80630b0fd47e116101b55780630b0fd47e146102a75780631694505e146102e357806318160ddd1461030d5780632212079314610337576101ed565b80630298a5f7146101f1578063044808c31461021957806306fdde0314610241578063095ea7b31461026b576101ed565b366101ed57005b5f80fd5b3480156101fc575f80fd5b50610217600480360381019061021291906124e1565b610791565b005b348015610224575f80fd5b5061023f600480360381019061023a9190612566565b61096e565b005b34801561024c575f80fd5b50610255610996565b6040516102629190612640565b60405180910390f35b348015610276575f80fd5b50610291600480360381019061028c9190612660565b610a26565b60405161029e91906126ad565b60405180910390f35b3480156102b2575f80fd5b506102cd60048036038101906102c891906126c6565b610a48565b6040516102da91906126ad565b60405180910390f35b3480156102ee575f80fd5b506102f7610a65565b604051610304919061274c565b60405180910390f35b348015610318575f80fd5b50610321610a8a565b60405161032e9190612774565b60405180910390f35b348015610342575f80fd5b5061035d6004803603810190610358919061278d565b610a93565b005b34801561036a575f80fd5b50610385600480360381019061038091906124e1565b610b6d565b60405161039291906126ad565b60405180910390f35b3480156103a6575f80fd5b506103af610b84565b6040516103bc91906127e6565b60405180910390f35b3480156103d0575f80fd5b506103d9610b8c565b6040516103e69190612817565b60405180910390f35b3480156103fa575f80fd5b5061041560048036038101906104109190612830565b610b9a565b005b348015610422575f80fd5b5061042b610bfa565b604051610438919061287d565b60405180910390f35b34801561044c575f80fd5b50610455610c1f565b60405161046291906128b6565b60405180910390f35b348015610476575f80fd5b50610491600480360381019061048c91906126c6565b610c44565b60405161049e9190612774565b60405180910390f35b3480156104b2575f80fd5b506104bb610c89565b005b3480156104c8575f80fd5b506104e360048036038101906104de91906126c6565b610c9c565b6040516104f09190612774565b60405180910390f35b348015610504575f80fd5b5061050d610cad565b60405161051a91906128eb565b60405180910390f35b34801561052e575f80fd5b50610537610cc1565b60405161054a97969594939291906129f5565b60405180910390f35b34801561055e575f80fd5b50610567610d66565b604051610574919061287d565b60405180910390f35b348015610588575f80fd5b50610591610d8e565b60405161059e919061287d565b60405180910390f35b3480156105b2575f80fd5b506105bb610db3565b6040516105c89190612640565b60405180910390f35b3480156105dc575f80fd5b506105e5610e43565b6040516105f291906128eb565b60405180910390f35b348015610606575f80fd5b50610621600480360381019061061c9190612660565b610e57565b60405161062e91906126ad565b60405180910390f35b348015610642575f80fd5b5061064b610e79565b60405161065891906128b6565b60405180910390f35b34801561066c575f80fd5b5061068760048036038101906106829190612a77565b610e9e565b005b348015610694575f80fd5b506106af60048036038101906106aa9190612af6565b610ec3565b005b3480156106bc575f80fd5b506106c5611008565b6040516106d291906126ad565b60405180910390f35b3480156106e6575f80fd5b5061070160048036038101906106fc9190612b93565b61101b565b005b34801561070e575f80fd5b5061072960048036038101906107249190612bbe565b611029565b6040516107369190612774565b60405180910390f35b34801561074a575f80fd5b506107536110ab565b60405161076091906128eb565b60405180910390f35b348015610774575f80fd5b5061078f600480360381019061078a91906126c6565b6110bf565b005b5f6103e8600e60169054906101000a900461ffff1661ffff16836107b59190612c29565b6107bf9190612c97565b600f819055506103e8600e60149054906101000a900461ffff1661ffff16836107e89190612c29565b6107f29190612c97565b6011819055506103e8600e60189054906101000a900461ffff1661ffff168361081b9190612c29565b6108259190612c97565b6010819055505f601054601154600f5461083f9190612cc7565b6108499190612cc7565b90505f81846108589190612cfa565b9050600e601b9054906101000a900460ff16156108825761087a868686611143565b505050610969565b600e601a9054906101000a900460ff168015610935575060095f8673ffffffffffffffffffffffffffffffffffffffff1673ffffffffffffffffffffffffffffffffffffffff1681526020019081526020015f205f9054906101000a900460ff1680610934575060095f8773ffffffffffffffffffffffffffffffffffffffff1673ffffffffffffffffffffffffffffffffffffffff1681526020019081526020015f205f9054906101000a900460ff165b5b1561094957819250610948863084611143565b5b610954868683611143565b5f83111561096557610964611233565b5b5050505b505050565b610976611324565b61098083836113ab565b50801561099157610990836116b0565b5b505050565b6060600380546109a590612d5a565b80601f01602080910402602001604051908101604052809291908181526020018280546109d190612d5a565b8015610a1c5780601f106109f357610100808354040283529160200191610a1c565b820191905f5260205f20905b8154815290600101906020018083116109ff57829003601f168201915b5050505050905090565b5f80610a3061170d565b9050610a3d818585611714565b600191505092915050565b6009602052805f5260405f205f915054906101000a900460ff1681565b600d5f9054906101000a900473ffffffffffffffffffffffffffffffffffffffff1681565b5f600254905090565b610a9b611324565b5f4790505f811115610b68575f8273ffffffffffffffffffffffffffffffffffffffff1660648584610acd9190612c29565b610ad79190612c97565b604051610ae390612db7565b5f6040518083038185875af1925050503d805f8114610b1d576040519150601f19603f3d011682016040523d82523d5f602084013e610b22565b606091505b5050905080610b66576040517f08c379a0000000000000000000000000000000000000000000000000000000008152600401610b5d90612e15565b60405180910390fd5b505b505050565b5f610b79848484610791565b600190509392505050565b5f6012905090565b5f610b95611726565b905090565b610ba2611324565b8060095f8473ffffffffffffffffffffffffffffffffffffffff1673ffffffffffffffffffffffffffffffffffffffff1681526020019081526020015f205f6101000a81548160ff0219169083151502179055505050565b600c5f9054906101000a900473ffffffffffffffffffffffffffffffffffffffff1681565b600b5f9054906101000a900473ffffffffffffffffffffffffffffffffffffffff1681565b5f805f8373ffffffffffffffffffffffffffffffffffffffff1673ffffffffffffffffffffffffffffffffffffffff1681526020019081526020015f20549050919050565b610c91611324565b610c9a5f6117dc565b565b5f610ca68261189f565b9050919050565b600e60189054906101000a900461ffff1681565b5f6060805f805f6060610cd26118e5565b610cda611920565b46305f801b5f67ffffffffffffffff811115610cf957610cf8612e33565b5b604051908082528060200260200182016040528015610d275781602001602082028036833780820191505090505b507f0f00000000000000000000000000000000000000000000000000000000000000959493929190965096509650965096509650965090919293949596565b5f60055f9054906101000a900473ffffffffffffffffffffffffffffffffffffffff16905090565b600e5f9054906101000a900473ffffffffffffffffffffffffffffffffffffffff1681565b606060048054610dc290612d5a565b80601f0160208091040260200160405190810160405280929190818152602001828054610dee90612d5a565b8015610e395780601f10610e1057610100808354040283529160200191610e39565b820191905f5260205f20905b815481529060010190602001808311610e1c57829003601f168201915b5050505050905090565b600e60149054906101000a900461ffff1681565b5f80610e6161170d565b9050610e6e818585610791565b600191505092915050565b600a5f9054906101000a900473ffffffffffffffffffffffffffffffffffffffff1681565b610ea6611324565b80600e601a6101000a81548160ff02191690831515021790555050565b83421115610f0857836040517f62791302000000000000000000000000000000000000000000000000000000008152600401610eff9190612774565b60405180910390fd5b5f7f6e71edae12b1b97f4d1f60370fef10105fa2faae0126114a169c64845d6126c9888888610f368c61195b565b89604051602001610f4c96959493929190612e60565b6040516020818303038152906040528051906020012090505f610f6e826119ae565b90505f610f7d828787876119c7565b90508973ffffffffffffffffffffffffffffffffffffffff168173ffffffffffffffffffffffffffffffffffffffff1614610ff157808a6040517f4b800e46000000000000000000000000000000000000000000000000000000008152600401610fe8929190612ebf565b60405180910390fd5b610ffc8a8a8a611714565b50505050505050505050565b600e601a9054906101000a900460ff1681565b611026333083611143565b50565b5f60015f8473ffffffffffffffffffffffffffffffffffffffff1673ffffffffffffffffffffffffffffffffffffffff1681526020019081526020015f205f8373ffffffffffffffffffffffffffffffffffffffff1673ffffffffffffffffffffffffffffffffffffffff1681526020019081526020015f2054905092915050565b600e60169054906101000a900461ffff1681565b6110c7611324565b5f73ffffffffffffffffffffffffffffffffffffffff168173ffffffffffffffffffffffffffffffffffffffff1603611137575f6040517f1e4fbdf700000000000000000000000000000000000000000000000000000000815260040161112e919061287d565b60405180910390fd5b611140816117dc565b50565b5f73ffffffffffffffffffffffffffffffffffffffff168373ffffffffffffffffffffffffffffffffffffffff16036111b3575f6040517f96c6fd1e0000000000000000000000000000000000000000000000000000000081526004016111aa919061287d565b60405180910390fd5b5f73ffffffffffffffffffffffffffffffffffffffff168273ffffffffffffffffffffffffffffffffffffffff1603611223575f6040517fec442f0500000000000000000000000000000000000000000000000000000000815260040161121a919061287d565b60405180910390fd5b61122e8383836119f5565b505050565b6001600e601b6101000a81548160ff0219169083151502179055505f600f54111561129a576112916002600f5461126a9190612c97565b600a5f9054906101000a900473ffffffffffffffffffffffffffffffffffffffff166113ab565b505f600f819055505b5f60105411156112e6576112dd60026010546112b69190612c97565b600b5f9054906101000a900473ffffffffffffffffffffffffffffffffffffffff166113ab565b505f6010819055505b5f60115411156113085761130760026011546113029190612c97565b6116b0565b5b5f600e601b6101000a81548160ff021916908315150217905550565b61132c61170d565b73ffffffffffffffffffffffffffffffffffffffff1661134a610d66565b73ffffffffffffffffffffffffffffffffffffffff16146113a95761136d61170d565b6040517f118cdaa70000000000000000000000000000000000000000000000000000000081526004016113a0919061287d565b60405180910390fd5b565b5f804790505f600267ffffffffffffffff8111156113cc576113cb612e33565b5b6040519080825280602002602001820160405280156113fa5781602001602082028036833780820191505090505b50905030815f8151811061141157611410612ee6565b5b602002602001019073ffffffffffffffffffffffffffffffffffffffff16908173ffffffffffffffffffffffffffffffffffffffff1681525050600d5f9054906101000a900473ffffffffffffffffffffffffffffffffffffffff1673ffffffffffffffffffffffffffffffffffffffff1663ad5c46486040518163ffffffff1660e01b8152600401602060405180830381865afa1580156114b5573d5f803e3d5ffd5b505050506040513d601f19601f820116820180604052508101906114d99190612f27565b816001815181106114ed576114ec612ee6565b5b602002602001019073ffffffffffffffffffffffffffffffffffffffff16908173ffffffffffffffffffffffffffffffffffffffff16815250508461153130610c44565b1015611572576040517f08c379a000000000000000000000000000000000000000000000000000000000815260040161156990612f9c565b60405180910390fd5b61159e30600c5f9054906101000a900473ffffffffffffffffffffffffffffffffffffffff1687611714565b6115c930600c5f9054906101000a900473ffffffffffffffffffffffffffffffffffffffff16611029565b85111561160b576040517f08c379a000000000000000000000000000000000000000000000000000000000815260040161160290613004565b60405180910390fd5b600d5f9054906101000a900473ffffffffffffffffffffffffffffffffffffffff1673ffffffffffffffffffffffffffffffffffffffff1663791ac947865f8488426040518663ffffffff1660e01b815260040161166d959493929190613112565b5f604051808303815f87803b158015611684575f80fd5b505af1158015611696573d5f803e3d5ffd5b5050505081476116a69190612cfa565b9250505092915050565b5f6116bb82306113ab565b90505f81116116ff576040517f08c379a00000000000000000000000000000000000000000000000000000000081526004016116f6906131da565b60405180910390fd5b6117098282611c0e565b5050565b5f33905090565b6117218383836001611df6565b505050565b5f7f000000000000000000000000000000000000000000000000000000000000000073ffffffffffffffffffffffffffffffffffffffff163073ffffffffffffffffffffffffffffffffffffffff161480156117a157507f000000000000000000000000000000000000000000000000000000000000000046145b156117ce577f000000000000000000000000000000000000000000000000000000000000000090506117d9565b6117d6611fc5565b90505b90565b5f60055f9054906101000a900473ffffffffffffffffffffffffffffffffffffffff1690508160055f6101000a81548173ffffffffffffffffffffffffffffffffffffffff021916908373ffffffffffffffffffffffffffffffffffffffff1602179055508173ffffffffffffffffffffffffffffffffffffffff168173ffffffffffffffffffffffffffffffffffffffff167f8be0079c531659141344cd1fd0a4f28419497f9722a3daafe3b4186f6b6457e060405160405180910390a35050565b5f60085f8373ffffffffffffffffffffffffffffffffffffffff1673ffffffffffffffffffffffffffffffffffffffff1681526020019081526020015f20549050919050565b606061191b60067f000000000000000000000000000000000000000000000000000000000000000061205a90919063ffffffff16565b905090565b606061195660077f000000000000000000000000000000000000000000000000000000000000000061205a90919063ffffffff16565b905090565b5f60085f8373ffffffffffffffffffffffffffffffffffffffff1673ffffffffffffffffffffffffffffffffffffffff1681526020019081526020015f205f815480929190600101919050559050919050565b5f6119c06119ba611726565b83612107565b9050919050565b5f805f806119d788888888612147565b9250925092506119e7828261222e565b829350505050949350505050565b5f73ffffffffffffffffffffffffffffffffffffffff168373ffffffffffffffffffffffffffffffffffffffff1603611a45578060025f828254611a399190612cc7565b92505081905550611b13565b5f805f8573ffffffffffffffffffffffffffffffffffffffff1673ffffffffffffffffffffffffffffffffffffffff1681526020019081526020015f2054905081811015611ace578381836040517fe450d38c000000000000000000000000000000000000000000000000000000008152600401611ac5939291906131f8565b60405180910390fd5b8181035f808673ffffffffffffffffffffffffffffffffffffffff1673ffffffffffffffffffffffffffffffffffffffff1681526020019081526020015f2081905550505b5f73ffffffffffffffffffffffffffffffffffffffff168273ffffffffffffffffffffffffffffffffffffffff1603611b5a578060025f8282540392505081905550611ba4565b805f808473ffffffffffffffffffffffffffffffffffffffff1673ffffffffffffffffffffffffffffffffffffffff1681526020019081526020015f205f82825401925050819055505b8173ffffffffffffffffffffffffffffffffffffffff168373ffffffffffffffffffffffffffffffffffffffff167fddf252ad1be2c89b69c2b068fc378daa952ba7f163c4a11628f55a4df523b3ef83604051611c019190612774565b60405180910390a3505050565b80471015611c51576040517f08c379a0000000000000000000000000000000000000000000000000000000008152600401611c4890613277565b60405180910390fd5b611c7d30600c5f9054906101000a900473ffffffffffffffffffffffffffffffffffffffff1684611714565b611ca830600d5f9054906101000a900473ffffffffffffffffffffffffffffffffffffffff16611029565b821115611cea576040517f08c379a0000000000000000000000000000000000000000000000000000000008152600401611ce190613305565b60405180910390fd5b5f805f600d5f9054906101000a900473ffffffffffffffffffffffffffffffffffffffff1673ffffffffffffffffffffffffffffffffffffffff1663f305d7198530885f803061025842611d3e9190612cc7565b6040518863ffffffff1660e01b8152600401611d5f96959493929190613323565b60606040518083038185885af1158015611d7b573d5f803e3d5ffd5b50505050506040513d601f19601f82011682018060405250810190611da09190613396565b9250925092505f8111611de8576040517f08c379a0000000000000000000000000000000000000000000000000000000008152600401611ddf90613430565b60405180910390fd5b5f6011819055505050505050565b5f73ffffffffffffffffffffffffffffffffffffffff168473ffffffffffffffffffffffffffffffffffffffff1603611e66575f6040517fe602df05000000000000000000000000000000000000000000000000000000008152600401611e5d919061287d565b60405180910390fd5b5f73ffffffffffffffffffffffffffffffffffffffff168373ffffffffffffffffffffffffffffffffffffffff1603611ed6575f6040517f94280d62000000000000000000000000000000000000000000000000000000008152600401611ecd919061287d565b60405180910390fd5b8160015f8673ffffffffffffffffffffffffffffffffffffffff1673ffffffffffffffffffffffffffffffffffffffff1681526020019081526020015f205f8573ffffffffffffffffffffffffffffffffffffffff1673ffffffffffffffffffffffffffffffffffffffff1681526020019081526020015f20819055508015611fbf578273ffffffffffffffffffffffffffffffffffffffff168473ffffffffffffffffffffffffffffffffffffffff167f8c5be1e5ebec7d5bd14f71427d1e84f3dd0314c0f7b2291e5b200ac8c7c3b92584604051611fb69190612774565b60405180910390a35b50505050565b5f7f8b73c3c69bb8fe3d512ecc4cf759cc79239f7b179b0ffacaa9a75d522b39400f7f00000000000000000000000000000000000000000000000000000000000000007f0000000000000000000000000000000000000000000000000000000000000000463060405160200161203f95949392919061344e565b60405160208183030381529060405280519060200120905090565b606060ff5f1b83146120765761206f83612390565b9050612101565b81805461208290612d5a565b80601f01602080910402602001604051908101604052809291908181526020018280546120ae90612d5a565b80156120f95780601f106120d0576101008083540402835291602001916120f9565b820191905f5260205f20905b8154815290600101906020018083116120dc57829003601f168201915b505050505090505b92915050565b5f6040517f190100000000000000000000000000000000000000000000000000000000000081528360028201528260228201526042812091505092915050565b5f805f7f7fffffffffffffffffffffffffffffff5d576e7357a4501ddfe92f46681b20a0845f1c1115612183575f600385925092509250612224565b5f6001888888886040515f81526020016040526040516121a6949392919061349f565b6020604051602081039080840390855afa1580156121c6573d5f803e3d5ffd5b5050506020604051035190505f73ffffffffffffffffffffffffffffffffffffffff168173ffffffffffffffffffffffffffffffffffffffff1603612217575f60015f801b93509350935050612224565b805f805f1b935093509350505b9450945094915050565b5f6003811115612241576122406134e2565b5b826003811115612254576122536134e2565b5b031561238c576001600381111561226e5761226d6134e2565b5b826003811115612281576122806134e2565b5b036122b8576040517ff645eedf00000000000000000000000000000000000000000000000000000000815260040160405180910390fd5b600260038111156122cc576122cb6134e2565b5b8260038111156122df576122de6134e2565b5b0361232357805f1c6040517ffce698f700000000000000000000000000000000000000000000000000000000815260040161231a9190612774565b60405180910390fd5b600380811115612336576123356134e2565b5b826003811115612349576123486134e2565b5b0361238b57806040517fd78bce0c0000000000000000000000000000000000000000000000000000000081526004016123829190612817565b60405180910390fd5b5b5050565b60605f61239c83612402565b90505f602067ffffffffffffffff8111156123ba576123b9612e33565b5b6040519080825280601f01601f1916602001820160405280156123ec5781602001600182028036833780820191505090505b5090508181528360208201528092505050919050565b5f8060ff835f1c169050601f811115612447576040517fb3512b0c00000000000000000000000000000000000000000000000000000000815260040160405180910390fd5b80915050919050565b5f80fd5b5f73ffffffffffffffffffffffffffffffffffffffff82169050919050565b5f61247d82612454565b9050919050565b61248d81612473565b8114612497575f80fd5b50565b5f813590506124a881612484565b92915050565b5f819050919050565b6124c0816124ae565b81146124ca575f80fd5b50565b5f813590506124db816124b7565b92915050565b5f805f606084860312156124f8576124f7612450565b5b5f6125058682870161249a565b93505060206125168682870161249a565b9250506040612527868287016124cd565b9150509250925092565b5f8115159050919050565b61254581612531565b811461254f575f80fd5b50565b5f813590506125608161253c565b92915050565b5f805f6060848603121561257d5761257c612450565b5b5f61258a868287016124cd565b935050602061259b8682870161249a565b92505060406125ac86828701612552565b9150509250925092565b5f81519050919050565b5f82825260208201905092915050565b5f5b838110156125ed5780820151818401526020810190506125d2565b5f8484015250505050565b5f601f19601f8301169050919050565b5f612612826125b6565b61261c81856125c0565b935061262c8185602086016125d0565b612635816125f8565b840191505092915050565b5f6020820190508181035f8301526126588184612608565b905092915050565b5f806040838503121561267657612675612450565b5b5f6126838582860161249a565b9250506020612694858286016124cd565b9150509250929050565b6126a781612531565b82525050565b5f6020820190506126c05f83018461269e565b92915050565b5f602082840312156126db576126da612450565b5b5f6126e88482850161249a565b91505092915050565b5f819050919050565b5f61271461270f61270a84612454565b6126f1565b612454565b9050919050565b5f612725826126fa565b9050919050565b5f6127368261271b565b9050919050565b6127468161272c565b82525050565b5f60208201905061275f5f83018461273d565b92915050565b61276e816124ae565b82525050565b5f6020820190506127875f830184612765565b92915050565b5f80604083850312156127a3576127a2612450565b5b5f6127b0858286016124cd565b92505060206127c18582860161249a565b9150509250929050565b5f60ff82169050919050565b6127e0816127cb565b82525050565b5f6020820190506127f95f8301846127d7565b92915050565b5f819050919050565b612811816127ff565b82525050565b5f60208201905061282a5f830184612808565b92915050565b5f806040838503121561284657612845612450565b5b5f6128538582860161249a565b925050602061286485828601612552565b9150509250929050565b61287781612473565b82525050565b5f6020820190506128905f83018461286e565b92915050565b5f6128a082612454565b9050919050565b6128b081612896565b82525050565b5f6020820190506128c95f8301846128a7565b92915050565b5f61ffff82169050919050565b6128e5816128cf565b82525050565b5f6020820190506128fe5f8301846128dc565b92915050565b5f7fff0000000000000000000000000000000000000000000000000000000000000082169050919050565b61293881612904565b82525050565b5f81519050919050565b5f82825260208201905092915050565b5f819050602082019050919050565b612970816124ae565b82525050565b5f6129818383612967565b60208301905092915050565b5f602082019050919050565b5f6129a38261293e565b6129ad8185612948565b93506129b883612958565b805f5b838110156129e85781516129cf8882612976565b97506129da8361298d565b9250506001810190506129bb565b5085935050505092915050565b5f60e082019050612a085f83018a61292f565b8181036020830152612a1a8189612608565b90508181036040830152612a2e8188612608565b9050612a3d6060830187612765565b612a4a608083018661286e565b612a5760a0830185612808565b81810360c0830152612a698184612999565b905098975050505050505050565b5f60208284031215612a8c57612a8b612450565b5b5f612a9984828501612552565b91505092915050565b612aab816127cb565b8114612ab5575f80fd5b50565b5f81359050612ac681612aa2565b92915050565b612ad5816127ff565b8114612adf575f80fd5b50565b5f81359050612af081612acc565b92915050565b5f805f805f805f60e0888a031215612b1157612b10612450565b5b5f612b1e8a828b0161249a565b9750506020612b2f8a828b0161249a565b9650506040612b408a828b016124cd565b9550506060612b518a828b016124cd565b9450506080612b628a828b01612ab8565b93505060a0612b738a828b01612ae2565b92505060c0612b848a828b01612ae2565b91505092959891949750929550565b5f60208284031215612ba857612ba7612450565b5b5f612bb5848285016124cd565b91505092915050565b5f8060408385031215612bd457612bd3612450565b5b5f612be18582860161249a565b9250506020612bf28582860161249a565b9150509250929050565b7f4e487b71000000000000000000000000000000000000000000000000000000005f52601160045260245ffd5b5f612c33826124ae565b9150612c3e836124ae565b9250828202612c4c816124ae565b91508282048414831517612c6357612c62612bfc565b5b5092915050565b7f4e487b71000000000000000000000000000000000000000000000000000000005f52601260045260245ffd5b5f612ca1826124ae565b9150612cac836124ae565b925082612cbc57612cbb612c6a565b5b828204905092915050565b5f612cd1826124ae565b9150612cdc836124ae565b9250828201905080821115612cf457612cf3612bfc565b5b92915050565b5f612d04826124ae565b9150612d0f836124ae565b9250828203905081811115612d2757612d26612bfc565b5b92915050565b7f4e487b71000000000000000000000000000000000000000000000000000000005f52602260045260245ffd5b5f6002820490506001821680612d7157607f821691505b602082108103612d8457612d83612d2d565b5b50919050565b5f81905092915050565b50565b5f612da25f83612d8a565b9150612dad82612d94565b5f82019050919050565b5f612dc182612d97565b9150819050919050565b7f4661696c656420746f207472616e736665722066756e647300000000000000005f82015250565b5f612dff6018836125c0565b9150612e0a82612dcb565b602082019050919050565b5f6020820190508181035f830152612e2c81612df3565b9050919050565b7f4e487b71000000000000000000000000000000000000000000000000000000005f52604160045260245ffd5b5f60c082019050612e735f830189612808565b612e80602083018861286e565b612e8d604083018761286e565b612e9a6060830186612765565b612ea76080830185612765565b612eb460a0830184612765565b979650505050505050565b5f604082019050612ed25f83018561286e565b612edf602083018461286e565b9392505050565b7f4e487b71000000000000000000000000000000000000000000000000000000005f52603260045260245ffd5b5f81519050612f2181612484565b92915050565b5f60208284031215612f3c57612f3b612450565b5b5f612f4984828501612f13565b91505092915050565b7f496e73756666696369656e7420746f6b656e7320696e20636f6e7472616374005f82015250565b5f612f86601f836125c0565b9150612f9182612f52565b602082019050919050565b5f6020820190508181035f830152612fb381612f7a565b9050919050565b7f537761702072657175657374206578636565647320616c6c6f77616e636500005f82015250565b5f612fee601e836125c0565b9150612ff982612fba565b602082019050919050565b5f6020820190508181035f83015261301b81612fe2565b9050919050565b5f819050919050565b5f61304561304061303b84613022565b6126f1565b6124ae565b9050919050565b6130558161302b565b82525050565b5f81519050919050565b5f82825260208201905092915050565b5f819050602082019050919050565b61308d81612473565b82525050565b5f61309e8383613084565b60208301905092915050565b5f602082019050919050565b5f6130c08261305b565b6130ca8185613065565b93506130d583613075565b805f5b838110156131055781516130ec8882613093565b97506130f7836130aa565b9250506001810190506130d8565b5085935050505092915050565b5f60a0820190506131255f830188612765565b613132602083018761304c565b818103604083015261314481866130b6565b9050613153606083018561286e565b6131606080830184612765565b9695505050505050565b7f5377617020746f20455448206661696c65642c206e6f204554482072656365695f8201527f7665640000000000000000000000000000000000000000000000000000000000602082015250565b5f6131c46023836125c0565b91506131cf8261316a565b604082019050919050565b5f6020820190508181035f8301526131f1816131b8565b9050919050565b5f60608201905061320b5f83018661286e565b6132186020830185612765565b6132256040830184612765565b949350505050565b7f4e6f7420656e6f7567682045544820666f72206c6971756964697479000000005f82015250565b5f613261601c836125c0565b915061326c8261322d565b602082019050919050565b5f6020820190508181035f83015261328e81613255565b9050919050565b7f4c6971756964697479206164646974696f6e20726571756573742065786365655f8201527f647320616c6c6f77616e63650000000000000000000000000000000000000000602082015250565b5f6132ef602c836125c0565b91506132fa82613295565b604082019050919050565b5f6020820190508181035f83015261331c816132e3565b9050919050565b5f60c0820190506133365f83018961286e565b6133436020830188612765565b613350604083018761304c565b61335d606083018661304c565b61336a608083018561286e565b61337760a0830184612765565b979650505050505050565b5f81519050613390816124b7565b92915050565b5f805f606084860312156133ad576133ac612450565b5b5f6133ba86828701613382565b93505060206133cb86828701613382565b92505060406133dc86828701613382565b9150509250925092565b7f4c6971756964697479206164646974696f6e206661696c6564000000000000005f82015250565b5f61341a6019836125c0565b9150613425826133e6565b602082019050919050565b5f6020820190508181035f8301526134478161340e565b9050919050565b5f60a0820190506134615f830188612808565b61346e6020830187612808565b61347b6040830186612808565b6134886060830185612765565b613495608083018461286e565b9695505050505050565b5f6080820190506134b25f830187612808565b6134bf60208301866127d7565b6134cc6040830185612808565b6134d96060830184612808565b95945050505050565b7f4e487b71000000000000000000000000000000000000000000000000000000005f52602160045260245ffdfea2646970667358221220db06ed1f78f031d6c6d25ccd576ca1e818ca24d34768a2bc0d27ad8f11696e9564736f6c63430008140033",
			"opcodes": "PUSH2 0x160 PUSH1 0x40 MSTORE PUSH20 0x47C0D746D42FF4CEE7D2CB1FBF5C0D090267931 PUSH1 0xA PUSH0 PUSH2 0x100 EXP DUP2 SLOAD DUP2 PUSH20 0xFFFFFFFFFFFFFFFFFFFFFFFFFFFFFFFFFFFFFFFF MUL NOT AND SWAP1 DUP4 PUSH20 0xFFFFFFFFFFFFFFFFFFFFFFFFFFFFFFFFFFFFFFFF AND MUL OR SWAP1 SSTORE POP PUSH20 0x331535B9F37EB41F437EA0CFE345ABB9D102A1A PUSH1 0xB PUSH0 PUSH2 0x100 EXP DUP2 SLOAD DUP2 PUSH20 0xFFFFFFFFFFFFFFFFFFFFFFFFFFFFFFFFFFFFFFFF MUL NOT AND SWAP1 DUP4 PUSH20 0xFFFFFFFFFFFFFFFFFFFFFFFFFFFFFFFFFFFFFFFF AND MUL OR SWAP1 SSTORE POP PUSH20 0xEDF6066A2B290C185783862C7F4776A2C8077AD1 PUSH1 0xC PUSH0 PUSH2 0x100 EXP DUP2 SLOAD DUP2 PUSH20 0xFFFFFFFFFFFFFFFFFFFFFFFFFFFFFFFFFFFFFFFF MUL NOT AND SWAP1 DUP4 PUSH20 0xFFFFFFFFFFFFFFFFFFFFFFFFFFFFFFFFFFFFFFFF AND MUL OR SWAP1 SSTORE POP PUSH1 0xA PUSH1 0xE PUSH1 0x14 PUSH2 0x100 EXP DUP2 SLOAD DUP2 PUSH2 0xFFFF MUL NOT AND SWAP1 DUP4 PUSH2 0xFFFF AND MUL OR SWAP1 SSTORE POP PUSH1 0xA PUSH1 0xE PUSH1 0x16 PUSH2 0x100 EXP DUP2 SLOAD DUP2 PUSH2 0xFFFF MUL NOT AND SWAP1 DUP4 PUSH2 0xFFFF AND MUL OR SWAP1 SSTORE POP PUSH1 0x9 PUSH1 0xE PUSH1 0x18 PUSH2 0x100 EXP DUP2 SLOAD DUP2 PUSH2 0xFFFF MUL NOT AND SWAP1 DUP4 PUSH2 0xFFFF AND MUL OR SWAP1 SSTORE POP PUSH0 PUSH1 0xE PUSH1 0x1A PUSH2 0x100 EXP DUP2 SLOAD DUP2 PUSH1 0xFF MUL NOT AND SWAP1 DUP4 ISZERO ISZERO MUL OR SWAP1 SSTORE POP PUSH0 PUSH1 0xF SSTORE PUSH0 PUSH1 0x10 SSTORE PUSH0 PUSH1 0x11 SSTORE CALLVALUE DUP1 ISZERO PUSH3 0x18D JUMPI PUSH0 DUP1 REVERT JUMPDEST POP PUSH1 0x40 MLOAD PUSH3 0x5DD4 CODESIZE SUB DUP1 PUSH3 0x5DD4 DUP4 CODECOPY DUP2 DUP2 ADD PUSH1 0x40 MSTORE DUP2 ADD SWAP1 PUSH3 0x1B3 SWAP2 SWAP1 PUSH3 0x19EF JUMP JUMPDEST PUSH1 0x40 MLOAD DUP1 PUSH1 0x40 ADD PUSH1 0x40 MSTORE DUP1 PUSH1 0x7 DUP2 MSTORE PUSH1 0x20 ADD PUSH32 0x46726565646F6D00000000000000000000000000000000000000000000000000 DUP2 MSTORE POP DUP1 PUSH1 0x40 MLOAD DUP1 PUSH1 0x40 ADD PUSH1 0x40 MSTORE DUP1 PUSH1 0x1 DUP2 MSTORE PUSH1 0x20 ADD PUSH32 0x3100000000000000000000000000000000000000000000000000000000000000 DUP2 MSTORE POP DUP4 PUSH1 0x40 MLOAD DUP1 PUSH1 0x40 ADD PUSH1 0x40 MSTORE DUP1 PUSH1 0xC DUP2 MSTORE PUSH1 0x20 ADD PUSH32 0x46726565646F6D20436F696E0000000000000000000000000000000000000000 DUP2 MSTORE POP PUSH1 0x40 MLOAD DUP1 PUSH1 0x40 ADD PUSH1 0x40 MSTORE DUP1 PUSH1 0x5 DUP2 MSTORE PUSH1 0x20 ADD PUSH32 0x4652454544000000000000000000000000000000000000000000000000000000 DUP2 MSTORE POP DUP2 PUSH1 0x3 SWAP1 DUP2 PUSH3 0x29E SWAP2 SWAP1 PUSH3 0x1C83 JUMP JUMPDEST POP DUP1 PUSH1 0x4 SWAP1 DUP2 PUSH3 0x2B0 SWAP2 SWAP1 PUSH3 0x1C83 JUMP JUMPDEST POP POP POP PUSH0 PUSH20 0xFFFFFFFFFFFFFFFFFFFFFFFFFFFFFFFFFFFFFFFF AND DUP2 PUSH20 0xFFFFFFFFFFFFFFFFFFFFFFFFFFFFFFFFFFFFFFFF AND SUB PUSH3 0x326 JUMPI PUSH0 PUSH1 0x40 MLOAD PUSH32 0x1E4FBDF700000000000000000000000000000000000000000000000000000000 DUP2 MSTORE PUSH1 0x4 ADD PUSH3 0x31D SWAP2 SWAP1 PUSH3 0x1D78 JUMP JUMPDEST PUSH1 0x40 MLOAD DUP1 SWAP2 SUB SWAP1 REVERT JUMPDEST PUSH3 0x337 DUP2 PUSH3 0x842 PUSH1 0x20 SHL PUSH1 0x20 SHR JUMP JUMPDEST POP PUSH3 0x34E PUSH1 0x6 DUP4 PUSH3 0x905 PUSH1 0x20 SHL SWAP1 SWAP2 SWAP1 PUSH1 0x20 SHR JUMP JUMPDEST PUSH2 0x120 DUP2 DUP2 MSTORE POP POP PUSH3 0x36C PUSH1 0x7 DUP3 PUSH3 0x905 PUSH1 0x20 SHL SWAP1 SWAP2 SWAP1 PUSH1 0x20 SHR JUMP JUMPDEST PUSH2 0x140 DUP2 DUP2 MSTORE POP POP DUP2 DUP1 MLOAD SWAP1 PUSH1 0x20 ADD KECCAK256 PUSH1 0xE0 DUP2 DUP2 MSTORE POP POP DUP1 DUP1 MLOAD SWAP1 PUSH1 0x20 ADD KECCAK256 PUSH2 0x100 DUP2 DUP2 MSTORE POP POP CHAINID PUSH1 0xA0 DUP2 DUP2 MSTORE POP POP PUSH3 0x3AB PUSH3 0x95A PUSH1 0x20 SHL PUSH1 0x20 SHR JUMP JUMPDEST PUSH1 0x80 DUP2 DUP2 MSTORE POP POP ADDRESS PUSH20 0xFFFFFFFFFFFFFFFFFFFFFFFFFFFFFFFFFFFFFFFF AND PUSH1 0xC0 DUP2 PUSH20 0xFFFFFFFFFFFFFFFFFFFFFFFFFFFFFFFFFFFFFFFF AND DUP2 MSTORE POP POP POP POP POP PUSH0 PUSH3 0x3FA PUSH3 0x9B6 PUSH1 0x20 SHL PUSH1 0x20 SHR JUMP JUMPDEST PUSH1 0xFF AND PUSH1 0xA PUSH3 0x40B SWAP2 SWAP1 PUSH3 0x1F10 JUMP JUMPDEST PUSH3 0x6ACFC0 PUSH3 0x41B SWAP2 SWAP1 PUSH3 0x1F60 JUMP JUMPDEST SWAP1 POP PUSH3 0x42F DUP3 DUP3 PUSH3 0x9BE PUSH1 0x20 SHL PUSH1 0x20 SHR JUMP JUMPDEST PUSH0 PUSH1 0x64 PUSH1 0x1 DUP4 PUSH3 0x441 SWAP2 SWAP1 PUSH3 0x1F60 JUMP JUMPDEST PUSH3 0x44D SWAP2 SWAP1 PUSH3 0x1FD7 JUMP JUMPDEST SWAP1 POP PUSH0 PUSH2 0x3E8 PUSH1 0x9 DUP5 PUSH3 0x462 SWAP2 SWAP1 PUSH3 0x1F60 JUMP JUMPDEST PUSH3 0x46E SWAP2 SWAP1 PUSH3 0x1FD7 JUMP JUMPDEST SWAP1 POP PUSH3 0x4A4 DUP5 PUSH1 0xA PUSH0 SWAP1 SLOAD SWAP1 PUSH2 0x100 EXP SWAP1 DIV PUSH20 0xFFFFFFFFFFFFFFFFFFFFFFFFFFFFFFFFFFFFFFFF AND DUP5 PUSH3 0xA48 PUSH1 0x20 SHL PUSH1 0x20 SHR JUMP JUMPDEST POP PUSH3 0x4D9 DUP5 PUSH1 0xB PUSH0 SWAP1 SLOAD SWAP1 PUSH2 0x100 EXP SWAP1 DIV PUSH20 0xFFFFFFFFFFFFFFFFFFFFFFFFFFFFFFFFFFFFFFFF AND DUP4 PUSH3 0xA48 PUSH1 0x20 SHL PUSH1 0x20 SHR JUMP JUMPDEST POP PUSH1 0xC PUSH0 SWAP1 SLOAD SWAP1 PUSH2 0x100 EXP SWAP1 DIV PUSH20 0xFFFFFFFFFFFFFFFFFFFFFFFFFFFFFFFFFFFFFFFF AND PUSH1 0xD PUSH0 PUSH2 0x100 EXP DUP2 SLOAD DUP2 PUSH20 0xFFFFFFFFFFFFFFFFFFFFFFFFFFFFFFFFFFFFFFFF MUL NOT AND SWAP1 DUP4 PUSH20 0xFFFFFFFFFFFFFFFFFFFFFFFFFFFFFFFFFFFFFFFF AND MUL OR SWAP1 SSTORE POP PUSH1 0xD PUSH0 SWAP1 SLOAD SWAP1 PUSH2 0x100 EXP SWAP1 DIV PUSH20 0xFFFFFFFFFFFFFFFFFFFFFFFFFFFFFFFFFFFFFFFF AND PUSH20 0xFFFFFFFFFFFFFFFFFFFFFFFFFFFFFFFFFFFFFFFF AND PUSH4 0xC45A0155 PUSH1 0x40 MLOAD DUP2 PUSH4 0xFFFFFFFF AND PUSH1 0xE0 SHL DUP2 MSTORE PUSH1 0x4 ADD PUSH1 0x20 PUSH1 0x40 MLOAD DUP1 DUP4 SUB DUP2 DUP7 GAS STATICCALL ISZERO DUP1 ISZERO PUSH3 0x5A6 JUMPI RETURNDATASIZE PUSH0 DUP1 RETURNDATACOPY RETURNDATASIZE PUSH0 REVERT JUMPDEST POP POP POP POP PUSH1 0x40 MLOAD RETURNDATASIZE PUSH1 0x1F NOT PUSH1 0x1F DUP3 ADD AND DUP3 ADD DUP1 PUSH1 0x40 MSTORE POP DUP2 ADD SWAP1 PUSH3 0x5CC SWAP2 SWAP1 PUSH3 0x19EF JUMP JUMPDEST PUSH20 0xFFFFFFFFFFFFFFFFFFFFFFFFFFFFFFFFFFFFFFFF AND PUSH4 0xC9C65396 PUSH1 0xD PUSH0 SWAP1 SLOAD SWAP1 PUSH2 0x100 EXP SWAP1 DIV PUSH20 0xFFFFFFFFFFFFFFFFFFFFFFFFFFFFFFFFFFFFFFFF AND PUSH20 0xFFFFFFFFFFFFFFFFFFFFFFFFFFFFFFFFFFFFFFFF AND PUSH4 0xAD5C4648 PUSH1 0x40 MLOAD DUP2 PUSH4 0xFFFFFFFF AND PUSH1 0xE0 SHL DUP2 MSTORE PUSH1 0x4 ADD PUSH1 0x20 PUSH1 0x40 MLOAD DUP1 DUP4 SUB DUP2 DUP7 GAS STATICCALL ISZERO DUP1 ISZERO PUSH3 0x652 JUMPI RETURNDATASIZE PUSH0 DUP1 RETURNDATACOPY RETURNDATASIZE PUSH0 REVERT JUMPDEST POP POP POP POP PUSH1 0x40 MLOAD RETURNDATASIZE PUSH1 0x1F NOT PUSH1 0x1F DUP3 ADD AND DUP3 ADD DUP1 PUSH1 0x40 MSTORE POP DUP2 ADD SWAP1 PUSH3 0x678 SWAP2 SWAP1 PUSH3 0x19EF JUMP JUMPDEST ADDRESS PUSH1 0x40 MLOAD DUP4 PUSH4 0xFFFFFFFF AND PUSH1 0xE0 SHL DUP2 MSTORE PUSH1 0x4 ADD PUSH3 0x698 SWAP3 SWAP2 SWAP1 PUSH3 0x200E JUMP JUMPDEST PUSH1 0x20 PUSH1 0x40 MLOAD DUP1 DUP4 SUB DUP2 PUSH0 DUP8 GAS CALL ISZERO DUP1 ISZERO PUSH3 0x6B5 JUMPI RETURNDATASIZE PUSH0 DUP1 RETURNDATACOPY RETURNDATASIZE PUSH0 REVERT JUMPDEST POP POP POP POP PUSH1 0x40 MLOAD RETURNDATASIZE PUSH1 0x1F NOT PUSH1 0x1F DUP3 ADD AND DUP3 ADD DUP1 PUSH1 0x40 MSTORE POP DUP2 ADD SWAP1 PUSH3 0x6DB SWAP2 SWAP1 PUSH3 0x19EF JUMP JUMPDEST PUSH1 0xE PUSH0 PUSH2 0x100 EXP DUP2 SLOAD DUP2 PUSH20 0xFFFFFFFFFFFFFFFFFFFFFFFFFFFFFFFFFFFFFFFF MUL NOT AND SWAP1 DUP4 PUSH20 0xFFFFFFFFFFFFFFFFFFFFFFFFFFFFFFFFFFFFFFFF AND MUL OR SWAP1 SSTORE POP PUSH1 0x1 PUSH1 0x9 PUSH0 PUSH1 0xE PUSH0 SWAP1 SLOAD SWAP1 PUSH2 0x100 EXP SWAP1 DIV PUSH20 0xFFFFFFFFFFFFFFFFFFFFFFFFFFFFFFFFFFFFFFFF AND PUSH20 0xFFFFFFFFFFFFFFFFFFFFFFFFFFFFFFFFFFFFFFFF AND PUSH20 0xFFFFFFFFFFFFFFFFFFFFFFFFFFFFFFFFFFFFFFFF AND DUP2 MSTORE PUSH1 0x20 ADD SWAP1 DUP2 MSTORE PUSH1 0x20 ADD PUSH0 KECCAK256 PUSH0 PUSH2 0x100 EXP DUP2 SLOAD DUP2 PUSH1 0xFF MUL NOT AND SWAP1 DUP4 ISZERO ISZERO MUL OR SWAP1 SSTORE POP PUSH3 0x7E4 CALLER PUSH1 0xC PUSH0 SWAP1 SLOAD SWAP1 PUSH2 0x100 EXP SWAP1 DIV PUSH20 0xFFFFFFFFFFFFFFFFFFFFFFFFFFFFFFFFFFFFFFFF AND PUSH32 0xFFFFFFFFFFFFFFFFFFFFFFFFFFFFFFFFFFFFFFFFFFFFFFFFFFFFFFFFFFFFFFFF PUSH3 0xA67 PUSH1 0x20 SHL PUSH1 0x20 SHR JUMP JUMPDEST PUSH3 0x838 ADDRESS PUSH1 0xC PUSH0 SWAP1 SLOAD SWAP1 PUSH2 0x100 EXP SWAP1 DIV PUSH20 0xFFFFFFFFFFFFFFFFFFFFFFFFFFFFFFFFFFFFFFFF AND PUSH32 0xFFFFFFFFFFFFFFFFFFFFFFFFFFFFFFFFFFFFFFFFFFFFFFFFFFFFFFFFFFFFFFFF PUSH3 0xA67 PUSH1 0x20 SHL PUSH1 0x20 SHR JUMP JUMPDEST POP POP POP POP PUSH3 0x283D JUMP JUMPDEST PUSH0 PUSH1 0x5 PUSH0 SWAP1 SLOAD SWAP1 PUSH2 0x100 EXP SWAP1 DIV PUSH20 0xFFFFFFFFFFFFFFFFFFFFFFFFFFFFFFFFFFFFFFFF AND SWAP1 POP DUP2 PUSH1 0x5 PUSH0 PUSH2 0x100 EXP DUP2 SLOAD DUP2 PUSH20 0xFFFFFFFFFFFFFFFFFFFFFFFFFFFFFFFFFFFFFFFF MUL NOT AND SWAP1 DUP4 PUSH20 0xFFFFFFFFFFFFFFFFFFFFFFFFFFFFFFFFFFFFFFFF AND MUL OR SWAP1 SSTORE POP DUP2 PUSH20 0xFFFFFFFFFFFFFFFFFFFFFFFFFFFFFFFFFFFFFFFF AND DUP2 PUSH20 0xFFFFFFFFFFFFFFFFFFFFFFFFFFFFFFFFFFFFFFFF AND PUSH32 0x8BE0079C531659141344CD1FD0A4F28419497F9722A3DAAFE3B4186F6B6457E0 PUSH1 0x40 MLOAD PUSH1 0x40 MLOAD DUP1 SWAP2 SUB SWAP1 LOG3 POP POP JUMP JUMPDEST PUSH0 PUSH1 0x20 DUP4 MLOAD LT ISZERO PUSH3 0x92A JUMPI PUSH3 0x922 DUP4 PUSH3 0xA81 PUSH1 0x20 SHL PUSH1 0x20 SHR JUMP JUMPDEST SWAP1 POP PUSH3 0x954 JUMP JUMPDEST DUP3 PUSH3 0x93C DUP4 PUSH3 0xAEB PUSH1 0x20 SHL PUSH1 0x20 SHR JUMP JUMPDEST PUSH0 ADD SWAP1 DUP2 PUSH3 0x94C SWAP2 SWAP1 PUSH3 0x1C83 JUMP JUMPDEST POP PUSH1 0xFF PUSH0 SHL SWAP1 POP JUMPDEST SWAP3 SWAP2 POP POP JUMP JUMPDEST PUSH0 PUSH32 0x8B73C3C69BB8FE3D512ECC4CF759CC79239F7B179B0FFACAA9A75D522B39400F PUSH1 0xE0 MLOAD PUSH2 0x100 MLOAD CHAINID ADDRESS PUSH1 0x40 MLOAD PUSH1 0x20 ADD PUSH3 0x99B SWAP6 SWAP5 SWAP4 SWAP3 SWAP2 SWAP1 PUSH3 0x2064 JUMP JUMPDEST PUSH1 0x40 MLOAD PUSH1 0x20 DUP2 DUP4 SUB SUB DUP2 MSTORE SWAP1 PUSH1 0x40 MSTORE DUP1 MLOAD SWAP1 PUSH1 0x20 ADD KECCAK256 SWAP1 POP SWAP1 JUMP JUMPDEST PUSH0 PUSH1 0x12 SWAP1 POP SWAP1 JUMP JUMPDEST PUSH0 PUSH20 0xFFFFFFFFFFFFFFFFFFFFFFFFFFFFFFFFFFFFFFFF AND DUP3 PUSH20 0xFFFFFFFFFFFFFFFFFFFFFFFFFFFFFFFFFFFFFFFF AND SUB PUSH3 0xA31 JUMPI PUSH0 PUSH1 0x40 MLOAD PUSH32 0xEC442F0500000000000000000000000000000000000000000000000000000000 DUP2 MSTORE PUSH1 0x4 ADD PUSH3 0xA28 SWAP2 SWAP1 PUSH3 0x1D78 JUMP JUMPDEST PUSH1 0x40 MLOAD DUP1 SWAP2 SUB SWAP1 REVERT JUMPDEST PUSH3 0xA44 PUSH0 DUP4 DUP4 PUSH3 0xAF4 PUSH1 0x20 SHL PUSH1 0x20 SHR JUMP JUMPDEST POP POP JUMP JUMPDEST PUSH0 PUSH3 0xA5C DUP5 DUP5 DUP5 PUSH3 0xD18 PUSH1 0x20 SHL PUSH1 0x20 SHR JUMP JUMPDEST PUSH1 0x1 SWAP1 POP SWAP4 SWAP3 POP POP POP JUMP JUMPDEST PUSH3 0xA7C DUP4 DUP4 DUP4 PUSH1 0x1 PUSH3 0xF2D PUSH1 0x20 SHL PUSH1 0x20 SHR JUMP JUMPDEST POP POP POP JUMP JUMPDEST PUSH0 DUP1 DUP3 SWAP1 POP PUSH1 0x1F DUP2 MLOAD GT ISZERO PUSH3 0xAD0 JUMPI DUP3 PUSH1 0x40 MLOAD PUSH32 0x305A27A900000000000000000000000000000000000000000000000000000000 DUP2 MSTORE PUSH1 0x4 ADD PUSH3 0xAC7 SWAP2 SWAP1 PUSH3 0x2149 JUMP JUMPDEST PUSH1 0x40 MLOAD DUP1 SWAP2 SUB SWAP1 REVERT JUMPDEST DUP1 MLOAD DUP2 PUSH3 0xADE SWAP1 PUSH3 0x219A JUMP JUMPDEST PUSH0 SHR OR PUSH0 SHL SWAP2 POP POP SWAP2 SWAP1 POP JUMP JUMPDEST PUSH0 DUP2 SWAP1 POP SWAP2 SWAP1 POP JUMP JUMPDEST PUSH0 PUSH20 0xFFFFFFFFFFFFFFFFFFFFFFFFFFFFFFFFFFFFFFFF AND DUP4 PUSH20 0xFFFFFFFFFFFFFFFFFFFFFFFFFFFFFFFFFFFFFFFF AND SUB PUSH3 0xB48 JUMPI DUP1 PUSH1 0x2 PUSH0 DUP3 DUP3 SLOAD PUSH3 0xB3B SWAP2 SWAP1 PUSH3 0x2209 JUMP JUMPDEST SWAP3 POP POP DUP2 SWAP1 SSTORE POP PUSH3 0xC19 JUMP JUMPDEST PUSH0 DUP1 PUSH0 DUP6 PUSH20 0xFFFFFFFFFFFFFFFFFFFFFFFFFFFFFFFFFFFFFFFF AND PUSH20 0xFFFFFFFFFFFFFFFFFFFFFFFFFFFFFFFFFFFFFFFF AND DUP2 MSTORE PUSH1 0x20 ADD SWAP1 DUP2 MSTORE PUSH1 0x20 ADD PUSH0 KECCAK256 SLOAD SWAP1 POP DUP2 DUP2 LT ISZERO PUSH3 0xBD4 JUMPI DUP4 DUP2 DUP4 PUSH1 0x40 MLOAD PUSH32 0xE450D38C00000000000000000000000000000000000000000000000000000000 DUP2 MSTORE PUSH1 0x4 ADD PUSH3 0xBCB SWAP4 SWAP3 SWAP2 SWAP1 PUSH3 0x2243 JUMP JUMPDEST PUSH1 0x40 MLOAD DUP1 SWAP2 SUB SWAP1 REVERT JUMPDEST DUP2 DUP2 SUB PUSH0 DUP1 DUP7 PUSH20 0xFFFFFFFFFFFFFFFFFFFFFFFFFFFFFFFFFFFFFFFF AND PUSH20 0xFFFFFFFFFFFFFFFFFFFFFFFFFFFFFFFFFFFFFFFF AND DUP2 MSTORE PUSH1 0x20 ADD SWAP1 DUP2 MSTORE PUSH1 0x20 ADD PUSH0 KECCAK256 DUP2 SWAP1 SSTORE POP POP JUMPDEST PUSH0 PUSH20 0xFFFFFFFFFFFFFFFFFFFFFFFFFFFFFFFFFFFFFFFF AND DUP3 PUSH20 0xFFFFFFFFFFFFFFFFFFFFFFFFFFFFFFFFFFFFFFFF AND SUB PUSH3 0xC62 JUMPI DUP1 PUSH1 0x2 PUSH0 DUP3 DUP3 SLOAD SUB SWAP3 POP POP DUP2 SWAP1 SSTORE POP PUSH3 0xCAC JUMP JUMPDEST DUP1 PUSH0 DUP1 DUP5 PUSH20 0xFFFFFFFFFFFFFFFFFFFFFFFFFFFFFFFFFFFFFFFF AND PUSH20 0xFFFFFFFFFFFFFFFFFFFFFFFFFFFFFFFFFFFFFFFF AND DUP2 MSTORE PUSH1 0x20 ADD SWAP1 DUP2 MSTORE PUSH1 0x20 ADD PUSH0 KECCAK256 PUSH0 DUP3 DUP3 SLOAD ADD SWAP3 POP POP DUP2 SWAP1 SSTORE POP JUMPDEST DUP2 PUSH20 0xFFFFFFFFFFFFFFFFFFFFFFFFFFFFFFFFFFFFFFFF AND DUP4 PUSH20 0xFFFFFFFFFFFFFFFFFFFFFFFFFFFFFFFFFFFFFFFF AND PUSH32 0xDDF252AD1BE2C89B69C2B068FC378DAA952BA7F163C4A11628F55A4DF523B3EF DUP4 PUSH1 0x40 MLOAD PUSH3 0xD0B SWAP2 SWAP1 PUSH3 0x227E JUMP JUMPDEST PUSH1 0x40 MLOAD DUP1 SWAP2 SUB SWAP1 LOG3 POP POP POP JUMP JUMPDEST PUSH0 PUSH2 0x3E8 PUSH1 0xE PUSH1 0x16 SWAP1 SLOAD SWAP1 PUSH2 0x100 EXP SWAP1 DIV PUSH2 0xFFFF AND PUSH2 0xFFFF AND DUP4 PUSH3 0xD3E SWAP2 SWAP1 PUSH3 0x1F60 JUMP JUMPDEST PUSH3 0xD4A SWAP2 SWAP1 PUSH3 0x1FD7 JUMP JUMPDEST PUSH1 0xF DUP2 SWAP1 SSTORE POP PUSH2 0x3E8 PUSH1 0xE PUSH1 0x14 SWAP1 SLOAD SWAP1 PUSH2 0x100 EXP SWAP1 DIV PUSH2 0xFFFF AND PUSH2 0xFFFF AND DUP4 PUSH3 0xD75 SWAP2 SWAP1 PUSH3 0x1F60 JUMP JUMPDEST PUSH3 0xD81 SWAP2 SWAP1 PUSH3 0x1FD7 JUMP JUMPDEST PUSH1 0x11 DUP2 SWAP1 SSTORE POP PUSH2 0x3E8 PUSH1 0xE PUSH1 0x18 SWAP1 SLOAD SWAP1 PUSH2 0x100 EXP SWAP1 DIV PUSH2 0xFFFF AND PUSH2 0xFFFF AND DUP4 PUSH3 0xDAC SWAP2 SWAP1 PUSH3 0x1F60 JUMP JUMPDEST PUSH3 0xDB8 SWAP2 SWAP1 PUSH3 0x1FD7 JUMP JUMPDEST PUSH1 0x10 DUP2 SWAP1 SSTORE POP PUSH0 PUSH1 0x10 SLOAD PUSH1 0x11 SLOAD PUSH1 0xF SLOAD PUSH3 0xDD4 SWAP2 SWAP1 PUSH3 0x2209 JUMP JUMPDEST PUSH3 0xDE0 SWAP2 SWAP1 PUSH3 0x2209 JUMP JUMPDEST SWAP1 POP PUSH0 DUP2 DUP5 PUSH3 0xDF1 SWAP2 SWAP1 PUSH3 0x2299 JUMP JUMPDEST SWAP1 POP PUSH1 0xE PUSH1 0x1B SWAP1 SLOAD SWAP1 PUSH2 0x100 EXP SWAP1 DIV PUSH1 0xFF AND ISZERO PUSH3 0xE25 JUMPI PUSH3 0xE1C DUP7 DUP7 DUP7 PUSH3 0x1105 PUSH1 0x20 SHL PUSH1 0x20 SHR JUMP JUMPDEST POP POP POP PUSH3 0xF28 JUMP JUMPDEST PUSH1 0xE PUSH1 0x1A SWAP1 SLOAD SWAP1 PUSH2 0x100 EXP SWAP1 DIV PUSH1 0xFF AND DUP1 ISZERO PUSH3 0xEDA JUMPI POP PUSH1 0x9 PUSH0 DUP7 PUSH20 0xFFFFFFFFFFFFFFFFFFFFFFFFFFFFFFFFFFFFFFFF AND PUSH20 0xFFFFFFFFFFFFFFFFFFFFFFFFFFFFFFFFFFFFFFFF AND DUP2 MSTORE PUSH1 0x20 ADD SWAP1 DUP2 MSTORE PUSH1 0x20 ADD PUSH0 KECCAK256 PUSH0 SWAP1 SLOAD SWAP1 PUSH2 0x100 EXP SWAP1 DIV PUSH1 0xFF AND DUP1 PUSH3 0xED9 JUMPI POP PUSH1 0x9 PUSH0 DUP8 PUSH20 0xFFFFFFFFFFFFFFFFFFFFFFFFFFFFFFFFFFFFFFFF AND PUSH20 0xFFFFFFFFFFFFFFFFFFFFFFFFFFFFFFFFFFFFFFFF AND DUP2 MSTORE PUSH1 0x20 ADD SWAP1 DUP2 MSTORE PUSH1 0x20 ADD PUSH0 KECCAK256 PUSH0 SWAP1 SLOAD SWAP1 PUSH2 0x100 EXP SWAP1 DIV PUSH1 0xFF AND JUMPDEST JUMPDEST ISZERO PUSH3 0xEF7 JUMPI DUP2 SWAP3 POP PUSH3 0xEF6 DUP7 ADDRESS DUP5 PUSH3 0x1105 PUSH1 0x20 SHL PUSH1 0x20 SHR JUMP JUMPDEST JUMPDEST PUSH3 0xF0A DUP7 DUP7 DUP4 PUSH3 0x1105 PUSH1 0x20 SHL PUSH1 0x20 SHR JUMP JUMPDEST PUSH0 DUP4 GT ISZERO PUSH3 0xF24 JUMPI PUSH3 0xF23 PUSH3 0x1203 PUSH1 0x20 SHL PUSH1 0x20 SHR JUMP JUMPDEST JUMPDEST POP POP POP JUMPDEST POP POP POP JUMP JUMPDEST PUSH0 PUSH20 0xFFFFFFFFFFFFFFFFFFFFFFFFFFFFFFFFFFFFFFFF AND DUP5 PUSH20 0xFFFFFFFFFFFFFFFFFFFFFFFFFFFFFFFFFFFFFFFF AND SUB PUSH3 0xFA0 JUMPI PUSH0 PUSH1 0x40 MLOAD PUSH32 0xE602DF0500000000000000000000000000000000000000000000000000000000 DUP2 MSTORE PUSH1 0x4 ADD PUSH3 0xF97 SWAP2 SWAP1 PUSH3 0x1D78 JUMP JUMPDEST PUSH1 0x40 MLOAD DUP1 SWAP2 SUB SWAP1 REVERT JUMPDEST PUSH0 PUSH20 0xFFFFFFFFFFFFFFFFFFFFFFFFFFFFFFFFFFFFFFFF AND DUP4 PUSH20 0xFFFFFFFFFFFFFFFFFFFFFFFFFFFFFFFFFFFFFFFF AND SUB PUSH3 0x1013 JUMPI PUSH0 PUSH1 0x40 MLOAD PUSH32 0x94280D6200000000000000000000000000000000000000000000000000000000 DUP2 MSTORE PUSH1 0x4 ADD PUSH3 0x100A SWAP2 SWAP1 PUSH3 0x1D78 JUMP JUMPDEST PUSH1 0x40 MLOAD DUP1 SWAP2 SUB SWAP1 REVERT JUMPDEST DUP2 PUSH1 0x1 PUSH0 DUP7 PUSH20 0xFFFFFFFFFFFFFFFFFFFFFFFFFFFFFFFFFFFFFFFF AND PUSH20 0xFFFFFFFFFFFFFFFFFFFFFFFFFFFFFFFFFFFFFFFF AND DUP2 MSTORE PUSH1 0x20 ADD SWAP1 DUP2 MSTORE PUSH1 0x20 ADD PUSH0 KECCAK256 PUSH0 DUP6 PUSH20 0xFFFFFFFFFFFFFFFFFFFFFFFFFFFFFFFFFFFFFFFF AND PUSH20 0xFFFFFFFFFFFFFFFFFFFFFFFFFFFFFFFFFFFFFFFF AND DUP2 MSTORE PUSH1 0x20 ADD SWAP1 DUP2 MSTORE PUSH1 0x20 ADD PUSH0 KECCAK256 DUP2 SWAP1 SSTORE POP DUP1 ISZERO PUSH3 0x10FF JUMPI DUP3 PUSH20 0xFFFFFFFFFFFFFFFFFFFFFFFFFFFFFFFFFFFFFFFF AND DUP5 PUSH20 0xFFFFFFFFFFFFFFFFFFFFFFFFFFFFFFFFFFFFFFFF AND PUSH32 0x8C5BE1E5EBEC7D5BD14F71427D1E84F3DD0314C0F7B2291E5B200AC8C7C3B925 DUP5 PUSH1 0x40 MLOAD PUSH3 0x10F6 SWAP2 SWAP1 PUSH3 0x227E JUMP JUMPDEST PUSH1 0x40 MLOAD DUP1 SWAP2 SUB SWAP1 LOG3 JUMPDEST POP POP POP POP JUMP JUMPDEST PUSH0 PUSH20 0xFFFFFFFFFFFFFFFFFFFFFFFFFFFFFFFFFFFFFFFF AND DUP4 PUSH20 0xFFFFFFFFFFFFFFFFFFFFFFFFFFFFFFFFFFFFFFFF AND SUB PUSH3 0x1178 JUMPI PUSH0 PUSH1 0x40 MLOAD PUSH32 0x96C6FD1E00000000000000000000000000000000000000000000000000000000 DUP2 MSTORE PUSH1 0x4 ADD PUSH3 0x116F SWAP2 SWAP1 PUSH3 0x1D78 JUMP JUMPDEST PUSH1 0x40 MLOAD DUP1 SWAP2 SUB SWAP1 REVERT JUMPDEST PUSH0 PUSH20 0xFFFFFFFFFFFFFFFFFFFFFFFFFFFFFFFFFFFFFFFF AND DUP3 PUSH20 0xFFFFFFFFFFFFFFFFFFFFFFFFFFFFFFFFFFFFFFFF AND SUB PUSH3 0x11EB JUMPI PUSH0 PUSH1 0x40 MLOAD PUSH32 0xEC442F0500000000000000000000000000000000000000000000000000000000 DUP2 MSTORE PUSH1 0x4 ADD PUSH3 0x11E2 SWAP2 SWAP1 PUSH3 0x1D78 JUMP JUMPDEST PUSH1 0x40 MLOAD DUP1 SWAP2 SUB SWAP1 REVERT JUMPDEST PUSH3 0x11FE DUP4 DUP4 DUP4 PUSH3 0xAF4 PUSH1 0x20 SHL PUSH1 0x20 SHR JUMP JUMPDEST POP POP POP JUMP JUMPDEST PUSH1 0x1 PUSH1 0xE PUSH1 0x1B PUSH2 0x100 EXP DUP2 SLOAD DUP2 PUSH1 0xFF MUL NOT AND SWAP1 DUP4 ISZERO ISZERO MUL OR SWAP1 SSTORE POP PUSH0 PUSH1 0xF SLOAD GT ISZERO PUSH3 0x1275 JUMPI PUSH3 0x126C PUSH1 0x2 PUSH1 0xF SLOAD PUSH3 0x123E SWAP2 SWAP1 PUSH3 0x1FD7 JUMP JUMPDEST PUSH1 0xA PUSH0 SWAP1 SLOAD SWAP1 PUSH2 0x100 EXP SWAP1 DIV PUSH20 0xFFFFFFFFFFFFFFFFFFFFFFFFFFFFFFFFFFFFFFFF AND PUSH3 0x1315 PUSH1 0x20 SHL PUSH1 0x20 SHR JUMP JUMPDEST POP PUSH0 PUSH1 0xF DUP2 SWAP1 SSTORE POP JUMPDEST PUSH0 PUSH1 0x10 SLOAD GT ISZERO PUSH3 0x12CC JUMPI PUSH3 0x12C3 PUSH1 0x2 PUSH1 0x10 SLOAD PUSH3 0x1295 SWAP2 SWAP1 PUSH3 0x1FD7 JUMP JUMPDEST PUSH1 0xB PUSH0 SWAP1 SLOAD SWAP1 PUSH2 0x100 EXP SWAP1 DIV PUSH20 0xFFFFFFFFFFFFFFFFFFFFFFFFFFFFFFFFFFFFFFFF AND PUSH3 0x1315 PUSH1 0x20 SHL PUSH1 0x20 SHR JUMP JUMPDEST POP PUSH0 PUSH1 0x10 DUP2 SWAP1 SSTORE POP JUMPDEST PUSH0 PUSH1 0x11 SLOAD GT ISZERO PUSH3 0x12F9 JUMPI PUSH3 0x12F8 PUSH1 0x2 PUSH1 0x11 SLOAD PUSH3 0x12EC SWAP2 SWAP1 PUSH3 0x1FD7 JUMP JUMPDEST PUSH3 0x164B PUSH1 0x20 SHL PUSH1 0x20 SHR JUMP JUMPDEST JUMPDEST PUSH0 PUSH1 0xE PUSH1 0x1B PUSH2 0x100 EXP DUP2 SLOAD DUP2 PUSH1 0xFF MUL NOT AND SWAP1 DUP4 ISZERO ISZERO MUL OR SWAP1 SSTORE POP JUMP JUMPDEST PUSH0 DUP1 SELFBALANCE SWAP1 POP PUSH0 PUSH1 0x2 PUSH8 0xFFFFFFFFFFFFFFFF DUP2 GT ISZERO PUSH3 0x1339 JUMPI PUSH3 0x1338 PUSH3 0x1A29 JUMP JUMPDEST JUMPDEST PUSH1 0x40 MLOAD SWAP1 DUP1 DUP3 MSTORE DUP1 PUSH1 0x20 MUL PUSH1 0x20 ADD DUP3 ADD PUSH1 0x40 MSTORE DUP1 ISZERO PUSH3 0x1368 JUMPI DUP2 PUSH1 0x20 ADD PUSH1 0x20 DUP3 MUL DUP1 CALLDATASIZE DUP4 CALLDATACOPY DUP1 DUP3 ADD SWAP2 POP POP SWAP1 POP JUMPDEST POP SWAP1 POP ADDRESS DUP2 PUSH0 DUP2 MLOAD DUP2 LT PUSH3 0x1382 JUMPI PUSH3 0x1381 PUSH3 0x22D3 JUMP JUMPDEST JUMPDEST PUSH1 0x20 MUL PUSH1 0x20 ADD ADD SWAP1 PUSH20 0xFFFFFFFFFFFFFFFFFFFFFFFFFFFFFFFFFFFFFFFF AND SWAP1 DUP2 PUSH20 0xFFFFFFFFFFFFFFFFFFFFFFFFFFFFFFFFFFFFFFFF AND DUP2 MSTORE POP POP PUSH1 0xD PUSH0 SWAP1 SLOAD SWAP1 PUSH2 0x100 EXP SWAP1 DIV PUSH20 0xFFFFFFFFFFFFFFFFFFFFFFFFFFFFFFFFFFFFFFFF AND PUSH20 0xFFFFFFFFFFFFFFFFFFFFFFFFFFFFFFFFFFFFFFFF AND PUSH4 0xAD5C4648 PUSH1 0x40 MLOAD DUP2 PUSH4 0xFFFFFFFF AND PUSH1 0xE0 SHL DUP2 MSTORE PUSH1 0x4 ADD PUSH1 0x20 PUSH1 0x40 MLOAD DUP1 DUP4 SUB DUP2 DUP7 GAS STATICCALL ISZERO DUP1 ISZERO PUSH3 0x1427 JUMPI RETURNDATASIZE PUSH0 DUP1 RETURNDATACOPY RETURNDATASIZE PUSH0 REVERT JUMPDEST POP POP POP POP PUSH1 0x40 MLOAD RETURNDATASIZE PUSH1 0x1F NOT PUSH1 0x1F DUP3 ADD AND DUP3 ADD DUP1 PUSH1 0x40 MSTORE POP DUP2 ADD SWAP1 PUSH3 0x144D SWAP2 SWAP1 PUSH3 0x19EF JUMP JUMPDEST DUP2 PUSH1 0x1 DUP2 MLOAD DUP2 LT PUSH3 0x1464 JUMPI PUSH3 0x1463 PUSH3 0x22D3 JUMP JUMPDEST JUMPDEST PUSH1 0x20 MUL PUSH1 0x20 ADD ADD SWAP1 PUSH20 0xFFFFFFFFFFFFFFFFFFFFFFFFFFFFFFFFFFFFFFFF AND SWAP1 DUP2 PUSH20 0xFFFFFFFFFFFFFFFFFFFFFFFFFFFFFFFFFFFFFFFF AND DUP2 MSTORE POP POP DUP5 PUSH3 0x14B0 ADDRESS PUSH3 0x16BB PUSH1 0x20 SHL PUSH1 0x20 SHR JUMP JUMPDEST LT ISZERO PUSH3 0x14F4 JUMPI PUSH1 0x40 MLOAD PUSH32 0x8C379A000000000000000000000000000000000000000000000000000000000 DUP2 MSTORE PUSH1 0x4 ADD PUSH3 0x14EB SWAP1 PUSH3 0x234E JUMP JUMPDEST PUSH1 0x40 MLOAD DUP1 SWAP2 SUB SWAP1 REVERT JUMPDEST PUSH3 0x1528 ADDRESS PUSH1 0xC PUSH0 SWAP1 SLOAD SWAP1 PUSH2 0x100 EXP SWAP1 DIV PUSH20 0xFFFFFFFFFFFFFFFFFFFFFFFFFFFFFFFFFFFFFFFF AND DUP8 PUSH3 0xA67 PUSH1 0x20 SHL PUSH1 0x20 SHR JUMP JUMPDEST PUSH3 0x155B ADDRESS PUSH1 0xC PUSH0 SWAP1 SLOAD SWAP1 PUSH2 0x100 EXP SWAP1 DIV PUSH20 0xFFFFFFFFFFFFFFFFFFFFFFFFFFFFFFFFFFFFFFFF AND PUSH3 0x1700 PUSH1 0x20 SHL PUSH1 0x20 SHR JUMP JUMPDEST DUP6 GT ISZERO PUSH3 0x15A0 JUMPI PUSH1 0x40 MLOAD PUSH32 0x8C379A000000000000000000000000000000000000000000000000000000000 DUP2 MSTORE PUSH1 0x4 ADD PUSH3 0x1597 SWAP1 PUSH3 0x23BC JUMP JUMPDEST PUSH1 0x40 MLOAD DUP1 SWAP2 SUB SWAP1 REVERT JUMPDEST PUSH1 0xD PUSH0 SWAP1 SLOAD SWAP1 PUSH2 0x100 EXP SWAP1 DIV PUSH20 0xFFFFFFFFFFFFFFFFFFFFFFFFFFFFFFFFFFFFFFFF AND PUSH20 0xFFFFFFFFFFFFFFFFFFFFFFFFFFFFFFFFFFFFFFFF AND PUSH4 0x791AC947 DUP7 PUSH0 DUP5 DUP9 TIMESTAMP PUSH1 0x40 MLOAD DUP7 PUSH4 0xFFFFFFFF AND PUSH1 0xE0 SHL DUP2 MSTORE PUSH1 0x4 ADD PUSH3 0x1604 SWAP6 SWAP5 SWAP4 SWAP3 SWAP2 SWAP1 PUSH3 0x24E4 JUMP JUMPDEST PUSH0 PUSH1 0x40 MLOAD DUP1 DUP4 SUB DUP2 PUSH0 DUP8 DUP1 EXTCODESIZE ISZERO DUP1 ISZERO PUSH3 0x161C JUMPI PUSH0 DUP1 REVERT JUMPDEST POP GAS CALL ISZERO DUP1 ISZERO PUSH3 0x162F JUMPI RETURNDATASIZE PUSH0 DUP1 RETURNDATACOPY RETURNDATASIZE PUSH0 REVERT JUMPDEST POP POP POP POP DUP2 SELFBALANCE PUSH3 0x1641 SWAP2 SWAP1 PUSH3 0x2299 JUMP JUMPDEST SWAP3 POP POP POP SWAP3 SWAP2 POP POP JUMP JUMPDEST PUSH0 PUSH3 0x165E DUP3 ADDRESS PUSH3 0x1315 PUSH1 0x20 SHL PUSH1 0x20 SHR JUMP JUMPDEST SWAP1 POP PUSH0 DUP2 GT PUSH3 0x16A5 JUMPI PUSH1 0x40 MLOAD PUSH32 0x8C379A000000000000000000000000000000000000000000000000000000000 DUP2 MSTORE PUSH1 0x4 ADD PUSH3 0x169C SWAP1 PUSH3 0x25BA JUMP JUMPDEST PUSH1 0x40 MLOAD DUP1 SWAP2 SUB SWAP1 REVERT JUMPDEST PUSH3 0x16B7 DUP3 DUP3 PUSH3 0x1782 PUSH1 0x20 SHL PUSH1 0x20 SHR JUMP JUMPDEST POP POP JUMP JUMPDEST PUSH0 DUP1 PUSH0 DUP4 PUSH20 0xFFFFFFFFFFFFFFFFFFFFFFFFFFFFFFFFFFFFFFFF AND PUSH20 0xFFFFFFFFFFFFFFFFFFFFFFFFFFFFFFFFFFFFFFFF AND DUP2 MSTORE PUSH1 0x20 ADD SWAP1 DUP2 MSTORE PUSH1 0x20 ADD PUSH0 KECCAK256 SLOAD SWAP1 POP SWAP2 SWAP1 POP JUMP JUMPDEST PUSH0 PUSH1 0x1 PUSH0 DUP5 PUSH20 0xFFFFFFFFFFFFFFFFFFFFFFFFFFFFFFFFFFFFFFFF AND PUSH20 0xFFFFFFFFFFFFFFFFFFFFFFFFFFFFFFFFFFFFFFFF AND DUP2 MSTORE PUSH1 0x20 ADD SWAP1 DUP2 MSTORE PUSH1 0x20 ADD PUSH0 KECCAK256 PUSH0 DUP4 PUSH20 0xFFFFFFFFFFFFFFFFFFFFFFFFFFFFFFFFFFFFFFFF AND PUSH20 0xFFFFFFFFFFFFFFFFFFFFFFFFFFFFFFFFFFFFFFFF AND DUP2 MSTORE PUSH1 0x20 ADD SWAP1 DUP2 MSTORE PUSH1 0x20 ADD PUSH0 KECCAK256 SLOAD SWAP1 POP SWAP3 SWAP2 POP POP JUMP JUMPDEST DUP1 SELFBALANCE LT ISZERO PUSH3 0x17C8 JUMPI PUSH1 0x40 MLOAD PUSH32 0x8C379A000000000000000000000000000000000000000000000000000000000 DUP2 MSTORE PUSH1 0x4 ADD PUSH3 0x17BF SWAP1 PUSH3 0x2628 JUMP JUMPDEST PUSH1 0x40 MLOAD DUP1 SWAP2 SUB SWAP1 REVERT JUMPDEST PUSH3 0x17FC ADDRESS PUSH1 0xC PUSH0 SWAP1 SLOAD SWAP1 PUSH2 0x100 EXP SWAP1 DIV PUSH20 0xFFFFFFFFFFFFFFFFFFFFFFFFFFFFFFFFFFFFFFFF AND DUP5 PUSH3 0xA67 PUSH1 0x20 SHL PUSH1 0x20 SHR JUMP JUMPDEST PUSH3 0x182F ADDRESS PUSH1 0xD PUSH0 SWAP1 SLOAD SWAP1 PUSH2 0x100 EXP SWAP1 DIV PUSH20 0xFFFFFFFFFFFFFFFFFFFFFFFFFFFFFFFFFFFFFFFF AND PUSH3 0x1700 PUSH1 0x20 SHL PUSH1 0x20 SHR JUMP JUMPDEST DUP3 GT ISZERO PUSH3 0x1874 JUMPI PUSH1 0x40 MLOAD PUSH32 0x8C379A000000000000000000000000000000000000000000000000000000000 DUP2 MSTORE PUSH1 0x4 ADD PUSH3 0x186B SWAP1 PUSH3 0x26BC JUMP JUMPDEST PUSH1 0x40 MLOAD DUP1 SWAP2 SUB SWAP1 REVERT JUMPDEST PUSH0 DUP1 PUSH0 PUSH1 0xD PUSH0 SWAP1 SLOAD SWAP1 PUSH2 0x100 EXP SWAP1 DIV PUSH20 0xFFFFFFFFFFFFFFFFFFFFFFFFFFFFFFFFFFFFFFFF AND PUSH20 0xFFFFFFFFFFFFFFFFFFFFFFFFFFFFFFFFFFFFFFFF AND PUSH4 0xF305D719 DUP6 ADDRESS DUP9 PUSH0 DUP1 ADDRESS PUSH2 0x258 TIMESTAMP PUSH3 0x18CA SWAP2 SWAP1 PUSH3 0x2209 JUMP JUMPDEST PUSH1 0x40 MLOAD DUP9 PUSH4 0xFFFFFFFF AND PUSH1 0xE0 SHL DUP2 MSTORE PUSH1 0x4 ADD PUSH3 0x18ED SWAP7 SWAP6 SWAP5 SWAP4 SWAP3 SWAP2 SWAP1 PUSH3 0x26DC JUMP JUMPDEST PUSH1 0x60 PUSH1 0x40 MLOAD DUP1 DUP4 SUB DUP2 DUP6 DUP9 GAS CALL ISZERO DUP1 ISZERO PUSH3 0x190A JUMPI RETURNDATASIZE PUSH0 DUP1 RETURNDATACOPY RETURNDATASIZE PUSH0 REVERT JUMPDEST POP POP POP POP POP PUSH1 0x40 MLOAD RETURNDATASIZE PUSH1 0x1F NOT PUSH1 0x1F DUP3 ADD AND DUP3 ADD DUP1 PUSH1 0x40 MSTORE POP DUP2 ADD SWAP1 PUSH3 0x1931 SWAP2 SWAP1 PUSH3 0x2776 JUMP JUMPDEST SWAP3 POP SWAP3 POP SWAP3 POP PUSH0 DUP2 GT PUSH3 0x197C JUMPI PUSH1 0x40 MLOAD PUSH32 0x8C379A000000000000000000000000000000000000000000000000000000000 DUP2 MSTORE PUSH1 0x4 ADD PUSH3 0x1973 SWAP1 PUSH3 0x281D JUMP JUMPDEST PUSH1 0x40 MLOAD DUP1 SWAP2 SUB SWAP1 REVERT JUMPDEST PUSH0 PUSH1 0x11 DUP2 SWAP1 SSTORE POP POP POP POP POP POP JUMP JUMPDEST PUSH0 DUP1 REVERT JUMPDEST PUSH0 PUSH20 0xFFFFFFFFFFFFFFFFFFFFFFFFFFFFFFFFFFFFFFFF DUP3 AND SWAP1 POP SWAP2 SWAP1 POP JUMP JUMPDEST PUSH0 PUSH3 0x19B9 DUP3 PUSH3 0x198E JUMP JUMPDEST SWAP1 POP SWAP2 SWAP1 POP JUMP JUMPDEST PUSH3 0x19CB DUP2 PUSH3 0x19AD JUMP JUMPDEST DUP2 EQ PUSH3 0x19D6 JUMPI PUSH0 DUP1 REVERT JUMPDEST POP JUMP JUMPDEST PUSH0 DUP2 MLOAD SWAP1 POP PUSH3 0x19E9 DUP2 PUSH3 0x19C0 JUMP JUMPDEST SWAP3 SWAP2 POP POP JUMP JUMPDEST PUSH0 PUSH1 0x20 DUP3 DUP5 SUB SLT ISZERO PUSH3 0x1A07 JUMPI PUSH3 0x1A06 PUSH3 0x198A JUMP JUMPDEST JUMPDEST PUSH0 PUSH3 0x1A16 DUP5 DUP3 DUP6 ADD PUSH3 0x19D9 JUMP JUMPDEST SWAP2 POP POP SWAP3 SWAP2 POP POP JUMP JUMPDEST PUSH0 DUP2 MLOAD SWAP1 POP SWAP2 SWAP1 POP JUMP JUMPDEST PUSH32 0x4E487B7100000000000000000000000000000000000000000000000000000000 PUSH0 MSTORE PUSH1 0x41 PUSH1 0x4 MSTORE PUSH1 0x24 PUSH0 REVERT JUMPDEST PUSH32 0x4E487B7100000000000000000000000000000000000000000000000000000000 PUSH0 MSTORE PUSH1 0x22 PUSH1 0x4 MSTORE PUSH1 0x24 PUSH0 REVERT JUMPDEST PUSH0 PUSH1 0x2 DUP3 DIV SWAP1 POP PUSH1 0x1 DUP3 AND DUP1 PUSH3 0x1A9B JUMPI PUSH1 0x7F DUP3 AND SWAP2 POP JUMPDEST PUSH1 0x20 DUP3 LT DUP2 SUB PUSH3 0x1AB1 JUMPI PUSH3 0x1AB0 PUSH3 0x1A56 JUMP JUMPDEST JUMPDEST POP SWAP2 SWAP1 POP JUMP JUMPDEST PUSH0 DUP2 SWAP1 POP DUP2 PUSH0 MSTORE PUSH1 0x20 PUSH0 KECCAK256 SWAP1 POP SWAP2 SWAP1 POP JUMP JUMPDEST PUSH0 PUSH1 0x20 PUSH1 0x1F DUP4 ADD DIV SWAP1 POP SWAP2 SWAP1 POP JUMP JUMPDEST PUSH0 DUP3 DUP3 SHL SWAP1 POP SWAP3 SWAP2 POP POP JUMP JUMPDEST PUSH0 PUSH1 0x8 DUP4 MUL PUSH3 0x1B15 PUSH32 0xFFFFFFFFFFFFFFFFFFFFFFFFFFFFFFFFFFFFFFFFFFFFFFFFFFFFFFFFFFFFFFFF DUP3 PUSH3 0x1AD8 JUMP JUMPDEST PUSH3 0x1B21 DUP7 DUP4 PUSH3 0x1AD8 JUMP JUMPDEST SWAP6 POP DUP1 NOT DUP5 AND SWAP4 POP DUP1 DUP7 AND DUP5 OR SWAP3 POP POP POP SWAP4 SWAP3 POP POP POP JUMP JUMPDEST PUSH0 DUP2 SWAP1 POP SWAP2 SWAP1 POP JUMP JUMPDEST PUSH0 DUP2 SWAP1 POP SWAP2 SWAP1 POP JUMP JUMPDEST PUSH0 PUSH3 0x1B6B PUSH3 0x1B65 PUSH3 0x1B5F DUP5 PUSH3 0x1B39 JUMP JUMPDEST PUSH3 0x1B42 JUMP JUMPDEST PUSH3 0x1B39 JUMP JUMPDEST SWAP1 POP SWAP2 SWAP1 POP JUMP JUMPDEST PUSH0 DUP2 SWAP1 POP SWAP2 SWAP1 POP JUMP JUMPDEST PUSH3 0x1B86 DUP4 PUSH3 0x1B4B JUMP JUMPDEST PUSH3 0x1B9E PUSH3 0x1B95 DUP3 PUSH3 0x1B72 JUMP JUMPDEST DUP5 DUP5 SLOAD PUSH3 0x1AE4 JUMP JUMPDEST DUP3 SSTORE POP POP POP POP JUMP JUMPDEST PUSH0 SWAP1 JUMP JUMPDEST PUSH3 0x1BB4 PUSH3 0x1BA6 JUMP JUMPDEST PUSH3 0x1BC1 DUP2 DUP5 DUP5 PUSH3 0x1B7B JUMP JUMPDEST POP POP POP JUMP JUMPDEST JUMPDEST DUP2 DUP2 LT ISZERO PUSH3 0x1BE8 JUMPI PUSH3 0x1BDC PUSH0 DUP3 PUSH3 0x1BAA JUMP JUMPDEST PUSH1 0x1 DUP2 ADD SWAP1 POP PUSH3 0x1BC7 JUMP JUMPDEST POP POP JUMP JUMPDEST PUSH1 0x1F DUP3 GT ISZERO PUSH3 0x1C37 JUMPI PUSH3 0x1C01 DUP2 PUSH3 0x1AB7 JUMP JUMPDEST PUSH3 0x1C0C DUP5 PUSH3 0x1AC9 JUMP JUMPDEST DUP2 ADD PUSH1 0x20 DUP6 LT ISZERO PUSH3 0x1C1C JUMPI DUP2 SWAP1 POP JUMPDEST PUSH3 0x1C34 PUSH3 0x1C2B DUP6 PUSH3 0x1AC9 JUMP JUMPDEST DUP4 ADD DUP3 PUSH3 0x1BC6 JUMP JUMPDEST POP POP JUMPDEST POP POP POP JUMP JUMPDEST PUSH0 DUP3 DUP3 SHR SWAP1 POP SWAP3 SWAP2 POP POP JUMP JUMPDEST PUSH0 PUSH3 0x1C59 PUSH0 NOT DUP5 PUSH1 0x8 MUL PUSH3 0x1C3C JUMP JUMPDEST NOT DUP1 DUP4 AND SWAP2 POP POP SWAP3 SWAP2 POP POP JUMP JUMPDEST PUSH0 PUSH3 0x1C73 DUP4 DUP4 PUSH3 0x1C48 JUMP JUMPDEST SWAP2 POP DUP3 PUSH1 0x2 MUL DUP3 OR SWAP1 POP SWAP3 SWAP2 POP POP JUMP JUMPDEST PUSH3 0x1C8E DUP3 PUSH3 0x1A1F JUMP JUMPDEST PUSH8 0xFFFFFFFFFFFFFFFF DUP2 GT ISZERO PUSH3 0x1CAA JUMPI PUSH3 0x1CA9 PUSH3 0x1A29 JUMP JUMPDEST JUMPDEST PUSH3 0x1CB6 DUP3 SLOAD PUSH3 0x1A83 JUMP JUMPDEST PUSH3 0x1CC3 DUP3 DUP3 DUP6 PUSH3 0x1BEC JUMP JUMPDEST PUSH0 PUSH1 0x20 SWAP1 POP PUSH1 0x1F DUP4 GT PUSH1 0x1 DUP2 EQ PUSH3 0x1CF9 JUMPI PUSH0 DUP5 ISZERO PUSH3 0x1CE4 JUMPI DUP3 DUP8 ADD MLOAD SWAP1 POP JUMPDEST PUSH3 0x1CF0 DUP6 DUP3 PUSH3 0x1C66 JUMP JUMPDEST DUP7 SSTORE POP PUSH3 0x1D5F JUMP JUMPDEST PUSH1 0x1F NOT DUP5 AND PUSH3 0x1D09 DUP7 PUSH3 0x1AB7 JUMP JUMPDEST PUSH0 JUMPDEST DUP3 DUP2 LT ISZERO PUSH3 0x1D32 JUMPI DUP5 DUP10 ADD MLOAD DUP3 SSTORE PUSH1 0x1 DUP3 ADD SWAP2 POP PUSH1 0x20 DUP6 ADD SWAP5 POP PUSH1 0x20 DUP2 ADD SWAP1 POP PUSH3 0x1D0B JUMP JUMPDEST DUP7 DUP4 LT ISZERO PUSH3 0x1D52 JUMPI DUP5 DUP10 ADD MLOAD PUSH3 0x1D4E PUSH1 0x1F DUP10 AND DUP3 PUSH3 0x1C48 JUMP JUMPDEST DUP4 SSTORE POP JUMPDEST PUSH1 0x1 PUSH1 0x2 DUP9 MUL ADD DUP9 SSTORE POP POP POP JUMPDEST POP POP POP POP POP POP JUMP JUMPDEST PUSH3 0x1D72 DUP2 PUSH3 0x19AD JUMP JUMPDEST DUP3 MSTORE POP POP JUMP JUMPDEST PUSH0 PUSH1 0x20 DUP3 ADD SWAP1 POP PUSH3 0x1D8D PUSH0 DUP4 ADD DUP5 PUSH3 0x1D67 JUMP JUMPDEST SWAP3 SWAP2 POP POP JUMP JUMPDEST PUSH32 0x4E487B7100000000000000000000000000000000000000000000000000000000 PUSH0 MSTORE PUSH1 0x11 PUSH1 0x4 MSTORE PUSH1 0x24 PUSH0 REVERT JUMPDEST PUSH0 DUP2 PUSH1 0x1 SHR SWAP1 POP SWAP2 SWAP1 POP JUMP JUMPDEST PUSH0 DUP1 DUP3 SWAP2 POP DUP4 SWAP1 POP JUMPDEST PUSH1 0x1 DUP6 GT ISZERO PUSH3 0x1E1D JUMPI DUP1 DUP7 DIV DUP2 GT ISZERO PUSH3 0x1DF5 JUMPI PUSH3 0x1DF4 PUSH3 0x1D93 JUMP JUMPDEST JUMPDEST PUSH1 0x1 DUP6 AND ISZERO PUSH3 0x1E05 JUMPI DUP1 DUP3 MUL SWAP2 POP JUMPDEST DUP1 DUP2 MUL SWAP1 POP PUSH3 0x1E15 DUP6 PUSH3 0x1DC0 JUMP JUMPDEST SWAP5 POP PUSH3 0x1DD5 JUMP JUMPDEST SWAP5 POP SWAP5 SWAP3 POP POP POP JUMP JUMPDEST PUSH0 DUP3 PUSH3 0x1E37 JUMPI PUSH1 0x1 SWAP1 POP PUSH3 0x1F09 JUMP JUMPDEST DUP2 PUSH3 0x1E46 JUMPI PUSH0 SWAP1 POP PUSH3 0x1F09 JUMP JUMPDEST DUP2 PUSH1 0x1 DUP2 EQ PUSH3 0x1E5F JUMPI PUSH1 0x2 DUP2 EQ PUSH3 0x1E6A JUMPI PUSH3 0x1EA0 JUMP JUMPDEST PUSH1 0x1 SWAP2 POP POP PUSH3 0x1F09 JUMP JUMPDEST PUSH1 0xFF DUP5 GT ISZERO PUSH3 0x1E7F JUMPI PUSH3 0x1E7E PUSH3 0x1D93 JUMP JUMPDEST JUMPDEST DUP4 PUSH1 0x2 EXP SWAP2 POP DUP5 DUP3 GT ISZERO PUSH3 0x1E99 JUMPI PUSH3 0x1E98 PUSH3 0x1D93 JUMP JUMPDEST JUMPDEST POP PUSH3 0x1F09 JUMP JUMPDEST POP PUSH1 0x20 DUP4 LT PUSH2 0x133 DUP4 LT AND PUSH1 0x4E DUP5 LT PUSH1 0xB DUP5 LT AND OR ISZERO PUSH3 0x1EDA JUMPI DUP3 DUP3 EXP SWAP1 POP DUP4 DUP2 GT ISZERO PUSH3 0x1ED4 JUMPI PUSH3 0x1ED3 PUSH3 0x1D93 JUMP JUMPDEST JUMPDEST PUSH3 0x1F09 JUMP JUMPDEST PUSH3 0x1EE9 DUP5 DUP5 DUP5 PUSH1 0x1 PUSH3 0x1DCC JUMP JUMPDEST SWAP3 POP SWAP1 POP DUP2 DUP5 DIV DUP2 GT ISZERO PUSH3 0x1F03 JUMPI PUSH3 0x1F02 PUSH3 0x1D93 JUMP JUMPDEST JUMPDEST DUP2 DUP2 MUL SWAP1 POP JUMPDEST SWAP4 SWAP3 POP POP POP JUMP JUMPDEST PUSH0 PUSH3 0x1F1C DUP3 PUSH3 0x1B39 JUMP JUMPDEST SWAP2 POP PUSH3 0x1F29 DUP4 PUSH3 0x1B39 JUMP JUMPDEST SWAP3 POP PUSH3 0x1F58 PUSH32 0xFFFFFFFFFFFFFFFFFFFFFFFFFFFFFFFFFFFFFFFFFFFFFFFFFFFFFFFFFFFFFFFF DUP5 DUP5 PUSH3 0x1E26 JUMP JUMPDEST SWAP1 POP SWAP3 SWAP2 POP POP JUMP JUMPDEST PUSH0 PUSH3 0x1F6C DUP3 PUSH3 0x1B39 JUMP JUMPDEST SWAP2 POP PUSH3 0x1F79 DUP4 PUSH3 0x1B39 JUMP JUMPDEST SWAP3 POP DUP3 DUP3 MUL PUSH3 0x1F89 DUP2 PUSH3 0x1B39 JUMP JUMPDEST SWAP2 POP DUP3 DUP3 DIV DUP5 EQ DUP4 ISZERO OR PUSH3 0x1FA3 JUMPI PUSH3 0x1FA2 PUSH3 0x1D93 JUMP JUMPDEST JUMPDEST POP SWAP3 SWAP2 POP POP JUMP JUMPDEST PUSH32 0x4E487B7100000000000000000000000000000000000000000000000000000000 PUSH0 MSTORE PUSH1 0x12 PUSH1 0x4 MSTORE PUSH1 0x24 PUSH0 REVERT JUMPDEST PUSH0 PUSH3 0x1FE3 DUP3 PUSH3 0x1B39 JUMP JUMPDEST SWAP2 POP PUSH3 0x1FF0 DUP4 PUSH3 0x1B39 JUMP JUMPDEST SWAP3 POP DUP3 PUSH3 0x2003 JUMPI PUSH3 0x2002 PUSH3 0x1FAA JUMP JUMPDEST JUMPDEST DUP3 DUP3 DIV SWAP1 POP SWAP3 SWAP2 POP POP JUMP JUMPDEST PUSH0 PUSH1 0x40 DUP3 ADD SWAP1 POP PUSH3 0x2023 PUSH0 DUP4 ADD DUP6 PUSH3 0x1D67 JUMP JUMPDEST PUSH3 0x2032 PUSH1 0x20 DUP4 ADD DUP5 PUSH3 0x1D67 JUMP JUMPDEST SWAP4 SWAP3 POP POP POP JUMP JUMPDEST PUSH0 DUP2 SWAP1 POP SWAP2 SWAP1 POP JUMP JUMPDEST PUSH3 0x204D DUP2 PUSH3 0x2039 JUMP JUMPDEST DUP3 MSTORE POP POP JUMP JUMPDEST PUSH3 0x205E DUP2 PUSH3 0x1B39 JUMP JUMPDEST DUP3 MSTORE POP POP JUMP JUMPDEST PUSH0 PUSH1 0xA0 DUP3 ADD SWAP1 POP PUSH3 0x2079 PUSH0 DUP4 ADD DUP9 PUSH3 0x2042 JUMP JUMPDEST PUSH3 0x2088 PUSH1 0x20 DUP4 ADD DUP8 PUSH3 0x2042 JUMP JUMPDEST PUSH3 0x2097 PUSH1 0x40 DUP4 ADD DUP7 PUSH3 0x2042 JUMP JUMPDEST PUSH3 0x20A6 PUSH1 0x60 DUP4 ADD DUP6 PUSH3 0x2053 JUMP JUMPDEST PUSH3 0x20B5 PUSH1 0x80 DUP4 ADD DUP5 PUSH3 0x1D67 JUMP JUMPDEST SWAP7 SWAP6 POP POP POP POP POP POP JUMP JUMPDEST PUSH0 DUP3 DUP3 MSTORE PUSH1 0x20 DUP3 ADD SWAP1 POP SWAP3 SWAP2 POP POP JUMP JUMPDEST PUSH0 JUMPDEST DUP4 DUP2 LT ISZERO PUSH3 0x20EE JUMPI DUP1 DUP3 ADD MLOAD DUP2 DUP5 ADD MSTORE PUSH1 0x20 DUP2 ADD SWAP1 POP PUSH3 0x20D1 JUMP JUMPDEST PUSH0 DUP5 DUP5 ADD MSTORE POP POP POP POP JUMP JUMPDEST PUSH0 PUSH1 0x1F NOT PUSH1 0x1F DUP4 ADD AND SWAP1 POP SWAP2 SWAP1 POP JUMP JUMPDEST PUSH0 PUSH3 0x2115 DUP3 PUSH3 0x1A1F JUMP JUMPDEST PUSH3 0x2121 DUP2 DUP6 PUSH3 0x20BF JUMP JUMPDEST SWAP4 POP PUSH3 0x2133 DUP2 DUP6 PUSH1 0x20 DUP7 ADD PUSH3 0x20CF JUMP JUMPDEST PUSH3 0x213E DUP2 PUSH3 0x20F9 JUMP JUMPDEST DUP5 ADD SWAP2 POP POP SWAP3 SWAP2 POP POP JUMP JUMPDEST PUSH0 PUSH1 0x20 DUP3 ADD SWAP1 POP DUP2 DUP2 SUB PUSH0 DUP4 ADD MSTORE PUSH3 0x2163 DUP2 DUP5 PUSH3 0x2109 JUMP JUMPDEST SWAP1 POP SWAP3 SWAP2 POP POP JUMP JUMPDEST PUSH0 DUP2 MLOAD SWAP1 POP SWAP2 SWAP1 POP JUMP JUMPDEST PUSH0 DUP2 SWAP1 POP PUSH1 0x20 DUP3 ADD SWAP1 POP SWAP2 SWAP1 POP JUMP JUMPDEST PUSH0 PUSH3 0x2191 DUP3 MLOAD PUSH3 0x2039 JUMP JUMPDEST DUP1 SWAP2 POP POP SWAP2 SWAP1 POP JUMP JUMPDEST PUSH0 PUSH3 0x21A6 DUP3 PUSH3 0x216B JUMP JUMPDEST DUP3 PUSH3 0x21B2 DUP5 PUSH3 0x2175 JUMP JUMPDEST SWAP1 POP PUSH3 0x21BF DUP2 PUSH3 0x2184 JUMP JUMPDEST SWAP3 POP PUSH1 0x20 DUP3 LT ISZERO PUSH3 0x2202 JUMPI PUSH3 0x21FD PUSH32 0xFFFFFFFFFFFFFFFFFFFFFFFFFFFFFFFFFFFFFFFFFFFFFFFFFFFFFFFFFFFFFFFF DUP4 PUSH1 0x20 SUB PUSH1 0x8 MUL PUSH3 0x1AD8 JUMP JUMPDEST DUP4 AND SWAP3 POP JUMPDEST POP POP SWAP2 SWAP1 POP JUMP JUMPDEST PUSH0 PUSH3 0x2215 DUP3 PUSH3 0x1B39 JUMP JUMPDEST SWAP2 POP PUSH3 0x2222 DUP4 PUSH3 0x1B39 JUMP JUMPDEST SWAP3 POP DUP3 DUP3 ADD SWAP1 POP DUP1 DUP3 GT ISZERO PUSH3 0x223D JUMPI PUSH3 0x223C PUSH3 0x1D93 JUMP JUMPDEST JUMPDEST SWAP3 SWAP2 POP POP JUMP JUMPDEST PUSH0 PUSH1 0x60 DUP3 ADD SWAP1 POP PUSH3 0x2258 PUSH0 DUP4 ADD DUP7 PUSH3 0x1D67 JUMP JUMPDEST PUSH3 0x2267 PUSH1 0x20 DUP4 ADD DUP6 PUSH3 0x2053 JUMP JUMPDEST PUSH3 0x2276 PUSH1 0x40 DUP4 ADD DUP5 PUSH3 0x2053 JUMP JUMPDEST SWAP5 SWAP4 POP POP POP POP JUMP JUMPDEST PUSH0 PUSH1 0x20 DUP3 ADD SWAP1 POP PUSH3 0x2293 PUSH0 DUP4 ADD DUP5 PUSH3 0x2053 JUMP JUMPDEST SWAP3 SWAP2 POP POP JUMP JUMPDEST PUSH0 PUSH3 0x22A5 DUP3 PUSH3 0x1B39 JUMP JUMPDEST SWAP2 POP PUSH3 0x22B2 DUP4 PUSH3 0x1B39 JUMP JUMPDEST SWAP3 POP DUP3 DUP3 SUB SWAP1 POP DUP2 DUP2 GT ISZERO PUSH3 0x22CD JUMPI PUSH3 0x22CC PUSH3 0x1D93 JUMP JUMPDEST JUMPDEST SWAP3 SWAP2 POP POP JUMP JUMPDEST PUSH32 0x4E487B7100000000000000000000000000000000000000000000000000000000 PUSH0 MSTORE PUSH1 0x32 PUSH1 0x4 MSTORE PUSH1 0x24 PUSH0 REVERT JUMPDEST PUSH32 0x496E73756666696369656E7420746F6B656E7320696E20636F6E747261637400 PUSH0 DUP3 ADD MSTORE POP JUMP JUMPDEST PUSH0 PUSH3 0x2336 PUSH1 0x1F DUP4 PUSH3 0x20BF JUMP JUMPDEST SWAP2 POP PUSH3 0x2343 DUP3 PUSH3 0x2300 JUMP JUMPDEST PUSH1 0x20 DUP3 ADD SWAP1 POP SWAP2 SWAP1 POP JUMP JUMPDEST PUSH0 PUSH1 0x20 DUP3 ADD SWAP1 POP DUP2 DUP2 SUB PUSH0 DUP4 ADD MSTORE PUSH3 0x2367 DUP2 PUSH3 0x2328 JUMP JUMPDEST SWAP1 POP SWAP2 SWAP1 POP JUMP JUMPDEST PUSH32 0x537761702072657175657374206578636565647320616C6C6F77616E63650000 PUSH0 DUP3 ADD MSTORE POP JUMP JUMPDEST PUSH0 PUSH3 0x23A4 PUSH1 0x1E DUP4 PUSH3 0x20BF JUMP JUMPDEST SWAP2 POP PUSH3 0x23B1 DUP3 PUSH3 0x236E JUMP JUMPDEST PUSH1 0x20 DUP3 ADD SWAP1 POP SWAP2 SWAP1 POP JUMP JUMPDEST PUSH0 PUSH1 0x20 DUP3 ADD SWAP1 POP DUP2 DUP2 SUB PUSH0 DUP4 ADD MSTORE PUSH3 0x23D5 DUP2 PUSH3 0x2396 JUMP JUMPDEST SWAP1 POP SWAP2 SWAP1 POP JUMP JUMPDEST PUSH0 DUP2 SWAP1 POP SWAP2 SWAP1 POP JUMP JUMPDEST PUSH0 PUSH3 0x2405 PUSH3 0x23FF PUSH3 0x23F9 DUP5 PUSH3 0x23DC JUMP JUMPDEST PUSH3 0x1B42 JUMP JUMPDEST PUSH3 0x1B39 JUMP JUMPDEST SWAP1 POP SWAP2 SWAP1 POP JUMP JUMPDEST PUSH3 0x2417 DUP2 PUSH3 0x23E5 JUMP JUMPDEST DUP3 MSTORE POP POP JUMP JUMPDEST PUSH0 DUP2 MLOAD SWAP1 POP SWAP2 SWAP1 POP JUMP JUMPDEST PUSH0 DUP3 DUP3 MSTORE PUSH1 0x20 DUP3 ADD SWAP1 POP SWAP3 SWAP2 POP POP JUMP JUMPDEST PUSH0 DUP2 SWAP1 POP PUSH1 0x20 DUP3 ADD SWAP1 POP SWAP2 SWAP1 POP JUMP JUMPDEST PUSH3 0x2451 DUP2 PUSH3 0x19AD JUMP JUMPDEST DUP3 MSTORE POP POP JUMP JUMPDEST PUSH0 PUSH3 0x2464 DUP4 DUP4 PUSH3 0x2446 JUMP JUMPDEST PUSH1 0x20 DUP4 ADD SWAP1 POP SWAP3 SWAP2 POP POP JUMP JUMPDEST PUSH0 PUSH1 0x20 DUP3 ADD SWAP1 POP SWAP2 SWAP1 POP JUMP JUMPDEST PUSH0 PUSH3 0x2488 DUP3 PUSH3 0x241D JUMP JUMPDEST PUSH3 0x2494 DUP2 DUP6 PUSH3 0x2427 JUMP JUMPDEST SWAP4 POP PUSH3 0x24A1 DUP4 PUSH3 0x2437 JUMP JUMPDEST DUP1 PUSH0 JUMPDEST DUP4 DUP2 LT ISZERO PUSH3 0x24D7 JUMPI DUP2 MLOAD PUSH3 0x24BB DUP9 DUP3 PUSH3 0x2457 JUMP JUMPDEST SWAP8 POP PUSH3 0x24C8 DUP4 PUSH3 0x2470 JUMP JUMPDEST SWAP3 POP POP PUSH1 0x1 DUP2 ADD SWAP1 POP PUSH3 0x24A4 JUMP JUMPDEST POP DUP6 SWAP4 POP POP POP POP SWAP3 SWAP2 POP POP JUMP JUMPDEST PUSH0 PUSH1 0xA0 DUP3 ADD SWAP1 POP PUSH3 0x24F9 PUSH0 DUP4 ADD DUP9 PUSH3 0x2053 JUMP JUMPDEST PUSH3 0x2508 PUSH1 0x20 DUP4 ADD DUP8 PUSH3 0x240C JUMP JUMPDEST DUP2 DUP2 SUB PUSH1 0x40 DUP4 ADD MSTORE PUSH3 0x251C DUP2 DUP7 PUSH3 0x247C JUMP JUMPDEST SWAP1 POP PUSH3 0x252D PUSH1 0x60 DUP4 ADD DUP6 PUSH3 0x1D67 JUMP JUMPDEST PUSH3 0x253C PUSH1 0x80 DUP4 ADD DUP5 PUSH3 0x2053 JUMP JUMPDEST SWAP7 SWAP6 POP POP POP POP POP POP JUMP JUMPDEST PUSH32 0x5377617020746F20455448206661696C65642C206E6F20455448207265636569 PUSH0 DUP3 ADD MSTORE PUSH32 0x7665640000000000000000000000000000000000000000000000000000000000 PUSH1 0x20 DUP3 ADD MSTORE POP JUMP JUMPDEST PUSH0 PUSH3 0x25A2 PUSH1 0x23 DUP4 PUSH3 0x20BF JUMP JUMPDEST SWAP2 POP PUSH3 0x25AF DUP3 PUSH3 0x2546 JUMP JUMPDEST PUSH1 0x40 DUP3 ADD SWAP1 POP SWAP2 SWAP1 POP JUMP JUMPDEST PUSH0 PUSH1 0x20 DUP3 ADD SWAP1 POP DUP2 DUP2 SUB PUSH0 DUP4 ADD MSTORE PUSH3 0x25D3 DUP2 PUSH3 0x2594 JUMP JUMPDEST SWAP1 POP SWAP2 SWAP1 POP JUMP JUMPDEST PUSH32 0x4E6F7420656E6F7567682045544820666F72206C697175696469747900000000 PUSH0 DUP3 ADD MSTORE POP JUMP JUMPDEST PUSH0 PUSH3 0x2610 PUSH1 0x1C DUP4 PUSH3 0x20BF JUMP JUMPDEST SWAP2 POP PUSH3 0x261D DUP3 PUSH3 0x25DA JUMP JUMPDEST PUSH1 0x20 DUP3 ADD SWAP1 POP SWAP2 SWAP1 POP JUMP JUMPDEST PUSH0 PUSH1 0x20 DUP3 ADD SWAP1 POP DUP2 DUP2 SUB PUSH0 DUP4 ADD MSTORE PUSH3 0x2641 DUP2 PUSH3 0x2602 JUMP JUMPDEST SWAP1 POP SWAP2 SWAP1 POP JUMP JUMPDEST PUSH32 0x4C6971756964697479206164646974696F6E2072657175657374206578636565 PUSH0 DUP3 ADD MSTORE PUSH32 0x647320616C6C6F77616E63650000000000000000000000000000000000000000 PUSH1 0x20 DUP3 ADD MSTORE POP JUMP JUMPDEST PUSH0 PUSH3 0x26A4 PUSH1 0x2C DUP4 PUSH3 0x20BF JUMP JUMPDEST SWAP2 POP PUSH3 0x26B1 DUP3 PUSH3 0x2648 JUMP JUMPDEST PUSH1 0x40 DUP3 ADD SWAP1 POP SWAP2 SWAP1 POP JUMP JUMPDEST PUSH0 PUSH1 0x20 DUP3 ADD SWAP1 POP DUP2 DUP2 SUB PUSH0 DUP4 ADD MSTORE PUSH3 0x26D5 DUP2 PUSH3 0x2696 JUMP JUMPDEST SWAP1 POP SWAP2 SWAP1 POP JUMP JUMPDEST PUSH0 PUSH1 0xC0 DUP3 ADD SWAP1 POP PUSH3 0x26F1 PUSH0 DUP4 ADD DUP10 PUSH3 0x1D67 JUMP JUMPDEST PUSH3 0x2700 PUSH1 0x20 DUP4 ADD DUP9 PUSH3 0x2053 JUMP JUMPDEST PUSH3 0x270F PUSH1 0x40 DUP4 ADD DUP8 PUSH3 0x240C JUMP JUMPDEST PUSH3 0x271E PUSH1 0x60 DUP4 ADD DUP7 PUSH3 0x240C JUMP JUMPDEST PUSH3 0x272D PUSH1 0x80 DUP4 ADD DUP6 PUSH3 0x1D67 JUMP JUMPDEST PUSH3 0x273C PUSH1 0xA0 DUP4 ADD DUP5 PUSH3 0x2053 JUMP JUMPDEST SWAP8 SWAP7 POP POP POP POP POP POP POP JUMP JUMPDEST PUSH3 0x2752 DUP2 PUSH3 0x1B39 JUMP JUMPDEST DUP2 EQ PUSH3 0x275D JUMPI PUSH0 DUP1 REVERT JUMPDEST POP JUMP JUMPDEST PUSH0 DUP2 MLOAD SWAP1 POP PUSH3 0x2770 DUP2 PUSH3 0x2747 JUMP JUMPDEST SWAP3 SWAP2 POP POP JUMP JUMPDEST PUSH0 DUP1 PUSH0 PUSH1 0x60 DUP5 DUP7 SUB SLT ISZERO PUSH3 0x2790 JUMPI PUSH3 0x278F PUSH3 0x198A JUMP JUMPDEST JUMPDEST PUSH0 PUSH3 0x279F DUP7 DUP3 DUP8 ADD PUSH3 0x2760 JUMP JUMPDEST SWAP4 POP POP PUSH1 0x20 PUSH3 0x27B2 DUP7 DUP3 DUP8 ADD PUSH3 0x2760 JUMP JUMPDEST SWAP3 POP POP PUSH1 0x40 PUSH3 0x27C5 DUP7 DUP3 DUP8 ADD PUSH3 0x2760 JUMP JUMPDEST SWAP2 POP POP SWAP3 POP SWAP3 POP SWAP3 JUMP JUMPDEST PUSH32 0x4C6971756964697479206164646974696F6E206661696C656400000000000000 PUSH0 DUP3 ADD MSTORE POP JUMP JUMPDEST PUSH0 PUSH3 0x2805 PUSH1 0x19 DUP4 PUSH3 0x20BF JUMP JUMPDEST SWAP2 POP PUSH3 0x2812 DUP3 PUSH3 0x27CF JUMP JUMPDEST PUSH1 0x20 DUP3 ADD SWAP1 POP SWAP2 SWAP1 POP JUMP JUMPDEST PUSH0 PUSH1 0x20 DUP3 ADD SWAP1 POP DUP2 DUP2 SUB PUSH0 DUP4 ADD MSTORE PUSH3 0x2836 DUP2 PUSH3 0x27F7 JUMP JUMPDEST SWAP1 POP SWAP2 SWAP1 POP JUMP JUMPDEST PUSH1 0x80 MLOAD PUSH1 0xA0 MLOAD PUSH1 0xC0 MLOAD PUSH1 0xE0 MLOAD PUSH2 0x100 MLOAD PUSH2 0x120 MLOAD PUSH2 0x140 MLOAD PUSH2 0x3545 PUSH3 0x288F PUSH0 CODECOPY PUSH0 PUSH2 0x1929 ADD MSTORE PUSH0 PUSH2 0x18EE ADD MSTORE PUSH0 PUSH2 0x200A ADD MSTORE PUSH0 PUSH2 0x1FE9 ADD MSTORE PUSH0 PUSH2 0x1729 ADD MSTORE PUSH0 PUSH2 0x177F ADD MSTORE PUSH0 PUSH2 0x17A8 ADD MSTORE PUSH2 0x3545 PUSH0 RETURN INVALID PUSH1 0x80 PUSH1 0x40 MSTORE PUSH1 0x4 CALLDATASIZE LT PUSH2 0x1E6 JUMPI PUSH0 CALLDATALOAD PUSH1 0xE0 SHR DUP1 PUSH4 0x7ECEBE00 GT PUSH2 0x101 JUMPI DUP1 PUSH4 0xAFCF2FC4 GT PUSH2 0x94 JUMPI DUP1 PUSH4 0xDD49756E GT PUSH2 0x63 JUMPI DUP1 PUSH4 0xDD49756E EQ PUSH2 0x6DB JUMPI DUP1 PUSH4 0xDD62ED3E EQ PUSH2 0x703 JUMPI DUP1 PUSH4 0xECFCA899 EQ PUSH2 0x73F JUMPI DUP1 PUSH4 0xF2FDE38B EQ PUSH2 0x769 JUMPI PUSH2 0x1ED JUMP JUMPDEST DUP1 PUSH4 0xAFCF2FC4 EQ PUSH2 0x637 JUMPI DUP1 PUSH4 0xBA244B7D EQ PUSH2 0x661 JUMPI DUP1 PUSH4 0xD505ACCF EQ PUSH2 0x689 JUMPI DUP1 PUSH4 0xDCA5F865 EQ PUSH2 0x6B1 JUMPI PUSH2 0x1ED JUMP JUMPDEST DUP1 PUSH4 0x8FFFABED GT PUSH2 0xD0 JUMPI DUP1 PUSH4 0x8FFFABED EQ PUSH2 0x57D JUMPI DUP1 PUSH4 0x95D89B41 EQ PUSH2 0x5A7 JUMPI DUP1 PUSH4 0x98118CB4 EQ PUSH2 0x5D1 JUMPI DUP1 PUSH4 0xA9059CBB EQ PUSH2 0x5FB JUMPI PUSH2 0x1ED JUMP JUMPDEST DUP1 PUSH4 0x7ECEBE00 EQ PUSH2 0x4BD JUMPI DUP1 PUSH4 0x83AFAAC0 EQ PUSH2 0x4F9 JUMPI DUP1 PUSH4 0x84B0196E EQ PUSH2 0x523 JUMPI DUP1 PUSH4 0x8DA5CB5B EQ PUSH2 0x553 JUMPI PUSH2 0x1ED JUMP JUMPDEST DUP1 PUSH4 0x23B872DD GT PUSH2 0x179 JUMPI DUP1 PUSH4 0x4A377E1D GT PUSH2 0x148 JUMPI DUP1 PUSH4 0x4A377E1D EQ PUSH2 0x417 JUMPI DUP1 PUSH4 0x6E03832A EQ PUSH2 0x441 JUMPI DUP1 PUSH4 0x70A08231 EQ PUSH2 0x46B JUMPI DUP1 PUSH4 0x715018A6 EQ PUSH2 0x4A7 JUMPI PUSH2 0x1ED JUMP JUMPDEST DUP1 PUSH4 0x23B872DD EQ PUSH2 0x35F JUMPI DUP1 PUSH4 0x313CE567 EQ PUSH2 0x39B JUMPI DUP1 PUSH4 0x3644E515 EQ PUSH2 0x3C5 JUMPI DUP1 PUSH4 0x492A937B EQ PUSH2 0x3EF JUMPI PUSH2 0x1ED JUMP JUMPDEST DUP1 PUSH4 0xB0FD47E GT PUSH2 0x1B5 JUMPI DUP1 PUSH4 0xB0FD47E EQ PUSH2 0x2A7 JUMPI DUP1 PUSH4 0x1694505E EQ PUSH2 0x2E3 JUMPI DUP1 PUSH4 0x18160DDD EQ PUSH2 0x30D JUMPI DUP1 PUSH4 0x22120793 EQ PUSH2 0x337 JUMPI PUSH2 0x1ED JUMP JUMPDEST DUP1 PUSH4 0x298A5F7 EQ PUSH2 0x1F1 JUMPI DUP1 PUSH4 0x44808C3 EQ PUSH2 0x219 JUMPI DUP1 PUSH4 0x6FDDE03 EQ PUSH2 0x241 JUMPI DUP1 PUSH4 0x95EA7B3 EQ PUSH2 0x26B JUMPI PUSH2 0x1ED JUMP JUMPDEST CALLDATASIZE PUSH2 0x1ED JUMPI STOP JUMPDEST PUSH0 DUP1 REVERT JUMPDEST CALLVALUE DUP1 ISZERO PUSH2 0x1FC JUMPI PUSH0 DUP1 REVERT JUMPDEST POP PUSH2 0x217 PUSH1 0x4 DUP1 CALLDATASIZE SUB DUP2 ADD SWAP1 PUSH2 0x212 SWAP2 SWAP1 PUSH2 0x24E1 JUMP JUMPDEST PUSH2 0x791 JUMP JUMPDEST STOP JUMPDEST CALLVALUE DUP1 ISZERO PUSH2 0x224 JUMPI PUSH0 DUP1 REVERT JUMPDEST POP PUSH2 0x23F PUSH1 0x4 DUP1 CALLDATASIZE SUB DUP2 ADD SWAP1 PUSH2 0x23A SWAP2 SWAP1 PUSH2 0x2566 JUMP JUMPDEST PUSH2 0x96E JUMP JUMPDEST STOP JUMPDEST CALLVALUE DUP1 ISZERO PUSH2 0x24C JUMPI PUSH0 DUP1 REVERT JUMPDEST POP PUSH2 0x255 PUSH2 0x996 JUMP JUMPDEST PUSH1 0x40 MLOAD PUSH2 0x262 SWAP2 SWAP1 PUSH2 0x2640 JUMP JUMPDEST PUSH1 0x40 MLOAD DUP1 SWAP2 SUB SWAP1 RETURN JUMPDEST CALLVALUE DUP1 ISZERO PUSH2 0x276 JUMPI PUSH0 DUP1 REVERT JUMPDEST POP PUSH2 0x291 PUSH1 0x4 DUP1 CALLDATASIZE SUB DUP2 ADD SWAP1 PUSH2 0x28C SWAP2 SWAP1 PUSH2 0x2660 JUMP JUMPDEST PUSH2 0xA26 JUMP JUMPDEST PUSH1 0x40 MLOAD PUSH2 0x29E SWAP2 SWAP1 PUSH2 0x26AD JUMP JUMPDEST PUSH1 0x40 MLOAD DUP1 SWAP2 SUB SWAP1 RETURN JUMPDEST CALLVALUE DUP1 ISZERO PUSH2 0x2B2 JUMPI PUSH0 DUP1 REVERT JUMPDEST POP PUSH2 0x2CD PUSH1 0x4 DUP1 CALLDATASIZE SUB DUP2 ADD SWAP1 PUSH2 0x2C8 SWAP2 SWAP1 PUSH2 0x26C6 JUMP JUMPDEST PUSH2 0xA48 JUMP JUMPDEST PUSH1 0x40 MLOAD PUSH2 0x2DA SWAP2 SWAP1 PUSH2 0x26AD JUMP JUMPDEST PUSH1 0x40 MLOAD DUP1 SWAP2 SUB SWAP1 RETURN JUMPDEST CALLVALUE DUP1 ISZERO PUSH2 0x2EE JUMPI PUSH0 DUP1 REVERT JUMPDEST POP PUSH2 0x2F7 PUSH2 0xA65 JUMP JUMPDEST PUSH1 0x40 MLOAD PUSH2 0x304 SWAP2 SWAP1 PUSH2 0x274C JUMP JUMPDEST PUSH1 0x40 MLOAD DUP1 SWAP2 SUB SWAP1 RETURN JUMPDEST CALLVALUE DUP1 ISZERO PUSH2 0x318 JUMPI PUSH0 DUP1 REVERT JUMPDEST POP PUSH2 0x321 PUSH2 0xA8A JUMP JUMPDEST PUSH1 0x40 MLOAD PUSH2 0x32E SWAP2 SWAP1 PUSH2 0x2774 JUMP JUMPDEST PUSH1 0x40 MLOAD DUP1 SWAP2 SUB SWAP1 RETURN JUMPDEST CALLVALUE DUP1 ISZERO PUSH2 0x342 JUMPI PUSH0 DUP1 REVERT JUMPDEST POP PUSH2 0x35D PUSH1 0x4 DUP1 CALLDATASIZE SUB DUP2 ADD SWAP1 PUSH2 0x358 SWAP2 SWAP1 PUSH2 0x278D JUMP JUMPDEST PUSH2 0xA93 JUMP JUMPDEST STOP JUMPDEST CALLVALUE DUP1 ISZERO PUSH2 0x36A JUMPI PUSH0 DUP1 REVERT JUMPDEST POP PUSH2 0x385 PUSH1 0x4 DUP1 CALLDATASIZE SUB DUP2 ADD SWAP1 PUSH2 0x380 SWAP2 SWAP1 PUSH2 0x24E1 JUMP JUMPDEST PUSH2 0xB6D JUMP JUMPDEST PUSH1 0x40 MLOAD PUSH2 0x392 SWAP2 SWAP1 PUSH2 0x26AD JUMP JUMPDEST PUSH1 0x40 MLOAD DUP1 SWAP2 SUB SWAP1 RETURN JUMPDEST CALLVALUE DUP1 ISZERO PUSH2 0x3A6 JUMPI PUSH0 DUP1 REVERT JUMPDEST POP PUSH2 0x3AF PUSH2 0xB84 JUMP JUMPDEST PUSH1 0x40 MLOAD PUSH2 0x3BC SWAP2 SWAP1 PUSH2 0x27E6 JUMP JUMPDEST PUSH1 0x40 MLOAD DUP1 SWAP2 SUB SWAP1 RETURN JUMPDEST CALLVALUE DUP1 ISZERO PUSH2 0x3D0 JUMPI PUSH0 DUP1 REVERT JUMPDEST POP PUSH2 0x3D9 PUSH2 0xB8C JUMP JUMPDEST PUSH1 0x40 MLOAD PUSH2 0x3E6 SWAP2 SWAP1 PUSH2 0x2817 JUMP JUMPDEST PUSH1 0x40 MLOAD DUP1 SWAP2 SUB SWAP1 RETURN JUMPDEST CALLVALUE DUP1 ISZERO PUSH2 0x3FA JUMPI PUSH0 DUP1 REVERT JUMPDEST POP PUSH2 0x415 PUSH1 0x4 DUP1 CALLDATASIZE SUB DUP2 ADD SWAP1 PUSH2 0x410 SWAP2 SWAP1 PUSH2 0x2830 JUMP JUMPDEST PUSH2 0xB9A JUMP JUMPDEST STOP JUMPDEST CALLVALUE DUP1 ISZERO PUSH2 0x422 JUMPI PUSH0 DUP1 REVERT JUMPDEST POP PUSH2 0x42B PUSH2 0xBFA JUMP JUMPDEST PUSH1 0x40 MLOAD PUSH2 0x438 SWAP2 SWAP1 PUSH2 0x287D JUMP JUMPDEST PUSH1 0x40 MLOAD DUP1 SWAP2 SUB SWAP1 RETURN JUMPDEST CALLVALUE DUP1 ISZERO PUSH2 0x44C JUMPI PUSH0 DUP1 REVERT JUMPDEST POP PUSH2 0x455 PUSH2 0xC1F JUMP JUMPDEST PUSH1 0x40 MLOAD PUSH2 0x462 SWAP2 SWAP1 PUSH2 0x28B6 JUMP JUMPDEST PUSH1 0x40 MLOAD DUP1 SWAP2 SUB SWAP1 RETURN JUMPDEST CALLVALUE DUP1 ISZERO PUSH2 0x476 JUMPI PUSH0 DUP1 REVERT JUMPDEST POP PUSH2 0x491 PUSH1 0x4 DUP1 CALLDATASIZE SUB DUP2 ADD SWAP1 PUSH2 0x48C SWAP2 SWAP1 PUSH2 0x26C6 JUMP JUMPDEST PUSH2 0xC44 JUMP JUMPDEST PUSH1 0x40 MLOAD PUSH2 0x49E SWAP2 SWAP1 PUSH2 0x2774 JUMP JUMPDEST PUSH1 0x40 MLOAD DUP1 SWAP2 SUB SWAP1 RETURN JUMPDEST CALLVALUE DUP1 ISZERO PUSH2 0x4B2 JUMPI PUSH0 DUP1 REVERT JUMPDEST POP PUSH2 0x4BB PUSH2 0xC89 JUMP JUMPDEST STOP JUMPDEST CALLVALUE DUP1 ISZERO PUSH2 0x4C8 JUMPI PUSH0 DUP1 REVERT JUMPDEST POP PUSH2 0x4E3 PUSH1 0x4 DUP1 CALLDATASIZE SUB DUP2 ADD SWAP1 PUSH2 0x4DE SWAP2 SWAP1 PUSH2 0x26C6 JUMP JUMPDEST PUSH2 0xC9C JUMP JUMPDEST PUSH1 0x40 MLOAD PUSH2 0x4F0 SWAP2 SWAP1 PUSH2 0x2774 JUMP JUMPDEST PUSH1 0x40 MLOAD DUP1 SWAP2 SUB SWAP1 RETURN JUMPDEST CALLVALUE DUP1 ISZERO PUSH2 0x504 JUMPI PUSH0 DUP1 REVERT JUMPDEST POP PUSH2 0x50D PUSH2 0xCAD JUMP JUMPDEST PUSH1 0x40 MLOAD PUSH2 0x51A SWAP2 SWAP1 PUSH2 0x28EB JUMP JUMPDEST PUSH1 0x40 MLOAD DUP1 SWAP2 SUB SWAP1 RETURN JUMPDEST CALLVALUE DUP1 ISZERO PUSH2 0x52E JUMPI PUSH0 DUP1 REVERT JUMPDEST POP PUSH2 0x537 PUSH2 0xCC1 JUMP JUMPDEST PUSH1 0x40 MLOAD PUSH2 0x54A SWAP8 SWAP7 SWAP6 SWAP5 SWAP4 SWAP3 SWAP2 SWAP1 PUSH2 0x29F5 JUMP JUMPDEST PUSH1 0x40 MLOAD DUP1 SWAP2 SUB SWAP1 RETURN JUMPDEST CALLVALUE DUP1 ISZERO PUSH2 0x55E JUMPI PUSH0 DUP1 REVERT JUMPDEST POP PUSH2 0x567 PUSH2 0xD66 JUMP JUMPDEST PUSH1 0x40 MLOAD PUSH2 0x574 SWAP2 SWAP1 PUSH2 0x287D JUMP JUMPDEST PUSH1 0x40 MLOAD DUP1 SWAP2 SUB SWAP1 RETURN JUMPDEST CALLVALUE DUP1 ISZERO PUSH2 0x588 JUMPI PUSH0 DUP1 REVERT JUMPDEST POP PUSH2 0x591 PUSH2 0xD8E JUMP JUMPDEST PUSH1 0x40 MLOAD PUSH2 0x59E SWAP2 SWAP1 PUSH2 0x287D JUMP JUMPDEST PUSH1 0x40 MLOAD DUP1 SWAP2 SUB SWAP1 RETURN JUMPDEST CALLVALUE DUP1 ISZERO PUSH2 0x5B2 JUMPI PUSH0 DUP1 REVERT JUMPDEST POP PUSH2 0x5BB PUSH2 0xDB3 JUMP JUMPDEST PUSH1 0x40 MLOAD PUSH2 0x5C8 SWAP2 SWAP1 PUSH2 0x2640 JUMP JUMPDEST PUSH1 0x40 MLOAD DUP1 SWAP2 SUB SWAP1 RETURN JUMPDEST CALLVALUE DUP1 ISZERO PUSH2 0x5DC JUMPI PUSH0 DUP1 REVERT JUMPDEST POP PUSH2 0x5E5 PUSH2 0xE43 JUMP JUMPDEST PUSH1 0x40 MLOAD PUSH2 0x5F2 SWAP2 SWAP1 PUSH2 0x28EB JUMP JUMPDEST PUSH1 0x40 MLOAD DUP1 SWAP2 SUB SWAP1 RETURN JUMPDEST CALLVALUE DUP1 ISZERO PUSH2 0x606 JUMPI PUSH0 DUP1 REVERT JUMPDEST POP PUSH2 0x621 PUSH1 0x4 DUP1 CALLDATASIZE SUB DUP2 ADD SWAP1 PUSH2 0x61C SWAP2 SWAP1 PUSH2 0x2660 JUMP JUMPDEST PUSH2 0xE57 JUMP JUMPDEST PUSH1 0x40 MLOAD PUSH2 0x62E SWAP2 SWAP1 PUSH2 0x26AD JUMP JUMPDEST PUSH1 0x40 MLOAD DUP1 SWAP2 SUB SWAP1 RETURN JUMPDEST CALLVALUE DUP1 ISZERO PUSH2 0x642 JUMPI PUSH0 DUP1 REVERT JUMPDEST POP PUSH2 0x64B PUSH2 0xE79 JUMP JUMPDEST PUSH1 0x40 MLOAD PUSH2 0x658 SWAP2 SWAP1 PUSH2 0x28B6 JUMP JUMPDEST PUSH1 0x40 MLOAD DUP1 SWAP2 SUB SWAP1 RETURN JUMPDEST CALLVALUE DUP1 ISZERO PUSH2 0x66C JUMPI PUSH0 DUP1 REVERT JUMPDEST POP PUSH2 0x687 PUSH1 0x4 DUP1 CALLDATASIZE SUB DUP2 ADD SWAP1 PUSH2 0x682 SWAP2 SWAP1 PUSH2 0x2A77 JUMP JUMPDEST PUSH2 0xE9E JUMP JUMPDEST STOP JUMPDEST CALLVALUE DUP1 ISZERO PUSH2 0x694 JUMPI PUSH0 DUP1 REVERT JUMPDEST POP PUSH2 0x6AF PUSH1 0x4 DUP1 CALLDATASIZE SUB DUP2 ADD SWAP1 PUSH2 0x6AA SWAP2 SWAP1 PUSH2 0x2AF6 JUMP JUMPDEST PUSH2 0xEC3 JUMP JUMPDEST STOP JUMPDEST CALLVALUE DUP1 ISZERO PUSH2 0x6BC JUMPI PUSH0 DUP1 REVERT JUMPDEST POP PUSH2 0x6C5 PUSH2 0x1008 JUMP JUMPDEST PUSH1 0x40 MLOAD PUSH2 0x6D2 SWAP2 SWAP1 PUSH2 0x26AD JUMP JUMPDEST PUSH1 0x40 MLOAD DUP1 SWAP2 SUB SWAP1 RETURN JUMPDEST CALLVALUE DUP1 ISZERO PUSH2 0x6E6 JUMPI PUSH0 DUP1 REVERT JUMPDEST POP PUSH2 0x701 PUSH1 0x4 DUP1 CALLDATASIZE SUB DUP2 ADD SWAP1 PUSH2 0x6FC SWAP2 SWAP1 PUSH2 0x2B93 JUMP JUMPDEST PUSH2 0x101B JUMP JUMPDEST STOP JUMPDEST CALLVALUE DUP1 ISZERO PUSH2 0x70E JUMPI PUSH0 DUP1 REVERT JUMPDEST POP PUSH2 0x729 PUSH1 0x4 DUP1 CALLDATASIZE SUB DUP2 ADD SWAP1 PUSH2 0x724 SWAP2 SWAP1 PUSH2 0x2BBE JUMP JUMPDEST PUSH2 0x1029 JUMP JUMPDEST PUSH1 0x40 MLOAD PUSH2 0x736 SWAP2 SWAP1 PUSH2 0x2774 JUMP JUMPDEST PUSH1 0x40 MLOAD DUP1 SWAP2 SUB SWAP1 RETURN JUMPDEST CALLVALUE DUP1 ISZERO PUSH2 0x74A JUMPI PUSH0 DUP1 REVERT JUMPDEST POP PUSH2 0x753 PUSH2 0x10AB JUMP JUMPDEST PUSH1 0x40 MLOAD PUSH2 0x760 SWAP2 SWAP1 PUSH2 0x28EB JUMP JUMPDEST PUSH1 0x40 MLOAD DUP1 SWAP2 SUB SWAP1 RETURN JUMPDEST CALLVALUE DUP1 ISZERO PUSH2 0x774 JUMPI PUSH0 DUP1 REVERT JUMPDEST POP PUSH2 0x78F PUSH1 0x4 DUP1 CALLDATASIZE SUB DUP2 ADD SWAP1 PUSH2 0x78A SWAP2 SWAP1 PUSH2 0x26C6 JUMP JUMPDEST PUSH2 0x10BF JUMP JUMPDEST STOP JUMPDEST PUSH0 PUSH2 0x3E8 PUSH1 0xE PUSH1 0x16 SWAP1 SLOAD SWAP1 PUSH2 0x100 EXP SWAP1 DIV PUSH2 0xFFFF AND PUSH2 0xFFFF AND DUP4 PUSH2 0x7B5 SWAP2 SWAP1 PUSH2 0x2C29 JUMP JUMPDEST PUSH2 0x7BF SWAP2 SWAP1 PUSH2 0x2C97 JUMP JUMPDEST PUSH1 0xF DUP2 SWAP1 SSTORE POP PUSH2 0x3E8 PUSH1 0xE PUSH1 0x14 SWAP1 SLOAD SWAP1 PUSH2 0x100 EXP SWAP1 DIV PUSH2 0xFFFF AND PUSH2 0xFFFF AND DUP4 PUSH2 0x7E8 SWAP2 SWAP1 PUSH2 0x2C29 JUMP JUMPDEST PUSH2 0x7F2 SWAP2 SWAP1 PUSH2 0x2C97 JUMP JUMPDEST PUSH1 0x11 DUP2 SWAP1 SSTORE POP PUSH2 0x3E8 PUSH1 0xE PUSH1 0x18 SWAP1 SLOAD SWAP1 PUSH2 0x100 EXP SWAP1 DIV PUSH2 0xFFFF AND PUSH2 0xFFFF AND DUP4 PUSH2 0x81B SWAP2 SWAP1 PUSH2 0x2C29 JUMP JUMPDEST PUSH2 0x825 SWAP2 SWAP1 PUSH2 0x2C97 JUMP JUMPDEST PUSH1 0x10 DUP2 SWAP1 SSTORE POP PUSH0 PUSH1 0x10 SLOAD PUSH1 0x11 SLOAD PUSH1 0xF SLOAD PUSH2 0x83F SWAP2 SWAP1 PUSH2 0x2CC7 JUMP JUMPDEST PUSH2 0x849 SWAP2 SWAP1 PUSH2 0x2CC7 JUMP JUMPDEST SWAP1 POP PUSH0 DUP2 DUP5 PUSH2 0x858 SWAP2 SWAP1 PUSH2 0x2CFA JUMP JUMPDEST SWAP1 POP PUSH1 0xE PUSH1 0x1B SWAP1 SLOAD SWAP1 PUSH2 0x100 EXP SWAP1 DIV PUSH1 0xFF AND ISZERO PUSH2 0x882 JUMPI PUSH2 0x87A DUP7 DUP7 DUP7 PUSH2 0x1143 JUMP JUMPDEST POP POP POP PUSH2 0x969 JUMP JUMPDEST PUSH1 0xE PUSH1 0x1A SWAP1 SLOAD SWAP1 PUSH2 0x100 EXP SWAP1 DIV PUSH1 0xFF AND DUP1 ISZERO PUSH2 0x935 JUMPI POP PUSH1 0x9 PUSH0 DUP7 PUSH20 0xFFFFFFFFFFFFFFFFFFFFFFFFFFFFFFFFFFFFFFFF AND PUSH20 0xFFFFFFFFFFFFFFFFFFFFFFFFFFFFFFFFFFFFFFFF AND DUP2 MSTORE PUSH1 0x20 ADD SWAP1 DUP2 MSTORE PUSH1 0x20 ADD PUSH0 KECCAK256 PUSH0 SWAP1 SLOAD SWAP1 PUSH2 0x100 EXP SWAP1 DIV PUSH1 0xFF AND DUP1 PUSH2 0x934 JUMPI POP PUSH1 0x9 PUSH0 DUP8 PUSH20 0xFFFFFFFFFFFFFFFFFFFFFFFFFFFFFFFFFFFFFFFF AND PUSH20 0xFFFFFFFFFFFFFFFFFFFFFFFFFFFFFFFFFFFFFFFF AND DUP2 MSTORE PUSH1 0x20 ADD SWAP1 DUP2 MSTORE PUSH1 0x20 ADD PUSH0 KECCAK256 PUSH0 SWAP1 SLOAD SWAP1 PUSH2 0x100 EXP SWAP1 DIV PUSH1 0xFF AND JUMPDEST JUMPDEST ISZERO PUSH2 0x949 JUMPI DUP2 SWAP3 POP PUSH2 0x948 DUP7 ADDRESS DUP5 PUSH2 0x1143 JUMP JUMPDEST JUMPDEST PUSH2 0x954 DUP7 DUP7 DUP4 PUSH2 0x1143 JUMP JUMPDEST PUSH0 DUP4 GT ISZERO PUSH2 0x965 JUMPI PUSH2 0x964 PUSH2 0x1233 JUMP JUMPDEST JUMPDEST POP POP POP JUMPDEST POP POP POP JUMP JUMPDEST PUSH2 0x976 PUSH2 0x1324 JUMP JUMPDEST PUSH2 0x980 DUP4 DUP4 PUSH2 0x13AB JUMP JUMPDEST POP DUP1 ISZERO PUSH2 0x991 JUMPI PUSH2 0x990 DUP4 PUSH2 0x16B0 JUMP JUMPDEST JUMPDEST POP POP POP JUMP JUMPDEST PUSH1 0x60 PUSH1 0x3 DUP1 SLOAD PUSH2 0x9A5 SWAP1 PUSH2 0x2D5A JUMP JUMPDEST DUP1 PUSH1 0x1F ADD PUSH1 0x20 DUP1 SWAP2 DIV MUL PUSH1 0x20 ADD PUSH1 0x40 MLOAD SWAP1 DUP2 ADD PUSH1 0x40 MSTORE DUP1 SWAP3 SWAP2 SWAP1 DUP2 DUP2 MSTORE PUSH1 0x20 ADD DUP3 DUP1 SLOAD PUSH2 0x9D1 SWAP1 PUSH2 0x2D5A JUMP JUMPDEST DUP1 ISZERO PUSH2 0xA1C JUMPI DUP1 PUSH1 0x1F LT PUSH2 0x9F3 JUMPI PUSH2 0x100 DUP1 DUP4 SLOAD DIV MUL DUP4 MSTORE SWAP2 PUSH1 0x20 ADD SWAP2 PUSH2 0xA1C JUMP JUMPDEST DUP3 ADD SWAP2 SWAP1 PUSH0 MSTORE PUSH1 0x20 PUSH0 KECCAK256 SWAP1 JUMPDEST DUP2 SLOAD DUP2 MSTORE SWAP1 PUSH1 0x1 ADD SWAP1 PUSH1 0x20 ADD DUP1 DUP4 GT PUSH2 0x9FF JUMPI DUP3 SWAP1 SUB PUSH1 0x1F AND DUP3 ADD SWAP2 JUMPDEST POP POP POP POP POP SWAP1 POP SWAP1 JUMP JUMPDEST PUSH0 DUP1 PUSH2 0xA30 PUSH2 0x170D JUMP JUMPDEST SWAP1 POP PUSH2 0xA3D DUP2 DUP6 DUP6 PUSH2 0x1714 JUMP JUMPDEST PUSH1 0x1 SWAP2 POP POP SWAP3 SWAP2 POP POP JUMP JUMPDEST PUSH1 0x9 PUSH1 0x20 MSTORE DUP1 PUSH0 MSTORE PUSH1 0x40 PUSH0 KECCAK256 PUSH0 SWAP2 POP SLOAD SWAP1 PUSH2 0x100 EXP SWAP1 DIV PUSH1 0xFF AND DUP2 JUMP JUMPDEST PUSH1 0xD PUSH0 SWAP1 SLOAD SWAP1 PUSH2 0x100 EXP SWAP1 DIV PUSH20 0xFFFFFFFFFFFFFFFFFFFFFFFFFFFFFFFFFFFFFFFF AND DUP2 JUMP JUMPDEST PUSH0 PUSH1 0x2 SLOAD SWAP1 POP SWAP1 JUMP JUMPDEST PUSH2 0xA9B PUSH2 0x1324 JUMP JUMPDEST PUSH0 SELFBALANCE SWAP1 POP PUSH0 DUP2 GT ISZERO PUSH2 0xB68 JUMPI PUSH0 DUP3 PUSH20 0xFFFFFFFFFFFFFFFFFFFFFFFFFFFFFFFFFFFFFFFF AND PUSH1 0x64 DUP6 DUP5 PUSH2 0xACD SWAP2 SWAP1 PUSH2 0x2C29 JUMP JUMPDEST PUSH2 0xAD7 SWAP2 SWAP1 PUSH2 0x2C97 JUMP JUMPDEST PUSH1 0x40 MLOAD PUSH2 0xAE3 SWAP1 PUSH2 0x2DB7 JUMP JUMPDEST PUSH0 PUSH1 0x40 MLOAD DUP1 DUP4 SUB DUP2 DUP6 DUP8 GAS CALL SWAP3 POP POP POP RETURNDATASIZE DUP1 PUSH0 DUP2 EQ PUSH2 0xB1D JUMPI PUSH1 0x40 MLOAD SWAP2 POP PUSH1 0x1F NOT PUSH1 0x3F RETURNDATASIZE ADD AND DUP3 ADD PUSH1 0x40 MSTORE RETURNDATASIZE DUP3 MSTORE RETURNDATASIZE PUSH0 PUSH1 0x20 DUP5 ADD RETURNDATACOPY PUSH2 0xB22 JUMP JUMPDEST PUSH1 0x60 SWAP2 POP JUMPDEST POP POP SWAP1 POP DUP1 PUSH2 0xB66 JUMPI PUSH1 0x40 MLOAD PUSH32 0x8C379A000000000000000000000000000000000000000000000000000000000 DUP2 MSTORE PUSH1 0x4 ADD PUSH2 0xB5D SWAP1 PUSH2 0x2E15 JUMP JUMPDEST PUSH1 0x40 MLOAD DUP1 SWAP2 SUB SWAP1 REVERT JUMPDEST POP JUMPDEST POP POP POP JUMP JUMPDEST PUSH0 PUSH2 0xB79 DUP5 DUP5 DUP5 PUSH2 0x791 JUMP JUMPDEST PUSH1 0x1 SWAP1 POP SWAP4 SWAP3 POP POP POP JUMP JUMPDEST PUSH0 PUSH1 0x12 SWAP1 POP SWAP1 JUMP JUMPDEST PUSH0 PUSH2 0xB95 PUSH2 0x1726 JUMP JUMPDEST SWAP1 POP SWAP1 JUMP JUMPDEST PUSH2 0xBA2 PUSH2 0x1324 JUMP JUMPDEST DUP1 PUSH1 0x9 PUSH0 DUP5 PUSH20 0xFFFFFFFFFFFFFFFFFFFFFFFFFFFFFFFFFFFFFFFF AND PUSH20 0xFFFFFFFFFFFFFFFFFFFFFFFFFFFFFFFFFFFFFFFF AND DUP2 MSTORE PUSH1 0x20 ADD SWAP1 DUP2 MSTORE PUSH1 0x20 ADD PUSH0 KECCAK256 PUSH0 PUSH2 0x100 EXP DUP2 SLOAD DUP2 PUSH1 0xFF MUL NOT AND SWAP1 DUP4 ISZERO ISZERO MUL OR SWAP1 SSTORE POP POP POP JUMP JUMPDEST PUSH1 0xC PUSH0 SWAP1 SLOAD SWAP1 PUSH2 0x100 EXP SWAP1 DIV PUSH20 0xFFFFFFFFFFFFFFFFFFFFFFFFFFFFFFFFFFFFFFFF AND DUP2 JUMP JUMPDEST PUSH1 0xB PUSH0 SWAP1 SLOAD SWAP1 PUSH2 0x100 EXP SWAP1 DIV PUSH20 0xFFFFFFFFFFFFFFFFFFFFFFFFFFFFFFFFFFFFFFFF AND DUP2 JUMP JUMPDEST PUSH0 DUP1 PUSH0 DUP4 PUSH20 0xFFFFFFFFFFFFFFFFFFFFFFFFFFFFFFFFFFFFFFFF AND PUSH20 0xFFFFFFFFFFFFFFFFFFFFFFFFFFFFFFFFFFFFFFFF AND DUP2 MSTORE PUSH1 0x20 ADD SWAP1 DUP2 MSTORE PUSH1 0x20 ADD PUSH0 KECCAK256 SLOAD SWAP1 POP SWAP2 SWAP1 POP JUMP JUMPDEST PUSH2 0xC91 PUSH2 0x1324 JUMP JUMPDEST PUSH2 0xC9A PUSH0 PUSH2 0x17DC JUMP JUMPDEST JUMP JUMPDEST PUSH0 PUSH2 0xCA6 DUP3 PUSH2 0x189F JUMP JUMPDEST SWAP1 POP SWAP2 SWAP1 POP JUMP JUMPDEST PUSH1 0xE PUSH1 0x18 SWAP1 SLOAD SWAP1 PUSH2 0x100 EXP SWAP1 DIV PUSH2 0xFFFF AND DUP2 JUMP JUMPDEST PUSH0 PUSH1 0x60 DUP1 PUSH0 DUP1 PUSH0 PUSH1 0x60 PUSH2 0xCD2 PUSH2 0x18E5 JUMP JUMPDEST PUSH2 0xCDA PUSH2 0x1920 JUMP JUMPDEST CHAINID ADDRESS PUSH0 DUP1 SHL PUSH0 PUSH8 0xFFFFFFFFFFFFFFFF DUP2 GT ISZERO PUSH2 0xCF9 JUMPI PUSH2 0xCF8 PUSH2 0x2E33 JUMP JUMPDEST JUMPDEST PUSH1 0x40 MLOAD SWAP1 DUP1 DUP3 MSTORE DUP1 PUSH1 0x20 MUL PUSH1 0x20 ADD DUP3 ADD PUSH1 0x40 MSTORE DUP1 ISZERO PUSH2 0xD27 JUMPI DUP2 PUSH1 0x20 ADD PUSH1 0x20 DUP3 MUL DUP1 CALLDATASIZE DUP4 CALLDATACOPY DUP1 DUP3 ADD SWAP2 POP POP SWAP1 POP JUMPDEST POP PUSH32 0xF00000000000000000000000000000000000000000000000000000000000000 SWAP6 SWAP5 SWAP4 SWAP3 SWAP2 SWAP1 SWAP7 POP SWAP7 POP SWAP7 POP SWAP7 POP SWAP7 POP SWAP7 POP SWAP7 POP SWAP1 SWAP2 SWAP3 SWAP4 SWAP5 SWAP6 SWAP7 JUMP JUMPDEST PUSH0 PUSH1 0x5 PUSH0 SWAP1 SLOAD SWAP1 PUSH2 0x100 EXP SWAP1 DIV PUSH20 0xFFFFFFFFFFFFFFFFFFFFFFFFFFFFFFFFFFFFFFFF AND SWAP1 POP SWAP1 JUMP JUMPDEST PUSH1 0xE PUSH0 SWAP1 SLOAD SWAP1 PUSH2 0x100 EXP SWAP1 DIV PUSH20 0xFFFFFFFFFFFFFFFFFFFFFFFFFFFFFFFFFFFFFFFF AND DUP2 JUMP JUMPDEST PUSH1 0x60 PUSH1 0x4 DUP1 SLOAD PUSH2 0xDC2 SWAP1 PUSH2 0x2D5A JUMP JUMPDEST DUP1 PUSH1 0x1F ADD PUSH1 0x20 DUP1 SWAP2 DIV MUL PUSH1 0x20 ADD PUSH1 0x40 MLOAD SWAP1 DUP2 ADD PUSH1 0x40 MSTORE DUP1 SWAP3 SWAP2 SWAP1 DUP2 DUP2 MSTORE PUSH1 0x20 ADD DUP3 DUP1 SLOAD PUSH2 0xDEE SWAP1 PUSH2 0x2D5A JUMP JUMPDEST DUP1 ISZERO PUSH2 0xE39 JUMPI DUP1 PUSH1 0x1F LT PUSH2 0xE10 JUMPI PUSH2 0x100 DUP1 DUP4 SLOAD DIV MUL DUP4 MSTORE SWAP2 PUSH1 0x20 ADD SWAP2 PUSH2 0xE39 JUMP JUMPDEST DUP3 ADD SWAP2 SWAP1 PUSH0 MSTORE PUSH1 0x20 PUSH0 KECCAK256 SWAP1 JUMPDEST DUP2 SLOAD DUP2 MSTORE SWAP1 PUSH1 0x1 ADD SWAP1 PUSH1 0x20 ADD DUP1 DUP4 GT PUSH2 0xE1C JUMPI DUP3 SWAP1 SUB PUSH1 0x1F AND DUP3 ADD SWAP2 JUMPDEST POP POP POP POP POP SWAP1 POP SWAP1 JUMP JUMPDEST PUSH1 0xE PUSH1 0x14 SWAP1 SLOAD SWAP1 PUSH2 0x100 EXP SWAP1 DIV PUSH2 0xFFFF AND DUP2 JUMP JUMPDEST PUSH0 DUP1 PUSH2 0xE61 PUSH2 0x170D JUMP JUMPDEST SWAP1 POP PUSH2 0xE6E DUP2 DUP6 DUP6 PUSH2 0x791 JUMP JUMPDEST PUSH1 0x1 SWAP2 POP POP SWAP3 SWAP2 POP POP JUMP JUMPDEST PUSH1 0xA PUSH0 SWAP1 SLOAD SWAP1 PUSH2 0x100 EXP SWAP1 DIV PUSH20 0xFFFFFFFFFFFFFFFFFFFFFFFFFFFFFFFFFFFFFFFF AND DUP2 JUMP JUMPDEST PUSH2 0xEA6 PUSH2 0x1324 JUMP JUMPDEST DUP1 PUSH1 0xE PUSH1 0x1A PUSH2 0x100 EXP DUP2 SLOAD DUP2 PUSH1 0xFF MUL NOT AND SWAP1 DUP4 ISZERO ISZERO MUL OR SWAP1 SSTORE POP POP JUMP JUMPDEST DUP4 TIMESTAMP GT ISZERO PUSH2 0xF08 JUMPI DUP4 PUSH1 0x40 MLOAD PUSH32 0x6279130200000000000000000000000000000000000000000000000000000000 DUP2 MSTORE PUSH1 0x4 ADD PUSH2 0xEFF SWAP2 SWAP1 PUSH2 0x2774 JUMP JUMPDEST PUSH1 0x40 MLOAD DUP1 SWAP2 SUB SWAP1 REVERT JUMPDEST PUSH0 PUSH32 0x6E71EDAE12B1B97F4D1F60370FEF10105FA2FAAE0126114A169C64845D6126C9 DUP9 DUP9 DUP9 PUSH2 0xF36 DUP13 PUSH2 0x195B JUMP JUMPDEST DUP10 PUSH1 0x40 MLOAD PUSH1 0x20 ADD PUSH2 0xF4C SWAP7 SWAP6 SWAP5 SWAP4 SWAP3 SWAP2 SWAP1 PUSH2 0x2E60 JUMP JUMPDEST PUSH1 0x40 MLOAD PUSH1 0x20 DUP2 DUP4 SUB SUB DUP2 MSTORE SWAP1 PUSH1 0x40 MSTORE DUP1 MLOAD SWAP1 PUSH1 0x20 ADD KECCAK256 SWAP1 POP PUSH0 PUSH2 0xF6E DUP3 PUSH2 0x19AE JUMP JUMPDEST SWAP1 POP PUSH0 PUSH2 0xF7D DUP3 DUP8 DUP8 DUP8 PUSH2 0x19C7 JUMP JUMPDEST SWAP1 POP DUP10 PUSH20 0xFFFFFFFFFFFFFFFFFFFFFFFFFFFFFFFFFFFFFFFF AND DUP2 PUSH20 0xFFFFFFFFFFFFFFFFFFFFFFFFFFFFFFFFFFFFFFFF AND EQ PUSH2 0xFF1 JUMPI DUP1 DUP11 PUSH1 0x40 MLOAD PUSH32 0x4B800E4600000000000000000000000000000000000000000000000000000000 DUP2 MSTORE PUSH1 0x4 ADD PUSH2 0xFE8 SWAP3 SWAP2 SWAP1 PUSH2 0x2EBF JUMP JUMPDEST PUSH1 0x40 MLOAD DUP1 SWAP2 SUB SWAP1 REVERT JUMPDEST PUSH2 0xFFC DUP11 DUP11 DUP11 PUSH2 0x1714 JUMP JUMPDEST POP POP POP POP POP POP POP POP POP POP JUMP JUMPDEST PUSH1 0xE PUSH1 0x1A SWAP1 SLOAD SWAP1 PUSH2 0x100 EXP SWAP1 DIV PUSH1 0xFF AND DUP2 JUMP JUMPDEST PUSH2 0x1026 CALLER ADDRESS DUP4 PUSH2 0x1143 JUMP JUMPDEST POP JUMP JUMPDEST PUSH0 PUSH1 0x1 PUSH0 DUP5 PUSH20 0xFFFFFFFFFFFFFFFFFFFFFFFFFFFFFFFFFFFFFFFF AND PUSH20 0xFFFFFFFFFFFFFFFFFFFFFFFFFFFFFFFFFFFFFFFF AND DUP2 MSTORE PUSH1 0x20 ADD SWAP1 DUP2 MSTORE PUSH1 0x20 ADD PUSH0 KECCAK256 PUSH0 DUP4 PUSH20 0xFFFFFFFFFFFFFFFFFFFFFFFFFFFFFFFFFFFFFFFF AND PUSH20 0xFFFFFFFFFFFFFFFFFFFFFFFFFFFFFFFFFFFFFFFF AND DUP2 MSTORE PUSH1 0x20 ADD SWAP1 DUP2 MSTORE PUSH1 0x20 ADD PUSH0 KECCAK256 SLOAD SWAP1 POP SWAP3 SWAP2 POP POP JUMP JUMPDEST PUSH1 0xE PUSH1 0x16 SWAP1 SLOAD SWAP1 PUSH2 0x100 EXP SWAP1 DIV PUSH2 0xFFFF AND DUP2 JUMP JUMPDEST PUSH2 0x10C7 PUSH2 0x1324 JUMP JUMPDEST PUSH0 PUSH20 0xFFFFFFFFFFFFFFFFFFFFFFFFFFFFFFFFFFFFFFFF AND DUP2 PUSH20 0xFFFFFFFFFFFFFFFFFFFFFFFFFFFFFFFFFFFFFFFF AND SUB PUSH2 0x1137 JUMPI PUSH0 PUSH1 0x40 MLOAD PUSH32 0x1E4FBDF700000000000000000000000000000000000000000000000000000000 DUP2 MSTORE PUSH1 0x4 ADD PUSH2 0x112E SWAP2 SWAP1 PUSH2 0x287D JUMP JUMPDEST PUSH1 0x40 MLOAD DUP1 SWAP2 SUB SWAP1 REVERT JUMPDEST PUSH2 0x1140 DUP2 PUSH2 0x17DC JUMP JUMPDEST POP JUMP JUMPDEST PUSH0 PUSH20 0xFFFFFFFFFFFFFFFFFFFFFFFFFFFFFFFFFFFFFFFF AND DUP4 PUSH20 0xFFFFFFFFFFFFFFFFFFFFFFFFFFFFFFFFFFFFFFFF AND SUB PUSH2 0x11B3 JUMPI PUSH0 PUSH1 0x40 MLOAD PUSH32 0x96C6FD1E00000000000000000000000000000000000000000000000000000000 DUP2 MSTORE PUSH1 0x4 ADD PUSH2 0x11AA SWAP2 SWAP1 PUSH2 0x287D JUMP JUMPDEST PUSH1 0x40 MLOAD DUP1 SWAP2 SUB SWAP1 REVERT JUMPDEST PUSH0 PUSH20 0xFFFFFFFFFFFFFFFFFFFFFFFFFFFFFFFFFFFFFFFF AND DUP3 PUSH20 0xFFFFFFFFFFFFFFFFFFFFFFFFFFFFFFFFFFFFFFFF AND SUB PUSH2 0x1223 JUMPI PUSH0 PUSH1 0x40 MLOAD PUSH32 0xEC442F0500000000000000000000000000000000000000000000000000000000 DUP2 MSTORE PUSH1 0x4 ADD PUSH2 0x121A SWAP2 SWAP1 PUSH2 0x287D JUMP JUMPDEST PUSH1 0x40 MLOAD DUP1 SWAP2 SUB SWAP1 REVERT JUMPDEST PUSH2 0x122E DUP4 DUP4 DUP4 PUSH2 0x19F5 JUMP JUMPDEST POP POP POP JUMP JUMPDEST PUSH1 0x1 PUSH1 0xE PUSH1 0x1B PUSH2 0x100 EXP DUP2 SLOAD DUP2 PUSH1 0xFF MUL NOT AND SWAP1 DUP4 ISZERO ISZERO MUL OR SWAP1 SSTORE POP PUSH0 PUSH1 0xF SLOAD GT ISZERO PUSH2 0x129A JUMPI PUSH2 0x1291 PUSH1 0x2 PUSH1 0xF SLOAD PUSH2 0x126A SWAP2 SWAP1 PUSH2 0x2C97 JUMP JUMPDEST PUSH1 0xA PUSH0 SWAP1 SLOAD SWAP1 PUSH2 0x100 EXP SWAP1 DIV PUSH20 0xFFFFFFFFFFFFFFFFFFFFFFFFFFFFFFFFFFFFFFFF AND PUSH2 0x13AB JUMP JUMPDEST POP PUSH0 PUSH1 0xF DUP2 SWAP1 SSTORE POP JUMPDEST PUSH0 PUSH1 0x10 SLOAD GT ISZERO PUSH2 0x12E6 JUMPI PUSH2 0x12DD PUSH1 0x2 PUSH1 0x10 SLOAD PUSH2 0x12B6 SWAP2 SWAP1 PUSH2 0x2C97 JUMP JUMPDEST PUSH1 0xB PUSH0 SWAP1 SLOAD SWAP1 PUSH2 0x100 EXP SWAP1 DIV PUSH20 0xFFFFFFFFFFFFFFFFFFFFFFFFFFFFFFFFFFFFFFFF AND PUSH2 0x13AB JUMP JUMPDEST POP PUSH0 PUSH1 0x10 DUP2 SWAP1 SSTORE POP JUMPDEST PUSH0 PUSH1 0x11 SLOAD GT ISZERO PUSH2 0x1308 JUMPI PUSH2 0x1307 PUSH1 0x2 PUSH1 0x11 SLOAD PUSH2 0x1302 SWAP2 SWAP1 PUSH2 0x2C97 JUMP JUMPDEST PUSH2 0x16B0 JUMP JUMPDEST JUMPDEST PUSH0 PUSH1 0xE PUSH1 0x1B PUSH2 0x100 EXP DUP2 SLOAD DUP2 PUSH1 0xFF MUL NOT AND SWAP1 DUP4 ISZERO ISZERO MUL OR SWAP1 SSTORE POP JUMP JUMPDEST PUSH2 0x132C PUSH2 0x170D JUMP JUMPDEST PUSH20 0xFFFFFFFFFFFFFFFFFFFFFFFFFFFFFFFFFFFFFFFF AND PUSH2 0x134A PUSH2 0xD66 JUMP JUMPDEST PUSH20 0xFFFFFFFFFFFFFFFFFFFFFFFFFFFFFFFFFFFFFFFF AND EQ PUSH2 0x13A9 JUMPI PUSH2 0x136D PUSH2 0x170D JUMP JUMPDEST PUSH1 0x40 MLOAD PUSH32 0x118CDAA700000000000000000000000000000000000000000000000000000000 DUP2 MSTORE PUSH1 0x4 ADD PUSH2 0x13A0 SWAP2 SWAP1 PUSH2 0x287D JUMP JUMPDEST PUSH1 0x40 MLOAD DUP1 SWAP2 SUB SWAP1 REVERT JUMPDEST JUMP JUMPDEST PUSH0 DUP1 SELFBALANCE SWAP1 POP PUSH0 PUSH1 0x2 PUSH8 0xFFFFFFFFFFFFFFFF DUP2 GT ISZERO PUSH2 0x13CC JUMPI PUSH2 0x13CB PUSH2 0x2E33 JUMP JUMPDEST JUMPDEST PUSH1 0x40 MLOAD SWAP1 DUP1 DUP3 MSTORE DUP1 PUSH1 0x20 MUL PUSH1 0x20 ADD DUP3 ADD PUSH1 0x40 MSTORE DUP1 ISZERO PUSH2 0x13FA JUMPI DUP2 PUSH1 0x20 ADD PUSH1 0x20 DUP3 MUL DUP1 CALLDATASIZE DUP4 CALLDATACOPY DUP1 DUP3 ADD SWAP2 POP POP SWAP1 POP JUMPDEST POP SWAP1 POP ADDRESS DUP2 PUSH0 DUP2 MLOAD DUP2 LT PUSH2 0x1411 JUMPI PUSH2 0x1410 PUSH2 0x2EE6 JUMP JUMPDEST JUMPDEST PUSH1 0x20 MUL PUSH1 0x20 ADD ADD SWAP1 PUSH20 0xFFFFFFFFFFFFFFFFFFFFFFFFFFFFFFFFFFFFFFFF AND SWAP1 DUP2 PUSH20 0xFFFFFFFFFFFFFFFFFFFFFFFFFFFFFFFFFFFFFFFF AND DUP2 MSTORE POP POP PUSH1 0xD PUSH0 SWAP1 SLOAD SWAP1 PUSH2 0x100 EXP SWAP1 DIV PUSH20 0xFFFFFFFFFFFFFFFFFFFFFFFFFFFFFFFFFFFFFFFF AND PUSH20 0xFFFFFFFFFFFFFFFFFFFFFFFFFFFFFFFFFFFFFFFF AND PUSH4 0xAD5C4648 PUSH1 0x40 MLOAD DUP2 PUSH4 0xFFFFFFFF AND PUSH1 0xE0 SHL DUP2 MSTORE PUSH1 0x4 ADD PUSH1 0x20 PUSH1 0x40 MLOAD DUP1 DUP4 SUB DUP2 DUP7 GAS STATICCALL ISZERO DUP1 ISZERO PUSH2 0x14B5 JUMPI RETURNDATASIZE PUSH0 DUP1 RETURNDATACOPY RETURNDATASIZE PUSH0 REVERT JUMPDEST POP POP POP POP PUSH1 0x40 MLOAD RETURNDATASIZE PUSH1 0x1F NOT PUSH1 0x1F DUP3 ADD AND DUP3 ADD DUP1 PUSH1 0x40 MSTORE POP DUP2 ADD SWAP1 PUSH2 0x14D9 SWAP2 SWAP1 PUSH2 0x2F27 JUMP JUMPDEST DUP2 PUSH1 0x1 DUP2 MLOAD DUP2 LT PUSH2 0x14ED JUMPI PUSH2 0x14EC PUSH2 0x2EE6 JUMP JUMPDEST JUMPDEST PUSH1 0x20 MUL PUSH1 0x20 ADD ADD SWAP1 PUSH20 0xFFFFFFFFFFFFFFFFFFFFFFFFFFFFFFFFFFFFFFFF AND SWAP1 DUP2 PUSH20 0xFFFFFFFFFFFFFFFFFFFFFFFFFFFFFFFFFFFFFFFF AND DUP2 MSTORE POP POP DUP5 PUSH2 0x1531 ADDRESS PUSH2 0xC44 JUMP JUMPDEST LT ISZERO PUSH2 0x1572 JUMPI PUSH1 0x40 MLOAD PUSH32 0x8C379A000000000000000000000000000000000000000000000000000000000 DUP2 MSTORE PUSH1 0x4 ADD PUSH2 0x1569 SWAP1 PUSH2 0x2F9C JUMP JUMPDEST PUSH1 0x40 MLOAD DUP1 SWAP2 SUB SWAP1 REVERT JUMPDEST PUSH2 0x159E ADDRESS PUSH1 0xC PUSH0 SWAP1 SLOAD SWAP1 PUSH2 0x100 EXP SWAP1 DIV PUSH20 0xFFFFFFFFFFFFFFFFFFFFFFFFFFFFFFFFFFFFFFFF AND DUP8 PUSH2 0x1714 JUMP JUMPDEST PUSH2 0x15C9 ADDRESS PUSH1 0xC PUSH0 SWAP1 SLOAD SWAP1 PUSH2 0x100 EXP SWAP1 DIV PUSH20 0xFFFFFFFFFFFFFFFFFFFFFFFFFFFFFFFFFFFFFFFF AND PUSH2 0x1029 JUMP JUMPDEST DUP6 GT ISZERO PUSH2 0x160B JUMPI PUSH1 0x40 MLOAD PUSH32 0x8C379A000000000000000000000000000000000000000000000000000000000 DUP2 MSTORE PUSH1 0x4 ADD PUSH2 0x1602 SWAP1 PUSH2 0x3004 JUMP JUMPDEST PUSH1 0x40 MLOAD DUP1 SWAP2 SUB SWAP1 REVERT JUMPDEST PUSH1 0xD PUSH0 SWAP1 SLOAD SWAP1 PUSH2 0x100 EXP SWAP1 DIV PUSH20 0xFFFFFFFFFFFFFFFFFFFFFFFFFFFFFFFFFFFFFFFF AND PUSH20 0xFFFFFFFFFFFFFFFFFFFFFFFFFFFFFFFFFFFFFFFF AND PUSH4 0x791AC947 DUP7 PUSH0 DUP5 DUP9 TIMESTAMP PUSH1 0x40 MLOAD DUP7 PUSH4 0xFFFFFFFF AND PUSH1 0xE0 SHL DUP2 MSTORE PUSH1 0x4 ADD PUSH2 0x166D SWAP6 SWAP5 SWAP4 SWAP3 SWAP2 SWAP1 PUSH2 0x3112 JUMP JUMPDEST PUSH0 PUSH1 0x40 MLOAD DUP1 DUP4 SUB DUP2 PUSH0 DUP8 DUP1 EXTCODESIZE ISZERO DUP1 ISZERO PUSH2 0x1684 JUMPI PUSH0 DUP1 REVERT JUMPDEST POP GAS CALL ISZERO DUP1 ISZERO PUSH2 0x1696 JUMPI RETURNDATASIZE PUSH0 DUP1 RETURNDATACOPY RETURNDATASIZE PUSH0 REVERT JUMPDEST POP POP POP POP DUP2 SELFBALANCE PUSH2 0x16A6 SWAP2 SWAP1 PUSH2 0x2CFA JUMP JUMPDEST SWAP3 POP POP POP SWAP3 SWAP2 POP POP JUMP JUMPDEST PUSH0 PUSH2 0x16BB DUP3 ADDRESS PUSH2 0x13AB JUMP JUMPDEST SWAP1 POP PUSH0 DUP2 GT PUSH2 0x16FF JUMPI PUSH1 0x40 MLOAD PUSH32 0x8C379A000000000000000000000000000000000000000000000000000000000 DUP2 MSTORE PUSH1 0x4 ADD PUSH2 0x16F6 SWAP1 PUSH2 0x31DA JUMP JUMPDEST PUSH1 0x40 MLOAD DUP1 SWAP2 SUB SWAP1 REVERT JUMPDEST PUSH2 0x1709 DUP3 DUP3 PUSH2 0x1C0E JUMP JUMPDEST POP POP JUMP JUMPDEST PUSH0 CALLER SWAP1 POP SWAP1 JUMP JUMPDEST PUSH2 0x1721 DUP4 DUP4 DUP4 PUSH1 0x1 PUSH2 0x1DF6 JUMP JUMPDEST POP POP POP JUMP JUMPDEST PUSH0 PUSH32 0x0 PUSH20 0xFFFFFFFFFFFFFFFFFFFFFFFFFFFFFFFFFFFFFFFF AND ADDRESS PUSH20 0xFFFFFFFFFFFFFFFFFFFFFFFFFFFFFFFFFFFFFFFF AND EQ DUP1 ISZERO PUSH2 0x17A1 JUMPI POP PUSH32 0x0 CHAINID EQ JUMPDEST ISZERO PUSH2 0x17CE JUMPI PUSH32 0x0 SWAP1 POP PUSH2 0x17D9 JUMP JUMPDEST PUSH2 0x17D6 PUSH2 0x1FC5 JUMP JUMPDEST SWAP1 POP JUMPDEST SWAP1 JUMP JUMPDEST PUSH0 PUSH1 0x5 PUSH0 SWAP1 SLOAD SWAP1 PUSH2 0x100 EXP SWAP1 DIV PUSH20 0xFFFFFFFFFFFFFFFFFFFFFFFFFFFFFFFFFFFFFFFF AND SWAP1 POP DUP2 PUSH1 0x5 PUSH0 PUSH2 0x100 EXP DUP2 SLOAD DUP2 PUSH20 0xFFFFFFFFFFFFFFFFFFFFFFFFFFFFFFFFFFFFFFFF MUL NOT AND SWAP1 DUP4 PUSH20 0xFFFFFFFFFFFFFFFFFFFFFFFFFFFFFFFFFFFFFFFF AND MUL OR SWAP1 SSTORE POP DUP2 PUSH20 0xFFFFFFFFFFFFFFFFFFFFFFFFFFFFFFFFFFFFFFFF AND DUP2 PUSH20 0xFFFFFFFFFFFFFFFFFFFFFFFFFFFFFFFFFFFFFFFF AND PUSH32 0x8BE0079C531659141344CD1FD0A4F28419497F9722A3DAAFE3B4186F6B6457E0 PUSH1 0x40 MLOAD PUSH1 0x40 MLOAD DUP1 SWAP2 SUB SWAP1 LOG3 POP POP JUMP JUMPDEST PUSH0 PUSH1 0x8 PUSH0 DUP4 PUSH20 0xFFFFFFFFFFFFFFFFFFFFFFFFFFFFFFFFFFFFFFFF AND PUSH20 0xFFFFFFFFFFFFFFFFFFFFFFFFFFFFFFFFFFFFFFFF AND DUP2 MSTORE PUSH1 0x20 ADD SWAP1 DUP2 MSTORE PUSH1 0x20 ADD PUSH0 KECCAK256 SLOAD SWAP1 POP SWAP2 SWAP1 POP JUMP JUMPDEST PUSH1 0x60 PUSH2 0x191B PUSH1 0x6 PUSH32 0x0 PUSH2 0x205A SWAP1 SWAP2 SWAP1 PUSH4 0xFFFFFFFF AND JUMP JUMPDEST SWAP1 POP SWAP1 JUMP JUMPDEST PUSH1 0x60 PUSH2 0x1956 PUSH1 0x7 PUSH32 0x0 PUSH2 0x205A SWAP1 SWAP2 SWAP1 PUSH4 0xFFFFFFFF AND JUMP JUMPDEST SWAP1 POP SWAP1 JUMP JUMPDEST PUSH0 PUSH1 0x8 PUSH0 DUP4 PUSH20 0xFFFFFFFFFFFFFFFFFFFFFFFFFFFFFFFFFFFFFFFF AND PUSH20 0xFFFFFFFFFFFFFFFFFFFFFFFFFFFFFFFFFFFFFFFF AND DUP2 MSTORE PUSH1 0x20 ADD SWAP1 DUP2 MSTORE PUSH1 0x20 ADD PUSH0 KECCAK256 PUSH0 DUP2 SLOAD DUP1 SWAP3 SWAP2 SWAP1 PUSH1 0x1 ADD SWAP2 SWAP1 POP SSTORE SWAP1 POP SWAP2 SWAP1 POP JUMP JUMPDEST PUSH0 PUSH2 0x19C0 PUSH2 0x19BA PUSH2 0x1726 JUMP JUMPDEST DUP4 PUSH2 0x2107 JUMP JUMPDEST SWAP1 POP SWAP2 SWAP1 POP JUMP JUMPDEST PUSH0 DUP1 PUSH0 DUP1 PUSH2 0x19D7 DUP9 DUP9 DUP9 DUP9 PUSH2 0x2147 JUMP JUMPDEST SWAP3 POP SWAP3 POP SWAP3 POP PUSH2 0x19E7 DUP3 DUP3 PUSH2 0x222E JUMP JUMPDEST DUP3 SWAP4 POP POP POP POP SWAP5 SWAP4 POP POP POP POP JUMP JUMPDEST PUSH0 PUSH20 0xFFFFFFFFFFFFFFFFFFFFFFFFFFFFFFFFFFFFFFFF AND DUP4 PUSH20 0xFFFFFFFFFFFFFFFFFFFFFFFFFFFFFFFFFFFFFFFF AND SUB PUSH2 0x1A45 JUMPI DUP1 PUSH1 0x2 PUSH0 DUP3 DUP3 SLOAD PUSH2 0x1A39 SWAP2 SWAP1 PUSH2 0x2CC7 JUMP JUMPDEST SWAP3 POP POP DUP2 SWAP1 SSTORE POP PUSH2 0x1B13 JUMP JUMPDEST PUSH0 DUP1 PUSH0 DUP6 PUSH20 0xFFFFFFFFFFFFFFFFFFFFFFFFFFFFFFFFFFFFFFFF AND PUSH20 0xFFFFFFFFFFFFFFFFFFFFFFFFFFFFFFFFFFFFFFFF AND DUP2 MSTORE PUSH1 0x20 ADD SWAP1 DUP2 MSTORE PUSH1 0x20 ADD PUSH0 KECCAK256 SLOAD SWAP1 POP DUP2 DUP2 LT ISZERO PUSH2 0x1ACE JUMPI DUP4 DUP2 DUP4 PUSH1 0x40 MLOAD PUSH32 0xE450D38C00000000000000000000000000000000000000000000000000000000 DUP2 MSTORE PUSH1 0x4 ADD PUSH2 0x1AC5 SWAP4 SWAP3 SWAP2 SWAP1 PUSH2 0x31F8 JUMP JUMPDEST PUSH1 0x40 MLOAD DUP1 SWAP2 SUB SWAP1 REVERT JUMPDEST DUP2 DUP2 SUB PUSH0 DUP1 DUP7 PUSH20 0xFFFFFFFFFFFFFFFFFFFFFFFFFFFFFFFFFFFFFFFF AND PUSH20 0xFFFFFFFFFFFFFFFFFFFFFFFFFFFFFFFFFFFFFFFF AND DUP2 MSTORE PUSH1 0x20 ADD SWAP1 DUP2 MSTORE PUSH1 0x20 ADD PUSH0 KECCAK256 DUP2 SWAP1 SSTORE POP POP JUMPDEST PUSH0 PUSH20 0xFFFFFFFFFFFFFFFFFFFFFFFFFFFFFFFFFFFFFFFF AND DUP3 PUSH20 0xFFFFFFFFFFFFFFFFFFFFFFFFFFFFFFFFFFFFFFFF AND SUB PUSH2 0x1B5A JUMPI DUP1 PUSH1 0x2 PUSH0 DUP3 DUP3 SLOAD SUB SWAP3 POP POP DUP2 SWAP1 SSTORE POP PUSH2 0x1BA4 JUMP JUMPDEST DUP1 PUSH0 DUP1 DUP5 PUSH20 0xFFFFFFFFFFFFFFFFFFFFFFFFFFFFFFFFFFFFFFFF AND PUSH20 0xFFFFFFFFFFFFFFFFFFFFFFFFFFFFFFFFFFFFFFFF AND DUP2 MSTORE PUSH1 0x20 ADD SWAP1 DUP2 MSTORE PUSH1 0x20 ADD PUSH0 KECCAK256 PUSH0 DUP3 DUP3 SLOAD ADD SWAP3 POP POP DUP2 SWAP1 SSTORE POP JUMPDEST DUP2 PUSH20 0xFFFFFFFFFFFFFFFFFFFFFFFFFFFFFFFFFFFFFFFF AND DUP4 PUSH20 0xFFFFFFFFFFFFFFFFFFFFFFFFFFFFFFFFFFFFFFFF AND PUSH32 0xDDF252AD1BE2C89B69C2B068FC378DAA952BA7F163C4A11628F55A4DF523B3EF DUP4 PUSH1 0x40 MLOAD PUSH2 0x1C01 SWAP2 SWAP1 PUSH2 0x2774 JUMP JUMPDEST PUSH1 0x40 MLOAD DUP1 SWAP2 SUB SWAP1 LOG3 POP POP POP JUMP JUMPDEST DUP1 SELFBALANCE LT ISZERO PUSH2 0x1C51 JUMPI PUSH1 0x40 MLOAD PUSH32 0x8C379A000000000000000000000000000000000000000000000000000000000 DUP2 MSTORE PUSH1 0x4 ADD PUSH2 0x1C48 SWAP1 PUSH2 0x3277 JUMP JUMPDEST PUSH1 0x40 MLOAD DUP1 SWAP2 SUB SWAP1 REVERT JUMPDEST PUSH2 0x1C7D ADDRESS PUSH1 0xC PUSH0 SWAP1 SLOAD SWAP1 PUSH2 0x100 EXP SWAP1 DIV PUSH20 0xFFFFFFFFFFFFFFFFFFFFFFFFFFFFFFFFFFFFFFFF AND DUP5 PUSH2 0x1714 JUMP JUMPDEST PUSH2 0x1CA8 ADDRESS PUSH1 0xD PUSH0 SWAP1 SLOAD SWAP1 PUSH2 0x100 EXP SWAP1 DIV PUSH20 0xFFFFFFFFFFFFFFFFFFFFFFFFFFFFFFFFFFFFFFFF AND PUSH2 0x1029 JUMP JUMPDEST DUP3 GT ISZERO PUSH2 0x1CEA JUMPI PUSH1 0x40 MLOAD PUSH32 0x8C379A000000000000000000000000000000000000000000000000000000000 DUP2 MSTORE PUSH1 0x4 ADD PUSH2 0x1CE1 SWAP1 PUSH2 0x3305 JUMP JUMPDEST PUSH1 0x40 MLOAD DUP1 SWAP2 SUB SWAP1 REVERT JUMPDEST PUSH0 DUP1 PUSH0 PUSH1 0xD PUSH0 SWAP1 SLOAD SWAP1 PUSH2 0x100 EXP SWAP1 DIV PUSH20 0xFFFFFFFFFFFFFFFFFFFFFFFFFFFFFFFFFFFFFFFF AND PUSH20 0xFFFFFFFFFFFFFFFFFFFFFFFFFFFFFFFFFFFFFFFF AND PUSH4 0xF305D719 DUP6 ADDRESS DUP9 PUSH0 DUP1 ADDRESS PUSH2 0x258 TIMESTAMP PUSH2 0x1D3E SWAP2 SWAP1 PUSH2 0x2CC7 JUMP JUMPDEST PUSH1 0x40 MLOAD DUP9 PUSH4 0xFFFFFFFF AND PUSH1 0xE0 SHL DUP2 MSTORE PUSH1 0x4 ADD PUSH2 0x1D5F SWAP7 SWAP6 SWAP5 SWAP4 SWAP3 SWAP2 SWAP1 PUSH2 0x3323 JUMP JUMPDEST PUSH1 0x60 PUSH1 0x40 MLOAD DUP1 DUP4 SUB DUP2 DUP6 DUP9 GAS CALL ISZERO DUP1 ISZERO PUSH2 0x1D7B JUMPI RETURNDATASIZE PUSH0 DUP1 RETURNDATACOPY RETURNDATASIZE PUSH0 REVERT JUMPDEST POP POP POP POP POP PUSH1 0x40 MLOAD RETURNDATASIZE PUSH1 0x1F NOT PUSH1 0x1F DUP3 ADD AND DUP3 ADD DUP1 PUSH1 0x40 MSTORE POP DUP2 ADD SWAP1 PUSH2 0x1DA0 SWAP2 SWAP1 PUSH2 0x3396 JUMP JUMPDEST SWAP3 POP SWAP3 POP SWAP3 POP PUSH0 DUP2 GT PUSH2 0x1DE8 JUMPI PUSH1 0x40 MLOAD PUSH32 0x8C379A000000000000000000000000000000000000000000000000000000000 DUP2 MSTORE PUSH1 0x4 ADD PUSH2 0x1DDF SWAP1 PUSH2 0x3430 JUMP JUMPDEST PUSH1 0x40 MLOAD DUP1 SWAP2 SUB SWAP1 REVERT JUMPDEST PUSH0 PUSH1 0x11 DUP2 SWAP1 SSTORE POP POP POP POP POP POP JUMP JUMPDEST PUSH0 PUSH20 0xFFFFFFFFFFFFFFFFFFFFFFFFFFFFFFFFFFFFFFFF AND DUP5 PUSH20 0xFFFFFFFFFFFFFFFFFFFFFFFFFFFFFFFFFFFFFFFF AND SUB PUSH2 0x1E66 JUMPI PUSH0 PUSH1 0x40 MLOAD PUSH32 0xE602DF0500000000000000000000000000000000000000000000000000000000 DUP2 MSTORE PUSH1 0x4 ADD PUSH2 0x1E5D SWAP2 SWAP1 PUSH2 0x287D JUMP JUMPDEST PUSH1 0x40 MLOAD DUP1 SWAP2 SUB SWAP1 REVERT JUMPDEST PUSH0 PUSH20 0xFFFFFFFFFFFFFFFFFFFFFFFFFFFFFFFFFFFFFFFF AND DUP4 PUSH20 0xFFFFFFFFFFFFFFFFFFFFFFFFFFFFFFFFFFFFFFFF AND SUB PUSH2 0x1ED6 JUMPI PUSH0 PUSH1 0x40 MLOAD PUSH32 0x94280D6200000000000000000000000000000000000000000000000000000000 DUP2 MSTORE PUSH1 0x4 ADD PUSH2 0x1ECD SWAP2 SWAP1 PUSH2 0x287D JUMP JUMPDEST PUSH1 0x40 MLOAD DUP1 SWAP2 SUB SWAP1 REVERT JUMPDEST DUP2 PUSH1 0x1 PUSH0 DUP7 PUSH20 0xFFFFFFFFFFFFFFFFFFFFFFFFFFFFFFFFFFFFFFFF AND PUSH20 0xFFFFFFFFFFFFFFFFFFFFFFFFFFFFFFFFFFFFFFFF AND DUP2 MSTORE PUSH1 0x20 ADD SWAP1 DUP2 MSTORE PUSH1 0x20 ADD PUSH0 KECCAK256 PUSH0 DUP6 PUSH20 0xFFFFFFFFFFFFFFFFFFFFFFFFFFFFFFFFFFFFFFFF AND PUSH20 0xFFFFFFFFFFFFFFFFFFFFFFFFFFFFFFFFFFFFFFFF AND DUP2 MSTORE PUSH1 0x20 ADD SWAP1 DUP2 MSTORE PUSH1 0x20 ADD PUSH0 KECCAK256 DUP2 SWAP1 SSTORE POP DUP1 ISZERO PUSH2 0x1FBF JUMPI DUP3 PUSH20 0xFFFFFFFFFFFFFFFFFFFFFFFFFFFFFFFFFFFFFFFF AND DUP5 PUSH20 0xFFFFFFFFFFFFFFFFFFFFFFFFFFFFFFFFFFFFFFFF AND PUSH32 0x8C5BE1E5EBEC7D5BD14F71427D1E84F3DD0314C0F7B2291E5B200AC8C7C3B925 DUP5 PUSH1 0x40 MLOAD PUSH2 0x1FB6 SWAP2 SWAP1 PUSH2 0x2774 JUMP JUMPDEST PUSH1 0x40 MLOAD DUP1 SWAP2 SUB SWAP1 LOG3 JUMPDEST POP POP POP POP JUMP JUMPDEST PUSH0 PUSH32 0x8B73C3C69BB8FE3D512ECC4CF759CC79239F7B179B0FFACAA9A75D522B39400F PUSH32 0x0 PUSH32 0x0 CHAINID ADDRESS PUSH1 0x40 MLOAD PUSH1 0x20 ADD PUSH2 0x203F SWAP6 SWAP5 SWAP4 SWAP3 SWAP2 SWAP1 PUSH2 0x344E JUMP JUMPDEST PUSH1 0x40 MLOAD PUSH1 0x20 DUP2 DUP4 SUB SUB DUP2 MSTORE SWAP1 PUSH1 0x40 MSTORE DUP1 MLOAD SWAP1 PUSH1 0x20 ADD KECCAK256 SWAP1 POP SWAP1 JUMP JUMPDEST PUSH1 0x60 PUSH1 0xFF PUSH0 SHL DUP4 EQ PUSH2 0x2076 JUMPI PUSH2 0x206F DUP4 PUSH2 0x2390 JUMP JUMPDEST SWAP1 POP PUSH2 0x2101 JUMP JUMPDEST DUP2 DUP1 SLOAD PUSH2 0x2082 SWAP1 PUSH2 0x2D5A JUMP JUMPDEST DUP1 PUSH1 0x1F ADD PUSH1 0x20 DUP1 SWAP2 DIV MUL PUSH1 0x20 ADD PUSH1 0x40 MLOAD SWAP1 DUP2 ADD PUSH1 0x40 MSTORE DUP1 SWAP3 SWAP2 SWAP1 DUP2 DUP2 MSTORE PUSH1 0x20 ADD DUP3 DUP1 SLOAD PUSH2 0x20AE SWAP1 PUSH2 0x2D5A JUMP JUMPDEST DUP1 ISZERO PUSH2 0x20F9 JUMPI DUP1 PUSH1 0x1F LT PUSH2 0x20D0 JUMPI PUSH2 0x100 DUP1 DUP4 SLOAD DIV MUL DUP4 MSTORE SWAP2 PUSH1 0x20 ADD SWAP2 PUSH2 0x20F9 JUMP JUMPDEST DUP3 ADD SWAP2 SWAP1 PUSH0 MSTORE PUSH1 0x20 PUSH0 KECCAK256 SWAP1 JUMPDEST DUP2 SLOAD DUP2 MSTORE SWAP1 PUSH1 0x1 ADD SWAP1 PUSH1 0x20 ADD DUP1 DUP4 GT PUSH2 0x20DC JUMPI DUP3 SWAP1 SUB PUSH1 0x1F AND DUP3 ADD SWAP2 JUMPDEST POP POP POP POP POP SWAP1 POP JUMPDEST SWAP3 SWAP2 POP POP JUMP JUMPDEST PUSH0 PUSH1 0x40 MLOAD PUSH32 0x1901000000000000000000000000000000000000000000000000000000000000 DUP2 MSTORE DUP4 PUSH1 0x2 DUP3 ADD MSTORE DUP3 PUSH1 0x22 DUP3 ADD MSTORE PUSH1 0x42 DUP2 KECCAK256 SWAP2 POP POP SWAP3 SWAP2 POP POP JUMP JUMPDEST PUSH0 DUP1 PUSH0 PUSH32 0x7FFFFFFFFFFFFFFFFFFFFFFFFFFFFFFF5D576E7357A4501DDFE92F46681B20A0 DUP5 PUSH0 SHR GT ISZERO PUSH2 0x2183 JUMPI PUSH0 PUSH1 0x3 DUP6 SWAP3 POP SWAP3 POP SWAP3 POP PUSH2 0x2224 JUMP JUMPDEST PUSH0 PUSH1 0x1 DUP9 DUP9 DUP9 DUP9 PUSH1 0x40 MLOAD PUSH0 DUP2 MSTORE PUSH1 0x20 ADD PUSH1 0x40 MSTORE PUSH1 0x40 MLOAD PUSH2 0x21A6 SWAP5 SWAP4 SWAP3 SWAP2 SWAP1 PUSH2 0x349F JUMP JUMPDEST PUSH1 0x20 PUSH1 0x40 MLOAD PUSH1 0x20 DUP2 SUB SWAP1 DUP1 DUP5 SUB SWAP1 DUP6 GAS STATICCALL ISZERO DUP1 ISZERO PUSH2 0x21C6 JUMPI RETURNDATASIZE PUSH0 DUP1 RETURNDATACOPY RETURNDATASIZE PUSH0 REVERT JUMPDEST POP POP POP PUSH1 0x20 PUSH1 0x40 MLOAD SUB MLOAD SWAP1 POP PUSH0 PUSH20 0xFFFFFFFFFFFFFFFFFFFFFFFFFFFFFFFFFFFFFFFF AND DUP2 PUSH20 0xFFFFFFFFFFFFFFFFFFFFFFFFFFFFFFFFFFFFFFFF AND SUB PUSH2 0x2217 JUMPI PUSH0 PUSH1 0x1 PUSH0 DUP1 SHL SWAP4 POP SWAP4 POP SWAP4 POP POP PUSH2 0x2224 JUMP JUMPDEST DUP1 PUSH0 DUP1 PUSH0 SHL SWAP4 POP SWAP4 POP SWAP4 POP POP JUMPDEST SWAP5 POP SWAP5 POP SWAP5 SWAP2 POP POP JUMP JUMPDEST PUSH0 PUSH1 0x3 DUP2 GT ISZERO PUSH2 0x2241 JUMPI PUSH2 0x2240 PUSH2 0x34E2 JUMP JUMPDEST JUMPDEST DUP3 PUSH1 0x3 DUP2 GT ISZERO PUSH2 0x2254 JUMPI PUSH2 0x2253 PUSH2 0x34E2 JUMP JUMPDEST JUMPDEST SUB ISZERO PUSH2 0x238C JUMPI PUSH1 0x1 PUSH1 0x3 DUP2 GT ISZERO PUSH2 0x226E JUMPI PUSH2 0x226D PUSH2 0x34E2 JUMP JUMPDEST JUMPDEST DUP3 PUSH1 0x3 DUP2 GT ISZERO PUSH2 0x2281 JUMPI PUSH2 0x2280 PUSH2 0x34E2 JUMP JUMPDEST JUMPDEST SUB PUSH2 0x22B8 JUMPI PUSH1 0x40 MLOAD PUSH32 0xF645EEDF00000000000000000000000000000000000000000000000000000000 DUP2 MSTORE PUSH1 0x4 ADD PUSH1 0x40 MLOAD DUP1 SWAP2 SUB SWAP1 REVERT JUMPDEST PUSH1 0x2 PUSH1 0x3 DUP2 GT ISZERO PUSH2 0x22CC JUMPI PUSH2 0x22CB PUSH2 0x34E2 JUMP JUMPDEST JUMPDEST DUP3 PUSH1 0x3 DUP2 GT ISZERO PUSH2 0x22DF JUMPI PUSH2 0x22DE PUSH2 0x34E2 JUMP JUMPDEST JUMPDEST SUB PUSH2 0x2323 JUMPI DUP1 PUSH0 SHR PUSH1 0x40 MLOAD PUSH32 0xFCE698F700000000000000000000000000000000000000000000000000000000 DUP2 MSTORE PUSH1 0x4 ADD PUSH2 0x231A SWAP2 SWAP1 PUSH2 0x2774 JUMP JUMPDEST PUSH1 0x40 MLOAD DUP1 SWAP2 SUB SWAP1 REVERT JUMPDEST PUSH1 0x3 DUP1 DUP2 GT ISZERO PUSH2 0x2336 JUMPI PUSH2 0x2335 PUSH2 0x34E2 JUMP JUMPDEST JUMPDEST DUP3 PUSH1 0x3 DUP2 GT ISZERO PUSH2 0x2349 JUMPI PUSH2 0x2348 PUSH2 0x34E2 JUMP JUMPDEST JUMPDEST SUB PUSH2 0x238B JUMPI DUP1 PUSH1 0x40 MLOAD PUSH32 0xD78BCE0C00000000000000000000000000000000000000000000000000000000 DUP2 MSTORE PUSH1 0x4 ADD PUSH2 0x2382 SWAP2 SWAP1 PUSH2 0x2817 JUMP JUMPDEST PUSH1 0x40 MLOAD DUP1 SWAP2 SUB SWAP1 REVERT JUMPDEST JUMPDEST POP POP JUMP JUMPDEST PUSH1 0x60 PUSH0 PUSH2 0x239C DUP4 PUSH2 0x2402 JUMP JUMPDEST SWAP1 POP PUSH0 PUSH1 0x20 PUSH8 0xFFFFFFFFFFFFFFFF DUP2 GT ISZERO PUSH2 0x23BA JUMPI PUSH2 0x23B9 PUSH2 0x2E33 JUMP JUMPDEST JUMPDEST PUSH1 0x40 MLOAD SWAP1 DUP1 DUP3 MSTORE DUP1 PUSH1 0x1F ADD PUSH1 0x1F NOT AND PUSH1 0x20 ADD DUP3 ADD PUSH1 0x40 MSTORE DUP1 ISZERO PUSH2 0x23EC JUMPI DUP2 PUSH1 0x20 ADD PUSH1 0x1 DUP3 MUL DUP1 CALLDATASIZE DUP4 CALLDATACOPY DUP1 DUP3 ADD SWAP2 POP POP SWAP1 POP JUMPDEST POP SWAP1 POP DUP2 DUP2 MSTORE DUP4 PUSH1 0x20 DUP3 ADD MSTORE DUP1 SWAP3 POP POP POP SWAP2 SWAP1 POP JUMP JUMPDEST PUSH0 DUP1 PUSH1 0xFF DUP4 PUSH0 SHR AND SWAP1 POP PUSH1 0x1F DUP2 GT ISZERO PUSH2 0x2447 JUMPI PUSH1 0x40 MLOAD PUSH32 0xB3512B0C00000000000000000000000000000000000000000000000000000000 DUP2 MSTORE PUSH1 0x4 ADD PUSH1 0x40 MLOAD DUP1 SWAP2 SUB SWAP1 REVERT JUMPDEST DUP1 SWAP2 POP POP SWAP2 SWAP1 POP JUMP JUMPDEST PUSH0 DUP1 REVERT JUMPDEST PUSH0 PUSH20 0xFFFFFFFFFFFFFFFFFFFFFFFFFFFFFFFFFFFFFFFF DUP3 AND SWAP1 POP SWAP2 SWAP1 POP JUMP JUMPDEST PUSH0 PUSH2 0x247D DUP3 PUSH2 0x2454 JUMP JUMPDEST SWAP1 POP SWAP2 SWAP1 POP JUMP JUMPDEST PUSH2 0x248D DUP2 PUSH2 0x2473 JUMP JUMPDEST DUP2 EQ PUSH2 0x2497 JUMPI PUSH0 DUP1 REVERT JUMPDEST POP JUMP JUMPDEST PUSH0 DUP2 CALLDATALOAD SWAP1 POP PUSH2 0x24A8 DUP2 PUSH2 0x2484 JUMP JUMPDEST SWAP3 SWAP2 POP POP JUMP JUMPDEST PUSH0 DUP2 SWAP1 POP SWAP2 SWAP1 POP JUMP JUMPDEST PUSH2 0x24C0 DUP2 PUSH2 0x24AE JUMP JUMPDEST DUP2 EQ PUSH2 0x24CA JUMPI PUSH0 DUP1 REVERT JUMPDEST POP JUMP JUMPDEST PUSH0 DUP2 CALLDATALOAD SWAP1 POP PUSH2 0x24DB DUP2 PUSH2 0x24B7 JUMP JUMPDEST SWAP3 SWAP2 POP POP JUMP JUMPDEST PUSH0 DUP1 PUSH0 PUSH1 0x60 DUP5 DUP7 SUB SLT ISZERO PUSH2 0x24F8 JUMPI PUSH2 0x24F7 PUSH2 0x2450 JUMP JUMPDEST JUMPDEST PUSH0 PUSH2 0x2505 DUP7 DUP3 DUP8 ADD PUSH2 0x249A JUMP JUMPDEST SWAP4 POP POP PUSH1 0x20 PUSH2 0x2516 DUP7 DUP3 DUP8 ADD PUSH2 0x249A JUMP JUMPDEST SWAP3 POP POP PUSH1 0x40 PUSH2 0x2527 DUP7 DUP3 DUP8 ADD PUSH2 0x24CD JUMP JUMPDEST SWAP2 POP POP SWAP3 POP SWAP3 POP SWAP3 JUMP JUMPDEST PUSH0 DUP2 ISZERO ISZERO SWAP1 POP SWAP2 SWAP1 POP JUMP JUMPDEST PUSH2 0x2545 DUP2 PUSH2 0x2531 JUMP JUMPDEST DUP2 EQ PUSH2 0x254F JUMPI PUSH0 DUP1 REVERT JUMPDEST POP JUMP JUMPDEST PUSH0 DUP2 CALLDATALOAD SWAP1 POP PUSH2 0x2560 DUP2 PUSH2 0x253C JUMP JUMPDEST SWAP3 SWAP2 POP POP JUMP JUMPDEST PUSH0 DUP1 PUSH0 PUSH1 0x60 DUP5 DUP7 SUB SLT ISZERO PUSH2 0x257D JUMPI PUSH2 0x257C PUSH2 0x2450 JUMP JUMPDEST JUMPDEST PUSH0 PUSH2 0x258A DUP7 DUP3 DUP8 ADD PUSH2 0x24CD JUMP JUMPDEST SWAP4 POP POP PUSH1 0x20 PUSH2 0x259B DUP7 DUP3 DUP8 ADD PUSH2 0x249A JUMP JUMPDEST SWAP3 POP POP PUSH1 0x40 PUSH2 0x25AC DUP7 DUP3 DUP8 ADD PUSH2 0x2552 JUMP JUMPDEST SWAP2 POP POP SWAP3 POP SWAP3 POP SWAP3 JUMP JUMPDEST PUSH0 DUP2 MLOAD SWAP1 POP SWAP2 SWAP1 POP JUMP JUMPDEST PUSH0 DUP3 DUP3 MSTORE PUSH1 0x20 DUP3 ADD SWAP1 POP SWAP3 SWAP2 POP POP JUMP JUMPDEST PUSH0 JUMPDEST DUP4 DUP2 LT ISZERO PUSH2 0x25ED JUMPI DUP1 DUP3 ADD MLOAD DUP2 DUP5 ADD MSTORE PUSH1 0x20 DUP2 ADD SWAP1 POP PUSH2 0x25D2 JUMP JUMPDEST PUSH0 DUP5 DUP5 ADD MSTORE POP POP POP POP JUMP JUMPDEST PUSH0 PUSH1 0x1F NOT PUSH1 0x1F DUP4 ADD AND SWAP1 POP SWAP2 SWAP1 POP JUMP JUMPDEST PUSH0 PUSH2 0x2612 DUP3 PUSH2 0x25B6 JUMP JUMPDEST PUSH2 0x261C DUP2 DUP6 PUSH2 0x25C0 JUMP JUMPDEST SWAP4 POP PUSH2 0x262C DUP2 DUP6 PUSH1 0x20 DUP7 ADD PUSH2 0x25D0 JUMP JUMPDEST PUSH2 0x2635 DUP2 PUSH2 0x25F8 JUMP JUMPDEST DUP5 ADD SWAP2 POP POP SWAP3 SWAP2 POP POP JUMP JUMPDEST PUSH0 PUSH1 0x20 DUP3 ADD SWAP1 POP DUP2 DUP2 SUB PUSH0 DUP4 ADD MSTORE PUSH2 0x2658 DUP2 DUP5 PUSH2 0x2608 JUMP JUMPDEST SWAP1 POP SWAP3 SWAP2 POP POP JUMP JUMPDEST PUSH0 DUP1 PUSH1 0x40 DUP4 DUP6 SUB SLT ISZERO PUSH2 0x2676 JUMPI PUSH2 0x2675 PUSH2 0x2450 JUMP JUMPDEST JUMPDEST PUSH0 PUSH2 0x2683 DUP6 DUP3 DUP7 ADD PUSH2 0x249A JUMP JUMPDEST SWAP3 POP POP PUSH1 0x20 PUSH2 0x2694 DUP6 DUP3 DUP7 ADD PUSH2 0x24CD JUMP JUMPDEST SWAP2 POP POP SWAP3 POP SWAP3 SWAP1 POP JUMP JUMPDEST PUSH2 0x26A7 DUP2 PUSH2 0x2531 JUMP JUMPDEST DUP3 MSTORE POP POP JUMP JUMPDEST PUSH0 PUSH1 0x20 DUP3 ADD SWAP1 POP PUSH2 0x26C0 PUSH0 DUP4 ADD DUP5 PUSH2 0x269E JUMP JUMPDEST SWAP3 SWAP2 POP POP JUMP JUMPDEST PUSH0 PUSH1 0x20 DUP3 DUP5 SUB SLT ISZERO PUSH2 0x26DB JUMPI PUSH2 0x26DA PUSH2 0x2450 JUMP JUMPDEST JUMPDEST PUSH0 PUSH2 0x26E8 DUP5 DUP3 DUP6 ADD PUSH2 0x249A JUMP JUMPDEST SWAP2 POP POP SWAP3 SWAP2 POP POP JUMP JUMPDEST PUSH0 DUP2 SWAP1 POP SWAP2 SWAP1 POP JUMP JUMPDEST PUSH0 PUSH2 0x2714 PUSH2 0x270F PUSH2 0x270A DUP5 PUSH2 0x2454 JUMP JUMPDEST PUSH2 0x26F1 JUMP JUMPDEST PUSH2 0x2454 JUMP JUMPDEST SWAP1 POP SWAP2 SWAP1 POP JUMP JUMPDEST PUSH0 PUSH2 0x2725 DUP3 PUSH2 0x26FA JUMP JUMPDEST SWAP1 POP SWAP2 SWAP1 POP JUMP JUMPDEST PUSH0 PUSH2 0x2736 DUP3 PUSH2 0x271B JUMP JUMPDEST SWAP1 POP SWAP2 SWAP1 POP JUMP JUMPDEST PUSH2 0x2746 DUP2 PUSH2 0x272C JUMP JUMPDEST DUP3 MSTORE POP POP JUMP JUMPDEST PUSH0 PUSH1 0x20 DUP3 ADD SWAP1 POP PUSH2 0x275F PUSH0 DUP4 ADD DUP5 PUSH2 0x273D JUMP JUMPDEST SWAP3 SWAP2 POP POP JUMP JUMPDEST PUSH2 0x276E DUP2 PUSH2 0x24AE JUMP JUMPDEST DUP3 MSTORE POP POP JUMP JUMPDEST PUSH0 PUSH1 0x20 DUP3 ADD SWAP1 POP PUSH2 0x2787 PUSH0 DUP4 ADD DUP5 PUSH2 0x2765 JUMP JUMPDEST SWAP3 SWAP2 POP POP JUMP JUMPDEST PUSH0 DUP1 PUSH1 0x40 DUP4 DUP6 SUB SLT ISZERO PUSH2 0x27A3 JUMPI PUSH2 0x27A2 PUSH2 0x2450 JUMP JUMPDEST JUMPDEST PUSH0 PUSH2 0x27B0 DUP6 DUP3 DUP7 ADD PUSH2 0x24CD JUMP JUMPDEST SWAP3 POP POP PUSH1 0x20 PUSH2 0x27C1 DUP6 DUP3 DUP7 ADD PUSH2 0x249A JUMP JUMPDEST SWAP2 POP POP SWAP3 POP SWAP3 SWAP1 POP JUMP JUMPDEST PUSH0 PUSH1 0xFF DUP3 AND SWAP1 POP SWAP2 SWAP1 POP JUMP JUMPDEST PUSH2 0x27E0 DUP2 PUSH2 0x27CB JUMP JUMPDEST DUP3 MSTORE POP POP JUMP JUMPDEST PUSH0 PUSH1 0x20 DUP3 ADD SWAP1 POP PUSH2 0x27F9 PUSH0 DUP4 ADD DUP5 PUSH2 0x27D7 JUMP JUMPDEST SWAP3 SWAP2 POP POP JUMP JUMPDEST PUSH0 DUP2 SWAP1 POP SWAP2 SWAP1 POP JUMP JUMPDEST PUSH2 0x2811 DUP2 PUSH2 0x27FF JUMP JUMPDEST DUP3 MSTORE POP POP JUMP JUMPDEST PUSH0 PUSH1 0x20 DUP3 ADD SWAP1 POP PUSH2 0x282A PUSH0 DUP4 ADD DUP5 PUSH2 0x2808 JUMP JUMPDEST SWAP3 SWAP2 POP POP JUMP JUMPDEST PUSH0 DUP1 PUSH1 0x40 DUP4 DUP6 SUB SLT ISZERO PUSH2 0x2846 JUMPI PUSH2 0x2845 PUSH2 0x2450 JUMP JUMPDEST JUMPDEST PUSH0 PUSH2 0x2853 DUP6 DUP3 DUP7 ADD PUSH2 0x249A JUMP JUMPDEST SWAP3 POP POP PUSH1 0x20 PUSH2 0x2864 DUP6 DUP3 DUP7 ADD PUSH2 0x2552 JUMP JUMPDEST SWAP2 POP POP SWAP3 POP SWAP3 SWAP1 POP JUMP JUMPDEST PUSH2 0x2877 DUP2 PUSH2 0x2473 JUMP JUMPDEST DUP3 MSTORE POP POP JUMP JUMPDEST PUSH0 PUSH1 0x20 DUP3 ADD SWAP1 POP PUSH2 0x2890 PUSH0 DUP4 ADD DUP5 PUSH2 0x286E JUMP JUMPDEST SWAP3 SWAP2 POP POP JUMP JUMPDEST PUSH0 PUSH2 0x28A0 DUP3 PUSH2 0x2454 JUMP JUMPDEST SWAP1 POP SWAP2 SWAP1 POP JUMP JUMPDEST PUSH2 0x28B0 DUP2 PUSH2 0x2896 JUMP JUMPDEST DUP3 MSTORE POP POP JUMP JUMPDEST PUSH0 PUSH1 0x20 DUP3 ADD SWAP1 POP PUSH2 0x28C9 PUSH0 DUP4 ADD DUP5 PUSH2 0x28A7 JUMP JUMPDEST SWAP3 SWAP2 POP POP JUMP JUMPDEST PUSH0 PUSH2 0xFFFF DUP3 AND SWAP1 POP SWAP2 SWAP1 POP JUMP JUMPDEST PUSH2 0x28E5 DUP2 PUSH2 0x28CF JUMP JUMPDEST DUP3 MSTORE POP POP JUMP JUMPDEST PUSH0 PUSH1 0x20 DUP3 ADD SWAP1 POP PUSH2 0x28FE PUSH0 DUP4 ADD DUP5 PUSH2 0x28DC JUMP JUMPDEST SWAP3 SWAP2 POP POP JUMP JUMPDEST PUSH0 PUSH32 0xFF00000000000000000000000000000000000000000000000000000000000000 DUP3 AND SWAP1 POP SWAP2 SWAP1 POP JUMP JUMPDEST PUSH2 0x2938 DUP2 PUSH2 0x2904 JUMP JUMPDEST DUP3 MSTORE POP POP JUMP JUMPDEST PUSH0 DUP2 MLOAD SWAP1 POP SWAP2 SWAP1 POP JUMP JUMPDEST PUSH0 DUP3 DUP3 MSTORE PUSH1 0x20 DUP3 ADD SWAP1 POP SWAP3 SWAP2 POP POP JUMP JUMPDEST PUSH0 DUP2 SWAP1 POP PUSH1 0x20 DUP3 ADD SWAP1 POP SWAP2 SWAP1 POP JUMP JUMPDEST PUSH2 0x2970 DUP2 PUSH2 0x24AE JUMP JUMPDEST DUP3 MSTORE POP POP JUMP JUMPDEST PUSH0 PUSH2 0x2981 DUP4 DUP4 PUSH2 0x2967 JUMP JUMPDEST PUSH1 0x20 DUP4 ADD SWAP1 POP SWAP3 SWAP2 POP POP JUMP JUMPDEST PUSH0 PUSH1 0x20 DUP3 ADD SWAP1 POP SWAP2 SWAP1 POP JUMP JUMPDEST PUSH0 PUSH2 0x29A3 DUP3 PUSH2 0x293E JUMP JUMPDEST PUSH2 0x29AD DUP2 DUP6 PUSH2 0x2948 JUMP JUMPDEST SWAP4 POP PUSH2 0x29B8 DUP4 PUSH2 0x2958 JUMP JUMPDEST DUP1 PUSH0 JUMPDEST DUP4 DUP2 LT ISZERO PUSH2 0x29E8 JUMPI DUP2 MLOAD PUSH2 0x29CF DUP9 DUP3 PUSH2 0x2976 JUMP JUMPDEST SWAP8 POP PUSH2 0x29DA DUP4 PUSH2 0x298D JUMP JUMPDEST SWAP3 POP POP PUSH1 0x1 DUP2 ADD SWAP1 POP PUSH2 0x29BB JUMP JUMPDEST POP DUP6 SWAP4 POP POP POP POP SWAP3 SWAP2 POP POP JUMP JUMPDEST PUSH0 PUSH1 0xE0 DUP3 ADD SWAP1 POP PUSH2 0x2A08 PUSH0 DUP4 ADD DUP11 PUSH2 0x292F JUMP JUMPDEST DUP2 DUP2 SUB PUSH1 0x20 DUP4 ADD MSTORE PUSH2 0x2A1A DUP2 DUP10 PUSH2 0x2608 JUMP JUMPDEST SWAP1 POP DUP2 DUP2 SUB PUSH1 0x40 DUP4 ADD MSTORE PUSH2 0x2A2E DUP2 DUP9 PUSH2 0x2608 JUMP JUMPDEST SWAP1 POP PUSH2 0x2A3D PUSH1 0x60 DUP4 ADD DUP8 PUSH2 0x2765 JUMP JUMPDEST PUSH2 0x2A4A PUSH1 0x80 DUP4 ADD DUP7 PUSH2 0x286E JUMP JUMPDEST PUSH2 0x2A57 PUSH1 0xA0 DUP4 ADD DUP6 PUSH2 0x2808 JUMP JUMPDEST DUP2 DUP2 SUB PUSH1 0xC0 DUP4 ADD MSTORE PUSH2 0x2A69 DUP2 DUP5 PUSH2 0x2999 JUMP JUMPDEST SWAP1 POP SWAP9 SWAP8 POP POP POP POP POP POP POP POP JUMP JUMPDEST PUSH0 PUSH1 0x20 DUP3 DUP5 SUB SLT ISZERO PUSH2 0x2A8C JUMPI PUSH2 0x2A8B PUSH2 0x2450 JUMP JUMPDEST JUMPDEST PUSH0 PUSH2 0x2A99 DUP5 DUP3 DUP6 ADD PUSH2 0x2552 JUMP JUMPDEST SWAP2 POP POP SWAP3 SWAP2 POP POP JUMP JUMPDEST PUSH2 0x2AAB DUP2 PUSH2 0x27CB JUMP JUMPDEST DUP2 EQ PUSH2 0x2AB5 JUMPI PUSH0 DUP1 REVERT JUMPDEST POP JUMP JUMPDEST PUSH0 DUP2 CALLDATALOAD SWAP1 POP PUSH2 0x2AC6 DUP2 PUSH2 0x2AA2 JUMP JUMPDEST SWAP3 SWAP2 POP POP JUMP JUMPDEST PUSH2 0x2AD5 DUP2 PUSH2 0x27FF JUMP JUMPDEST DUP2 EQ PUSH2 0x2ADF JUMPI PUSH0 DUP1 REVERT JUMPDEST POP JUMP JUMPDEST PUSH0 DUP2 CALLDATALOAD SWAP1 POP PUSH2 0x2AF0 DUP2 PUSH2 0x2ACC JUMP JUMPDEST SWAP3 SWAP2 POP POP JUMP JUMPDEST PUSH0 DUP1 PUSH0 DUP1 PUSH0 DUP1 PUSH0 PUSH1 0xE0 DUP9 DUP11 SUB SLT ISZERO PUSH2 0x2B11 JUMPI PUSH2 0x2B10 PUSH2 0x2450 JUMP JUMPDEST JUMPDEST PUSH0 PUSH2 0x2B1E DUP11 DUP3 DUP12 ADD PUSH2 0x249A JUMP JUMPDEST SWAP8 POP POP PUSH1 0x20 PUSH2 0x2B2F DUP11 DUP3 DUP12 ADD PUSH2 0x249A JUMP JUMPDEST SWAP7 POP POP PUSH1 0x40 PUSH2 0x2B40 DUP11 DUP3 DUP12 ADD PUSH2 0x24CD JUMP JUMPDEST SWAP6 POP POP PUSH1 0x60 PUSH2 0x2B51 DUP11 DUP3 DUP12 ADD PUSH2 0x24CD JUMP JUMPDEST SWAP5 POP POP PUSH1 0x80 PUSH2 0x2B62 DUP11 DUP3 DUP12 ADD PUSH2 0x2AB8 JUMP JUMPDEST SWAP4 POP POP PUSH1 0xA0 PUSH2 0x2B73 DUP11 DUP3 DUP12 ADD PUSH2 0x2AE2 JUMP JUMPDEST SWAP3 POP POP PUSH1 0xC0 PUSH2 0x2B84 DUP11 DUP3 DUP12 ADD PUSH2 0x2AE2 JUMP JUMPDEST SWAP2 POP POP SWAP3 SWAP6 SWAP9 SWAP2 SWAP5 SWAP8 POP SWAP3 SWAP6 POP JUMP JUMPDEST PUSH0 PUSH1 0x20 DUP3 DUP5 SUB SLT ISZERO PUSH2 0x2BA8 JUMPI PUSH2 0x2BA7 PUSH2 0x2450 JUMP JUMPDEST JUMPDEST PUSH0 PUSH2 0x2BB5 DUP5 DUP3 DUP6 ADD PUSH2 0x24CD JUMP JUMPDEST SWAP2 POP POP SWAP3 SWAP2 POP POP JUMP JUMPDEST PUSH0 DUP1 PUSH1 0x40 DUP4 DUP6 SUB SLT ISZERO PUSH2 0x2BD4 JUMPI PUSH2 0x2BD3 PUSH2 0x2450 JUMP JUMPDEST JUMPDEST PUSH0 PUSH2 0x2BE1 DUP6 DUP3 DUP7 ADD PUSH2 0x249A JUMP JUMPDEST SWAP3 POP POP PUSH1 0x20 PUSH2 0x2BF2 DUP6 DUP3 DUP7 ADD PUSH2 0x249A JUMP JUMPDEST SWAP2 POP POP SWAP3 POP SWAP3 SWAP1 POP JUMP JUMPDEST PUSH32 0x4E487B7100000000000000000000000000000000000000000000000000000000 PUSH0 MSTORE PUSH1 0x11 PUSH1 0x4 MSTORE PUSH1 0x24 PUSH0 REVERT JUMPDEST PUSH0 PUSH2 0x2C33 DUP3 PUSH2 0x24AE JUMP JUMPDEST SWAP2 POP PUSH2 0x2C3E DUP4 PUSH2 0x24AE JUMP JUMPDEST SWAP3 POP DUP3 DUP3 MUL PUSH2 0x2C4C DUP2 PUSH2 0x24AE JUMP JUMPDEST SWAP2 POP DUP3 DUP3 DIV DUP5 EQ DUP4 ISZERO OR PUSH2 0x2C63 JUMPI PUSH2 0x2C62 PUSH2 0x2BFC JUMP JUMPDEST JUMPDEST POP SWAP3 SWAP2 POP POP JUMP JUMPDEST PUSH32 0x4E487B7100000000000000000000000000000000000000000000000000000000 PUSH0 MSTORE PUSH1 0x12 PUSH1 0x4 MSTORE PUSH1 0x24 PUSH0 REVERT JUMPDEST PUSH0 PUSH2 0x2CA1 DUP3 PUSH2 0x24AE JUMP JUMPDEST SWAP2 POP PUSH2 0x2CAC DUP4 PUSH2 0x24AE JUMP JUMPDEST SWAP3 POP DUP3 PUSH2 0x2CBC JUMPI PUSH2 0x2CBB PUSH2 0x2C6A JUMP JUMPDEST JUMPDEST DUP3 DUP3 DIV SWAP1 POP SWAP3 SWAP2 POP POP JUMP JUMPDEST PUSH0 PUSH2 0x2CD1 DUP3 PUSH2 0x24AE JUMP JUMPDEST SWAP2 POP PUSH2 0x2CDC DUP4 PUSH2 0x24AE JUMP JUMPDEST SWAP3 POP DUP3 DUP3 ADD SWAP1 POP DUP1 DUP3 GT ISZERO PUSH2 0x2CF4 JUMPI PUSH2 0x2CF3 PUSH2 0x2BFC JUMP JUMPDEST JUMPDEST SWAP3 SWAP2 POP POP JUMP JUMPDEST PUSH0 PUSH2 0x2D04 DUP3 PUSH2 0x24AE JUMP JUMPDEST SWAP2 POP PUSH2 0x2D0F DUP4 PUSH2 0x24AE JUMP JUMPDEST SWAP3 POP DUP3 DUP3 SUB SWAP1 POP DUP2 DUP2 GT ISZERO PUSH2 0x2D27 JUMPI PUSH2 0x2D26 PUSH2 0x2BFC JUMP JUMPDEST JUMPDEST SWAP3 SWAP2 POP POP JUMP JUMPDEST PUSH32 0x4E487B7100000000000000000000000000000000000000000000000000000000 PUSH0 MSTORE PUSH1 0x22 PUSH1 0x4 MSTORE PUSH1 0x24 PUSH0 REVERT JUMPDEST PUSH0 PUSH1 0x2 DUP3 DIV SWAP1 POP PUSH1 0x1 DUP3 AND DUP1 PUSH2 0x2D71 JUMPI PUSH1 0x7F DUP3 AND SWAP2 POP JUMPDEST PUSH1 0x20 DUP3 LT DUP2 SUB PUSH2 0x2D84 JUMPI PUSH2 0x2D83 PUSH2 0x2D2D JUMP JUMPDEST JUMPDEST POP SWAP2 SWAP1 POP JUMP JUMPDEST PUSH0 DUP2 SWAP1 POP SWAP3 SWAP2 POP POP JUMP JUMPDEST POP JUMP JUMPDEST PUSH0 PUSH2 0x2DA2 PUSH0 DUP4 PUSH2 0x2D8A JUMP JUMPDEST SWAP2 POP PUSH2 0x2DAD DUP3 PUSH2 0x2D94 JUMP JUMPDEST PUSH0 DUP3 ADD SWAP1 POP SWAP2 SWAP1 POP JUMP JUMPDEST PUSH0 PUSH2 0x2DC1 DUP3 PUSH2 0x2D97 JUMP JUMPDEST SWAP2 POP DUP2 SWAP1 POP SWAP2 SWAP1 POP JUMP JUMPDEST PUSH32 0x4661696C656420746F207472616E736665722066756E64730000000000000000 PUSH0 DUP3 ADD MSTORE POP JUMP JUMPDEST PUSH0 PUSH2 0x2DFF PUSH1 0x18 DUP4 PUSH2 0x25C0 JUMP JUMPDEST SWAP2 POP PUSH2 0x2E0A DUP3 PUSH2 0x2DCB JUMP JUMPDEST PUSH1 0x20 DUP3 ADD SWAP1 POP SWAP2 SWAP1 POP JUMP JUMPDEST PUSH0 PUSH1 0x20 DUP3 ADD SWAP1 POP DUP2 DUP2 SUB PUSH0 DUP4 ADD MSTORE PUSH2 0x2E2C DUP2 PUSH2 0x2DF3 JUMP JUMPDEST SWAP1 POP SWAP2 SWAP1 POP JUMP JUMPDEST PUSH32 0x4E487B7100000000000000000000000000000000000000000000000000000000 PUSH0 MSTORE PUSH1 0x41 PUSH1 0x4 MSTORE PUSH1 0x24 PUSH0 REVERT JUMPDEST PUSH0 PUSH1 0xC0 DUP3 ADD SWAP1 POP PUSH2 0x2E73 PUSH0 DUP4 ADD DUP10 PUSH2 0x2808 JUMP JUMPDEST PUSH2 0x2E80 PUSH1 0x20 DUP4 ADD DUP9 PUSH2 0x286E JUMP JUMPDEST PUSH2 0x2E8D PUSH1 0x40 DUP4 ADD DUP8 PUSH2 0x286E JUMP JUMPDEST PUSH2 0x2E9A PUSH1 0x60 DUP4 ADD DUP7 PUSH2 0x2765 JUMP JUMPDEST PUSH2 0x2EA7 PUSH1 0x80 DUP4 ADD DUP6 PUSH2 0x2765 JUMP JUMPDEST PUSH2 0x2EB4 PUSH1 0xA0 DUP4 ADD DUP5 PUSH2 0x2765 JUMP JUMPDEST SWAP8 SWAP7 POP POP POP POP POP POP POP JUMP JUMPDEST PUSH0 PUSH1 0x40 DUP3 ADD SWAP1 POP PUSH2 0x2ED2 PUSH0 DUP4 ADD DUP6 PUSH2 0x286E JUMP JUMPDEST PUSH2 0x2EDF PUSH1 0x20 DUP4 ADD DUP5 PUSH2 0x286E JUMP JUMPDEST SWAP4 SWAP3 POP POP POP JUMP JUMPDEST PUSH32 0x4E487B7100000000000000000000000000000000000000000000000000000000 PUSH0 MSTORE PUSH1 0x32 PUSH1 0x4 MSTORE PUSH1 0x24 PUSH0 REVERT JUMPDEST PUSH0 DUP2 MLOAD SWAP1 POP PUSH2 0x2F21 DUP2 PUSH2 0x2484 JUMP JUMPDEST SWAP3 SWAP2 POP POP JUMP JUMPDEST PUSH0 PUSH1 0x20 DUP3 DUP5 SUB SLT ISZERO PUSH2 0x2F3C JUMPI PUSH2 0x2F3B PUSH2 0x2450 JUMP JUMPDEST JUMPDEST PUSH0 PUSH2 0x2F49 DUP5 DUP3 DUP6 ADD PUSH2 0x2F13 JUMP JUMPDEST SWAP2 POP POP SWAP3 SWAP2 POP POP JUMP JUMPDEST PUSH32 0x496E73756666696369656E7420746F6B656E7320696E20636F6E747261637400 PUSH0 DUP3 ADD MSTORE POP JUMP JUMPDEST PUSH0 PUSH2 0x2F86 PUSH1 0x1F DUP4 PUSH2 0x25C0 JUMP JUMPDEST SWAP2 POP PUSH2 0x2F91 DUP3 PUSH2 0x2F52 JUMP JUMPDEST PUSH1 0x20 DUP3 ADD SWAP1 POP SWAP2 SWAP1 POP JUMP JUMPDEST PUSH0 PUSH1 0x20 DUP3 ADD SWAP1 POP DUP2 DUP2 SUB PUSH0 DUP4 ADD MSTORE PUSH2 0x2FB3 DUP2 PUSH2 0x2F7A JUMP JUMPDEST SWAP1 POP SWAP2 SWAP1 POP JUMP JUMPDEST PUSH32 0x537761702072657175657374206578636565647320616C6C6F77616E63650000 PUSH0 DUP3 ADD MSTORE POP JUMP JUMPDEST PUSH0 PUSH2 0x2FEE PUSH1 0x1E DUP4 PUSH2 0x25C0 JUMP JUMPDEST SWAP2 POP PUSH2 0x2FF9 DUP3 PUSH2 0x2FBA JUMP JUMPDEST PUSH1 0x20 DUP3 ADD SWAP1 POP SWAP2 SWAP1 POP JUMP JUMPDEST PUSH0 PUSH1 0x20 DUP3 ADD SWAP1 POP DUP2 DUP2 SUB PUSH0 DUP4 ADD MSTORE PUSH2 0x301B DUP2 PUSH2 0x2FE2 JUMP JUMPDEST SWAP1 POP SWAP2 SWAP1 POP JUMP JUMPDEST PUSH0 DUP2 SWAP1 POP SWAP2 SWAP1 POP JUMP JUMPDEST PUSH0 PUSH2 0x3045 PUSH2 0x3040 PUSH2 0x303B DUP5 PUSH2 0x3022 JUMP JUMPDEST PUSH2 0x26F1 JUMP JUMPDEST PUSH2 0x24AE JUMP JUMPDEST SWAP1 POP SWAP2 SWAP1 POP JUMP JUMPDEST PUSH2 0x3055 DUP2 PUSH2 0x302B JUMP JUMPDEST DUP3 MSTORE POP POP JUMP JUMPDEST PUSH0 DUP2 MLOAD SWAP1 POP SWAP2 SWAP1 POP JUMP JUMPDEST PUSH0 DUP3 DUP3 MSTORE PUSH1 0x20 DUP3 ADD SWAP1 POP SWAP3 SWAP2 POP POP JUMP JUMPDEST PUSH0 DUP2 SWAP1 POP PUSH1 0x20 DUP3 ADD SWAP1 POP SWAP2 SWAP1 POP JUMP JUMPDEST PUSH2 0x308D DUP2 PUSH2 0x2473 JUMP JUMPDEST DUP3 MSTORE POP POP JUMP JUMPDEST PUSH0 PUSH2 0x309E DUP4 DUP4 PUSH2 0x3084 JUMP JUMPDEST PUSH1 0x20 DUP4 ADD SWAP1 POP SWAP3 SWAP2 POP POP JUMP JUMPDEST PUSH0 PUSH1 0x20 DUP3 ADD SWAP1 POP SWAP2 SWAP1 POP JUMP JUMPDEST PUSH0 PUSH2 0x30C0 DUP3 PUSH2 0x305B JUMP JUMPDEST PUSH2 0x30CA DUP2 DUP6 PUSH2 0x3065 JUMP JUMPDEST SWAP4 POP PUSH2 0x30D5 DUP4 PUSH2 0x3075 JUMP JUMPDEST DUP1 PUSH0 JUMPDEST DUP4 DUP2 LT ISZERO PUSH2 0x3105 JUMPI DUP2 MLOAD PUSH2 0x30EC DUP9 DUP3 PUSH2 0x3093 JUMP JUMPDEST SWAP8 POP PUSH2 0x30F7 DUP4 PUSH2 0x30AA JUMP JUMPDEST SWAP3 POP POP PUSH1 0x1 DUP2 ADD SWAP1 POP PUSH2 0x30D8 JUMP JUMPDEST POP DUP6 SWAP4 POP POP POP POP SWAP3 SWAP2 POP POP JUMP JUMPDEST PUSH0 PUSH1 0xA0 DUP3 ADD SWAP1 POP PUSH2 0x3125 PUSH0 DUP4 ADD DUP9 PUSH2 0x2765 JUMP JUMPDEST PUSH2 0x3132 PUSH1 0x20 DUP4 ADD DUP8 PUSH2 0x304C JUMP JUMPDEST DUP2 DUP2 SUB PUSH1 0x40 DUP4 ADD MSTORE PUSH2 0x3144 DUP2 DUP7 PUSH2 0x30B6 JUMP JUMPDEST SWAP1 POP PUSH2 0x3153 PUSH1 0x60 DUP4 ADD DUP6 PUSH2 0x286E JUMP JUMPDEST PUSH2 0x3160 PUSH1 0x80 DUP4 ADD DUP5 PUSH2 0x2765 JUMP JUMPDEST SWAP7 SWAP6 POP POP POP POP POP POP JUMP JUMPDEST PUSH32 0x5377617020746F20455448206661696C65642C206E6F20455448207265636569 PUSH0 DUP3 ADD MSTORE PUSH32 0x7665640000000000000000000000000000000000000000000000000000000000 PUSH1 0x20 DUP3 ADD MSTORE POP JUMP JUMPDEST PUSH0 PUSH2 0x31C4 PUSH1 0x23 DUP4 PUSH2 0x25C0 JUMP JUMPDEST SWAP2 POP PUSH2 0x31CF DUP3 PUSH2 0x316A JUMP JUMPDEST PUSH1 0x40 DUP3 ADD SWAP1 POP SWAP2 SWAP1 POP JUMP JUMPDEST PUSH0 PUSH1 0x20 DUP3 ADD SWAP1 POP DUP2 DUP2 SUB PUSH0 DUP4 ADD MSTORE PUSH2 0x31F1 DUP2 PUSH2 0x31B8 JUMP JUMPDEST SWAP1 POP SWAP2 SWAP1 POP JUMP JUMPDEST PUSH0 PUSH1 0x60 DUP3 ADD SWAP1 POP PUSH2 0x320B PUSH0 DUP4 ADD DUP7 PUSH2 0x286E JUMP JUMPDEST PUSH2 0x3218 PUSH1 0x20 DUP4 ADD DUP6 PUSH2 0x2765 JUMP JUMPDEST PUSH2 0x3225 PUSH1 0x40 DUP4 ADD DUP5 PUSH2 0x2765 JUMP JUMPDEST SWAP5 SWAP4 POP POP POP POP JUMP JUMPDEST PUSH32 0x4E6F7420656E6F7567682045544820666F72206C697175696469747900000000 PUSH0 DUP3 ADD MSTORE POP JUMP JUMPDEST PUSH0 PUSH2 0x3261 PUSH1 0x1C DUP4 PUSH2 0x25C0 JUMP JUMPDEST SWAP2 POP PUSH2 0x326C DUP3 PUSH2 0x322D JUMP JUMPDEST PUSH1 0x20 DUP3 ADD SWAP1 POP SWAP2 SWAP1 POP JUMP JUMPDEST PUSH0 PUSH1 0x20 DUP3 ADD SWAP1 POP DUP2 DUP2 SUB PUSH0 DUP4 ADD MSTORE PUSH2 0x328E DUP2 PUSH2 0x3255 JUMP JUMPDEST SWAP1 POP SWAP2 SWAP1 POP JUMP JUMPDEST PUSH32 0x4C6971756964697479206164646974696F6E2072657175657374206578636565 PUSH0 DUP3 ADD MSTORE PUSH32 0x647320616C6C6F77616E63650000000000000000000000000000000000000000 PUSH1 0x20 DUP3 ADD MSTORE POP JUMP JUMPDEST PUSH0 PUSH2 0x32EF PUSH1 0x2C DUP4 PUSH2 0x25C0 JUMP JUMPDEST SWAP2 POP PUSH2 0x32FA DUP3 PUSH2 0x3295 JUMP JUMPDEST PUSH1 0x40 DUP3 ADD SWAP1 POP SWAP2 SWAP1 POP JUMP JUMPDEST PUSH0 PUSH1 0x20 DUP3 ADD SWAP1 POP DUP2 DUP2 SUB PUSH0 DUP4 ADD MSTORE PUSH2 0x331C DUP2 PUSH2 0x32E3 JUMP JUMPDEST SWAP1 POP SWAP2 SWAP1 POP JUMP JUMPDEST PUSH0 PUSH1 0xC0 DUP3 ADD SWAP1 POP PUSH2 0x3336 PUSH0 DUP4 ADD DUP10 PUSH2 0x286E JUMP JUMPDEST PUSH2 0x3343 PUSH1 0x20 DUP4 ADD DUP9 PUSH2 0x2765 JUMP JUMPDEST PUSH2 0x3350 PUSH1 0x40 DUP4 ADD DUP8 PUSH2 0x304C JUMP JUMPDEST PUSH2 0x335D PUSH1 0x60 DUP4 ADD DUP7 PUSH2 0x304C JUMP JUMPDEST PUSH2 0x336A PUSH1 0x80 DUP4 ADD DUP6 PUSH2 0x286E JUMP JUMPDEST PUSH2 0x3377 PUSH1 0xA0 DUP4 ADD DUP5 PUSH2 0x2765 JUMP JUMPDEST SWAP8 SWAP7 POP POP POP POP POP POP POP JUMP JUMPDEST PUSH0 DUP2 MLOAD SWAP1 POP PUSH2 0x3390 DUP2 PUSH2 0x24B7 JUMP JUMPDEST SWAP3 SWAP2 POP POP JUMP JUMPDEST PUSH0 DUP1 PUSH0 PUSH1 0x60 DUP5 DUP7 SUB SLT ISZERO PUSH2 0x33AD JUMPI PUSH2 0x33AC PUSH2 0x2450 JUMP JUMPDEST JUMPDEST PUSH0 PUSH2 0x33BA DUP7 DUP3 DUP8 ADD PUSH2 0x3382 JUMP JUMPDEST SWAP4 POP POP PUSH1 0x20 PUSH2 0x33CB DUP7 DUP3 DUP8 ADD PUSH2 0x3382 JUMP JUMPDEST SWAP3 POP POP PUSH1 0x40 PUSH2 0x33DC DUP7 DUP3 DUP8 ADD PUSH2 0x3382 JUMP JUMPDEST SWAP2 POP POP SWAP3 POP SWAP3 POP SWAP3 JUMP JUMPDEST PUSH32 0x4C6971756964697479206164646974696F6E206661696C656400000000000000 PUSH0 DUP3 ADD MSTORE POP JUMP JUMPDEST PUSH0 PUSH2 0x341A PUSH1 0x19 DUP4 PUSH2 0x25C0 JUMP JUMPDEST SWAP2 POP PUSH2 0x3425 DUP3 PUSH2 0x33E6 JUMP JUMPDEST PUSH1 0x20 DUP3 ADD SWAP1 POP SWAP2 SWAP1 POP JUMP JUMPDEST PUSH0 PUSH1 0x20 DUP3 ADD SWAP1 POP DUP2 DUP2 SUB PUSH0 DUP4 ADD MSTORE PUSH2 0x3447 DUP2 PUSH2 0x340E JUMP JUMPDEST SWAP1 POP SWAP2 SWAP1 POP JUMP JUMPDEST PUSH0 PUSH1 0xA0 DUP3 ADD SWAP1 POP PUSH2 0x3461 PUSH0 DUP4 ADD DUP9 PUSH2 0x2808 JUMP JUMPDEST PUSH2 0x346E PUSH1 0x20 DUP4 ADD DUP8 PUSH2 0x2808 JUMP JUMPDEST PUSH2 0x347B PUSH1 0x40 DUP4 ADD DUP7 PUSH2 0x2808 JUMP JUMPDEST PUSH2 0x3488 PUSH1 0x60 DUP4 ADD DUP6 PUSH2 0x2765 JUMP JUMPDEST PUSH2 0x3495 PUSH1 0x80 DUP4 ADD DUP5 PUSH2 0x286E JUMP JUMPDEST SWAP7 SWAP6 POP POP POP POP POP POP JUMP JUMPDEST PUSH0 PUSH1 0x80 DUP3 ADD SWAP1 POP PUSH2 0x34B2 PUSH0 DUP4 ADD DUP8 PUSH2 0x2808 JUMP JUMPDEST PUSH2 0x34BF PUSH1 0x20 DUP4 ADD DUP7 PUSH2 0x27D7 JUMP JUMPDEST PUSH2 0x34CC PUSH1 0x40 DUP4 ADD DUP6 PUSH2 0x2808 JUMP JUMPDEST PUSH2 0x34D9 PUSH1 0x60 DUP4 ADD DUP5 PUSH2 0x2808 JUMP JUMPDEST SWAP6 SWAP5 POP POP POP POP POP JUMP JUMPDEST PUSH32 0x4E487B7100000000000000000000000000000000000000000000000000000000 PUSH0 MSTORE PUSH1 0x21 PUSH1 0x4 MSTORE PUSH1 0x24 PUSH0 REVERT INVALID LOG2 PUSH5 0x6970667358 0x22 SLT KECCAK256 0xDB MOD 0xED 0x1F PUSH25 0xF031D6C6D25CCD576CA1E818CA24D34768A2BC0D27AD8F1169 PUSH15 0x9564736F6C63430008140033000000 "
		},
		"gasEstimates": {
			"creation": {
				"codeDepositCost": "2727400",
				"executionCost": "infinite",
				"totalCost": "infinite"
			},
			"external": {
				"DOMAIN_SEPARATOR()": "infinite",
				"_transferWithFee(address,address,uint256)": "infinite",
				"addLiquidityPool(address,bool)": "infinite",
				"allowance(address,address)": "infinite",
				"approve(address,uint256)": "infinite",
				"balanceOf(address)": "2918",
				"charityAddress()": "2553",
				"charityFee()": "2605",
				"clearStuckNativeBalance(uint256,address)": "infinite",
				"decimals()": "406",
				"depositTokens(uint256)": "infinite",
				"devMarketingFee()": "2585",
				"eip712Domain()": "infinite",
				"enableOrDisableSwap(bool)": "infinite",
				"isEnableSwap()": "2628",
				"liquidityFee()": "2606",
				"liquidityPools(address)": "2879",
				"marketingDevAddress()": "2575",
				"name()": "infinite",
				"nonces(address)": "2917",
				"owner()": "2627",
				"pairV2()": "2553",
				"permit(address,address,uint256,uint256,uint8,bytes32,bytes32)": "infinite",
				"renounceOwnership()": "infinite",
				"swapForETHToUniswapV2(uint256,address,bool)": "infinite",
				"symbol()": "infinite",
				"totalSupply()": "2522",
				"transfer(address,uint256)": "infinite",
				"transferFrom(address,address,uint256)": "infinite",
				"transferOwnership(address)": "infinite",
				"uniswapV2Router()": "infinite",
				"uniswapV2RouterAddress()": "2553"
			},
			"internal": {
				"_addLiquidityETH(uint256,uint256)": "infinite",
				"sendETHToWallet(address payable,uint256)": "infinite",
				"swapAndLiquify(uint256)": "infinite",
				"swapBack()": "infinite",
				"swapToETH(uint256,address)": "infinite"
			}
		},
		"methodIdentifiers": {
			"DOMAIN_SEPARATOR()": "3644e515",
			"_transferWithFee(address,address,uint256)": "0298a5f7",
			"addLiquidityPool(address,bool)": "492a937b",
			"allowance(address,address)": "dd62ed3e",
			"approve(address,uint256)": "095ea7b3",
			"balanceOf(address)": "70a08231",
			"charityAddress()": "afcf2fc4",
			"charityFee()": "ecfca899",
			"clearStuckNativeBalance(uint256,address)": "22120793",
			"decimals()": "313ce567",
			"depositTokens(uint256)": "dd49756e",
			"devMarketingFee()": "83afaac0",
			"eip712Domain()": "84b0196e",
			"enableOrDisableSwap(bool)": "ba244b7d",
			"isEnableSwap()": "dca5f865",
			"liquidityFee()": "98118cb4",
			"liquidityPools(address)": "0b0fd47e",
			"marketingDevAddress()": "6e03832a",
			"name()": "06fdde03",
			"nonces(address)": "7ecebe00",
			"owner()": "8da5cb5b",
			"pairV2()": "8fffabed",
			"permit(address,address,uint256,uint256,uint8,bytes32,bytes32)": "d505accf",
			"renounceOwnership()": "715018a6",
			"swapForETHToUniswapV2(uint256,address,bool)": "044808c3",
			"symbol()": "95d89b41",
			"totalSupply()": "18160ddd",
			"transfer(address,uint256)": "a9059cbb",
			"transferFrom(address,address,uint256)": "23b872dd",
			"transferOwnership(address)": "f2fde38b",
			"uniswapV2Router()": "1694505e",
			"uniswapV2RouterAddress()": "4a377e1d"
		}
	},
	"abi": [
		{
			"inputs": [
				{
					"internalType": "address",
					"name": "initialOwner",
					"type": "address"
				}
			],
			"stateMutability": "nonpayable",
			"type": "constructor"
		},
		{
			"inputs": [],
			"name": "ECDSAInvalidSignature",
			"type": "error"
		},
		{
			"inputs": [
				{
					"internalType": "uint256",
					"name": "length",
					"type": "uint256"
				}
			],
			"name": "ECDSAInvalidSignatureLength",
			"type": "error"
		},
		{
			"inputs": [
				{
					"internalType": "bytes32",
					"name": "s",
					"type": "bytes32"
				}
			],
			"name": "ECDSAInvalidSignatureS",
			"type": "error"
		},
		{
			"inputs": [
				{
					"internalType": "address",
					"name": "spender",
					"type": "address"
				},
				{
					"internalType": "uint256",
					"name": "allowance",
					"type": "uint256"
				},
				{
					"internalType": "uint256",
					"name": "needed",
					"type": "uint256"
				}
			],
			"name": "ERC20InsufficientAllowance",
			"type": "error"
		},
		{
			"inputs": [
				{
					"internalType": "address",
					"name": "sender",
					"type": "address"
				},
				{
					"internalType": "uint256",
					"name": "balance",
					"type": "uint256"
				},
				{
					"internalType": "uint256",
					"name": "needed",
					"type": "uint256"
				}
			],
			"name": "ERC20InsufficientBalance",
			"type": "error"
		},
		{
			"inputs": [
				{
					"internalType": "address",
					"name": "approver",
					"type": "address"
				}
			],
			"name": "ERC20InvalidApprover",
			"type": "error"
		},
		{
			"inputs": [
				{
					"internalType": "address",
					"name": "receiver",
					"type": "address"
				}
			],
			"name": "ERC20InvalidReceiver",
			"type": "error"
		},
		{
			"inputs": [
				{
					"internalType": "address",
					"name": "sender",
					"type": "address"
				}
			],
			"name": "ERC20InvalidSender",
			"type": "error"
		},
		{
			"inputs": [
				{
					"internalType": "address",
					"name": "spender",
					"type": "address"
				}
			],
			"name": "ERC20InvalidSpender",
			"type": "error"
		},
		{
			"inputs": [
				{
					"internalType": "uint256",
					"name": "deadline",
					"type": "uint256"
				}
			],
			"name": "ERC2612ExpiredSignature",
			"type": "error"
		},
		{
			"inputs": [
				{
					"internalType": "address",
					"name": "signer",
					"type": "address"
				},
				{
					"internalType": "address",
					"name": "owner",
					"type": "address"
				}
			],
			"name": "ERC2612InvalidSigner",
			"type": "error"
		},
		{
			"inputs": [
				{
					"internalType": "address",
					"name": "account",
					"type": "address"
				},
				{
					"internalType": "uint256",
					"name": "currentNonce",
					"type": "uint256"
				}
			],
			"name": "InvalidAccountNonce",
			"type": "error"
		},
		{
			"inputs": [],
			"name": "InvalidShortString",
			"type": "error"
		},
		{
			"inputs": [
				{
					"internalType": "address",
					"name": "owner",
					"type": "address"
				}
			],
			"name": "OwnableInvalidOwner",
			"type": "error"
		},
		{
			"inputs": [
				{
					"internalType": "address",
					"name": "account",
					"type": "address"
				}
			],
			"name": "OwnableUnauthorizedAccount",
			"type": "error"
		},
		{
			"inputs": [
				{
					"internalType": "string",
					"name": "str",
					"type": "string"
				}
			],
			"name": "StringTooLong",
			"type": "error"
		},
		{
			"anonymous": false,
			"inputs": [
				{
					"indexed": true,
					"internalType": "address",
					"name": "owner",
					"type": "address"
				},
				{
					"indexed": true,
					"internalType": "address",
					"name": "spender",
					"type": "address"
				},
				{
					"indexed": false,
					"internalType": "uint256",
					"name": "value",
					"type": "uint256"
				}
			],
			"name": "Approval",
			"type": "event"
		},
		{
			"anonymous": false,
			"inputs": [],
			"name": "EIP712DomainChanged",
			"type": "event"
		},
		{
			"anonymous": false,
			"inputs": [
				{
					"indexed": true,
					"internalType": "address",
					"name": "previousOwner",
					"type": "address"
				},
				{
					"indexed": true,
					"internalType": "address",
					"name": "newOwner",
					"type": "address"
				}
			],
			"name": "OwnershipTransferred",
			"type": "event"
		},
		{
			"anonymous": false,
			"inputs": [
				{
					"indexed": true,
					"internalType": "address",
					"name": "from",
					"type": "address"
				},
				{
					"indexed": true,
					"internalType": "address",
					"name": "to",
					"type": "address"
				},
				{
					"indexed": false,
					"internalType": "uint256",
					"name": "value",
					"type": "uint256"
				}
			],
			"name": "Transfer",
			"type": "event"
		},
		{
			"inputs": [],
			"name": "DOMAIN_SEPARATOR",
			"outputs": [
				{
					"internalType": "bytes32",
					"name": "",
					"type": "bytes32"
				}
			],
			"stateMutability": "view",
			"type": "function"
		},
		{
			"inputs": [
				{
					"internalType": "address",
					"name": "sender",
					"type": "address"
				},
				{
					"internalType": "address",
					"name": "recipient",
					"type": "address"
				},
				{
					"internalType": "uint256",
					"name": "amount",
					"type": "uint256"
				}
			],
			"name": "_transferWithFee",
			"outputs": [],
			"stateMutability": "nonpayable",
			"type": "function"
		},
		{
			"inputs": [
				{
					"internalType": "address",
					"name": "_liquidityAddress",
					"type": "address"
				},
				{
					"internalType": "bool",
					"name": "_isActive",
					"type": "bool"
				}
			],
			"name": "addLiquidityPool",
			"outputs": [],
			"stateMutability": "nonpayable",
			"type": "function"
		},
		{
			"inputs": [
				{
					"internalType": "address",
					"name": "owner",
					"type": "address"
				},
				{
					"internalType": "address",
					"name": "spender",
					"type": "address"
				}
			],
			"name": "allowance",
			"outputs": [
				{
					"internalType": "uint256",
					"name": "",
					"type": "uint256"
				}
			],
			"stateMutability": "view",
			"type": "function"
		},
		{
			"inputs": [
				{
					"internalType": "address",
					"name": "spender",
					"type": "address"
				},
				{
					"internalType": "uint256",
					"name": "value",
					"type": "uint256"
				}
			],
			"name": "approve",
			"outputs": [
				{
					"internalType": "bool",
					"name": "",
					"type": "bool"
				}
			],
			"stateMutability": "nonpayable",
			"type": "function"
		},
		{
			"inputs": [
				{
					"internalType": "address",
					"name": "account",
					"type": "address"
				}
			],
			"name": "balanceOf",
			"outputs": [
				{
					"internalType": "uint256",
					"name": "",
					"type": "uint256"
				}
			],
			"stateMutability": "view",
			"type": "function"
		},
		{
			"inputs": [],
			"name": "charityAddress",
			"outputs": [
				{
					"internalType": "address payable",
					"name": "",
					"type": "address"
				}
			],
			"stateMutability": "view",
			"type": "function"
		},
		{
			"inputs": [],
			"name": "charityFee",
			"outputs": [
				{
					"internalType": "uint16",
					"name": "",
					"type": "uint16"
				}
			],
			"stateMutability": "view",
			"type": "function"
		},
		{
			"inputs": [
				{
					"internalType": "uint256",
					"name": "amountPercentage",
					"type": "uint256"
				},
				{
					"internalType": "address",
					"name": "adr",
					"type": "address"
				}
			],
			"name": "clearStuckNativeBalance",
			"outputs": [],
			"stateMutability": "nonpayable",
			"type": "function"
		},
		{
			"inputs": [],
			"name": "decimals",
			"outputs": [
				{
					"internalType": "uint8",
					"name": "",
					"type": "uint8"
				}
			],
			"stateMutability": "view",
			"type": "function"
		},
		{
			"inputs": [
				{
					"internalType": "uint256",
					"name": "amount",
					"type": "uint256"
				}
			],
			"name": "depositTokens",
			"outputs": [],
			"stateMutability": "nonpayable",
			"type": "function"
		},
		{
			"inputs": [],
			"name": "devMarketingFee",
			"outputs": [
				{
					"internalType": "uint16",
					"name": "",
					"type": "uint16"
				}
			],
			"stateMutability": "view",
			"type": "function"
		},
		{
			"inputs": [],
			"name": "eip712Domain",
			"outputs": [
				{
					"internalType": "bytes1",
					"name": "fields",
					"type": "bytes1"
				},
				{
					"internalType": "string",
					"name": "name",
					"type": "string"
				},
				{
					"internalType": "string",
					"name": "version",
					"type": "string"
				},
				{
					"internalType": "uint256",
					"name": "chainId",
					"type": "uint256"
				},
				{
					"internalType": "address",
					"name": "verifyingContract",
					"type": "address"
				},
				{
					"internalType": "bytes32",
					"name": "salt",
					"type": "bytes32"
				},
				{
					"internalType": "uint256[]",
					"name": "extensions",
					"type": "uint256[]"
				}
			],
			"stateMutability": "view",
			"type": "function"
		},
		{
			"inputs": [
				{
					"internalType": "bool",
					"name": "_status",
					"type": "bool"
				}
			],
			"name": "enableOrDisableSwap",
			"outputs": [],
			"stateMutability": "nonpayable",
			"type": "function"
		},
		{
			"inputs": [],
			"name": "isEnableSwap",
			"outputs": [
				{
					"internalType": "bool",
					"name": "",
					"type": "bool"
				}
			],
			"stateMutability": "view",
			"type": "function"
		},
		{
			"inputs": [],
			"name": "liquidityFee",
			"outputs": [
				{
					"internalType": "uint16",
					"name": "",
					"type": "uint16"
				}
			],
			"stateMutability": "view",
			"type": "function"
		},
		{
			"inputs": [
				{
					"internalType": "address",
					"name": "",
					"type": "address"
				}
			],
			"name": "liquidityPools",
			"outputs": [
				{
					"internalType": "bool",
					"name": "",
					"type": "bool"
				}
			],
			"stateMutability": "view",
			"type": "function"
		},
		{
			"inputs": [],
			"name": "marketingDevAddress",
			"outputs": [
				{
					"internalType": "address payable",
					"name": "",
					"type": "address"
				}
			],
			"stateMutability": "view",
			"type": "function"
		},
		{
			"inputs": [],
			"name": "name",
			"outputs": [
				{
					"internalType": "string",
					"name": "",
					"type": "string"
				}
			],
			"stateMutability": "view",
			"type": "function"
		},
		{
			"inputs": [
				{
					"internalType": "address",
					"name": "owner",
					"type": "address"
				}
			],
			"name": "nonces",
			"outputs": [
				{
					"internalType": "uint256",
					"name": "",
					"type": "uint256"
				}
			],
			"stateMutability": "view",
			"type": "function"
		},
		{
			"inputs": [],
			"name": "owner",
			"outputs": [
				{
					"internalType": "address",
					"name": "",
					"type": "address"
				}
			],
			"stateMutability": "view",
			"type": "function"
		},
		{
			"inputs": [],
			"name": "pairV2",
			"outputs": [
				{
					"internalType": "address",
					"name": "",
					"type": "address"
				}
			],
			"stateMutability": "view",
			"type": "function"
		},
		{
			"inputs": [
				{
					"internalType": "address",
					"name": "owner",
					"type": "address"
				},
				{
					"internalType": "address",
					"name": "spender",
					"type": "address"
				},
				{
					"internalType": "uint256",
					"name": "value",
					"type": "uint256"
				},
				{
					"internalType": "uint256",
					"name": "deadline",
					"type": "uint256"
				},
				{
					"internalType": "uint8",
					"name": "v",
					"type": "uint8"
				},
				{
					"internalType": "bytes32",
					"name": "r",
					"type": "bytes32"
				},
				{
					"internalType": "bytes32",
					"name": "s",
					"type": "bytes32"
				}
			],
			"name": "permit",
			"outputs": [],
			"stateMutability": "nonpayable",
			"type": "function"
		},
		{
			"inputs": [],
			"name": "renounceOwnership",
			"outputs": [],
			"stateMutability": "nonpayable",
			"type": "function"
		},
		{
			"inputs": [
				{
					"internalType": "uint256",
					"name": "_amount",
					"type": "uint256"
				},
				{
					"internalType": "address",
					"name": "_to",
					"type": "address"
				},
				{
					"internalType": "bool",
					"name": "_needAddliquidity",
					"type": "bool"
				}
			],
			"name": "swapForETHToUniswapV2",
			"outputs": [],
			"stateMutability": "nonpayable",
			"type": "function"
		},
		{
			"inputs": [],
			"name": "symbol",
			"outputs": [
				{
					"internalType": "string",
					"name": "",
					"type": "string"
				}
			],
			"stateMutability": "view",
			"type": "function"
		},
		{
			"inputs": [],
			"name": "totalSupply",
			"outputs": [
				{
					"internalType": "uint256",
					"name": "",
					"type": "uint256"
				}
			],
			"stateMutability": "view",
			"type": "function"
		},
		{
			"inputs": [
				{
					"internalType": "address",
					"name": "recipient",
					"type": "address"
				},
				{
					"internalType": "uint256",
					"name": "amount",
					"type": "uint256"
				}
			],
			"name": "transfer",
			"outputs": [
				{
					"internalType": "bool",
					"name": "",
					"type": "bool"
				}
			],
			"stateMutability": "nonpayable",
			"type": "function"
		},
		{
			"inputs": [
				{
					"internalType": "address",
					"name": "sender",
					"type": "address"
				},
				{
					"internalType": "address",
					"name": "recipient",
					"type": "address"
				},
				{
					"internalType": "uint256",
					"name": "amount",
					"type": "uint256"
				}
			],
			"name": "transferFrom",
			"outputs": [
				{
					"internalType": "bool",
					"name": "",
					"type": "bool"
				}
			],
			"stateMutability": "nonpayable",
			"type": "function"
		},
		{
			"inputs": [
				{
					"internalType": "address",
					"name": "newOwner",
					"type": "address"
				}
			],
			"name": "transferOwnership",
			"outputs": [],
			"stateMutability": "nonpayable",
			"type": "function"
		},
		{
			"inputs": [],
			"name": "uniswapV2Router",
			"outputs": [
				{
					"internalType": "contract IUniswapV2Router02",
					"name": "",
					"type": "address"
				}
			],
			"stateMutability": "view",
			"type": "function"
		},
		{
			"inputs": [],
			"name": "uniswapV2RouterAddress",
			"outputs": [
				{
					"internalType": "address",
					"name": "",
					"type": "address"
				}
			],
			"stateMutability": "view",
			"type": "function"
		},
		{
			"stateMutability": "payable",
			"type": "receive"
		}
	]
}